:020000040000fa
:080000000001040000000000f3
:020000040000fa
:0400080010020000e2
:020000040000fa
:04000c0010020000de
:020000040000fa
:0400100010020000da
:020000040000fa
:0400140010020000d6
:020000040000fa
:0400180010020000d2
:020000040000fa
:04001c0010020000ce
:020000040000fa
:0400200010020000ca
:020000040000fa
:0400240010020000c6
:020000040000fa
:0400280010020000c2
:020000040000fa
:04002c0010020000be
:020000040000fa
:0400300010020000ba
:020000040000fa
:04003400640500005f
:020000040000fa
:0400380010020000b2
:020000040000fa
:04003c0010020000ae
:020000040000fa
:0400400010020000aa
:020000040000fa
:0400440010020000a6
:020000040000fa
:0400480010020000a2
:020000040000fa
:04004c00100200009e
:020000040000fa
:04005000100200009a
:020000040000fa
:04005400e8020000be
:020000040000fa
:040058006c02000036
:020000040000fa
:04005c00100200008e
:020000040000fa
:04006000100200008a
:020000040000fa
:040064001002000086
:020000040000fa
:040068001002000082
:020000040000fa
:04006c00100200007e
:020000040000fa
:04007000100200007a
:020000040000fa
:040074001002000076
:020000040000fa
:040078001002000072
:020000040000fa
:04007c00100200006e
:020000040000fa
:04008000100200006a
:020000040000fa
:040084001002000066
:020000040000fa
:040088001002000062
:020000040000fa
:04008c00100200005e
:020000040000fa
:04009000100200005a
:020000040000fa
:040094001002000056
:020000040000fa
:040098001002000052
:020000040000fa
:04009c00100200004e
:020000040000fa
:0400a000100200004a
:020000040000fa
:0400a4001002000046
:020000040000fa
:0400a8001002000042
:020000040000fa
:0400ac00100200003e
:020000040000fa
:0400b000100200003a
:020000040000fa
:0400b4001002000036
:020000040000fa
:0400b8001002000032
:020000040000fa
:0400bc00100200002e
:020000040000fa
:0400c000100200002a
:020000040000fa
:0400c4001002000026
:020000040000fa
:0400c8001002000022
:020000040000fa
:0400cc00100200001e
:020000040000fa
:0400d000100200001a
:020000040000fa
:0400d4001002000016
:020000040000fa
:0400d8001002000012
:020000040000fa
:0400dc00100200000e
:020000040000fa
:0400e000100200000a
:020000040000fa
:0400e4001002000006
:020000040000fa
:0400e8001002000002
:020000040000fa
:0400ec0010020000fe
:020000040000fa
:0400f00010020000fa
:020000040000fa
:0400f40010020000f6
:020000040000fa
:0400f80010020000f2
:020000040000fa
:0400fc0010020000ee
:020000040000fa
:0401000010020000e9
:020000040000fa
:0401040010020000e5
:020000040000fa
:0401080010020000e1
:020000040000fa
:04010c0010020000dd
:020000040000fa
:0401100010020000d9
:020000040000fa
:0401140010020000d5
:020000040000fa
:0401180010020000d1
:020000040000fa
:04011c0010020000cd
:020000040000fa
:0401200010020000c9
:020000040000fa
:0401240010020000c5
:020000040000fa
:0401280010020000c1
:020000040000fa
:04012c004803000084
:020000040000fa
:0401300010020000b9
:020000040000fa
:0401340010020000b5
:020000040000fa
:0401380010020000b1
:020000040000fa
:04013c0010020000ad
:020000040000fa
:0401400010020000a9
:020000040000fa
:0401440010020000a5
:020000040000fa
:0401480010020000a1
:020000040000fa
:04014c00100200009d
:020000040000fa
:040150001002000099
:020000040000fa
:040154001002000095
:020000040000fa
:040158001002000091
:020000040000fa
:04015c00100200008d
:020000040000fa
:040160001002000089
:020000040000fa
:040164001002000085
:020000040000fa
:040168001002000081
:020000040000fa
:04016c00100200007d
:020000040000fa
:040170001002000079
:020000040000fa
:040174001002000075
:020000040000fa
:040178001002000071
:020000040000fa
:04017c00100200006d
:020000040000fa
:040180001002000069
:020000040000fa
:040184001002000065
:020000040000fa
:040188001002000061
:020000040000fa
:04018c00100200005d
:020000040000fa
:040190001002000059
:020000040000fa
:040194001002000055
:020000040000fa
:040198001002000051
:020000040000fa
:04019c00100200004d
:020000040000fa
:0401a0001002000049
:020000040000fa
:0401a4001002000045
:020000040000fa
:0401a8001002000041
:020000040000fa
:0401ac00100200003d
:020000040000fa
:0401b0001002000039
:020000040000fa
:0401b4001002000035
:020000040000fa
:0401b8001002000031
:020000040000fa
:0401bc00100200002d
:020000040000fa
:0401c0001002000029
:020000040000fa
:0401c4001002000025
:020000040000fa
:0401c8001002000021
:020000040000fa
:0401cc00100200001d
:020000040000fa
:0401d0001002000019
:020000040000fa
:0401d4001002000015
:020000040000fa
:0401d8001002000011
:020000040000fa
:0401dc00100200000d
:020000040000fa
:0401e0001002000009
:020000040000fa
:0401e4001002000005
:020000040000fa
:0401e8001002000001
:020000040000fa
:0401ec0010020000fd
:020000040000fa
:0401f00010020000f9
:020000040000fa
:0401f40010020000f5
:020000040000fa
:0401f80010020000f1
:020000040000fa
:0401fc0010020000ed
:020000040000fa
:100200008f8920000e7f24000e018800000000006e
:10021000000020000000e000020032000001200089
:1002200020028800140007007f0007000000e000a3
:1002300003003a006078200001002000020037002f
:100240000000200001002000810f7000010032003a
:1002500014000700000020000000e000020032004f
:1002600000000200000000002e0602000000000056
:100270000040da000000fe004440a90020002000f9
:100280000000e00003003200100020009001880010
:100290004440a800000006008a1f78008b1f7800e9
:1002a00000000600a1028800800478000000eb0036
:1002b0001f003700e284440054a0b4009905ba003e
:1002c000e284440054a0b4009906ba00e2844400d9
:1002d00054a0b4000006eb00476fde00fd07b2003b
:1002e000ae018800636ce10003003a00eaff0700fa
:1002f0000000eb000e003700606ce10008003a00df
:10030000004deb000a05e800020039003420ec0043
:100310000af0a0008b05e900f9ff3e000400370059
:100320006168e100010032000086eb000b0007006d
:1003300019c7ba001905ba000e04e00003003a001c
:100340000a00e000dbff3a0000000600fe07b200f2
:10035000ae0288008a047800f5ff37000cd0a300b5
:10036000e20f4d001c00390089027800354dba00bb
:100370000a05e800020039003420ec000af0a00071
:100380008b05e9000f003200254dba000a05e80090
:10039000020039003420ec000af0a0008b05e900cf
:1003a000080032000c00e0000600320015cdba0053
:1003b0000a05e800020039003420ec000af0a00031
:1003c0008b05e9008984e80054a0b4000b00e0002c
:1003d000e2ff3a00000006009902ba00055d7800cd
:1003e0008b05e900f7ff3200c82ade00055d7800c2
:1003f0008b05e900f3ff32000c00e000f1ff320052
:1004000019ddba00eeff3700000000000000000018
:1004100000000000000000000000000000000000dc
:0c0420000040da000000fe0000000500b3
:020000040000fa
:10042c000000fa0080002000c01c8800000820009a
:10043c00d01c880030032000001d8800a223ef0090
:10044c009960a8006030200058000700a028200008
:10045c001800070099e3a8009b43a8002081200006
:10046c00704088002081200060408800208520009a
:10047c00504088002085200040408800804080004b
:10048c000010a00080408800804080000090a000f8
:10049c0080408800804080000080a100804088005f
:1004ac00804080000000a100804088000080fa009d
:1004bc00000006000200fa00000f78001e00780011
:1004cc00004088000080fa00000006003600f800aa
:1004dc00809fbe00829fbe00849fbe00869fbe0090
:1004ec000000fa0000408000000001000080fa00cb
:1004fc004f03be004f02be004f01be004f00be00b6
:10050c003600f900004006000000fa00814080002f
:10051c0000202000008060000000e000020032009b
:10052c009980a9001f0037008980a90018003700a6
:10053c0070408000104078000080fb00e01c8800b8
:10054c00704080000000e80070408800714080001e
:10055c0020852000808f500002003a00208120006e
:10056c0070408800804080000080a100804088009e
:10057c007140800060408000808f500004003a0081
:10058c00804080000090a00080408800050037006b
:10059c00d11c800000202000008060000000e000e2
:1005ac00e3ff32000080fa00000006000200fa00af
:1005bc00000f78001e007800104088000080fa00c0
:1005cc00000006003600f800809fbe00829fbe002f
:1005dc00849fbe00869fbe000000fa001040800081
:1005ec00000001000080fa004f03be004f02be0065
:1005fc004f01be004f00be003600f900004006005f
:10060c000000fa001800370040408000f11c800008
:10061c008140780001487800404080000000e800ec
:10062c00404088004140800020892000808f50008d
:10063c0002003a0020852000404088008040800065
:10064c000010a10080408800414080005040800094
:10065c00808f500004003a00804080000000a00011
:10066c008040880004003700d01c800061006000ce
:10067c000000e000e4ff3a008960a9000080fa0065
:10068c0000000600801f78000000fa00d01c8000db
:10069c00620060000000e000010032009a23a90013
:1006ac009020a9000080fa004f007800004006005e
:1006bc000200fa000040eb00004f78005040800030
:1006cc00104f7800504080000000e8005040880037
:1006dc005140800020892000808f500002003a0099
:1006ec002085200050408800514080004040800010
:1006fc00808f500003003a00804080000010a00062
:10070c0080408800804080000000a100804088006c
:10071c001e4078000080fa00000006000600fa0077
:10072c00881f780010079800210798000000eb0044
:10073c00000f7800090037008040800062006000e4
:10074c000000e0000a003a001e0090001e04400069
:10075c00d7ff0700004c78001e0fe8002e00900019
:10076c009e007800808f5000f3ff390001003700a5
:10077c00000000001e0078004f0478000080fa0092
:10078c00000006000200fa00004f78009980a900d2
:10079c00604080001e487800604080000000e80047
:1007ac00604088006140800020852000808f5000d0
:1007bc0002003a00208120006040880080408000c8
:1007cc000090a10080408800714080006040800053
:1007dc00808f500003003a00804080000080a00011
:1007ec00804088009980a8000080fa000000060074
:1007fc000600fa0010079800210798000000eb0093
:10080c00000f78000a0037008140800000102000a3
:10081c00008060000000e0000a003a001e0090001a
:10082c001e004000104078001e0fe800d5ff0700a6
:10083c002e0090009e007800808f5000f2ff39004f
:10084c0001003700000000001e0078000080fa0054
:10085c00000006000200fa000000eb00000f780018
:10086c008140800000102000008060000000e0004b
:10087c00010032001e30a0008140800000202000ca
:10088c00008060000000e000010032001e40a0006b
:10089c0080408000610060000000e0000100320038
:1008ac001e00a00080408000620060000000e0009c
:1008bc00020032001e20a000010037001e10a00014
:1008cc001e0078000080fa00000006000200fa000a
:1008dc00000f7800504080009e00400020892000ce
:1008ec00808f500008003600504080009e00400071
:1008fc00208920000000ea000080400021852000b3
:10090c006140780003003700504080001e0040001a
:10091c00104078000080fa00000006000000fa0089
:10092c0080408000610060000000e00011003a008f
:10093c005140800040408000808f500006003600ff
:10094c00504080008040780040408000004078009b
:10095c0000c05000080037005040800080407800f4
:10096c00404080000040780000c050000044b000bf
:10097c00010037000040eb000080fa000000060088
:10098c000000fa0081408000001020000080600010
:10099c000000e00011003a007140800060408000cf
:1009ac00808f500006003600704080008040780038
:1009bc00604080000040780000c050000800370004
:1009cc0070408000804078006040800000407800db
:1009dc0000c050000044b000010037000040eb00a4
:1009ec000080fa00000006000000fa008040800041
:1009fc000000d100614060000080fb0000f0a70007
:100a0c000000ea000000ea004f00de000040780021
:100a1c000080fa00000006000000fa008040800010
:100a2c004800de00614060000080fb0000f0a70081
:100a3c000000ea000000ea004f00de0000407800f1
:100a4c000080fa00000006000000fa00d01c8000b4
:100a5c000080fa00000006000000fa00d01c8000a4
:100a6c004800de00614060000080fb0000f0a70041
:100a7c000000ea000000ea004f00de0000407800b1
:100a8c000080fa00000006000000fa009021ef0040
:100a9c00c0c82300900c880020202800a00c8800df
:100aac008860a9009860a800608920008040eb0055
:100abc00014878000080fa00000006003600f800bb
:100acc00809fbe00829fbe00849fbe00869fbe009a
:100adc000000fa00204080000000e8002040880060
:100aec0020408000e20f5000020036002b0007006f
:100afc000428ef0070892000104078008040e80046
:100b0c0070892000014878006089200011c0b30072
:100b1c00014878008860a9000080fa004f03be00ed
:100b2c004f02be004f01be004f00be003600f90060
:100b3c00004006000200fa00000f78009e007800ca
:100b4c00910c8800608920008040eb0001487800ff
:100b5c000080fa00000006000000fa00900c8000f3
:100b6c000080fa00000006000200fa00000f780076
:100b7c009e007800810c8800608920008040eb008a
:100b8c00014878000080fa00000006000000fa001e
:100b9c00800c80000080fa00000006000000fa00c3
:100bac0010c0b30006e8b70031c0b30020892000a4
:100bbc004f0007000080fa00000006000000fa0059
:100bcc00608920008040eb00014878009860a80004
:100bdc0095e1a8000080fa00000006000000fa0071
:100bec0095e1a9009860a9000080fa0000000600b9
:100bfc000200fa0060892000104f78001e40780037
:100c0c000004e00003003200608920008040eb000b
:100c1c00014878001e4078000080fa0000000600b1
:100c2c000000fa0070892000104078000080fb0062
:100c3c000080fa00000006000000fa007089200015
:100c4c008040eb00014878000080fa0000000600ac
:100c5c000000fa00740007002066200053fe070015
:100c6c009980a9001d000700d4ff070000000000b8
:100c7c0006c8bf000004e000fdff32000668ef006c
:100c8c00d03380004c00de00614060000004a20004
:100c9c00614060000080fb00610060004c00dd00e2
:100cac00d133800001c0a10001007000d033880056
:100cbc0000000000eeff37001600fa007b86a8004b
:100ccc004ffe07000e00e800a100200093fe070075
:100cdc00004f78000080fa00000006000000fa00c7
:100cec007b26a8007ba6a8000080fa000000060066
:100cfc000600fa0010079800414798000040eb00ee
:100d0c00004f78000d0037001e0090001040780056
:100d1c000080fb00e01c880000000000d11c80005b
:100d2c0000102000008060000000e000fbff32009b
:100d3c001e0090000000e8001007980010c0b300df
:100d4c00ce4090001e417800814f510001003900c7
:100d5c000040eb001e4fe8000004e000eaff3a0000
:100d6c000080fa00000006000000fa006626ef0082
:100d7c007a26ef00f001200010338800f05f2c0081
:100d8c00b03388007426ef008826ef007226ef003f
:100d9c008626ef006826ef007c26ef00f00020008e
:100dac0050338800c0202f00f033880001088000e9
:100dbc00f00b200000816000600420007105200011
:100dcc00031020008049780081497800824978001e
:100ddc00f13e8000f00f2800808060000030200081
:100dec0001007000f03e8800a13d800000fc2f0047
:100dfc0000806000a000b300a03d880000088000c7
:100e0c00000178000260a000600420007105200041
:100e1c0003102000804978008149780082497800cd
:100e2c000080fa00000006000000fa00ceff070068
:100e3c001a0007000400070013ff070078fd0700e5
:100e4c000080fa00000006000000fa000001eb0030
:100e5c0060042000710520000310200080497800f8
:100e6c00814978008249780000002300100888002e
:100e7c000621ef006821ef006a21ef006c21ef00e2
:100e8c000821ef0000702000500888000c21ef00b2
:100e9c000e21ef000080fa00000006000000fa00ae
:100eac0041058000f0ff28000080600000c0a00019
:100ebc004005880041068000f0f82f00808060001b
:100ecc0000062000010070004006880071058000bb
:100edc0080ff2f00008060006000b3007005880068
:100eec0061058000f0ff2800808060000000250074
:100efc0001007000600588000080fa000000060008
:020000040000fa
:100f0c0096080000020000008000000004080000a9
:100f1c000200000080000000080800008a000000a9
:100f2c0080000000000800000400000080000000a9
:100f3c0092080000040000008200000041540a00e6
:100f4c000000000006080000020000008000000005
:040f5c000000000091
:020000040000fa
:020000040001f9
:045e0000ffff0000a0
:020000040000fa
:020000040001f9
:045e3000f8ffff0078
:020000040000fa
:020000040001f9
:045e3800b3ffff00b5
:020000040000fa
:020000040001f9
:045e40009fffff00c1
:020000040000fa
:020000040001f9
:045e4800ffffff0059
:020000040000fa
:020000040001f9
:045e5000dfffff0071
:020000040000fa
:020000040001f9
:045e5800ffffff0049
:00000001FF
