:020000040000fa
:080000000002040000000000f2
:020000040000fa
:0400080006050000e9
:020000040000fa
:04000c0006050000e5
:020000040000fa
:0400100006050000e1
:020000040000fa
:0400140006050000dd
:020000040000fa
:0400180006050000d9
:020000040000fa
:04001c0006050000d5
:020000040000fa
:0400200006050000d1
:020000040000fa
:0400240006050000cd
:020000040000fa
:040028003e03000093
:020000040000fa
:04002c0006050000c5
:020000040000fa
:0400300006050000c1
:020000040000fa
:040034007e03000047
:020000040000fa
:0400380006050000b9
:020000040000fa
:04003c0006050000b5
:020000040000fa
:0400400006050000b1
:020000040000fa
:04004400460300006f
:020000040000fa
:0400480006050000a9
:020000040000fa
:04004c0006050000a5
:020000040000fa
:0400500006050000a1
:020000040000fa
:04005400080400009c
:020000040000fa
:040058000605000099
:020000040000fa
:04005c000605000095
:020000040000fa
:040060000605000091
:020000040000fa
:04006400060500008d
:020000040000fa
:040068000605000089
:020000040000fa
:04006c003205000059
:020000040000fa
:040070000605000081
:020000040000fa
:04007400060500007d
:020000040000fa
:040078000605000079
:020000040000fa
:04007c000605000075
:020000040000fa
:040080000605000071
:020000040000fa
:04008400060500006d
:020000040000fa
:040088000605000069
:020000040000fa
:04008c000605000065
:020000040000fa
:040090000605000061
:020000040000fa
:04009400060500005d
:020000040000fa
:040098000605000059
:020000040000fa
:04009c000605000055
:020000040000fa
:0400a0004004000018
:020000040000fa
:0400a400060500004d
:020000040000fa
:0400a8000605000049
:020000040000fa
:0400ac000605000045
:020000040000fa
:0400b0000605000041
:020000040000fa
:0400b400060500003d
:020000040000fa
:0400b8000605000039
:020000040000fa
:0400bc000605000035
:020000040000fa
:0400c0000605000031
:020000040000fa
:0400c400060500002d
:020000040000fa
:0400c8000605000029
:020000040000fa
:0400cc000605000025
:020000040000fa
:0400d0000605000021
:020000040000fa
:0400d400060500001d
:020000040000fa
:0400d8000605000019
:020000040000fa
:0400dc000605000015
:020000040000fa
:0400e0000605000011
:020000040000fa
:0400e400060500000d
:020000040000fa
:0400e8000605000009
:020000040000fa
:0400ec000605000005
:020000040000fa
:0400f0000605000001
:020000040000fa
:0400f40006050000fd
:020000040000fa
:0400f80006050000f9
:020000040000fa
:0400fc0006050000f5
:020000040000fa
:0401000006050000f0
:020000040000fa
:0401040006050000ec
:020000040000fa
:0401080006050000e8
:020000040000fa
:04010c0006050000e4
:020000040000fa
:0401100006050000e0
:020000040000fa
:0401140006050000dc
:020000040000fa
:0401180006050000d8
:020000040000fa
:04011c0006050000d4
:020000040000fa
:0401200014030000c4
:020000040000fa
:0401240006050000cc
:020000040000fa
:0401280006050000c8
:020000040000fa
:04012c00b00400001b
:020000040000fa
:04013000da040000ed
:020000040000fa
:0401340006050000bc
:020000040000fa
:0401380006050000b8
:020000040000fa
:04013c0006050000b4
:020000040000fa
:0401400006050000b0
:020000040000fa
:0401440006050000ac
:020000040000fa
:0401480006050000a8
:020000040000fa
:04014c0006050000a4
:020000040000fa
:0401500006050000a0
:020000040000fa
:04015400060500009c
:020000040000fa
:040158000605000098
:020000040000fa
:04015c000605000094
:020000040000fa
:040160000605000090
:020000040000fa
:04016400060500008c
:020000040000fa
:040168000605000088
:020000040000fa
:04016c00f00400009b
:020000040000fa
:04017000780400000f
:020000040000fa
:04017400060500007c
:020000040000fa
:040178000605000078
:020000040000fa
:04017c000605000074
:020000040000fa
:040180000605000070
:020000040000fa
:04018400060500006c
:020000040000fa
:040188000605000068
:020000040000fa
:04018c000605000064
:020000040000fa
:040190000605000060
:020000040000fa
:04019400060500005c
:020000040000fa
:040198000605000058
:020000040000fa
:04019c000605000054
:020000040000fa
:0401a0000605000050
:020000040000fa
:0401a400060500004c
:020000040000fa
:0401a8000605000048
:020000040000fa
:0401ac000605000044
:020000040000fa
:0401b0000605000040
:020000040000fa
:0401b400060500003c
:020000040000fa
:0401b8000605000038
:020000040000fa
:0401bc000605000034
:020000040000fa
:0401c0000605000030
:020000040000fa
:0401c400060500002c
:020000040000fa
:0401c8000605000028
:020000040000fa
:0401cc000605000024
:020000040000fa
:0401d0000605000020
:020000040000fa
:0401d400060500001c
:020000040000fa
:0401d8000605000018
:020000040000fa
:0401dc000605000014
:020000040000fa
:0401e0000605000010
:020000040000fa
:0401e400060500000c
:020000040000fa
:0401e8000605000008
:020000040000fa
:0401ec000605000004
:020000040000fa
:0401f0000605000000
:020000040000fa
:0401f40006050000fc
:020000040000fa
:0401f80006050000f8
:020000040000fa
:0401fc0006050000f4
:020000040000fa
:0402080006050000e7
:020000040000fa
:04020c0006050000e3
:020000040000fa
:0402100006050000df
:020000040000fa
:0402140006050000db
:020000040000fa
:0402180006050000d7
:020000040000fa
:04021c0006050000d3
:020000040000fa
:0402200006050000cf
:020000040000fa
:0402240006050000cb
:020000040000fa
:0402280006050000c7
:020000040000fa
:04022c0006050000c3
:020000040000fa
:0402300006050000bf
:020000040000fa
:0402340006050000bb
:020000040000fa
:0402380006050000b7
:020000040000fa
:04023c0006050000b3
:020000040000fa
:0402400006050000af
:020000040000fa
:0402440006050000ab
:020000040000fa
:0402480006050000a7
:020000040000fa
:04024c0006050000a3
:020000040000fa
:04025000060500009f
:020000040000fa
:04025400060500009b
:020000040000fa
:040258000605000097
:020000040000fa
:04025c000605000093
:020000040000fa
:04026000060500008f
:020000040000fa
:04026400060500008b
:020000040000fa
:040268000605000087
:020000040000fa
:04026c000605000083
:020000040000fa
:04027000060500007f
:020000040000fa
:04027400060500007b
:020000040000fa
:040278000605000077
:020000040000fa
:04027c000605000073
:020000040000fa
:04028000060500006f
:020000040000fa
:04028400060500006b
:020000040000fa
:040288000605000067
:020000040000fa
:04028c000605000063
:020000040000fa
:04029000060500005f
:020000040000fa
:04029400060500005b
:020000040000fa
:040298000605000057
:020000040000fa
:04029c000605000053
:020000040000fa
:0402a000060500004f
:020000040000fa
:0402a400060500004b
:020000040000fa
:0402a8000605000047
:020000040000fa
:0402ac000605000043
:020000040000fa
:0402b000060500003f
:020000040000fa
:0402b400060500003b
:020000040000fa
:0402b8000605000037
:020000040000fa
:0402bc000605000033
:020000040000fa
:0402c000060500002f
:020000040000fa
:0402c400060500002b
:020000040000fa
:0402c8000605000027
:020000040000fa
:0402cc000605000023
:020000040000fa
:0402d000060500001f
:020000040000fa
:0402d400060500001b
:020000040000fa
:0402d8000605000017
:020000040000fa
:0402dc000605000013
:020000040000fa
:0402e000060500000f
:020000040000fa
:0402e400060500000b
:020000040000fa
:0402e8000605000007
:020000040000fa
:0402ec000605000003
:020000040000fa
:0402f00006050000ff
:020000040000fa
:0402f40006050000fb
:020000040000fa
:0402f80006050000f7
:020000040000fa
:0402fc0006050000f3
:020000040000fa
:0403000006050000ee
:020000040000fa
:0403040006050000ea
:020000040000fa
:0403080006050000e6
:020000040000fa
:04030c0006050000e2
:020000040000fa
:0403100006050000de
:020000040000fa
:0403140006050000da
:020000040000fa
:0403180006050000d6
:020000040000fa
:04031c0006050000d2
:020000040000fa
:0403200006050000ce
:020000040000fa
:0403240006050000ca
:020000040000fa
:0403280006050000c6
:020000040000fa
:04032c0006050000c2
:020000040000fa
:0403300006050000be
:020000040000fa
:0403340006050000ba
:020000040000fa
:0403380006050000b6
:020000040000fa
:04033c0006050000b2
:020000040000fa
:0403400006050000ae
:020000040000fa
:0403440006050000aa
:020000040000fa
:0403480006050000a6
:020000040000fa
:04034c0006050000a2
:020000040000fa
:04035000060500009e
:020000040000fa
:04035400060500009a
:020000040000fa
:040358000605000096
:020000040000fa
:04035c000605000092
:020000040000fa
:04036000060500008e
:020000040000fa
:04036400060500008a
:020000040000fa
:040368000605000086
:020000040000fa
:04036c000605000082
:020000040000fa
:04037000060500007e
:020000040000fa
:04037400060500007a
:020000040000fa
:040378000605000076
:020000040000fa
:04037c000605000072
:020000040000fa
:04038000060500006e
:020000040000fa
:04038400060500006a
:020000040000fa
:040388000605000066
:020000040000fa
:04038c000605000062
:020000040000fa
:04039000060500005e
:020000040000fa
:04039400060500005a
:020000040000fa
:040398000605000056
:020000040000fa
:04039c000605000052
:020000040000fa
:0403a000060500004e
:020000040000fa
:0403a400060500004a
:020000040000fa
:0403a8000605000046
:020000040000fa
:0403ac000605000042
:020000040000fa
:0403b000060500003e
:020000040000fa
:0403b400060500003a
:020000040000fa
:0403b8000605000036
:020000040000fa
:0403bc000605000032
:020000040000fa
:0403c000060500002e
:020000040000fa
:0403c400060500002a
:020000040000fa
:0403c8000605000026
:020000040000fa
:0403cc000605000022
:020000040000fa
:0403d000060500001e
:020000040000fa
:0403d400060500001a
:020000040000fa
:0403d8000605000016
:020000040000fa
:0403dc000605000012
:020000040000fa
:0403e000060500000e
:020000040000fa
:0403e400060500000a
:020000040000fa
:0403e8000605000006
:020000040000fa
:0403ec000605000002
:020000040000fa
:0403f00006050000fe
:020000040000fa
:0403f40006050000fa
:020000040000fa
:0403f80006050000f6
:020000040000fa
:0403fc0006050000f2
:020000040000fa
:10040000cf9320000e7f22000e0188000000000024
:10041000000020000000e000020032000001200087
:100420002002880014000700910207000000e0008d
:1004300003003a00e0192300010020000200370009
:100440000000200001002000810f70000100320038
:1004500014000700000020000000e000020032004d
:1004600000000200000000008432020000000000d2
:100470000040da000000fe004440a900201b2000dc
:100480000000e000030032000020200090018800fe
:100490004440a800000006008a1f78008b1f7800e7
:1004a00000000600a1028800800478000000eb0034
:1004b0001f003700e284440054a0b4009905ba003c
:1004c000e284440054a0b4009906ba00e2844400d7
:1004d00054a0b4000006eb00476fde00fd07b20039
:1004e000ae018800636ce10003003a00eaff0700f8
:1004f0000000eb000e003700606ce10008003a00dd
:10050000004deb000a05e800020039003420ec0041
:100510000af0a0008b05e900f9ff3e000400370057
:100520006168e100010032000086eb000b0007006b
:1005300019c7ba001905ba000e04e00003003a001a
:100540000a00e000dbff3a0000000600fe07b200f0
:10055000ae0288008a047800f5ff37000cd0a300b3
:10056000e20f4d001c00390089027800354dba00b9
:100570000a05e800020039003420ec000af0a0006f
:100580008b05e9000f003200254dba000a05e8008e
:10059000020039003420ec000af0a0008b05e900cd
:1005a000080032000c00e0000600320015cdba0051
:1005b0000a05e800020039003420ec000af0a0002f
:1005c0008b05e9008984e80054a0b4000b00e0002a
:1005d000e2ff3a00000006009902ba00055d7800cb
:1005e0008b05e900f7ff3200c82ade00055d7800c0
:1005f0008b05e900f3ff32000c00e000f1ff320050
:1006000019ddba00eeff3700000000000000000016
:1006100000000000000000000000000000000000da
:1006200000000000000000003600f800809fbe00bf
:10063000829fbe00849fbe00869fbe000200fa001b
:100640000040eb00004f78003a070700004f7800a9
:100650001e80fb008000eb00f10707008bc0a900a3
:100660000080fa004f03be004f02be004f01be00e3
:100670004f00be003600f900004006000000fa00fe
:100680008400a9000080fa000040060000a0fe00df
:100690003600f800849fbe00869fbe003200f8003e
:1006a0003400f80014002000a40188000420200079
:1006b000940188000000fa007a1707000b88a9004f
:1006c000d50607000004a2000004e000020032008a
:1006d000c0072900cd15070084e0a9000080fa00ba
:1006e0003400f9003200f9004f03be004f02be0093
:1006f0003600f9000080fe000040060000a0fe0069
:100700003600f800849fbe00869fbe003200f800cd
:100710003400f80014002000a40188000420200008
:10072000940188001400fa000000eb00000f78002c
:1007300024c8bf008080fb00e18060008140780019
:100740000040e80024e8b7000104e0001a0032008d
:10075000f0408000014180000200200003122400cc
:100760007902070005020700000f78001e007800dc
:100770000000e000070032001e0078008000eb005f
:100780000041eb00c10b070020c0b3003c0c070088
:10079000050037000040eb00390c07000041eb007a
:1007a0006000b800b90b0700402d80000070a00069
:1007b000402d88000d003700402d80000070a10002
:1007c000402d88000040eb002d0c070000000000c9
:1007d0000e80e8000c0f07000004a2000004e000f7
:1007e000fbff3a000e80e800e70b07008460a900d9
:1007f0000080fa003400f9003200f9004f03be0017
:100800004f02be003600f9000080fe0000400600e6
:100810003600f800809fbe00829fbe00849fbe000d
:10082000869fbe000200fa000040eb00004f7800f7
:100830000040eb00004f78000600370010118000e8
:10084000610060000000e000010032003610070087
:100850001e4fe8001e407800e34f5000f7ff3600bf
:100860008560a9000080fa004f03be004f02be0061
:100870004f01be004f00be003600f90000400600e8
:100880003600f800809fbe00829fbe00849fbe009d
:10089000869fbe000200fa000040eb00004f780087
:1008a0000040eb00004f78000600370090118000f8
:1008b000610060000000e00001003200331007001a
:1008c0001e4fe8001e407800e34f5000f7ff36004f
:1008d00087c0a9000080fa004f03be004f02be008f
:1008e0004f01be004f00be003600f9000040060078
:1008f0003600f800809fbe00829fbe00849fbe002d
:10090000869fbe000200fa000040eb00004f780016
:100910000040eb00004f7800060037009012800086
:10092000610060000000e0000100320032100700aa
:100930001e4fe8001e407800e34f5000f7ff3600de
:100940008e40a9000080fa004f03be004f02be0097
:100950004f01be004f00be003600f9000040060007
:10096000801f78000000fa00101180006200600013
:100970000000e000010032002222a90010118000d6
:10098000640060000000e000010032002242a90083
:1009900010118000680060000000e00001003200db
:1009a0002262a9008c20a9000080fa004f00780084
:1009b00000400600801f78000000fa0090118000bf
:1009c000620060000000e000010032003222a90055
:1009d0008c40a9000080fa004f007800004006001b
:1009e000801f78000000fa00901280006200600012
:1009f0000000e000010032005222a9008e20a90070
:100a00000080fa004f00780000400600801f780048
:100a10000000fa0000048000640060000000e000b4
:100a2000010032008040a9000004800068006000de
:100a30000000e000010032008060a9000004800096
:100a4000700060000000e000010032008080a9001a
:100a500000020400000000000080fa004f0078004f
:100a600000400600809fbe00829fbe000000fa008a
:100a70008620a9004110800000082000008060004e
:100a80000000e0000200320008e2a900f400370094
:100a90003ac8bf000080fb00cf80de00d2002000fb
:100aa00003002000820f5000838f5800ec003e00ae
:100ab000006001000d0037002300370029003700d7
:100ac0007d00370052003700e5003700c5003700d1
:100ad00098003700a5003700bd003700a700370099
:100ae000df003700de003700c200370025c8bf0036
:100af0000004e000d9003a000602a800c0922000dd
:100b0000104078000080fb00304188007049800070
:100b100040418800009320001040780025e8b7008d
:100b20009049800050418800409320001041780097
:100b3000c1822000824878002d68ef0020c0b300f9
:100b40003ae8b700c60037000622a800009320004c
:100b50001040780025e8b70020c0b3003ae8b7009d
:100b6000bf0037002cc8bf00614060000004e000f7
:100b70000f003a002cc8bf00644060000004e00091
:100b800006003200304180000000a00010108800f4
:100b900070c0b3003ae8b700b100370030418000c0
:100ba0001010880030c0b3003ae8b700ac0037003e
:100bb0002dc8bf000004a2000004e00005003200c0
:100bc000304180001010880040c0b3003ae8b70000
:100bd000a30037002cc8bf00644060000004e000a0
:100be00006003200304180000000a0001010880094
:100bf00070c0b3003ae8b700990037003041800078
:100c00001010880030c0b3003ae8b70094003700f5
:100c10004110800000002800008060000000e0001b
:100c20000500320009e2a9000642a8008620a900ba
:100c30003a68ef008a0037002cc8bf0062406000ad
:100c40000004e000090032002c28a9004041800087
:100c50004800de00004078000080fb001010880093
:100c600030c0b3003ae8b7007d0037004041800053
:100c7000004078000080fb00101088002cc8bf00e6
:100c8000644060000004e0000800320010c0b300bf
:100c90002de8b700304180000000a00030418800fe
:100ca00010c0b3003ae8b7006d00370030c0b300a1
:100cb0003ae8b7006a0037004110800000002800c1
:100cc000008060000000e0000500320009e2a90099
:100cd0000642a8008620a9003a68ef0015003700f8
:100ce00025c8bf008080fb008100e900cf08de003e
:100cf000814078000040e90025e8b7000104e000e9
:100d0000050032000642a8008620a90060c0b3009a
:100d10003ae8b70052003700504180009040780018
:100d20008180fb00111088000000e800504188001d
:100d30004b00370041108000000028000080600058
:100d40000000e000050032000642a8008620a9004d
:100d50003a68ef0009e2a900410037000662a800e6
:100d6000a0c0b3003ae8b7003d003700a0c0b30010
:100d70003ae8b7000662a800390037005041800009
:100d80000110800081407800014878000000e800f0
:100d90005041880025c8bf000040e90025e8b700a1
:100da00025c8bf000004e0000400320006a2a9002c
:100db00080c0b3003ae8b7000300370006a2a800dd
:100dc00090c0b3003ae8b7000682a80024003700bc
:100dd00006a2a9000642a800d0c0b3003ae8b700b6
:100de0001f0037000642a800d0c0b3003ae8b700a1
:100df0001b0037002628ef002a28ef002828ef00e4
:100e00002568ef002c48a900604180004200de0008
:100e10006140600061406000c18220009140780024
:100e20000104a10000c070002ce8b7006041800000
:100e3000614060006140600000404000c1822000cd
:100e4000914078000114a10000c070002ce8b700a8
:100e50002d68ef00000000000100370000000000d6
:100e60000080fa004f01be004f00be0000400600a7
:100e700000000500889fbe008a9fbe008c1f78007e
:100e800099000700a000330003866c006450e10065
:100e90002e0032006420e100330032006150e10096
:100ea0002f0032006120e1003100320085855500bd
:100eb000eb07b000090020000804200005003700ff
:100ec0000804440089844c000a00310006034300f2
:100ed00087834b000001530081815b00f8ff3300e2
:100ee0000203be000800a0000804440089844c00ee
:100ef000f6ff3900c639dd008301730001003200be
:100f0000130020008904d1000884d3000998a300ad
:100f1000050032000800a7000300a0008904d100ea
:100f20000884d3008b05e8008904d1000884d3002d
:100f30000001eb000281d2003000070001f0a100a7
:100f40000cf0a70001f0a000780037006420e10059
:100f50007a0032000801be000200be00f7ff370031
:100f60006120e100750032006000b800f3ff370037
:100f70000000200001f82700f0ff37000001be004c
:100f8000440007000470a70003f0a10003f8a300c9
:100f900013003a006509b100100032000900350065
:100fa0006928e1000200350001002800000005006a
:100fb00000004000818048008502e900fcff3a0003
:100fc00000000600f88f4200050035008100d100c6
:100fd0000080d3008502e800fcff3a000000060014
:100fe0008000eb00000005004f89de0082017800e0
:100ff000980237006011b800a60237008100200077
:10100000618055000b003d000b00200061fe2f00a9
:101010000100e1001d003400828171006101640063
:101020008904d1000884d3000000e800faff3a00e8
:101030007100200061006400030070000200600085
:101040000900320061044400e0844c000988a500d6
:10105000050032008b05e8006808e10002003a0054
:101060008904d1000884d300f20f20000258e10067
:1010700005003d00c75ddd00f907b20089807500fd
:1010800008007800000006000bf827008b007800ad
:1010900000000500c70ade00f107b200f50fb2003c
:1010a00008003200e1cf4200020032000170a000cf
:1010b00024000500810f70000100320004080500c3
:1010c00044000500810f700002003a001400050082
:1010d0008502e9000000400081c04800fcff3b00a1
:1010e0000170a000240005000004be00e9ff070015
:1010f0000003be000405be000200be00e5ff0700bd
:10110000844f7500000006000200be006450e1003c
:10111000050036006420e100020036000968a300e3
:1011200001003a000800be000160a0004f067800f0
:101130004f05be004f04be0000000600f0ff2f0068
:10114000f1ff2700f9ff3700889fbe008a9fbe008d
:101150008c1f7800e4ff0700ebff330003866c0070
:101160006450e100240032006420e10027003200d6
:101170006150e100220032006120e10021003200d4
:101180008b854200eb07b1000134b800003ab8008b
:101190000804420089844a00013ab8000030b800cf
:1011a0008880400009014a0004003300000040002c
:1011b00081804800020149008b05e900c909dd0072
:1011c000830170000100320013002000c814de000b
:1011d0004814dd004709de001200b200c808de0036
:1011e0000884700085ff070001f0a1000cf0a70043
:1011f00001f0a000cdff37006120e100cfff3200f9
:101200000801be000200be00f7ff37006150e10098
:10121000fcff3a00c9ff37000c00fa00889fbe00af
:101220008a9fbe008c9fbe00afff07000206be0073
:10123000840578000200be0002002000b90107000a
:1012400005003a008b02b30012002000b501070030
:1012500001003a00f8856d000c01be00c6000700d1
:101260000800be009b0032000b08a3009e003a005d
:101270000df0a7000be0a00009f0a7000bf0a00004
:1012800009f0a1000801be00bb0007000bf0a6009a
:101290009500320001003c000bd0a0008acf750001
:1012a000b20033006000b8006250e10099003900dc
:1012b000a1003e000b28a300a2003a000bf8a300f7
:1012c000060032000b58a300a70032000801be0040
:1012d000a90007000800be00940032000800be000c
:1012e000c30007000004be00050578000bf0a7004e
:1012f0000b30a6000bf0a1005b079800324f2000d6
:1013000053f32300ae01070005003d000800be00b6
:10131000120020000e0207000004be000a05e900ca
:101320004a0798006150b9002fff0700008fbe00e8
:101330000c01be0084ff0700a501070030079800dc
:101340000100e00002003d0060001000e080180095
:10135000f2ff2700820f5000e08f580064003e002b
:101360000c00be009a01070020079800f207200039
:10137000820f5000e08f580005003c0012f82f004b
:10138000f3ff2f00820f5000838f580009003d00ab
:101390000a00e0000300320001003c000201ea0004
:1013a000020578006000b800200798003a0798000e
:1013b000190037003e0090006100b9000aff0700e5
:1013c000809fbe000c00be004109dd004811de0018
:1013d0007208b100530107000005be001e01be00e7
:1013e00059ff07004f01be008e000700809fbe001e
:1013f0000c00be000a01be008a0007001e01be00ec
:1014000051ff07004f01be0087000700822127001f
:1014100013f323004cff07000005be002e009000d0
:101420006100b900f0fe070001f0a2000c01be004f
:101430007d0007000006be000800be00e6010700b0
:101440000c01be0040ff07000a01be007600070045
:10145000809fbe004a0007002e0590000af0a700fa
:101460000a05ea00050037000800be000801be00ba
:1014700035ff07000004be000c00be000801be00de
:101480000a00a70030ff07000006be000a05d100d1
:10149000f5ff3a005e01900002e0a600030037006d
:1014a0000001be003600070072fe07000004be0007
:1014b0004f00be00b90007000801be0022ff070070
:1014c0003e019000a2010700de0590000bf0a7008e
:1014d00001f0a2004f06be004f05be004f04be0043
:1014e0000080fa000000060025000700f9ff370021
:1014f000270007006000b8000bd0a7000bc0a000b9
:101500000be0a7000bc0a2000bc0a70001f827004a
:10151000f0ff37000df8a300020032001e000700a4
:10152000190007000bf8a300eaff32000b30a700f8
:1015300001f0a200e7ff37000df8a300f9ff3a0021
:10154000f7ff37000801be000b000700e6ff32007e
:1015500001003c000df0a2006000b8000df0a700f3
:1015600009000700dbff37000b000700f1ff270031
:10157000f0ff2f00d7ff37000100070010013700f0
:1015800001f823000000050001f827000000050015
:1015900020022000010037001002200000428800d5
:1015a000000006006022b800060220000000d00003
:1015b0008180d2000482d2008582d2000000a00087
:1015c0000202520083825a000300310002024200ec
:1015d00083824a000000a1000603e900f3ff3a00fd
:1015e00000000600efff07000400be000000060038
:1015f0000003be00a7fe07006220e10002003200e7
:101600000600be0005000500e507b100f107b200c5
:1016100004f023008480700007f0a70001f0a00010
:101620002400050003f0a200889fbe008a9fbe0030
:101630008c1f7800acfe0700b3fe33006450e1005d
:101640004f0032006420e1005200320003826c003f
:1016500007003b000905d0000306d000820f5400ac
:101660000c065d000200390002003200890178009a
:10167000030678008582550004003d000003fd004c
:101680008103fd008502ea008b854200840f720011
:1016900002003b0060001000e08018006011b800fc
:1016a0000005eb007a28e1000a0039000600780006
:1016b000c75ddd00f707b200878075002d00370099
:1016c000828171000a017800610560008180d1008b
:1016d0000080d3008502e900f9ff3b0006044000ca
:1016e0008784480002003b0060041400e0841c0072
:1016f0000988a300070032008a817100828171008d
:10170000610164008904d1000884d3008b05e800de
:10171000170037000978a30013003a000b00e0001f
:10172000130034008b05e9000804440089844c0050
:101730000a4474000978a3000d003a000b00e00091
:10174000070034008b05e9000804440089844c003c
:1017500001003a000b0020000978a300f7ff3200d7
:101760000001eb0002003700828171000a0178005d
:1017700022fe07000cf0a70001f0a0006bfe37006e
:101780006420e10002003a00838f6c006bfe33009e
:101790000801be000200be0064fe3700889fbe0044
:1017a0008a9fbe008c9fbe000004be0039fe070069
:1017b0000800be006420e10048003e0055003200f1
:1017c00072212700132b24007f00070047003c00f4
:1017d0000800be00c2ec2800e32c2c0078000700b3
:1017e000470035000800be0001f0a1000200200003
:1017f0000338230072000700430035000800be00d4
:10180000b2a32a0083fb23004ffe07000200200042
:1018100003f0230001f0a70003f0a00082ff0700ff
:101820006b0007000005be00effd070001f0a200fd
:101830000006be000200280013f3230042fe07004a
:101840000801be0078ff0700809fbe000c00be00ac
:1018500032082800e3952b003bfe07004f01be0035
:1018600071ff07000006be000001be0036fe070043
:10187000809fbe004241250083b8230032fe07004e
:101880000200200003e8230067ff07000c01be00f0
:101890002dfe07000006be004f00be00f2f92b002f
:1018a000c3d4230028fe07000200200003f0230019
:1018b0005dff07000c01be005aff07000001be00db
:1018c0000c00be006bfd07000200200003f02300a7
:1018d00055ff0700610145009d0007004f06be004f
:1018e0004f05be004f04be000000060001f82700af
:1018f000000020002202200002428800f7ff37008b
:101900006000b800fbff370001f823000000200052
:10191000f2ff370009f8a300f0ff32006000b800c2
:10192000eeff3700889fbe008a9fbe000003be0006
:10193000d8fd070085057800828152000200200052
:101940006220e10004003a00f307b1000400350012
:101950007718e100040035000600be0014003700cf
:101960006000b8000f003700f50f2000faff2f00cd
:101970008502d1000a85d3008301e900fcff3b000a
:101980008184620000046500890f7400f2ff320058
:101990008582ea000a85ea0081846200000465000d
:1019a00096fd070007f0a70001f0a0000081eb0002
:1019b0000200e0004f05be004f04be00000006001c
:1019c00014002000db003700f4ff2f00d90037009f
:1019d0000001be00affd07000470a70003f0a100e6
:1019e0006509b100160032000d0035006828e100dd
:1019f00006003500f0ff2f00f1ff27000300e00094
:101a000013003b000100280000000500000040001a
:101a1000818048008502e900fcff3a000800370099
:101a2000f88f420002003c008000eb00000005003f
:101a30008100d1000080d3008502e800fcff3a005d
:101a40000300e00002003b0060001000e08018008e
:101a500000000600881f7800030478000300e000ff
:101a600007003d0060001000e080180060011900d0
:101a7000e081190002003b0001f02d000300370057
:101a80000400070008f0a70001f0a0004f04780050
:101a900000000600889fbe008a9fbe000082700082
:101aa0000402710004827100260032000004be00ae
:101ab0000200be006011b8006b09200095022000f2
:101ac0000182cf000a0039000541b1000082cf0039
:101ad000070039000541b1000982cf000400390038
:101ae0000541b1000882cf00010039000541b10075
:101af00005425200120032000a003b008281710050
:101b0000610164008100d1000080d3008984d3008a
:101b10000884d3008b05e8000442e800f7ff3a0090
:101b2000070037000804440089844c000000480086
:101b3000818048008b05e9000442e900f9ff3a0082
:101b40002efd07004f05be004f04be00000006003a
:101b50000003be004ffd07006220e10002003200da
:101b60000600be000000060085024100e30f2000d1
:101b70000328e10005003c00a3fe2f000328e1003c
:101b800007003d000500200001003700f50f200090
:101b900020022000004288006000b80008003700e2
:101ba000130020008381520005003d008100d10018
:101bb0000080d3008301e800fcff3a00050020000c
:101bc000c72add00f107b2008580700007f0a7008a
:101bd00001f0a00000000600889fbe008a9fbe00a2
:101be0008c9fbe0082fe0700850478000005be00c1
:101bf0006420e10049003e006220e1000300320061
:101c0000090035000bf8a300440032000bf8a300d4
:101c1000080032001002200000428800f0ff2f0070
:101c2000f1ff27003d00370001f82f0000002000e1
:101c30003a0037003d0007007afe07000006be00ac
:101c40000a00be00324f200053f323005eff07005e
:101c5000060034000c00be003400070071fe0700cf
:101c60000006be000a00be00020037008904e90039
:101c70000c00be002d00070033fd07002b000700fd
:101c800069fe07000001be000c00be0079fc0700e1
:101c90000005be000001be002bfd07000006be00cf
:101ca000a2f32300430d2c005ffe0700809fbe00bf
:101cb0000c00be00d2e32700d3f02b0022fd07006a
:101cc0004f01be006bfc07000006be000a01be000b
:101cd0001dfd07000a01be0053fe07000006be00fe
:101ce0006148b900c0fc07000005be0032082800aa
:101cf000e3952b0014fd07000c01be004afe07000f
:101d00000006be000a00be000200280013f32300f4
:101d10000dfd07000c01be0043fe07004f06be008c
:101d20004f05be004f04be000000060003f0230074
:101d300002000500889fbe008a9fbe00841f7800b5
:101d4000e9fc07004f00780011003300f0ff2f007e
:101d5000838f6c0006003b00040565000a00a700a5
:101d60000800370009f0a600100020000800370026
:101d7000820f5400838f5c000300390010002000a4
:101d800001003e000000200009f0a7000000ea006a
:101d90004f05be004f04be000000e000000006003a
:101da00000017800820178003204e000fdff3a0073
:101db00003017800b1417800035978000304e00082
:081dc000fcff3a0000000600e0
:020000040000fa
:101dc80041540000264b0000330d00000a000000bb
:101dd8004154000026440000310d00000a000000b4
:101de800415400000d0a000000410000542b00007f
:101df80043520000454700003d3200000d0a000034
:101e0800004f00004b000000415400002b4300002d
:101e1800504900004e3f00000d0a0000002b000052
:101e280043500000494e00003a200000524500008f
:101e38004144000059000000415400002b430000b9
:101e4800494d0000490d00000a00000041540000ff
:101e58002b43000052450000473f00000d0a0000d8
:101e680000410000542b0000434700005245000089
:101e7800473f00000d0a0000002c0000350000005c
:101e88002c31000000410000542b00004353000097
:101e9800434100000d0a000000410000542b0000df
:101ea8004b4300004e58000043460000473d0000e9
:101eb800312c00002247000050520000532200003d
:101ec8002c220000434d00004e4500005422000023
:101ed8000d0a000000410000542b00004b54000084
:101ee8004350000043460000473d0000312c0000ed
:101ef800302c0000227d00003b2f00002f31000015
:101f0800333900002e310000393600002e31000030
:101f1800323200002e31000035390000222c00003a
:101f280035300000383000000d0a00000a000000bb
:101f3800415400002b4b0000544300005053000054
:101f480054410000525400003d3100000d0a0000c9
:101f5800004300004f4e00004e450000435400006f
:101f680000410000542b00004b5400004350000077
:101f7800434c00004f530000453d0000312c000049
:101f8800310d00000a000000415400002b4b0000f6
:101f98005443000050440000454c00003d3100000f
:101fa8000d0a000000010000020300000400000008
:101fb800363700001300000012240000ff2500003f
:101fc80037130000ff36000000120000242500002f
:101fd800363700002512000000ff0000132400001f
:101fe800363700001300000025ff0000122400000f
:101ff8003713000024250000ff36000000120000ff
:10200800361300000024000025ff000037120000ee
:10201800361300000012000024250000ff370000de
:102028003637000013ff00000012000024250000ce
:1020380036370000130000001224000025ff0000be
:10204800363700001300000024250000ff120000ae
:1020580000020000080a00000c0e0000100000003a
:102068005747000043000000000600000a0b00006c
:102078000f110000010300000064000000020000ce
:1020880085d400000d0a0000476500007420000098
:1020980050720000657300007375000072650000df
:1020a80021210000210d00000a310000304d000000
:1020b800703a0000000000003132000033340000a4
:1020c8003537000038390000303100003233000065
:1020d8003435000036370000383900003000000081
:1020e8002017000010060000123000000700000052
:1020f8000d0a0000436100006e27000074200000f4
:1021080067650000742000007072000065730000ad
:10211800737500007265000021210000210d000088
:042128000a000000a9
:020000040000fa
:10212c000000fa0070cbb30017e8b70060cfb30023
:10213c0016e8b700a0c4b30015e8b70040c4b3005c
:10214c0014e8b700e03c2100e040880031408000fa
:10215c0000802f00008060005000b30030408800e9
:10216c00414080000000280000806000c000b300e7
:10217c00404088000b08a9000b28a90030c0b30010
:10218c000ae8b7000b68a8000080fa0000000600ff
:10219c001600fa000040eb00004f78003a0c0700e4
:1021ac006d0e070030c0b3006507070010c0b30008
:1021bc003ee8b700aa0b07000004a2000004e000f0
:1021cc000d00320020c0b3003ee8b70010c0b300d1
:1021dc005b0707000e00e800df020700004f7800e5
:1021ec000e00e8009e407800860e070010c0b30079
:1021fc00530707000200370060c0b3003ee8b70089
:10220c00ea0b07000080fa00000006005400fa00f8
:10221c00ee004700090009008018eb0010c0b30065
:10222c00604f980030c0b300704f980040c0b300ae
:10223c00005798008e0078002102b00018000900a9
:10224c008018eb000040eb00004f78006e00470058
:10225c003007980030c0b300004f98006e00470064
:10226c005007980090c0b300404f98002002200007
:10227c000e004000100798001e4fe8001e4078002a
:10228c00e54f5000020036000040eb002400370000
:10229c0081002000e0032900be0e070010c0b3002f
:1022ac0027070700200220000e00400022c3b300c5
:1022bc008000780020532200fc0a07004047980059
:1022cc000e80e800360a07000004a2000004e000bb
:1022dc00e9ff3a0060042900c90e07006e004700b0
:1022ec006300400080007800e081200015060700a4
:1022fc00f040800001418000020020000312240005
:10230c008efb0700f040880001418800f0408000ff
:10231c000141800016fb07006e09070010c0b300d6
:10232c000080fa00000006000000fa005140800016
:10233c0000802000008060000000e0005a003200a5
:10234c000b68a90041408000f0ff2700008060006e
:10235c006500b90000007800cf80de00f2ff2f008e
:10236c0013002000800278008100780002027800bf
:10237c000300780004826200008060008000eb00a3
:10238c00c000dd00000020000001be006120b8008c
:10239c0000017100818171000200be006040880064
:1023ac0061806000714080000100a100010070009c
:1023bc007040880031408000f07f20000080600079
:1023cc006c00b9008000780042408000f0ff2700cc
:1023dc000000610000017800110009008200d800a3
:1023ec0080007800f0ff27000080600000004000b3
:1023fc0071408000e1806000010070007040880036
:10240c0031408000f07f2000008060006c00b9003b
:10241c008000780042408000f0ff2700000061003f
:10242c0000017800110009008200d8008000fd0036
:10243c00cf80de00f2ff2f00130020008002780016
:10244c0081007800020278000300780004826200a8
:10245c00008060008000eb00c000dd000000200068
:10246c000001be006120b800000171008181710083
:10247c000200be00804088006180600091408000b6
:10248c000100a10001007000904088009040800085
:10249c0061006000904088006040800072408000c5
:1024ac00e10061005900370022c8bf008080fb00aa
:1024bc00704080000000d1000000e900808f5000c7
:1024cc000a003d000b88a800ee0f070084e0a8006e
:1024dc0022c8bf000040e80022e8b700604080003e
:1024ec0072408000e10061004800370080408000ad
:1024fc0092408000e1006100e00f5000e08f580036
:10250c0031003200904080000000a1000000e0008b
:10251c001e003200904080006100600090408800f6
:10252c000ba8a8002268ef00624080007040800079
:10253c00e10160008040800094408000e100620076
:10254c000000510081805900f2ff2f001300200081
:10255c008002780081007800020278000300780085
:10256c0004826200008060008000eb00c000dd008f
:10257c00000020000001be006120b80000017100c5
:10258c00818171000200be00200037009040800065
:10259c000000d1000000e80080007800f0ff270068
:1025ac00008060000000400091408000e1806000ed
:1025bc0001007000904088008040800092408000b4
:1025cc00e1006100110037000ba8a800504080000a
:1025dc004d00de00614060000080fb006100600087
:1025ec004c00dd005140800001c0a10001007000d2
:1025fc0050408800a30f070084e0a8002268ef0079
:10260c006040800072408000e10061000080fa00b0
:10261c00000006001e00fa00500f9800610f980091
:10262c000000000068004700740707000000e0008d
:10263c00fcff32004e0090006101b9005e08900072
:10264c00ee089000001f4100019749001e00be00db
:10265c00c203200003002000dffb0700000078000d
:10266c00400798001e00be00c2032000030020009b
:10267c00c9fb070020079800310798002e00900036
:10268c00be009000e00f5000e08f5800290032008f
:10269c005e0090006101b9002e009000be00900019
:1026ac00001f4100019749001e00be00c20320001c
:1026bc0003002000c8fb07000000780050079800ba
:1026cc001e00be00c203200003002000b2fb070066
:1026dc0020079800310798002e009000be00900053
:1026ec00e00f5000e08f5800120032006e00900096
:1026fc006101b9002e009000be009000001f410047
:10270c00019749001e00be0082012000030020003a
:10271c00b1fb070000007800600798001e00be00a7
:10272c0082012000030020009bfb0700200798007b
:10273c0031079800f287470072805700e800470085
:10274c0008000900311878002001b100f2060700da
:10275c00f28757000080fa00000006007c00fa00a7
:10276c006e004700100798001e00900022c3b300b3
:10277c008000780020532200cc09070040479800c5
:10278c00400329003007980030c0b300004f980078
:10279c00000420000e00400050079800e0c1b30078
:1027ac00404f98000040eb00504f98000e80e8001e
:1027bc00fb0807000004e0006c0032005e4890004b
:1027cc0080c0e900000420000e00400001417800a8
:1027dc008000780080ba2200310c07000004e00071
:1027ec0062003200010420008e804000e0052000d1
:1027fc000e00400042c0b300ee05070000042000ac
:10280c000e00400064004000104078008080fb0007
:10281c00000420000e0040006500400010407800cd
:10282c000080fb000080400081032900e14078001b
:10283c00000420000e0040006400400010407800ae
:10284c000080fb00820329006240780000c0500029
:10285c0020e79800000420000e00400063004000b8
:10286c00104078000080fb00e30f50002300320082
:10287c00e40f50003b003a002ee1900000042000d1
:10288c000e004000e6004000e00520000e00400075
:10289c0065004000c70507002ee09000e5404000b1
:1028ac00e00520000e004000a60b07000040eb00e6
:1028bc00004f7800070037004ec090009e4040004b
:1028cc003ec09000020420000e0141002a000700c7
:1028dc001e4fe8005ec090009e4f5000f6ff3e0079
:1028ec002ee090000080fb00e7004000e005200097
:1028fc000e004000270d07001a0037006301070087
:10290c000040eb00004f7800070037004ec09000ed
:10291c009e4040003ec09000e20520000e014100a8
:10292c00150007001e4fe8005ec090009e4f50003f
:10293c00f6ff3e002ee09000e5404000e005200050
:10294c000e0040007f0b07002ee090000080fb0083
:10295c00e7004000e00520000e0040000d0d0700d0
:10296c000000000010c0b300010037000040eb0075
:10297c000080fa00000006000400fa00004f780006
:10298c0011479800120798001e80fb00e30f5000bf
:10299c007a003200e40f5000ed003a001e40900027
:1029ac000080fb00e20f500051003200e20f50009b
:1029bc0005003c000000e00008003200e10f500070
:1029cc0025003200e2003700e30f50004d003200ca
:1029dc00e40f50005c003200dd0037001e00900058
:1029ec0066004000104078008404070000e8b7003f
:1029fc001e00900067004000104078007f04070024
:102a0c0001e8b7001e0090006800400010407800fc
:102a1c007a04070002e8b7001e009000690040002d
:102a2c00104078007504070003e8b7001e00900002
:102a3c006a004000104078007004070004e8b700fa
:102a4c001e0090006b004000104078006b040700e3
:102a5c0005e8b700480037001e0090006c004000ed
:102a6c00104078000080fb00c800dd001e009000c4
:102a7c006d004000104078000080fb00808040001a
:102a8c00f07f200080806000f07f200000806000dc
:102a9c003240800001802f00810061000100700035
:102aac00304088001e0090006e00400010407800fe
:102abc008080fb001e0090006f00400010407800ea
:102acc000080fb0080804000f0ff270080806000c9
:102adc00f0ff2700008060004240800001002800c9
:102aec008100610001007000404088002200370026
:102afc001e00900070004000104078000ae8b700fb
:102b0c001d0037001e00900071004000104078003e
:102b1c0014e8b7001e0090007200400010407800ce
:102b2c0015e8b7001e0090007300400010407800bc
:102b3c0016e8b7001e0090007400400010407800aa
:102b4c0017e8b7000c0037001e009000750040001d
:102b5c00104078000080fb00c800dd001e009000d3
:102b6c0076004000104078000080fb0000804000a0
:102b7c00e040880000000000750037001e40900007
:102b8c000080fb00e20f50004a003200e20f5000c0
:102b9c0005003c000000e00008003200e10f50008e
:102bac00250032006a003700e30f50004700320066
:102bbc00e40f50005a003200650037001e009000f0
:102bcc0065004000018020009140780001487800a9
:102bdc001e0090006600400011802000914078009b
:102bec00014878001e009000670040002180200002
:102bfc0091407800014878001e0090006800400069
:102c0c003180200091407800014878001e0090002f
:102c1c006900400041802000914078000148780014
:102c2c001e0090006a004000518020009140780006
:102c3c0001487800460037001e0090006b004000f1
:102c4c0032408000f17f200081006100c888de00e6
:102c5c0081407800014878001e0090006c00400014
:102c6c0032408000f17f20008100610081407800bb
:102c7c00014878001e0090006d004000424080002a
:102c8c00f1ff270081006100c888de0081407800d8
:102c9c00014878001e0090006e0040004240800009
:102cac00f1ff270081006100814078000148780025
:102cbc00270037001e0090006f004000a18020000c
:102ccc009140780001487800210037001e009000e8
:102cdc00700040007181200091407800014878001c
:102cec001e0090007100400061812000914078002e
:102cfc00014878001e0090007200400051812000b5
:102d0c0091407800014878001e009000730040004c
:102d1c004181200091407800014878000c00370078
:102d2c001e00900074004000e1408000c808de00e6
:102d3c0081407800014878001e009000750040002a
:102d4c00e1408000814078000148780000000000dc
:102d5c000080fa00000006001800fa00300f9800fe
:102d6c000040eb00004f78003e08900011c4b30007
:102d7c00014878003e0890000000e80021c3b30031
:102d8c00014878003e0890000080e80041c1b30083
:102d9c000148780000000000640047009705070018
:102dac000000e000fcff32003e0890006300400091
:102dbc00fe00900081407800014878003e089000a9
:102dcc0064004000ee0090008140780001487800db
:102ddc003e08900065004000de00900081407800c5
:102dec00014878003e08900066004000ce0090003c
:102dfc0081407800014878003e0890006700400050
:102e0c00be00900081407800014878003e08900098
:102e1c0068004000ae0090008140780001487800c6
:102e2c0090c0b300004f78003e089000690040004d
:102e3c0080007800e08120002b030700d1c0b30094
:102e4c003e0890003f0a0700100798003e089000cb
:102e5c006d0040009e009000c808de0081407800a4
:102e6c00014878003e0890006e0040009e009000e3
:102e7c008140780001487800f0c0b300004f780022
:102e8c001e4078000080fa00000006001200fa00d4
:102e9c00000000000e007800580507000000e0005c
:102eac00fcff32005e0090000040780063030700d6
:102ebc0000e8b7004e009000004078005f03070068
:102ecc0001e8b7003e009000004078005b0307006b
:102edc0002e8b7002e00900000407800570307006e
:102eec0003e8b7001e009000004078005303070071
:102efc0004e8b7001e007800004078004f0307007c
:102f0c0005e8b7000080fa00000006000000fa0097
:102f1c000080eb00402c880030002000502c8800f2
:102f2c009a25ef00d02c8000c02c8800c02c80008b
:102f3c00902c8800902c8000802c8800b225ef000b
:102f4c00902d8000802d8800802d8000102d880011
:102f5c00102d8000002d880040002000002c8800df
:102f6c00f00f2800102c880020002000302c880046
:102f7c00112c8000f07f2c0000806000102c880049
:102f8c00b0002800202c88000080fa000000060009
:102f9c000200fa00004f7800114798009e40900004
:102fac001e407800020007000080fa0000000600b6
:102fbc000400fa0020479800314798002e409000fa
:102fcc008080fb0020012000000178001100090026
:102fdc008280d800004f78002e4090008080fb004b
:102fec002001200000017800110009008280d80027
:102ffc008000fd00104798001e80fb00e10f500080
:10300c0039003200e10f500003003c000000e000ea
:10301c0006003200c1003700e20f500061003200a0
:10302c00e30f50008e003200bc0037001e409000b1
:10303c00ef4f5000170036003e4090000004e000b7
:10304c00090032001e4090000080fb006f00600001
:10305c00110020000008dd0080007800902c80001a
:10306c0001007000090037001e4090000080fb003a
:10307c006f006000110020000008dd000080ea00f5
:10308c0080007800902c800000806000902c8800dc
:10309c00a20037003e4090000004e000080032001f
:1030ac001e4090000080fb00110020000008dd0095
:1030bc0080007800802c8000010070000800370030
:1030cc001e4090000080fb00110020000008dd0075
:1030dc000080ea0080007800802c80000080600076
:1030ec00802c88008d0037001e409000ef4f500060
:1030fc00170036003e4090000004e000090032004a
:10310c001e4090000080fb006f006000110020004a
:10311c000008dd0080007800d02c800001007000d9
:10312c00090037001e4090000080fb006f0060001b
:10313c00110020000008dd000080ea00800078000b
:10314c00d02c800000806000d02c880073003700e9
:10315c003e4090000004e000080032001e40900049
:10316c000080fb00110020000008dd0080007800ca
:10317c00c02c800001007000080037001e40900039
:10318c000080fb00110020000008dd000080ea0038
:10319c0080007800c02c800000806000c02c88006b
:1031ac005e0037001e409000ef4f500017003600b5
:1031bc003e4090000004e000090032001e409000e8
:1031cc000080fb006f006000110020000008dd0093
:1031dc0080007800102d800001007000090037007d
:1031ec001e4090000080fb006f006000110020006a
:1031fc000008dd000080ea0080007800102d8000bf
:10320c0000806000102d8800440037003e40900084
:10321c000004e000080032001e4090000080fb001b
:10322c00110020000008dd0080007800002d8000d7
:10323c0001007000080037001e4090000080fb0069
:10324c00110020000008dd000080ea0080007800fa
:10325c00002d800000806000002d88002f003700ba
:10326c001e409000ef4f5000170036003e4090007b
:10327c000004e000090032001e4090000080fb00ba
:10328c006f006000110020000008dd008000780055
:10329c00502d800001007000090037001e40900086
:1032ac000080fb006f006000110020000008dd00b2
:1032bc000080ea0080007800502d800000806000c3
:1032cc00502d8800150037003e4090000004e000af
:1032dc00080032001e4090000080fb00110020000e
:1032ec000008dd0080007800402d80000100700097
:1032fc00080037001e4090000080fb0011002000e9
:10330c000008dd000080ea0080007800402d80007d
:10331c0000806000402d8800000000000080fa0052
:10332c00000006000400fa0020479800314798007e
:10333c0010c0b300104798000040eb00004f78001d
:10334c00260037002e4090008080fb001e80fb0082
:10335c00c308dd0000804000c1fd280061407800fa
:10336c00e14f400006003a001e4090000004e000cf
:10337c00030032000040eb001047980016003700a5
:10338c002e4090008080fb001e80fb00c308dd00f7
:10339c0000804000c1fd2800614078008080fb0067
:1033ac003e4090000080fb00c20229006240780081
:1033bc000080fb0080804000800420000001780029
:1033cc00110009008200d8008000fd000040780048
:1033dc009e409000f6fe07001e4fe8001e4078004d
:1033ec00e74f5000d7ff36000080fa0000000600bf
:1033fc000200fa00004f78001e80fb00e10f500025
:10340c0017003200e10f500003003c000000e00008
:10341c000600320039003700e20f50001d00320068
:10342c00e30f5000280032003400370011c0b30005
:10343c00b0c3b300defe07008040eb0090c2b300c7
:10344c00dbfe07008040eb0070c1b300d8fe070024
:10345c008040eb0050c0b300d5fe070034003700ad
:10346c0011c0b300b0c3b300d1fe070011c0b3004c
:10347c0090c2b300cefe07008040eb0070c1b300d9
:10348c00cbfe07008040eb0050c0b300c8fe070025
:10349c002700370011c0b300b0c3b300c4fe07004f
:1034ac0011c0b30090c2b300c1fe070011c0b3003d
:1034bc0070c1b300befe07008040eb0050c0b300eb
:1034cc00bbfe07001a00370011c0b300b0c3b30035
:1034dc00b7fe070011c0b30090c2b300b4fe0700e2
:1034ec0011c0b30070c1b300b1fe070011c0b3002e
:1034fc0050c0b300aefe07000d0037008040eb005b
:10350c00b0c3b300aafe07008040eb0090c2b3002a
:10351c00a7fe07008040eb0070c1b300a4fe0700bb
:10352c008040eb0050c0b300a1fe0700000000007b
:10353c000080fa00000006000200fa00004f78003c
:10354c001e80fb00e20f500017003200e20f50000b
:10355c0003003c00e10f5000060032003900370038
:10356c00e30f50001d003200e40f50002800320021
:10357c003400370011c0b300c0c3b3008cfe070089
:10358c008040eb00a0c2b30089fe07008040eb0036
:10359c0080c1b30086fe07008040eb0060c0b30022
:1035ac0083fe07003400370011c0b300c0c3b30062
:1035bc007ffe070011c0b300a0c2b3007cfe070061
:1035cc008040eb0080c1b30079fe07008040eb0027
:1035dc0060c0b30076fe07002700370011c0b300af
:1035ec00c0c3b30072fe070011c0b300a0c2b30089
:1035fc006ffe070011c0b30080c1b3006cfe070062
:10360c008040eb0060c0b30069fe07001a00370071
:10361c0011c0b300c0c3b30065fe070011c0b300f6
:10362c00a0c2b30062fe070011c0b30080c1b3009a
:10363c005ffe070011c0b30060c0b3005cfe070062
:10364c000d0037008040eb00c0c3b30058fe0700ec
:10365c008040eb00a0c2b30055fe07008040eb0099
:10366c0080c1b30052fe07008040eb0060c0b30085
:10367c004ffe0700000000000080fa00000006006a
:10368c000a00fa00889fbe002007980031079800b6
:10369c00024f98000040eb0010479800c70007004d
:1036ac002e009000be009000e00f5000e08f5800fc
:1036bc0004003a008040eb000040eb0019ff0700cb
:1036cc002b00370060c0b300004f78002500370096
:1036dc002e009000be00900043f607000004be00d0
:1036ec001e00fb00cf80de003cf607000001be0090
:1036fc000000200001122400c4f607000001be00e7
:10370c000800be00d8f5070019f60700a20020003b
:10371c0003002000b0f70700204798002e409000cf
:10372c000004e0000700320010c0b30010479800fe
:10373c001e407800804078002e409000f9fe070073
:10374c00070037001e4090000004e0000400320027
:10375c001e407800804078002e409000f1fe07005b
:10376c001e4fe9001e4078000004e000d8ff3d0029
:10377c004f04be000080fa00000006000200fa00b0
:10378c00000f78008d0007001e007800a00090004c
:10379c00a000200000017800110009008200d80070
:1037ac000040780051c0b300defe07001e00780018
:1037bc00a0009000a000200000017800110009007a
:1037cc008200d8008000fd000040780041c0b300aa
:1037dc00d4fe07001e00780090009000a00020008e
:1037ec0000017800110009008200d8000040780028
:1037fc0031c0b300cbfe07001e0078009000900093
:10380c00a000200000017800110009008200d800ff
:10381c008000fd000040780021c0b300c1fe07000d
:10382c001e00780090007800a000200000017800b5
:10383c00110009008200d8000040780011c0b300cc
:10384c00b8fe07001e00780090007800a000200051
:10385c0000017800110009008200d8008000fd00f2
:10386c00004078008040eb00aefe07000080fa00bc
:10387c00000006000200fa00004f78001e80fb00da
:10388c00e20f500017003200e20f500003003c0022
:10389c00e10f50000600320039003700e30f5000f2
:1038ac001d003200e40f50002800320034003700b5
:1038bc0011c0b30010c0b300bdfd07008040eb0089
:1038cc0030c0b300bafd07008040eb0090c0b300dd
:1038dc00b7fd07008040eb00b0c0b300b4fd07009b
:1038ec00340037008040eb0010c0b300b0fd07007f
:1038fc0011c0b30030c0b300adfd07008040eb0039
:10390c0090c0b300aafd07008040eb00b0c0b3002c
:10391c00a7fd0700270037008040eb0010c0b30064
:10392c00a3fd07008040eb0030c0b300a0fd0700f2
:10393c0011c0b30090c0b3009dfd07008040eb00a8
:10394c00b0c0b3009afd07001a0037008040eb00ae
:10395c0010c0b30096fd07008040eb0030c0b300f0
:10396c0093fd07008040eb0090c0b30090fd070072
:10397c0011c0b300b0c0b3008dfd07000d003700bf
:10398c008040eb0010c0b30089fd07008040eb00c5
:10399c0030c0b30086fd07008040eb0090c0b30040
:1039ac0083fd07008040eb00b0c0b30080fd070032
:1039bc00000000000080fa00000006000200fa007f
:1039cc000040eb0010479800110037000040eb005e
:1039dc00004f7800080037001e4090007200b900bc
:1039ec0000007800004078001e4040008040eb0052
:1039fc006ffd07001e4fe8001e407800e34f50009b
:103a0c00f5ff36001e4090000040e800104798007b
:103a1c001e409000e34f5000ecff36000040eb00de
:103a2c00104798001100370080c0b300004f780099
:103a3c00080037001e4090007200b90000007800aa
:103a4c00004078001e4040008040eb0058fd07000d
:103a5c001e4fe8001e407800f14f5000f5ff360075
:103a6c001e4090000040e800104798001e40900057
:103a7c00e34f5000ecff36000080fa000000060017
:103a8c000200fa000040eb001047980011003700cc
:103a9c000040eb00004f7800080037001e409000fb
:103aac007200b90000007800004078001e40400011
:103abc008040eb003efd07001e4fe8001e407800e2
:103acc00f14f5000f5ff36001e4090000040e8001a
:103adc00104798001e409000e34f5000ecff36005a
:103aec000080fa00000006000800fa002007980089
:103afc0031079800ae009000110798000040eb00d1
:103b0c00004f78000a0037001e80fb00be009000ba
:103b1c00008040001e0190009e80fb00e38010009e
:103b2c008100410091407800014878001e4fe80068
:103b3c001e407800e34f5000f3ff36000080fa007f
:103b4c00000006000800fa002007980031079800d2
:103b5c00ae009000110798000040eb00004f780079
:103b6c000a0037009e0090001e80fb000080400081
:103b7c009e80fb00e38010003e019000810041001c
:103b8c0091407800014878001e4fe8001e407800f4
:103b9c00e34f5000f3ff36000080fa0000000600ef
:103bac000800fa002007980031079800ae0090003a
:103bbc00110798000040eb00004f78000a00370016
:103bcc001e80fb00be009000008040001e01900093
:103bdc009e80fb00e780100081004100914078003e
:103bec00014878001e4fe8001e407800e74f500057
:103bfc00f3ff36000080fa00000006000200fa0015
:103c0c00881f7800004f78001e80fb004400de0007
:103c1c00004078006a00b900000078000044780089
:103c2c001e80fb0041c0b300260107000040440089
:103c3c004f0478000080fa00000006000400fa002f
:103c4c00004f78009e80fb00a0002000000178004f
:103c5c00110009008280d800004078000080fb0031
:103c6c004400dd0000407800204798001e81fb00d6
:103c7c00a000200080017800110009000381d80009
:103c8c008000fd00004078006f406000ae40900066
:103c9c0000c070000080fa00000006000600fa0068
:103cac00000f780011079800220798001e00900062
:103cbc009e007800808f5000020036000040eb0020
:103ccc00070037002e0090009e007800808f500077
:103cdc00020031000040eb000100370010c0b300bf
:103cec000080fa00000006000a00fa001007980095
:103cfc002207980033079800410798001e00900097
:103d0c0010007800c800dd001e0090000080e80064
:103d1c0010007800008f40001e0078006101b80090
:103d2c002e009000be009000800f5100818f590032
:103d3c0004003600ae0090001e00900001087800d0
:103d4c00070037004e0090009e007800808f5000d6
:103d5c00030031001e009000ce0090000108780096
:103d6c000080fa00000006000600fa001007980018
:103d7c00414798000040eb00004f78001b003700d3
:103d8c001e80fb009e009000008040009040780058
:103d9c00114798001e80fb009e00900000804000a0
:103dac00ce4090008180fb000101e9009e80fb0069
:103dbc00810051001e01900081004100914078006b
:103dcc00014878004e4090000080fb008000e90024
:103ddc001e80fb00008050009e0090000080400080
:103dec009e409000014878001e4fe8004e40900025
:103dfc000080fb000000d100004078009e4f500076
:103e0c00dfff3e000080fa00000006000400fa000c
:103e1c0020479800090037000000eb00000f7800e5
:103e2c0002003700000000001e0fe800b08f2000d9
:103e3c009e007800808f5000faff360010c0b3004f
:103e4c00ae4090000104e00001003c000040eb009b
:103e5c00ae4090008140e900214798000004e0004a
:103e6c00edff3a000080fa00000006000400fa00a2
:103e7c0020479800090037000000eb00000f780085
:103e8c0002003700000000001e0fe800709d2500a6
:103e9c009e007800808f5000faff360010c0b300ef
:103eac00ae4090000104e00001003c000040eb003b
:103ebc00ae4090008140e900214798000004e000ea
:103ecc00edff3a000080fa00000006000600fa0040
:103edc00404798000e0037006000b800008fbe000d
:103eec000500370000000000120020000300200035
:103efc001e0f41005e97490030e82d001100200094
:103f0c001e01be00800f5100818f5900f5ff360055
:103f1c0010c0b300ce4090000104e00001003c0052
:103f2c000040eb00ce4090008140e90041479800f2
:103f3c000004e000e8ff3a000080fa0000000600f0
:103f4c000600fa00404798000e0037006000b800e9
:103f5c00008fbe000500370000000000120020009a
:103f6c00030020001e0f41005e97490070832d0056
:103f7c00210120001e01be00800f5100818f5900cd
:103f8c00f5ff360010c0b300ce4090000104e000f5
:103f9c0001003c000040eb00ce4090008140e90065
:103fac00414798000004e000e8ff3a000080fa0066
:103fbc00000006000800fa0010079800210798007e
:103fcc00624798000040eb00004f78000900370072
:103fdc001e80fb009e009000008040009e80fb0035
:103fec002e0190008100410091407800014878003a
:103ffc001e4fe8006e4090009e40780080cf50002d
:10400c00f3ff39000080fa00000006000600fa00f9
:10401c001007980041479800524798000040eb0069
:10402c00004f7800060037001e80fb009e009000b9
:10403c0000804000ce409000014878001e4fe80000
:10404c005e4090009e40780080cf5000f6ff390013
:10405c000080fa00000006000800fa001007980023
:10406c0021079800624798000040eb00004f780051
:10407c000d0037001e80fb009e0090000080400069
:10408c00904078001e80fb002e0190000000410043
:10409c001040780080cf5000020032000040eb004e
:1040ac00060037001e4fe8006e4090009e407800de
:1040bc0080cf5000efff390010c0b3000080fa0031
:1040cc00000006000400fa00000f78002147980059
:1040dc001e007800804078002e4090000080fb008d
:1040ec001e0178000011de002e4090000080fb00c5
:1040fc000010dd000040780000c050000080fa0085
:10410c00000006001000fa005007980061079800a4
:10411c000040eb00004f78005e0090001007980004
:10412c001e0090000000e0001e003a006e0090009f
:10413c0001c3b300014878006e0090000000e80055
:10414c008040eb000148780010c0b3001047980085
:10415c00340037001e80fb00e400470080804000e4
:10416c00710798001e019000a100200081017800c9
:10417c00110009000381d800814078000143b00090
:10418c007e009000014878001e4fe8009e009000d1
:10419c00a000200000017800110009008280d800e6
:1041ac00100798001e0090000000e000e9ff3a00a4
:1041bc009e417800134798001e4fe8000c00370012
:1041cc001e80fb000000e900ee0090000080400023
:1041dc009e4090000181fb009e80fb0081005100fd
:1041ec00640147008100410091407800014878004b
:1041fc001e80fb000000ea004f00de00004078004b
:10420c001e4fe9000004e000edff3a001e40900054
:10421c000080fb00ee009000008040008040eb002e
:10422c00014878001e4090000080fa000000060053
:10423c000800fa004107290006000900315f7800e8
:10424c007e00b10050052000303b8800a00a200001
:10425c00303b880027a6a8003131800000302000b8
:10426c0001007000303188001e4090000080fb007f
:10427c00203188002e4090000080fb00c800dd003b
:10428c003e4090000080fb00008040002031880000
:10429c004e4090000080fb00203188005e40900072
:1042ac000080fb00c800dd006e4090000080fb0029
:1042bc00008040002031880023e6a90011318000e5
:1042cc00f0cf2f00008060000090a000103188001b
:1042dc002026ef002026ef002026ef0000802d0086
:1042ec00103188002826ef0011068000f08f2f0077
:1042fc0080806000006020000100700010068800c3
:10430c008bc0a9009bc0a80027e6a80027a6a9007f
:10431c000080fa00000006000000fa00881f7800f8
:10432c0050052000303b8800a00a2000303b88005c
:10433c0027a6a80023e6a900000000003131800068
:10434c0000002100008060000000e000fbff3a004c
:10435c0011318000f0cf2f00008060000090a00091
:10436c00103188000eb897000040780033fe07002b
:10437c000080fb004804dd007eb097000040780010
:10438c002efe07000080fb00000044000031880076
:10439c002eb897000040780028fe07000080fb0034
:1043ac004804dd006eb097000040780023fe070043
:1043bc000080fb0000004400003188005eb09700d4
:1043cc00004078001dfe07000080fb004804dd0063
:1043dc004eb097000040780018fe07000080fb00ec
:1043ec00000044000031880027a6a90023e6a8009d
:1043fc004f0478000080fa00000006000400fa0068
:10440c00100798003231800000002100000061008c
:10441c000000e000020032000040eb006e003700ac
:10442c0051052000313b8800a10a2000313b880057
:10443c0027a6a80031318000003020000100700058
:10444c003031880021318000010f7800000f2000ee
:10445c001e0060004400de006a00b9008000780095
:10446c001e0178006f006100008040008000780021
:10447c001e0090005100980031318000f0cf2f00c9
:10448c00008060000090a000303188002131800055
:10449c00010f78001e0078004c00de006a00b900a5
:1044ac00800078001e0078004800de006f0060007d
:1044bc0000804000800078001e00900041009800b1
:1044cc00000f20001e0060004400de006a00b900ee
:1044dc00800078001e0178006f00610000804000b1
:1044ec00800078001e00900031009800313180006f
:1044fc00f0cf2f00008060000080a00030318800d9
:10450c0021318000010f78001e0078004c00de0085
:10451c006a00b900800078001e0078004800de00b8
:10452c006f00600000804000800078001e0090004a
:10453c0061009800000f20001e0060004400de00a7
:10454c006a00b900800078001e0178006f006100dd
:10455c0000804000800078001e0090002100980030
:10456c0031318000f0cf2f000080600030318800a6
:10457c0021318000010f78001e0078004c00de0015
:10458c006a00b900800078001e0078004800de0048
:10459c006f00600000804000800078001e009000da
:1045ac0011009800000f20001e0060004400de0087
:1045bc006a00b900800078001e0178006f0061006d
:1045cc0000804000800078001e00900001087800f8
:1045dc0027a6a90010c0b3000080fa000000060056
:1045ec000000fa00881f780050052000303b88003e
:1045fc00a00a2000303b880027a6a80027e6a900c7
:10460c008bc0a9009bc0a900313180000030200074
:10461c0001007000303188001eb89700004078000f
:10462c0086fd07000080fb00203188000eb8970043
:10463c000040780081fd07000080fb004804dd008d
:10464c007eb09700004078007cfd07000080fb00e6
:10465c0000004400203188002eb8970000407800fc
:10466c0076fd07000080fb004804dd006eb097006b
:10467c000040780071fd07000080fb000000440042
:10468c00203188005eb09700004078006bfd070079
:10469c000080fb004804dd004eb09700004078001d
:1046ac0066fd07000080fb000000440020318800fc
:1046bc0027e6a80027a6a9009bc0a8004f047800f5
:1046cc000080fa00000006002600fa00000629000f
:1046dc00f200470013000900b05878004001b10007
:1046ec00000000000e00780044ff07000004a20048
:1046fc000004e000fbff3a00de009000a000200068
:10470c0000017800110009008200d80000407800f8
:10471c000043b00020579800de009000a00020005d
:10472c0000017800110009008200d8008000fd0013
:10473c00004078000043b00030579800f0c2b3003e
:10474c0040579800ce009000a00020000001780097
:10475c00110009008200d800004078000043b0002e
:10476c0050579800ce009000a00020000001780067
:10477c00110009008200d8008000fd000040780084
:10478c000043b00060579800f0c2b3007057980017
:10479c00be009000a000200000017800110009006c
:1047ac008200d800004078000043b000005f980001
:1047bc00be009000a000200000017800110009004c
:1047cc008200d8008000fd00004078000043b0005b
:1047dc00105f9800d0c2b300205f9800ae0090002c
:1047ec00a000200000017800110009008200d80010
:1047fc00004078000043b000305f9800ae0090009d
:10480c00a000200000017800110009008200d800ef
:10481c008000fd00004078000043b000405f98002d
:10482c00a0c3b300505f98009e009000a000200031
:10483c0000017800110009008200d80000407800c7
:10484c000043b000605f98009e009000a000200024
:10485c0000017800110009008200d8008000fd00e2
:10486c00004078000043b000705f9800a0c3b30014
:10487c00006798009e007800a000200000017800de
:10488c00110009008200d800004078000043b000fd
:10489c00106798009e007800a000200000017800ae
:1048ac00110009008200d8008000fd000040780053
:1048bc000043b00020679800a0c0b3003067980098
:1048cc007200470021c1b300320507000080fa00d6
:1048dc00000006004000fa00601f9800711f98004d
:1048ec0018000900001feb002e03b1006e18900099
:1048fc00210320008e80400002fe070021032000cf
:10490c008e8040000e00780022f507000e00780023
:10491c003b0507000080fa00000006000200fa00c8
:10492c002ec8bf008080fb002fc8bf000080fb009a
:10493c000000e900808f500003003a003011800025
:10494c00004f78000c0037002ec8bf000080fb0021
:10495c0031118000014178002184200082707800a0
:10496c002ec8bf000040e8002ee8b7002ec8bf00dc
:10497c00f043b2002ee8b7000080fa0000000600f9
:10498c000200fa000040eb00004f780030c8bf0076
:10499c008080fb0031c8bf000080fb000000e900f4
:1049ac00808f500003003a00b0118000004f780057
:1049bc000c00370030c8bf000080fb00b111800034
:1049cc0001417800218820008270780030c8bf0037
:1049dc000040e80030e8b70030c8bf00f043b20038
:1049ec0030e8b7000080fa00000006000200fa0070
:1049fc000040eb00004f780032c8bf008080fb0005
:104a0c0033c8bf000080fb000000e900808f50001d
:104a1c0003003a00b0128000004f78000c00370001
:104a2c0032c8bf000080fb00b11280000141780049
:104a3c00218c20008270780032c8bf000040e80052
:104a4c0032e8b70032c8bf00f043b20032e8b7001a
:104a5c000080fa00000006000200fa00000f780047
:104a6c00f1822000914078002ec8bf0080cf50000a
:104a7c0002003a000040eb000d0037002fc8bf00c9
:104a8c000080fb0021842000e14078001e007800ab
:104a9c00014878002fc8bf000040e8002fe8b7009d
:104aac002fc8bf00f043b2002fe8b70010c0b3000e
:104abc000080fa00000006000200fa00000f7800e7
:104acc00118320009140780030c8bf0080cf500087
:104adc0007003a0090118000620060000000e000c6
:104aec00010032003222a9000040eb000d0037001b
:104afc0031c8bf000080fb0021882000e140780015
:104b0c001e0078000148780031c8bf000040e80062
:104b1c0031e8b70031c8bf00f043b20031e8b7004c
:104b2c0010c0b3000080fa00000006000200fa007a
:104b3c00000f7800318320009140780032c8bf000c
:104b4c0080cf500007003a00901280006200600095
:104b5c000000e000010032005222a9000040eb00ee
:104b6c000d00370033c8bf000080fb00218c2000f3
:104b7c00e14078001e0078000148780033c8bf007f
:104b8c000040e80033e8b70033c8bf00f043b20080
:104b9c0033e8b70010c0b3000080fa000000060034
:104bac000800fa00300798000040eb00004f780036
:104bbc000040eb00104798000040eb0020479800a5
:104bcc000040eb00404798003e0090006040900091
:104bdc000004e000040032003e00900020409000f1
:104bec000004e00036003a000040eb00ad00370056
:104bfc003e009000900078001e4090000080fb006a
:104c0c0000804000904078003e0090002000900012
:104c1c001040780080cf500022003a0010c0b30042
:104c2c00204798001a0037003e0090009000780052
:104c3c001e4090000081fb002e4090000080fb0085
:104c4c000000410000804000904078003e00900041
:104c5c00200190002e4090000080fb0000004100dd
:104c6c001040780080cf500006003a0010c0b3000e
:104c7c00004f78002e4090000040e800204798003c
:104c8c00030037000040eb00004f780005003700b0
:104c9c003e009000e04090002e40900080cf5000ed
:104cac00e1ff3e001e4078000004e0000b003a00db
:104cbc001e4090000040e8001047980001003700ab
:104ccc00000000003e009000a04090001e409000ac
:104cdc0080cf5000c6ff3e000100370000000000ee
:104cec001e4078000004e0006a0032003e00900094
:104cfc00a04890003e0090006040900080cf500093
:104d0c001a0031003e009000a048900041479800e6
:104d1c000040eb00304798000f0037003e00900039
:104d2c00c00090003e4090000080fb0000804000de
:104d3c00be00900021019000be4090008180fb00dd
:104d4c008100410091407800014878003e4090007d
:104d5c000040e80030479800be4090004e40900064
:104d6c0080cf5000edff3900450037003e00900029
:104d7c00204090008080fb001e4090000080fb00d3
:104d8c00808050003e009000204890000080fb0086
:104d9c00808f500020003d000040eb003047980011
:104dac00120037003e009000c00090003e40900082
:104dbc000080fb0000804000be00900011017800d4
:104dcc009e4090008181fb00be4090008180fb00e2
:104ddc0081804100810041009140780001487800b9
:104dec003e4090000040e800304798003e40900064
:104dfc008080fb003e009000204090000081fb0072
:104e0c001e4090000080fb0000005100808f50007d
:104e1c00e4ff35001a0037000040eb0030479800e3
:104e2c00120037003e009000c00090003e40900001
:104e3c000080fb0000804000be0090001101780053
:104e4c009e4090008181fb00be4090008180fb0061
:104e5c008180410081004100914078000148780038
:104e6c003e4090000040e800304798003e00900023
:104e7c00a04890003e40900080cf5000e9ff3100e8
:104e8c003e009000be4090003148980010c0b30026
:104e9c00040037003e0090008040eb003148980041
:104eac000040eb000080fa00000006000800fa0049
:104ebc001007980021079800624798000040eb000b
:104ecc00004f7800080037001e80fb00ae009000f9
:104edc00008040009e009000010001000004e000f2
:104eec00050032001e4fe8006e4090009e4f5000af
:104efc00f5ff3e0001003700000000001e40780066
:104f0c000080fa00000006000400fa001007980068
:104f1c00000000009e0090000e00780001000100cf
:104f2c000004e000fbff3a000080fa0000000600dd
:104f3c000000fa00d8c2a900d8e2a900e822a90012
:104f4c00d822a900d882a900d8a2a900dce2a90025
:104f5c00dcc2a900dca2a900dc82a900ec22a90019
:104f6c00dc22a9000080fa00000006004800fa00cc
:104f7c0000279800112798002227980063c79800f3
:104f8c0074c798000040eb00004f78000040eb0025
:104f9c00104798001e4fe8000e20900006030700f3
:104fac0030c0b300e6fb0700390307006e00470072
:104fbc00100798001e00900022c3b30080007800f8
:104fcc0020562200b9ff0700404798009e20900011
:104fdc0031079800eec09000014f98000000eb00e4
:104fec00500798000040eb00404f98000040eb0049
:104ffc00504f98000e80e800e9fe07000004e00026
:10500c000300320010c0b300104798000f003700a7
:10501c002e2090000000e00009003200ae2090002d
:10502c00310798000e80e800ddfe07000004e00068
:10503c000300320010c0b300104798000300370083
:10504c007ec090009e4f5000d2ff3e0020562200a2
:10505c00adff07001e4090000080fa000000060023
:10506c000200fa00dce2a800dcc2a800dca2a90065
:10507c00dc82a900ec22a900dc22a90010c0b3003c
:10508c00affb070024c0b30023c0b3000001eb004a
:10509c0051f02800c0ee2800b4ff07000004e00027
:1050ac003a00320024c0b30083c0b3000001eb000f
:1050bc0031f1280080f02800acff07000004e0006c
:1050cc002f003200a4c0b30023c0b30042f4280068
:1050dc0011f42800a0f22800a4ff07000004e0004f
:1050ec002400320034c0b30023c0b3000001eb0035
:1050fc0051f0280010f528009cff07000004e00088
:10510c001900320034c0b30023c0b3000001eb001f
:10511c0051f028002090200094ff07000004e000cc
:10512c000e00320054c0b30073c0b3000001eb009a
:10513c00d1fa2800c0f928008cff07000004e00019
:10514c00030032000040eb00004f780011003700e4
:10515c0060c0b300004f78000e00370050c0b300a1
:10516c00004f78000b00370040c0b300004f7800b0
:10517c000800370030c0b300004f7800050037003e
:10518c0020c0b300004f78000200370010c0b300fd
:10519c00004f78001e80fb000000ea004f00de008c
:1051ac00004078000080fa00000006002000fa00a1
:1051bc002056220054ff0700ec22a800dc22a80095
:1051cc0010c0b3005efb0700ec22a900dc22a90092
