:020000040000fa
:080000000002040000000000f2
:020000040000fa
:100400004fcf20000eff20000e01880000000000ea
:100410000c000700e0e522000100200011000700a9
:10042000000020000000e000020032000000020096
:1004300000000000d8300200000000000040da0098
:100440000000fe004440a900e01a20000000e00087
:100450000300320000002000a00188004440a800f2
:100460000000060091018800800078000000eb0089
:1004700015003700e280400032a0b4009101ba00bc
:10048000e280400032a0b4009102ba00e280400055
:1004900032a0b4000002eb00472bde00f507b200eb
:1004a000602ce10004003a000059eb008301e900f0
:1004b000fdff3e00040037006128e100010032002a
:1004c0000082eb00040007001101ba000200e00006
:1004d000e8ff3a00000006003159ba008301e90044
:1004e0000c0032002159ba008301e90008003200f3
:1004f0000400e00003003a00e280400032a0b400b3
:10050000f5ff370011d9ba008301e900faff3a007c
:100510008100e800e180400032a0b4000000060045
:1005200000000000000000000000000000000000cb
:10053000000000000000000003f0a200889fbe0041
:100540008a9fbe008c1f7800f6000700fd00330074
:100550006450e1004f0032006420e100520032009c
:1005600003826c0007003b000905d0000306d000a1
:10057000820f54000c065d000200390002003200b8
:1005800089017800030678008582550004003d004b
:100590000003fd008103fd008502ea008b85420017
:1005a000840f720002003b0060001000e080180021
:1005b0006011b8000005eb007a28e1000a0039005c
:1005c00006007800c75ddd00f707b2008780750080
:1005d0002d003700828171000a01780061056000fa
:1005e0008180d1000080d3008502e900f9ff3b0043
:1005f000060440008784480002003b0060041400a9
:10060000e0841c000988a300070032008a81710081
:1006100082817100610164008904d1000884d300e3
:100620008b05e800170037000978a30013003a0093
:100630000b00e000130034008b05e90008044400bf
:1006400089844c000a4474000978a3000d003a0024
:100650000b00e000070034008b05e90008044400ab
:1006600089844c0001003a000b0020000978a300a7
:10067000f7ff32000001eb000200370082817100b9
:100680000a017800810007000cf0a70001f0a0002b
:10069000b50037006420e10002003a00838f6c004f
:1006a000b50033000801be000200be00ae003700f6
:1006b000889fbe008a9fbe008c1f780099000700ab
:1006c000a000330003866c006450e1002e0032006d
:1006d0006420e100330032006150e1002f0032005d
:1006e0006120e1003100320085855500eb07b00044
:1006f0000900200008042000050037000804440019
:1007000089844c000a0031000603430087834b00b4
:100710000001530081815b00f8ff33000203be003b
:100720000800a0000804440089844c00f6ff39004a
:10073000c639dd0083017300010032001300200080
:100740008904d1000884d3000998a3000500320071
:100750000800a7000300a0008904d1000884d3008a
:100760008b05e8008904d1000884d3000001eb0068
:100770000281d2004500070001f0a1000cf0a700a3
:1007800001f0a000780037006420e1007a00320018
:100790000801be000200be00f7ff37006120e10043
:1007a000750032006000b800f3ff37000000200041
:1007b00001f82700f0ff3700f4ff2f00df003700bb
:1007c000889fbe008a9fbe00010578000100e000fe
:1007d0000400350008003c000000e000200032006a
:1007e0000500370060001000e080180002003b00a8
:1007f00001f02c001a0037000004be006011b800a0
:100800006b0920000982cf00020039000882cf0066
:100810000441b000694252000e00320008003b0063
:1008200082817100610164008904d1000884d300d1
:100830008b05e8000442e800f9ff3a0005003700a4
:100840000804440089844c008b05e9000442e90057
:10085000fbff3a000d0007000af0a70001f0a0001e
:100860004f05be004f04be00000006000001eb0073
:100870008b000700040032000200200003f8230070
:1008800001f0a7002cff07000000060081002000f7
:10089000618055000b003d000b00200061fe2f0021
:1008a0000100e1001d0034008281710061016400db
:1008b0008904d1000884d3000000e800faff3a0060
:1008c00071002000610064000300700002006000fd
:1008d0000900320061044400e0844c000988a5004e
:1008e000050032008b05e8006808e10002003a00cc
:1008f0008904d1000884d300f20f20000258e100df
:1009000005003d00c75ddd00f907b2008980750074
:1009100008007800000006000bf827008b00780024
:10092000000005000004be009f0007000003be0099
:100930000405be000200be009b000700844f750046
:10094000000006000200be006450e1000500360011
:100950006420e100020036000968a30001003a00ab
:100960000800be000160a0004f0678004f05be00e1
:100970004f04be0000000600f0ff2f00f1ff27002b
:10098000f9ff3700889fbe008a9fbe008c1f780049
:10099000e4ff0700ebff330003866c006450e100c6
:1009a000240032006420e100270032006150e100a1
:1009b000220032006120e100210032008b854200dc
:1009c000eb07b1000134b800003ab8000804420057
:1009d00089844a00013ab8000030b800888040009d
:1009e00009014a00040033000000400081804800f3
:1009f000020149008b05e900c909dd00830170008f
:100a00000100320013002000c814de004814dd008d
:100a10004709de001200b200c808de00088470003a
:100a20009aff070001f0a1000cf0a70001f0a00060
:100a3000cdff37006120e100cfff32000801be008a
:100a40000200be00f7ff37006150e100fcff3a00f2
:100a5000c9ff37006022b800060220000000d00065
:100a60008180d2000482d2008582d2000000a000e2
:100a70000202520083825a00030031000202420047
:100a800083824a000000a1000603e900f3ff3a0058
:100a900000000600efff07000400be000000060093
:100aa000889fbe008a9fbe000003be003e00070074
:100ab0008505780082815200020020006220e1005a
:100ac00004003a00f307b100040035007718e10094
:100ad000040035000600be00140037006000b800b6
:100ae0000f003700f50f2000faff2f008502d1001c
:100af0000a85d3008301e900fcff3b00818462008a
:100b000000046500890f7400f2ff32008582ea005c
:100b10000a85ea0081846200000465005bff07002b
:100b200007f0a70001f0a0000081eb000200e00048
:100b30004f05be004f04be0000000600889fbe00a7
:100b40008a9fbe00841f780076ff07004f00780060
:100b500011003300f0ff2f00838f6c0006003b0074
:100b6000040565000a00a7000800370009f0a60088
:100b70001000200008003700820f5400838f5c00b3
:100b8000030039001000200001003e00000020009a
:100b900009f0a7000000ea004f05be004f04be00a8
:100ba0000000e00000000600c70ade00f107b20006
:100bb000f50fb20008003200e1cf4200020032001f
:100bc0000170a00024000500810f700001003200b8
:100bd0000408050044000500810f700002003a007f
:100be000140005008502e9000000400081c04800b3
:100bf000fcff3b000170a00024000500800178008c
:100c0000d01620000018b800421ade00040240008e
:100c1000e082480042062000110009008281d800cd
:100c20000001780002025200e0825a0002192000fe
:100c3000110009008281d8008000fd0001004200ff
:100c4000e0804a0000000600889fbe000003780094
:100c50000102e80010bf200000a2b90010442f00dc
:100c60000400400044062000811f780011000900a4
:100c70000480d800cf007800000141006114b80062
:100c8000e18f500014003600021920001100090005
:100c90000283d800010078000000e0000700320065
:100ca0006300630008003a00110009000483d800c3
:100cb0008000fd000000e000030032001000200072
:100cc0000100200002003700200020000100200069
:100cd0000004540081845c000600e900c7ff07009f
:100ce00008004000898048004f04be000000060054
:100cf000889fbe008a9fbe008c9fbe0000067800c1
:100d0000d0069000a0fb2f00008046000081eb0081
:100d10008081eb0021032000810f500033003e0052
:100d2000120020008000eb00207b2000c6ff07009f
:100d30000005be00c0762000008046003c01900007
:100d4000cc009000c0ff07000004be000a05500060
:100d50008b85580072002000030020000a00be00ae
:100d60002700070064004000e08048007200200077
:100d7000030020002200070060069800b0762000e3
:100d8000008046009dff0700000454000804e900ad
:100d90007806980082012000030020000a00be00af
:100da000260007002c019000cf91de0000004100da
:100db00081804900c2032000030020001f000700bb
:100dc0001c019000cf91de000000410081804900ad
:100dd000c203200003002000180007001c01780057
:100de000cf91de0000014100818149000200be0078
:100df0004f06be004f05be004f04be0000000600b7
:100e0000811f78000100e00002003d00600010003a
:100e1000e08018000300e00002003d0060011100c6
:100e2000e08119001bff07004f00e00002003b00bb
:100e300060001000e080180000000600020ab900ff
:100e4000001bb9000200b80081004200810043008d
:040e50000000060098
:020000040000fa
:10000800c21b0000c21b0000c21b0000c21b000074
:10001800c21b0000c21b0000c21b0000c21b000064
:10002800c21b0000c21b0000c21b00009c1900007c
:10003800c21b0000c21b0000c21b00006a1900009e
:100048004c190000c21b0000c21b0000dc1a000093
:10005800c21b0000c21b0000c21b0000c21b000024
:10006800c21b0000c21b0000c21b0000f4190000e4
:10007800e01c0000c21b0000c21b0000c21b0000e5
:10008800c21b0000c21b0000c21b0000ba190000fe
:10009800c21b0000c21b0000201b0000601b0000e8
:1000a800c21b0000c21b0000c21b0000c21b0000d4
:1000b800c21b0000c21b0000c21b0000c21b0000c4
:1000c800c21b0000c21b0000c21b0000c21b0000b4
:1000d800c21b0000c21b0000c21b0000c21b0000a4
:1000e800c21b0000c21b0000c21b0000c21b000094
:1000f800c21b0000c21b0000c21b0000c21b000084
:10010800c21b0000c21b0000c21b0000c21b000073
:10011800c21b0000c21b0000da180000c21b00004e
:10012800c21b0000961b0000ac1b0000c21b000095
:10013800c21b0000c21b0000c21b0000c21b000043
:10014800c21b0000c21b0000c21b0000c21b000033
:10015800c21b0000c21b0000c21b0000c21b000023
:10016800c21b0000c21b0000c21b0000c21b000013
:10017800c21b0000c21b0000c21b0000c21b000003
:10018800c21b0000c21b0000c21b0000c21b0000f3
:10019800c21b0000c21b0000c21b0000c21b0000e3
:1001a800c21b0000c21b0000c21b0000c21b0000d3
:1001b800c21b0000c21b0000c21b0000c21b0000c3
:1001c800c21b0000c21b0000c21b0000c21b0000b3
:1001d800c21b0000c21b0000c21b0000c21b0000a3
:1001e800c21b0000c21b0000c21b0000c21b000093
:0801f800c21b0000c21b000045
:020000040000fa
:10020800c21b0000c21b0000c21b0000c21b000072
:10021800c21b0000c21b0000c21b0000c21b000062
:10022800c21b0000c21b0000c21b00009c1900007a
:10023800c21b0000c21b0000c21b00006a1900009c
:100248004c190000c21b0000c21b0000dc1a000091
:10025800c21b0000c21b0000c21b0000c21b000022
:10026800c21b0000c21b0000c21b0000f4190000e2
:10027800e01c0000c21b0000c21b0000c21b0000e3
:10028800c21b0000c21b0000c21b0000ba190000fc
:10029800c21b0000c21b0000201b0000601b0000e6
:1002a800c21b0000c21b0000c21b0000c21b0000d2
:1002b800c21b0000c21b0000c21b0000c21b0000c2
:1002c800c21b0000c21b0000c21b0000c21b0000b2
:1002d800c21b0000c21b0000c21b0000c21b0000a2
:1002e800c21b0000c21b0000c21b0000c21b000092
:1002f800c21b0000c21b0000c21b0000c21b000082
:10030800c21b0000c21b0000c21b0000c21b000071
:10031800c21b0000c21b0000da180000c21b00004c
:10032800c21b0000961b0000ac1b0000c21b000093
:10033800c21b0000c21b0000c21b0000c21b000041
:10034800c21b0000c21b0000c21b0000c21b000031
:10035800c21b0000c21b0000c21b0000c21b000021
:10036800c21b0000c21b0000c21b0000c21b000011
:10037800c21b0000c21b0000c21b0000c21b000001
:10038800c21b0000c21b0000c21b0000c21b0000f1
:10039800c21b0000c21b0000c21b0000c21b0000e1
:1003a800c21b0000c21b0000c21b0000c21b0000d1
:1003b800c21b0000c21b0000c21b0000c21b0000c1
:1003c800c21b0000c21b0000c21b0000c21b0000b1
:1003d800c21b0000c21b0000c21b0000c21b0000a1
:1003e800c21b0000c21b0000c21b0000c21b000091
:0803f800c21b0000c21b000043
:020000040000fa
:0200000401f009
:040000000f000000ed
:020000040000fa
:0200000401f009
:0400080003000000f1
:020000040000fa
:0200000401f009
:04000c0035000000bb
:020000040000fa
:0200000401f009
:040010002b000000c1
:020000040000fa
:0200000401f009
:040014005f00000089
:020000040000fa
:0200000401f009
:040018009400000050
:020000040000fa
:0200000401f009
:04001c00820000005e
:020000040000fa
:0200000401f009
:040020005f0000007d
:020000040000fa
:100e5400581b0000282300005245000041440000b4
:100e6400592b000054550000524f00004e4700001b
:100e740020470000504f00004e2b00005455000046
:100e8400524f00004e47000020470000504f000022
:100e9400464600002b540000555200004f4e0000ff
:100ea40047200000475000004f5400002b52000020
:100eb4004543000057300000413200002403000085
:100ec40003e9000000000000000000000000000032
:100ed400000000000000000000000000000000000e
:100ee40000000000000000000000000000000000fe
:100ef40000000000000000000000000000000000ee
:100f040000000000000000000000000000000000dd
:100f140000000000000000000000000000000000cd
:100f240000000000000000000000000000000000bd
:100f340000000000000000000000000000000000ad
:100f4400000000000000000000000000000000009d
:100f54000000000041410000414100004141000007
:100f640041410000414100000042000042420000b3
:100f7400424200004242000042420000420000009f
:100f84004343000043430000434300004343000045
:100f94004343000000440000444400004444000073
:100fa40044440000444400004400000000000000e9
:100fb400000000000000000000000000000000002d
:100fc400000000000000000000000000000000001d
:100fd400000000000000000000000000000000000d
:100fe40000000000000000000000000000000000fd
:100ff40000000000000000000000000000000000ed
:1010040000000000000000000000000000000000dc
:1010140000000000000000000000000000000000cc
:1010240000000000000000000000000000000000bc
:1010340000000000000000000000000000000000ac
:1010440000000000202800003250000064960000d8
:10105400c80100000a640000332e0000352e000091
:101064003300000000020000010200000902000039
:101074000a02000010020000120200001302000025
:1010840014020000150200001602000017020000fe
:10109400190200001b0200001d0200001e020000d5
:1010a4001f020000200200002102000022020000b2
:1010b400260200002a0200002e0200003202000074
:1010c40036020000000700000b130000171b00008d
:1010d4001f27000028290000000000000000000075
:1010e40000000000040c00001820000028aa0000e2
:1010f400aa300000aa0c0000101600001aaa000072
:10110400aa1e0000200500000903000011150000bc
:101114000daa0000aaaa0000aa0b000003130000f5
:10112400170f0000aaaa0000aaaa00000b030000df
:10113400131700000faa0000aaaa0000aa070000c3
:101144000b130000171b00001f27000028000000dd
:10115400000000000000000000000000000000008b
:10116400000000000000000000000000000000007b
:10117400000000000000000000000000000000006b
:10118400000000000000000000000000000000005b
:10119400000000000000000000000000000000004b
:0c11a4000000000000000000000000003f
:020000040000fa
:1011b0000600fa0010079800414798000040eb0035
:1011c000004f7800070037001e80fb008000780089
:1011d0001e009000808040000040eb0080487800b6
:1011e0001e4fe8004e4090009e4f1000f6ff390061
:1011f0000080fa00000006000200fa000040eb0048
:10120000004f78000a003700c2638000d36380007b
:1012100000f02100a1a02f000200400083804800c0
:10122000c0638800d163880010c0b300004f78000d
:10123000c2638000d3638000f00f2e00515f200056
:10124000800f5100818f5900efff3e001e80fb0090
:101250000080fa00000006002200fa003007980023
:10126000410798000040eb004047980080638000f1
:1012700091638000008fbe006000b800806388002a
:1012800091638800914284006400470012c0b3005b
:10129000780d07004e409000e24f500002003600eb
:1012a0000040eb00404798001e00be00e00f5000d9
:1012b000e08f580004003a006000b800700f9800fa
:1012c00001179800770037003e019000ce01900092
:1012d0001000200001002000800f5100818f590074
:1012e0003e003e007cccbf000004e0003300320032
:1012f0004e4090008080fb00d0c72000008040005e
:10130000104078000080fb00cf80de002cfd07003d
:1013100002802c00f38a24009afd0700300f980009
:10132000410f98001e00be00e00f5000e08f5800f3
:10133000050035001e00be0021fd0700100f9800bb
:10134000210f9800150037001e0078006101600031
:101350006000b8000300200002007000838070006d
:101360001e01be008301d1000281d3000200700083
:101370008380700012fd0700100f9800210f980065
:101380001e099000ae0990001e089000ae08900063
:101390006afc0700100f9800210f98001e099000aa
:1013a000ae0990003e089000ce089000c0fc0700f7
:1013b000500f9800610f9800030037006000b800dc
:1013c000500f9800610f98005e089000ee089000a2
:1013d000700f980001179800320037004e409000bf
:1013e0008080fb00d0c720000080400010407800c3
:1013f0000080fb00cf80de00f1fc070002802c00a3
:10140000f38a24005ffd070070079800010f980021
:101410001e00be00e00f5000e08f580005003500b0
:101420001e00be00e6fc0700500798006107980008
:10143000150037001e007800610160006000b800f0
:101440000300200002007000838070001e01be00b7
:101450008301d1000281d3000200700083807000fc
:10146000d7fc070050079800610798005e019000c4
:10147000ee0190005e009000ee0090002ffc07004f
:1014800050079800610798005e019000ee019000ff
:101490007e0090008e08900085fc0700700f980079
:1014a000011798007e0890008e1090000080fa00ce
:1014b000000006004000fa0010079800210798007d
:1014c000320798001e009000ae009000e00f500020
:1014d000e08f58004b0132000040eb00004f7800d5
:1014e0009142840012c0b3000e007800e10c0700a6
:1014f0001e407800e24f5000020036000040eb0032
:10150000004f78001e4078008080fb00d0c720008c
:1015100000804000104078000080fb00701f9800a1
:101520007e189000ea0f500068003200400620004c
:10153000fe189000808f5000c10032007e1990008c
:10154000e10f510001003200350137001e0090000c
:10155000ae009000026a2800130020003dfd070045
:10156000501f9800611f98005e1a9000ee1a9000bc
:10157000e00f5200e08f5a00060035005e18900020
:10158000ee1890008efc0700301f9800411f980055
:10159000160037005e189000610160006000b8001e
:1015a0000300200002007000838070005e1a90002b
:1015b000ee1a90008501d1000481d3000200700072
:1015c000838070007efc0700301f9800411f980048
:1015d0003e199000ce1990003e189000ce18900051
:1015e000d6fb0700301f9800411f98003e1890005e
:1015f000ce1890009dfc07003e0190000089be00bf
:101600003e00900064004000201f98001e009000e3
:10161000ae009000026a2800130020001dfd0700a4
:10162000001f9800111f98000e1890009e1890003f
:10163000e00f5000e08f5800060035000e189000b3
:101640009e1890005efc07006017980071179800c4
:10165000160037000e189000610160006000b800ad
:101660000300200002007000838070000e1a9000ba
:101670009e1a90008501d1000481d3000200700001
:10168000838070004efc0700601798007117980067
:101690006e119000fe1190006e109000fe109000f0
:1016a000a6fb070060179800711798000200200041
:1016b000031224006e109000fe109000fcfb070047
:1016c000ae1a9000808abe00d50037001e00900040
:1016d000ae0090000271220003002000ddfc070034
:1016e00040179800511798004e109000de1090009f
:1016f000e00f5000e08f5800060035004e109000bb
:10170000de1090002efc070020179800311798007b
:10171000160037004e109000610160006000b800b4
:101720000300200002007000838070004e129000c1
:10173000de1290008501d1000481d3000200700008
:10174000838070001efc0700201798003117980056
:101750002e119000be1190002e109000be1090002f
:1017600076fb070020179800311798002e10900084
:10177000be1090003dfc07003e0190000089be00b5
:101780003e00900064004000101798001e0090007a
:10179000ae0090000271220003002000bdfc070093
:1017a000700f9800011798007e0890008e1090002e
:1017b000e00f5000e08f5800060035007e089000d2
:1017c0008e109000fefb0700500f9800610f9800ec
:1017d000160037007e089000610160006000b800cc
:1017e0000300200002007000838070007e0a9000d9
:1017f0008e1290008501d1000481d3000200700098
:1018000083807000eefb0700500f9800610f980076
:101810005e099000ee0990005e089000ee089000ce
:1018200046fb0700500f9800610f98005e0890007b
:10183000ee0890001e1190000089be00780037006d
:101840009e009000a0002000000ab8001e0090003a
:101850006000b90005017800000141002e009000f1
:101860006a00b90000014100820278000271220082
:10187000030020000400be0076fc0700300f980033
:10188000410f98003e0a9000ce0a9000e00f5200ef
:10189000e08f5a00060035003e089000ce08900008
:1018a000c7fb0700100f9800210f980016003700a3
:1018b0003e089000610160006000b8000300200055
:1018c00002007000838070003e0a9000ce0a9000f3
:1018d0008501d1000481d300020070008380700074
:1018e000b7fb0700100f9800210f98001e09900009
:1018f000ae0990001e089000ae0890000ffb070094
:10190000100f9800210f98001e089000ae0890005c
:10191000d6fb07003e0190000089be003e0090000b
:1019200064004000000f98009e009000a00020007e
:10193000000ab8001e0090006000b90005017800a0
:10194000000141002e0090006a00b9000001410032
:101950008202780002712200030020000400be0011
:101960004cfc070060079800710798006e0090001b
:10197000fe009000e00f5000e08f58000600350098
:101980006e009000fe0090008dfb0700400798005d
:1019900051079800160037006e009000610160004a
:1019a0006000b80003002000020070008380700017
:1019b0006e029000fe0290008501d1000481d300e8
:1019c00002007000838070007dfb070040079800d4
:1019d000510798004e019000de0190004e009000eb
:1019e000de009000d5fa07004007980051079800e4
:1019f0004e009000de0090000e0990000089be00ad
:101a0000070037003e009000640140006000b8000d
:101a10000089be001200be003e0190000089be0099
:101a20000080fa00000006002200fa00e2ccbf00ad
:101a30008080fb00a00220000088b900000f780021
:101a4000edfd07000080fb000000e0000500320013
:101a50007cccbf000004e00002003a0010c0b300dc
:101a60007cecb700c0638000d1638000fafd070002
:101a7000300f9800410f98003e089000ce0890006b
:101a800002002000832424004bfb07000000e0003c
:101a900001003c00040037000000200081242400e5
:101aa000300f9800410f9800c0638000d163800020
:101ab0007a0147007ffe07008e80e800760047002d
:101ac000b90907000e80e800e40040007a004700f2
:101ad000b50907000e80e800e80040007a004700e2
:101ae00064004000b00907000e80e8006c00400070
:101af000520f07000e80e8007f0b07009086280039
:101b0000104078000080fb001e0040008e80e8003e
:101b1000420020007d0d07000e80e800e400400038
:101b2000a0862800104078000080fb001e004000c6
:101b300042002000750d07000e80e800e80040001c
:101b4000a0862800104078000080fb001e004000a6
:101b500064004000420020006c0d07000e80e80089
:101b6000ec00400040862800104078000080fb0018
:101b70001e00400072002000640d07008e80e80007
:101b80000040eb00b04098000e80e800b0409000ac
:101b90000e80e800214098000e80e800a0409000f0
:101ba0000e80e800114098000e80e8009040900000
:101bb0000e80e80001487800708628001040780008
:101bc0000080fb001e0040008e80e80042002000e4
:101bd0004e0d070080862800104078000080fb0032
:101be0001e0040008e80e80042002000470d0700e4
:101bf00050862800104078000080fb001e00400046
:101c00008e80e80042002000400d0700608628001a
:101c1000104078000080fb001e0040008e80e8002d
:101c200042002000390d070060862800104078002f
:101c30000080fb001e004000640040008e80e80031
:101c400042002000310d0700c086280010407800b7
:101c50000080fb001e0040008e80e8001200200083
:101c60002a0d0700860d07000080fa00000006001c
:101c70002c00fa00881f7800e2ccbf008080fb00b7
:101c8000a00220000088b90030079800d00320008f
:101c900020079800400220000e004000a18a280082
:101ca00006000900315878007000b1000040eb00d8
:101cb000004f7800070037001e80fb00800078008e
:101cc00040802000808040000040eb008048780089
:101cd0001e4fe8009e80fb002e009000808f500079
:101ce000f5ff390044fd07000080fb000000e00024
:101cf000050032007cccbf000004e00002003a0086
:101d000010c0b3007cecb700c0638000d1638000da
:101d10007c014700e7fd070010c4b30004e8b700ea
:101d200020c3b30005e8b700b14184006080200003
:101d300082c0b300cf0a07002e0090004800de00ea
:101d40000ee8b7002e0090000fe8b7000040eb004f
:101d500010e8b70010c0b30011e8b700400220003f
:101d60000e004000b50e0700218120004002200037
:101d70000e004000fd0d0700a1418400608120009d
:101d800012c0b300bb0a07007181200030c0b3004d
:101d9000804878008181200050c2b30080487800dc
:101da000518220007c004700ff080700918220003c
:101db0007c00470064004000fb080700918320007e
:101dc00000c1b30080487800a183200000c4b300a4
:101dd00080487800b183200000c4b30080487800b8
:101de000c18320000040eb0080487800d1832000b0
:101df0000040eb00804878006081200081c2b30081
:101e0000070f070010079800e18320001e009000d4
:101e100080487800f18320001e0090004800de001a
:101e200080487800088420002e00900080407800d0
:101e300040802000290f0700004c780053822000ca
:101e4000a0862800104078008080fb003e009000b3
:101e5000008040004200200083007800ab0c0700a7
:101e600093822000a0862800104078008080fb002c
:101e70003e009000008040006400400042002000ce
:101e800083007800a10c07004086280010407800ed
:101e90008080fb003e009000008040004102200056
:101ea0008e80400072002000980c0700e800470078
:101eb0000040eb00b040980068004700b040900040
:101ec000680047002140980068004700a04090004b
:101ed000680047001140980068004700904090005b
:101ee000680047000148780070862800104078009c
:101ef0008080fb003e00900000804000e80047002a
:101f000042002000810c07008086280010407800e5
:101f10008080fb003e00900000804000e800470009
:101f200042002000790c07005086280010407800fd
:101f30008080fb003e00900000804000e8004700e9
:101f400042002000710c07006086280010407800d5
:101f50008080fb003e00900000804000e8004700c9
:101f600042002000690c07006086280010407800bd
:101f70008080fb003e009000008040006400400034
:101f8000e800470042002000600c0700908628000f
:101f9000104078008080fb003e00900000804000f0
:101fa000e800470042002000580c0700c0862800c7
:101fb000104078008080fb003e00900000804000d0
:101fc000e800470012002000500c0700ac0c07008e
:101fd0004f0478000080fa00000006000800fa00b4
:101fe0002007980031079800a141840012c0b30077
:101ff0002e0090001f0a07002e0090008000e800cd
:1020000030c0b300804878002e0090008080e80047
:1020100050c2b300804878000040eb002047980091
:102020000b0037002e4090000080fb0080007800fd
:102030002e00900000804000e30040000040eb00d4
:10204000804878002e4090000040e800204798002b
:102050002e409000e74f5000f2ff36000040eb00aa
:10206000204798000b0037002e4090000080fb00b6
:10207000800078002e00900000804000eb004000bf
:102080000040eb00804878002e4090000040e800bf
:10209000204798002e409000e34f5000f2ff36009a
:1020a0000040eb0020479800110037002e409000c0
:1020b0000080fb00800078002e009000008040002f
:1020c0006f0140002e4090000080fb0080007800ef
:1020d0003e00900000804000640040001040780006
:1020e000004978002e4090000040e800204798000a
:1020f0002e409000e74f5000ecff36000040eb0010
:1021000020479800100037002e4090000080fb0010
:10211000800078002e009000008040007701400091
:102120002e4090000080fb00800078003e00900070
:102130000080400010407800004978002e40900058
:102140000040e800204798002e409000e34f5000e8
:10215000edff36000040eb00204798000b003700f1
:102160002e4090000080fb00800078002e00900040
:1021700000804000fb0040000040eb0080487800f9
:102180002e4090000040e800204798002e4090002c
:10219000e34f5000f2ff36000040eb00204798006c
:1021a0000b0037002e4090000080fb00800078007c
:1021b0002e00900000804000ff0040000040eb0037
:1021c000804878002e4090000040e80020479800aa
:1021d0002e409000e34f5000f2ff36002e0090009a
:1021e0003102200080804000b06580004700de00a2
:1021f000614060004400dd00804878002e009000bf
:102200003002b000104078000004e00015003200f9
:102210002e009000410220008080400000c4b300e6
:10222000804878002e0090005102200080804000fd
:1022300000c4b300804878002e00900061022000a6
:10224000808040000040eb00804878002e00900025
:1022500071022000808040000040eb008048780040
:10226000140037002e0090004102200080804000c2
:1022700000c4b300804878002e0090005102200076
:102280008080400060c6b300804878002e00900037
:10229000610220008080400060c6b3008048780062
:1022a0002e009000710220008080400060c6b300c4
:1022b0008048780081c2b3002e009000d80d07003e
:1022c000000f78002e0090008102200080804000e6
:1022d0001e007800804878002e00900091022000b7
:1022e000808040001e0078004800de0080487800b2
:1022f0000080fa00000006001200fa006007980053
:10230000614f98000000eb00100798000040eb00c0
:10231000004f78006e0090000000e8001040780048
:102320000080fb00000f98000e089000f00f500096
:102330006a0032008e089000f08f500007003c00c9
:102340000e089000e30f5000100032008e0890003d
:10235000e48f5000360032002201370000042000d4
:102360008e089000808f5000f4003200300420006e
:102370008e089000808f5000180132000e089000e7
:10238000f10f5000d9003200160137006e009000a6
:102390000080e800104078000080fb00c800dd00ed
:1023a0006e00900063004000104078000080fb0049
:1023b00000804000100798006e009000640040000c
:1023c000104f78000001eb00010920001e00900072
:1023d000ed0707000080fb000000e00005003a0068
:1023e0006e49900021c0b30030c0b300070207005f
:1023f000000137001e80fb00120020009100200029
:10240000e10707000080fb000000e00005003a0043
:102410006e49900031c0b30030c0b300fb0107002b
:10242000f40037006e489000f5000700f100370017
:102430006e0090000080e800104078000080fb00f3
:10244000c800dd006e00900063004000104078007e
:102450000080fb0000804000100798006e00900094
:1024600064004000104f7800a241840001438400c2
:102470001e009000c40707000080fb000000e00081
:1024800005003a006e49900021c0b30040c0b3007f
:10249000de010700d70037001e80fb00120020007d
:1024a00071012000b80707000080fb000000e00079
:1024b00005003a006e49900031c0b30040c0b3003f
:1024c000d2010700cb0037006e4990009e40780093
:1024d0001e009000fa000700c60037006e00900052
:1024e0000080e800104078000080fb00c800dd009c
:1024f0006e00900063004000104078000080fb00f8
:1025000000804000100798006e00900064004000ba
:10251000104f7800a2418400014384001e00900007
:10252000990707000080fb000000e00005003a006a
:102530006e49900021c0b30000c1b300b301070091
:10254000ac0037001e80fb0012002000710120004b
:102550008d0707000080fb000000e00005003a0046
:102560006e49900031c0b30000c1b300a70107005d
:10257000a00037006e0090007c0040001100200099
:10258000025a200003002000940707006e0090000c
:102590007e00400021002000025a2000030020009d
:1025a0008e0707006e0090000002b0008000eb0074
:1025b000025a200003002000880707009e40780090
:1025c0001e00900036080700004178006e00900061
:1025d000650040009e00900087080700e0418400ed
:1025e000800078006e0090008080400050e02f0056
:1025f000808040007200200000fa2100c30a07001a
:10260000010d0700ce0c0700f90c07006e009000ca
:102610007003b0009040780064004700314098009b
:102620006e0090008003b000904078006400470086
:10263000214098006e0090009003b0009040780018
:1026400064004700114098006e009000a003b000a5
:10265000904078006400470001487800640047001b
:10266000104078008080fb0064004700104090001c
:102670000080fb004800dd00008040006101b800e0
:1026800064004700204090000080fb000100200013
:10269000c000dd00000020000201400083814800ee
:1026a00064004700304090000080fb0001002000e3
:1026b000c800dd00000020000200400083804800c8
:1026c000c0638800d163880081c7200042002000d9
:1026d00000ff21008d0a07006e4990009e4078009f
:1026e0001e009000b3000700420037006e489000c3
:1026f000e14f500005003a0012c0b30011c0b30012
:1027000010c1b300410107003a0037006e0090008d
:10271000d40007006e0090006f0040001040780069
:102720008040780000cdb30000c0400080407800b9
:1027300064004700014878002e003700e900470098
:102740000040eb0080487800e90047000040eb00c3
:1027500090409800901180004800de008040780092
:10276000690047000148780090118000804078009f
:102770006900470011409800a1002000c07a28009d
:10278000ef0d070011002000e0ce2000ec0d070047
:10279000a1002000707b2800e90d07001100200037
:1027a000f0ce2000e60d0700a1002000207c2800cc
:1027b000e30d07006900470021002000e00d07003d
:1027c000a1002000d07c2800dd0d0700f10f2000c3
:1027d000c0b02000da0d070006003700d500070062
:1027e000040037006e49900011c0b3000040eb00b8
:1027f00006010700100020000080fa00000006001b
:102800003800fa00607798000000eb00000f7800b5
:10281000a14184000e80e80012c0b3001508070033
:102820008e80e80030c0b300904098008e80e800b1
:1028300090c2b300a04098000e80e800e301400081
:10284000e2ccbf000080fb00f008b00002092000cd
:10285000110009000200d8008000fd00800078000f
:10286000a00220000088b900a202200083007800a6
:10287000550a07000e80e800c1c2b300680c0700cb
:10288000000f78001e007800804078000e80e8007d
:10289000416898001e0078004800de008040780003
:1028a0000e80e800516898008e80e800e2c2b30014
:1028b0006e709000f90007000080fa00000006002a
:1028c0004800fa002027980061c7980072c7980056
:1028d0000000eb00100798000000eb00000f7800ec
:1028e000a14184006400470012c0b300e107070063
:1028f000e400470040c0b30090409800eec0900054
:102900002e20900066070700804078006400470092
:102910002140980064004700204090000080fb00a8
:1029200063004000100798006400470020419000b9
:102930006400470063004000ae209000cd07070010
:102940001e0090008040780064004700340c0700af
:10295000000f78001e0190001e0078008040780073
:102960006400470000004100014878001e0090000c
:102970000001e8001e0078004800de00804078007a
:102980006400470000004100014878001e009000ec
:102990000080e800100798001e00900000417800b9
:1029a000e40047007ec09000bc0007000080fa00f1
:1029b000000006000e00fa0050079800414f9800f2
:1029c000524f98000000eb00000f7800a1418400f6
:1029d0000e80e80012c0b300a60707008e80e80052
:1029e00000c1b300904098005e0090004800de00f7
:1029f000804078000e80e800214098005e00900042
:102a0000804078000e80e800314098000e80e80099
:102a1000ce489000414098000e80e80051c0b300bd
:102a2000ff0b0700000f78001e0078008040780040
:102a30000e80e800514098001e0078004800de003b
:102a4000804078000e80e800614098008e80e800a9
:102a500072c0b3005e489000900007000080fa004a
:102a6000000006009a00fa00408f98000000eb007a
:102a7000000f7800c462a8004e8890000080e80033
:102a800001092000770d070010c0b300cb06070036
:102a90000e80e8008080e80064c0b30083752800e1
:102aa00062c8b300406022009e0807000004e000f6
:102ab000190032000e80e80012c0b300012020008f
:102ac0006c0707008e80e80010c1b30090409800aa
:102ad0000e80e80081c8b300d10b0700000f78001a
:102ae0001e007800804078000e80e80001489900c0
:102af0001e0078004800de00804078000e80e8006c
:102b0000114899008e80e800a2c8b3000040eb0095
:102b100062000700040037000041eb0041c0b30031
:102b200010c1b30039000700c462a9000080fa0098
:102b3000000006000e00fa0063004700817d2800b7
:102b40000900090031587800a000b1000040eb00f6
:102b5000204798000000eb00000f7800630047005a
:102b600012c0b3000120200042070700e300470025
:102b700030c4b300904098000040eb00204798001c
:102b80000c0037002e4090000080fb000081e80020
:102b90002e4090008080fb00e0822800e140780019
:102ba00063004700017178002e4090000040e8006b
:102bb000204798002e409000e44f5000f1ff36006f
:102bc0006300470071c0b300950b0700000f780049
:102bd0001e00780080407800630047007140980034
:102be0001e0078004800de00804078006300470047
:102bf00001489800e300470092c0b3000040eb009a
:102c0000260007000080fa00000006000c00fa0011
:102c1000004f9800114f9800224f98000e80e80056
:102c200012c0b30001202000120707008e48900058
:102c300000c8b30000c04000804078000e80e8006b
:102c4000114098000e80e8009e48900021409800b6
:102c50000e80e80031c0b300710b0700000f780050
:102c60001e007800804078000e80e8003140980017
:102c70001e0078004800de00804078000e80e800ea
:102c8000414098008e80e80052c0b3002e4890006a
:102c9000020007000080fa00000006000600fa00ab
:102ca000004f780011079800424798001e04e0008a
:102cb000050032004e4090008080fb001e00900016
:102cc000e80c0700040037004e4090008080fb00b5
:102cd0001e0090009a0c07000080fa000000060019
:102ce0005a00fa0000df98000040eb0060479800af
:102cf0000000eb002007980010002000100798004b
:102d000000c8bf00004f78000ed89000e54f50007b
:102d100005003a00d2c3b3004180200010c0b300c8
:102d2000deff07006f0037001e009000f80f500014
:102d300003003600800120001007980002003700d1
:102d40000040eb00004f7800e800470010c4b300db
:102d500080487800e800470020c3b3009040980006
:102d6000b1418400680047000080e80082c0b300e1
:102d7000c00607009e009000e00220000088b90015
:102d80006f004000200798002e0090004800de00f1
:102d90008040780068004700214898002e0090008d
:102da000804078006800470031489800680047007c
:102db0008ed89000414898001e0090008040780016
:102dc000680047005148980068004700e100200073
:102dd0005a0b070060479800e8004700e2c0b300c4
:102de00010c0b300adff07000040eb007047980033
:102df000370037007e4090008080fb001e80fb0083
:102e00000080400082012000110009000200d8006b
:102e10008000fd008040780076004700dc06070057
:102e2000760047006c004000910220008e80400038
:102e3000ce090700900220000e0040006400400010
:102e4000f600470065fc0700900220000e004000dd
:102e5000e1022000390b0700804078006e409000ae
:102e600001404000604798001e0090008000e9008b
:102e70007e4090000080fb00808f50000a003a00e6
:102e8000900220000e004000ee4090006168980023
:102e9000910220008e804000f2c2b30010c0b30047
:102ea0007eff070007003700910220008e8040005f
:102eb000e2c2b30010c0b30078ff070050c0b300f7
:102ec000be0507007e4090000040e8007047980073
:102ed0007e4090008080fb001e009000808f50009c
:102ee000c4ff39000080fa00000006000800fa0064
:102ef000100798001e0090006e004000904078007f
:102f0000114798001e0090006d00400010407800ae
:102f1000004f78001e4090000080fb000001eb0095
:102f200061002000180507000080fb000000e000a1
:102f300003003a000000eb003007980071003700f2
:102f40001e00fb0032002000d10120000e0507000a
:102f50000080fb000000e00003003a008000eb006e
:102f600031079800670037001e0090006c00400099
:102f7000104078000004e00060003a005a0037007a
:102f80001e4090000080fb00200798002e0090005b
:102f9000e10f500019003200ae009000e28f5000a7
:102fa000280032002e0090000000e00001003200f6
:102fb0004b0037001e0090006f00400031002000e1
:102fc000025a20000300200004050700414284004b
:102fd0001e0090006f00400022c0b30006060700ec
:102fe0009e40780063cf50001e00900071004000aa
:102ff00090407800114798003b0037001e00900079
:1030000072004000c1032000025a2000030020008b
:10301000f2040700514284001e009000720040003c
:1030200022c0b300f40507001e407800634f500033
:103030001e009000740040009040780011479800f6
:10304000290037001e0090007600400010407800f4
:103050008080fb001e00900075004000104078004a
:103060000080fb004800dd00008040000000e00020
:1030700007003a001e009000750040008000eb0041
:10308000025a200003002000d40407000800370083
:103090001e009000f50040000040eb0080487800e2
:1030a0001e009000f60040000040eb0080487800d1
:1030b000614284001e0090007500400022c0b300f1
:1030c000cd0507001e407800634f50001e009000a1
:1030d00077004000904078001147980002003700c8
:1030e0000040eb00004f78001e04e000a4ff3c000d
:1030f0001000200030079800020037008000eb002d
:10310000310798003e0090000080fa0000000600a1
:103110004400fa000040eb00004f78000e00e80089
:10312000217e280040000900315878001004b100c9
:103130000040eb0020c79800a1418400200420003b
:103140000e00400012c0b300ca0507002004200092
:103150000e0040008e00e80014c0b300800178002b
:10316000d2c3b30040602200ee060700004f780093
:103170001e04e0000c0032001e40780000c0e90090
:10318000004178008e00e80000d12200890a070083
:103190000080fb000000e000030032000e00e800a9
:1031a0008040eb0054fc0700000000000080fa00a3
:1031b00000000600809fbe00829fbe003400f80021
:1031c00000002000a00188000000fa00e0658000f7
:1031d000f165800061004000e0804800e065880003
:1031e000f1658800c0658000d16580006100400005
:1031f000e0804800c0658800d1658800c265800015
:10320000d36580004000200001002000800f5100a5
:10321000818f5900040036006000b800c065880046
:10322000d16588008760a800e2658000f3658000b2
:103230004000200001002000800f5100818f5900c4
:10324000040036006000b800e0658800f165880081
:10325000b60ca800b0658000610060000000e000ce
:1032600004003a00b0658000620060000000e000e9
:1032700002003200b64ca80001003700b64ca9008d
:103280008bc0a9000080fa003400f9004f01be0095
:103290004f00be000040060000a0fe003400f80011
:1032a000881f780008002000a80188004f047800db
:1032b0000000fa00206780000000e8002067880016
:1032c0008500a9000080fa003400f9000080fe00ab
:1032d0000040060000a0fe003600f800849fbe00fb
:1032e000869fbe003400f80004002000a40188007e
:1032f0000000fa0022c2bf00704060000004e0003d
:10330000fcff320082ff070011e1a9000000eb0082
:1033100030088800b68ca90084e0a9000080fa007b
:103320003400f9004f03be004f02be003600f90022
:103330000080fe000040060000a0fe003400f800ff
:10334000881f780008002000a80188004f0478003a
:103350000000fa00306780000000e8003067880055
:103360008460a9000080fa003400f9000080fe00ab
:103370000040060000a0fe003600f800849fbe005a
:10338000869fbe003400f80004002000a4018800dd
:103390000000fa00b065800001102000010060000c
:1033a0000000e00003003200b70ca90030fa07006b
:1033b000010037009cf9070081c7200042c0b3001c
:1033c00000ff2100510707008760a9000080fa0074
:1033d0003400f9004f03be004f02be003600f90072
:1033e0000080fe0000400600809fbe00829fbe005d
:1033f000841f7800869fbe00889fbe003400f800be
:1034000000002000a00188000000fa00cbc2bf002d
:10341000624060000004e0005e00320000088000ae
:103420006101b800a0638000b16380000200400029
:1034300083804800a0638800b16388000000eb002f
:103440000008880005e1a80001088000203323005f
:10345000808f5000fcff3600cbc2bf00624060008e
:103460000004e0004b003200c0638000d1638000a4
:1034700061004000e0804800c0638800d16388009c
:10348000b06580004500de0061406000c700dd00df
:1034900005c1bf000074a1000140700005e1b70044
:1034a000b165800000042000008060000000e000a2
:1034b0002600320031678000803e20000088b9007d
:1034c0006104b800000880006101b800a0638000ba
:1034d000b1638000020340008383480086007800c7
:1034e000803e20000009b8006030b9000302780077
:1034f00000024200803e200000b8b90000024200f5
:1035000084017800411add004f10de0000007200d7
:10351000cf18de00080040008980480080638800e2
:10352000916388008263800093638000f07c2000b8
:1035300001002000800f5100818f590003003e00e0
:103540006000b80080638800916388000000eb0091
:10355000000888006000b800a0638800b16388009c
:103560000000eb0030678800b06580004500de0099
:10357000614060000080fb00610060004601dd00ea
:10358000b1658000f0fb2f00008060000200700039
:10359000b06588008660a9000080fa003400f90058
:1035a0004f04be004f03be004f0278004f01be0023
:1035b0004f00be00004006003600f800809fbe00ad
:1035c000829fbe00849fbe00869fbe003400f8002c
:1035d00000002000a00188000200fa000040eb007b
:1035e000004f78000040eb00004f780006003700e5
:1035f00022c2bf00614060000004e0000100320010
:10360000410507001e4fe80030c0b3009e4f100078
:10361000f7ff3600b68ca80011e1a8008560a9006c
:103620000080fa003400f9004f03be004f02be00d4
:103630004f01be004f00be003600f90000400600fa
:103640003600f800809fbe00829fbe00849fbe00af
:10365000869fbe003400f80000002000a001880012
:103660000200fa000040eb00004f78000040eb0041
:10367000004f78000600370032c2bf006140600092
:103680000004e000010032003e0507001e4fe80084
:1036900030c0b3009e4f1000f7ff360087c0a9006e
:1036a0000080fa003400f9004f03be004f02be0054
:1036b0004f01be004f00be003600f900004006007a
:1036c000809fbe000200fa000040eb00004f78002f
:1036d0000b003700416780001e80fb000080400027
:1036e000104078000080fb00a011880033c2bf00aa
:1036f000614060000004e000fcff32001e4fe80063
:10370000eaccbf009e4f50000400360033c2bf0019
:10371000624060000004e000eeff320087e0a90094
:103720000080fa004f00be0000400600801f7800b5
:103730000000fa0022c2bf00624060000004e00006
:10374000010032002222a9008c20a9000080fa008a
:103750004f00780000400600801f78000000fa004b
:1037600032c2bf00624060000004e000010032008d
:103770003222a9008c40a9000080fa004f00780096
:10378000004006003600f800809fbe00829fbe0009
:10379000849fbe00869fbe000800fa00208b280090
:1037a00006000900305f78007e00b10081c720006c
:1037b00042c0b30000ff2100540607000e0078004d
:1037c0001e0807000174200022c0b30000f0210091
:1037d0004e0607004108200022c0b30020f021005f
:1037e0004a0607006108200022c0b30040f0210013
:1037f000460607008108200022c0b30060f02100c7
:1038000042060700a108200022c0b30080f021007a
:103810003e060700c108200022c0b300a0f021002e
:103820003a060700e108200022c0b300c0f02100e2
:1038300036060700410a200022c0b300e0f0210054
:1038400032060700610a200022c0b30000f1210007
:103850002e060700810a200022c0b30020f12100bb
:103860002a060700a10a200022c0b30040f121006f
:1038700026060700c10a200022c0b30060f1210023
:1038800022060700e10a200022c0b30080f12100d7
:103890001e060700010b200022c0b300a0f121008a
:1038a0001a060700210b200022c0b300c0f121003e
:1038b00016060700410b200022c0b300e0f12100f2
:1038c00012060700610b200022c0b30000f22100a5
:1038d0000e060700c10b200022c0b30020f2210019
:1038e0000a060700210c200022c0b30040f221008c
:1038f00006060700410c200022c0b30060f2210040
:10390000020607004109200022c0b30080f2210016
:10391000fe0507006109200022c0b300a0f22100cb
:10392000fa0507008109200022c0b300c0f221007f
:10393000f6050700a109200022c0b300e0f2210033
:10394000f2050700c109200022c0b30000f32100e6
:10395000ee050700e109200022c0b30020f321009a
:10396000ea05070080c0bf00644060000004e0007a
:10397000010032008040a90080c0bf0068406000a4
:103980000004e000010032008060a90080c0bf0098
:10399000704060000004e000010032008080a90057
:1039a0000000fe000080fa004f03be004f02be0080
:1039b0004f01be004f00be003600f9000040060077
:1039c0003600f800809fbe00829fbe00849fbe002c
:1039d000869fbe000800fa00908b280006000900b0
:1039e000305f78007e00b10081c7200042c0b30084
:1039f00000ff2100c50507000e0078008f070700b3
:103a000072c0b3008e00780000fa2100bf050700e5
:103a10008680a9000080fa004f03be004f02be005e
:103a20004f01be004f00be003600f9000040060006
:103a30000200fa00c062a900c462a900e064a90003
:103a4000c9a2a800e3a4a900cbc2bf000080fb006c
:103a50004500de0061406000004f78000080fa0001
:103a6000000006000600fa001007980021079800e1
:103a70000040eb00004f78001e0090000080e8003e
:103a800090407800d0c2b30080cf500079003a0057
:103a90001e0090006500400090407800d0c2b30046
:103aa00080cf500073003a001e0090001040780054
:103ab0008080fb0000fd2f00008040004400dd00fe
:103ac000804078001e0090000000e8001040780060
:103ad00080c0400000cdb30000c0400080407800ae
:103ae0002e009000014878002e0090000001e800b0
:103af0001e00900063004000104078008080fb00b2
:103b000000fd2f00008040004400dd008040780070
:103b10001e009000640040001040780080c040000b
:103b200000cdb30000c04000004978002e00900096
:103b30000081e8001e009000660040001040780000
:103b40008080fb0000fd2f00008040004400dd006d
:103b5000804078001e009000670040001040780010
:103b600080c0400000cdb30000c040000049780094
:103b70001e0090006b00400090407800a0c3b3008e
:103b800080cf50003b003a001e0090006e004000c5
:103b900090407800a0c3b30080cf500035003a00b9
:103ba0002e009000630140001e009000690040005c
:103bb000104078008080fb0000fd2f000080400056
:103bc0004400dd00804078001e0090006a00400044
:103bd0001040780080c0400000cdb30000c040001d
:103be000004978002e009000640140001e00900003
:103bf0006c004000104078008080fb0000fd2f002a
:103c0000008040004400dd00804078001e009000ed
:103c10006d0040001040780080c0400000cdb3002f
:103c200000c04000004978002e009000650140006f
:103c30001e0090006f004000104078008080fb0064
:103c400000fd2f00008040004400dd00804078002f
:103c50001e009000700040001040780080c04000be
:103c600000cdb30000c040000049780010c0b30090
:103c7000004f78001e80fb000080fa000000060064
:103c80000a00fa000040eb00004f78000e00e80048
:103c90004176280004000900315878005000b10036
:103ca000c462a900300020005e020700c462a800c0
:103cb000200020005b0207000040eb00004f98004e
:103cc00081c0b3009ecf10000200360010c0b300c8
:103cd000004f98001e4fe8008e4890000104e0005d
:103ce00004003200c462a9000000eb003007980015
:103cf0000a0037008e00e80054c0b300e3722800c9
:103d000022c0b30060642200060407000004e00043
:103d1000e3ff320011002000310798003e009000c0
:103d20000080fa00000006000600fa001007980064
:103d3000414798000040eb00004f78000500370035
:103d4000ce4090001e009000c60807001000200022
:103d5000340207000040eb005047980020c0b30039
:103d60009e4f100002003e0010c0b3005047980064
:103d70001e4fe8005e4090000004e000f0ff3a00b3
:103d80000080fa00000006000400fa00000f78002e
:103d9000da0507000e0037000060fe00cbc2bf004e
:103da0000042b2000004e0000900320010002000d0
:103db00002020700cbc2bf000042b2000004e000d4
:103dc00003003200100020001007980006003700a2
:103dd000206780009e0f5000efff3900ce050700de
:103de0000000eb00100798001e0090000080fa0011
:103df000000006004200fa00881f7800407f98000b
:103e000063004700117728002f000900315878001f
:103e10000003b1000040eb00204798000040eb0099
:103e2000104798000040eb00004f7800300320005e
:103e30000e004000917628000700090031587800f4
:103e40008000b100b1418400300320000e0040002a
:103e500082c0b3008702070010c0b300d5ecb700e2
:103e600080003700c462a80085ff07000080fb00c7
:103e70000000e00005003a0000c8b300d5ecb70030
:103e80000000eb000027980088003700c1c0b30095
:103e900030732800a4ff070050398400baff0700e0
:103ea0000080fb000000e0006800320020002000dd
:103eb000dc0107004e789000e54f500006003a0004
:103ec000b70ca8008760a80087c0bf0068406000ea
:103ed0000004e000fcff32000040eb0010479800b7
:103ee0004d0037004e7890000080fb007cfb0700ff
:103ef00060002000cb0107000040eb00004f78007d
:103f00000600370032c2bf00614060000004e000dc
:103f1000010032001b0307001e4fe80031c0b30050
:103f20009ecf1000f7ff3600e300470024c0b30027
:103f3000e3752800c2c2b300606422007903070061
:103f40000004e0003400320063004700306c900051
:103f500063004700b1022000f8060700804f5400bc
:103f60002b003a00630047000080e8003103200086
:103f70008e80400082c0b300310707000080fb0044
:103f80000000e0001f00320063004700d7fb07007d
:103f90000040eb00d5ecb700d1c0b300f0732800af
:103fa00061ff0700c462a900c0658000d165800080
:103fb000e0658800f16588004e7890000004e0001c
:103fc00001003a008b020700630047005050900048
:103fd0000080fb00c800dd006300470060509000d7
:103fe0000080fb00008040000000e0000200320082
:103ff0000040eb00f0ecb700100020000027980014
:104000002a00370030c8b300d5ecb70002003700f3
:1040100020c8b300d5ecb7008040eb00617f98006a
:104020001e409000e24f500002003e0010c0b3005e
:10403000607f98001e4090000040e8001047980004
:10404000ee7890000104e000a6ff3a0050c8b300eb
:10405000d5ecb700d1c0b300f073280032ff0700e1
:10406000c462a9000040eb00507f98002e409000f1
:10407000e24f500002003e0011c0b300517f980093
:104080002e4090000040e800204798005e789000a5
:104090000004e00073ff3a0040c8b300d5ecb7005d
:1040a000c462a9008000eb00012798000e20900058
:1040b0004f0478000080fa00000006001200fa00a9
:1040c000600798000e00e800117a28000900090036
:1040d00031587800a000b1000040eb00004f78009c
:1040e00001003700c462a900cbc2bf000042b20089
:1040f0000004e000fbff3a00e1fe07000080fb0047
:104100000000e00005003a0000cbb300d5ecb7009a
:104110000000eb00000f98002000370001c9b30039
:104120006e009000cf0707008040eb00614f9800c1
:1041300030c0b3009e4f10000200360011c0b30023
:10414000614f98001e4fe8006e4890000004e000a8
:104150000300320020cbb300d5ecb7000a003700d3
:10416000100020002f0107008e00e80064c0b3009b
:104170008375280052c0b30060642200e902070082
:104180000004e000e5ff32000040eb00d5ecb70092
:10419000c462a90011002000010f98000e089000d1
:1041a0000080fa00000006000800fa0020079800ce
:1041b000310798002e009000000f78000040eb00bf
:1041c000204798000e0037002e4090000080fb0032
:1041d000800078003e009000808040002e409000db
:1041e0000080fb001e0010006300400010407800bb
:1041f000804878002e4090000040e800204798005a
:104200002e409000e34f5000efff36000080fa0090
:10421000000006000800fa00200798003107980007
:104220002e009000000f78000040eb00204798001f
:104230000f0037002e4090000080fb0080007800c7
:104240001e007800008140002e4090008080fb001e
:104250003e009000010050006300400010407800d4
:10426000004978002e4090000040e8002047980068
:104270002e409000e34f5000eeff36000080fa0021
:10428000000006000800fa00200798003107980097
:104290002e009000000f78000040eb0020479800af
:1042a0000e0037002e4090000080fb008000780058
:1042b0003e009000808040002e4090000080fb0077
:1042c0001e00100067004000104078008048780011
:1042d0002e4090000040e800204798002e409000bb
:1042e000e74f5000efff36000080fa0000000600a4
:1042f0000200fa00004f78001e80fb004400de0040
:104300000080fb006f0060006a00b9008040780008
:104310001e4078006f40600000c040000080fb003d
:104320000080fa00000006000200fa00004f78004a
:104330001e80fb00a2002000110009000280d800ae
:104340000080fb004400dd008040780000cfb30017
:1043500080c060001e80fb00a2002000811f78004a
:10436000110009000280d8000001780001007800e7
:10437000cf0078006f40600000c070000080fb003c
:104380000080fa00000006000800fa00000f780024
:1043900011079800220798001e0090009e0f100041
:1043a000030036000000eb003007980008003700db
:1043b0002e0090009e0f1000030031000000eb0063
:1043c00030079800020037001000200030079800e6
:1043d0003e0090000080fa00000006000a00fa008b
:1043e00010079800220798003307980041079800ab
:1043f0001e009000104078000080fb00c800dd0027
:104400001e0090000000e800104078000080fb00d3
:1044100000804000000f78001e0078006101b800a5
:104420002e009000be009000800f5100818f590037
:104430000e0036002e009000be0090004809dd00fe
:104440004800de0000007100c808de0080407800ef
:104450001e009000014878001e0090008000e800d7
:104460002e009000804878000c0037004e0090002d
:104470009e0f1000090031004e0090004800de0041
:10448000804078001e009000014878001e009000d7
:104490008000e8004e009000804878000080fa001c
:1044a000000006000600fa00100798004147980037
:1044b0000040eb00004f78001f0037001e80fb001b
:1044c000800078001e00900000804000904078003e
:1044d000114798001e80fb00800078001e009000ad
:1044e000008140004e4090008080fb001e80fb0059
:1044f00000805000800078001e0090000080400086
:104500000000e90010407800004978004e4090001b
:104510008080fb001e80fb0000805000800078003f
:104520001e009000008040000000e9009e409000c6
:10453000014878001e4fe8004e4090000080fb00cc
:104540000000d1009e4f5000dcff3e000080fa00ca
:10455000000006000400fa00204798000800370019
:104560000000eb00000f78000200370000000000a0
:104570001e0fe800b0a221009e0f1000fbff3600c6
:104580000040eb00304798002e4090000004e0000f
:104590000200340010c0b300304798002e40900055
:1045a0000040e900204798003e4090000004e000f1
:1045b000ebff3a000080fa00000006000400fa0059
:1045c00020479800080037000000eb00000f78003b
:1045d00002003700000000001e0fe800b0fd2f00b1
:1045e0009e0f1000fbff36000040eb0030479800a4
:1045f0002e4090000004e0000200340010c0b30020
:10460000304798002e4090000040e9002047980075
:104610003e4090000004e000ebff3a000080fa000a
:10462000000006000600fa00404798000d00370021
:104630006000b800008fbe000500370000000000d9
:1046400010002000010020001e0f40005e9748006f
:10465000701c290051002000be0f1000ae8f180002
:10466000f6ff36008040eb00514798004e40900026
:104670000004e0000200340010c0b300504798006e
:104680004e4090000040e90040479800de40900016
:104690000104e000e6ff3a000080fa000000060096
:1046a0000800fa0020079800614798000040eb00de
:1046b000204798000040eb00104798000040eb00b6
:1046c000004f7800114384002e009000808f50002e
:1046d00004003e00a14184002e009000808f500015
:1046e00024003e000040eb00004f78000900370036
:1046f0001e80fb00800040004083280000804000b6
:10470000900078002e009000808f5000040032004e
:104710001e4fe80060c1b3009e4f1000f4ff36004a
:104720001e407800204798002e4090008080fb00bb
:104730006e4090000080fb00008040008000400040
:10474000408328000080400010007800004178007d
:104750002e4090000080fb00800040004083280035
:104760000080400010007800004051001047980081
:104770001d0037000040eb00004f780008003700b4
:104780009e80fb0040862800614078008080fb000e
:104790002e009000808f5000040032001e4fe80071
:1047a00080c0b3009e4f1000f5ff36001e40780019
:1047b000204798002e4090008080fb006e409000c3
:1047c0000080fb0080804000408628006141780026
:1047d0002e4090008080fb004086280061407800d9
:1047e00000405100104798001e4090000080fb00e0
:1047f0000080fa00000006000a00fa002007980076
:1048000031079800024f98000040eb0020479800c5
:10481000a14184003e009000010f50000f003700be
:104820002e4090000080fb001e0140002e409000b2
:104830000080fb00800078002e0090000080400087
:104840009040780000c82000000041000148780036
:104850002e4090000040e80020479800ae409000b5
:104860000e48900080cf5000edff39000080fa0024
:10487000000006000a00fa0020079800310798009f
:10488000024f98000040eb0020479800a1418400af
:104890003e009000010f50000040eb0020479800c0
:1048a0000f0037002e4090000080fb008000780051
:1048b0002e009000008140002e4090000080fb0000
:1048c0009e00400000c8200000804000104078009a
:1048d000004978002e4090000040e80020479800f2
:1048e000ae4090000e48900080cf5000edff3900a0
:1048f0000080fa00000006000400fa00100798008b
:104900000040eb00004f78000e00370000c8bf00e9
:104910000081fb009e81fb001e80fb008000780070
:104920001e00900000804000104278007310b90013
:10493000830040001084200000804000044878007c
:104940001e4fe80020c1b3009e4f1000efff36005d
:1049500000c8bf000040e80000e8b7001040800039
:104960000000e8001040880000c8bf000080fb0085
:1049700082012000110009000280d8008000fd00a3
:1049800000e8b700100020000080fa0000000600d8
:104990000600fa0010079800414798000040eb001d
:1049a000004f78000e0037001e80fb00800078006a
:1049b0001e009000808140004e4090000080fb006f
:1049c0001e81fb007300b9008200400010842000ab
:1049d0000080400010407800804978001e4fe800b9
:1049e00020c1b3009e4f1000efff36000080fa0098
:1049f000000006000200fa000040eb00004f7800c3
:104a0000130037000040eb00104798000c003700ff
:104a10009e80fb001e4090000081fb007308b900df
:104a20008200400010842000808040000040eb00a5
:104a3000804878001e4090000040e8001047980031
:104a40001e409000f24f5000f1ff36001e4fe8006c
:104a500070c1b3009e4f1000eaff36000000eb006b
:104a6000104088000040eb0000e8b7000080fa002a
:104a7000000006000600fa00e08628000500090094
:104a8000305f78006e00b100df030700ac03070061
:104a9000d70307000143840042c0b3000e00780032
:104aa00074ff07003e4090008080fb002e40900085
:104ab0000080fb004800dd00008040006101b8007c
:104ac0001e4090000080fb0001002000c000dd00bf
:104ad0000000200002014000838148001e40780051
:104ae0000080fb0001002000c800dd000000200065
:104af0000200400083804800c0638800d1638800c2
:104b00000080fa00000006000200fa000acabf0096
:104b10008080fb000bcabf000080fb000000e900a2
:104b2000808f500003003a00b0118000004f7800e1
:104b3000120037000acabf000081fb00301180005c
:104b400080407800c0a020000000410001487800ab
:104b50000acabf000040e8000aeab7000acabf005c
:104b6000804078000acabf000080fb004880de0059
:104b70004800dd0000c050000aeab7000080fa00db
:104b8000000006000200fa000040eb00004f780031
:104b9000eeccbf008080fb00efccbf000080fb00ac
:104ba0000000e900808f500003003a00b01180003f
:104bb000004f780012003700eeccbf000081fb00f0
:104bc000b011800080407800c0b02000000041009b
:104bd00001487800eeccbf000040e800eeecb700e2
:104be000eeccbf0080407800eeccbf000080fb0020
:104bf0004880de004800dd0000c05000eeecb70049
:104c00000080fa00000006000400fa00000f78009f
:104c1000b1a02000914078000acabf0080cf5000a8
:104c200003003a000000eb00100798001400370062
:104c30000bcabf008080fb00c0a0200000804000a5
:104c4000904078001e007800014878000bcabf0031
:104c50000040e8000beab7000bcabf0080407800b4
:104c60000bcabf000080fb004880de004800dd006a
:104c700000c050000beab700100020001007980099
:104c80001e0090000080fa00000006000400fa00f8
:104c9000000f7800f1ce200091407800eeccbf00ec
:104ca00080cf500008003a0032c2bf00624060006e
:104cb0000004e000010032003222a9000000eb00f5
:104cc0001007980014003700efccbf008080fb0075
:104cd000c0b0200000804000904078001e007800a6
:104ce00001487800efccbf000040e800efecb700cf
:104cf000efccbf0080407800efccbf000080fb000d
:104d00004880de004800dd0000c05000efecb70036
:104d100010002000100798001e0090000080fa008c
:104d2000000006001201fa003007990041079900bf
:104d3000224f9a0063079900644f9a000040eb00ed
:104d4000404798000000eb00100798000000eb00bf
:104d5000000f78000000eb001007980007003700f4
:104d60001e019000e50047000040eb0000f17800d4
:104d70001e0090000000e800100798009e009000c0
:104d8000f00f2000808f5000f5ff36000000eb0090
:104d900010079800040037009e009000f00f2000dc
:104da000808f50000c003e001e009000e500470080
:104db000808040001e0090000000e800100798006e
:104dc0003e01910001007800020001000080fb001c
:104dd0000000e000f0ff3a001e009000000fe90024
:104de0000040eb00404798004d0037004e409000d7
:104df0000080fb0080007800650047000100400053
:104e0000904078006e0091001040780080cf5000f4
:104e100040003a000000eb0010079800380037000f
:104e20004e4090000080fb00800078006500470045
:104e3000010040009e0090000100400010417800f9
:104e40009e0090006e0091000080400010407800ad
:104e5000804f51002f003a006e4892000080fb0006
:104e60000000e900800078001e009000808f500054
:104e700020003a002e4892000080fb009e0f500058
:104e800003003e002e4892000080fb00000f7800d7
:104e90000000eb00100798000f0037009e00900004
:104ea0004e009100008140004e4090000080fb00c9
:104eb0008000780065004700010040009e009000df
:104ec0000100400010407800004978001e0090006a
:104ed0000000e800100798001e0090009e0f500090
:104ee000eeff39001e0078000080fb00000f9900e3
:104ef000110037001e0090000000e8001007980025
:104f00006e4892008080fb001e009000808f500051
:104f1000c3ff3e004e4090000040e800404798002c
:104f20004e4090000080fb009e0f5000afff390004
:104f30000000eb00000f99000e0891000080fa00bd
:104f4000000006000a00fa00e08c280009000900b1
:104f5000305f7800ae00b100c8c2a900c0e2a8006e
:104f6000c8a2a900c982a900e3c4a9005780a8006b
:104f7000cd82a800cca2a900ccc2a900de00070007
:104f8000cbc2bf000044b2000004e000fcff3200ce
:104f900012c0b30021ce2000f0ff21008a000700dc
:104fa00042c0b3008e00780000ff21008600070099
:104fb000410020000e0078003afd07000143840004
:104fc00042c0b3000e0078000bfe070072c0b300b1
:104fd0008e00780000fa21007b0007009e407800d8
:104fe00000c2b30080cf500004003a00e1418400c9
:104ff00072c0b3000e007800fffd07000080fa00c9
:10500000000006000400fa002047980070c0b300ba
:10501000004f7800160037002e4090008080fb0083
:105020001e00fb000088de006140600061406000ff
:1050300061406000614060004601dd00c12c20003d
:1050400091407800f0cbb30000c0600002407000d7
:10505000cce2b700100020009d010700cca2a80000
:10506000100020009a010700cca2a9001e4fe90001
:105070001e04e000e8ff3d00ccc2a9000080fa0059
:10508000000006000400fa00100798000040eb0042
:10509000004f78009e0090000040eb0080487800b0
:1050a00070c0b300004f78001400370010002000db
:1050b00087010700cca2a8001e00900010407800d5
:1050c00000417800c2c2bf000080fb004700de0044
:1050d0008080fb001e00fb000008dd000040710026
:1050e000804078001e0090000148780010002000e9
:1050f00077010700cca2a9001e4fe9001e04e000c2
:10510000eaff3d000080fa00000006000a00fa00f5
:105110002007980031079800024f98000040eb00ec
:10512000204798002e009000104798002e00900015
:105130004800de00004f780062000700cd82a90021
:10514000100020006201070020c0b300adff07007f
:10515000100020005e0107001e407800a9ff070034
:10516000100020005a0107001e409000a5ff070014
:1051700010002000560107000c0037002e40900060
:105180000080fb00800078003e009000008040001e
:10519000104078009bff0700100020004c01070022
:1051a0002e4090000040e80020479800ae4090005c
:1051b0000e48900080cf5000f0ff3900cd82a8004b
:1051c0000080fa00000006000a00fa00200798009c
:1051d00031079800024f98000040eb0020479800ec
:1051e0002e009000104798002e0090004800de002e
:1051f000004f780033000700cd82a9001000200086
:105200003301070030c0b3007eff0700100020000c
:105210002f0107001e4078007aff070010002000d1
:105220002b0107001e40900076ff070010002000b1
:10523000270107000b0037002e4090000080fb0084
:10524000800078003e009000008040008dff070045
:10525000100020001e0107002e4090000040e800d2
:1052600020479800ae4090000e48900080cf50003c
:10527000f1ff3900cd82a8000080fa00000006008e
:105280000000fa0012c0b30021ce2000f0ff210080
:105290009eff0700e2ccbf000040e800e2ecb70050
:1052a000e2ccbf000080fb000209200011000900d1
:1052b0000280d8008000fd00e2ecb7000080fa0018
:1052c000000006000000fa00cd82a90010002000b6
:1052d000ff00070060c0b3004aff07001000200075
:1052e000fb000700cd82a80010002000f800070096
:1052f0000080fa00000006000000fa00cd82a9003c
:1053000010002000f200070010c0b3003dff0700ae
:1053100010002000ee0007000040eb0039ff0700fe
:1053200010002000ea000700cd82a8001000200035
:10533000e70007000080fa00000006000000fa0005
:1053400005e1a80005a1a9004110200091407800c6
:10535000f0ccb30000c0600004e1b7000421a80055
:105360005110200091407800c0cfb30000c0600011
:1053700005e1b70004c1a90000002800100888005a
:10538000510a200091407800f0c8b30000c06000ce
:1053900001c6b30001407000a5e0b7008460a90019
:1053a0009460a8000000eb000008880005e1a90057
:1053b0000080fa00000006000000fa0011e1a800d9
:1053c00011a1a9000111200091407800f0ccb30098
:1053d00000c0600001c2b3000140700010e1b700de
:1053e0001021a90010c1a9001061a900a086210008
:1053f00060088800710a200091407800f0c8b3006e
:1054000000c0600001c2b30001407000a7e0b70017
:1054100084e0a90094e0a8000000eb0030088800b8
:1054200011e1a9000080fa00000006000000fa0067
:1054300013e1a80013a1a8002111200091407800d9
:10544000f0ccb30000c0600012e1b7001221a90047
:1054500012c1a90000c4290070088800810a200038
:105460009140780080cfb30000c060000004a0002d
:10547000a8e0b7008500a9009500a8000000eb0097
:105480005008880013e1a9000080fa00000006001f
:105490000000fa001fe1a8001fa1a800e1112000f0
:1054a00091407800f0ccb30000c060001ee1b7006e
:1054b0001e21a9001ec1a9001e61a900d00720005d
:1054c000d0088800110b200091407800f0c8b3008c
:1054d00000c0600001c3b30001407000b1e0b7003c
:1054e0008760a9009760a8000000eb00a008880072
:1054f0001fe1a9000080fa00000006000000fa0089
:105500000000eb00206788009500a80013e1a800c8
:105510000080fa00000006000000fa009500a900d3
:1055200013e1a9000000eb00206788000000eb00f9
:10553000500888000080fa00000006000400fa000d
:10554000000f7800206780008000eb0011079800b2
:105550009e0f500002003600100020001007980037
:105560001e0090000080fa00000006001e00fa00f5
:10557000500f9800610f98005e0890000000e8004e
:10558000104078000080fb0059fb07004106200016
:105590008080400068004700510098005e0890003d
:1055a0000080e800104078000080fb0050fb0700fe
:1055b0008000e90068004700410098005e08900004
:1055c00063004000104078000080fb0048fb0700ab
:1055d0008000780068004700310098005e08900065
:1055e00064004000104078000080fb0040fb070092
:1055f0008000780068004700210098005e08900055
:1056000065004000104078000080fb0038fb070078
:105610008000780068004700110098005e08900044
:1056200066004000104078000080fb0030fb07005f
:10563000800078006800470001087800e800470013
:105640000000eb0080089800e80047000000eb0035
:10565000e0009800e80047000000eb00f000980030
:1056600068004700a2ed0700200798003107980066
:10567000640f47000040eb00204798000f00370000
:105680002e4090000080fb00800078006e089000a3
:10569000008140002e4090000080fb0080007800d8
:1056a0001e0078000080400010407800004978001b
:1056b0002e4090000040e800204798002e409000c7
:1056c000e34f5000eeff36000080fa0000000600b5
:1056d0000200fa00000f780001003700000000000f
:1056e0001e0fe9000080eb009e0f1000fbff3a0048
:1056f0000080fa00000006000800fa00008c280074
:1057000006000900305f78007e00b100e1418400ae
:10571000720020000e00780056fc0700871f7800fa
:10572000881f78000500fc0057052000373b8800e3
:10573000a80a2000383b880027a6a8004f0478005c
:10574000cf03780027c6bf003040b30027e6b7007c
:105750001e4090000080fb00203188002e40900009
:105760000080fb00c800dd003e4090000080fb0090
:1057700000804000203188004e4090000080fb00f7
:10578000203188005e4090000080fb00c800dd00f2
:105790006e4090000080fb000080400020318800b7
:1057a000316220009140780030ccb30000c060002e
:1057b000c040b30023e6b70023c6a80023c6bf003d
:1057c0003040b30023e6b7000000eb000031880052
:1057d0000000eb00003188000000eb000031880081
:1057e0000000eb000031880023e6a8009162200051
:1057f0009140780030cfb30000c0600029e6b700c8
:105800002746a9002786a9000040eb0026e6b7003e
:10581000310c20009140780080cfb30000c06000c0
:105820000024a000c3e0b7008bc0a9009bc0a80063
:1058300027e6a8000080fa00000006000a00fa002f
:105840004007980027c6bf00704060000004e000d9
:10585000fcff3a0027c6bf003040b30027e6b70080
:1058600020318000000f78007162200091407800a4
:10587000c0cfb30000c060000014a00027e6b7004e
:10588000203180001007980071622000914078005c
:10589000c0cfb30000c060000004a00027e6b7003e
:1058a000203180002007980071622000914078002c
:1058b000c0cfb30000c0600027e6b70020318000f1
:1058c00030079800ce00900000c2b30080487800f6
:1058d0004e0090008000e8001e00780080487800ac
:1058e0004e0090008080e8001e0090004800de001e
:1058f000804878004e009000e30040001e009000b9
:10590000804878004e009000e40040002e00900097
:10591000804878004e009000e50040003e00900076
:105920004800de00804878004e009000e60040000d
:105930003e009000804878000080fa0000000600d9
:105940000800fa00708c280006000900305f78001b
:105950007e00b100e1418400720020000e0078005a
:10596000c4fb0700871f7800881f78000500fc0033
:1059700057052000373b8800a80a2000383b8800e4
:1059800027a6a8004f047800cf03780027c6bf00e1
:105990003040b30027e6b7001e4090000080fb00b7
:1059a000203188002e4090000080fb00c800dd0000
:1059b0003e4090000080fb000080400020318800c5
:1059c0004e4090000080fb00203188005e40900037
:1059d0000080fb00c800dd006e4090000080fb00ee
:1059e00000804000203188000080fa00000006009e
:1059f0000000fa009bc0a80023e6a80027e6a80044
:105a00000080fa00000006000000fa009bc0a90018
:105a100023e6a90027e6a9000080fa00000006009e
