:020000040000fa
:080000000002040000000000f2
:020000040000fa
:10040000afcc20000e7f22000e018800000000000b
:100410000c00070020402600010020000f0007000c
:10042000000020000000e000020032000000020096
:10043000000000003a5d0200000000000040da0009
:100440000000fe00c01f20000000e000020032009b
:10045000002020009001880000000600a102880012
:10046000800078000000eb001a003700e2804000b6
:1004700054a0b4009101ba00e280400054a0b4003e
:100480009102ba00e280400054a0b4000002eb00e8
:10049000472bde00f507b200a6018800602ce100c2
:1004a00008003a000049eb000201e80002003900b0
:1004b0003420ec0002f0a0008301e900f9ff3e00c7
:1004c000040037006128e100010032000082eb00e7
:1004d000040007001101ba000200e000e3ff3a0047
:1004e0000000060004d0a300e20f49001c00390000
:1004f000810278003549ba000201e80002003900a3
:100500003420ec0002f0a0008301e9000f0032006b
:100510002549ba000201e800020039003420ec004d
:1005200002f0a0008301e900080032000400e000ae
:100530000600320015c9ba000201e80002003900c5
:100540003420ec0002f0a0008301e9008180e80083
:1005500054a0b4000300e000e2ff3a0000000600ef
:100560009102ba00055978008301e900f7ff3200d3
:10057000c82ade00055978008301e900f3ff320044
:100580000400e000f1ff320011d9ba00eeff37009d
:100590000040da000000fe006022b80006022000e1
:1005a0000000d0008180d2000482d2008582d20077
:1005b0000000a0000202520083825a0003003100b2
:1005c0000202420083824a000000a1000603e90003
:0805d000f3ff3a0000000600f1
:020000040000fa
:020000040002f8
:04aff400ffff00005b
:020000040000fa
:020000040002f8
:04aff8009f7800003e
:020000040000fa
:020000040002f8
:04affc009f3d000075
:020000040000fa
:10000800c8020000c8020000c8020000c8020000c0
:10001800c8020000c8020000c8020000c8020000b0
:10002800c8020000c8020000c8020000c8020000a0
:10003800c8020000c8020000c8020000c802000090
:020000040000fa
:020000040000fa
:1005d8005072000065730000656e000074690000c9
:1005e8006e670000205000004943000032340000cc
:1005f800464a00003132000038470000413300000d
:1006080031300000200000004c430000442000006e
:10061800776900007468000020380000204300005b
:100628006f6d00006d6f00006e200000616e0000ad
:1006380064200000343800003020000053650000ba
:10064800676d0000656e00007473000000440000d0
:100658004d410000206100006e640000205600003b
:1006680042410000542000007769000074680000cf
:10067800205200005443000043000000496e00006f
:1006880074650000726e0000616c0000205200006a
:100698006573000069730000746f00007220000029
:1006a8004269000061730000206100006e64000070
:1006b80020430000686100007267000065200000a8
:1006c800507500006d700000204200006961000054
:1006d800730000004c6f000077200000506f00008e
:1006e80077650000722000007769000074680000d8
:1006f800204400006565000070200000536c000075
:100708006565000070200000616e00006420000034
:100718004c6f000077200000566f00006c740000da
:100728006167000065200000536c000065650000eb
:1007380070000000323400002043000068610000af
:100748006e6e0000656c000020310000322d000044
:10075800426900007420000041440000432c00005e
:100768003234000020430000686100006e6e000013
:10077800656c000020430000544d0000552c00001b
:10078800203200002d49000032630000204d000097
:100798006f640000756c0000657300000035000090
:1007a8002d2000003136000020420000697400004e
:1007b80020540000696d000065720000732c000071
:1007c800342d00005561000072740000204d0000b7
:1007d8006f640000756c0000657300002c32000027
:1007e8002d53000050490000204d00006f640000a8
:1007f800756c000065730000003700002d4900008b
:100808006e700000757400002063000061700000c5
:100818007475000072650000202c0000372d000060
:100828004f750000747000007574000020630000ac
:100838006f6d00007061000072650000202c0000e0
:1008480020500000574d0000003800004b200000e9
:10085800646100007461000020520000414d0000f6
:10086800202c000031320000384b000062200000cc
:10087800507200006f670000726100006d6d00002b
:10088800204d0000656d00006f72000079000000c7
:10089800207400006f2000006164000064200000e4
:1008a8006d6f000072650000206600006561000041
:1008b80074750000726500007320000000200000bd
:1008c800746f00002061000064640000206d000067
:1008d8006f7200006520000066650000617400000a
:1008e80075720000657300002020000000200000e1
:1008f8004368000020500000756d00007000000083
:1009080020520000204200006961000073000000ce
:1009180020540000656d00007000000020520000a7
:100928005443000043000000205600006f6c000094
:10093800740000002042000069610000730000009c
:10094800204500007869000074200000533300003f
:100958002b5300003400000020530000776900008a
:1009680074680000636900006e670000207400006e
:100978006f20000052650000736900007374000066
:100988006f720000204200006961000073000000df
:100998002053000077690000746300006869000054
:1009a8006e67000020430000686100007267000065
:1009b80065200000507500006d70000020420000a6
:0809c8006961000073000000ea
:020000040000fa
:1009d000de00fa0026ccbf0001ecb70027ccbf0038
:1009e00002ecb70028ccbf0003ecb70029ccbf0055
:1009f00004ecb7002accbf0005ecb7002bccbf003d
:100a000006ecb7002cccbf0007ecb7002dccbf0024
:100a100008ecb7002eccbf0009ecb7002fccbf000c
:100a20000aecb70030ccbf000becb70031ccbf00f4
:100a30000cecb70032ccbf000decb70033ccbf00dc
:100a40000eecb70034ccbf000fecb70035ccbf00c4
:100a500010ecb70036ccbf0011ecb70037ccbf00ac
:100a600012ecb70038ccbf0013ecb70039ccbf0094
:100a700014ecb7003accbf0015ecb7003bccbf007c
:100a800016ecb7003cccbf0017ecb7003dccbf0064
:100a900018ecb7003eccbf0019ecb7003fccbf004c
:100aa0001aecb70040ccbf001becb70041ccbf0034
:100ab0001cecb70042ccbf001decb70043ccbf001c
:100ac00025ecb70044ccbf001eecb70045ccbf00fe
:100ad0001fecb70046ccbf0020ecb70047ccbf00ee
:100ae00021ecb70048ccbf0022ecb70049ccbf00d6
:100af00023ecb7004accbf0024ecb70001ccbf0008
:100b00004700dd0050df9900ded891000100fb00b6
:100b10004780de0050df9900ded8910061c06000a0
:100b2000614160001159200091407800e0cfb3008e
:100b300000c060000240700091e5b70001ccbf002a
:100b40004600dd0040df9900ced891000100fb0097
:100b50004780de0040df9900ced8910061c0600080
:100b6000614160009159200091407800e0cfb300ce
:100b700000c060000240700099e5b70001ccbf00e2
:100b80004500dd0030df9900bed891000100fb0078
:100b90004780de0030df9900bed8910061c0600060
:100ba00061416000115a200091407800e0cfb3000d
:100bb00000c0600002407000a1e5b70001ccbf009a
:100bc0004400dd0020df9900aed891000100fb0059
:100bd0004780de0020df9900aed8910061c0600040
:100be00061416000915a200091407800e0cfb3004d
:100bf00000c0600002407000a9e5b70001ccbf0052
:100c00004300dd0010df99009ed891000100fb0039
:100c10004780de0010df99009ed8910061c060001f
:100c200061416000115b200091407800e0cfb3008b
:100c300000c0600002407000b1e5b70001ccbf0009
:100c40004200dd0000df99008ed891000100fb001a
:100c50004780de0000df99008ed8910061c06000ff
:100c600061416000915b200091407800e0cfb300cb
:100c700000c0600002407000b9e5b70001ccbf00c1
:100c8000004040000000fb004780de006140600043
:100c900061416000115c200091407800e0cfb3001a
:100ca00000c0600002407000c1e5b70002ccbf0088
:100cb0004700dd0070d79900fed091000100fb00d5
:100cc0004780de0070d79900fed0910061c06000bf
:100cd00061406000004140001159200091407800bf
:100ce000d0cfb30000c060000240700091e5b700b3
:100cf00002ccbf004600dd0060d79900eed0910025
:100d00000100fb004780de0060d79900eed0910023
:100d100061c06000614060000041400091592000c6
:100d200091407800d0cfb30000c060000240700056
:100d300099e5b70002ccbf004500dd0050d799000f
:100d4000ded091000100fb004780de0050d7990003
:100d5000ded0910061c06000614060000041400051
:100d6000115a200091407800d0cfb30000c060003d
:100d700002407000a1e5b70002ccbf004400dd00d6
:100d800040d79900ced091000100fb004780de00e3
:100d900040d79900ced0910061c0600061406000f2
:100da00000414000915a200091407800d0cfb3001c
:100db00000c0600002407000a9e5b70002ccbf008f
:100dc0004300dd0030d79900bed091000100fb0048
:100dd0004780de0030d79900bed0910061c060002e
:100de0006140600000414000115b200091407800ac
:100df000d0cfb30000c0600002407000b1e5b70082
:100e000002ccbf004200dd0020d79900aed0910097
:100e10000100fb004780de0020d79900aed0910092
:100e200061c060006140600000414000915b2000b3
:100e300091407800d0cfb30000c060000240700045
:100e4000b9e5b70002ccbf00004040000000fb0045
:100e50004780de006140600061406000004140006a
:100e6000115c200091407800d0cfb30000c060003a
:100e700002407000c1e5b70003ccbf004700dd00b1
:100e800010d799009ed091000100fb004780de0042
:100e900010d799009ed0910061c060006140600051
:100ea0004201dd001159200091407800b0cfb3001d
:100eb00000c060000240700091e5b70003ccbf00a5
:100ec0004600dd0000d799008ed091000100fb00a4
:100ed0004780de0000d799008ed0910061c060008d
:100ee000614060004201dd0091592000914078008e
:100ef000b0cfb30000c060000240700099e5b700b9
:100f000003ccbf004500dd0070cf9900fec8910002
:100f10000100fb004780de0070cf9900fec8910001
:100f200061c06000614060004201dd00115a200094
:100f300091407800b0cfb30000c060000240700064
:100f4000a1e5b70003ccbf004400dd0060cf9900ed
:100f5000eec891000100fb004780de0060cf9900e1
:100f6000eec8910061c06000614060004201dd0098
:100f7000915a200091407800b0cfb30000c06000cb
:100f800002407000a9e5b70003ccbf004300dd00bc
:100f900050cf9900dec891000100fb004780de00c1
:100fa00050cf9900dec8910061c0600061406000d0
:100fb0004201dd00115b200091407800b0cfb3000a
:100fc00000c0600002407000b1e5b70003ccbf0074
:100fd0004200dd0040cf9900cec891000100fb0027
:100fe0004780de0040cf9900cec8910061c060000c
:100ff000614060004201dd00915b2000914078007b
:10100000b0cfb30000c0600002407000b9e5b70087
:1010100003ccbf00004040000000fb004780de0022
:1010200061406000614060004201dd00115c200011
:1010300091407800b0cfb30000c060000240700063
:10104000c1e5b70004ccbf004700dd0030cf9900f8
:10105000bec891000100fb004780de0030cf990040
:10106000bec8910061c06000614060004301dd00c6
:10107000115920009140780070cfb30000c060008b
:101080000240700091e5b70004ccbf004600dd00cf
:1010900020cf9900aec891000100fb004780de0020
:1010a00020cf9900aec8910061c06000614060002f
:1010b0004301dd00915920009140780070cfb300ca
:1010c00000c060000240700099e5b70004ccbf008a
:1010d0004500dd0010cf99009ec891000100fb0083
:1010e0004780de0010cf99009ec8910061c060006b
:1010f000614060004301dd00115a200091407800fa
:1011000070cfb30000c0600002407000a1e5b700de
:1011100004ccbf004400dd0000cf99008ec89100d0
:101120000100fb004780de0000cf99008ec89100cf
:1011300061c06000614060004301dd00915a200001
:101140009140780070cfb30000c060000240700092
:10115000a9e5b70004ccbf004300dd0070c79900cb
:10116000fec091000100fb004780de0070c79900bf
:10117000fec0910061c06000614060004301dd007d
:10118000115b20009140780070cfb30000c0600078
:1011900002407000b1e5b70004ccbf004200dd00a2
:1011a00060c79900eec091000100fb004780de009f
:1011b00060c79900eec0910061c0600061406000ae
:1011c0004301dd00915b20009140780070cfb300b7
:1011d00000c0600002407000b9e5b70004ccbf0059
:1011e000004040000000fb004780de0061406000de
:1011f000614060004301dd00115c200091407800f7
:1012000070cfb30000c0600002407000c1e5b700bd
:1012100005ccbf004700dd0050c79900dec091003b
:101220000100fb004780de0050c79900dec091003e
:1012300061c06000c700dd0091c5bf000074a1005f
:101240000140700091e5b70005ccbf004600dd000d
:1012500040c79900cec091000100fb004780de002e
:1012600040c79900cec0910061c06000c700dd009a
:1012700099c5bf000074a1000140700099e5b70056
:1012800005ccbf004500dd0030c79900bec091000d
:101290000100fb004780de0030c79900bec091000e
:1012a00061c06000c700dd00a1c5bf000074a100df
:1012b00001407000a1e5b70005ccbf004400dd008f
:1012c00020c79900aec091000100fb004780de00fe
:1012d00020c79900aec0910061c06000c700dd006a
:1012e000a9c5bf000074a10001407000a9e5b700c6
:1012f00005ccbf004300dd0010c799009ec09100df
:101300000100fb004780de0010c799009ec09100dd
:1013100061c06000c700dd00b1c5bf000074a1005e
:1013200001407000b1e5b70005ccbf004200dd0010
:1013300000c799008ec091000100fb004780de00cd
:1013400000c799008ec0910061c06000c700dd0039
:10135000b9c5bf000074a10001407000b9e5b70035
:1013600005ccbf00004040000000fb004780de00cd
:1013700061406000c700dd00c1c5bf000074a1006e
:1013800001407000c1e5b70006ccbf004700dd009a
:10139000707f9900fe7891000100fb004780de001d
:1013a000707f9900fe78910061c06000614160002b
:1013b0002159200091407800e0cfb30000c06000c8
:1013c0000240700092e5b70006ccbf004600dd0089
:1013d000607f9900ee7891000100fb004780de00fd
:1013e000607f9900ee78910061c06000614160000b
:1013f000a159200091407800e0cfb30000c0600008
:10140000024070009ae5b70006ccbf004500dd0041
:10141000507f9900de7891000100fb004780de00dc
:10142000507f9900de78910061c0600061416000ea
:10143000215a200091407800e0cfb30000c0600046
:1014400002407000a2e5b70006ccbf004400dd00fa
:10145000407f9900ce7891000100fb004780de00bc
:10146000407f9900ce78910061c0600061416000ca
:10147000a15a200091407800e0cfb30000c0600086
:1014800002407000aae5b70006ccbf004300dd00b3
:10149000307f9900be7891000100fb004780de009c
:1014a000307f9900be78910061c0600061416000aa
:1014b000215b200091407800e0cfb30000c06000c5
:1014c00002407000b2e5b70006ccbf004200dd006c
:1014d000207f9900ae7891000100fb004780de007c
:1014e000207f9900ae78910061c06000614160008a
:1014f000a15b200091407800e0cfb30000c0600005
:1015000002407000bae5b70006ccbf0000404000c2
:101510000000fb004780de00614060006141600028
:10152000215c200091407800e0cfb30000c0600053
:1015300002407000c2e5b70007ccbf004700dd00e5
:10154000107f99009e7891000100fb004780de002b
:10155000107f99009e78910061c06000614060003a
:10156000004140002159200091407800d0cfb300c5
:1015700000c060000240700092e5b70007ccbf00d9
:101580004600dd00007f99008e7891000100fb008d
:101590004780de00007f99008e78910061c0600076
:1015a0006140600000414000a15920009140780056
:1015b000d0cfb30000c06000024070009ae5b700d1
:1015c00007ccbf004500dd0070779900fe709100e8
:1015d0000100fb004780de0070779900fe709100eb
:1015e00061c060006140600000414000215a20005d
:1015f00091407800d0cfb30000c06000024070007e
:10160000a2e5b70007ccbf004400dd006077990079
:10161000ee7091000100fb004780de0060779900ca
:10162000ee70910061c060006140600000414000c8
:10163000a15a200091407800d0cfb30000c06000d4
:1016400002407000aae5b70007ccbf004300dd00f0
:1016500050779900de7091000100fb004780de00aa
:1016600050779900de70910061c0600061406000b9
:1016700000414000215b200091407800d0cfb300b2
:1016800000c0600002407000b2e5b70007ccbf00a8
:101690004200dd0040779900ce7091000100fb0010
:1016a0004780de0040779900ce70910061c06000f5
:1016b0006140600000414000a15b20009140780043
:1016c000d0cfb30000c0600002407000bae5b700a0
:1016d00007ccbf00004040000000fb004780de0058
:1016e000614060006140600000414000215c2000da
:1016f00091407800d0cfb30000c06000024070007d
:10170000c2e5b70008ccbf004700dd003077990084
:10171000be7091000100fb004780de003077990029
:10172000be70910061c06000614060004301dd0057
:10173000215920009140780070cfb30000c06000b4
:101740000240700092e5b70008ccbf004600dd0003
:1017500020779900ae7091000100fb004780de0009
:1017600020779900ae70910061c060006140600018
:101770004301dd00a15920009140780070cfb300f3
:1017800000c06000024070009ae5b70008ccbf00be
:101790004500dd00107799009e7091000100fb006c
:1017a0004780de00107799009e70910061c0600054
:1017b000614060004301dd00215a20009140780023
:1017c00070cfb30000c0600002407000a2e5b70017
:1017d00008ccbf004400dd00007799008e709100b6
:1017e0000100fb004780de00007799008e709100b9
:1017f00061c06000614060004301dd00a15a20002b
:101800009140780070cfb30000c0600002407000cb
:10181000aae5b70008ccbf004300dd00706f990057
:10182000fe6891000100fb004780de00706f9900a8
:10183000fe68910061c06000614060004301dd000e
:10184000215b20009140780070cfb30000c06000a1
:1018500002407000b2e5b70008ccbf004200dd00d6
:10186000606f9900ee6891000100fb004780de0088
:10187000606f9900ee68910061c060006140600097
:101880004301dd00a15b20009140780070cfb300e0
:1018900000c0600002407000bae5b70008ccbf008d
:1018a000004040000000fb004780de006140600017
:1018b000614060004301dd00215c20009140780020
:1018c00070cfb30000c0600002407000c2e5b700f6
:1018d00009ccbf004700dd00506f9900de68910021
:1018e0000100fb004780de00506f9900de68910028
:1018f00061c06000614060004401dd0021592000aa
:1019000091407800f0ceb30000c06000024070004b
:1019100092e5b70009ccbf004600dd00406f99009a
:10192000ce6891000100fb004780de00406f990007
:10193000ce68910061c06000614060004401dd003c
:10194000a159200091407800f0ceb30000c06000a3
:10195000024070009ae5b70009ccbf004500dd00e9
:10196000306f9900be6891000100fb004780de00e7
:10197000306f9900be68910061c0600061406000f6
:101980004401dd00215a200091407800f0ceb300e0
:1019900000c0600002407000a2e5b70009ccbf00a3
:1019a0004400dd00206f9900ae6891000100fb004b
:1019b0004780de00206f9900ae68910061c0600032
:1019c000614060004401dd00a15a20009140780090
:1019d000f0ceb30000c0600002407000aae5b7007e
:1019e00009ccbf004300dd00106f99009e68910094
:1019f0000100fb004780de00106f99009e68910097
:101a000061c06000614060004401dd00215b200096
:101a100091407800f0ceb30000c06000024070003a
:101a2000b2e5b70009ccbf004200dd00006f9900ad
:101a30008e6891000100fb004780de00006f990076
:101a40008e68910061c06000614060004401dd006b
:101a5000a15b200091407800f0ceb30000c0600090
:101a600002407000bae5b70009ccbf00004040005a
:101a70000000fb004780de006140600061406000c4
:101a80004401dd00215c200091407800f0ceb300dd
:101a900000c0600002407000c2e5b7000accbf0081
:101aa0004700dd0070679900fe6091000100fb00b7
:101ab0004780de0070679900fe60910061c06000a1
:101ac000614060004501dd0021592000914078000f
:101ad000f0cdb30000c060000240700092e5b70096
:101ae0000accbf004600dd0060679900ee609100ff
:101af0000100fb004780de0060679900ee60910006
:101b000061c06000614060004501dd00a159200016
:101b100091407800f0cdb30000c06000024070003a
:101b20009ae5b7000accbf004500dd005067990078
:101b3000de6091000100fb004780de0050679900e5
:101b4000de60910061c06000614060004501dd0021
:101b5000215a200091407800f0cdb30000c0600011
:101b600002407000a2e5b7000accbf004400dd00cf
:101b700040679900ce6091000100fb004780de00c5
:101b800040679900ce60910061c0600061406000d4
:101b90004501dd00a15a200091407800f0cdb3004e
:101ba00000c0600002407000aae5b7000accbf0088
:101bb0004300dd0030679900be6091000100fb002a
:101bc0004780de0030679900be60910061c0600010
:101bd000614060004501dd00215b200091407800fc
:101be000f0cdb30000c0600002407000b2e5b70065
:101bf0000accbf004200dd0020679900ae60910072
:101c00000100fb004780de0020679900ae60910074
:101c100061c06000614060004501dd00a15b200003
:101c200091407800f0cdb30000c060000240700029
:101c3000bae5b7000accbf00004040000000fb003e
:101c40004780de0061406000614060004501dd00ca
:101c5000215c200091407800f0cdb30000c060000e
:101c600002407000c2e5b7000bccbf004700dd00aa
:101c7000106799009e6091000100fb004780de0024
:101c8000106799009e60910061c060006140600033
:101c90004601dd002159200091407800f0cbb300cf
:101ca00000c060000240700092e5b7000bccbf009e
:101cb0004600dd00006799008e6091000100fb0086
:101cc0004780de00006799008e60910061c060006f
:101cd000614060004601dd00a1592000914078007c
:101ce000f0cbb30000c06000024070009ae5b7007e
:101cf0000bccbf004500dd00705f9900fe589100dd
:101d00000100fb004780de00705f9900fe589100e3
:101d100061c06000614060004601dd00215a200082
:101d200091407800f0cbb30000c06000024070002a
:101d3000a2e5b7000bccbf004400dd00605f990056
:101d4000ee5891000100fb004780de00605f9900c3
:101d5000ee58910061c06000614060004601dd0006
:101d6000a15a200091407800f0cbb30000c0600081
:101d700002407000aae5b7000bccbf004300dd00b5
:101d8000505f9900de5891000100fb004780de00a3
:101d9000505f9900de58910061c0600061406000b2
:101da0004601dd00215b200091407800f0cbb300bc
:101db00000c0600002407000b2e5b7000bccbf006d
:101dc0004200dd00405f9900ce5891000100fb0009
:101dd0004780de00405f9900ce58910061c06000ee
:101de000614060004601dd00a15b20009140780069
:101df000f0cbb30000c0600002407000bae5b7004d
:101e00000bccbf00004040000000fb004780de001c
:101e100061406000614060004601dd00215c2000ff
:101e200091407800f0cbb30000c060000240700029
:101e3000c2e5b7000cccbf004700dd00305f990061
:101e4000be5891000100fb004780de00305f990022
:101e5000be58910061c06000c700dd0092c5bf00a0
:101e60000074a1000140700092e5b7000cccbf00e7
:101e70004600dd00205f9900ae5891000100fb0094
:101e80004780de00205f9900ae58910061c060007d
:101e9000c700dd009ac5bf000074a10001407000ba
:101ea0009ae5b7000cccbf004500dd00105f99003b
:101eb0009e5891000100fb004780de00105f9900f2
:101ec0009e58910061c06000c700dd00a2c5bf0040
:101ed0000074a10001407000a2e5b7000cccbf0067
:101ee0004400dd00005f99008e5891000100fb0066
:101ef0004780de00005f99008e58910061c060004d
:101f0000c700dd00aac5bf000074a1000140700039
:101f1000aae5b7000cccbf004300dd007057990064
:101f2000fe5091000100fb004780de0070579900d1
:101f3000fe50910061c06000c700dd00b2c5bf0067
:101f40000074a10001407000b2e5b7000cccbf00e6
:101f50004200dd0060579900ee5091000100fb0047
:101f60004780de0060579900ee50910061c060002c
:101f7000c700dd00bac5bf000074a10001407000b9
:101f8000bae5b7000cccbf00004040000000fb00e9
:101f90004780de0061406000c700dd00c2c5bf00b1
:101fa0000074a10001407000c2e5b7000dccbf0075
:101fb0004700dd0050579900de5091000100fb0002
:101fc0004780de0050579900de50910061c06000ec
:101fd000614160003159200091407800e0cfb300aa
:101fe00000c060000240700093e5b7000dccbf0058
:101ff0004600dd0040579900ce5091000100fb00e3
:102000004780de0040579900ce50910061c06000cb
:1020100061416000b159200091407800e0cfb300e9
:1020200000c06000024070009be5b7000dccbf000f
:102030004500dd0030579900be5091000100fb00c3
:102040004780de0030579900be50910061c06000ab
:1020500061416000315a200091407800e0cfb30028
:1020600000c0600002407000a3e5b7000dccbf00c7
:102070004400dd0020579900ae5091000100fb00a4
:102080004780de0020579900ae50910061c060008b
:1020900061416000b15a200091407800e0cfb30068
:1020a00000c0600002407000abe5b7000dccbf007f
:1020b0004300dd00105799009e5091000100fb0085
:1020c0004780de00105799009e50910061c060006b
:1020d00061416000315b200091407800e0cfb300a7
:1020e00000c0600002407000b3e5b7000dccbf0037
:1020f0004200dd00005799008e5091000100fb0066
:102100004780de00005799008e50910061c060004a
:1021100061416000b15b200091407800e0cfb300e6
:1021200000c0600002407000bbe5b7000dccbf00ee
:10213000004040000000fb004780de00614060007e
:1021400061416000315c200091407800e0cfb30035
:1021500000c0600002407000c3e5b7000eccbf00b5
:102160004700dd00704f9900fe4891000100fb0020
:102170004780de00704f9900fe48910061c060000a
:1021800061406000004140003159200091407800da
:10219000d0cfb30000c060000240700093e5b700ec
:1021a0000eccbf004600dd00604f9900ee48910064
:1021b0000100fb004780de00604f9900ee4891006f
:1021c00061c060006140600000414000b1592000e2
:1021d00091407800d0cfb30000c060000240700092
:1021e0009be5b7000eccbf004500dd00504f9900c5
:1021f000de4891000100fb004780de00504f99004f
:10220000de48910061c06000614060000041400014
:10221000315a200091407800d0cfb30000c0600058
:1022200002407000a3e5b7000eccbf004400dd0003
:10223000404f9900ce4891000100fb004780de002e
:10224000404f9900ce48910061c06000614060003d
:1022500000414000b15a200091407800d0cfb30037
:1022600000c0600002407000abe5b7000eccbf00bc
:102270004300dd00304f9900be4891000100fb0093
:102280004780de00304f9900be48910061c0600079
:102290006140600000414000315b200091407800c7
:1022a000d0cfb30000c0600002407000b3e5b700bb
:1022b0000eccbf004200dd00204f9900ae489100d7
:1022c0000100fb004780de00204f9900ae489100de
:1022d00061c060006140600000414000b15b2000cf
:1022e00091407800d0cfb30000c060000240700081
:1022f000bbe5b7000eccbf00004040000000fb0073
:102300004780de00614060006140600000414000a5
:10231000315c200091407800d0cfb30000c0600055
:1023200002407000c3e5b7000fccbf004700dd00de
:10233000104f99009e4891000100fb004780de008d
:10234000104f99009e48910061c06000614060009c
:102350004201dd003159200091407800b0cfb30038
:1023600000c060000240700093e5b7000fccbf00d2
:102370004600dd00004f99008e4891000100fb00ef
:102380004780de00004f99008e48910061c06000d8
:10239000614060004201dd00b159200091407800a9
:1023a000b0cfb30000c06000024070009be5b700f2
:1023b0000fccbf004500dd0070479900fe40910042
:1023c0000100fb004780de0070479900fe4091004d
:1023d00061c06000614060004201dd00315a2000b0
:1023e00091407800b0cfb30000c0600002407000a0
:1023f000a3e5b7000fccbf004400dd0060479900a3
:10240000ee4091000100fb004780de00604799002c
:10241000ee40910061c06000614060004201dd005b
:10242000b15a200091407800b0cfb30000c06000e6
:1024300002407000abe5b7000fccbf004300dd00e9
:1024400050479900de4091000100fb004780de000c
:1024500050479900de40910061c06000614060001b
:102460004201dd00315b200091407800b0cfb30025
:1024700000c0600002407000b3e5b7000fccbf00a1
:102480004200dd0040479900ce4091000100fb0072
:102490004780de0040479900ce40910061c0600057
:1024a000614060004201dd00b15b20009140780096
:1024b000b0cfb30000c0600002407000bbe5b700c1
:1024c0000fccbf00004040000000fb004780de0052
:1024d00061406000614060004201dd00315c20002d
:1024e00091407800b0cfb30000c06000024070009f
:1024f000c3e5b70010ccbf004700dd0030479900ae
:10250000be4091000100fb004780de00304799008b
:10251000be40910061c060006141600041592000ef
:1025200091407800e0cfb30000c06000024070002e
:1025300094e5b70010ccbf004600dd0020479900ad
:10254000ae4091000100fb004780de00204799006b
:10255000ae40910061c0600061416000c15920003f
:1025600091407800e0cfb30000c0600002407000ee
:102570009ce5b70010ccbf004500dd001047990076
:102580009e4091000100fb004780de00104799004b
:102590009e40910061c0600061416000415a20008e
:1025a00091407800e0cfb30000c0600002407000ae
:1025b000a4e5b70010ccbf004400dd00004799003f
:1025c0008e4091000100fb004780de00004799002b
:1025d0008e40910061c0600061416000c15a2000de
:1025e00091407800e0cfb30000c06000024070006e
:1025f000ace5b70010ccbf004300dd0070ff9800d1
:10260000fef890000100fb004780de0070ff98009c
:10261000fef8900061c0600061416000415b2000f5
:1026200091407800e0cfb30000c06000024070002d
:10263000b4e5b70010ccbf004200dd0060ff980099
:10264000eef890000100fb004780de0060ff98007c
:10265000eef8900061c0600061416000c15b200045
:1026600091407800e0cfb30000c0600002407000ed
:10267000bce5b70010ccbf00004040000000fb00ec
:102680004780de006140600061416000415c2000e5
:1026900091407800e0cfb30000c0600002407000bd
:1026a000c4e5b70011ccbf004700dd0050ff980023
:1026b000def890000100fb004780de0050ff98002c
:1026c000def8900061c060006140600000414000a1
:1026d0004159200091407800d0cfb30000c0600085
:1026e0000240700094e5b70011ccbf004600dd0049
:1026f00040ff9800cef890000100fb004780de000c
:1027000040ff9800cef8900061c06000614060001a
:1027100000414000c159200091407800d0cfb30063
:1027200000c06000024070009ce5b70011ccbf0003
:102730004500dd0030ff9800bef890000100fb006e
:102740004780de0030ff9800bef8900061c0600056
:102750006140600000414000415a200091407800f3
:10276000d0cfb30000c0600002407000a4e5b70005
:1027700011ccbf004400dd0020ff9800aef89000af
:102780000100fb004780de0020ff9800aef89000bb
:1027900061c060006140600000414000c15a2000fb
:1027a00091407800d0cfb30000c0600002407000bc
:1027b000ace5b70011ccbf004300dd0010ff98006e
:1027c0009ef890000100fb004780de0010ff98009b
:1027d0009ef8900061c060006140600000414000d0
:1027e000415b200091407800d0cfb30000c0600072
:1027f00002407000b4e5b70011ccbf004200dd001c
:1028000000ff98008ef890000100fb004780de007a
:1028100000ff98008ef8900061c060006140600089
:1028200000414000c15b200091407800d0cfb30050
:1028300000c0600002407000bce5b70011ccbf00d2
:10284000004040000000fb004780de006140600067
:102850006140600000414000415c200091407800f0
:10286000d0cfb30000c0600002407000c4e5b700e4
:1028700012ccbf004700dd0070f79800fef090001a
:102880000100fb004780de0070f79800fef090002a
:1028900061c06000614060004401dd0041592000da
:1028a00091407800f0ceb30000c06000024070009c
:1028b00094e5b70012ccbf004600dd0060f7980039
:1028c000eef090000100fb004780de0060f798000a
:1028d000eef0900061c06000614060004401dd00e6
:1028e000c159200091407800f0ceb30000c06000d4
:1028f000024070009ce5b70012ccbf004500dd002f
:1029000050f79800def090000100fb004780de00e9
:1029100050f79800def0900061c0600061406000f8
:102920004401dd00415a200091407800f0ceb30010
:1029300000c0600002407000a4e5b70012ccbf00e8
:102940004400dd0040f79800cef090000100fb004d
:102950004780de0040f79800cef0900061c0600034
:10296000614060004401dd00c15a200091407800c0
:10297000f0ceb30000c0600002407000ace5b700cc
:1029800012ccbf004300dd0030f79800bef090008d
:102990000100fb004780de0030f79800bef0900099
:1029a00061c06000614060004401dd00415b2000c7
:1029b00091407800f0ceb30000c06000024070008b
:1029c000b4e5b70012ccbf004200dd0020f798004c
:1029d000aef090000100fb004780de0020f7980079
:1029e000aef0900061c06000614060004401dd0015
:1029f000c15b200091407800f0ceb30000c06000c1
:102a000002407000bce5b70012ccbf00004040009f
:102a10000000fb004780de00614060006140600014
:102a20004401dd00415c200091407800f0ceb3000d
:102a300000c0600002407000c4e5b70013ccbf00c6
:102a40004700dd0010f798009ef090000100fb00a9
:102a50004780de0010f798009ef0900061c0600093
:102a6000614060004501dd0041592000914078003f
:102a7000f0cdb30000c060000240700094e5b700e4
:102a800013ccbf004600dd0000f798008ef09000e8
:102a90000100fb004780de0000f798008ef09000f8
:102aa00061c06000614060004501dd00c159200047
:102ab00091407800f0cdb30000c06000024070008b
:102ac0009ce5b70013ccbf004500dd0070ef980017
:102ad000fee890000100fb004780de0070ef9800e8
:102ae000fee8900061c06000614060004501dd00cb
:102af000415a200091407800f0cdb30000c0600042
:102b000002407000a4e5b70013ccbf004400dd0014
:102b100060ef9800eee890000100fb004780de00c7
:102b200060ef9800eee8900061c0600061406000d6
:102b30004501dd00c15a200091407800f0cdb3007e
:102b400000c0600002407000ace5b70013ccbf00cd
:102b50004300dd0050ef9800dee890000100fb002c
:102b60004780de0050ef9800dee8900061c0600012
:102b7000614060004501dd00415b2000914078002c
:102b8000f0cdb30000c0600002407000b4e5b700b3
:102b900013ccbf004200dd0040ef9800cee890006b
:102ba0000100fb004780de0040ef9800cee8900077
:102bb00061c06000614060004501dd00c15b200034
:102bc00091407800f0cdb30000c06000024070007a
:102bd000bce5b70013ccbf00004040000000fb0084
:102be0004780de0061406000614060004501dd001b
:102bf000415c200091407800f0cdb30000c060003f
:102c000002407000c4e5b70014ccbf004700dd00ef
:102c100030ef9800bee890000100fb004780de0026
:102c200030ef9800bee8900061c060006140600035
:102c30004201dd005159200091407800b0cfb3002f
:102c400000c060000240700095e5b70014ccbf00e2
:102c50004600dd0020ef9800aee890000100fb0088
:102c60004780de0020ef9800aee8900061c0600071
:102c7000614060004201dd00d159200091407800a0
:102c8000b0cfb30000c06000024070009de5b70007
:102c900014ccbf004500dd0010ef98009ee89000c6
:102ca0000100fb004780de0010ef98009ee89000d6
:102cb00061c06000614060004201dd00515a2000a7
:102cc00091407800b0cfb30000c0600002407000b7
:102cd000a5e5b70014ccbf004400dd0000ef98006c
:102ce0008ee890000100fb004780de0000ef9800b6
:102cf0008ee8900061c06000614060004201dd002c
:102d0000d15a200091407800b0cfb30000c06000dd
:102d100002407000ade5b70014ccbf004300dd00f9
:102d200070e79800fee090000100fb004780de00a5
:102d300070e79800fee0900061c0600061406000b4
:102d40004201dd00515b200091407800b0cfb3001c
:102d500000c0600002407000b5e5b70014ccbf00b1
:102d60004200dd0060e79800eee090000100fb000b
:102d70004780de0060e79800eee0900061c06000f0
:102d8000614060004201dd00d15b2000914078008d
:102d9000b0cfb30000c0600002407000bde5b700d6
:102da00014ccbf00004040000000fb004780de0064
:102db00061406000614060004201dd00515c200024
:102dc00091407800b0cfb30000c0600002407000b6
:102dd000c5e5b70015ccbf004700dd0050e79800ff
:102de000dee090000100fb004780de0050e7980025
:102df000dee0900061c06000614060004301dd00e2
:102e0000515920009140780070cfb30000c060009d
:102e10000240700095e5b70015ccbf004600dd000c
:102e200040e79800cee090000100fb004780de0004
:102e300040e79800cee0900061c060006140600013
:102e40004301dd00d15920009140780070cfb300dc
:102e500000c06000024070009de5b70015ccbf00c7
:102e60004500dd0030e79800bee090000100fb0067
:102e70004780de0030e79800bee0900061c060004f
:102e8000614060004301dd00515a2000914078000c
:102e900070cfb30000c0600002407000a5e5b7002d
:102ea00015ccbf004400dd0020e79800aee09000a4
:102eb0000100fb004780de0020e79800aee09000b4
:102ec00061c06000614060004301dd00d15a200014
:102ed0009140780070cfb30000c0600002407000e5
:102ee000ade5b70015ccbf004300dd0010e798004a
:102ef0009ee090000100fb004780de0010e7980094
:102f00009ee0900061c06000614060004301dd0010
:102f1000515b20009140780070cfb30000c060008a
:102f200002407000b5e5b70015ccbf004200dd00df
:102f300000e798008ee090000100fb004780de0073
:102f400000e798008ee0900061c060006140600082
:102f50004301dd00d15b20009140780070cfb300c9
:102f600000c0600002407000bde5b70015ccbf0096
:102f7000004040000000fb004780de006140600030
:102f8000614060004301dd00515c20009140780009
:102f900070cfb30000c0600002407000c5e5b7000c
:102fa00016ccbf004700dd0070df9800fed890000f
:102fb0000100fb004780de0070df9800fed8900023
:102fc00061c06000614060004401dd005159200093
:102fd00091407800f0ceb30000c060000240700065
:102fe00095e5b70016ccbf004600dd0060df980015
:102ff000eed890000100fb004780de0060df980003
:10300000eed8900061c06000614060004401dd00c6
:10301000d159200091407800f0ceb30000c060008c
:10302000024070009de5b70016ccbf004500dd00f2
:1030300050df9800ded890000100fb004780de00e2
:1030400050df9800ded8900061c0600061406000f1
:103050004401dd00515a200091407800f0ceb300c9
:1030600000c0600002407000a5e5b70016ccbf00ac
:103070004400dd0040df9800ced890000100fb0046
:103080004780de0040df9800ced8900061c060002d
:10309000614060004401dd00d15a20009140780079
:1030a000f0ceb30000c0600002407000ade5b70094
:1030b00016ccbf004300dd0030df9800bed8900082
:1030c0000100fb004780de0030df9800bed8900092
:1030d00061c06000614060004401dd00515b200080
:1030e00091407800f0ceb30000c060000240700054
:1030f000b5e5b70016ccbf004200dd0020df980028
:10310000aed890000100fb004780de0020df980071
:10311000aed8900061c06000614060004401dd00f5
:10312000d15b200091407800f0ceb30000c0600079
:1031300002407000bde5b70016ccbf000040400063
:103140000000fb004780de006140600061406000dd
:103150004401dd00515c200091407800f0ceb300c6
:1031600000c0600002407000c5e5b70017ccbf008a
:103170004700dd0010df98009ed890000100fb00a2
:103180004780de0010df98009ed8900061c060008c
:10319000614060004501dd005159200091407800f8
:1031a000f0cdb30000c060000240700095e5b700ac
:1031b00017ccbf004600dd0000df98008ed89000dd
:1031c0000100fb004780de0000df98008ed89000f1
:1031d00061c06000614060004501dd00d159200000
:1031e00091407800f0cdb30000c060000240700054
:1031f0009de5b70017ccbf004500dd0070d79800f3
:10320000fed090000100fb004780de0070d79800e0
:10321000fed0900061c06000614060004501dd00ab
:10322000515a200091407800f0cdb30000c06000fa
:1032300002407000a5e5b70017ccbf004400dd00d8
:1032400060d79800eed090000100fb004780de00c0
:1032500060d79800eed0900061c0600061406000cf
:103260004501dd00d15a200091407800f0cdb30037
:1032700000c0600002407000ade5b70017ccbf0091
:103280004300dd0050d79800ded090000100fb0025
:103290004780de0050d79800ded0900061c060000b
:1032a000614060004501dd00515b200091407800e5
:1032b000f0cdb30000c0600002407000b5e5b7007b
:1032c00017ccbf004200dd0040d79800ced0900060
:1032d0000100fb004780de0040d79800ced0900070
:1032e00061c06000614060004501dd00d15b2000ed
:1032f00091407800f0cdb30000c060000240700043
:10330000bde5b70017ccbf00004040000000fb0047
:103310004780de0061406000614060004501dd00e3
:10332000515c200091407800f0cdb30000c06000f7
:1033300002407000c5e5b70018ccbf004700dd00b3
:1033400030d79800bed090000100fb004780de001f
:1033500030d79800bed0900061c06000614060002e
:10336000004140006159200091407800d0cfb30067
:1033700000c060000240700096e5b70018ccbf00a6
:103380004600dd0020d79800aed090000100fb0081
:103390004780de0020d79800aed0900061c060006a
:1033a0006140600000414000e159200091407800f8
:1033b000d0cfb30000c06000024070009ee5b700af
:1033c00018ccbf004500dd0010d798009ed09000bb
:1033d0000100fb004780de0010d798009ed09000cf
:1033e00061c060006140600000414000615a2000ff
:1033f00091407800d0cfb30000c060000240700060
:10340000a6e5b70018ccbf004400dd0000d7980047
:103410008ed090000100fb004780de0000d79800ae
:103420008ed0900061c060006140600000414000ab
:10343000e15a200091407800d0cfb30000c0600076
:1034400002407000aee5b70018ccbf004300dd00bd
:1034500070cf9800fec890000100fb004780de009e
:1034600070cf9800fec8900061c0600061406000ad
:1034700000414000615b200091407800d0cfb30054
:1034800000c0600002407000b6e5b70018ccbf0075
:103490004200dd0060cf9800eec890000100fb0004
:1034a0004780de0060cf9800eec8900061c06000e9
:1034b0006140600000414000e15b200091407800e5
:1034c000d0cfb30000c0600002407000bee5b7007e
:1034d00018ccbf00004040000000fb004780de0029
:1034e000614060006140600000414000615c20007c
:1034f00091407800d0cfb30000c06000024070005f
:10350000c6e5b70019ccbf004700dd0050cf9800da
:10351000dec890000100fb004780de0050cf98001d
:10352000dec8900061c06000614060004301dd00c2
:10353000615920009140780070cfb30000c0600056
:103540000240700096e5b70019ccbf004600dd00d0
:1035500040cf9800cec890000100fb004780de00fd
:1035600040cf9800cec8900061c06000614060000c
:103570004301dd00e15920009140780070cfb30095
:1035800000c06000024070009ee5b70019ccbf008b
:103590004500dd0030cf9800bec890000100fb0060
:1035a0004780de0030cf9800bec8900061c0600048
:1035b000614060004301dd00615a200091407800c5
:1035c00070cfb30000c0600002407000a6e5b700f5
:1035d00019ccbf004400dd0020cf9800aec8900099
:1035e0000100fb004780de0020cf9800aec89000ad
:1035f00061c06000614060004301dd00e15a2000cd
:103600009140780070cfb30000c0600002407000ad
:10361000aee5b70019ccbf004300dd0010cf980025
:103620009ec890000100fb004780de0010cf98008c
:103630009ec8900061c06000614060004301dd00f1
:10364000615b20009140780070cfb30000c0600043
:1036500002407000b6e5b70019ccbf004200dd00a3
:1036600000cf98008ec890000100fb004780de006c
:1036700000cf98008ec8900061c06000614060007b
:103680004301dd00e15b20009140780070cfb30082
:1036900000c0600002407000bee5b70019ccbf005a
:1036a000004040000000fb004780de0061406000f9
:1036b000614060004301dd00615c200091407800c2
:1036c00070cfb30000c0600002407000c6e5b700d4
:1036d0001accbf004700dd0070c79800fec0900004
:1036e0000100fb004780de0070c79800fec090001c
:1036f00061c06000614060004401dd00615920004c
:1037000091407800f0ceb30000c06000024070002d
:1037100096e5b7001accbf004600dd0060c79800f0
:10372000eec090000100fb004780de0060c79800fb
:10373000eec0900061c06000614060004401dd00a7
:10374000e159200091407800f0ceb30000c0600045
:10375000024070009ee5b7001accbf004500dd00b6
:1037600050c79800dec090000100fb004780de00db
:1037700050c79800dec0900061c0600061406000ea
:103780004401dd00615a200091407800f0ceb30082
:1037900000c0600002407000a6e5b7001accbf0070
:1037a0004400dd0040c79800cec090000100fb003f
:1037b0004780de0040c79800cec0900061c0600026
:1037c000614060004401dd00e15a20009140780032
:1037d000f0ceb30000c0600002407000aee5b7005c
:1037e0001accbf004300dd0030c79800bec0900077
:1037f0000100fb004780de0030c79800bec090008b
:1038000061c06000614060004401dd00615b200038
:1038100091407800f0ceb30000c06000024070001c
:10382000b6e5b7001accbf004200dd0020c7980003
:10383000aec090000100fb004780de0020c798006a
:10384000aec0900061c06000614060004401dd00d6
:10385000e15b200091407800f0ceb30000c0600032
:1038600002407000bee5b7001accbf000040400027
:103870000000fb004780de006140600061406000a6
:103880004401dd00615c200091407800f0ceb3007f
:1038900000c0600002407000c6e5b7001bccbf004e
:1038a0004700dd0010c798009ec090000100fb009b
:1038b0004780de0010c798009ec0900061c0600085
:1038c000614060004601dd006159200091407800b0
:1038d000f0cbb30000c060000240700096e5b70076
:1038e0001bccbf004600dd0000c798008ec09000d2
:1038f0000100fb004780de0000c798008ec09000ea
:1039000061c06000614060004601dd00e1592000b7
:1039100091407800f0cbb30000c06000024070001e
:103920009ee5b7001bccbf004500dd00707f98000e
:10393000fe7890000100fb004780de00707f980059
:10394000fe78900061c06000614060004601dd00cb
:10395000615a200091407800f0cbb30000c06000b5
:1039600002407000a6e5b7001bccbf004400dd009c
:10397000607f9800ee7890000100fb004780de0039
:10398000607f9800ee78900061c060006140600048
:103990004601dd00e15a200091407800f0cbb300f1
:1039a00000c0600002407000aee5b7001bccbf0055
:1039b0004300dd00507f9800de7890000100fb009e
:1039c0004780de00507f9800de78900061c0600084
:1039d000614060004601dd00615b2000914078009d
:1039e000f0cbb30000c0600002407000b6e5b70045
:1039f0001bccbf004200dd00407f9800ce789000d5
:103a00000100fb004780de00407f9800ce789000e8
:103a100061c06000614060004601dd00e15b2000a4
:103a200091407800f0cbb30000c06000024070000d
:103a3000bee5b7001bccbf00004040000000fb000b
:103a40004780de0061406000614060004601dd00ab
:103a5000615c200091407800f0cbb30000c06000b2
:103a600002407000c6e5b7001cccbf004700dd0077
:103a7000307f9800be7890000100fb004780de0098
:103a8000307f9800be78900061c06000c700dd0004
:103a900096c5bf000074a1000140700096e5b70014
:103aa0001cccbf004600dd00207f9800ae7890005f
:103ab0000100fb004780de00207f9800ae78900078
:103ac00061c06000c700dd009ec5bf000074a1009a
:103ad000014070009ee5b7001cccbf004500dd0032
:103ae000107f98009e7890000100fb004780de0068
:103af000107f98009e78900061c06000c700dd00d4
:103b0000a6c5bf000074a10001407000a6e5b70083
:103b10001cccbf004400dd00007f98008e78900030
:103b20000100fb004780de00007f98008e78900047
:103b300061c06000c700dd00aec5bf000074a10019
:103b400001407000aee5b7001cccbf004300dd00b3
:103b500070779800fe7090000100fb004780de0047
:103b600070779800fe70900061c06000c700dd00b3
:103b7000b6c5bf000074a10001407000b6e5b700f3
:103b80001cccbf004200dd0060779800ee70900012
:103b90000100fb004780de0060779800ee70900027
:103ba00061c06000c700dd00bec5bf000074a10099
:103bb00001407000bee5b7001cccbf0000404000d3
:103bc0000000fb004780de0061406000c700dd00b0
:103bd000c6c5bf000074a10001407000c6e5b70073
:103be0001dccbf004700dd0050779800de709000cc
:103bf0000100fb004780de0050779800de709000e7
:103c000061c06000614160007159200091407800fe
:103c1000e0cfb30000c060000240700097e5b7003d
:103c20001dccbf004600dd0040779800ce709000ac
:103c30000100fb004780de0040779800ce709000c6
:103c400061c0600061416000f1592000914078003e
:103c5000e0cfb30000c06000024070009fe5b700f5
:103c60001dccbf004500dd0030779800be7090008d
:103c70000100fb004780de0030779800be709000a6
:103c800061c0600061416000715a2000914078007d
:103c9000e0cfb30000c0600002407000a7e5b700ad
:103ca0001dccbf004400dd0020779800ae7090006e
:103cb0000100fb004780de0020779800ae70900086
:103cc00061c0600061416000f15a200091407800bd
:103cd000e0cfb30000c0600002407000afe5b70065
:103ce0001dccbf004300dd00107798009e7090004f
:103cf0000100fb004780de00107798009e70900066
:103d000061c0600061416000715b200091407800fb
:103d1000e0cfb30000c0600002407000b7e5b7001c
:103d20001dccbf004200dd00007798008e7090002f
:103d30000100fb004780de00007798008e70900045
:103d400061c0600061416000f15b2000914078003b
:103d5000e0cfb30000c0600002407000bfe5b700d4
:103d60001dccbf00004040000000fb004780de008b
:103d70006140600061416000715c2000914078000a
:103d8000e0cfb30000c0600002407000c7e5b7009c
:103d900025ccbf004700dd00706f9800fe689000e2
:103da0000100fb004780de00706f9800fe68900005
:103db00061c0600061406000004140007159200016
:103dc00091407800d0cfb30000c060000240700086
:103dd00097e5b70025ccbf004600dd00606f980076
:103de000ee6890000100fb004780de00606f9800e5
:103df000ee68900061c060006140600000414000da
:103e0000f159200091407800d0cfb30000c060008d
:103e1000024070009fe5b70025ccbf004500dd00e3
:103e2000506f9800de6890000100fb004780de00c4
:103e3000506f9800de68900061c0600061406000d3
:103e400000414000715a200091407800d0cfb3006b
:103e500000c0600002407000a7e5b70025ccbf009d
:103e60004400dd00406f9800ce6890000100fb0028
:103e70004780de00406f9800ce68900061c060000f
:103e80006140600000414000f15a200091407800fc
:103e9000d0cfb30000c0600002407000afe5b700b3
:103ea00025ccbf004300dd00306f9800be68900055
:103eb0000100fb004780de00306f9800be68900074
:103ec00061c060006140600000414000715b200003
:103ed00091407800d0cfb30000c060000240700075
:103ee000b7e5b70025ccbf004200dd00206f980089
:103ef000ae6890000100fb004780de00206f980054
:103f0000ae68900061c06000614060000041400008
:103f1000f15b200091407800d0cfb30000c060007a
:103f200002407000bfe5b70025ccbf000040400054
:103f30000000fb004780de006140600061406000df
:103f400000414000715c200091407800d0cfb30068
:103f500000c0600002407000c7e5b7001eccbf0083
:103f60004700dd00106f98009e6890000100fb0084
:103f70004780de00106f98009e68900061c060006e
:103f8000614060004201dd007159200091407800dd
:103f9000b0cfb30000c060000240700097e5b700ea
:103fa0001eccbf004600dd00006f98008e689000b8
:103fb0000100fb004780de00006f98008e689000d3
:103fc00061c06000614060004201dd00f1592000e5
:103fd00091407800b0cfb30000c060000240700094
:103fe0009fe5b7001eccbf004500dd00706798005c
:103ff000fe6090000100fb004780de0070679800c3
:10400000fe60900061c06000614060004201dd0020
:10401000715a200091407800b0cfb30000c060001a
:1040200002407000a7e5b7001eccbf004400dd00d1
:1040300060679800ee6090000100fb004780de00a2
:1040400060679800ee60900061c0600061406000b1
:104050004201dd00f15a200091407800b0cfb3005a
:1040600000c0600002407000afe5b7001eccbf008a
:104070004300dd0050679800de6090000100fb0007
:104080004780de0050679800de60900061c06000ed
:10409000614060004201dd00715b200091407800ca
:1040a000b0cfb30000c0600002407000b7e5b700b9
:1040b0001eccbf004200dd0040679800ce6090003b
:1040c0000100fb004780de0040679800ce60900052
:1040d00061c06000614060004201dd00f15b2000d2
:1040e00091407800b0cfb30000c060000240700083
:1040f000bfe5b7001eccbf00004040000000fb0041
:104100004780de0061406000614060004201dd00e8
:10411000715c200091407800b0cfb30000c0600017
:1041200002407000c7e5b7001fccbf004700dd00ac
:1041300030679800be6090000100fb004780de0001
:1041400030679800be60900061c060006140600010
:104150004301dd00715920009140780070cfb30019
:1041600000c060000240700097e5b7001fccbf00a0
:104170004600dd0020679800ae6090000100fb0063
:104180004780de0020679800ae60900061c060004c
:10419000614060004301dd00f1592000914078004a
:1041a00070cfb30000c06000024070009fe5b70010
:1041b0001fccbf004500dd00106798009e60900096
:1041c0000100fb004780de00106798009e609000b1
:1041d00061c06000614060004301dd00715a200051
:1041e0009140780070cfb30000c0600002407000c2
:1041f000a7e5b7001fccbf004400dd0000679800b2
:104200008e6090000100fb004780de000067980090
:104210008e60900061c06000614060004301dd007d
:10422000f15a20009140780070cfb30000c06000c8
:1042300002407000afe5b7001fccbf004300dd00b7
:10424000705f9800fe5890000100fb004780de0080
:10425000705f9800fe58900061c06000614060008f
:104260004301dd00715b20009140780070cfb30006
:1042700000c0600002407000b7e5b7001fccbf006f
:104280004200dd00605f9800ee5890000100fb00e6
:104290004780de00605f9800ee58900061c06000cb
:1042a000614060004301dd00f15b20009140780037
:1042b00070cfb30000c0600002407000bfe5b700df
:1042c0001fccbf00004040000000fb004780de0024
:1042d00061406000614060004301dd00715c2000ce
:1042e0009140780070cfb30000c0600002407000c1
:1042f000c7e5b70020ccbf004700dd00505f980045
:10430000de5890000100fb004780de00505f9800ff
:10431000de58900061c06000614060004401dd0033
:104320007159200091407800f0ceb30000c06000c9
:104330000240700097e5b70020ccbf004600dd00ca
:10434000405f9800ce5890000100fb004780de00df
:10435000405f9800ce58900061c0600061406000ee
:104360004401dd00f159200091407800f0ceb30007
:1043700000c06000024070009fe5b70020ccbf0085
:104380004500dd00305f9800be5890000100fb0042
:104390004780de00305f9800be58900061c060002a
:1043a000614060004401dd00715a200091407800b6
:1043b000f0ceb30000c0600002407000a7e5b70077
:1043c00020ccbf004400dd00205f9800ae58900074
:1043d0000100fb004780de00205f9800ae5890008f
:1043e00061c06000614060004401dd00f15a2000be
:1043f00091407800f0ceb30000c060000240700031
:10440000afe5b70020ccbf004300dd00105f98008f
:104410009e5890000100fb004780de00105f98006e
:104420009e58900061c06000614060004401dd0062
:10443000715b200091407800f0ceb30000c06000b6
:1044400002407000b7e5b70020ccbf004200dd009d
:10445000005f98008e5890000100fb004780de004e
:10446000005f98008e58900061c06000614060005d
:104470004401dd00f15b200091407800f0ceb300f4
:1044800000c0600002407000bfe5b70020ccbf0054
:10449000004040000000fb004780de0061406000fb
:1044a000614060004401dd00715c200091407800b3
:1044b000f0ceb30000c0600002407000c7e5b70056
:1044c00021ccbf004700dd0070579800fe509000df
:1044d0000100fb004780de0070579800fe509000fe
:1044e00061c06000614060004501dd00715920003d
:1044f00091407800f0cdb30000c060000240700031
:1045000097e5b70021ccbf004600dd00605798005a
:10451000ee5090000100fb004780de0060579800dd
:10452000ee50900061c06000614060004501dd0018
:10453000f159200091407800f0cdb30000c0600038
:10454000024070009fe5b70021ccbf004500dd00b0
:1045500050579800de5090000100fb004780de00bd
:1045600050579800de50900061c0600061406000cc
:104570004501dd00715a200091407800f0cdb30074
:1045800000c0600002407000a7e5b70021ccbf006a
:104590004400dd0040579800ce5090000100fb0021
:1045a0004780de0040579800ce50900061c0600008
:1045b000614060004501dd00f15a20009140780023
:1045c000f0cdb30000c0600002407000afe5b7005e
:1045d00021ccbf004300dd0030579800be50900052
:1045e0000100fb004780de0030579800be5090006d
:1045f00061c06000614060004501dd00715b20002a
:1046000091407800f0cdb30000c06000024070001f
:10461000b7e5b70021ccbf004200dd00205798006d
:10462000ae5090000100fb004780de00205798004c
:10463000ae50900061c06000614060004501dd0047
:10464000f15b200091407800f0cdb30000c0600025
:1046500002407000bfe5b70021ccbf000040400021
:104660000000fb004780de006140600061406000a8
:104670004501dd00715c200091407800f0cdb30071
:1046800000c0600002407000c7e5b70022ccbf0048
:104690004700dd00105798009e5090000100fb007d
:1046a0004780de00105798009e50900061c0600067
:1046b000614060004601dd007159200091407800a2
:1046c000f0cbb30000c060000240700097e5b70077
:1046d00022ccbf004600dd00005798008e509000ad
:1046e0000100fb004780de00005798008e509000cc
:1046f00061c06000614060004601dd00f1592000aa
:1047000091407800f0cbb30000c060000240700020
:104710009fe5b70022ccbf004500dd00704f980038
:10472000fe4890000100fb004780de00704f9800bb
:10473000fe48900061c06000614060004601dd00fd
:10474000715a200091407800f0cbb30000c06000a7
:1047500002407000a7e5b70022ccbf004400dd0096
:10476000604f9800ee4890000100fb004780de009b
:10477000604f9800ee48900061c0600061406000aa
:104780004601dd00f15a200091407800f0cbb300e3
:1047900000c0600002407000afe5b70022ccbf004f
:1047a0004300dd00504f9800de4890000100fb0000
:1047b0004780de00504f9800de48900061c06000e6
:1047c000614060004601dd00715b2000914078008f
:1047d000f0cbb30000c0600002407000b7e5b70046
:1047e00022ccbf004200dd00404f9800ce48900030
:1047f0000100fb004780de00404f9800ce4890004b
:1048000061c06000614060004601dd00f15b200096
:1048100091407800f0cbb30000c06000024070000f
:10482000bfe5b70022ccbf00004040000000fb0005
:104830004780de0061406000614060004601dd00ad
:10484000715c200091407800f0cbb30000c06000a4
:1048500002407000c7e5b70023ccbf004700dd0071
:10486000304f9800be4890000100fb004780de00fa
:10487000304f9800be48900061c06000c700dd0066
:1048800097c5bf000074a1000140700097e5b70014
:1048900023ccbf004600dd00204f9800ae489000ba
:1048a0000100fb004780de00204f9800ae489000da
:1048b00061c06000c700dd009fc5bf000074a1009b
:1048c000014070009fe5b70023ccbf004500dd002c
:1048d000104f98009e4890000100fb004780de00ca
:1048e000104f98009e48900061c06000c700dd0036
:1048f000a7c5bf000074a10001407000a7e5b70084
:1049000023ccbf004400dd00004f98008e4890008b
:104910000100fb004780de00004f98008e489000a9
:1049200061c06000c700dd00afc5bf000074a1001a
:1049300001407000afe5b70023ccbf004300dd00ad
:1049400070479800fe4090000100fb004780de00a9
:1049500070479800fe40900061c06000c700dd0015
:10496000b7c5bf000074a10001407000b7e5b700f3
:1049700023ccbf004200dd0060479800ee4090006d
:104980000100fb004780de0060479800ee40900089
:1049900061c06000c700dd00bfc5bf000074a1009a
:1049a00001407000bfe5b70023ccbf0000404000cd
:1049b0000000fb004780de0061406000c700dd00b2
:1049c000c7c5bf000074a10001407000c7e5b70073
:1049d00024ccbf004700dd0050479800de40900027
:1049e0000100fb004780de0050479800de40900049
:1049f00061c060006140600000414000f15c200047
:104a000091407800d0cfb30000c060000240700039
:104a1000cfe5b70024ccbf004600dd00404798003a
:104a2000ce4090000100fb004780de004047980028
:104a3000ce40900061c06000614060004201dd0036
:104a4000f15c200091407800b0cfb30000c060005e
:104a500002407000cfe5b70024ccbf004500dd0068
:104a600030479800be4090000100fb004780de0008
:104a700030479800be40900061c060006140600017
:104a80004301dd00f15c20009140780070cfb3005d
:104a900000c0600002407000cfe5b70024ccbf002a
:104aa0004400dd0020479800ae4090000100fb006c
:104ab0004780de0020479800ae40900061c0600053
:104ac000614060004401dd00f15c2000914078000d
:104ad000f0ceb30000c0600002407000cfe5b70028
:104ae00024ccbf004300dd00104798009e4090009a
:104af0000100fb004780de00104798009e409000b8
:104b000061c06000614060004501dd00f15c200093
:104b100091407800f0cdb30000c06000024070000a
:104b2000cfe5b70024ccbf004200dd00004f780085
:104b30009e4078000100fb004780de00004f7800b7
:104b40009e40780061c06000614060004601dd0069
:104b5000f15c200091407800f0cbb30000c0600011
:104b600002407000cfe5b70024ccbf0000404000f9
:104b70000000fb004780de0061406000c700dd00f0
:104b8000cfc5bf000074a10001407000cfe5b700a1
:104b9000cec5a8000080fa00000006000000fa0060
:104ba0008905a8008925a8008945a8008965a8006d
:104bb00089e5a8008a05a8008a25a8008a65a800ba
:104bc0008a85a8008aa5a8008ac5a8008ae5a80049
:104bd0008b05a8008b25a8008b45a8008c05a80094
:104be0008c25a8008c85a8008ca5a8008d45a80060
:104bf0008d65a8008d85a8008da5a8008e25a8002c
:104c00008e65a8008e85a8008ec5a8008ee5a80038
:104c10008f05a8008f25a8008f45a8008f65a800e4
:104c20008f85a8008fa5a8008fc5a8008fe5a800d4
:104c30000040eb00baecb7000040eb00bbecb70063
:104c40000040eb00bcecb700d2648000e36480005d
:104c5000b0a8200001002000800f5100818f590072
:104c600013003e0020c0b30000ecb700c8c2a8008b
:104c7000e0a2a800e0c2a800e0e2a800f0e2a800dc
:104c8000f102a800f0022800002c8800007020002b
:104c9000102c880020002000302c8800f000280014
:104ca000202c880010c0b300bcecb7001100370006
:104cb00010c0b30000ecb70040002000002c8800ba
:104cc000f00f2800102c880020002000302c8800d5
:104cd000315820009140780070ccb30000c06000d3
:104ce00083e5b700f0002800202c880010c0b30036
:104cf000bbecb7000080fa00000006000000fa00dc
:104d0000d2648000e3648000b0a82000010020008d
:104d1000800f5100818f590017003e0020c0b30062
:104d200000ecb700c8c2a800e0a2a800e0c2a8003a
:104d3000e0e2a800f0e2a800f102a800f0022800da
:104d4000002c880000702000102c8800200020001b
:104d5000302c8800f0002800202c88000040eb0058
:104d6000baecb7000040eb00bbecb70010c0b300da
:104d7000bcecb7001500370010c0b30000ecb70062
:104d800040002000002c8800f00f2800102c880024
:104d900020002000302c88003158200091407800fd
:104da00070ccb30000c0600083e5b700f0002800bd
:104db000202c88000040eb00baecb70010c0b30014
:104dc000bbecb7000040eb00bcecb7000080fa0081
:104dd000000006000000fa00cf25a900cf45a90079
:104de000cf65a900cf85a800cfa5a900cfc5a90090
:104df000cfe5a90097e5a9009fe5a900a7e5a800d0
:104e0000afe5a900b7e5a800bfe5a900c7e5a9007f
:104e100097c5a9009fc5a900a7c5a800afc5a9004f
:104e2000b7c5a800bfc5a900c7c5a90097a5a90017
:104e30009fa5a900a7a5a800afa5a800b7a5a80091
:104e4000bfa5a800c7a5a8009785a9009f85a900b0
:104e5000a785a900af85a900b785a900bf85a900ce
:104e6000c785a9009765a9009f65a900a765a80047
:104e7000af65a800b765a800bf65a800c765a80012
:104e80009745a9009f45a900a745a900af45a900de
:104e9000b745a900bf45a900c745a900cf45a9004e
:104ea0009725a9009f25a900a725a800af25a80040
:104eb000b725a800bf25a800c725a800cf25a900b1
:104ec0009705a9009f05a900a705a900af05a9009e
:104ed000b705a800bf05a900c705a900cf05a9000f
:104ee00096e5a9009ee5a900a6e5a900aee5a90002
:104ef000b6e5a800bee5a900c6e5a900cee5a90073
:104f000096c5a9009ec5a900a6c5a800aec5a80063
:104f1000b6c5a800bec5a800c6c5a800cec5a800d5
:104f20009685a9009e85a900a685a900ae85a90041
:104f3000b685a900be85a900c685a900ce85a900b1
:104f40009665a9009e65a900a665a800ae65a900a2
:104f5000b665a900be65a900c665a800ce65a90012
:104f60009625a9009e25a900a625a800ae25a90082
:104f7000b625a900be25a900c625a800ce25a900f2
:104f800095a5a9009da5a900a5a5a900ada5a80066
:104f9000b5a5a800bda5a800c5a5a900cda5a900d7
:104fa0009585a9009d85a900a585a900ad85a900c5
:104fb000b585a900bd85a900c585a900cd85a90035
:104fc0009565a9009d65a900a565a900ad65a80026
:104fd000b565a800bd65a800c565a900cd65a90097
:104fe0009545a9009d45a900a545a800ad45a90086
:104ff000b545a900bd45a900c545a800cd45a900f6
:1050000094a5a9009ca5a900a4a5a800aca5a900e9
:10501000b4a5a900bca5a900c4a5a800cca5a90059
:105020009485a9009c85a900a485a900ac85a80049
:10503000b485a800bc85a800c485a900cc85a900ba
:105040009425a9009c25a900a425a900ac25a900a8
:10505000b425a900bc25a900c425a900cc25a90018
:105060009405a9009c05a900a405a900ac05a80009
:10507000b405a800bc05a900c405a800cc05a9007a
:105080009345a9009b45a900a345a800ab45a900ed
:10509000b345a800bb45a800c345a900cb45a9005e
:1050a0009325a9009b25a900a325a800ab25a9004d
:1050b000b325a800bb25a900c325a900cb25a900bd
:1050c0009305a9009b05a900a305a800ab05a800ae
:1050d000b305a800bb05a800c305a800cb05a9001f
:1050e00092e5a9009ae5a900a2e5a900aae5a90010
:1050f000b2e5a900bae5a900c2e5a900cae5a90080
:1051000092c5a9009ac5a900a2c5a800aac5a90070
:10511000b2c5a900bac5a900c2c5a800cac5a900e0
:1051200092a5a9009aa5a900a2a5a800aaa5a900d0
:10513000b2a5a900baa5a900c2a5a800caa5a90040
:105140009285a9009a85a900a285a900aa85a80030
:10515000b285a800ba85a800c285a900ca85a900a1
:105160009265a9009a65a900a265a900aa65a9008f
:10517000b265a900ba65a900c265a900ca65a900ff
:105180009225a9009a25a900a225a800aa25a80071
:10519000b225a800ba25a800c225a800ca25a900e2
:1051a0009205a9009a05a900a205a900aa05a900cf
:1051b000b205a900ba05a900c205a900ca05a9003f
:1051c00091e5a80099e5a800a1e5a800a9e5a80037
:1051d000b1e5a800b9e5a800c1e5a800c9e5a900a6
:1051e0009165a9009965a800a165a900a965a90014
:1051f000b165a900b965a900c165a900c965a90083
:105200009145a9009945a900a145a800a945a90073
:10521000b145a900b945a900c145a900c945a900e2
:105220009125a9009925a800a125a900a925a900d3
:10523000b125a900b925a900c125a900c925a90042
:105240009105a8009905a800a105a800a905a80036
:10525000b105a800b905a800c105a800c905a900a5
:105260000080fa00000006000000fa00cf25a90027
:10527000cf45a900cf65a900cf85a900cfa5a9007a
:10528000cfc5a900cfe5a90097e5a9009fe5a90032
:10529000a7e5a900afe5a900b7e5a900bfe5a9000a
:1052a000c7e5a90097c5a9009fc5a900a7c5a90082
:1052b000afc5a900b7c5a900bfc5a900c7c5a9004a
:1052c00097a5a9009fa5a900a7a5a900afa5a9001a
:1052d000b7a5a900bfa5a900c7a5a9009785a900e2
:1052e0009f85a900a785a900af85a900b785a9005a
:1052f000bf85a900c785a9009765a9009f65a9007a
:10530000a765a900af65a900b765a900bf65a90099
:10531000c765a9009745a9009f45a900a745a90011
:10532000af45a900b745a900bf45a900c745a900d9
:10533000cf45a9009725a9009f25a900a725a90069
:10534000af25a900b725a900bf25a900c725a90039
:10535000cf25a9009705a9009f05a900a705a900c9
:10536000af05a900b705a900bf05a900c705a90099
:10537000cf05a90096e5a9009ee5a900a6e5a9002c
:10538000aee5a900b6e5a900bee5a900c6e5a900fd
:10539000cee5a90096c5a9009ec5a900a6c5a9008d
:1053a000aec5a900b6c5a900bec5a900c6c5a9005d
:1053b000cec5a9009685a9009e85a900a685a9004d
:1053c000ae85a900b685a900be85a900c685a9003d
:1053d000ce85a9009665a9009e65a900a665a900cd
:1053e000ae65a900b665a900be65a900c665a9009d
:1053f000ce65a9009625a9009e25a900a625a9008d
:10540000ae25a900b625a900be25a900c625a9007c
:10541000ce25a90095a5a9009da5a900a5a5a9002f
:10542000ada5a900b5a5a900bda5a900c5a5a90060
:10543000cda5a9009585a9009d85a900a585a900f0
:10544000ad85a900b585a900bd85a900c585a900c0
:10545000cd85a9009565a9009d65a900a565a90050
:10546000ad65a900b565a900bd65a900c565a90020
:10547000cd65a9009545a9009d45a900a545a900b0
:10548000ad45a900b545a900bd45a900c545a90080
:10549000cd45a90094a5a9009ca5a900a4a5a90093
:1054a000aca5a900b4a5a900bca5a900c4a5a900e4
:1054b000cca5a9009485a9009c85a900a485a90074
:1054c000ac85a900b485a900bc85a900c485a90044
:1054d000cc85a9009425a9009c25a900a425a90094
:1054e000ac25a900b425a900bc25a900c425a900a4
:1054f000cc25a9009405a9009c05a900a405a90034
:10550000ac05a900b405a900bc05a900c405a90003
:10551000cc05a9009345a9009b45a900a345a90076
:10552000ab45a900b345a900bb45a900c345a900e7
:10553000cb45a9009325a9009b25a900a325a90077
:10554000ab25a900b325a900bb25a900c325a90047
:10555000cb25a9009305a9009b05a900a305a900d7
:10556000ab05a900b305a900bb05a900c305a900a7
:10557000cb05a90092e5a9009ae5a900a2e5a9003a
:10558000aae5a900b2e5a900bae5a900c2e5a9000b
:10559000cae5a90092c5a9009ac5a900a2c5a9009b
:1055a000aac5a900b2c5a900bac5a900c2c5a9006b
:1055b000cac5a90092a5a9009aa5a900a2a5a900fb
:1055c000aaa5a900b2a5a900baa5a900c2a5a900cb
:1055d000caa5a9009285a9009a85a900a285a9005b
:1055e000aa85a900b285a900ba85a900c285a9002b
:1055f000ca85a9009265a9009a65a900a265a900bb
:10560000aa65a900b265a900ba65a900c265a9008a
:10561000ca65a9009225a9009a25a900a225a9007a
:10562000aa25a900b225a900ba25a900c225a9006a
:10563000ca25a9009205a9009a05a900a205a900fa
:10564000aa05a900b205a900ba05a900c205a900ca
:10565000ca05a90091e5a90099e5a900a1e5a9005d
:10566000a9e5a900b1e5a900b9e5a900c1e5a9002e
:10567000c9e5a9009165a9009965a900a165a900de
:10568000a965a900b165a900b965a900c165a9000e
:10569000c965a9009145a9009945a900a145a9009e
:1056a000a945a900b145a900b945a900c145a9006e
:1056b000c945a9009125a9009925a900a125a900fe
:1056c000a925a900b125a900b925a900c125a900ce
:1056d000c925a9009105a9009905a900a105a9005e
:1056e000a905a900b105a900b905a900c105a9002e
:1056f000c905a9000080fa00000006000000fa00b9
:105700009105a8009905a800a105a800a905a80071
:10571000b105a800b905a800c105a800c905a800e1
:105720009125a8009925a800a125a800a925a800d1
:10573000b125a800b925a800c125a800c925a80041
:105740009145a8009945a800a145a800a945a80031
:10575000b145a800b945a800c145a800c945a800a1
:105760009165a8009965a800a165a800a965a80091
:10577000b165a800b965a800c165a800c965a80001
:1057800091e5a80099e5a800a1e5a800a9e5a80071
:10579000b1e5a800b9e5a800c1e5a800c9e5a800e1
:1057a0009205a8009a05a800a205a800aa05a800cd
:1057b000b205a800ba05a800c205a800ca05a8003d
:1057c0009225a8009a25a800a225a800aa25a8002d
:1057d000b225a800ba25a800c225a800ca25a8009d
:1057e0009265a8009a65a800a265a800aa65a8000d
:1057f000b265a800ba65a800c265a800ca65a8007d
:105800009285a8009a85a800a285a800aa85a8006c
:10581000b285a800ba85a800c285a800ca85a800dc
:1058200092a5a8009aa5a800a2a5a800aaa5a800cc
:10583000b2a5a800baa5a800c2a5a800caa5a8003c
:1058400092c5a8009ac5a800a2c5a800aac5a8002c
:10585000b2c5a800bac5a800c2c5a800cac5a8009c
:1058600092e5a8009ae5a800a2e5a800aae5a8008c
:10587000b2e5a800bae5a800c2e5a800cae5a800fc
:105880009305a8009b05a800a305a800ab05a800e8
:10589000b305a800bb05a800c305a800cb05a80058
:1058a0009325a8009b25a800a325a800ab25a80048
:1058b000b325a800bb25a800c325a800cb25a800b8
:1058c0009345a8009b45a800a345a800ab45a800a8
:1058d000b345a800bb45a800c345a800cb45a80018
:1058e0009405a8009c05a800a405a800ac05a80084
:1058f000b405a800bc05a800c405a800cc05a800f4
:105900009425a8009c25a800a425a800ac25a800e3
:10591000b425a800bc25a800c425a800cc25a80053
:105920009485a8009c85a800a485a800ac85a80043
:10593000b485a800bc85a800c485a800cc85a800b3
:1059400094a5a8009ca5a800a4a5a800aca5a800a3
:10595000b4a5a800bca5a800c4a5a800cca5a80013
:105960009545a8009d45a800a545a800ad45a800ff
:10597000b545a800bd45a800c545a800cd45a8006f
:105980009565a8009d65a800a565a800ad65a8005f
:10599000b565a800bd65a800c565a800cd65a800cf
:1059a0009585a8009d85a800a585a800ad85a800bf
:1059b000b585a800bd85a800c585a800cd85a8002f
:1059c00095a5a8009da5a800a5a5a800ada5a8001f
:1059d000b5a5a800bda5a800c5a5a800cda5a8008f
:1059e0009625a8009e25a800a625a800ae25a800fb
:1059f000b625a800be25a800c625a800ce25a8006b
:105a00009665a8009e65a800a665a800ae65a800da
:105a1000b665a800be65a800c665a800ce65a8004a
:105a20009685a8009e85a800a685a800ae85a8003a
:105a3000b685a800be85a800c685a800ce85a800aa
:105a400096c5a8009ec5a800a6c5a800aec5a8001a
:105a5000b6c5a800bec5a800c6c5a800cec5a8008a
:105a600096e5a8009ee5a800a6e5a800aee5a8007a
:105a7000b6e5a800bee5a800c6e5a800cee5a800ea
:105a80009705a8009f05a800a705a800af05a800d6
:105a9000b705a800bf05a800c705a800cf05a80046
:105aa0009725a8009f25a800a725a800af25a80036
:105ab000b725a800bf25a800c725a800cf25a800a6
:105ac0009745a8009f45a800a745a800af45a80096
:105ad000b745a800bf45a800c745a800cf45a80006
:105ae0009765a8009f65a800a765a800af65a800f6
:105af000b765a800bf65a800c765a800cf65a80066
:105b00009785a8009f85a800a785a800af85a80055
:105b1000b785a800bf85a800c785a800cf85a800c5
:105b200097a5a8009fa5a800a7a5a800afa5a800b5
:105b3000b7a5a800bfa5a800c7a5a800cfa5a80025
:105b400097c5a8009fc5a800a7c5a800afc5a80015
:105b5000b7c5a800bfc5a800c7c5a800cfc5a80085
:105b600097e5a8009fe5a800a7e5a800afe5a80075
:105b7000b7e5a800bfe5a800c7e5a800cfe5a800e5
:105b80000080fa00000006000200fa00004f7800d2
:105b90009105a9009905a900a105a900a905a900d9
:105ba000b105a900b905a900c105a900c905a8004a
:105bb0009125a8009925a800a125a800a925a8003d
:105bc000b125a800b925a800c125a800c925a800ad
:105bd0009145a9009945a800a145a800a945a8009c
:105be000b145a800b945a800c145a800c945a8000d
:105bf0000080fa00000006000600fa00004f78005e
:105c00001e80fb006101b90012079800230798006d
:105c1000a0002000010020001e019000ae019000b5
:105c2000800f5100818f590099013e001e009000a5
:105c3000ae009000006001000a0037002d00370020
:105c4000500037007300370096003700b900370066
:105c5000dc003700ff003700220137004501370024
:105c6000680137009285a9009a85a800a285a8003e
:105c7000aa85a800b285a800ba85a800c285a90097
:105c80009265a8009a65a900a265a900aa65a90065
:105c9000b265a900ba65a900c265a8009225a8004e
:105ca0009a25a900a225a900aa25a900b225a90024
:105cb000ba25a900c225a8009205a8009a05a90046
:105cc000a205a900aa05a900b205a900ba05a90064
:105cd000c205a80091e5a90099e5a800a1e5a800e2
:105ce000a9e5a800b1e5a800b9e5a800c1e5a900ab
:105cf000670137009285a9009a85a900a285a900ad
:105d0000aa85a900b285a900ba85a900c285a90003
:105d10009265a9009a65a900a265a900aa65a900d3
:105d2000b265a900ba65a900c265a9009225a800bc
:105d30009a25a800a225a800aa25a800b225a80097
:105d4000ba25a800c225a8009205a9009a05a800b6
:105d5000a205a900aa05a900b205a900ba05a900d3
:105d6000c205a90091e5a90099e5a900a1e5a9004e
:105d7000a9e5a900b1e5a900b9e5a900c1e5a90017
:105d8000430137009285a9009a85a800a285a80042
:105d9000aa85a900b285a900ba85a900c285a80074
:105da0009265a8009a65a900a265a900aa65a80045
:105db000b265a900ba65a900c265a8009225a8002d
:105dc0009a25a900a225a900aa25a900b225a80004
:105dd000ba25a900c225a8009205a8009a05a90025
:105de000a205a900aa05a900b205a900ba05a80044
:105df000c205a80091e5a90099e5a800a1e5a900c0
:105e0000a9e5a900b1e5a900b9e5a900c1e5a80087
:105e10001f0137009285a8009a85a900a285a900d4
:105e2000aa85a900b285a800ba85a800c285a900e4
