:020000040000fa
:080000000002040000000000f2
:020000040000fa
:0400080004030000ed
:020000040000fa
:04000c0004030000e9
:020000040000fa
:0400100004030000e5
:020000040000fa
:0400140004030000e1
:020000040000fa
:0400180004030000dd
:020000040000fa
:04001c0004030000d9
:020000040000fa
:0400200004030000d5
:020000040000fa
:0400240004030000d1
:020000040000fa
:0400280004030000cd
:020000040000fa
:04002c0004030000c9
:020000040000fa
:0400300004030000c5
:020000040000fa
:0400340004030000c1
:020000040000fa
:0400380004030000bd
:020000040000fa
:04003c0004030000b9
:020000040000fa
:0400400004030000b5
:020000040000fa
:0400440004030000b1
:020000040000fa
:0400480004030000ad
:020000040000fa
:04004c0004030000a9
:020000040000fa
:0400500004030000a5
:020000040000fa
:0400540004030000a1
:020000040000fa
:04005800040300009d
:020000040000fa
:04005c000403000099
:020000040000fa
:040060000403000095
:020000040000fa
:040064000403000091
:020000040000fa
:04006800040300008d
:020000040000fa
:04006c00680e00001a
:020000040000fa
:040070000403000085
:020000040000fa
:040074000403000081
:020000040000fa
:04007800040300007d
:020000040000fa
:04007c000403000079
:020000040000fa
:040080000403000075
:020000040000fa
:040084000403000071
:020000040000fa
:04008800040300006d
:020000040000fa
:04008c000403000069
:020000040000fa
:040090000403000065
:020000040000fa
:040094000403000061
:020000040000fa
:04009800040300005d
:020000040000fa
:04009c000403000059
:020000040000fa
:0400a000ee1000005e
:020000040000fa
:0400a400ac1000009c
:020000040000fa
:0400a800040300004d
:020000040000fa
:0400ac000403000049
:020000040000fa
:0400b0000403000045
:020000040000fa
:0400b4000403000041
:020000040000fa
:0400b800040300003d
:020000040000fa
:0400bc000403000039
:020000040000fa
:0400c0000403000035
:020000040000fa
:0400c4000403000031
:020000040000fa
:0400c800040300002d
:020000040000fa
:0400cc000403000029
:020000040000fa
:0400d0000403000025
:020000040000fa
:0400d4000403000021
:020000040000fa
:0400d800040300001d
:020000040000fa
:0400dc000403000019
:020000040000fa
:0400e0000403000015
:020000040000fa
:0400e4000403000011
:020000040000fa
:0400e800040300000d
:020000040000fa
:0400ec000403000009
:020000040000fa
:0400f0000403000005
:020000040000fa
:0400f4000403000001
:020000040000fa
:0400f80004030000fd
:020000040000fa
:0400fc0004030000f9
:020000040000fa
:0401000004030000f4
:020000040000fa
:0401040004030000f0
:020000040000fa
:0401080004030000ec
:020000040000fa
:04010c0004030000e8
:020000040000fa
:0401100004030000e4
:020000040000fa
:0401140004030000e0
:020000040000fa
:0401180004030000dc
:020000040000fa
:04011c0004030000d8
:020000040000fa
:040120009a1400002d
:020000040000fa
:0401240004030000d0
:020000040000fa
:0401280004030000cc
:020000040000fa
:04012c0004030000c8
:020000040000fa
:040130002411000096
:020000040000fa
:0401340004030000c0
:020000040000fa
:0401380004030000bc
:020000040000fa
:04013c0004030000b8
:020000040000fa
:0401400004030000b4
:020000040000fa
:0401440004030000b0
:020000040000fa
:0401480004030000ac
:020000040000fa
:04014c0004030000a8
:020000040000fa
:0401500004030000a4
:020000040000fa
:0401540004030000a0
:020000040000fa
:04015800040300009c
:020000040000fa
:04015c000403000098
:020000040000fa
:040160000403000094
:020000040000fa
:040164000403000090
:020000040000fa
:04016800040300008c
:020000040000fa
:04016c000403000088
:020000040000fa
:040170000403000084
:020000040000fa
:040174000403000080
:020000040000fa
:04017800040300007c
:020000040000fa
:04017c000403000078
:020000040000fa
:040180000403000074
:020000040000fa
:040184000403000070
:020000040000fa
:04018800040300006c
:020000040000fa
:04018c000403000068
:020000040000fa
:040190000403000064
:020000040000fa
:040194000403000060
:020000040000fa
:04019800040300005c
:020000040000fa
:04019c000403000058
:020000040000fa
:0401a0000403000054
:020000040000fa
:0401a4000403000050
:020000040000fa
:0401a800040300004c
:020000040000fa
:0401ac000403000048
:020000040000fa
:0401b0000403000044
:020000040000fa
:0401b4000403000040
:020000040000fa
:0401b800040300003c
:020000040000fa
:0401bc000403000038
:020000040000fa
:0401c0000403000034
:020000040000fa
:0401c4000403000030
:020000040000fa
:0401c800040300002c
:020000040000fa
:0401cc000403000028
:020000040000fa
:0401d0000403000024
:020000040000fa
:0401d4000403000020
:020000040000fa
:0401d800040300001c
:020000040000fa
:0401dc000403000018
:020000040000fa
:0401e0000403000014
:020000040000fa
:0401e4000403000010
:020000040000fa
:0401e800040300000c
:020000040000fa
:0401ec000403000008
:020000040000fa
:0401f0000403000004
:020000040000fa
:0401f4000403000000
:020000040000fa
:0401f80004030000fc
:020000040000fa
:0401fc0004030000f8
:020000040000fa
:0402080004030000eb
:020000040000fa
:04020c0004030000e7
:020000040000fa
:0402100004030000e3
:020000040000fa
:0402140004030000df
:020000040000fa
:0402180004030000db
:020000040000fa
:04021c0004030000d7
:020000040000fa
:0402200004030000d3
:020000040000fa
:0402240004030000cf
:020000040000fa
:0402280004030000cb
:020000040000fa
:04022c0004030000c7
:020000040000fa
:0402300004030000c3
:020000040000fa
:0402340004030000bf
:020000040000fa
:0402380004030000bb
:020000040000fa
:04023c0004030000b7
:020000040000fa
:0402400004030000b3
:020000040000fa
:0402440004030000af
:020000040000fa
:0402480004030000ab
:020000040000fa
:04024c0004030000a7
:020000040000fa
:0402500004030000a3
:020000040000fa
:04025400040300009f
:020000040000fa
:04025800040300009b
:020000040000fa
:04025c000403000097
:020000040000fa
:040260000403000093
:020000040000fa
:04026400040300008f
:020000040000fa
:04026800040300008b
:020000040000fa
:04026c000403000087
:020000040000fa
:040270000403000083
:020000040000fa
:04027400040300007f
:020000040000fa
:04027800040300007b
:020000040000fa
:04027c000403000077
:020000040000fa
:040280000403000073
:020000040000fa
:04028400040300006f
:020000040000fa
:04028800040300006b
:020000040000fa
:04028c000403000067
:020000040000fa
:040290000403000063
:020000040000fa
:04029400040300005f
:020000040000fa
:04029800040300005b
:020000040000fa
:04029c000403000057
:020000040000fa
:0402a0000403000053
:020000040000fa
:0402a400040300004f
:020000040000fa
:0402a800040300004b
:020000040000fa
:0402ac000403000047
:020000040000fa
:0402b0000403000043
:020000040000fa
:0402b400040300003f
:020000040000fa
:0402b800040300003b
:020000040000fa
:0402bc000403000037
:020000040000fa
:0402c0000403000033
:020000040000fa
:0402c400040300002f
:020000040000fa
:0402c800040300002b
:020000040000fa
:0402cc000403000027
:020000040000fa
:0402d0000403000023
:020000040000fa
:0402d400040300001f
:020000040000fa
:0402d800040300001b
:020000040000fa
:0402dc000403000017
:020000040000fa
:0402e0000403000013
:020000040000fa
:0402e400040300000f
:020000040000fa
:0402e800040300000b
:020000040000fa
:0402ec000403000007
:020000040000fa
:0402f0000403000003
:020000040000fa
:0402f40004030000ff
:020000040000fa
:0402f80004030000fb
:020000040000fa
:0402fc0004030000f7
:020000040000fa
:0403000004030000f2
:020000040000fa
:0403040004030000ee
:020000040000fa
:0403080004030000ea
:020000040000fa
:04030c0004030000e6
:020000040000fa
:0403100004030000e2
:020000040000fa
:0403140004030000de
:020000040000fa
:0403180004030000da
:020000040000fa
:04031c0004030000d6
:020000040000fa
:0403200004030000d2
:020000040000fa
:0403240004030000ce
:020000040000fa
:0403280004030000ca
:020000040000fa
:04032c0004030000c6
:020000040000fa
:0403300004030000c2
:020000040000fa
:0403340004030000be
:020000040000fa
:0403380004030000ba
:020000040000fa
:04033c0004030000b6
:020000040000fa
:0403400004030000b2
:020000040000fa
:0403440004030000ae
:020000040000fa
:0403480004030000aa
:020000040000fa
:04034c0004030000a6
:020000040000fa
:0403500004030000a2
:020000040000fa
:04035400040300009e
:020000040000fa
:04035800040300009a
:020000040000fa
:04035c000403000096
:020000040000fa
:040360000403000092
:020000040000fa
:04036400040300008e
:020000040000fa
:04036800040300008a
:020000040000fa
:04036c000403000086
:020000040000fa
:040370000403000082
:020000040000fa
:04037400040300007e
:020000040000fa
:04037800040300007a
:020000040000fa
:04037c000403000076
:020000040000fa
:040380000403000072
:020000040000fa
:04038400040300006e
:020000040000fa
:04038800040300006a
:020000040000fa
:04038c000403000066
:020000040000fa
:040390000403000062
:020000040000fa
:04039400040300005e
:020000040000fa
:04039800040300005a
:020000040000fa
:04039c000403000056
:020000040000fa
:0403a0000403000052
:020000040000fa
:0403a400040300004e
:020000040000fa
:0403a800040300004a
:020000040000fa
:0403ac000403000046
:020000040000fa
:0403b0000403000042
:020000040000fa
:0403b400040300003e
:020000040000fa
:0403b800040300003a
:020000040000fa
:0403bc000403000036
:020000040000fa
:0403c0000403000032
:020000040000fa
:0403c400040300002e
:020000040000fa
:0403c800040300002a
:020000040000fa
:0403cc000403000026
:020000040000fa
:0403d0000403000022
:020000040000fa
:0403d400040300001e
:020000040000fa
:0403d800040300001a
:020000040000fa
:0403dc000403000016
:020000040000fa
:0403e0000403000012
:020000040000fa
:0403e400040300000e
:020000040000fa
:0403e800040300000a
:020000040000fa
:0403ec000403000006
:020000040000fa
:0403f0000403000002
:020000040000fa
:0403f40004030000fe
:020000040000fa
:0403f80004030000fa
:020000040000fa
:0403fc0004030000f6
:020000040000fa
:100400006f8b20000e7f22000e018800000000008c
:10041000000020000000e000020032000001200087
:100420002002880014000700790007000000e000a7
:1004300003003a00605b2100010020000200370049
:100440000000200001002000810f70000100320038
:1004500014000700000020000000e000020032004d
:1004600000000200000000009e14020000000000d6
:100470000040da000000fe004440a9008005200092
:100480000000e000030032000020200090018800fe
:100490004440a800000006008a1f78008b1f7800e7
:1004a00000000600a1028800800478000000eb0034
:1004b0001f003700e284440054a0b4009905ba003c
:1004c000e284440054a0b4009906ba00e2844400d7
:1004d00054a0b4000006eb00476fde00fd07b20039
:1004e000ae018800636ce10003003a00eaff0700f8
:1004f0000000eb000e003700606ce10008003a00dd
:10050000004deb000a05e800020039003420ec0041
:100510000af0a0008b05e900f9ff3e000400370057
:100520006168e100010032000086eb000b0007006b
:1005300019c7ba001905ba000e04e00003003a001a
:100540000a00e000dbff3a0000000600fe07b200f0
:10055000ae0288008a047800f5ff37000cd0a300b3
:10056000e20f4d001c00390089027800354dba00b9
:100570000a05e800020039003420ec000af0a0006f
:100580008b05e9000f003200254dba000a05e8008e
:10059000020039003420ec000af0a0008b05e900cd
:1005a000080032000c00e0000600320015cdba0051
:1005b0000a05e800020039003420ec000af0a0002f
:1005c0008b05e9008984e80054a0b4000b00e0002a
:1005d000e2ff3a00000006009902ba00055d7800cb
:1005e0008b05e900f7ff3200c82ade00055d7800c0
:1005f0008b05e900f3ff32000c00e000f1ff320050
:1006000019ddba00eeff37000040da000000fe00fe
:1006100000000500889fbe008a9fbe008c1f7800e6
:10062000960007009d00330003866c006450e100d3
:100630002e0032006420e100330032006150e100fe
:100640002f0032006120e100310032008585550025
:10065000eb07b00009002000080420000500370067
:100660000804440089844c000a003100060343005a
:1006700087834b000001530081815b00f8ff33004a
:100680000203be000800a0000804440089844c0056
:10069000f6ff3900c639dd00830173000100320026
:1006a000130020008904d1000884d3000998a30016
:1006b000050032000800a7000300a0008904d10053
:1006c0000884d3008b05e8008904d1000884d30096
:1006d0000001eb000281d2002d00070001f0a10013
:1006e0000cf0a70001f0a000750037006420e100c5
:1006f000770032000801be000200be00f7ff37009d
:100700006120e100720032006000b800f3ff3700a2
:100710000000200001f82700f0ff37000001be00b4
:10072000410007000470a70003f0a10003f8a30034
:1007300013003a006509b1001000320009003500cd
:100740006928e100020035000100280000000500d2
:1007500000004000818048008502e900fcff3a006b
:1007600000000600f88f4200050035008100d1002e
:100770000080d3008502e800fcff3a00000006007c
:100780008000eb00000005006011b8006a0237002d
:1007900081002000618055000b003d000b0020000f
:1007a00061fe2f000100e1001d0034008281710014
:1007b000610164008904d1000884d3000000e800ce
:1007c000faff3a007100200061006400030070002d
:1007d000020060000900320061044400e0844c0023
:1007e0000988a500050032008b05e8006808e100d3
:1007f00002003a008904d1000884d300f20f2000df
:100800000258e10005003d00c75ddd00f907b200b8
:100810008980750008007800000006000bf82700aa
:100820008b00780000000500c70ade00f107b20067
:10083000f50fb20008003200e1cf420002003200a2
:100840000170a00024000500810f7000010032003b
:100850000408050044000500810f700002003a0002
:10086000140005008502e9000000400081c0480036
:10087000fcff3b000170a000240005000004be0046
:10088000e9ff07000003be000405be000200be0031
:10089000e5ff0700844f7500000006000200be005f
:1008a0006450e100050036006420e10002003600db
:1008b0000968a30001003a000800be000160a00022
:1008c0004f0678004f05be004f04be000000060032
:1008d000f0ff2f00f1ff2700f9ff3700811f78009c
:1008e0000100e00002003d0060001000e080180000
:1008f0000300e00002003d0060011100e0811900ea
:10090000e80007004f00e00002003b00600010001c
:10091000e0801800000006000c00fa00889fbe006e
:100920008a9fbe008c9fbe00d4ff07000206be0057
:10093000840578000200be0002002000af0107001d
:1009400005003a008b02b30012002000ab01070043
:1009500001003a00f8856d000c01be00c6000700da
:100960000800be009b0032000b08a3009e003a0066
:100970000df0a7000be0a00009f0a7000bf0a0000d
:1009800009f0a1000801be00bb0007000bf0a600a3
:100990009500320001003c000bd0a0008acf75000a
:1009a000b20033006000b8006250e10099003900e5
:1009b000a1003e000b28a300a2003a000bf8a30000
:1009c000060032000b58a300a70032000801be0049
:1009d000a90007000800be00940032000800be0015
:1009e000b90007000004be00050578000bf0a70061
:1009f0000b30a6000bf0a1005b079800324f2000df
:100a000053f32300a401070005003d000800be00c9
:100a100012002000f70107000004be000a05e900eb
:100a20004a0798006150b900c0010700008fbe005e
:100a30000c01be00680207009b0107003007980008
:100a40000100e00002003d0060001000e08018009e
:100a5000f2ff2700820f5000e08f580064003e0034
:100a60000c00be009001070020079800f20720004c
:100a7000820f5000e08f580005003c0012f82f0054
:100a8000f3ff2f00820f5000838f580009003d00b4
:100a90000a00e0000300320001003c000201ea000d
:100aa000020578006000b800200798003a07980017
:100ab000190037003e0090006100b9009b0107005b
:100ac000809fbe000c00be004109dd004811de0021
:100ad0007208b100490107000005be001e01be00fa
:100ae0003d0207004f01be0084000700809fbe004a
:100af0000c00be000a01be00800007001e01be00ff
:100b0000350207004f01be007d000700822127004b
:100b100013f32300300207000005be002e009000f2
:100b20006100b9008101070001f0a2000c01be00c4
:100b3000730007000006be000800be00cf010700da
:100b40000c01be00240207000a01be006c00070071
:100b5000809fbe004a0007002e0590000af0a70003
:100b60000a05ea00050037000800be000801be00c3
:100b7000190207000004be000c00be000801be0000
:100b80000a00a700140207000006be000a05d100f3
:100b9000f5ff3a005e01900002e0a6000300370076
:100ba0000001be00360007009afe07000004be00e8
:100bb0004f00be00af0007000801be00060207009c
:100bc0003e0190008b010700de0590000bf0a700ae
:100bd00001f0a2004f06be004f05be004f04be004c
:100be0000080fa000000060025000700f9ff37002a
:100bf000270007006000b8000bd0a7000bc0a000c2
:100c00000be0a7000bc0a2000bc0a70001f8270053
:100c1000f0ff37000df8a300020032001e000700ad
:100c2000190007000bf8a300eaff32000b30a70001
:100c300001f0a200e7ff37000df8a300f9ff3a002a
:100c4000f7ff37000801be000b000700e6ff320087
:100c500001003c000df0a2006000b8000df0a700fc
:100c600009000700dbff37000b000700f1ff27003a
:100c7000f0ff2f00d7ff3700010007000601370003
:100c800001f823000000050001f82700000005001e
:100c9000200220000100370010022000b040880030
:100ca00000000600000207000400be00000006006d
:100cb000020ab900001bb9000200b800810042001e
:100cc00081004300000006000003be00d6fe0700be
:100cd0006220e100020032000600be0005000500af
:100ce000e507b100f107b20004f023008480700032
:100cf00007f0a70001f0a0002400050003f0a20007
:100d0000889fbe008a9fbe008c1f7800dbfe070014
:100d1000e2fe33006450e1004f0032006420e10045
:100d20005200320003826c0007003b000905d0002e
:100d30000306d000820f54000c065d00020039004b
:100d40000200320089017800030678008582550090
:100d500004003d000003fd008103fd008502ea0060
:100d60008b854200840f720002003b00600010007f
:100d7000e08018006011b8000005eb007a28e1005f
:100d80000a00390006007800c75ddd00f707b200f1
:100d9000878075002d003700828171000a0178007c
:100da000610560008180d1000080d3008502e900e8
:100db000f9ff3b00060440008784480002003b0026
:100dc00060041400e0841c000988a30007003200be
:100dd0008a81710082817100610164008904d100ff
:100de0000884d3008b05e800170037000978a300ba
:100df00013003a000b00e000130034008b05e900fb
:100e00000804440089844c000a4474000978a30053
:100e10000d003a000b00e000070034008b05e900ec
:100e20000804440089844c0001003a000b002000b3
:100e30000978a300f7ff32000001eb000200370041
:100e4000828171000a01780051fe07000cf0a700b2
:100e500001f0a0009afe37006420e10002003a0091
:100e6000838f6c009afe33000801be000200be00b2
:100e700093fe3700889fbe008a9fbe008c9fbe00f5
:100e80000004be0068fe07000800be006420e10008
:100e900048003e005500320072212700132b240029
:100ea0007f00070047003c000800be00c2ec28009d
:100eb000e32c2c0078000700470035000800be0036
:100ec00001f0a10002002000033823007200070097
:100ed000430035000800be00b2a32a0083fb2300b4
:100ee0003d0107000200200003f0230001f0a700ed
:100ef00003f0a00082ff07006b0007000005be00a2
:100f00008a00070001f0a2000006be0002002800cf
:100f100013f32300300107000801be0078ff07002b
:100f2000809fbe000c00be0032082800e3952b0015
:100f3000290107004f01be0071ff07000006be0037
:100f40000001be0024010700809fbe004241250031
:100f500083b82300200107000200200003e82300db
:100f600067ff07000c01be001b0107000006be0062
:100f70004f00be00f2f92b00c3d423001601070076
:100f80000200200003f023005dff07000c01be00fb
:100f90005aff07000001be000c00be009dfd0700c7
:100fa0000200200003f0230055ff07006101450007
:100fb000900007004f06be004f05be004f04be0064
:100fc0000000060001f82700000020002202200097
:100fd000b2408800f7ff37006000b800fbff370021
:100fe00001f8230000002000f2ff370009f8a300f9
:100ff000f0ff32006000b800eeff3700889fbe00af
:101000008a9fbe000003be0007fe0700850578002a
:1010100082815200020020006220e10004003a00b8
:10102000f307b100040035007718e1000400350033
:101030000600be00140037006000b8000f00370043
:10104000f50f2000faff2f008502d1000a85d3009a
:101050008301e900fcff3b0081846200000465001d
:10106000890f7400f2ff32008582ea000a85ea00e7
:101070008184620000046500c5fd070007f0a70039
:1010800001f0a0000081eb000200e0004f05be006f
:101090004f04be00000006001400200012013700bb
:1010a000f4ff2f00100137000001be00defd070035
:1010b0000470a70003f0a1006509b100160032001a
:1010c0000d0035006828e10006003500f0ff2f0014
:1010d000f1ff27000300e00013003b00010028009f
:1010e0000000050000004000818048008502e90002
:1010f000fcff3a0008003700f88f420002003c0075
:101100008000eb00000005008100d1000080d300ca
:101110008502e800fcff3a000300e00002003b000b
:1011200060001000e0801800000006004f89de001b
:101130008201780007013700889fbe008a9fbe00a9
:1011400000827000040271000482710026003200e7
:101150000004be000200be006011b8006b09200050
:10116000950220000182cf000a0039000541b1003c
:101170000082cf00070039000541b1000982cf008d
:10118000040039000541b1000882cf000100390098
:101190000541b10005425200120032000a003b0036
:1011a00082817100610164008100d1000080d30060
:1011b0008984d3000884d3008b05e8000442e8004a
:1011c000f7ff3a00070037000804440089844c0008
:1011d00000004800818048008b05e9000442e900d6
:1011e000f9ff3a006afd07004f05be004f04be003c
:1011f000000006000003be008bfd07006220e10036
:10120000020032000600be00000006008502410018
:10121000e30f20000328e10005003c00a3fe2f009f
:101220000328e10007003d00050020000100370011
:10123000f50f200020022000b04088006000b800b8
:1012400008003700130020008381520005003d0094
:101250008100d1000080d3008301e800fcff3a0048
:1012600005002000c72add00f107b200858070006c
:1012700007f0a70001f0a00000000600889fbe0054
:101280008a9fbe008c9fbe008ffe070085047800f9
:101290000005be006420e10049003e006220e1003c
:1012a00003003200090035000bf8a30044003200af
:1012b0000bf8a3000800320010022000b0408800a4
:1012c000f0ff2f00f1ff27003d00370001f82f004d
:1012d000000020003a0037003d00070087fe0700ad
:1012e0000006be000a00be00324f200053f3230068
:1012f0006bff0700060034000c00be00340007003e
:101300007efe07000006be000a00be000200370095
:101310008904e9000c00be002d0007002e00070024
:101320002b00070076fe07000001be000c00be0087
:10133000b8fc07000005be000001be002600070043
:101340000006be00a2f32300430d2c006cfe070034
:10135000809fbe000c00be00d2e32700d3f02b001c
:101360001d0007004f01be00aafc07000006be00da
:101370000a01be00180007000a01be0060fe070057
:101380000006be006148b90068ff07000005be0006
:1013900032082800e3952b000f0007000c01be0067
:1013a00057fe07000006be000a00be00020028002b
:1013b00013f32300080007000c01be0050fe0700d5
:1013c0004f06be004f05be004f04be0000000600e1
:1013d00003f0230002000500889fbe008a9fbe0024
:1013e0008c1f780025fd07002cfd330003866c0060
:1013f0006450e100240032006420e1002700320044
:101400006150e100220032006120e1002100320041
:101410008b854200eb07b1000134b800003ab800f8
:101420000804420089844a00013ab8000030b8003c
:101430008880400009014a00040033000000400099
:1014400081804800020149008b05e900c909dd00df
:10145000830170000100320013002000c814de0078
:101460004814dd004709de001200b200c808de00a3
:1014700008847000c6fc070001f0a1000cf0a70072
:1014800001f0a0000efd37006120e10010fd3200e8
:101490000801be000200be00f7ff37006150e10006
:1014a000fcff3a000afd37006022b8000602200067
:1014b0000000d0008180d2000482d2008582d20058
:1014c0000000a0000202520083825a000300310093
:1014d0000202420083824a000000a1000603e900e4
:1014e000f3ff3a0000000600889fbe008a9fbe00fe
:1014f000841f7800e1fc07004f00780011003300e2
:10150000f0ff2f00838f6c0006003b000405650090
:101510000a00a7000800370009f0a600100020000c
:1015200008003700820f5400838f5c0003003900ed
:101530001000200001003e000000200009f0a7007c
:101540000000ea004f05be004f04be000000e000ae
:1015500000000600881f7800030478000300e00004
:1015600007003d0060001000e080180060011900d5
:10157000e081190002003b0001f02d00030037005c
:10158000edfe070008f0a70001f0a0004f0478006e
:041590000000060051
:020000040000fa
:10159400363700001300000012240000ff2500006d
:1015a40037130000ff36000000120000242500005d
:1015b400363700002512000000ff0000132400004d
:1015c400363700001300000025ff0000122400003d
:1015d4003713000024250000ff360000001200002d
:1015e400361300000024000025ff0000371200001d
:1015f400361300000012000024250000ff3700000d
:101604003637000013ff00000012000024250000fc
:1016140036370000130000001224000025ff0000ec
:10162400363700001300000024250000ff120000dc
:1016340000020000080a00000c0e00001000000068
:020000040000fa
:10164400814178000080fb00220120001100090084
:101654000280d80001017800e14f500023003200dd
:1016640005003900e24f50003d003200e34f5000c6
:1016740074003a00570037000280fb00ef4f51001e
:101684000e0036000304e000050032006f00600025
:10169400110020000008dd009205b70005003700a6
:1016a4006f006000110020000008dd000080ea00e7
:1016b4009205b600902c8800000006000304e000a8
:1016c40004003200110020000008dd009005b7007e
:1016d40004003700110020000008dd000080ea004b
:1016e4009005b600802c8800000006000280fb00f4
:1016f400ef4f51000e0036000304e00005003200f5
:101704006f006000110020000008dd009a05b7009a
:10171400050037006f006000110020000008dd00a4
:101724000080ea009a05b600d02c8800000006006c
:101734000304e00004003200110020000008dd0072
:101744009805b70004003700110020000008dd00f0
:101754000080ea009805b600c02c8800000006004e
:101764000280fb00ef4f51000e0036000304e0003e
:10177400050032006f006000110020000008dd0049
:10178400a205b700050037006f00600011002000bb
:101794000008dd000080ea00a205b600102d8800d4
:1017a400000006000304e0000400320011002000e1
:1017b4000008dd00a005b700040037001100200078
:1017c4000008dd000080ea00a005b600002d8800b6
:1017d400000006000280fb00ef4f51000e003600af
:1017e4000304e000050032006f00600011002000d7
:1017f4000008dd00aa05b700050037006f0060008f
:10180400110020000008dd000080ea00aa05b600ef
:10181400502d8800000006000304e000040032009c
:10182400110020000008dd00a805b70004003700ff
:10183400110020000008dd000080ea00a805b600c1
:10184400402d880000000600889fbe008a9fbe00cd
:1018540080457800014578000004eb0019c0b3000e
:101864000b80fb004300dd00a1ac28000100400018
:10187400e0407c00e1cf400002003a000904e000af
:101884000d003a000a80fb00a2b1280062407800f3
:101894000080fb008180fb000100400082042000e6
:1018a400110009000200d8008000fd008940780082
:1018b40063ff0700010037008044eb000804e800e0
:1018c400e80f5400e6ff3a004f05be004f04be0087
:1018d4000000060088a5ef0030002000502c88008e
:1018e4009a25ef009a05f8009805f9009805f80084
:1018f4009205f9009205f8009005f900b225ef0071
:10190400b205f800b005f900b005f800a205f90029
:10191400a205f800a005f90040002000002c880072
:10192400f00f2800102c880020002000302c8800a4
:10193400f07f2c008225b600b0002800202c8800ff
:10194400000006003eff3700881f7800004478003e
:10195400e14f54000800320011c0b3001e003900ea
:10196400e24f5400090032008040eb00e34f540082
:1019740019003a000d00370088407800b0c3b30066
:101984002fff0700884078001600370011c0b3000d
:10199400b0c3b3002aff070011c0b30090c2b30064
:1019a40027ff070011c0b3001100370011c0b300b6
:1019b400b0c3b30022ff070011c0b30090c2b3004c
:1019c4001fff070011c0b30070c1b3001cff070064
:1019d40011c0b30009003700b0c3b30018ff0700fb
:1019e4008040eb0090c2b30015ff07008040eb007d
:1019f40070c1b30012ff07008040eb0050c0b30079
:101a04000fff07004f04780000000600e24f50006b
:101a14000b00320003003e00e14f500020003a006a
:101a240005003700e34f50000a003200e44f500035
:101a34001b003a000f00370080407800190037007f
:101a440011c0b300c0c3b300fdfe070011c0b30052
:101a54001700370011c0b300c0c3b300f8fe07007d
:101a640011c0b300a0c2b300f5fe070011c0b3005b
:101a74001200370011c0b300c0c3b300f0fe07006a
:101a840011c0b300a0c2b300edfe070011c0b30043
:101a940080c1b300eafe070011c0b3000a0037009a
:101aa4008040eb00c0c3b300e5fe07008040eb00bc
:101ab400a0c2b300e2fe07008040eb0080c1b30087
:101ac400dffe07008040eb0060c0b300dcfe37009f
:101ad4000400fa00881f78008a9fbe000005be003b
:101ae4000044eb000880fb008000eb0025fb0700ae
:101af4000001be00000020000112240085fb070045
:101b04000001be000a00be00b2bf9f00c3bf9f0019
:101b14001cfb07003fb99700cfb99700bcfa070038
:101b2400fdfa0700a2002000030020005cfc07006f
:101b34000001be00884078000240780042ff0700a0
:101b44000844e800e64f5400e6ff3a004f05be00a3
:101b54004f0478000080fa0000000600881f780017
:101b640000447800e24f54000c00320003003e00b1
:101b7400e14f540021003a0005003700e34f5400c0
:101b84000b003200e44f54001c003a0010003700f0
:101b940088407800014078001a0037008040eb004c
:101ba40010c0b300a6fe070011c0b3001700370031
:101bb4008040eb0010c0b300a1fe07008040eb00a2
:101bc400084078009efe070011c0b30012003700e1
:101bd4008040eb0010c0b30099fe07008040eb008a
:101be40030c0b30096fe07008040eb0090c0b30005
:101bf40093fe070011c0b3000a0037008040eb00d9
:101c040010c0b3008efe07008040eb0030c0b3006c
:101c14008bfe07008040eb0090c0b30088fe0700f5
:101c24008040eb00b0c0b30085fe07004f0478008d
:101c340000000600600020000e28b4000c48ed00ef
:101c44000ce8b70002003a00400020000100370011
:101c54001000200040408800000006000642a80052
:101c640051408000a10090000100e000010032001a
:101c7400800878000828ef0000000600018020009a
:101c8400208a20009000980080087800204080007e
:101c94000010a0000000a100a00098000040eb008c
:101ca400e0409800d0092000201088000622ef00b0
:101cb4000822ef008620a9009620a8000000060054
:101cc400eeff370006c8bf00000006003600f8002b
:101cd400809fbe00829fbe00849fbe00869fbe0080
:101ce4008620a90008e2ab000700320008e2a90040
:101cf4000828ef0050408000200090000008eb000e
:101d04000a28ef00a0003700404080008000eb006c
:101d1400eb0f5000e08f580098003e000060010077
:101d24000b00370025003700400037005d00370006
:101d340090003700720037007b0037008d003700b9
:101d44007d0037008d003700200037002900370060
:101d54000428ab008c003a001040800050408800fa
:101d640010417800c18020008248780090019000e2
:101d7400734088006600400010408800818a20007b
:101d8400810f500002003a00668050001040880025
:101d9400204080000000a100204088001140800005
:101da40002408000810f510002003a000010a000a0
:101db400204088000602a800010037000622a8007f
:101dc40020002000404088006f0037000802e20035
:101dd4000a003500914080000100d100f00fb200ec
:101de40010108800b00020000108a300f5ff3a009d
:101df4002a0037000802e20003003d000668ec00f8
:101e0400400020005f0037000622a80090408000b8
:101e14004800de0066006000100fb30090408800a8
:101e240010c0b30010e8b700e5ff370010c8bf00ca
:101e3400e14f5000090032007040800090017800aa
:101e440093408800a0009000a1408800a041900029
:101e54001281200003497800010037001068ef0068
:101e640090408000f10f2000810f500006003600e2
:101e74004800de0066006000000fb3001010880008
:101e8400a0002000cfff3700101088000008a30036
:101e94000200320050002000caff3700300020004a
:101ea400c8ff37000802e20004003d000668ec00a9
:101eb40009e2a900500020003200370011c8bf0019
:101ec4008040e90012812000014978000004e0000c
:101ed40006003a00600020000e28b4000c48ed0013
:101ee4000ce8b700b5ff3a0022003700a04080009c
:101ef400b080fb0011108800a04088002200370049
:101f04000802e20005003d000668ec0040002000e5
:101f140052ff070009e2a9001b0037000662a8006f
:101f240080002000a7ff3700800020004040880088
:101f34000662a8001400370001108000a040800051
:101f440001587800a04088001148ed0011e8b7005e
:101f54000400320006a2a90060002000404088006e
:101f64000200370006a2a80032ff07000682a8007c
:101f74000500370020002000020037000668ec004e
:101f84006000200035ff07004f03be004f02be0073
:101f94004f01be004f00be003600f90000400600ad
:101fa4000408ab001a003a0013002000030978006b
:101fb400034080009101980080497800a2019800b4
:101fc400e681410003408800808a2000808f510010
:101fd40002003a0066005000004088002040800063
:101fe4000010a100204088001140800002408000c1
:101ff400810f510002003a000000a0002040880038
:102004000808e20003003a008620a8000000060049
:102014000009eb0000000600e1ff37008381410066
:102024000300a000030878002240980021009800d3
:1020340000000600881f7800030478000408ab0041
:102044000a003a008201780001417800800078009b
:10205400808a2000f1ff070008017800818a2000af
:1020640010c0b300ceff070001003700000ceb00e6
:102074004f04780000000600eeff3700e7ff37004a
:1020840003884100224098002100980000000600c7
:10209400881f7800030478000408ab000a003a00a3
:1020a400820178000141780080007800e08a2000f5
:1020b400f3ff070008017800e18a200010c0b30094
:1020c400b7ff070001003700000ceb004f04780055
:1020d40000000600eeff3700e9ff37000408d500d2
:1020e4006140600000000600fcff370020408000d3
:1020f4006140600000000600fcff3700808028007b
:10210400801188003222ef003422ef003622ef00e3
:10211400001a2000c011880097c0a8003342a8000c
:1021240020862000f0408800e040880020822000c3
:10213400d0408800c040880001822000110078004f
:102144002020b300e2ef2f008208600000000600a8
:10215400eaff3700809fbe00821f78000020200025
:1021640001822000110060000200320097e0a90003
:102174001600370087e0a9003322ab0013003a00b1
:10218400f0408000b080fb00a1118800f04088007e
:10219400218a2000810f500003003a0000fc2f0028
:1021a40001004000f0408800004180000080a10050
:1021b40000418800f2408000c1812000910f51004d
:1021c40002003a000090a000004188004f0178000e
:1021d4004f00be0000400600809fbe00821f7800b2
:1021e4003202ab0013003200b1118000c040800005
:1021f40001587800c040880021862000810f5000db
:1022040003003a0000fc2f0001004000c040880099
:10221400004180000010a10000418800c2408000fd
:10222400a1812000910f510002003a000000a0009b
:102234000041880087c0a9004f0178004f00be000c
:10224400004006003222ab00010032003222a90015
:102254008c40a90000400600d14080003140780045
:10226400d140880022862000828f500003003a006b
:1022740001fc2f0082804000d1408800d2408000c1
:1022840081812000910f510003003a000141800038
:102294000110a00001418800014180000100a1005b
:1022a4000141880000000600ebff3700889fbe0054
:1022b4008a1f780001057800800478000004eb0090
:1022c40007003700008220001000780062006000e0
:1022d40005003a00e0ff0700805c78000804e8008d
:1022e4008a0f5400f7ff3900080078004f05780082
:1022f4004f04be0000000600ecff3700e140800000
:1023040080587800e1408800208a2000808f5000a7
:1023140002003a000004b100e0408800004180005f
:102324000090a10000418800f2408000c18120009b
:10233400910f510002003a000080a0000041880083
:102344009600e2000100350097e0a80000000600b6
:10235400eaff3700889fbe008a1f780001057800d5
:10236400800478000004eb00070037000010200010
:10237400018220001100600005003a003940780015
:102384000804e800ddff07008a0f5400f7ff390056
:10239400080078004f0578004f04be0000000600d6
:1023a400ecff3700014180000000eb000188a3002e
:1023b40001003200800020000198a30001003200d7
:1023c4000040a0000108a300010032000000a000aa
:1023d4000118a300020032000020a0000000060043
:1023e4000010a00000000600eeff3700d24080007d
:1023f4008000410023862000838f500005003600b2
:1024040083015000030141002082200060407900d4
:10241400000006001140780000000600f3ff3700ba
:102424000082200010007800e10060000000eb0052
:1024340008003a00d0408000c1408000810f500065
:102444000200360001005000000006000004b00045
:102454000100500000000600f1ff370001102000c9
:1024640000822000908060000000eb0008003a0029
:10247400f0408000e1408000810f500002003600ef
:1024840001005000000006000004b00001005000ec
:1024940000000600f1ff3700004180000000d10079
:1024a4006140600000000600fbff3700004180002f
:1024b4004800de006140600000000600fbff3700ba
:1024c4009011800000000600fdff37006401400009
:1024d400c2587800800f5100fdff3a00000006004a
:1024e4006481400042587800810f5100fdff3a009a
:1024f4000000060068014000c2587800800f5100b7
:10250400fdff3a00000006000081fb004411de00dc
:102514006a11b9006f4060000240400000000600ec
:102524000080fb00a2002000110009000280d800f6
:102534008000fd0001017800c410dd00014070003e
:10254400000006008041eb00810f500004003e00b3
:1025540013c0b300820f5000010031008041eb0032
:102564000340780000000600000278005483fb005a
:102574009082fb00c82add0085024300612bb8006d
:10258400820f5300838f5b0007003600c81bde00f8
:10259400c818dd004813de00068370000648780082
:1025a400024a780000000600818f520003003100c7
:1025b4004809de0002487800014a7800000006005d
:1025c4000181fb000202d1000201e9000201400086
:1025d400800178008040eb0004003700b3427800ab
:1025e40012587800055178008140e80084cf5000eb
:1025f400faff39000000060005003700c1fd2f0076
:10260400000000008100e900fdff3a000040e900fd
:102614000004e000f9ff3c0000000600070037005a
:10262400821c2900530020000000000061015100b9
:10263400e0815900fcff3a000040e9000004e0009a
:10264400f7ff3c000000060081017800010037001c
:102654003358780001c25100824f5200fcff390008
:1026640000000600800178000100370081597800dd
:1026740000c25100824f5200fcff390000000600e6
:10268400800178000300370033427800b14f5200d4
:1026940004003a0000c25100824f5200faff390090
:1026a4001000050000000500881f780080027800f3
:1026b4001000370035427800914f52000d003a0067
:1026c4008583e900010378000042eb000400370031
:1026d40014c0b30057447800b64f540005003a00c4
:1026e40001445300834f5400f9ff39000404e0000f
:1026f40004003a0000c25200824f5200edff39003c
:102704000042eb00044078004f047800000006000b
:1027140071052000220020006004200023742000a2
:10272400804978008149780082497800500520006a
:10273400303b8800a00a2000303b880027a6a80070
:1027440027e6a900003020002626b70070012000eb
:102754002031880090812000203188006020b10061
:102764002031880000342200203188002826ef0020
:1027740027e6a80027a6a9009bc0a8000000060021
:10278400e3ff3700000378008040eb002786ab00ae
:1027940045003a0051052000313b8800a10a200081
:1027a400313b880027a6a800003020002626b70069
:1027b4002131800001017800020fb2004411de00d3
:1027c4006a11b900ef8060008280400051039800d4
:1027d400f2cf2f0030318000800061000190a00012
:1027e4003131880021318000c809de00ef816100a9
:1027f4004c0ade006a22b900848141004303980038
:1028040001027800040fb2004422de006a22b900fb
:10281400ef806000848040003103980030318000f4
:10282400800061000180a0003131880021318000e6
:10283400c809de00ef8161004c0ade006a22b9009b
:10284400848141006303980001027800040fb20000
:102854004422de006a22b900ef80600084804000d8
:10286400210398006062200010086100213180007b
:10287400480ade006f0262004c09de006a11b900ea
:10288400020142001203980001017800020fb20015
:102894004411de006a11b900ef806000028b400031
:1028a40027a6a90011c0b30001407800000006006b
:1028b400b4ff37008001780051052000313b8800c7
:1028c400a10a2000313b880027a6a80027e6a9001a
:1028d4008bc0a9009bc0a900003020002626b700a9
:1028e4005300900020318800430190004811dd001e
:1028f400b300900082807000213188006301900051
:102904004811dd00a300900082807000213188000e
:1029140093009000c808dd00138070002031880007
:1029240027e6a80027a6a9009bc0a800000006006f
:102934008bc0a90000400600889fbe008a1f780053
:102944009d000700e3fb070088a5ef00c9a2a900ca
:10295400d8c2a900d8e2a9008044eb00a885a90048
:10296400a085a8009885a8009085a900a8e5a800de
:10297400a0e5a80098e5a80090e5a80063c064005d
:10298400f1fb07000984fb005a0020001100090034
:102994000a84d800010578000a4078001bfc07006f
:1029a4000a4078006dfc07000980fb008000eb0002
:1029b40072202b0013002000bcf80700f22324002f
:1029c400f3002000c4f7070041fc070011c0b30066
:1029d40070c0b300dbfb0700cda2a80020c0b30089
:1029e4000eff0700cda2a900dae2a800a885a8007e
:1029f400a085a9009885a9009085a800a8e5a9004c
:102a0400a0e5a90098e5a90090e5a90020c0b300bd
:102a140002ff07000804e8008204200011000900f6
:102a24000204d80081447800ccff3700000028005d
:102a3400800888000621ef0000e823006008880071
:102a440084e0a90094e0a800408b20000048eb003b
:102a540000000600f5ff370060088800408b200066
:102a64000048eb0000000600fbff37006008800010
:102a740000000600fdff370030088800408b20006e
:102a84000048eb0000000600fbff37003008800020
:102a940000000600fdff370000000600408b200008
:102aa4000048eb0094e0a80011e1a8000000060033
:102ab400faff370011e1a90094e0a9000000060024
:102ac400fcff3700418b2000114078000004e00037
:102ad400010032008048eb0000000600f9ff3700d7
:102ae400508b20001040780000000600fcff3700e7
:102af400508b20000048eb0000000600fcff37006c
:102b0400cc22ef000080eb0040168800d422ef00b6
:102b14000100290081168800dc22ef00f1ff20006b
:102b2400c1168800e422ef00f10f2000011788008d
:102b3400ec22ef00f107200041178800f422ef0097
:102b4400c13c2000811788001027880000cc200099
:102b540030278800000f200040278800003c200018
:082b6400602788000000060054
:020000040000fa
:102b6c00180800008a00000080000000b408000073
:102b7c000200000080000000a2080000120000000b
:102b8c00800000000008000016000000800000001b
:102b9c001608000002000000800000000000000089
:020000040000fa
:102bac0000002300203a88004227a80000000600fd
:102bbc00fbff0700d0ff37008400a9008200a800ab
:0c2bcc009400a80000000600fbff37008a
:020000040000fa
:020000040001f9
:0457f0003ffe000078
:020000040000fa
:020000040001f9
:0457f400ffff0000b3
:020000040000fa
:020000040001f9
:0457f8001ce30000ae
:020000040000fa
:020000040001f9
:0457fc009f3e0000cc
:00000001FF
