:020000040000fa
:080000000002040000000000f2
:020000040000fa
:040008007e04000072
:020000040000fa
:04000c007e0400006e
:020000040000fa
:040010007e0400006a
:020000040000fa
:040014007e04000066
:020000040000fa
:040018007e04000062
:020000040000fa
:04001c007e0400005e
:020000040000fa
:040020007e0400005a
:020000040000fa
:040024007e04000056
:020000040000fa
:04002800440300008d
:020000040000fa
:04002c007e0400004e
:020000040000fa
:040030007e0400004a
:020000040000fa
:040034007e04000046
:020000040000fa
:040038007e04000042
:020000040000fa
:04003c007e0400003e
:020000040000fa
:040040007e0400003a
:020000040000fa
:04004400284c000044
:020000040000fa
:040048007e04000032
:020000040000fa
:04004c007e0400002e
:020000040000fa
:040050007e0400002a
:020000040000fa
:040054006403000041
:020000040000fa
:040058007e04000022
:020000040000fa
:04005c007e0400001e
:020000040000fa
:040060007e0400001a
:020000040000fa
:040064007e04000016
:020000040000fa
:040068007e04000012
:020000040000fa
:04006c0096040000f6
:020000040000fa
:040070007e0400000a
:020000040000fa
:040074007e04000006
:020000040000fa
:040078007e04000002
:020000040000fa
:04007c007e040000fe
:020000040000fa
:040080007e040000fa
:020000040000fa
:040084007e040000f6
:020000040000fa
:040088007e040000f2
:020000040000fa
:04008c007e040000ee
:020000040000fa
:040090007e040000ea
:020000040000fa
:04009400764c0000a6
:020000040000fa
:040098007e040000e2
:020000040000fa
:04009c007e040000de
:020000040000fa
:0400a000a0030000b9
:020000040000fa
:0400a4007e040000d6
:020000040000fa
:0400a8007e040000d2
:020000040000fa
:0400ac007e040000ce
:020000040000fa
:0400b0007e040000ca
:020000040000fa
:0400b4007e040000c6
:020000040000fa
:0400b8007e040000c2
:020000040000fa
:0400bc007e040000be
:020000040000fa
:0400c0007e040000ba
:020000040000fa
:0400c4007e040000b6
:020000040000fa
:0400c8007e040000b2
:020000040000fa
:0400cc007e040000ae
:020000040000fa
:0400d0007e040000aa
:020000040000fa
:0400d4007e040000a6
:020000040000fa
:0400d8007e040000a2
:020000040000fa
:0400dc007e0400009e
:020000040000fa
:0400e0007e0400009a
:020000040000fa
:0400e4007e04000096
:020000040000fa
:0400e8007e04000092
:020000040000fa
:0400ec007e0400008e
:020000040000fa
:0400f0007e0400008a
:020000040000fa
:0400f4007e04000086
:020000040000fa
:0400f8007e04000082
:020000040000fa
:0400fc007e0400007e
:020000040000fa
:040100007e04000079
:020000040000fa
:040104007e04000075
:020000040000fa
:040108007e04000071
:020000040000fa
:04010c007e0400006d
:020000040000fa
:040110007e04000069
:020000040000fa
:040114007e04000065
:020000040000fa
:040118007e04000061
:020000040000fa
:04011c007e0400005d
:020000040000fa
:0401200024030000b4
:020000040000fa
:040124007e04000055
:020000040000fa
:040128007e04000051
:020000040000fa
:04012c0018040000b3
:020000040000fa
:040130003a0400008d
:020000040000fa
:040134007e04000045
:020000040000fa
:040138007e04000041
:020000040000fa
:04013c007e0400003d
:020000040000fa
:040140007e04000039
:020000040000fa
:040144007e04000035
:020000040000fa
:040148007e04000031
:020000040000fa
:04014c007e0400002d
:020000040000fa
:040150007e04000029
:020000040000fa
:040154007e04000025
:020000040000fa
:040158007e04000021
:020000040000fa
:04015c007e0400001d
:020000040000fa
:040160007e04000019
:020000040000fa
:040164007e04000015
:020000040000fa
:040168007e04000011
:020000040000fa
:04016c005c0400002f
:020000040000fa
:04017000dc030000ac
:020000040000fa
:040174007e04000005
:020000040000fa
:040178007e04000001
:020000040000fa
:04017c007e040000fd
:020000040000fa
:040180007e040000f9
:020000040000fa
:040184007e040000f5
:020000040000fa
:040188007e040000f1
:020000040000fa
:04018c007e040000ed
:020000040000fa
:040190007e040000e9
:020000040000fa
:040194007e040000e5
:020000040000fa
:040198007e040000e1
:020000040000fa
:04019c007e040000dd
:020000040000fa
:0401a0007e040000d9
:020000040000fa
:0401a4007e040000d5
:020000040000fa
:0401a8007e040000d1
:020000040000fa
:0401ac007e040000cd
:020000040000fa
:0401b0007e040000c9
:020000040000fa
:0401b4007e040000c5
:020000040000fa
:0401b8007e040000c1
:020000040000fa
:0401bc007e040000bd
:020000040000fa
:0401c0007e040000b9
:020000040000fa
:0401c4007e040000b5
:020000040000fa
:0401c8007e040000b1
:020000040000fa
:0401cc007e040000ad
:020000040000fa
:0401d0007e040000a9
:020000040000fa
:0401d4007e040000a5
:020000040000fa
:0401d8007e040000a1
:020000040000fa
:0401dc007e0400009d
:020000040000fa
:0401e0007e04000099
:020000040000fa
:0401e4007e04000095
:020000040000fa
:0401e8007e04000091
:020000040000fa
:0401ec007e0400008d
:020000040000fa
:0401f0007e04000089
:020000040000fa
:0401f4007e04000085
:020000040000fa
:0401f8007e04000081
:020000040000fa
:0401fc007e0400007d
:020000040000fa
:040208007e04000070
:020000040000fa
:04020c007e0400006c
:020000040000fa
:040210007e04000068
:020000040000fa
:040214007e04000064
:020000040000fa
:040218007e04000060
:020000040000fa
:04021c007e0400005c
:020000040000fa
:040220007e04000058
:020000040000fa
:040224007e04000054
:020000040000fa
:040228007e04000050
:020000040000fa
:04022c007e0400004c
:020000040000fa
:040230007e04000048
:020000040000fa
:040234007e04000044
:020000040000fa
:040238007e04000040
:020000040000fa
:04023c007e0400003c
:020000040000fa
:040240007e04000038
:020000040000fa
:040244007e04000034
:020000040000fa
:040248007e04000030
:020000040000fa
:04024c007e0400002c
:020000040000fa
:040250007e04000028
:020000040000fa
:040254007e04000024
:020000040000fa
:040258007e04000020
:020000040000fa
:04025c007e0400001c
:020000040000fa
:040260007e04000018
:020000040000fa
:040264007e04000014
:020000040000fa
:040268007e04000010
:020000040000fa
:04026c007e0400000c
:020000040000fa
:040270007e04000008
:020000040000fa
:040274007e04000004
:020000040000fa
:040278007e04000000
:020000040000fa
:04027c007e040000fc
:020000040000fa
:040280007e040000f8
:020000040000fa
:040284007e040000f4
:020000040000fa
:040288007e040000f0
:020000040000fa
:04028c007e040000ec
:020000040000fa
:040290007e040000e8
:020000040000fa
:040294007e040000e4
:020000040000fa
:040298007e040000e0
:020000040000fa
:04029c007e040000dc
:020000040000fa
:0402a0007e040000d8
:020000040000fa
:0402a4007e040000d4
:020000040000fa
:0402a8007e040000d0
:020000040000fa
:0402ac007e040000cc
:020000040000fa
:0402b0007e040000c8
:020000040000fa
:0402b4007e040000c4
:020000040000fa
:0402b8007e040000c0
:020000040000fa
:0402bc007e040000bc
:020000040000fa
:0402c0007e040000b8
:020000040000fa
:0402c4007e040000b4
:020000040000fa
:0402c8007e040000b0
:020000040000fa
:0402cc007e040000ac
:020000040000fa
:0402d0007e040000a8
:020000040000fa
:0402d4007e040000a4
:020000040000fa
:0402d8007e040000a0
:020000040000fa
:0402dc007e0400009c
:020000040000fa
:0402e0007e04000098
:020000040000fa
:0402e4007e04000094
:020000040000fa
:0402e8007e04000090
:020000040000fa
:0402ec007e0400008c
:020000040000fa
:0402f0007e04000088
:020000040000fa
:0402f4007e04000084
:020000040000fa
:0402f8007e04000080
:020000040000fa
:0402fc007e0400007c
:020000040000fa
:040300007e04000077
:020000040000fa
:040304007e04000073
:020000040000fa
:040308007e0400006f
:020000040000fa
:04030c007e0400006b
:020000040000fa
:040310007e04000067
:020000040000fa
:040314007e04000063
:020000040000fa
:040318007e0400005f
:020000040000fa
:04031c007e0400005b
:020000040000fa
:040320007e04000057
:020000040000fa
:040324007e04000053
:020000040000fa
:040328007e0400004f
:020000040000fa
:04032c007e0400004b
:020000040000fa
:040330007e04000047
:020000040000fa
:040334007e04000043
:020000040000fa
:040338007e0400003f
:020000040000fa
:04033c007e0400003b
:020000040000fa
:040340007e04000037
:020000040000fa
:040344007e04000033
:020000040000fa
:040348007e0400002f
:020000040000fa
:04034c007e0400002b
:020000040000fa
:040350007e04000027
:020000040000fa
:040354007e04000023
:020000040000fa
:040358007e0400001f
:020000040000fa
:04035c007e0400001b
:020000040000fa
:040360007e04000017
:020000040000fa
:040364007e04000013
:020000040000fa
:040368007e0400000f
:020000040000fa
:04036c007e0400000b
:020000040000fa
:040370007e04000007
:020000040000fa
:040374007e04000003
:020000040000fa
:040378007e040000ff
:020000040000fa
:04037c007e040000fb
:020000040000fa
:040380007e040000f7
:020000040000fa
:040384007e040000f3
:020000040000fa
:040388007e040000ef
:020000040000fa
:04038c007e040000eb
:020000040000fa
:040390007e040000e7
:020000040000fa
:040394007e040000e3
:020000040000fa
:040398007e040000df
:020000040000fa
:04039c007e040000db
:020000040000fa
:0403a0007e040000d7
:020000040000fa
:0403a4007e040000d3
:020000040000fa
:0403a8007e040000cf
:020000040000fa
:0403ac007e040000cb
:020000040000fa
:0403b0007e040000c7
:020000040000fa
:0403b4007e040000c3
:020000040000fa
:0403b8007e040000bf
:020000040000fa
:0403bc007e040000bb
:020000040000fa
:0403c0007e040000b7
:020000040000fa
:0403c4007e040000b3
:020000040000fa
:0403c8007e040000af
:020000040000fa
:0403cc007e040000ab
:020000040000fa
:0403d0007e040000a7
:020000040000fa
:0403d4007e040000a3
:020000040000fa
:0403d8007e0400009f
:020000040000fa
:0403dc007e0400009b
:020000040000fa
:0403e0007e04000097
:020000040000fa
:0403e4007e04000093
:020000040000fa
:0403e8007e0400008f
:020000040000fa
:0403ec007e0400008b
:020000040000fa
:0403f0007e04000087
:020000040000fa
:0403f4007e04000083
:020000040000fa
:0403f8007e0400007f
:020000040000fa
:0403fc007e0400007b
:020000040000fa
:10040000cf6621000e7f22000e0188000000000050
:10041000000020000000e000020032000001200087
:1004200020028800140007000f0207000000e0000f
:1004300003003a0040ad2300010020000200370015
:100440000000200001002000810f70000100320038
:1004500014000700000020000000e000020032004d
:100460000000020000000000ce4d0200000000006d
:100470000040da000000fe004440a900004b2000cc
:100480000000e000030032000020200090018800fe
:100490004440a800000006008a1f78008b1f7800e7
:1004a00000000600a1028800800478000000eb0034
:1004b0001f003700e284440054a0b4009905ba003c
:1004c000e284440054a0b4009906ba00e2844400d7
:1004d00054a0b4000006eb00476fde00fd07b20039
:1004e000ae018800636ce10003003a00eaff0700f8
:1004f0000000eb000e003700606ce10008003a00dd
:10050000004deb000a05e800020039003420ec0041
:100510000af0a0008b05e900f9ff3e000400370057
:100520006168e100010032000086eb000b0007006b
:1005300019c7ba001905ba000e04e00003003a001a
:100540000a00e000dbff3a0000000600fe07b200f0
:10055000ae0288008a047800f5ff37000cd0a300b3
:10056000e20f4d001c00390089027800354dba00b9
:100570000a05e800020039003420ec000af0a0006f
:100580008b05e9000f003200254dba000a05e8008e
:10059000020039003420ec000af0a0008b05e900cd
:1005a000080032000c00e0000600320015cdba0051
:1005b0000a05e800020039003420ec000af0a0002f
:1005c0008b05e9008984e80054a0b4000b00e0002a
:1005d000e2ff3a00000006009902ba00055d7800cb
:1005e0008b05e900f7ff3200c82ade00055d7800c0
:1005f0008b05e900f3ff32000c00e000f1ff320050
:1006000019ddba00eeff3700000000000000000016
:1006100000000000000000000000000000000000da
:1006200000000000000000000000000000000000ca
:1006300000000000000000000000000000000000ba
:1006400000000000000000003600f800809fbe009f
:10065000829fbe00849fbe00869fbe00150e0700cd
:100660008bc0a9001c0e070040418000751b0700cd
:100670004f03be004f02be004f01be004f00be0040
:100680003600f900004006003600f800809fbe00ea
:10069000829fbe00849fbe00869fbe00050e07009d
:1006a0008400a9000c0e070070418000651b070044
:1006b0004f03be004f02be004f01be004f00be0000
:1006c0003600f900004006003600f800809fbe00aa
:1006d000829fbe00849fbe00869fbe00881f780058
:1006e0003200f8003400f80010002000a00188005b
:1006f0000020200090018800ee0d070048c0b300e4
:100700002202ab0001003200c11f07000844e900cb
:10071000fbff3a008560a900ef0d07003400f900e7
:100720003200f9004f0478004f03be004f02be00b4
:100730004f01be004f00be003600f9000040060029
:100740003600f800809fbe00829fbe00849fbe00de
:10075000869fbe00881f78003200f8003400f80041
:1007600010002000a00188000020200090018800d7
:10077000d00d070048c0b3003202ab0001003200c8
:10078000b41f07000844e900fbff3a0087c0a90036
:10079000d10d07003400f9003200f9004f04780051
:1007a0004f03be004f02be004f01be004f00be000f
:1007b0003600f900004006003600f800809fbe00b9
:1007c000829fbe00849fbe00869fbe00881f780067
:1007d0003200f8003400f80010002000a00188006a
:1007e0000020200090018800b20d070048c0b3002f
:1007f0005202ab0001003200a71f07000844e900c5
:10080000fbff3a008e40a900b30d07003400f90049
:100810003200f9004f0478004f03be004f02be00c3
:100820004f01be004f00be003600f9000040060038
:100830003600f800809fbe00829fbe00849fbe00ed
:10084000869fbe009b0d07002222ab0001003200f4
:100850002222a9008c20a9009f0d07004f03be0093
:100860004f02be004f01be004f00be003600f9002f
:10087000004006003600f800809fbe00829fbe0048
:10088000849fbe00869fbe008a0d07003222ab0007
:10089000010032003222a9008c40a9008e0d070011
:1008a0004f03be004f02be004f01be004f00be000e
:1008b0003600f900004006003600f800809fbe00b8
:1008c000829fbe00849fbe00869fbe00790d0700f8
:1008d0005222ab00010032005222a9008e20a90052
:1008e0007d0d07004f03be004f02be004f01be004a
:1008f0004f00be003600f900004006008040ab000b
:10090000010032008040a9008060ab00010032008d
:100910008060a9008080ab00010032008080a900c7
:100920000002040000000000004006003600f8004d
:10093000809fbe00829fbe00849fbe00869fbe0037
:100940005c0d07008620a90008e2ab00020032001f
:1009500008e2a9009c00370046c8bf000080fb00e9
:100960008000eb00ed0f5000e08f580095003e0036
:10097000006001000d00370020003700260037001e
:1009800051003700380037008e00370082003700f2
:10099000630037006c0037007e0037006e003700c0
:1009a00088003700870037007e0037003548e200b6
:1009b00084003a000602a800006421001080fb00b9
:1009c000d041880010b28000b0418800406421000e
:1009d00010417800518320008248780033b28000b3
:1009e000c34188006400400010417800418320002a
:1009f000824878003268ef00050037000622a80020
:100a000040642100904078005383200081497800a1
:100a100020c0b300080037004183200091407800d7
:100a2000d04180000108a30005003a00080037000b
:100a30001010880030c0b30046e8b70061003700ee
:100a40003248e20002003a0010108800140037001b
:100a50000128a300f6ff32000000a000101088005b
:100a600070c0b300f4ff37000802e20005003d004b
:100a700009e2a9000642a8008620a9004668ef0006
:100a80005000370034c8bf00b14180000018a300f7
:100a9000050032003428a900c808de0011108800c3
:100aa00040c0b300e4ff37008180fb0011108800d4
:100ab0000028a300dfff320010c0b30032e8b70007
:100ac0003a08a800dcff37000802e20005003d00fc
:100ad00009e2a9000642a8008620a9004668ef00a6
:100ae0000f00370035c8bf008040e9005283200066
:100af000014978000004e00004003a000642a80022
:100b00008620a90060c0b300cbff3700c041800041
:100b1000b080fb0011108800c04188002900370018
:100b20000802e20005003d000642a8008620a90058
:100b30004668ef0009e2a900220037000662a8001b
:100b4000a0c0b300bcff3700a0c0b30046e8b700a8
:100b50000662a8001b00370001108000c041800021
:100b600001587800c04188003548ed0035e8b700ed
:100b70000300320006a2a90080c0b30002003700c3
:100b800006a2a80090c0b30046e8b7000682a800fd
:100b90000c00370006a2a9000642a800d0c0b3008e
:100ba000a5ff37003a28ef003828ef003628ef007d
:100bb0003568ef003448a9003408a9003428a9009a
:100bc0003268ef00c40c07004f03be004f02be00a6
:100bd0004f01be004f00be003600f9000040060085
:100be000889fbe008004780050b380000000e000c1
:100bf00004003a000f0007000084eb000000e00052
:100c00000800350058b380000900e00005003200fc
:100c100009004400070007000000e00001003d005b
:100c20000084eb00080078004f04be0000000600be
:100c300000000500800078000100e00003003a0099
:100c40000000200050b38800000005000080eb0089
:100c500002002000828f500002003e0051b3880045
:100c60000000eb000000060000000500839f680004
:100c70000100e00002003d0060001000e08018006c
:100c80000300e00002003d0060011100e081190056
:100c9000050007004f00e00002003b00600010006c
:100ca000e0801800000006006022b8000602200064
:100cb0000000d0008180d2000482d2008582d20060
:100cc0000000a0000202520083825a00030031009b
:100cd0000202420083824a000000a1000603e900ec
:100ce000f3ff3a0000000600efff07000400be001b
:100cf00000000600020ab900001bb9000200b8009b
:100d00008100420081004300000006008000eb00eb
:100d10001001be000000eb00ad0037001000fa002b
:100d2000889fbe008a9fbe008c9fbe000006780090
:100d3000cc019000c2002000110009008201d800ff
:100d40000001780044ff2f000492b9008481410023
:100d500002003b00ec8141000201e900dc0690004a
:100d60000200e00007003d000400280002025200db
:100d70000080eb008080eb00848f560009003d006e
:100d80006d0037000200e00006003200f4ff27008b
:100d9000020252000080eb008080eb008d0f5200b9
:100da000650035008d064100830078000d00780055
:100db0006c0007000000e9003c029000cfa2de00ba
:100dc000612bb900cf80de00040440008584480018
:100dd0000685480087854800e8b79f00f9b79f005f
:100de0008abf9f009bbf9f002c009000cf80de0039
:100df0006109b90004e12000050020006033b8005b
:100e0000da0807000205be000004be001c009000c6
:100e1000cf80de006109b900c40320000500200076
:100e20006033b800d10807000002440081824c0002
:100e300002034d0083834d001c007800cf80de004c
:100e400004044000858448000685480087854800e2
:100e50006168b9006109b90004382300151e20003b
:100e60006033b800c10807000002440081824c00d2
:100e700002034d0083834d00a4b79f00b5b79f00c8
:100e8000c6b79f00d7b79f000418250015002000a3
:100e90006033b8006fb09700ffb097000fb99700ac
:100ea0009fb99700b10807002fb29700bfb2970013
:100eb0004fb39700dfb397000004420081844a00db
:100ec00002054b0083854b000800be000a01be00ee
:100ed000320807006011b8002e08070000017800f2
:100ee0000080eb008080eb000200e0001200350083
:100ef0000018280051c527000804400089844800d4
:100f00008c0890000801be000c007800300007003b
:100f10000c0890000000e00004003400001f2f00c7
:100f2000f1ff2f000804400089844800a00007005a
:100f30000000540081805c004f06be004f05be00db
:100f40004f04be000080fa00000006008000780018
:100f5000010178003104e000fdff3a00000051007b
:100f60000000060080027800010378000500e00020
:100f7000030034000501e9004291de00090037005a
:100f80000001eb00e38f420006003d00e481120007
:100f900042002000110009008201d8000001780001
:100fa0000201e800638262002357210004003a0036
:100fb000a35821000500e00001003a00235721005a
:100fc00086004300818141001300410000000600bb
:100fd000ea874700889fbe008a9fbe008c9fbe00a4
:100fe0008e1f7800000478000ae82700ab3a28003a
:100ff0000205450083854d00dab79f00ebb79f00df
:101000000800e00001003a00e8622100010c9800ad
:1010100002182500130020000a00be0022ff07006e
:101020000006be0061004000e08048007200200021
:10103000030020003e08070060049800d21620003c
:10104000030020000c00be0008ff07000001be00e6
:101050000007eb008e0451008000eb0009007800cf
:10106000f2b79f0083bf9f00beff07000002780019
:10107000d016200000c8b900cfa2de000000420058
:1010800081804a000e07e8007fb197008fb9970072
:10109000800f5600818f5e00eeff3500000656007f
:1010a00081865e00590498007c0498006380640087
:1010b0002157210004003a00a15821000900e00056
:1010c00001003a0021572100f6804000c0002000b6
:1010d0000000e9000101780021027800cfa2de00c3
:1010e000840f5600858f5e00f9ff3500400498009c
:1010f0000c06e800120656003c0498000218250071
:10110000130020000a00be00f7fe07000005be0025
:1011100002e1200003002000e3fe07002004980005
:1011200002e12000030020000a00be00eefe0700de
:101130000005be00c203200003002000dafe070005
:1011400010049800c2032000030020000a00be0023
:10115000e5fe0700000c7800080890000000e000a1
:1011600005003d000800780038010700000c9800d9
:101170000000e00007003c00080078004f077800fe
:101180004f06be004f05be004f04be00af00b100c9
:10119000000006000ae120000b0020005fb097006d
:1011a000efb097000005450081854d0098ff37009e
:1011b0000400fa00889fbe0090b080000000e000ac
:1011c00001003200000001003099800081b28000ef
:1011d000808f5000310032001004e00002003a001d
:1011e0000101070030998800668157002100200026
:1011f000309980000403070000047800a20020005a
:10120000e8805700080078003600070090b2880098
:10121000a1b288004fb99700080451005fb9970048
:10122000820f540009003a00d2ae2f00f3ff2f00c6
:10123000820f5000838f5800040035003251200087
:10124000820f5000e08f5800030034006000b800a7
:1012500090b28800a1b2880098b28000a9b2800044
:10126000c2f92f00f3ff2f000800be007ffe070029
:1012700082022000030020009efe070000044400bc
:1012800081844c0060041400e0841c0098b2880043
:10129000a9b288003099800080b2880042fc2f00fb
:1012a000f3ff2f0090b28000a1b2800091fe0700f2
:1012b0004f04be000080fa0000000600889fbe00b8
:1012c0001004be00baff07000001440081814c00f9
:1012d0008080eb000000eb003dff07004f04be00e4
:1012e00000000600e6874700889fbe008a9fbe0078
:1012f0008c9fbe008e1f7800800478000107780064
:101300000e00e00001003a00728757008005eb00f4
:10131000614ab8006158b8000006420081864a0060
:101320000c057800644478000800fb0082bf9f0031
:101330006b0107008b05e8000fb997000000e00083
:10134000f3ff3a00d0c2b300804f540003003200d4
:1013500000c0e900804f540002003a000c05e8008c
:1013600001003700004478008e0078000a00780001
:10137000c50207009e0f550001003a00090f7800d2
:101380009e8f540003003a00e00f5000e08f580099
:101390000f003a00b2c2b300824f540004003a007a
:1013a000e00f5000e08f580015003d0008003700a6
:1013b000d2c2b300824f540011003a000200200054
:1013c00003002800820f5000838f58000a00360067
:1013d0002002200000b38800f0ff2f00f1ff27005b
:1013e000d2c2b300824f540005003a000000200032
:1013f000010028000200370060001000e0801800a3
:101400004f0778004f06be004f05be004f04be00d8
:101410006f00b10000000600e8874700889fbe000b
:101420008a9fbe008c9fbe008e1f780080007800cf
:101430000005eb00190020006109b80002047800e3
:101440006a4779000e00fb00e1b79f00f2b79f00ea
:1014500083bf9f0018010700efb097007fb197008e
:101460008fb997000000e00046003200614ab900e1
:10147000266021006136b8000e727e0064034300ce
:101480006a447c0008727b000401410085814900a8
:10149000020478008904e8000a05e800e48f54009b
:1014a000e5ff3a0012407800d1c2b300814f5000ee
:1014b0000300320081c0e900814f500002003a0071
:1014c0000204e8000100370001407800b16021000b
:1014d00080487800984078000101fb000203b100c9
:1014e0000000eb00e90f510027003e00c060210022
:1014f0000148780088047800d94078000101fb0099
:101500000203b1000000eb00e90f51001e003e0095
:10151000d0602100014878005900fb00e600070078
:101520000000e000120032005a0020006151b900b2
:101530008205780063005400624778000e00fb00cb
:10154000f2b79f0083bf9f00db0007007fb19700c9
:101550000000e0000b0032008e757e008884e900f8
:10156000828444000a05e800e80f5500efff3a00c6
:101570000000eb001904e00003003a0020602100a5
:10158000010037000000eb004f0778004f06be0057
:101590004f05be004f04be008f00b10000000600e2
:1015a000405f2100a2fd0700f0b288000000e000cb
:1015b00007003a00d05f21009dfd0700f0b28800cf
:1015c0000000e0000200320093ff0700f0b2880044
:1015d000f0b280000000e00002003a00006021004c
:1015e000f0b2880000000600881f7800c86521005e
:1015f0001804e00003003a00e9ff070020c0b30030
:10160000004c7800f0b280004f0478000000060023
:1016100040b220005d013700881f7800a8652100d6
:101620001804e00003003a00f9ff070020c0b300ef
:10163000004c7800100020004f04780000000600e5
:10164000c0b28000c2003700fdff3700f6874700b8
:10165000889fbe008a9fbe008c9fbe008e1f7800b0
:1016600000047800ecff070090b080000000e0006c
:10167000010032000000010020998000b1b280001a
:10168000808f50001c0032001004e0000f003a0070
:10169000309980001004e00002003a00d2ff0700f9
:1016a00030998800e2fd2f000f0141003100200039
:1016b00030998000d4010700209988001004e000d0
:1016c00002003200413221008008e90020998000a8
:1016d00047010700800478000085eb000900e00066
:1016e0006e003200c0b2800099000700c9b28800c5
:1016f00020998000b0b288008000eb005800900074
:1017000018fe070080047800780090007800b90087
:10171000280190000001410082b79f00d80090008e
:10172000d01620000088b90061004000e080480029
:101730004fc9de0000804400810049007200200093
:10174000030020007a060700ee024000c4b28000c9
:101750008006eb000005eb000901780088017800a5
:1017600047003700648445008004eb00530090007c
:10177000ec407c008180fb00808f50003f003c00eb
:10178000e3804500ecc078008180fb00b2b79f0089
:10179000e3b79f00d4b79f00c5b79f0096b79f00df
:1017a000a7b79f00effd07008b80e800ecc0780032
:1017b0008180fb003fb19700828050008080400014
:1017c000f1b79f006c467f008cf79f00efb1970048
:1017d0005fb29700cfb297001fb397000c04e000f0
:1017e000130032000c87fb000e87520001074700f0
:1017f0007c002000110009000c07d80001077800c8
:101800000006eb000e00e000010032006706170042
:101810007fb097000c004000f0b79f008ff097005a
:10182000e7cf500002003e0067005000f0b79f0075
:101830007fb697007860b9008b03e800e6c37b00b1
:101840008783fb00008043008fb09700808f50009b
:1018500012003500e6407c00e985450066c07d0049
:1018600080cf500002003a000a00e000020032007f
:101870000005eb00010037001a0020008d06e8008b
:10188000656bb800840578000606780004077800c8
:1018900066407a00e14f4000b2ff3a000a0078004b
:1018a0004f0778004f06be004f05be004f04be0034
:1018b0006f01b100000006001004b1000700350000
:1018c0009001b100040034007000b1000300350045
:1018d0009001b10001003c0010000500000005006f
:1018e0006900e100040035006d00e10003003400f0
:1018f0000002b100010032000000050010000500e8
:1019000090b080000000e000010032000000010003
:10191000e02f2100000006008001780084322100c1
:10192000a22f2100a101200040612100f001070049
:10193000406121000000060010b380000000e000bc
:1019400001003200000001000066210000000600d6
:101950000000e0002f003200c0017800e38f51004a
:101960002c0036000308a3002a003a0031b380009f
:101970000100e00002003200810f5000040031003d
:101980001100980030b388001600370082007800fc
:10199000110190000200e00002003200800f5100af
:1019a000faff39001102780084824000850f500050
:1019b00018003900808f520003003a00830842006b
:1019c00001007800070037000200e0000300320049
:1019d00083014000830f51000e003900120098006f
:1019e00090009800900090000100e0000900320093
:1019f00010014000828f500006003a00426621002c
:101a00000009eb00100178001108410091009000de
:101a10001100980000000600889fbe0000047800b6
:101a200021b380000100e0000200320001007800d4
:101a30000d00370031b380006066210004003700dc
:101a4000910f5400250036000180e80091009000bd
:101a50000100e000faff3a0010003700920f540036
:101a60001e0036000280e800100178000200e0004d
:101a7000faff3a001101780031b38000606621005e
:101a800004003700910f5400140036000180e80074
:101a900091009000828f5000faff3a0049b3800015
:101aa000888f540001003100880478000900780014
:101ab000cb0007000000e00004003a00888f5400cb
:101ac000050032008904d100f5ff370009187800bd
:101ad0009fff0700d2ff37000000eb004f04be005d
:101ae00000000600881f7800630440000800a10081
:101af0008000eb00800f540021003600e30f5400fb
:101b000001003e004800200008007800c2ff0700e6
:101b10008000eb000000e000190032009000780027
:101b20009101780064815100880f51000300310059
:101b3000110190000208780007003700088140007a
:101b400002087800910190001301980010017800bc
:101b50001109140088087800100178000000eb00db
:101b60000200e00004003200920190000300e00057
:101b7000010032000280e80020b388008180e80084
:101b8000010078004f0478000000060001002000ea
:101b90000100e00008003200010080000100e000c8
:101ba000050032008100e9000100880081804000ca
:101bb0000200800000b178000000060000017800fb
:101bc0000000eb00020037006a02b9000480410007
:101bd0008100e90005003300b201fb000303b100fe
:101be000e98f5100f8ff36000080eb00000006008e
:101bf000e4874700889fbe008a9fbe008c9fbe007e
:101c00008e1f7800904678000006eb000d04e0007f
:101c10006c0032008004e8000900780028002000f1
:101c2000020037000000e8000804e8008d00fb0017
:101c30009f0107000000e000faff3a006540b9008c
:101c4000a8ff0700000578000a0678000a00e000f7
:101c50005c0032000a0478008005eb0080c2b3000b
:101c6000994f10000b003a000900e80041002000e5
:101c7000d2ff070041892f00810540004e0033004c
:101c8000d940900090c2b30080cf50004a003a0083
:101c9000e68444008bf79f004b449800210020000d
:101ca00009007800c5ff07000040e90090f79f0099
:101cb000304498008984e800210020000900780061
:101cc000beff07000047e9002e4498008984e80021
:101cd0001900fb000003b100e90f500006003e00b0
:101ce0002100200009007800b4ff0700104498008c
:101cf0008984e800020037000040eb00104498009f
:101d00001ff09700eb4f50002b003e0030c6b30091
:101d1000804f570028003e009840900080cf500030
:101d200025003e0019407800b1c2b300814f500039
:101d30000500320081c0e800814f500002003200ef
:101d4000004ceb000f0037009940900000cdb3002d
:101d500000c04000e64f500017003e0002c3b30031
:101d600082cf500001003a0070c0b300004c7800f0
:101d7000b1c2b30099cf100001003a00674c400097
:101d80008984e800194078000004e00005003a006a
:101d90006504440000cceb000ff09700404498002d
:101da000080037008d4f500003003a0065044400de
:101db0008904e800a9ff37000a007800e4fe070064
:101dc0000006eb000c0078004f0778004f06be00bd
:101dd0004f05be004f04be004f00b10000000600da
:101de000800078000000eb000100e00005003400f6
:101df000010078007afb0700e10f400001003a0083
:101e00000000eb0000000600889fbe008a9fbe0015
:101e10000004be0002057800984578000b04e0003d
:101e2000010032000804e8008b00fb000800780085
:101e30001f0107000000e00003003a0008007800de
:101e400042fc0700000044000900e00002003c00e2
:101e5000080d5000080037001004e00003003a00ad
:101e6000000deb0000047800030037008904e9004e
:101e70000004e800ecff3700080078004f05be00c2
:101e80004f04be0000000600ee874700889fbe009a
:101e90008a9fbe008c9fbe008e1f7800f0b79f0007
:101ea00001067800820578000004780008057800b3
:101eb0000a047800b84678000d00fb0088fe070091
:101ec0000000e000f9ff3a00d0c2b30080cf560016
:101ed0000300320000c0e90080cf560002003a0043
:101ee0000a05e80001003700804678000b00e0009a
:101ef00005003500e18f550003003200400220004c
:101f0000808f5500060034006044b8000c00e000eb
:101f1000700032007fb09700000e78006d0037002f
:101f20000b00e0000e003200f08f55001a003a005e
:101f300000c3b3009a4f100017003a001a409000f7
:101f400081c7b300814f50000300320081c5b30048
:101f5000814f500010003a000a85e8000e0037005b
:101f6000ab00200000c3b3009a4f10000a003a00f3
:101f70001a40900081c7b300814f50000400320026
:101f80008b00200081c5b300814f500002003a0051
:101f90000a85e8000b0120000a00780000027800a2
:101fa0000400780001c3b300b0cf1000fbff320083
:101fb000040778006044b800b4b79f000d003700f4
:101fc0008152210081405000c1ef9f006159b9004a
:101fd0000800be0047fb07004fea97000401fb0022
:101fe000cf91de00c8b79f00d9b79f000204400020
:101ff000838448008e0278003e00fb0085bf9f006e
:10200000a40007000b0178008000780080522100b6
:10201000cf0307008fba97000000e000e8ff3a0006
:102020003fb29700850f550005003a006044b800a4
:102030000c00e00027003200ffb2970024003700b8
:1020400004825200d054210060c07d000000fb00db
:10205000000252001700330011003a004fe99700c8
:102060000200fb00cf80de000000540081805c0095
:10207000800f5400818f5c00090039006159b9005c
:1020800085bf9f0008fb07008fba97004fb19700ec
:10209000dfb19700820f5000838f58000500320097
:1020a0002002200000b388000084eb008084eb0055
:1020b00005003700d0c2b30080cf560002003a00be
:1020c00060041400e0841c000c00e00001003200f9
:1020d000050e78000800be004f0778004f06be00ce
:1020e0004f05be004f04be00ef00b1000000060027
:1020f0008f02b000889fbe008a9fbe008c9fbe00ea
:102100008e1f78000007780001067800020478002e
:1021100083bf9f00f4b79f00080078008bfb070087
:10212000800478008e0578000005eb004800370039
:102130000a05e9000a004500c1fc2f008f8040001d
:102140000080400010049000c00490001840780007
:102150008086fb008d06ea00cf6ede000d04440091
:102160008d84540051c2b300814f500002003a00e8
:102170000900e00005003a008d0f56003e003900ce
:102180008d0054000d0178001f003700984678003c
:1021900050c4b30080cf5600030032006a404000b4
:1021a00080cf560002003a000804e8000100370022
:1021b0008046eb00a5fd2f008f824200c4fc2f005b
:1021c0000f024200984178000d417800ffb097005f
:1021d0000fb89700540107000d04e0000100320021
:1021e0008904e9000804e8008904e900efa69700e3
:1021f0000d00e000090034008d0f56001e0039006c
:102200000d017800800078000b0078005a03070069
:102210008d8545000d0656000d0037000900e000d1
:1022200009003200e20f550007003e008a00450019
:10223000c2fc2f000f01410081004100980098006e
:10224000c90098000a05e8008d04ea00000478003f
:102250000900e000bdff3a000a00e000b4ff3a00c8
:102260000000eb000c00e00004003200804deb00a9
:102270000e805500010037000000eb004f0778008a
:102280004f06be004f05be004f04be008f02b100d6
:1022900000000600800078001104b1000300350042
:1022a0009101b10001003c000050a00000000600b8
:1022b0000001eb00030037000201e8000404e00025
:1022c000070032006103b8006112b80086014200c5
:1022d00066427a00814f5200f7ff3a000100370052
:1022e0008001eb00030078000000060080805000b1
:1022f000e7804000670241007300200011000900e0
:102300008300d80001005200110009000300d8002a
:10231000000006000200fa00889fbe008a9fbe00ef
:102320008004780081057800a2002000ea80570030
:102330000b007800ebfb07003fbd97002800200052
:102340008a8f5500330032009a457800f2c2b300fc
:1023500082cf55002f003a00d9019000c2762000ac
:1023600002814100cf91de00820f5000838f580020
:1023700023003a000a05e800a2002000ea80570086
:102380000a007800d7fb07000001be00bfb8970025
:10239000810f55001f00320091cf15001d003a003b
:1023a000490290000402e800cfa2de00840f510031
:1023b000858f59000500320018002000820f52005e
:1023c000838f5a0013003d00110037000100e80020
:1023d000a2002000ea805700c2fb07003fb9970027
:1023e000820f55000b00320039019000cf91de00c2
:1023f0000004eb00820f5000838f5800050032006c
:1024000018002000800f5100818f590001003d000d
:102410000084eb00080078004f05be004f04be00aa
:102420000080fa000000060000000500889fbe0042
:102430008a1f780080047800010478000801780081
:102440008900780010002000a8ff07000005780030
:10245000f5ff070000027800840154003917b0002e
:102460000884540072002000110009000204d80002
:1024700001047800d116200088804000848040004c
:10248000110009008200d800b0162000808f510092
:1024900003003400e28f500003003a000f003700c1
:1024a000808f510003003a00e38f500004003a008f
:1024b0000a003700a0162000808f510002003a0069
:1024c000e48f5000050032000884e900e20f540058
:1024d00003003e000a05e800010037000085eb001c
:1024e0000a0078004f0578004f04be000000060087
:1024f000881f7800000478000100780082007800ce
:10250000caff07000000e00002003a000804e900ea
:10251000030037000000e00001003c000804e80070
:10252000080078004f04780000000600889fbe0075
:1025300080047800010478008800780009007800a1
:10254000baff07000000e00009003a00b6ff0700ec
:10255000d11620000000e000010032008100e800f8
:10256000e784440008805400b0ff070003003700f0
:102570000000e00001003c00100020004f04be00fd
:1025800000000600889fbe008a9fbe00800478007d
:102590000204780003057800810578000b00e00054
:1025a00001003d008005eb00f0c4b300804f5200f5
:1025b00006003a000a0178008b00780015007800c8
:1025c00011fe07001a00e00012003c00080d780020
:1025d00088844400804ceb000001eb0008003700c9
:1025e000a3002000110009008305d80006c3b30032
:1025f00086c140000203ea0003737a008005780078
:10260000614ab800020052000201e8008200540052
:10261000f3ff3b004f05be004f04be000000060064
:102620000200fa00889fbe008a9fbe008c1f7800bf
:1026300000057800010678008004eb002c003700cc
:102640008805e8006c815700110020000b0078001d
:10265000edfd0700800078000a0078002dff0700dc
:1026600098407800d2c2b30082cf500002003a00f6
:102670000000e80003003700b2c2b30082cf500070
:102680001a003a00e10f500018003e006c8157001c
:10269000210020000b007800dbfd0700904078004f
:1026a00098cf500004003a0010419000a1c2b3003e
:1026b000814f510016003200800078000a00780037
:1026c00014ff070098407800d2c2b30082cf5000b8
:1026d00004003200b2c2b30082cf500003003a00bf
:1026e0000000e800e10f5000090036008904e8000e
:1026f0006c815700890078001c007800c2fd07003b
:10270000000478001804e000cdff3a00285a2100a8
:10271000080078004f0678004f05be004f04be0049
:102720000080fa0000000600ec874700889fbe008a
:102730008a9fbe008c9fbe008e1f78000005780027
:10274000810478008245780004047800050678004a
:102750000300fb00cf80de005002b1000180b10019
:1027600052052000820f5000e08f5800eb013e0020
:1027700000600100e5013700e8013700e70137009c
:10278000e6013700e5013700e4013700e3013700d7
:10279000e2013700e1013700e0013700df013700d7
:1027a000de013700dd013700dc013700db013700d7
:1027b000da013700d9013700d8013700d7013700d7
:1027c000d6013700d5013700d4013700d3013700d7
:1027d000d2013700d1013700d0013700cf013700d7
:1027e000ce0137003e003700450037005300370068
:1027f0006d003700c90137007e0037008c003700bc
:10280000960037009c003700c4013700c301370031
:10281000c2013700ae003700c0013700bf013700ea
:10282000be013700bd013700c5003700c8003700c2
:10283000d2003700df003700e2003700f200370037
:10284000ff0037005d013700a4013700b3013700f6
:10285000b2013700b1013700b0013700af013700d6
:10286000ae01370019003700770037002a00370023
:102870004600370050003700a801370061003700dc
:1028800071003700a501370081003700a301370030
:10289000a201370086003700940037009f013700ff
:1028a000960037009d0137009c0037009b013700e0
:1028b000ae003700b500370098013700cb00370075
:1028c000d6003700e900370060013700ea009000c9
:1028d0008180400008017800290090000500370041
:1028e000ea009000818040008100e8000801780043
:1028f0003900900044fd0700800678008d01370004
:10290000ca009000818040008100e8000801780042
:1029100069009000f7ff370050c4b30080cf550026
:1029200002003a00590890000100370009089000a1
:10293000080178008000eb00c900370050c4b300e4
:1029400080cf55000b003a00210220008980400012
:102950000a00780032ff07000000e8000801780054
:102960003100200028fd0700800678001d04e000eb
:1029700070013a00da0090004206200011000900c0
:102980008200d800f30040004b00370045022000d1
:10299000898242000b4278008801780022002000e2
:1029a000ba0090001e01370080ff2f00000c780055
:1029b0005d5a21005f0137004502200089824200f4
:1029c0000b4278008801780022002000ba009000b5
:1029d0000c007800ebfe07008006780000c3b3000f
:1029e0009c4f100053013a0070405000004e780098
:1029f0005001370080ff2f00000c7800ed5a2100b5
:102a00004c0137007a019000ea0090005a009000d3
:102a1000b7fe070042062000110009000200d8009e
:102a20000100e00024003d008280400022003700c9
:102a30007a019000ea0090005a009000acfe070076
:102a4000c1762000f0003700ca009000818040006d
:102a50000801780059009000a6ff370045022000c9
:102a6000898242000b427800880178002200200011
:102a7000aa009000ea003700aa009000eb80400016
:102a8000c2002000110009008200d80009003700b0
:102a9000fa0090008100e80045022000898242008f
:102aa0000b4278008801780032002000dc003700fb
:102ab000ca0090008100e80045022000898242009f
:102ac0000b4278008801780022002000d4003700f3
:102ad00045022000898242000b427800880178007c
:102ae000220020009a009000cd0037001000200046
:102af000000c78007d5b21000e01370011002000e2
:102b00002a009000eb0f500001003c008000eb0019
:102b1000080178001900780076ff370050c4b30030
:102b200080cf550002003a000910900001003700e4
:102b30003908900008017800310020004800370073
:102b4000b0ff2f00000c78009d5b2100f9003700da
:102b500045022000898242000b42780088017800fb
:102b6000220020009a007800ad00370010002000fd
:102b7000000c7800fd5b2100ee00370080ff2f0085
:102b8000000c78001d5c2100ea003700ea0090008c
:102b90000100e00001003a00710020004502200021
:102ba000898242000b4278008801780012002000e0
:102bb0009b0037007a019000ea0090000000eb00d3
:102bc00014003700fa0090006a00900057fe0700da
:102bd00045022000898242000b427800880178007b
:102be00022002000800078008d0037004502200080
:102bf000898242000b427800880178001200200090
:102c0000ea009000860037007a019000ea00900008
:102c100010002000b5fd0700edff370050c4b300e1
:102c200080cf550002003a0069089000010037008b
:102c300019089000080178001100200008003700f2
:102c400050c4b30080cf550002003a0079089000cc
:102c500001003700290890000801780021002000b9
:102c600069fc070080067800760037005a0790005c
:102c700042062000110009000207d8000107780071
:102c80000e00e00001003d00020747002d0020007b
:102c900050c4b30080cf550041003a00210220000b
:102ca000898040000a0078005dfe0700000278007d
:102cb0008d0142001304e000390032005a039000f5
:102cc000c076200000034300cfb3de000405e80017
:102cd00008017800110020000a007800e3b79f0087
:102ce000d4b79f00f6b79f0087bf9f0046fc070040
:102cf000a20020008000eb007af907007fb3970064
:102d00008fbb97000003530081835b00d0c2b300e8
:102d10005fb29700efb19700944f100002003a00a5
:102d200060031300e0831b00a2002000f88057001e
:102d300003007800e3b79f00f6b79f0087bf9f00ae
:102d400068f907000002be00cfb097002d002000f8
:102d5000efb197007fb397008fbb9700818f510031
:102d60000f003200914078009acf50000c003a00da
:102d70000400430085804b00000778001d00200000
:102d8000010037008d06e800a200200003002000ab
:102d9000b6f70700e00f5000e08f5800f9ff3c0045
:102da00045022000898242000b42780088017800a9
:102db0000d0178008e0078001900370050c4b30070
:102dc00080cf55000e003a0021022000898040008b
:102dd0000a00780012fe07000000e80008017800f1
:102de0004100200008fc070080067800b0c3b30053
:102df0009d4f1000020032001800e0000b003a0066
:102e0000da009000c076200080804000450220005b
:102e1000898242000b42780088017800420020003d
:102e20000c007800d7fd0700b3fe3700b103200087
:102e30000d0078001efd07000000e00001003200d8
:102e40000d0c5000180cea003a00370049109000b1
:102e50001004e00001003a00e3f9070008017800df
:102e600021002000e8fb0700800678001800e00041
:102e7000300034000a0890000000e0002d0034000b
:102e8000a20020008000eb000d00780015f907007b
:102e9000410620008080400003003300b0c2b30030
:102ea000004e780003003700d0c2b300004e780017
:102eb0008100ea000c00e8004502200089824200ff
:102ec0000b4278008801780042002000adfd070029
:102ed0008006e900180ce800160037001b002000ef
:102ee0000a0890000000e00001003c008005eb00b3
:102ef000491090001004e00001003a00baf9070000
:102f0000080178008b0078007afe3700100020005e
:102f1000000c7800ad5c210006003700034e7800fd
:102f20000040eb001046980020002000000c7800c4
:102f30008c0678000d0078004f0778004f06be0021
:102f40004f05be004f04be00cf00b10000000600d8
:102f500003003700b0cf1000050032000201e90085
:102f6000800178000200e000faff3a00000005004e
:102f7000030078000000060080017800020037009e
:102f8000b15978000201e9000200e000fcff3a00bc
:102f900000000600140020009d003700881f780004
:102fa000030478000300e00007003d00600010000b
:102fb000e080180060011900e081190002003b0068
:102fc00001f02d00030037000400070008f0a700ff
:102fd00001f0a0004f04780000000600889fbe00aa
:102fe0008a9fbe000082700004027100048271009a
:102ff000260032000004be000200be006011b800ce
:103000006b092000950220000182cf000a003900e0
:103010000541b1000082cf00070039000541b10031
:103020000982cf00040039000541b1000882cf00b9
:10303000010039000541b100054252001200320082
:103040000a003b0082817100610164008100d100af
:103050000080d3008984d3000884d3008b05e80066
:103060000442e800f7ff3a00070037000804440074
:1030700089844c0000004800818048008b05e900ed
:103080000442e900f9ff3a00030007004f05be00c3
:103090004f04be0000000600810020006180550042
:1030a0000b003d000b00200061fe2f000100e1003d
:1030b0001d00340082817100610164008904d10027
:1030c0000884d3000000e800faff3a0071002000f5
:1030d000610064000300700002006000090032001b
:1030e00061044400e0844c000988a500050032001a
:1030f0008b05e8006808e10002003a008904d1006d
:103100000884d300f20f20000258e10005003d00c2
:10311000c75ddd00f907b2008980750008007800fe
:10312000000006000bf827008b0078000000050067
:10313000811f78000100e00002003d0060001000e7
:10314000e08018000300e00002003d006001110073
:10315000e0811900e4f607004f00e00002003b00a8
:1031600060001000e080180000000600889fbe008c
:103170008a9fbe008c1f78000006eb00e00f500015
:10318000e08f5800e00f5900e08f590007003d0024
:103190006044b8006055b8000000540081805c00b5
:1031a00002015d0083815d001c002000e00f5200e1
:1031b000e08f5a00e00f5b00e08f5b0007003d00ee
:1031c0006044b8006055b8000402540085825c0079
:1031d00006035d0087835d000c00a2002f0007003e
:1031e0000c00e000060032006022b8006033b80036
:1031f0000000520081805a0002015b0083815b0065
:103200004f0678004f05be004f04be0000000600c8
:10321000889fbe008a9fbe00841f780017000700a9
:103220004f00780011003300f0ff2f00838f6c00f7
:1032300006003b00040565000a00a70008003700ef
:1032400009f0a6001000200008003700820f54008b
:10325000838f5c00030039001000200001003e0055
:103260000000200009f0a7000000ea004f05be00a2
:103270004f04be000000e000000006000004be0095
:10328000280007000003be000405be000200be00c7
:1032900024000700844f750000000600889fbe00d0
:1032a0008a9fbe008c9fbe000404b8000506b800cb
:1032b0008904460060854e000606b8000a054600ef
:1032c000e0854e000706b8008b054600040eb800e6
:1032d000890446000a854e00e0854d00050eb800c1
:1032e0000a0546008b854e00060eb8008b05460089
:1032f0000416b8000a0546008b854e000516b80076
:103300008b054600041eb8008b0546000800be0071
:103310000a01be004f06be004f05be004f04be00ae
:1033200000000600c70ade00f107b200f50fb20088
:1033300008003200e1cf4200020032000170a0001c
:1033400024000500810f7000010032000408050010
:1033500044000500810f700002003a0014000500cf
:103360008502e9000000400081c04800fcff3b00ee
:083370000170a000240005001b
:020000040000fa
:10337800754300002f4f0000532d000049490000fd
:1033880020490000646c00006500000075430000df
:103398002f4f0000532d0000494900002053000022
:1033a80074610000740000003f000000000000008d
:1033b80001000000020000000100000003000000fe
:1033c80001000000020000000100000004000000ed
:1033d80001000000020000000100000003000000de
:1033e80001000000020000000100000005000000cc
:1033f80001000000020000000100000003000000be
:1034080001000000020000000100000004000000ac
:10341800010000000200000001000000030000009d
:10342800010000000200000001000000060000008a
:10343800010000000200000001000000030000007d
:10344800010000000200000001000000040000006c
:10345800010000000200000001000000030000005d
:10346800010000000200000001000000050000004b
:10347800010000000200000001000000030000003d
:10348800010000000200000001000000040000002c
:10349800010000000200000001000000030000001d
:1034a8000100000002000000010000000700000009
:1034b80001000000020000000100000003000000fd
:1034c80001000000020000000100000004000000ec
:1034d80001000000020000000100000003000000dd
:1034e80001000000020000000100000005000000cb
:1034f80001000000020000000100000003000000bd
:1035080001000000020000000100000004000000ab
:10351800010000000200000001000000030000009c
:103528000100000002000000010000000600000089
:10353800010000000200000001000000030000007c
:10354800010000000200000001000000040000006b
:10355800010000000200000001000000030000005c
:10356800010000000200000001000000050000004a
:10357800010000000200000001000000030000003c
:10358800010000000200000001000000040000002b
:10359800010000000200000001000000030000001c
:1035a8000100000002000000010000007856000041
:1035b8003412000008070000060600000505000098
:1035c80005050000040400000404000004040000d1
:1035d80004040000030300000303000003030000c9
:1035e80003030000030300000303000003030000bb
:1035f80003030000020200000202000002020000b1
:1036080002020000020200000202000002020000a2
:103618000202000002020000020200000202000092
:103628000202000002020000020200000202000082
:103638000202000001010000010100000101000078
:10364800010100000101000001010000010100006a
:10365800010100000101000001010000010100005a
:10366800010100000101000001010000010100004a
:10367800010100000101000001010000010100003a
:10368800010100000101000001010000010100002a
:10369800010100000101000001010000010100001a
:1036a800010100000101000001010000010100000a
:1036b8000101000000000000000000000000000000
:1036c80000000000000000000000000000000000f2
:1036d80000000000000000000000000000000000e2
:1036e80000000000000000000000000000000000d2
:1036f80000000000000000000000000000000000c2
:1037080000000000000000000000000000000000b1
:1037180000000000000000000000000000000000a1
:103728000000000000000000000000000000000091
:103738000000000000000000000000000000000081
:103748000000000000000000000000000000000071
:103758000000000000000000000000000000000061
:103768000000000000000000000000000000000051
:103778000000000000000000000000000000000041
:103788000000000000000000000000000000000031
:103798000000000000000000000000000000000021
:1037a8000000000000000000000000000000000011
:1037b8000000000041540000264b0000330d0000bb
:1037c8000a0000004154000026440000310d0000aa
:1037d8000a000000415400000d0a000000410000ea
:1037e800542b000043520000454700003d320000c2
:1037f8000d0a0000004f00004b000000415400007b
:103808002b430000504900004e3f00000d0a000005
:10381800002b000043500000494e00003a200000f1
:103828005245000041440000590000004154000086
:103838002b430000494d0000490d00000a0000001c
:10384800415400002b43000052450000473f000050
:103858000d0a000000410000542b000043470000ff
:1038680052450000473f00000d0a0000002c0000f0
:10387800350000002c31000000410000542b0000ee
:1038880043530000434100000d0a000000410000be
:10389800542b00004b4300004e58000043460000e4
:1038a800473d0000312c0000224700005052000024
:1038b800532200002c220000434d00004e4500001a
:1038c800542200000d0a000000410000542b0000a3
:1038d8004b5400004350000043460000473d0000a1
:1038e800312c0000302c0000227d00003b2f00000e
:1038f8002f310000333900002e3100003936000026
:103908002e310000323200002e310000353900001f
:10391800222c000035300000383000000d0a00006d
:103928000a000000415400002b4b000054430000e3
:103938005053000054410000525400003d31000033
:103948000d0a0000004300004f4e00004e450000e5
:103958004354000000410000542b00004b54000069
:1039680043500000434c00004f530000453d000009
:10397800312c0000310d00000a0000004154000005
:103988002b4b00005443000050440000454c0000fd
:103998003d3100000d0a000000000000051e000077
:1039a8001e1e00001e1e00001e1e00001e1e00001f
:1039b8001e1e00001e1e00001e1e00001e1e00000f
:1039c8001e1e00001e1e00001e1e00001e0000001d
:1039d80031330000392e000031390000362e000046
:1039e80031320000322e000031350000390000006d
:1039f8000000000000000000d813000000000000d4
:103a080000000000000000000000000000000000ae
:103a1800000000000000000000000000000000009e
:103a2800000000000000000000000000000000008e
:103a3800000000000000000000000000000000007e
:103a4800000000000000000000000000000000006e
:103a5800000000000000000000000000000000005e
:103a6800000000000000000000000000000000004e
:103a7800000000000000000000000000000000003e
:103a8800000000000000000000000000000000002e
:103a9800000000000000000000000000000000001e
:103aa800000000000000000000000000000000000e
:103ab800000000000000000005000000081e0000d3
:103ac80001010000000000000000000000000000ec
:103ad80000030000010000001e00000008000000b4
:103ae8004757000003000000ffff0000ffff000031
:103af800ffff0000ffff0000ffff0000ff7f000046
:103b08005555000055550000ffff0000ff3f00001d
:103b18003333000033330000aaaa0000aa2a0000a9
:103b28002449000092240000ffff0000ff1f00004e
:103b38001cc70000711c0000999900009919000029
:103b480074d10000451700005555000055150000b8
:103b5800133b0000b113000092240000491200003a
:103b68001111000011110000ffff0000ff0f0000fd
:103b78000f0f00000f0f00008ee30000380e00004a
:103b88005e430000790d0000cccc0000cc0c000096
:103b98000cc30000300c0000bae80000a20b0000c3
:103ba8002c640000210b0000aaaa0000aa0a000049
:103bb800a37000003d0a0000899d0000d80900009c
:103bc8005e4200007b0900004992000024090000c1
:103bd800b0dc0000d30800008888000088080000d6
:103be8008410000042080000ffff0000ff070000eb
:103bf8007cf00000c10700008787000087070000ed
:103c08000775000050070000c77100001c0700007e
:103c18004865000061700000005500006e6e0000ed
:103c2800616d00006564000020730000746100008d
:103c38007469000063200000706f00006f6c000062
:103c4800005500006e6e0000616d000065640000a4
:103c58002073000074610000746900006320000094
:103c6800706f00006f6c0000206600007265000035
:103c780065200000626c00006b2000007462000088
:103c88006c0000003132000033340000353700008a
:103c9800383900003031000032330000343500007c
:103ca80036370000383900003000000020170000c7
:103cb800100600001230000007000000313000003c
:103cc800332e0000310000003f0000003f000000dc
:020000040000fa
:103cd8001168ef001268ef001768ef001668ef0030
:103ce8000028ef000228ef001828ef001a28ef003c
:103cf8000c28ef000e28ef000828ef000a28ef0034
:103d08001068ef002568ef00000006001568ef0056
:103d1800d0d120008080e8000068eb00810f5000bf
:103d2800fdff3a001368ef001468ef002028ef0049
:103d38001c28ef0000000600518120009140780007
:103d48008180fb00a09d2900e0c078000181fb0074
:103d5800e3d12000634179000281fb003300200099
:103d68008308dd00604079008140400040812000e8
:103d7800014878000000060012028000000e2000b2
:103d88004220b700c0408000d14080006100400060
:103d9800e0804800c0408800d140880012028800b6
:103da800da170700f4ff37000200fa00300020009d
:103db800801f7800801feb00060420000700200009
:103dc800e5d920000082eb00a3c0b30022f82f0041
:103dd800050141008000eb0000ec21004b060700c4
:103de80066815700c19b2900a0c0b300fb040700ef
:103df800e48757000080fa00000006000200fa007d
:103e080030002000801f7800801feb00060420008f
:103e180007002000c5d12000e4ff2f0093c0b300a5
:103e280022f82f00050141008000eb00a048220085
:103e38003606070066815700a19c290090c0b30090
:103e4800e6040700e48757000080fa000000060037
:103e58008002780040c0b3000500e0000a0032008c
:103e6800c0c0b3000100e0000700320020c1b30069
:103e78001148e20004003a009541e900e3cf5100ff
:103e88000300360010c0b3000049780000000600a7
:103e980013028000000e20004220b700d1029800d3
:103ea800130288000049eb000000060016c8bf0096
:103eb800e14f500005003a0011c8bf00e14f400033
:103ec800020032000040e80011e8b70000000600d8
:103ed800881f780016c8bf00e14f500025003a003f
:103ee80018028000000e20004220b70011c8bf0051
:103ef800020032000040e90011e8b7001148e20072
:103f08001b003a001248e20019003a008aff070035
:103f180041812000914078000180fb0000004000b2
:103f280002da200062007800004188003281200017
:103f380012417800814f51000d003200101190009d
:103f4800a011900061014100e08149001210980021
:103f5800231098000040800011408000610040005c
:103f6800e080480000408800114088001f160700c4
:103f7800180288004f0478000000060016c8bf0029
:103f8800e14f50000b003a0011028000000e2000a3
:103f98004220b7001148e20005003a0012c8bf00ed
:103fa800e14f4000020032000040e80012e8b7008c
:103fb80011028800000006001648e2000a003a00d4
:103fc8005dff070014c8bf0013e8b7000080fb00be
:103fd8000000400001da20006100780000418800fc
:103fe800e0408800be15070000000600881f780022
:103ff8002000200001002000541507001102800055
:10400800080e2000080078004220b7001828ef00aa
:104018001a28ef0011028800400620000100200045
:104028004a15070013028000080078004220b700f4
:10403800c0408000d1408000404088005140880046
:1040480011c0b300028120000149780013028800e2
:104058004f0478000000060061812000914078003c
:10406800e1cf500039003a0024c8bf00e14f5000aa
:104078003600320006003900e24f500003003a00d3
:104088004082200001487800010037002468ef00d2
:1040980017418000518120009140780026003700a8
:1040a80014028000000e20004220b700370990005b
:1040b800c7099000e00f5100e08f59001c00320042
:1040c80061015100e0815900b20b9800c30b9800c0
:1040d800e00f5100e08f590015003a00a7599000f1
:1040e800030178007203b2000400320082ccb300ee
:1040f80082c16100a35b980012c0b300b25b980054
:10410800275990000238a30009003a00076190007f
:1041180082c07000675990000281fb00e3d1200043
:1041280063437900f75a90008542730085717900de
:10413800f70390001402880047599000ea4f510095
:10414800d7ff3a005281200001497800000006009c
:10415800b02127000000060000000600e1408000b2
:1041680090089800615990000281fb00820140008c
:10417800734290007159900002417200f241980018
:10418800e04190000161900002c171006240980016
:10419800615990000281fb00e3d120007158900022
:1041a80000c0ea0063427900044060008071790031
:1041b80003003a000160900000c0ea001568b600ec
:1041c80000000600e14080000001eb009208980022
:1041d800a0089800100178000a0037008381fb00ce
:1041e80083024100f541900004c27100f442980036
:1041f800624290008161900083417200634198009f
:1042080050017800e1599000715a90000200e000d6
:10421800f2ff3a000381fb00e3d1200004c0ea006a
:10422800e3427900054060008071790003003a009c
:104238000160900000c0ea001568b60000000600a2
:10424800e05990008381fb00038240007059900080
:1042580002c1ea0074429000044161008381400079
:10426800f24198000204e00005003a000061900065
:1042780002c1ea00e141900002c16100e2409800f9
:104288008000eb001108980000000600605b9000b9
:1042980080629000705a9000110078000e0037007c
:1042a8008681fb000301400084c3ea00724190004c
:1042b80002c1630083014000f24198000204e0005b
:1042c80004003a0005c1ea00e041900002c1610023
:1042d80062409800510078000000e000f0ff3a00ca
:1042e80000000600889fbe008a1f7800000478003e
:1042f800684090000080fb00a19d29006142780081
:104308000483fb0086024400f54290008582fb008e
:104318003a0020000a25dd00e1c07a000145450089
:104328008a80fb008180400004da2000e484780061
:104338006022b800b40c9800c50c980002c1ea00cd
:10434800a958900001416100a25c9800b35c9800f4
:104358000238a30007003a00096090001568b7000a
:10436800e1d12000e1417b007959900002c1710040
:1043780082707b008800780009007800b0ff070091
:10438800a90890000100e00003003200090078004d
:10439800beff0700980c98000a4078004f05780087
:1043a8004f04be00000006008040eb00614098000a
:1043b8008080e8000041eb00724098000000e800af
:1043c800810f5000fbff3a00000006000200370092
:1043d8000058eb008100e9000100e000fcff3a0012
:1043e800000006004124200060db2000f7ff0700e2
:1043f8006101200000da2000f4ff070041dc200002
:104408000000eb000000e800a40320000482b900cb
:1044180062db200084084100839d2900b3109800c6
:10442800a103b000e90f5000f6ff3a0080212000f8
:10443800020040000008eb00a37f88002228ef005c
:10444800f2408800000006008104200060c52000ba
:10445800deff070060c520008000eb008100e80057
:104468000048eb006c0ab90062c5200084014100d5
:1044780013009800839d2900530098006c004000a9
:10448800e58f5000f5ff3a00c0032000020040000d
:104498000048eb000080e8000008eb00e3648800b7
:1044a80022408800000006001216070008fe0700d8
:1044b80016fe0700cbff0700e3ff07003afe0700e0
:1044c8004efe07000e1637000200370031587800fc
:1044d8000201e9000200e000fcff3a0000000600cb
:1044e800881f780018028000000e20004220b700c4
:1044f8001148e2001b003a001248e20019003a0095
:104508000dfe070041812000914078000180fb00ea
:104518000000400002da20006200780000418800b4
:104528003281200012417800814f51000d00320085
:1045380010119000a011900061014100e081490034
:10454800121098002310980000408000114080004d
:1045580061004000e0804800004088001140880069
:1045680075140700180288004f0478000000060040
:1045780016c8bf00e14f500013003a001302800034
:10458800000e20004220b7001148e2000d003a005a
:1045980021812000914078000104e00007003200ea
:1045a8008140e90022812000014978000104e000ef
:1045b80002003a0013028800c9ff3700130288007e
:1045c800000006001302880000000600889fbe0055
:1045d8008a9fbe008c9fbe008e1f780080047800e2
:1045e800010478000205be000900e0000600320060
:1045f8001900e000040032000800e0000200320068
:104608000a00e00002003a0040c0b300140037007e
:10461800000ceb0019067800890078000901780081
:104628000c0078000600370033c0b30090cf1100ab
:104638000200320010c0b3000900370052007800b1
:104648000000e000f8ff3a0020c0b3001148e20083
:1046580003003a001248e20004003200d0c0b30060
:10466800804d78008006eb005e0037001e02800057
:10467800000e20004220b7000041eb008006eb004e
:10468800024078000f00370033c0b3009ccf110000
:1046980041003a00ac0190000300e000070032003e
:1046a8008301e900230698000c1c7800001deb002c
:1046b8008d06e80010c0b3000100370012c0b30037
:1046c800510678000c00e000efff3a00e14f50007f
:1046d80004003a00000ceb001e028800804deb003d
:1046e80040003700e0408000a05890000174a0000e
:1046f80082c07000215898003c58980034089800ef
:104708004508980009007800aefe07001e028800e0
:1047180073ff07001e028000000e20004220b70031
:10472800e0408000b05890000104e0000200320030
:10473800e2cf500009003a00100e90000c00e00093
:10474800040032000c0c7800002ceb001d00200047
:104758000400370011c0b300315898008900780070
:10476800cafe0700e0408000305890000004e000d6
:1047780003003200e24f50000f003a000b003700f0
:1047880030c0b3009c4f100003003a00000deb004e
:10479800804deb000b0037001e028800000ceb0078
:1047a80010c0b300804d78000e003700000deb00fc
:1047b800e0c0b30002003700000deb00a0c0b3005a
:1047c800804d7800e04080008040eb002158980040
:1047d800315898008000eb001108980021089800d3
:1047e8001e0288000d0078004f0778004f06be00b3
:1047f8004f05be004f04be00000006000041eb005c
:104808000000e000040032008000780000c1500081
:104818003104e000fdff3a00024078000000060085
:10482800889fbe00800178000204780040c0b30071
:104838000300e000030032000100e00004003a0039
:10484800c0c0b300004c78000040eb000f003700f8
:1048580010c1b3001148e200faff3a001341e90021
:1048680010c0b300e34f5100f6ff3e00190280006c
:10487800000e20004220b700530090008008780006
:10488800deff070019028800004ceb004f04be0051
:10489800000006000800fa00889fbe0009da200020
:1048a8000044eb00ec80570008407800a3020700a2
:1048b8000004e0000e003a00190078000000e00053
:1048c8000b003200e10f500009003200b0009000e8
:1048d80081804000200190008100510071109800f3
:1048e8004fb99700dfb9970002189800131898007d
:1048f8000844e8008984e800eb4f5400e9ff3a00d7
:104908004f04be000080fa0000000600881f7800ef
:1049180003003700800c2000010020000b13070063
:104928001048e200fbff320042062000030020008e
:104938004040800051408000d9f007004040880086
:1049480051408800e00f5000e08f580003003a0003
:104958000668ef0000c0eb00b002070018028000f4
:10496800000e20004220b70042062000030020006d
:104978004040800051408000dcf00700c0408800c3
:10498800d14088001802880012028000000e200022
:104998004220b700c0408000d140800060408800bd
:1049a800714088001828ef001a28ef0012028800ca
:1049b8004240800053408000b9f0070042c6b3006f
:1049c800804051006080200001487800d114070021
:1049d800b0ff07004006200001002000db1207009e
:1049e800e9ff3700889fbe008a9fbe000044780018
:1049f8001a028000000e20004220b700f940800013
:104a08000900e0005a003200f9059000fb408800d8
:104a18001a028800810c7800c85c98000045eb00f9
:104a2800aa5c9800ba5c98006000b800b00c9800c6
:104a3800c10c980096049800b4049800c504980026
:104a4800a2049800d7049800e30498009a64980098
:104a58000885fb004352de00e45c9800674464006c
:104a6800d85c980012002000030020000203be005a
:104a7800840578008b05e900030033000603430032
:104a880087834b00fbff3700866498000884fb008f
:104a98000804e90003003300020141008381490052
:104aa800fbff3700f25c98000004eb00980c9800bc
:104ab800a80c980090149800a1149800d01498009d
:104ac800e1149800b0149800c1149800f8149800e4
:104ad800801c9800911c9800829d2900a21c9800b7
:104ae800b01c9800c11c9800090078008b140700be
:104af80012028000000e20004220b7000a0545007f
:104b080001da200089307d0012028800090078004f
:104b18007c14070011028000000e20004220b7001c
:104b280010418000f0049800880c98000000e00014
:104b380001003200090898001941880009609000b6
:104b48001568b700695890000080fb00e2d120008a
:104b580062427800f959900083417200037178002d
:104b68001768ec00110288000040eb0002003700d3
:104b78001a02880020c4b3004f05be004f04be00cf
:104b880000000600e8874700889fbe008a9fbe0095
:104b98008c9fbe008e1f780000437800e94f5300b9
:104ba80003003600a2c2b300e14f430091003a006f
:104bb800a2c2b300e9cf50008e003e00150280006b
:104bc800000e20004220b7000182fb0004014200d1
:104bd80003da2000630179000200e00003003200dc
:104be8001502880082c2b30082003700e14f4300fb
:104bf80002003a00e0408000405b90000680fb0025
:104c08000000400008da2000680178000200e00097
:104c180003003a001502880092c2b30075003700fd
:104c2800e10f510003003a001502880032c4b300b6
:104c3800700037000186fb004366de00e7c16000b4
:104c480083f79f008c81fb001600200007002000de
:104c5800830478008904e900030033000603430055
:104c680087834b00fbff3700864378000ff59700da
:104c78000a83fb001a0020000b0020000603e9004d
:104c8800030033000a0545008b854d00fbff370004
:104c9800eab79f00fbb79f000a4378000000440072
:104ca8000008eb000402420002347a00026590001a
:104cb800725c9000625a90000482fb00e9d12000e7
:104cc80069407a00884660000c00320088c6ea0015
:104cd8000d40600080747a0002003a000ac0ea00c1
:104ce8001568b600074078001568b700e0d12000c5
:104cf800e0c479008944730009f079001208900033
:104d08000000e000130032008404400088c6ea0076
:104d1800f944900089c4660084064000f94698006a
:104d28000904e00004003a008ac4ea00e046900062
:104d380089c4660069409800e044900087c4740004
:104d48006940980083044000794090000040730057
:104d5800f0449800a20c90000900e000180032000e
:104d680019007800140037008406400008c7ea00dc
:104d7800fd4690008d466700040740007d47980077
:104d88000d04e00004003a008ac6ea00604790007b
:104d98008d4667006d409800e046900087c6760013
:104da8006d409800830640007d40900000407300ed
:104db800f0469800590078000000e000eaff3a0049
:104dc800415998006c5998008ff1970053599800f1
:104dd8000761980076599800150288000041eb0099
:104de80016c8bf00e14f500002003a00bcfd0700a2
:104df8000041eb00024078004f0778004f06be00e4
:104e08004f05be004f04be008f00b1000000060031
:104e1800889fbe008a1f780000037800034478004a
:104e2800aac2b300ea4f54002b003e0013028000d0
:104e3800000e20004220b7001148e20003003200b3
:104e48001302880072454500230037008884fb0060
:104e58008984440004da2000e4827c000500e00034
:104e68001b003a008904420014002000840c7800da
:104e7800130288008001eb0006007800a8130700e1
:104e88006033b8006022b8006011b8008000780074
:104e980008407800d3fe0700004578000a04e000c7
:104ea80005003a0016c8bf00e14f50000a003a005a
:104eb8008bfd07000800370012028000000e20005a
:104ec8004220b700800ceb00120288000200370075
:104ed800130288008ac2b3000a4078004f057800a0
:104ee8004f04be0000000600889fbe008a1f78009d
:104ef8008044780000c4b3001148e20066003a001c
:104f080000c0e900eacf540063003200e9cf540042
:104f18000300360074405000e1cf44005e003a00c0
:104f28001a028000000e20004220b700e1cf4400a2
:104f380002003a00e0408000c05c90008984fb00d9
:104f48000980440001da2000610478000800e000cc
:104f580003003a001a02880030c4b3004e0037003c
:104f6800e10f540003003a001a028800d0c3b300ce
:104f780049003700e85890008180fb00e2d120000a
:104f88007858900000c0ea00e2c178000340600051
:104f980000f1780003003a000860900000c0ea00c1
:104fa8001568b600980890000100e0000200320081
:104fb80008007800a2fc0700a80890000100e000a3
:104fc8000200320008007800b0fc07006000b8005a
:104fd800300c9800410c98000040eb00205c9800d1
:104fe800305c980012c8bf00e14f40000200320058
:104ff8000040e80012e8b7001a02880056fc0700d3
:105008001a028000000e20004220b70012c8bf001c
:10501800020032000040e90012e8b70008007800fa
:10502800391307001768ed008984440000da20006e
:1050380089044000800ceb00080890000000e000a4
:1050480004003a00f8009000800898001141880098
:1050580004003700f800900071009800f8009000f4
:1050680080089800f040800070049800f84088009c
:10507800a0e62900201c98001a0288000040eb00d6
:105088006181200091407800e1cf500002003a0091
:1050980013fd07000040eb004f0578004f04be00e9
:1050a8000000060080407800e0c3b300eacf50005b
:1050b8001f003200e9cf50000a003600744050004b
:1050c800e1cf40001a003a0011028000000e2000d3
:1050d8004220b700e0408000106090001102880074
:1050e8000000060013028000000e20004220b700d6
:1050f8008180fb008180400002da2000e280780095
:105108000100e00002003a001302880030040500a4
:10511800e18f500002003a0013028800d003050016
:10512800f2c3b30092609800130288000040eb00bd
:1051380000000600889fbe008041780002047800c5
:10514800eacf510003003600a0c2b300e1cf41000e
:1051580003003a000100e00004003a00c0c0b300b8
:10516800004c78000040eb001a00370010c1b30073
:105178001148e200faff3a0019028000000e2000f0
:105188004220b700e1cf410002003a00e040800031
:10519800c05990000380fb000000400002da2000a4
:1051a800620078000000e00002003200e10f5000c9
:1051b80003003a001902880030c4b300e8ff370042
:1051c80020189000800878008cfd070019028800dc
