:020000040000fa
:080000000002040000000000f2
:020000040000fa
:04000800640300008d
:020000040000fa
:04000c006403000089
:020000040000fa
:040010006403000085
:020000040000fa
:040014006403000081
:020000040000fa
:04001800640300007d
:020000040000fa
:04001c006403000079
:020000040000fa
:040020006403000075
:020000040000fa
:040024006403000071
:020000040000fa
:04002800640300006d
:020000040000fa
:04002c006403000069
:020000040000fa
:040030006403000065
:020000040000fa
:04003400fc020000ca
:020000040000fa
:04003800640300005d
:020000040000fa
:04003c006403000059
:020000040000fa
:040040006403000055
:020000040000fa
:04004400f82a000096
:020000040000fa
:04004800ec020000c6
:020000040000fa
:04004c006403000049
:020000040000fa
:040050006403000045
:020000040000fa
:040054002c03000079
:020000040000fa
:04005800640300003d
:020000040000fa
:04005c006403000039
:020000040000fa
:040060006403000035
:020000040000fa
:040064006403000031
:020000040000fa
:04006800640300002d
:020000040000fa
:04006c006403000029
:020000040000fa
:040070006403000025
:020000040000fa
:040074001c03000069
:020000040000fa
:040078007a03000007
:020000040000fa
:04007c006403000019
:020000040000fa
:040080006403000015
:020000040000fa
:040084006403000011
:020000040000fa
:04008800640300000d
:020000040000fa
:04008c006403000009
:020000040000fa
:040090006403000005
:020000040000fa
:040094000c03000059
:020000040000fa
:0400980064030000fd
:020000040000fa
:04009c0064030000f9
:020000040000fa
:0400a0003c0300001d
:020000040000fa
:0400a4004c03000009
:020000040000fa
:0400a80064030000ed
:020000040000fa
:0400ac0064030000e9
:020000040000fa
:0400b00064030000e5
:020000040000fa
:0400b40064030000e1
:020000040000fa
:0400b80064030000dd
:020000040000fa
:0400bc0064030000d9
:020000040000fa
:0400c00064030000d5
:020000040000fa
:0400c40064030000d1
:020000040000fa
:0400c80064030000cd
:020000040000fa
:0400cc0064030000c9
:020000040000fa
:0400d00064030000c5
:020000040000fa
:0400d40064030000c1
:020000040000fa
:0400d80064030000bd
:020000040000fa
:0400dc0064030000b9
:020000040000fa
:0400e00064030000b5
:020000040000fa
:0400e40064030000b1
:020000040000fa
:0400e80064030000ad
:020000040000fa
:0400ec0064030000a9
:020000040000fa
:0400f00064030000a5
:020000040000fa
:0400f40064030000a1
:020000040000fa
:0400f800640300009d
:020000040000fa
:0400fc006403000099
:020000040000fa
:040100006403000094
:020000040000fa
:040104006403000090
:020000040000fa
:04010800640300008c
:020000040000fa
:04010c006403000088
:020000040000fa
:040110006403000084
:020000040000fa
:040114006403000080
:020000040000fa
:04011800640300007c
:020000040000fa
:04011c006403000078
:020000040000fa
:04012000dc020000fd
:020000040000fa
:040124006403000070
:020000040000fa
:04012800640300006c
:020000040000fa
:04012c00500300007c
:020000040000fa
:040130005a0300006e
:020000040000fa
:040134006403000060
:020000040000fa
:04013800640300005c
:020000040000fa
:04013c006403000058
:020000040000fa
:040140006403000054
:020000040000fa
:040144006403000050
:020000040000fa
:04014800640300004c
:020000040000fa
:04014c006403000048
:020000040000fa
:040150006403000044
:020000040000fa
:040154006403000040
:020000040000fa
:04015800640300003c
:020000040000fa
:04015c006403000038
:020000040000fa
:040160006403000034
:020000040000fa
:040164006403000030
:020000040000fa
:04016800640300002c
:020000040000fa
:04020800640300008b
:020000040000fa
:04020c006403000087
:020000040000fa
:040210006403000083
:020000040000fa
:04021400640300007f
:020000040000fa
:04021800640300007b
:020000040000fa
:04021c006403000077
:020000040000fa
:040220006403000073
:020000040000fa
:04022400640300006f
:020000040000fa
:04022800640300006b
:020000040000fa
:04022c006403000067
:020000040000fa
:040230006403000063
:020000040000fa
:04023400640300005f
:020000040000fa
:04023800640300005b
:020000040000fa
:04023c006403000057
:020000040000fa
:040240006403000053
:020000040000fa
:04024400640300004f
:020000040000fa
:04024800640300004b
:020000040000fa
:04024c006403000047
:020000040000fa
:040250006403000043
:020000040000fa
:04025400640300003f
:020000040000fa
:04025800640300003b
:020000040000fa
:04025c006403000037
:020000040000fa
:040260006403000033
:020000040000fa
:04026400640300002f
:020000040000fa
:04026800640300002b
:020000040000fa
:04026c006403000027
:020000040000fa
:040270006403000023
:020000040000fa
:04027400640300001f
:020000040000fa
:04027800640300001b
:020000040000fa
:04027c006403000017
:020000040000fa
:040280006403000013
:020000040000fa
:04028400640300000f
:020000040000fa
:04028800640300000b
:020000040000fa
:04028c006403000007
:020000040000fa
:040290006403000003
:020000040000fa
:0402940064030000ff
:020000040000fa
:0402980064030000fb
:020000040000fa
:04029c0064030000f7
:020000040000fa
:0402a00064030000f3
:020000040000fa
:0402a40064030000ef
:020000040000fa
:0402a80064030000eb
:020000040000fa
:0402ac0064030000e7
:020000040000fa
:0402b00064030000e3
:020000040000fa
:0402b40064030000df
:020000040000fa
:0402b80064030000db
:020000040000fa
:0402bc0064030000d7
:020000040000fa
:0402c00064030000d3
:020000040000fa
:0402c40064030000cf
:020000040000fa
:0402c80064030000cb
:020000040000fa
:0402cc0064030000c7
:020000040000fa
:0402d00064030000c3
:020000040000fa
:0402d40064030000bf
:020000040000fa
:0402d80064030000bb
:020000040000fa
:0402dc0064030000b7
:020000040000fa
:0402e00064030000b3
:020000040000fa
:0402e40064030000af
:020000040000fa
:0402e80064030000ab
:020000040000fa
:0402ec0064030000a7
:020000040000fa
:0402f00064030000a3
:020000040000fa
:0402f400640300009f
:020000040000fa
:0402f800640300009b
:020000040000fa
:0402fc006403000097
:020000040000fa
:040300006403000092
:020000040000fa
:04030400640300008e
:020000040000fa
:04030800640300008a
:020000040000fa
:04030c006403000086
:020000040000fa
:040310006403000082
:020000040000fa
:04031400640300007e
:020000040000fa
:04031800640300007a
:020000040000fa
:04031c006403000076
:020000040000fa
:040320006403000072
:020000040000fa
:04032400640300006e
:020000040000fa
:04032800640300006a
:020000040000fa
:04032c006403000066
:020000040000fa
:040330006403000062
:020000040000fa
:04033400640300005e
:020000040000fa
:04033800640300005a
:020000040000fa
:04033c006403000056
:020000040000fa
:040340006403000052
:020000040000fa
:04034400640300004e
:020000040000fa
:04034800640300004a
:020000040000fa
:04034c006403000046
:020000040000fa
:040350006403000042
:020000040000fa
:04035400640300003e
:020000040000fa
:04035800640300003a
:020000040000fa
:04035c006403000036
:020000040000fa
:040360006403000032
:020000040000fa
:04036400640300002e
:020000040000fa
:04036800640300002a
:020000040000fa
:10040000afea20000eff20000e018800000000006f
:10041000000020000000e000020032000001200087
:100420002002880014000700d60007000000e0004a
:1004300003003a00e03622000100200002003700ed
:100440000000200001002000810f70000100320038
:1004500014000700000020000000e000020032004d
:100460000000020000000000822d020000000000d9
:100470000040da000000fe004440a90020222000d5
:100480000000e0000300320000002000a00188000e
:100490004440a800000006008a1f78008b1f7800e7
:1004a0000000060091018800800478000000eb0045
:1004b0001a003700e284440032a0b4009905ba0063
:1004c000e284440032a0b4009906ba00e2844400f9
:1004d00032a0b4000006eb00476fde00fd07b2005b
:1004e000636ce10003003a00ebff07000000eb0043
:1004f0000a003700606ce10004003a00005deb0088
:100500008b05e900fdff3e00040037006168e10053
:10051000010032000086eb000b00070019c7ba008b
:100520001905ba000e04e00003003a000a00e000da
:10053000e0ff3a0000000600fe07b2009e018800be
:100540008a047800f5ff3700395dba008b05e900b1
:100550000c003200295dba008b05e900080032006a
:100560000c00e00003003a00e284440032a0b40032
:10057000f5ff370019ddba008b05e900faff3a00f4
:100580008904e800e184440032a0b40000000600c1
:10059000000000000000000000000000000000005b
:1005a000000000000000000000000000000000004b
:1005b00000000000000000003400f800881f7800f0
:1005c00008002000a80188004f0478008bc0a90013
:1005d0003400f900004006003400f800881f78005d
:1005e00008002000a80188004f0478008500a900b9
:1005f0003400f900004006003400f800881f78003d
:1006000008002000a80188004f0478008460a90039
:100610003400f900004006003400f800881f78001c
:1006200008002000a80188004f0478008760a90016
:100630003400f900004006003400f800881f7800fc
:1006400008002000a80188004f0478008660a900f7
:100650003400f900004006003400f800881f7800dc
:1006600008002000a80188004f0478008560a900d8
:100670003400f900004006003400f800881f7800bc
:1006800008002000a80188004f04780087c0a90056
:100690003400f9000040060087e0a9000040060091
:1006a0002222ab00010032002222a9008c20a900e6
:1006b000004006003222ab00010032003222a900c5
:1006c0008c40a900004006008040ab0001003200d1
:1006d0008040a9008060ab00010032008060a9006a
:1006e0008080ab00010032008080a9000000fe0085
:1006f000004006008680a90000400600889fbe00da
:1007000080047800407580000000e00004003a009a
:100710000f0007000084eb000000e0000800350037
:10072000487580000900e00005003200090044001f
:10073000070007000000e00001003d000084eb001e
:10074000080078004f04be0000000600000005000d
:10075000800078000100e00003003a000000200063
:1007600040758800000005000080eb0002002000ba
:10077000828f500002003e00417588000000eb00af
:100780000000060000000500839f68000100e000f3
:1007900002003d0060001000e08018000300e0004f
:1007a00002003d0060011100e08119000500070012
:1007b0004f00e00002003b0060001000e0801800e5
:1007c000000006006022b800060220000000d000f1
:1007d0008180d2000482d2008582d2000000a00075
:1007e0000202520083825a000300310002024200da
:1007f00083824a000000a1000603e900f3ff3a00eb
:1008000000000600020ab900001bb9000200b8008f
:100810008100420081004300000006001000fa0041
:10082000889fbe008a9fbe008c9fbe000006780095
:10083000cc019000c2002000110009008201d80004
:100840000001780044ff2f000492b9008481410028
:1008500002003b00ec8141000201e900dc0690004f
:100860000200e00007003d000400280002025200e0
:100870000080eb008080eb00848f560009003d0073
:100880006d0037000200e00006003200f4ff270090
:10089000020252000080eb008080eb008d0f5200be
:1008a000650035008d064100830078000d0078005a
:1008b000660007000000e9003c029000cfa2de00c5
:1008c000612bb900cf80de0004044000858448001d
:1008d0000685480087854800e8b79f00f9b79f0064
:1008e0008abf9f009bbf9f002c009000cf80de003e
:1008f0006109b90004e12000050020006033b80060
:10090000800907000205be000004be001c00900024
:10091000cf80de006109b900c4032000050020007b
:100920006033b800770907000002440081824c0060
:1009300002034d0083834d001c007800cf80de0051
:1009400004044000858448000685480087854800e7
:100950006168b9006109b90004382300151e200040
:100960006033b800670907000002440081824c0030
:1009700002034d0083834d00a4b79f00b5b79f00cd
:10098000c6b79f00d7b79f000418250015002000a8
:100990006033b8006fb09700ffb097000fb99700b1
:1009a0009fb99700570907002fb29700bfb2970071
:1009b0004fb39700dfb397000004420081844a00e0
:1009c00002054b0083854b000800be000a01be00f3
:1009d000d50807006011b800d108070000017800b1
:1009e0000080eb008080eb000200e0001200350088
:1009f0000018280051c527000804400089844800d9
:100a00008c0890000801be000c0078002a00070046
:100a10000c0890000000e00004003400001f2f00cc
:100a2000f1ff2f0008044000898448009a00070065
:100a30000000540081805c004f06be004f05be00e0
:100a40004f04be000080fa0000000600800278001b
:100a5000010378000500e000030034000501e9000f
:100a60004291de00090037000001eb00e38f4200f5
:100a700006003d00e4811200420020001100090040
:100a80008201d800000178000201e8006382620060
:100a900063de200004003a00e3df20000500e000f0
:100aa00001003a0063de200086004300818141009e
:100ab0001300410000000600ea874700889fbe003f
:100ac0008a9fbe008c9fbe008e1f780000047800b5
:100ad0000ae82700ab3a28000205450083854d004f
:100ae000dab79f00ebb79f000800e00001003a0072
:100af000a8e72000010c9800021825001300200030
:100b00000a00be002fff07000006be006100400083
:100b1000e08048007200200003002000e708070082
:100b200060049800d2162000030020000c00be00d4
:100b300015ff07000001be000007eb008e04510006
:100b40008000eb0009007800f2b79f0083bf9f0090
:100b5000beff070000027800d016200000c8b900d0
:100b6000cfa2de000000420081804a000e07e800ac
:100b70007fb197008fb99700800f5600818f5e007c
:100b8000eeff35000006560081865e00590498008d
:100b90007c0498006380640061de200004003a0059
:100ba000e1df20000900e00001003a0061de2000e2
:100bb000f6804000c00020000000e900010178003c
:100bc00021027800cfa2de00840f5600858f5e00e0
:100bd000f9ff3500400498000c06e80012065600a4
:100be0003c04980002182500130020000a00be00f3
:100bf000c10807000005be0002e12000030020003c
:100c0000f0fe07002004980002e12000030020000d
:100c10000a00be00b80807000005be00c20320009d
:100c200003002000e7fe070010049800c203200024
:100c3000030020000a00be00af080700000c780087
:100c4000080890000000e00005003d000800780062
:100c500059010700000c98000000e00007003c006c
:100c6000080078004f0778004f06be004f05be0011
:100c70004f04be00af00b100000006000ae12000f2
:100c80000b0020005fb09700efb097000005450013
:100c900081854d0098ff37000400fa00889fbe0050
:100ca000f07280000000e00001003200000001004e
:100cb000d062800061748000808f5000310032006b
:100cc0001004e00002003a0022010700d062880010
:100cd0006681570021002000d06280008800070054
:100ce00000047800a2002000e88057000800780087
:100cf0003600070070748800817488004fb997002f
:100d0000080451005fb99700820f540009003a00af
:100d1000d2ae2f00f3ff2f00820f5000838f5800b8
:100d20000400350032512000820f5000e08f58003f
:100d3000030034006000b80070748800817488007b
:100d40007874800089748000c2f92f00f3ff2f00af
:100d50000800be008cfe0700820220000300200075
:100d6000a8fe07000004440081844c0060041400c5
:100d7000e0841c007874880089748800d062800048
:100d80006074880042fc2f00f3ff2f007074800015
:100d9000817480009bfe07004f04be000080fa00b3
:100da00000000600889fbe001004be00baff0700c6
:100db0000001440081814c008080eb000000eb00ca
:100dc0003dff07004f04be0000000600e687470015
:100dd000889fbe008a9fbe008c9fbe008e1f780039
:100de00080047800010778000e00e00001003a005e
:100df000728757008005eb00614ab8006158b8005f
:100e00000006420081864a000c05780064447800a0
:100e10000800fb0082bf9f003f0207008b05e8002f
:100e20000fb997000000e000f3ff3a00d0c2b30012
:100e3000804f54000300320000c0e900804f54008e
:100e400002003a000c05e800010037000044780079
:100e50008e0078000a007800720107009e0f55008e
:100e600001003a00090f78009e8f540003003a00f9
:100e7000e00f5000e08f58000f003a00b2c2b300fc
:100e8000824f540004003a00e00f5000e08f5800f9
:100e900015003d0008003700d2c2b300824f540055
:100ea00011003a000200200003002800820f5000c9
:100eb000838f58000a00360020022000e07488006a
:100ec000f0ff2f00f1ff2700d2c2b300824f540081
:100ed00005003a0000002000010028000200370051
:100ee00060001000e08018004f0778004f06be0039
:100ef0004f05be004f04be006f00b10000000600a9
:100f0000889fbe008a9fbe000004be0002057800d4
:100f1000984578000b04e000010032000804e80066
:100f20008b00fb00080078001002070080007800aa
:100f30000100e00003003a0008007800f202070018
:100f4000800044000900e00002003c00088d5000d1
:100f5000080037001104e00003003a00000deb0028
:100f600001047800030037008904e9000104e80067
:100f7000ebff3700080078004f05be004f04be00ad
:100f800000000600e8874700889fbe008a9fbe00d9
:100f90008c9fbe008e1f7800800078000005eb005b
:100fa000190020006109b800020478006a4779003e
:100fb0000e00fb00e1b79f00f2b79f0083bf9f00c8
:100fc000cb010700efb097007fb197008fb9970072
:100fd0000000e00046003200614ab900e6e420006b
:100fe0006136b8000e727e00640343006a447c00e0
:100ff00008727b00040141008581490002047800e9
:101000008904e8000a05e800e48f5400e5ff3a008f
:1010100012407800d1c2b300814f5000030032006b
:1010200081c0e900814f500002003a000204e8004c
:10103000010037000140780071e520008048780009
:10104000984078000101fb000203b1000000eb00b2
:10105000e90f510027003e0080e52000014878009c
:1010600088047800d94078000101fb000203b10038
:101070000000eb00e90f51001e003e0090e520004b
:10108000014878005900fb00990107000000e000ca
:10109000120032005a0020006151b9008205780028
:1010a00063005400624778000e00fb00f2b79f0017
:1010b00083bf9f008e0107007fb197000000e00012
:1010c0000b0032008e757e008884e9008284440023
:1010d0000a05e800e80f5500efff3a000000eb00ba
:1010e0001904e00003003a00e0e4200001003700aa
:1010f0000000eb004f0778004f06be004f05be0012
:101100004f04be008f00b1000000060000e4200084
:101110008efd0700d07488000000e00007003a0050
:1011200090e4200089fd0700d07488000000e000f2
:101130000200320093ff0700d0748800d074800052
:101140000000e00002003a00c0e42000d0748800f3
:1011500000000600881f780088e920001804e000dd
:1011600003003a00e9ff070020c0b300004c7800fc
:10117000d07480004f04780000000600a08d20008d
:1011800086013700881f780068e920001804e00015
:1011900003003a00f9ff070020c0b300004c7800bc
:1011a000100020004f04780000000600a0748000aa
:1011b00095013700fdff3700f6874700889fbe0086
:1011c0008a9fbe008c9fbe008e1f780000047800ae
:1011d000ecff0700f07280000000e0000100320028
:1011e00000000100c062800091748000808f500078
:1011f0001c0032001004e0000f003a00d0628000b2
:101200001004e00002003a00d2ff0700d06288001c
:10121000e2fd2f000f01410031002000d06280006c
:1012200037ff0700c06288001004e00002003200af
:1012300081c520008008e900c06280004d020700df
:10124000800478000085eb000900e0006e003200a9
:10125000a07480006c010700a9748800c06280003f
:10126000907488008000eb0058009000f7fd0700a4
:1012700080047800780090007800b9002801900080
:101280000001410082b79f00d8009000d0162000d6
:101290000088b90061004000e08048004fc9de00ce
:1012a00000804400810049007200200003002000fb
:1012b00002070700ee024000a47480008006eb00e5
:1012c0000005eb000901780088017800470037002d
:1012d000648445008004eb0053009000ec407c00e7
:1012e0008180fb00808f50003f003c00e380450080
:1012f000ecc078008180fb00b2b79f00e3b79f008d
:10130000d4b79f00c5b79f0096b79f00a7b79f00af
:10131000cefd07008b80e800ecc078008180fb00e8
:101320003fb197008280500080804000f1b79f005d
:101330006c467f008cf79f00efb197005fb297007b
:10134000cfb297001fb397000c04e00013003200e7
:101350000c87fb000e875200010747007c0020002d
:10136000110009000c07d800010778000006eb0007
:101370000e00e00001003200670617007fb0970002
:101380000c004000f0b79f008ff09700e7cf5000af
:1013900002003e0067005000f0b79f007fb6970044
:1013a0007860b9008b03e800e6c37b008783fb000d
:1013b000008043008fb09700808f500012003500ee
:1013c000e6407c00e985450066c07d0080cf500086
:1013d00002003a000a00e000020032000005eb00c3
:1013e000010037001a0020008d06e800656bb80088
:1013f00084057800060678000407780066407a00c5
:10140000e14f4000b2ff3a000a0078004f07780031
:101410004f06be004f05be004f04be006f01b10075
:1014200000000600f6874700889fbe008a9fbe0026
:101430008c9fbe008e1f7800e0b79f0001067800e9
:10144000820578000004eb006fb097006102b800dd
:101450006140b8000001420081814a000205780025
:10146000e44678000d00fb00f2b79f0083bf9f00a9
:10147000a90007000804e8007fb197000000e00021
:10148000f1ff3a00d0c2b30080cf56000300320013
:1014900000c0e90080cf560002003a000205e800d3
:1014a00001003700804678000b00e00005003500a1
:1014b000e18f55000300320040022000808f55006c
:1014c000060034006044b8000c00e00081003200e7
:1014d000efb09700010e78007e0037000b00e000af
:1014e0000e003200f08f55001a003a0000c3b3001e
:1014f0009a4f100017003a001a40900081c7b300bd
:10150000814f50000300320081c5b300814f50006d
:1015100010003a000a85e8000e003700ab002000fa
:1015200000c3b3009a4f10000a003a001a4090001e
:1015300081c7b300814f5000040032008b002000af
:1015400081c5b300814f500002003a000a85e800cf
:101550000b0120000000eb006152b8006101b800ef
:1015600084004100c1b79f000000e8006441790099
:1015700001c3b300814f5100f7ff32000007eb00b9
:101580006044b8009ab79f008de79f00fcaf9f00b2
:101590000b0678000d003700c1d9200081405000b3
:1015a000a1ef9f000a01be000800be0095fc0700e5
:1015b0002fea97000401fb00cf91de00a8b79f003f
:1015c000b9b79f000204400083844800cfb297005f
:1015d0006129b8006170b800820640006165b900f9
:1015e000624078000000fb00530007000a01be00c3
:1015f00080007800c0d920002b0107000e07e8000a
:101600000000e000e4ff3a000d0378008fe6970049
:101610000a02be001fb597007fae9700860f5500e7
:1016200006003a006044b8000c00e00029003200d7
:101630006fb09700000e7800260037004fb197007a
:101640008200530010dc2000040040001000fb006a
:10165000008050001700330011003a00afe99700f6
:101660000300fb00cf80de000000540081805c009e
:10167000800f5400818f5c00090039000401be0016
:10168000f6b79f004ffc07007fb397002fb297007b
:10169000bfb29700840f5000858f580005003200bc
:1016a00020022000e07488000084eb008084eb00be
:1016b00005003700d0c2b30080cf560002003a00c8
:1016c00060041400e0841c000c00e0000100320003
:1016d000060e78000800be004f0778004f06be00d7
:1016e0004f05be004f04be006f01b10000000600b0
:1016f0001004b100070035009001b100040034006f
:101700007000b100030035009001b10001003c0001
:1017100010000500000005006900e100040035002c
:101720006d00e100030034000002b100010032004e
:101730000000050010000500800078001104b100d1
:10174000030035009101b10001003c000050a000f1
:1017500000000600f07480000000e000010032008c
:1017600000000100c0e92000000006000200370070
:101770000304e00006003200000178000200780057
:10178000b041780081cf5100f9ff3a0001003700e5
:101790000001eb00020078000000060001002000bc
:1017a0000100e00008003200010080000100e000bc
:1017b000050032008100e9000100880081804000be
:1017c0000200800000b1780000000600f072800086
:1017d0000000e000010032000000010020c32000f2
:1017e0000000060000027800c5c52000e1c220000c
:1017f000a20120000300200000e620007e01070077
:1018000000e62000000006000000e0003200320088
:101810004002be00e50f5200e08f5a002e00360055
:101820000408a3002c003a00317580000100e0009c
:1018300002003200810f50000400310021009800a6
:101840003075880017003700820078002101900071
:101850000200e00002003200800f5100faff390060
:101860001103be0086814000830f50001a0039002a
:10187000808f510004003a008418430085904b008b
:1018800001007800070037000200e000030032008a
:1018900004024000840f51000f003900220098001c
:1018a000a0009800a00090000100e0000a003200b3
:1018b00010014000828f500007003a0042ea2000e9
:1018c0000009eb001001be003118410021904900d1
:1018d000a10090002100980000000600889fbe0033
:1018e0008a9fbe000004be00217580000100e00058
:1018f00002003200010078000f00370031758000cf
:1019000060ea200005003700b10f5400a18f5c0091
:101910002b00360064804000a10090000100e00030
:10192000f9ff3a0012003700b20f5400a28f5c009a
:101930002300360064004100100178000200e0003e
:10194000f9ff3a00110178003175800060ea20004b
:1019500005003700b10f5400a18f5c00180036005d
:1019600064804000a1009000828f5000f9ff3a008f
:101970000a7580001b758000880f5500898f5d00f7
:10198000010031000805be000a00be000e0107007c
:101990000000e00006003a00880f5500898f5d00c6
:1019a000060032008b05d1000a85d300f2ff370014
:1019b0000a98be0094ff0700cbff37000000eb0041
:1019c0004f05be004f04be0000000600889fbe0009
:1019d0000002be0065004000e0804800000378007f
:1019e0000600a10081017800060178000204be0013
:1019f0008000eb00840f5400858f5c0027003600c8
:101a0000e50f5400e08f5c0002003e0068002000fb
:101a1000090020000800be00b0ff07008000eb00b6
:101a20000000e0001d00320090007800a4ff2f00ad
:101a3000f5ff2f0031014200a1814a00880f5100bb
:101a4000898f590003003100a10290000508780039
:101a5000080037000881400002087800a1019000ca
:101a600023019800100178003119140021911c0005
:101a70008888be00100178000000eb000200e00042
:101a800004003200a20190000300e00001003200d7
:101a90006400410020758800e48040000100780067
:101aa0004f04be0000000600889fbe008a9fbe0053
:101ab0000202be008001eb00060037008301e8004f
:101ac00066417c00814f51000b00320061025200e0
:101ad000e0825a006103b800611cb80008054300a9
:101ae00089854b00e00f5200e08f5a00f3ff3a0067
:101af0000000eb00010037000a0078004f05be002f
:101b00004f04be0000000600800078000000eb00db
:101b1000610ab8006101b800040341000000e80058
:101b2000644179000204e000f9ff3a00010053002b
:101b3000cf80de00000006006011b8000200370010
:101b40006a13b900060142008100e9000700330072
:101b500060c279008301e8000402fb000403b100c5
:101b6000e90f5200f6ff36000081eb00020078001a
:101b700000000600f2874700889fbe008a9fbe00d3
:101b80008c9fbe008e1f780090407800a1ef9f00d0
:101b90008006eb000104e000840032000004e8004d
:101ba0000800780029002000020037000000e8004b
:101bb0008904e8002fe997008200fb00ebfe070094
:101bc0000000e000f9ff3a006548b9007fff070018
:101bd000800578008b0678000b00e000730032006f
:101be0000007eb000006eb009bb79f00cbb79f0000
:101bf0004fb097006105b8006570b800e0b79f006e
:101c0000f1b79f008a004000b1b79f0080c2b300c7
:101c1000984f10000b003a000800e8004100200037
:101c2000c5ff070041892f00010640005c0033001a
:101c3000d840900090c2b30080cf500058003a00c6
:101c400066044400cce79f008a0478006fb59700d3
:101c5000648044000c7578002100200008007800a2
:101c6000b5ff07008046e900638044000d757800e9
:101c70000884e8002100200008007800aeff07007b
:101c80008045e9000980e8000b7578000884e800c9
:101c90001800fb000003b1000901e800e90f500043
:101ca00008003e00210020000800780082bf9f004d
:101cb000a1ff07000fb9970000717d000884e800bc
:101cc000020037000040eb0000757900ebcf5600b2
:101cd00033003e0031c6b30081cf550030003e00d6
:101ce0006fb097000901e80060417900814f510011
:101cf0002b003e0098407800b2c2b30082cf500063
:101d00000600320002c1e80082cf5000030032001a
:101d10008040eb0001f07c001100370098409000fb
:101d200000cdb30000c04000e64f50001c003e0054
:101d300002c3b30082cf500001003a0070c0b3006c
:101d4000efb0970080f07c00b2c2b300984f110052
:101d500002003a006740400080f07c000884e80000
:101d6000184078000004e00007003a009fb6970092
:101d7000bfb097006580400000c8eb004fe19700be
:101d800092489800090037000e07e800afe8970076
:101d9000814f500002003a000804e80094ff370029
:101da0004fb0970098fe07008006eb000d0078000a
:101db0004f0778004f06be004f05be004f04be001f
:101dc0002f01b100000006000001be008000eb0002
:101dd0000200e000060034000200780047fa070025
:101de00080007800e18f400001003a008000eb00a5
:101df00001007800000006006f03b000889fbe005d
:101e00008a9fbe008c9fbe008e1f7800000778005e
:101e10000205be0001067800c4b79f00b5b79f0059
:101e20000c00780038ff07000004be008e06780022
:101e30006033b800dab79f00ebb79f00820037002d
:101e400061035300e0835b000600430087804b0082
:101e500002fc2f000f014100620678004238dd00cd
:101e6000ce30de00810070004230dd00e3fb2f0049
:101e70008f8141000080410040049000d004900018
:101e80001c4078000085fb000a05ea004f55de0083
:101e9000cfd5de000a0646000a0454008b845c009d
:101ea00051c2b300814f500003003a00e00f5400cc
:101eb000e08f5c0013003a005fb09700efb097002e
:101ec0008a0f50008b8f58006f0039008a0056002f
:101ed0000a01be000d007800f6b79f0087bf9f0083
:101ee000840307008a8646005fb19700efb1970030
:101ef0000a0151008b815900d2b79f00e3b79f00c0
:101f0000340037001c45780050c4b300804f5500a2
:101f1000030032006a404000804f550002003a0042
:101f20000c06e800010037000045eb0025fd2f00fe
:101f30008f824200e4fb2f000f0242009c41780098
:101f40000a417800bfb097004fb09700f6b79f00e6
:101f500087bf9f005d0107007fb397008fbb97008d
:101f60000a04e0000200320061045400e0845c00d6
:101f70000c06e80061045400e0845c007f9d97003b
:101f80000a00e00016003400cfd5de005fb19700f4
:101f9000efb197008a0f51008b8f59003a0039003a
:101fa0000a01be00800078000d007800f6b79f009f
:101fb00087bf9f004f0307008a8646005fb09700e7
:101fc000efb097000a0050008b805800d0b79f00f8
:101fd000e1b79f007fb397008fbb97001a003700cf
:101fe000e00f5400e08f5c0014003200e20f530059
:101ff000e08f5b0011003e000601430087814b002b
:102000000c02780001fc2f008f80400084307900a2
:102010004239dd00ce31de00830171004231dd0046
:10202000e4fb2f000f02420082004200c80098002b
:10203000d900980061034300e0834b000a05ea00e1
:102040006154b90000067800e00f5400e08f5c0096
:102050008bff3a00e00f5300e08f5b0078ff3a00ff
:102060005fb59700efb597006000b800e00f55002e
:10207000e08f5d0005003200804eeb000e805600c0
:10208000cf80de00010037006000b8004f07780005
:102090004f06be004f05be004f04be006f03b100e7
:1020a0000000060080805000e78040006702410089
:1020b00073002000110009008300d80001005200c5
:1020c000110009000300d800000006000200fa0019
:1020d000889fbe008a9fbe0080047800810578003a
:1020e000a2002000ea8057000b00780037fb0700b1
:1020f0003fbd9700280020008a8f55003300320032
:102100009a457800f2c2b30082cf55002f003a0002
:10211000d9019000c276200002814100cf91de00fb
:10212000820f5000838f580023003a000a05e80010
:10213000a2002000ea8057000a00780023fb070075
:102140000001be00bfb89700810f55001f0032008c
:1021500091cf15001d003a00490290000402e800ea
:10216000cfa2de00840f5100858f59000500320098
:1021700018002000820f5200838f5a0013003d0088
:10218000110037000100e800a2002000ea8057009b
:102190000efb07003fb99700820f55000b0032007d
:1021a00039019000cf91de000004eb00820f500057
:1021b000838f58000500320018002000800f510066
:1021c000818f590001003d000084eb000800780079
:1021d0004f05be004f04be000080fa00000006005c
:1021e00000000500889fbe008a1f780080047800e8
:1021f00001047800080178008900780010002000b0
:10220000a8ff070000057800f5ff0700000278002e
:10221000840154003917b000088454007200200073
:10222000110009000204d80001047800d116200032
:102230008880400084804000110009008200d8009e
:10224000b0162000808f510003003400e28f500050
:1022500003003a000f003700808f510003003a005e
:10226000e38f500004003a000a003700a016200057
:10227000808f510002003a00e48f500005003200c8
:102280000884e900e20f540003003e000a05e8005c
:10229000010037000085eb000a0078004f05780048
:1022a0004f04be0000000600881f7800000478007c
:1022b0000100780082007800caff07000000e000fb
:1022c00002003a000804e900030037000000e000c3
:1022d00001003c000804e800080078004f04780082
:1022e00000000600889fbe0080047800010478008a
:1022f0008800780009007800baff07000000e000bd
:1023000009003a00b6ff0700d11620000000e000e7
:10231000010032008100e800e78444000880540096
:10232000b0ff0700030037000000e00001003c00a0
:10233000100020004f04be0000000600889fbe0071
:102340008a9fbe00800478000204780003057800ac
:10235000810578000b00e00001003d008005eb00e6
:10236000f0c4b300804f520006003a000a01780022
:102370008b00780015007800e1fa07001a00e000f1
:102380000d003c00080d780088844400804ceb0070
:1023900006003700a2002000110009008205d800c5
:1023a00002c3b30082e44000800578000900780091
:1023b0000804e900f7ff3b004f05be004f04be00d4
:1023c000000006000200fa00889fbe008a9fbe003f
:1023d0008c1f780000057800010678008004eb006f
:1023e0002c0037008805e8006c81570011002000a0
:1023f0000b007800c2fa0700800078000a0078001d
:1024000032ff070098407800d2c2b30082cf50005c
:1024100002003a000000e80003003700b2c2b30037
:1024200082cf50001a003a00e10f500018003e0021
:102430006c815700210020000b007800b0fa0700e3
:102440009040780098cf500004003a00104190006e
:10245000a1c2b300814f5100160032008000780005
:102460000a00780019ff070098407800d2c2b30034
:1024700082cf500004003200b2c2b30082cf5000bd
:1024800003003a000000e800e10f500009003600a8
:102490008904e8006c815700890078001c007800ee
:1024a00097fa0700000478001804e000cdff3a0016
:1024b00068e12000080078004f0678004f05be0054
:1024c0004f04be000080fa0000000600ec874700c1
:1024d000889fbe008a9fbe008c9fbe008e1f780022
:1024e00000057800810478008245780004047800b3
:1024f000050678000300fb00cf80de005002b1002b
:102500000180b10052052000820f5000e08f58007a
:10251000eb013e0000600100e5013700e8013700f3
:10252000e7013700e6013700e5013700e401370035
:10253000e3013700e2013700e1013700e001370035
:10254000df013700de013700dd013700dc01370035
:10255000db013700da013700d9013700d801370035
:10256000d7013700d6013700d5013700d401370035
:10257000d3013700d2013700d1013700d001370035
:10258000cf013700ce0137003e003700450037004d
:10259000530037006d003700c90137007e00370057
:1025a0008c003700960037009c003700c4013700cc
:1025b000c3013700c2013700ae003700c001370049
:1025c000bf013700be013700bd013700c50037002d
:1025d000c8003700d2003700df003700e2003700c4
:1025e000f2003700ff0037005d013700a40137001b
:1025f000b3013700b2013700b1013700b001370035
:10260000af013700ae0137001900370077003700ff
:102610002a0037004600370050003700a801370075
:102620006100370071003700a501370081003700d5
:10263000a3013700a201370086003700940037005d
:102640009f013700960037009d0137009c0037003e
:102650009b013700ae003700b50037009801370006
:10266000cb003700d6003700e900370060013700a3
:10267000ea00900081804000080178002900900065
:1026800005003700ea009000818040008100e800ea
:10269000080178003900900019fa070080067800d8
:1026a0008d013700ca009000818040008100e80061
:1026b0000801780069009000f7ff370050c4b300ac
:1026c00080cf550002003a00590890000100370001
:1026d00009089000080178008000eb00c90037006d
:1026e00050c4b30080cf55000b003a0021022000f7
:1026f000898040000a00780032ff07000000e800ef
:102700000801780031002000fdf9070080067800fc
:102710001d04e00070013a00da009000420620003b
:10272000110009008200d800f30040004b00370080
:1027300045022000898242000b427800880178001f
:1027400022002000ba0090001e01370080ff2f00f9
:10275000000c78009de120005f0137004502200059
:10276000898242000b427800880178002200200014
:10277000ba0090000c007800f0fe07008006780098
:1027800000c3b3009c4f100053013a00704050004a
:10279000004e78005001370080ff2f00000c7800b9
:1027a0002de220004c0137007a019000ea009000f1
:1027b0005a009000bcfe07004206200011000900ec
:1027c0000200d8000100e00024003d0082804000ab
:1027d000220037007a019000ea0090005a00900031
:1027e000b1fe0700c1762000f0003700ca0090005b
:1027f000818040000801780059009000a6ff370052
:1028000045022000898242000b427800880178004e
:1028100022002000aa009000ea003700aa009000e1
:10282000eb804000c2002000110009008200d800a7
:1028300009003700fa0090008100e80045022000fe
:10284000898242000b427800880178003200200023
:10285000dc003700ca0090008100e800450220003b
:10286000898242000b427800880178002200200013
:10287000d400370045022000898242000b427800d4
:1028800088017800220020009a009000cd003700d7
:1028900010002000000c7800bde220000e0137007f
:1028a000110020002a009000eb0f500001003c00b6
:1028b0008000eb00080178001900780076ff3700ef
:1028c00050c4b30080cf550002003a0009109000b8
:1028d000010037003908900008017800310020001d
:1028e00048003700b0ff2f00000c7800dde2200028
:1028f000f900370045022000898242000b4278002f
:1029000088017800220020009a007800ad0037008e
:1029100010002000000c78003de32000ee0037009e
:1029200080ff2f00000c78005de32000ea003700f4
:10293000ea0090000100e00001003a007100200070
:1029400045022000898242000b427800880178000d
:10295000120020009b0037007a019000ea009000ee
:102960000000eb0014003700fa0090006a009000ad
:102970005cfe070045022000898242000b4278007d
:102980008801780022002000800078008d00370048
:1029900045022000898242000b42780088017800bd
:1029a00012002000ea009000860037007a019000b3
:1029b000ea00900010002000bafd0700edff37008c
:1029c00050c4b30080cf550002003a00690890005f
:1029d000010037001908900008017800110020005c
:1029e0000800370050c4b30080cf550002003a0001
:1029f000790890000100370029089000080178004c
:102a0000210020003ef9070080067800760037009c
:102a10005a07900042062000110009000207d80062
:102a2000010778000e00e00001003d0002074700aa
:102a30002d00200050c4b30080cf550041003a0063
:102a400021022000898040000a0078005dfe070016
:102a5000000278008d0142001304e00039003200ca
:102a60005a039000c076200000034300cfb3de007d
:102a70000405e80008017800110020000a00780031
:102a8000e3b79f00d4b79f00f6b79f0087bf9f00b2
:102a90001bf90700a20020008000eb00cbf8070024
:102aa0007fb397008fbb97000003530081835b00c7
:102ab000d0c2b3005fb29700efb19700944f1000ff
:102ac00002003a0060031300e0831b00a200200014
:102ad000f880570003007800e3b79f00f6b79f0027
:102ae00087bf9f00b9f807000002be00cfb0970073
:102af0002d002000efb197007fb397008fbb9700a8
:102b0000818f51000f003200914078009acf500021
:102b10000c003a000400430085804b000007780059
:102b20001d002000010037008d06e800a2002000f3
:102b30000300200014f70700e00f5000e08f58005a
:102b4000f9ff3c0045022000898242000b427800d8
:102b5000880178000d0178008e0078001900370098
:102b600050c4b30080cf55000e003a00210220006f
:102b7000898040000a00780012fe07000000e8008b
:102b80000801780041002000ddf807008006780089
:102b9000b0c3b3009d4f1000020032001800e000e7
:102ba0000b003a00da009000c076200080804000e0
:102bb00045022000898242000b427800880178009b
:102bc000420020000c007800dcfd0700b3fe370057
:102bd000b10320000d007800e4fa07000000e000d7
:102be000010032000d0c5000180cea003a003700ca
:102bf000491090001004e00001003a0055f9070068
:102c00000801780021002000bdf807008006780048
:102c10001800e000300034000a0890000000e000d6
:102c20002d003400a20020008000eb000d00780091
:102c300066f8070041062000808040000300330052
:102c4000b0c2b300004e780003003700d0c2b3001a
:102c5000004e78008100ea000c00e80045022000e8
:102c6000898242000b4278008801780042002000ef
:102c7000b2fd07008006e900180ce80016003700d6
:102c80001b0020000a0890000000e00001003c004a
:102c90008005eb00491090001004e00001003a00ac
:102ca0002cf90700080178008b0078007afe3700c5
:102cb00010002000000c7800ede320000600370033
:102cc000034e78000040eb001046980020002000e2
:102cd000000c78008c0678000d0078004f07780013
:102ce0004f06be004f05be004f04be00cf00b1002e
:102cf000000006000202be008001eb000400370065
:102d000061f0790061025200e0825a008301e8001c
:102d1000e00f5200e08f5a00f9ff3a000000060071
:102d200014002000a0003700881f780003047800fa
:102d30000300e00007003d0060001000e080180084
:102d400060011900e081190002003b0001f02d0034
:102d5000030037000400070008f0a70001f0a000fe
:102d60004f04780000000600889fbe008a9fbe00c6
:102d7000008270000402710004827100260032009b
:102d80000004be000200be006011b8006b09200004
:102d9000950220000182cf000a0039000541b100f0
:102da0000082cf00070039000541b1000982cf0041
:102db000040039000541b1000882cf00010039004c
:102dc0000541b10005425200120032000a003b00ea
:102dd00082817100610164008100d1000080d30014
:102de0008984d3000884d3008b05e8000442e800fe
:102df000f7ff3a00070037000804440089844c00bc
:102e000000004800818048008b05e9000442e90089
:102e1000f9ff3a00030007004f05be004f04be0053
:102e20000000060081002000618055000b003d007d
:102e30000b00200061fe2f000100e1001d003400a6
:102e400082817100610164008904d1000884d3008b
:102e50000000e800faff3a00710020006100640001
:102e600003007000020060000900320061044400a9
:102e7000e0844c000988a500050032008b05e800bd
:102e80006808e10002003a008904d1000884d300f8
:102e9000f20f20000258e10005003d00c75ddd0093
:102ea000f907b2008980750008007800000006006c
:102eb0000bf827008b00780000000500811f7800c8
:102ec0000100e00002003d0060001000e0801800fa
:102ed0000300e00002003d0060011100e0811900e4
:102ee000050007004f00e00002003b0060001000fa
:102ef000e08018000000060032f607000400be0063
:102f000000000600889fbe008a9fbe008c1f7800cc
:102f10000006eb00e00f5000e08f5800e00f590072
:102f2000e08f590007003d006044b8006055b800cc
:102f30000000540081805c0002015d0083815d001f
:102f40001c002000e00f5200e08f5a00e00f5b00f1
:102f5000e08f5b0007003d006044b8006055b8009a
:102f60000402540085825c0006035d0087835d00d7
:102f70000c00a2002f0007000c00e0000600320049
:102f80006022b8006033b8000000520081805a000f
:102f900002015b0083815b004f0678004f05be0095
:102fa0004f04be0000000600889fbe008a9fbe003e
:102fb000841f7800170007004f00780011003300cd
:102fc000f0ff2f00838f6c0006003b0004056500b6
:102fd0000a00a7000800370009f0a6001000200032
:102fe00008003700820f5400838f5c000300390013
:102ff0001000200001003e000000200009f0a700a2
:103000000000ea004f05be004f04be000000e000d3
:10301000000006000004be00280007000003be00f8
:103020000405be000200be0024000700844f7500a6
:1030300000000600889fbe008a9fbe008c9fbe00d5
:103040000404b8000506b8008904460060854e00f7
:103050000606b8000a054600e0854e000706b800df
:103060008b054600040eb800890446000a854e0010
:10307000e0854d00050eb8000a0546008b854e0020
:10308000060eb8008b0546000416b8000a05460077
:103090008b854e000516b8008b054600041eb8004f
:1030a0008b0546000800be000a01be004f06be00a8
:1030b0004f05be004f04be0000000600c70ade0038
:1030c000f107b200f50fb20008003200e1cf420074
:1030d000020032000170a00024000500810f700082
:1030e000010032000408050044000500810f700053
:1030f00002003a00140005008502e90000004000cb
:1031000081c04800fcff3b000170a00024000500c6
:020000040000fa
:10311000754300002f4f0000532d00004949000067
:1031200020490000646c0000650000007543000049
:103130002f4f0000532d000049490000205300008c
:1031400074610000740000003f00000000000000f7
:103150000100000002000000010000000300000068
:103160000100000002000000010000000400000057
:103170000100000002000000010000000300000048
:103180000100000002000000010000000500000036
:103190000100000002000000010000000300000028
:1031a0000100000002000000010000000400000017
:1031b0000100000002000000010000000300000008
:1031c00001000000020000000100000006000000f5
:1031d00001000000020000000100000003000000e8
:1031e00001000000020000000100000004000000d7
:1031f00001000000020000000100000003000000c8
:1032000001000000020000000100000005000000b5
:1032100001000000020000000100000003000000a7
:103220000100000002000000010000000400000096
:103230000100000002000000010000000300000087
:103240000100000002000000010000000700000073
:103250000100000002000000010000000300000067
:103260000100000002000000010000000400000056
:103270000100000002000000010000000300000047
:103280000100000002000000010000000500000035
:103290000100000002000000010000000300000027
:1032a0000100000002000000010000000400000016
:1032b0000100000002000000010000000300000007
:1032c00001000000020000000100000006000000f4
:1032d00001000000020000000100000003000000e7
:1032e00001000000020000000100000004000000d6
:1032f00001000000020000000100000003000000c7
:1033000001000000020000000100000005000000b4
:1033100001000000020000000100000003000000a6
:103320000100000002000000010000000400000095
:103330000100000002000000010000000300000086
:1033400001000000020000000100000078560000ab
:103350003412000008070000060600000505000002
:10336000050500000404000004040000040400003b
:103370000404000003030000030300000303000033
:103380000303000003030000030300000303000025
:10339000030300000202000002020000020200001b
:1033a000020200000202000002020000020200000d
:1033b00002020000020200000202000002020000fd
:1033c00002020000020200000202000002020000ed
:1033d00002020000010100000101000001010000e3
:1033e00001010000010100000101000001010000d5
:1033f00001010000010100000101000001010000c5
:1034000001010000010100000101000001010000b4
:1034100001010000010100000101000001010000a4
:103420000101000001010000010100000101000094
:103430000101000001010000010100000101000084
:103440000101000001010000010100000101000074
:10345000010100000000000000000000000000006a
:10346000000000000000000000000000000000005c
:10347000000000000000000000000000000000004c
:10348000000000000000000000000000000000003c
:10349000000000000000000000000000000000002c
:1034a000000000000000000000000000000000001c
:1034b000000000000000000000000000000000000c
:1034c00000000000000000000000000000000000fc
:1034d00000000000000000000000000000000000ec
:1034e00000000000000000000000000000000000dc
:1034f00000000000000000000000000000000000cc
:1035000000000000000000000000000000000000bb
:1035100000000000000000000000000000000000ab
:10352000000000000000000000000000000000009b
:10353000000000000000000000000000000000008b
:10354000000000000000000000000000000000007b
:043550000000000077
:020000040000fa
:10355400082bef000a2bef001069ef001169ef0050
:103564001769ef001669ef000028ef000228ef004a
:103574001829ef001a29ef000a28ef000c28ef00a1
:103584000628ef000828ef000e68ef00066bef0036
:10359400000006001469ef001569ef001269ef00de
:1035a4001369ef00202aef001c2aef000000060038
:1035b40041912000914078008180fb00608a2900bd
:1035c400e0c078000181fb00539120006341790041
:1035d4000281fb00330020008308dd006040790095
:1035e400814040003091200001487800000006002e
:1035f40012028000000e20004220b700c048800064
:10360400d148800061004000e0804800c048880044
:10361400d1488800120288008c2c020000000000af
:10362400f3ff37000200fa0030002000801f78000a
:10363400801feb000608200007002000a5a1200041
:103644000082eb0043c0b300c29120008000eb0075
:10365400a0af2100da2202000000000066815700ba
:103664008188290040c0b300a820020000000000a7
:10367400e48757000080fa00000006000200fa0008
:10368400881f780038002000881f7800801feb0016
:103694000608200007002000e5902000e4ff2f002a
:1036a40088417800028120008000eb0060de210068
:1036b400da220200000000006881570061892900b5
:1036c40008407800a820020000000000e4875700aa
:1036d4004f0478000080fa000000060016c9bf00fd
:1036e400e14f500005003a0010c9bf00e14f40000f
:1036f400020032000040e80010e9b70000000600b4
:10370400881f780016c9bf00e14f500026003a0018
:1037140018028000000e20004220b70010c9bf002c
:10372400020032000040e90010e9b7001049e2004d
:103734001c003a001149e2001a003a009cff0700fd
:1037440031912000914078000180fb00000040008e
:1037540042a22000620078000051880022912000db
:1037640012417800814f51000e0032007009900020
:103774008011900061014100e081490072089800c5
:103784000310980000408000114080006100400058
:10379400e08048000040880011408800562c020058
:1037a40000000000180288004f04780000000600a2
:1037b40016c9bf00e14f50000b003a00110280000f
:1037c400000e20004220b7001049e20005003a0034
:1037d40011c9bf00e14f4000020032000040e80080
:1037e40011e9b70011028800000006001649e20042
:1037f4000b003a006eff070013c9bf0012e9b700bf
:103804000080fb000000400041a22000610078001d
:1038140000518800e0508800dc2b0200000000000a
:1038240000000600881f780020002000010020000e
:10383400262702000000000011028000080e20006c
:10384400080078004220b7001829ef001a29ef0079
:1038540011028800400620000100200026270200f3
:103864000000000013028000080078004220b70026
:10387400c0488000d1488000304088004140880022
:1038840011c0b300e28020000149780013028800cf
:103894004f0478000000060012028000000e200091
:1038a4004220b70040588000515880006100400019
:1038b400e08048004058880051588800120288006f
:1038c40016c9bf00e14f50002f003a001751800085
:1038d40041912000914078002600370014028000b6
:1038e400000e20004220b70017099000a70990009d
:1038f400e00f5100e08f59001c00320061015100bb
:10390400e0815900920b9800a30b9800e00f51003e
:10391400e08f590015003a00e75190000301780048
:103924007203b2000400320082ccb30082c1610091
:10393400e353980012c0b300f2539800675190000b
:103944000238a30009003a004759900082c0700071
:10395400275990000281fb005391200063437900b2
:10396400b75a90008542730085717900f70390007f
:103974001402880007599000e44f5100d7ff3a0021
:10398400429120000149780000000600b021270080
:1039940000000600020037000058eb008100e90037
:1039a4000100e000fcff3a0000000600810d200049
:1039b400e0a22000f7ff0700a100200040a22000a1
:1039c400f4ff0700c1a320000000eb000000e800a2
:1039d400640320000482b900e2a2200084084100ac
:1039e400438a2900931098006103b000e30f50004c
:1039f400f6ff3a00de2aef0003588800222aef007f
:103a0400f250880000000600802c02000000000034
:103a1400cffe0700dffe0700e4ff070001ff0700f9
:103a240016ff0700862c0400000000000200370087
:103a3400315878000201e9000200e000fcff3a007e
:103a440000000600881f780018028000000e200085
:103a54004220b7001049e2001c003a001149e2007c
:103a64001a003a00d2fe07003191200091407800fc
:103a74000180fb000000400042a2200062007800a8
:103a8400005188002291200012417800814f51009a
:103a94000e00320070099000801190006101410015
:103aa400e0814900720898000310980000408000eb
:103ab4001140800061004000e08048000040880020
:103ac40011408800042c0200000000001802880045
:103ad4004f0478000000060016c9bf00e14f5000f3
:103ae40013003a0013028000000e20004220b700a9
:103af4001049e2000d003a00119120009140780035
:103b04000104e000070032008140e9001291200026
:103b1400014978000104e00002003a001302880021
:103b2400c8ff370013028800000006001302880053
:103b3400000006008000780000c150003104e0005d
:103b4400fdff3a0002407800000006000800fa0079
:103b5400889fbe0049a220000044eb00ec8057007f
:103b64000840780044210200000000000004e00046
:103b74000e003a00190078000000e0000b0032004b
:103b8400e10f500009003200b00090008180400035
:103b94002001900081005100511098004fb9970006
:103ba400dfb9970062109800731098000844e80089
:103bb4008984e800e54f5400e8ff3a004f04be0052
:103bc4000080fa0000000600881f78000400370017
:103bd400800c2000010020002627020000000000c5
:103be4000e48e200faff32004206200003002000e3
:103bf4003040800041408000e203020000000000e9
:103c04003040880041408800e00f5000e08f5800a9
:103c140004003a000468ef0000c0eb009c2102009d
:103c24000000000018028000000e20004220b700af
:103c34004206200003002000304080004140800004
:103c44000204020000000000c0488800d148880037
:103c54001802880012028000000e20004220b700e3
:103c6400c0488000d14880005040880061408800ee
:103c74001829ef001a29ef00120288003240800050
:103c840043408000e20302000000000042c6b3008b
:103c9400804051004080200001487800902c0200b0
:103ca40000000000a9ff07004006200001002000da
:103cb4002627020000000000e6ff3700889fbe00b0
:103cc4008a9fbe00004478001a028000000e200083
:103cd4004220b700f95080000900e000590032008a
:103ce400f9059000fb5088001a028800810c7800c6
:103cf400885c98000040eb00e0549800f054980071
:103d04006000b800900c9800a10c980096049800ec
:103d1400b4049800c5049800a2049800d70498003d
:103d2400e30498000885fb004352de00a45c98007d
:103d340067446400985c980012002000030020008f
:103d44000203be00840578008b05e90003003300fc
:103d54000603430087834b00fbff3700c65c9800d3
:103d64000884fb000804e900030033000201410059
:103d740083814900fbff3700b25c9800f00c980087
:103d840081149800b0149800c114980090149800fd
:103d9400a11498000004eb00d8149800e0149800d3
:103da400f1149800428a2900821c9800901c980003
:103db400a11c980009007800942c02000000000067
:103dc40012028000000e20004220b7000a054500c0
:103dd40041a2200089307d00120288000900780089
:103de400882c02000000000011028000000e200058
:103df4004220b70010518000f0049800880c98000d
:103e04000000e00001003200090898001951880000
:103e1400495890001469b700295890000080fb00ad
:103e24005291200062427800b95990008341720097
:103e3400037178001769ec00110288000040eb0060
:103e4400020037001a02880020c4b3004f05be00e8
:103e54004f04be0000000600e6874700889fbe00ae
:103e64008a9fbe008c9fbe008e1f7800004378009e
:103e740013028000000e20004220b7000182fb00e4
:103e84000401420045a22000650179000200e0001f
:103e9400030032001302880080c2b3004f003700d1
:103ea400e14f430002003a00e0508000005b9000c4
:103eb4000680fb000000400046a220006601780056
:103ec4000200e00003003a001302880090c2b3002d
:103ed40042003700e10f510003003a00130288004a
:103ee40030c4b3003d0037000185fb004355de00bc
:103ef40067c760008a82fb001c0020000d002000c0
:103f04000c04be00850378008703e9000300330036
:103f14000804440089844c00fbff3700f8b79f0075
:103f240089bf9f006fec97008e83fb008703e90035
:103f3400030033000c0646008d864e00fbff37005d
:103f44008c437800000043000008eb0004024200a8
:103f540002337a00425e900032589000225a900058
:103f64000482fb0056912000e6457a0080c6650075
:103f74000c00320000c0ea0000c0650000737a0043
:103f840002003a000cc0ea001469b6000840780048
:103f94001469b7005091200060c27a0004c2730013
:103fa40004f07a00015998002a5998001e59980083
:103fb4004859980037599800130288000040eb00d4
:103fc4006191200091407800e1cf500003003a0055
:103fd400241d0200000000000040eb004f077800a1
:103fe4004f06be004f05be004f04be006f00b10077
:103ff40000000600889fbe00000378000344780098
:1040040013028000000e20004220b7001049e20095
:104014000300320013028800c8c3b300260037002f
:104024008884fb008984440044a22000e4827c004c
:104034000500e0001e003a0089044200140020003c
:10404400840c7800130288008001eb0006007800dd
:10405400962c0200000000006033b8006022b80013
:104064006011b8008000780008407800601e0200eb
:1040740000000000004478000804e00006003a0054
:1040840016c9bf00e14f50000b003a00241d020086
:10409400000000000800370012028000000e20001b
:1040a4004220b700800ceb001202880002003700a7
:1040b4001302880088c2b300084078004f04be0091
:1040c40000000600889fbe0080417800020478004a
:1040d40010c1b3001049e2000f003a001902800039
:1040e400000e20004220b700e1cf410002003a0058
:1040f400e0508000805990000380fb0000004000e5
:1041040042a22000620078000000e00005003a00ae
:104114001902880030c4b300004c78000040eb0062
:1041240008003700e10f5000f9ff3200001890003a
:10413400800878009c1d020000000000190288001d
:10414400004ceb004f04be000000060080427800e3
:1041540020c1b3001049e20011003a0013028000ac
:10416400000e20004220b700e1cf420002003a00d6
:10417400e0508000805a90000580fb000000400061
:1041840044a22000640078000000e0000200320035
:10419400e10f500004003a001302880030c4b30059
:1041a40000497800000006000118980013028800f6
:1041b4000049eb00000006008041780011028000f5
:1041c400000e20004220b7000380fb0000004000e6
:1041d40042a22000e20278000500e00002003a005a
:1041e4001102880060040500e18f520002003a00c9
:1041f4001102880030040500655190000238a300c4
:104204001d0032000234a100e25298007203b20091
:1042140017003a0015099000a5099000e00f51001d
:10422400e08f590012003a00455890001469b70015
:10423400255990000281fb005391200063427900cc
:104244003558900000407200807179001102880096
:104254000040eb006191200091407800e1cf5000d4
:1042640007003a00241d020000000000010037008e
:1042740011028800000005001102880040c4b30048
:1042840000000600004278008008eb00b1107800be
:104294006011b800a2009800b300980013028000d7
:1042a400000e20004220b700e14f420002003a0015
:1042b400e0508000005a90000480fb0000004000a1
:1042c40042a22000620078000000e00002003200f8
:1042d400e10f500002003a00130288003004050088
:1042e400500190000208a30002003a001302880063
:1042f4005004050030029000c0029000200090009d
:10430400130288006011b800020037006101410007
:10431400e08149002000e000fcff32008288be00fa
:104324000201520083815a00a2009800b300980051
:10433400000005000042780012028000000e2000f8
:104344004220b700e1508000e14f420002003a00f1
:10435400015a900004003700815990008040eb001e
:10436400834f520001003a0011c0b3000480fb00e7
:104374000000400043a22000630078000000e00039
:1043840002003a001202880080040500e10f500088
:1043940002003a001202880030040500205a9000fe
:1043a4000482fb0055912000b059900083c1ea00bb
:1043b40065437a0086c1610083727a0004003a0082
:1043c400c059900083c1ea004491200014ca6100de
:1043d400e05190000334a00063509800120288005a
:1043e4000040eb00e1cf500003003a00241d02001e
:1043f400000000000040eb0000000600881f780069
:10440400004178008101780018028000000e20002d
:104414004220b700e14f410002003a00e150800021
:10442400015990000281fb000201410041a22000d9
:10443400e10079000100e00003003a00180288005e
:1044440090c2b3000b003700e18f500003003a0024
:104454001802880030c4b30006003700620320004d
:1044640003007800181d02000000000018028800f4
:104474000040eb004f047800000006008042780002
:1044840013028000000e20004220b700e1cf42005a
:1044940002003a00e0508000040037000580fb0071
:1044a4000000400044a22000640078008180fb00ea
:1044b400c208dd0001004000a01890001018900010
:1044c400130288000049eb00000006008002780017
:1044d40012028000000e20004220b70061b02000cc
:1044e400914078000104e0000400320061c9b30087
:1044f400814a7800120288001000050013c0b3003e
:1045040064b02000034a780012028800814a7800cf
:10451400000005008043780015028000000e200092
:104524004220b700e1cf430002003a00e05080008f
:10453400040037000780fb000000400046a2200072
:10454400660078008180fb00c208dd0001004000a5
:10455400121898002318980015028800004aeb00ee
:1045640000000600e05080008e2c020000000000d5
:10457400803e2000010020002627020000000000e9
:10458400fbff3700e3806000e38f5000040032003b
:104594000000060061015100e08159000010eb00a9
:1045a400e00f5100e08f5900faff3a0000000600c6
:1045b400e8874700889fbe008a9fbe008c9fbe008c
:1045c4008e1f780080bf9f00f1b79f00020778001c
:1045d40083457800e4b79f00050578000604be0013
:1045e4009fb6970013028000000e20004220b700ff
:1045f4001049e2000300320013028800c8c3b3006c
:104604002e0037000b86fb000c06460041a220005a
:1046140061017e000200e00026003a000c864000a2
:1046240011002000010e7800130288008d0078002c
:104634000601be000a007800d2ff07008d01780051
:104644000e017800ffb097000fb89700962c020077
:10465400000000008d0378002fb397000802be000d
:10466400efb197000a017800800078000b407800d1
:10467400601e020000000000004478000804e0000e
:1046840006003a0016c9bf00e14f50000b003a0083
:10469400241d020000000000080037001202800000
:1046a400000e20004220b700000eeb00120288002a
:1046b400020037001302880088c2b3000840780063
:1046c4004f0778004f06be004f05be004f04be00e2
:0846d4008f00b1000000060098
:020000040000fa
:1046dc000c0b000000010000000000000c0c00009e
:1046ec001400000000000000200c00000800000076
:1046fc00000000002c0c0000020000000000000074
:10470c00280c00000400000000000000000800005d
:10471c000c03000000000000e60d0000300000005b
:10472c000200000000001f00003b00005a0078004f
:10473c0000970000b500d40000f300001101300018
:10474c00014e010000001f00003c00005b007900de
:10475c0000980000b600d50000f4000012013100f2
:10476c00014f01007a0e0000120000000000000052
:10477c008c0e00000600000000000000400e00003f
:10478c001e0000000200000054494d00455a4f0025
:10479c004e450000545a00003a003a00455354006c
:1047ac003a454400543a2d003035300030000000ba
:1047bc00980e00000400000000000000920e0000a3
:1047cc0006000000000000009c0d00004a000000e4
:1047dc0002000000303132003334350036373800f7
:1047ec00396162006364650066676800696a6b0022
:1047fc006c6d6e006f70710072737400757677005b
:10480c0078797a0000000000211511000e0d0c00c3
:10481c000b0b0a000a09090009090900080808001d
:10482c000808080008070700070707000707070024
:10483c0007070700070700009c0e0000040000009b
:10484c00000000002e0c00006e01000002000000b1
:10485c0025630a0000860c008d0c8d000c8d0c005d
:10486c00e30ce3000ce30c006a0d6a000d6a0d000a
:10487c006a0d6a000d6a0d006a0d6a000d6a0d0062
:10488c006a0d98000d990d009a0d9b000d860c0079
:10489c008d0c8d000c8d0c00e30ce3000ce30c0074
:1048ac006a0d6a000d6a0d006a0d6a000d6a0d0032
:1048bc006a0d6a000d6a0d006a0d98000d990d00c5
:1048cc009a0d9b000d3a41004d3a50004d003a00b4
:1048dc0053756e003a5375006e646100793a4d0061
:1048ec006f6e3a004d6f6e00646179003a5475003a
:1048fc00653a540075657300646179003a57650038
:10490c00643a570065646e006573640061793a001f
:10491c00546875003a5468007572730064617900cc
:10492c003a467200693a46007269640061793a004d
:10493c00536174003a5361007475720064617900bc
:10494c00003a4a00616e3a004a616e00756172006d
:10495c00793a460065623a004665620072756100fc
:10496c0072793a004d6172003a4d610072636800d1
:10497c003a417000723a4100707269006c3a4d0015
:10498c0061793a004d6179003a4a75006e3a4a00f5
:10499c00756e65003a4a75006c3a4a00756c790080
:1049ac003a417500673a41007567750073743a00b7
:1049bc00536570003a536500707465006d62650054
:1049cc00723a4f0063743a004f6374006f62650073
:1049dc00723a4e006f763a004e6f7600656d62004b
:1049ec0065723a00446563003a44650063656d0086
:1049fc0062657200007c2500612025006220250084
:104a0c006520250054202500597c25006d2f25009c
:104a1c00642f2500797c2500483a25004d3a250065
:104a2c00537c2500493a25004d3a2500532025009a
:104a3c0070000000000000005e0e00001c00000072
:104a4c0000000000a00e00000400000002000000a6
:104a5c000600000000000000a40e0000040000008e
:104a6c0000000000160e00002a00000002000000ea
:104a7c002b3a0000256d2f0025642f0025790000ae
:104a8c0025592d00256d2d00256400000a002500f8
:104a9c00483a25004d000900002548003a254d00f4
:104aac003a25530000250000a80e0000020000006b
:084abc000000000000000000f2
:020000040000fa
:104ac40000000600ffff37000080fb00a19a2900c8
:104ad400614078000080fb0000000600a19a2900d4
:104ae400f20f2000820f5000040036004800de0060
:104af400614078000080fb000000060061407800ff
:104b04000080fb006800400000000600f3ff37004f
:104b1400e10f4000e08f58000e003600a29a2900f1
:104b2400f4ff2f00f50f2000840f5000858f5800ec
:104b3400040036004808de00000041001080fb003d
:104b440000000600010141001280fb0068004000e3
:104b540000000600a29a2900f30f2000830f5000e2
:104b6400e08f5800050036004800de0062407800ff
:104b74000080fb00700040000000060000004100bf
:104b84001080fb007800400000000600889fbe00f3
:104b94008a9fbe00f4ff2f00f5ff2f006033b8009a
:104ba4000400e1000588e1000690e1000798e100b7
:104bb40030003600f4ff2f00f5ff2f00f6ff2f0022
:104bc400070020000400e1000588e1000690e100f0
:104bd4000798e10012003600a49a2900f8ff2f007c
:104be400f9ff2f00faff2f00fb0f20000800e1005f
:104bf4000988e1000a90e1000b98e1000400360006
:104c04004818de00000042001080fb004800370016
:104c1400030242001480fb00680040004400370097
:104c2400a49a2900f8ff2f00f9ff2f00fa0f2000a3
:104c34000b0020000800e1000988e1000a90e1006f
:104c44000b98e100070036004810de00c81add00aa
:104c540000807200000042001080fb0070004000e1
:104c640033003700020242001480fb007800400049
:104c74002f003700f4ff2f00050020006033b80038
:104c84000400e1000588e1000690e1000798e100d6
:104c940014003600a49a2900f8ff2f00f90f200011
:104ca4006055b8000800e1000988e1000a90e100bd
:104cb4000b98e100070036004808de00c812dd004a
:104cc40000807200000042001080fb000002b0006f
:104cd40017003700010242001480fb008002b0007c
:104ce40013003700a49a2900f80f200009002000bf
:104cf4006055b8000800e1000988e1000a90e1006d
:104d04000b98e100070036004800de00c80add0009
:104d140000807200000042001080fb000003b0001d
:104d240003003700000042001080fb008003b00045
:104d34004f05be004f04be00000006000101200024
:104d44000000e000040032008000ea0000806000ff
:104d54006eff0700ef00100001007800000006005d
:104d640080407800800020000104e000040032004c
:104d74000140ea000140600053ff07006700100093
:104d840000000600010120000000e00004003200e1
:104d94008000ea000080600050ff0700ef00100070
:104da400010078000000060002022000e00f50001d
:104db400e08f58000900320060011000e081180003
:104dc400020260000381600082017800040178001f
:104dd4000200be004eff07007f01100002007800b1
:104de40000000600889fbe008a9fbe0004042000c5
:104df400e00f5000e08f5800e00f5900e08f590099
:104e04000d0032006044b8006055b8000002540040
:104e140081825c0002035d0083835d000000620008
:104e240081806200020163008381630057ff0700f1
:104e3400f403200000025200040078004f05be0075
:104e44004f04be00000006000001be001049e2004d
:104e54001a003a001149e20018003a00e00f50002d
:104e6400e08f58001500320016028000000e20006a
:104e74004220b700e1508000215a90000482fb00d8
:104e8400559120003158900000c0ea00e5437a00b3
:104e94000740600080727a0003003a004158900095
:104ea40000c0ea001469b60092089800a3089800ac
:104eb40016028800241d0200000000000000060005
:104ec400889fbe008a9fbe008c9fbe0080457800ec
:104ed400014678000245780051c5b3001049e2004c
:104ee40021003a0021c3b3001149e2001e003a0038
:104ef400803e20000018b800823e200003002000fd
:104f0400e2030200000000000004be000c86fb0067
:104f1400c00320000066b8000b80fb008000eb009b
:104f240002e120000300200002040200000000004f
:104f34000c0040008d8048000a85fb008005eb00d2
:104f44000000450081804d00823e200003002000c7
:104f540002040200000000000800400089804800ac
:104f6400b9ff07008040eb00014078004f06be0007
:104f74004f05be004f04be0000000600004178004b
:104f8400a0c2b300e34f510032003e001102800082
:104f9400000e20004220b7000280fb000000400009
:104fa40042a22000e20278000500e0000200320084
:104fb400e18f520002003a0011028800300405001b
:104fc40015099000a5099000e00f5100e08f5900e9
:104fd40002003a0011028800000505006011b800c3
:104fe400920a9800a30a9800e55190000301780002
:104ff4007203b2000400320082ccb30082c16100ab
:10500400e352980012c0b300f25298006551900028
:105014000238a3000d003a00455890001469b70007
:10502400255990000281fb005391200063427900ce
:105034003558900000407200807179001102880098
:10504400241d020000000000000005001102880079
:105054000040eb000000060012028000000e200059
:105064004220b70040588000515880001202880046
:10507400000006000001be0011028000000e2000a6
:105084004220b70042588800535888001102880013
:105094000000060040c2b300000000000040e90028
:1050a400fdff3a0000000600c8a2a800c8c2a9007b
:1050b400c0e2a900c982a900cd82a8008820a90065
:1050c400e013200010138800100020002013880033
:1050d400c000280000138800000006000080fb00c8
:1050e4004013880060a2ab00feff3a00401380002a
:1050f40080487800000006004113800001487800d1
:105104000000000000000600889fbe0080047800b4
:1051140001047800cd82a9008800780060c0b30043
:10512400eeff0700cd82a800cd82a9008800e80028
:1051340030c0b300e9ff07008880e8004848de007b
:10514400e6ff0700e300440009407800e3ff07009e
:10515400cd82a8004f04be0000000600889fbe0058
:105164008a9fbe008c1f7800000678000104780036
:10517400cd82a9008800780060c0b300d7ff070083
:105184008805e8008b00780030c0b300d3ff070027
:105194000885e8004860de008a007800cfff070039
:1051a400e3044400890078000c407800cbff07003a
:1051b400880078000040eb00c8ff07008b007800ef
:1051c4000040eb00c5ff07008a0078000040eb00b8
:1051d400c2ff0700890078000040eb00bfff070012
:1051e400acff0700cd82a8004f0678004f05be0033
:1051f4004f04be000000060012c0b300c1c220006c
:10520400f0ff2100c0ff07002c4cec000080fb00e5
:1052140002092000110009000280d800c0c2200049
:1052240001487800000006000200fa008f80e900bf
:1052340060c0b300a9ff07000080fa000000060068
:105244000200fa00cd82a90010002000382a0200d2
:10525400000000008f80e90010c0b3009fff07002a
:1052640010002000382a0200000000008f80e900ae
:105274000040eb0099ff070010002000382a0200cc
:1052840000000000cd82a80010002000382a02008f
:10529400000000000080fa000000060005e1a800fc
:1052a40005a1a900f0fc2f000421b6000421a800e8
:1052b400f0cf2f000421b60004c1a900000028008b
:1052c40010088800f1ff280020058000808060001d
:1052d4000000260001007000200588008460a900f9
:1052e4009460a8000021ef0005e1a9000000060079
:1052f40011e1a80011a1a900f0fc2f001001b600d3
:105304000050a000800888001021a90010c1a90045
:105314001061a900a086210060088800f0ff280021
:10532400a600b60000d0a0003005880084e0a900e3
:1053340094e0a8000621ef0011e1a9000000060096
:1053440013e1a80013a1a800f0fc2f001221b6005d
:105354001221a90012c1a90000c429007008880004
:1053640080ff2f00a800b6000000a00040058800c0
:105374008500a9009500a8000a21ef0013e1a90007
:10538400000006001fe1a8001fa1a800f0fc2f00e8
:105394001e21b6001e21a9001ec1a9001e61a9007c
:1053a400d0072000d0088800f1ff28008005800085
:1053b40080806000000023000100700080058800e8
:1053c4008760a9009760a8001421ef001fe1a900dd
:1053d40000000600282cef009500a80013e1a800a7
:1053e400000006009500a90013e1a900282cef0095
:1053f4000a21ef00000006008000780010c0b3000e
:1054040042618000810f510001003e000040eb002a
:1054140000000600f8874700889fbe008e1f7800b2
:10542400810478000000eb00c0bf9f00a0bf9f0074
:10543400b0bf9f0078845700080078000e04020073
:1054440000000000a0b79f00b1b79f007c87570001
:10545400be5c7800880f5700fdff3a004f077800c4
:105464004f04be008f01b1000000060002003700a7
:10547400000000000000e9000000e000fcff3a002a
:1054840000000600243a800002002700103a800041
:10549400000161004c11de000281fb008001eb0081
:1054a40061015100e08159000051270001072000eb
:1054b400e60f5100e08f590022003e000260010017
:1054c4001e003700050037000700370009003700c9
:1054d4000b0037000d0037000e00370000202100bc
:1054e400a10720001700370000802400811e20003f
:1054f40014003700000028000100200011003700cc
:1055040080912700010020000e0037006000b800e1
:105514000c0037004821de006701610020002000f4
:105524000201dd008001eb0000512700010720008b
:10553400c4030200000000000200370000442d00f4
:10554400111c20008100d1000080d300000006005f
:10555400ccff0700823e200003002000e20302008b
:10556400000000008000e9001021ef000621ef0098
:1055740061088800f0ff2800a620b600000027007c
:10558400a620b70084e0a90094e0a8000000280049
