:020000040000fa
:080000000002040000000000f2
:020000040000fa
:100400004fd820000eff20000e01880000000000e1
:100410000c000700e033230001002000110007005a
:10042000000020000000e000020032000000020096
:100430000000000026320200000000000040da0048
:100440000000fe004440a900602b20000000e000f6
:100450000300320000002000a00188004440a800f2
:100460000000060091018800800078000000eb0089
:1004700015003700e280400032a0b4009101ba00bc
:10048000e280400032a0b4009102ba00e280400055
:1004900032a0b4000002eb00472bde00f507b200eb
:1004a000602ce10004003a000059eb008301e900f0
:1004b000fdff3e00040037006128e100010032002a
:1004c0000082eb00040007001101ba000200e00006
:1004d000e8ff3a00000006003159ba008301e90044
:1004e0000c0032002159ba008301e90008003200f3
:1004f0000400e00003003a00e280400032a0b400b3
:10050000f5ff370011d9ba008301e900faff3a007c
:100510008100e800e180400032a0b4000000060045
:1005200000000000000000000000000000000000cb
:10053000000000000000000003f0a200889fbe0041
:100540008a9fbe008c1f7800f6000700fd00330074
:100550006450e1004f0032006420e100520032009c
:1005600003826c0007003b000905d0000306d000a1
:10057000820f54000c065d000200390002003200b8
:1005800089017800030678008582550004003d004b
:100590000003fd008103fd008502ea008b85420017
:1005a000840f720002003b0060001000e080180021
:1005b0006011b8000005eb007a28e1000a0039005c
:1005c00006007800c75ddd00f707b2008780750080
:1005d0002d003700828171000a01780061056000fa
:1005e0008180d1000080d3008502e900f9ff3b0043
:1005f000060440008784480002003b0060041400a9
:10060000e0841c000988a300070032008a81710081
:1006100082817100610164008904d1000884d300e3
:100620008b05e800170037000978a30013003a0093
:100630000b00e000130034008b05e90008044400bf
:1006400089844c000a4474000978a3000d003a0024
:100650000b00e000070034008b05e90008044400ab
:1006600089844c0001003a000b0020000978a300a7
:10067000f7ff32000001eb000200370082817100b9
:100680000a017800810007000cf0a70001f0a0002b
:10069000b50037006420e10002003a00838f6c004f
:1006a000b50033000801be000200be00ae003700f6
:1006b000889fbe008a9fbe008c1f780099000700ab
:1006c000a000330003866c006450e1002e0032006d
:1006d0006420e100330032006150e1002f0032005d
:1006e0006120e1003100320085855500eb07b00044
:1006f0000900200008042000050037000804440019
:1007000089844c000a0031000603430087834b00b4
:100710000001530081815b00f8ff33000203be003b
:100720000800a0000804440089844c00f6ff39004a
:10073000c639dd0083017300010032001300200080
:100740008904d1000884d3000998a3000500320071
:100750000800a7000300a0008904d1000884d3008a
:100760008b05e8008904d1000884d3000001eb0068
:100770000281d2004500070001f0a1000cf0a700a3
:1007800001f0a000780037006420e1007a00320018
:100790000801be000200be00f7ff37006120e10043
:1007a000750032006000b800f3ff37000000200041
:1007b00001f82700f0ff3700f4ff2f00df003700bb
:1007c000889fbe008a9fbe00010578000100e000fe
:1007d0000400350008003c000000e000200032006a
:1007e0000500370060001000e080180002003b00a8
:1007f00001f02c001a0037000004be006011b800a0
:100800006b0920000982cf00020039000882cf0066
:100810000441b000694252000e00320008003b0063
:1008200082817100610164008904d1000884d300d1
:100830008b05e8000442e800f9ff3a0005003700a4
:100840000804440089844c008b05e9000442e90057
:10085000fbff3a000d0007000af0a70001f0a0001e
:100860004f05be004f04be00000006000001eb0073
:100870008b000700040032000200200003f8230070
:1008800001f0a7002cff07000000060081002000f7
:10089000618055000b003d000b00200061fe2f0021
:1008a0000100e1001d0034008281710061016400db
:1008b0008904d1000884d3000000e800faff3a0060
:1008c00071002000610064000300700002006000fd
:1008d0000900320061044400e0844c000988a5004e
:1008e000050032008b05e8006808e10002003a00cc
:1008f0008904d1000884d300f20f20000258e100df
:1009000005003d00c75ddd00f907b2008980750074
:1009100008007800000006000bf827008b00780024
:10092000000005000004be009f0007000003be0099
:100930000405be000200be009b000700844f750046
:10094000000006000200be006450e1000500360011
:100950006420e100020036000968a30001003a00ab
:100960000800be000160a0004f0678004f05be00e1
:100970004f04be0000000600f0ff2f00f1ff27002b
:10098000f9ff3700889fbe008a9fbe008c1f780049
:10099000e4ff0700ebff330003866c006450e100c6
:1009a000240032006420e100270032006150e100a1
:1009b000220032006120e100210032008b854200dc
:1009c000eb07b1000134b800003ab8000804420057
:1009d00089844a00013ab8000030b800888040009d
:1009e00009014a00040033000000400081804800f3
:1009f000020149008b05e900c909dd00830170008f
:100a00000100320013002000c814de004814dd008d
:100a10004709de001200b200c808de00088470003a
:100a20009aff070001f0a1000cf0a70001f0a00060
:100a3000cdff37006120e100cfff32000801be008a
:100a40000200be00f7ff37006150e100fcff3a00f2
:100a5000c9ff37006022b800060220000000d00065
:100a60008180d2000482d2008582d2000000a000e2
:100a70000202520083825a00030031000202420047
:100a800083824a000000a1000603e900f3ff3a0058
:100a900000000600efff07000400be000000060093
:100aa000889fbe008a9fbe000003be003e00070074
:100ab0008505780082815200020020006220e1005a
:100ac00004003a00f307b100040035007718e10094
:100ad000040035000600be00140037006000b800b6
:100ae0000f003700f50f2000faff2f008502d1001c
:100af0000a85d3008301e900fcff3b00818462008a
:100b000000046500890f7400f2ff32008582ea005c
:100b10000a85ea0081846200000465005bff07002b
:100b200007f0a70001f0a0000081eb000200e00048
:100b30004f05be004f04be0000000600889fbe00a7
:100b40008a9fbe00841f780076ff07004f00780060
:100b500011003300f0ff2f00838f6c0006003b0074
:100b6000040565000a00a7000800370009f0a60088
:100b70001000200008003700820f5400838f5c00b3
:100b8000030039001000200001003e00000020009a
:100b900009f0a7000000ea004f05be004f04be00a8
:100ba0000000e00000000600c70ade00f107b20006
:100bb000f50fb20008003200e1cf4200020032001f
:100bc0000170a00024000500810f700001003200b8
:100bd0000408050044000500810f700002003a007f
:100be000140005008502e9000000400081c04800b3
:100bf000fcff3b000170a00024000500000278000b
:100c000082427800034878008100fb00a2002000a7
:100c1000110009008200d8008000fd000043b000f0
:100c200070fa9f00014078000104e00003003200e8
:100c30000043b00060fa9f000000060065fa9f00c4
:100c40000000060080007800630060000f003a009a
:100c500042062000811f7800110009008280d80020
:100c600001007800cf0078000000e00008003a00a2
:100c7000c0122000010040000219200011000900ec
:100c80000280d8000100e00001003200d01605000b
:100c9000e0160500889fbe008a1f78008c9fbe006a
:100ca0001004be00c2032000030020000800be00a4
:100cb00034010700406a8800c203200003002000be
:100cc0000800be00200107000004be00c20320008f
:100cd000030020002b010700506a8800c203200097
:100ce000030020000800be00170107000006be0038
:100cf000820120000300200022010700606a8800b2
:100d000082012000030020000c00be000e0107003d
:100d1000706a880064004000720020001100090021
:100d20000200d80001017800a26a88006004200057
:100d30000400370000005500706a880020d52000ac
:100d40001000e800906a88007a6a8000906a80004b
:100d5000bcff0700800f5500f6ff3d0062006000f9
:100d600001f02f000104660000047400ba6a8800d4
:100d700000d520000008eb008002780084d7200016
:100d80000800370002805100706a88001500e800f2
:100d9000806a88000880fb000000d10008846000a1
:100da00000047400736a8000806a800064407800e8
:100db000084070000081fb004810dd00f80fb20011
:100dc00000047400828f5100eeff3d000300e80034
:100dd000706a880080d420004f06be004f0578005e
:100de0004f04be00000006000400fa00b26b800051
:100df000c10320000191b90030021100a082190046
:100e0000e4bf9f00f5bf9f0064805700a1ff07006b
:100e10000080fa0000000600889fbe008a9fbe0086
:100e200080047800600090006300b900c2d0200008
:100e300000014100abd52000924d7800b0d52000d4
:100e40009240900001487800c0d5200022419000d7
:100e5000024878000ac2b300d0d520000a487800c2
:100e6000490090006300b90022d220000001410037
:100e7000e0d5200012487800f0d520009240900084
:100e80000148780000d620002241900002487800f6
:100e900010d620000a487800b90090008a417800f6
:100ea0000a41780040d6200054ff0700a9009000b6
:100eb000a3c3b30002c3b30070d620004fff0700e6
:100ec00099009000a3c3b30002c3b300a0d62000d2
:100ed0004aff0700990078008a41780002c3b300f6
:100ee000d0d6200045ff0700d9009000480620001a
:100ef000110009008800d8008000fd00f3c0400008
:100f00008041eb000a41780000d720003bff07003a
:100f100059009000110009000800d800a3c0b300d8
:100f200002c3b30020d7200034ff07000b00780075
:100f30004f05be004f04be0000000600aaff0700d8
:100f4000b5ff370080017800d01620000018b800e7
:100f5000421ade0004024000e082480042062000ff
:100f6000110009008281d8000001780002025200bd
:100f7000e0825a0002192000110009008281d80085
:100f80008000fd0001004200e0804a0000000600f1
:100f9000889fbe00000378000102e80010bf200017
:100fa00000a2b90010442f000400400044062000b5
:100fb000811f7800110009000480d800cf0078005c
:100fc000000141006114b800e18f500014003600a8
:100fd00002192000110009000283d80001007800e6
:100fe0000000e000070032006300630008003a00e0
:100ff000110009000483d8008000fd000000e0001b
:101000000300320010002000010020000200370021
:1010100020002000010020000004540081845c00b6
:101020000600e900c7ff070008004000898048006b
:101030004f04be0000000600889fbe008a9fbe00cd
:101040008c9fbe0000067800d0069000a0fb2f0009
:10105000008046000081eb008081eb00210320002e
:10106000810f500033003e00120020008000eb0092
:10107000207b2000c6ff07000005be00c0762000d0
:10108000008046003c019000cc009000c0ff0700ab
:101090000004be000a0550008b8558007200200035
:1010a000030020000a00be00360007006400400074
:1010b000e08048007200200003002000310007009b
:1010c00060069800b0762000008046009dff070073
:1010d000000454000804e90078069800820120000a
:1010e000030020000a00be00350007002c0190001c
:1010f000cf91de000000410081804900c203200042
:10110000030020002e0007001c019000cf91de009c
:101110000000410081804900c2032000030020003c
:10112000270007001c017800cf91de00000141007c
:10113000818149000200be004f06be004f05be007f
:101140004f04be0000000600839f68000100e0001d
:1011500002003d0060001000e08018000300e00085
:1011600002003d0060011100e081190039fe070016
:101170004f00e00002003b0060001000e08018001b
:1011800000000600811f78000100e00002003d0021
:1011900060001000e08018000300e00002003d0045
:1011a00060011100e08119003afe07004f00e000e5
:1011b00002003b0060001000e08018000000060004
:1011c000020ab900001bb9000200b8008100420009
:0811d00081004300000006004d
:020000040000fa
:10000800a8200000a8200000a8200000a8200000c8
:10001800a8200000a8200000a8200000a8200000b8
:10002800a8200000a8200000a8200000361e00001c
:10003800a8200000a8200000a8200000541e0000ee
:100048007e1e0000a8200000a8200000961f0000c7
:10005800a8200000a8200000a8200000a820000078
:10006800a8200000a8200000a8200000e21e000030
:1000780078200000a8200000a8200000a820000088
:10008800a8200000a8200000a82000009c1e000056
:10009800a8200000a8200000d61f0000162000009d
:1000a800a8200000a8200000a8200000a820000028
:1000b800a8200000a8200000a8200000a820000018
:1000c800a8200000a8200000a8200000a820000008
:1000d800a8200000a8200000a8200000a8200000f8
:1000e800a8200000a8200000a8200000a8200000e8
:1000f800a8200000a8200000a8200000a8200000d8
:10010800a8200000a8200000a8200000a8200000c7
:10011800a8200000a82000002c1d0000a820000036
:10012800a82000004c20000062200000a820000049
:10013800a8200000a8200000a8200000a820000097
:10014800a8200000a8200000a8200000a820000087
:10015800a8200000a8200000a8200000a820000077
:10016800a8200000a8200000a8200000a820000067
:10017800a8200000a8200000a8200000a820000057
:10018800a8200000a8200000a8200000a820000047
:10019800a8200000a8200000a8200000a820000037
:1001a800a8200000a8200000a8200000a820000027
:1001b800a8200000a8200000a8200000a820000017
:1001c800a8200000a8200000a8200000a820000007
:1001d800a8200000a8200000a8200000a8200000f7
:1001e800a8200000a8200000a8200000a8200000e7
:0801f800a8200000a82000006f
:020000040000fa
:10020800a8200000a8200000a8200000a8200000c6
:10021800a8200000a8200000a8200000a8200000b6
:10022800a8200000a8200000a8200000361e00001a
:10023800a8200000a8200000a8200000541e0000ec
:100248007e1e0000a8200000a8200000961f0000c5
:10025800a8200000a8200000a8200000a820000076
:10026800a8200000a8200000a8200000e21e00002e
:1002780078200000a8200000a8200000a820000086
:10028800a8200000a8200000a82000009c1e000054
:10029800a8200000a8200000d61f0000162000009b
:1002a800a8200000a8200000a8200000a820000026
:1002b800a8200000a8200000a8200000a820000016
:1002c800a8200000a8200000a8200000a820000006
:1002d800a8200000a8200000a8200000a8200000f6
:1002e800a8200000a8200000a8200000a8200000e6
:1002f800a8200000a8200000a8200000a8200000d6
:10030800a8200000a8200000a8200000a8200000c5
:10031800a8200000a82000002c1d0000a820000034
:10032800a82000004c20000062200000a820000047
:10033800a8200000a8200000a8200000a820000095
:10034800a8200000a8200000a8200000a820000085
:10035800a8200000a8200000a8200000a820000075
:10036800a8200000a8200000a8200000a820000065
:10037800a8200000a8200000a8200000a820000055
:10038800a8200000a8200000a8200000a820000045
:10039800a8200000a8200000a8200000a820000035
:1003a800a8200000a8200000a8200000a820000025
:1003b800a8200000a8200000a8200000a820000015
:1003c800a8200000a8200000a8200000a820000005
:1003d800a8200000a8200000a8200000a8200000f5
:1003e800a8200000a8200000a8200000a8200000e5
:0803f800a8200000a82000006d
:020000040000fa
:0200000401f009
:040000000f000000ed
:020000040000fa
:0200000401f009
:0400080003000000f1
:020000040000fa
:0200000401f009
:04000c006000000090
:020000040000fa
:0200000401f009
:0400100033000000b9
:020000040000fa
:0200000401f009
:04001400ff000000e9
:020000040000fa
:0200000401f009
:04001800fc000000e8
:020000040000fa
:0200000401f009
:04001c00820000005e
:020000040000fa
:0200000401f009
:040020001f000000bd
:020000040000fa
:1011d8000000000000000000000000000000000007
:1011e80000000000000000000000000000000000f7
:1011f80000000000000000000000000000000000e7
:1012080000000000000000000000000000000000d6
:1014480000000000202800003250000064960000d0
:10145800c80100000a640000332e0000362e000088
:1014680030000000010900000a10000012130000fb
:101478001415000016170000191b00001d1e00009f
:101488001f20000021220000262a00002e32000022
:10149800363a0000000000000000000000000000d4
:1014a8000000000000000000000000000000000034
:1014b8000000000000000000000000000000000024
:1014c8000000000000000000000000000000000014
:1014d8000000000000000000000000000000000004
:1014e80000000000000000000000000000000000f4
:1014f80000000000000000000000000000000000e4
:1015080000000000000000000000000000000000d3
:1015180000000000000000000000000000000000c3
:1015280000000000000000000000000000000000b3
:1015380000000000000000000000000000000000a3
:101548000000000000000000000000000000000093
:101558000000000000000000000000000000000083
:101568000000000000000000000000000000000073
:101578000000000000000000000000000000000063
:101588000000000000000000000000000000000053
:101598000000000000000000000000000000000043
:1015a800581b00005245000041440000592b000020
:1015b80054550000524f00004e47000020470000dd
:1015c800504f00004e0d00000a2b0000545500003b
:1015d800524f00004e47000020470000504f0000c7
:1015e800464600002b540000555200004f4e0000a4
:1015f80047200000544500005354000052300000ba
:101608002b52000045430000574100003200000003
:1016180000000000000000000000000000000000c2
:1016280000000000000000000000000000000000b2
:1016380000000000000000000000000000000000a2
:101648000000000000000000000000000000000092
:101658000000000000000000000000000000000082
:101668000000000000000000000000000000000072
:101678000000000000000000000000000000000062
:101688000000000000000000000000000000000052
:101698000000000000000000000000000000000042
:1016a8000000000000000000000000000000000032
:1016b8000000000000000000000000000000000022
:1016c8000000000000000000000000000000000012
:1016d8000000000000000000000000000000000002
:1016e80000000000000000000000000000000000f2
:1016f80000000000000000000000000000000000e2
:1017080000000000000000000000000000000000d1
:1017180000000000000000000000000000000000c1
:1017280000000000000000000000000000000000b1
:0c173800000000000000000000000000a5
:020000040000fa
:101744005a00fa00202f980061d798000000eb009f
:10175400300798000040eb00504798000040eb0031
:10176400404798000040eb00304798002e28900036
:101774000000e800104078000080fb00402f980033
:1017840000022000ce289000808f50000401320017
:1017940000022000ce289000808f50000a003c00f8
:1017a4004e289000e40f500045003200ce289000ef
:1017b400f08f5000990032004e289000e30f500043
:1017c400120032009101370020022000ce28900040
:1017d400808f50004601320020022000ce28900065
:1017e400808f50001701350060022000ce28900041
:1017f400808f50005401320030042000ce28900025
:10180400808f50004e013200800137002e28900056
:101814000080e80090407800514798002e289000fe
:101824006300400090407800414798005e4090007b
:10183400e14f400003003a00f8ccbf005047980045
:101844000d0037005e4090000080fb000001eb00bb
:10185400f1082000de0a07000080fb000000e00021
:1018640005003a006ed1900021c0b30030c0b3002f
:10187400c80207006b0137004e4090000080fb0057
:101884001200200001092000d10a07000080fb009b
:101894000000e00005003a006ed1900031c0b300b2
:1018a40030c0b300bb0207005e0137004e41900018
:1018b400de4090006ed090005d01070059013700b2
:1018c4002e2890000080e80090407800514798004e
:1018d4002e28900063004000904078004147980013
:1018e40050a32800104078000081fb00c0a4280009
:1018f400104078008080fb005e4090000080fb0078
:10190400b30a07000080fb000000e00005003a0075
:101914006ed1900021c0b30040c0b3009d02070007
:10192400400137004e4090000080fb001200200070
:1019340081012000a60a07000080fb000000e000ef
:1019440005003a006ed1900031c0b30040c0b3002e
:10195400900207003301370050a32800904078001c
:101964006800470012c0b300c10b0700e80047003d
:1019740040c0b30090409800e8004700a0c3b30003
:10198400a040980068004700a040900031479800ac
:1019940068004700630040003e419000de40900034
:1019a400b30b07003e409000634040008040780045
:1019b40068004700fd110700300798003e40900082
:1019c4000080fb00630140003e00900080407800ee
:1019d4006800470000004100014878003e40900044
:1019e4000080fb00640140003e0090004800de00df
:1019f40080407800680047000000410001487800fa
:101a04003e4090006540400000417800e8004700f7
:101a14006ed09000840207000201370040c0b3007a
:101a2400304798002e2890000080e800904078000d
:101a3400514798002e2890006300400090407800a1
:101a44004147980050a32800104078000081fb0013
:101a5400c0a42800104078008080fb005e40900005
:101a64000080fb005a0a07000080fb000000e00031
:101a740005003a006ed1900021c0b30000c1b3004c
:101a840044020700e70037004e4090000080fb004e
:101a940012002000810120004d0a07000080fb0095
:101aa4000000e00005003a006ed1900031c0b300a0
:101ab40000c1b30037020700da003700f0a32800a2
:101ac400104078000080fb00800078002e289000f1
:101ad400808040003e4090000080fb000080400079
:101ae40071002000025a2000030020004d0a070064
:101af40000a42800104078000080fb0080007800db
:101b04002e289000808040003e4090000080fb0022
:101b140000804000c1032000025a2000030020007e
:101b2400400a070010a42800104078000080fb0041
:101b3400800078002e289000808040003e40900075
:101b44000080fb00008040008000eb00025a20006f
:101b540003002000330a07003e4090000080fb0091
:101b6400800078002e28900000804000a2c3b300bb
:101b74008040eb00250b0700110c0700ed0b07005c
:101b84003e0c07005e4090000080fb006ed1900088
:101b9400ce4090000d0107000f0c0700a100370094
:101ba4006ed09000e14f500005003a0012c0b3001f
:101bb40011c0b30000c2b300f6010700990037005a
:101bc400deccbf00704060000004e00008003a0072
:101bd400deccbf00614060000004e00004003a0075
:101be400deccbf00624060000004e000050032006b
:101bf4000041eb0041c0b30000c2b300e50107009f
:101c0400880037005f140700c462a8001c010700a5
:101c1400c462a900631407002e2890005d0f07001a
:101c24000080fb000000e000fbff3a002e2890003b
:101c3400370f07000080fb000000e000fbff3a00c4
:101c4400780037006ed09000e14f500005003a0054
:101c540012c0b30011c0b30010c2b300cd0107001d
:101c640070003700deccbf00704060000004e0006c
:101c740008003a00deccbf00614060000004e000d0
:101c840004003a00deccbf00624060000004e000c3
:101c9400050032000041eb0041c0b30010c2b300a4
:101ca400bc0107005f00370036140700c462a800b7
:101cb4002e2890000080e8002c010700c462a900cf
:101cc400381407002e289000320f07000080fb0014
:101cd4000000e000fbff3a002e2890000c0f0700e4
:101ce4000080fb000000e000fbff3a004d003700dd
:101cf4006ed09000e14f500005003a0012c0b300ce
:101d040011c0b30020c2b300a20107004500370090
:101d1400deccbf00614060000004e000050032003a
:101d24000041eb0041c0b30020c2b3009901070099
:101d34003c003700de8ca800420107003900370060
:101d44005e01070037003700c00420000e00400089
:101d5400c18e280006000900315878007000b100d7
:101d64000040eb00204798000000eb00000f7800d3
:101d7400c00420000e00400012c0b3008040eb00fd
:101d8400bb0a0700c10420008e80400060c2b3007b
:101d9400904098002e4090000080fb008000780066
:101da400c00420000e004000010040000080e80054
:101db40050140700c00420000e00400051c0b300be
:101dc400fa100700000f78001e00780080407800a9
:101dd400c00420000e004000514098001e0078000e
:101de4004800de0080407800c00420000e0040005f
:101df40061409800c10420008e80400072c0b3008e
:101e04000040eb0088010700060037002e289000f0
:101e14000000e800104078006ed1900011c0b300bb
:101e24005c010700100020000080fa00000006009a
:101e34003800fa004077980051779800627798004c
:101e44000000eb00000f7800deccbf0070406000a3
:101e54000004e000080032006e709000e14f500072
:101e640005003a000041eb0041c0b30030c0b300ac
:101e7400480107005300370050a328009040780021
:101e84006300470012c0b300790a0700e30047006b
:101e940030c0b3009040980063004700ee7090009b
:101ea400214098006300470031c0b300bf10070011
:101eb400000f78001e00780080407800630047001f
:101ec400314098001e0078004800de008040780011
:101ed4006300470041409800e300470052c0b3004c
:101ee4004e709000500107006e709000e14f50005a
:101ef40014003a000000eb00bb050700f8ccbf005b
:101f04000080fb00f008b000020920001100090065
:101f14000200d8008000fd0080007800e00220006c
:101f24000088b900e3004700e202200073120700b2
:101f3400e3004700e2c2b3004e7090003a0107008c
:101f44002000370030c0b300ae0907000040eb00aa
:101f540020479800170037005e7090008080fb00d7
:101f64002e4090000080fb0000804000f008b0008c
:101f740002092000110009000200d8008000fd00c1
:101f840080007800e00220000088b900e3004700e8
:101f9400e202200059120700e3004700e2c2b30046
:101fa4004e709000200107002e4090000040e80091
:101fb40020479800ae4090006e70900080cf500093
:101fc400e5ff39000080fa00000006000e00fa0068
:101fd40050079800414f9800524f98000000eb00c2
:101fe400000f780050a32800904078000e80e8008d
:101ff40012c0b3001e0a07008e80e80000c1b300bf
:10200400904098005e0090004800de008040780018
:102014000e80e800214098005e0090008040780027
:102024000e80e800314098000e80e800ce48900011
:10203400414098000e80e80051c0b3005b100700d7
:10204400000f78001e007800804078000e80e800c1
:10205400514098001e0078004800de00804078005f
:102064000e80e800614098008e80e80072c0b300e2
:102074005e489000ec0007000080fa0000000600b3
:102084008e00fa000e80e800318f28008b000900d2
:1020940031587800c008b1000000eb00000f780050
:1020a40050a32800904078000e80e80012c0b300ce
:1020b400ef0907008e80e80000c2b300904098004a
:1020c40050c0b3004f090700e2c0b30061af28005d
:1020d40010c0b300d400070010c0b30063090700a8
:1020e4000e80e8008080e80054c0b30043b02800ac
:1020f40082c8b300c0cc22004c0e07008040780098
:1021040080c8b30080cf500012003a000e80e8006f
:10211400a1c8b30025100700000f78001e00780046
:10212400804078000e80e800214899001e00780065
:102134004800de00804078000e80e80031489900b5
:102144008e80e800c2c8b3000040eb00b600070070
:10215400040037000041eb0051c0b30000c2b300db
:102164008c0007000080fa00000006001800fa0046
:10217400300f98000000eb00000f780050a32800f7
:10218400904078000e80e80012c0b300b809070040
:102194008e80e80010c2b3009040980050c0b30095
:1021a4001809070002c9b300be08900010c0b300ac
:1021b4009d00070080c0b300120907000e80e800ec
:1021c4008080e80054c0b30043b02800a2c0b3002c
:1021d400c0cc2200150e07000004e00013003200fa
:1021e400f01207000e80e80021c0b300ef0f0700d3
:1021f400000f78001e007800804078000e80e80010
:10220400214098001e0078004800de0080407800dd
:102214000e80e800314098008e80e80042c0b30090
:102224000040eb0080000700040037000041eb0091
:1022340041c0b30010c2b300560007000080fa008a
:10224400000006000800fa000000eb00000f780010
:1022540050a32800904078000e80e80012c0b3001c
:10226400830907008e80e80020c2b30090409800e4
:102274000e80e80021c0b300cc0f0700000f7800e7
:102284001e007800804078000e80e800214098000d
:102294001e0078004800de00804078000e80e800d0
:1022a400314098008e80e80042c0b3000040eb004b
:1022b4005d0007000080fa00000006000e00fa002e
:1022c40063004700f197280009000900315878009d
:1022d400a000b1000040eb00204798000000eb0094
:1022e400000f78006300470012c0b3008040eb0089
:1022f4005f090700e300470030c4b3009040980032
:102304000040eb00204798000c0037002e4090005e
:102314000080fb000081e8002e4090008080fb00dc
:1023240000a32800e14078006300470001717800b1
:102334002e4090000040e800204798002e40900076
:10234400e44f5000f1ff36006300470071c0b30052
:10235400960f0700000f78001e0078008040780078
:1023640063004700714098001e0078004800de00ba
:10237400804078006300470001489800e30047006c
:1023840092c0b3000040eb00270007000080fa0071
:10239400000006000c00fa00004f9800114f98004e
:1023a400224f980050a32800904078000e80e80047
:1023b40012c0b3002e0907008e48900000c8b30075
:1023c40000c04000804078000e80e8001140980072
:1023d4000e80e8009e489000214098000e80e8009e
:1023e40031c0b300710f0700000f78001e007800a1
:1023f400804078000e80e800314098001e0078008c
:102404004800de00804078000e80e80041409800db
:102414008e80e80052c0b3002e48900002000700ee
:102424000080fa00000006000600fa00004f780061
:1024340011079800424798001e04e000050032008e
:102444004e4090008080fb001e0090003e1207006a
:10245400040037004e4090008080fb001e00900076
:10246400a21107000080fa00000006006200fa00d2
:1024740060df98000040eb00604798000000eb002c
:1024840020079800104080001007980000c8bf0083
:10249400004f7800e800470010c4b300804878007b
:1024a400e800470020c3b3009040980060a32800d0
:1024b40090407800680047000080e80082c0b300c4
:1024c400eb0807006ed890000080fb0000379800ee
:1024d4008e309000e18f50006c0032000e3090007e
:1024e400e20f5000a50032008e3090000100e000a1
:1024f40001003200dc0037001e009000f80f50008d
:102504000300360080012000100798000200370005
:102514000040eb00004f78009e009000e002200095
:102524000088b9006f004000200798002e0090003a
:102534004800de0080407800680047002148980089
:102544002e009000804078006800470031489800d1
:1025540068004700eed89000414898001e009000a3
:1025640080407800680047005148980068004700a0
:10257400e1002000540f070060479800e80047007e
:10258400e2c0b30010c0b300a7ff07000040eb0097
:1025940070479800370037007e4090008080fb0031
:1025a4001e80fb0000804000820120001100090011
:1025b4000200d8008000fd0000417800f6004700ca
:1025c40010c0b30006090700f10220008e8040000d
:1025d40076004700f40b0700f00220000e004000d4
:1025e40064004000f60047008b040700f00220005e
:1025f4000e004000e1022000330f07008040780005
:102604006e40900001404000604798001e0090001a
:102614008000e9007e4090000080fb00808f500025
:102624000a003a00f00220000e004000ee40900044
:1026340061689800f10220008e804000f2c2b3006d
:1026440010c0b30078ff070007003700f102200034
:102654008e804000e2c2b30010c0b30072ff0700d6
:1026640050c0b300e70707007e4090000040e80038
:10267400704798007e4090008080fb001e00900010
:10268400808f5000c4ff390077003700e80047000e
:102694000040eb00a0489800e8004700d0c3b30016
:1026a400b0489800e800470050c0b300c048980004
:1026b400e800470010c0b300d04898006800470005
:1026c400e1002000000f070060479800de4ca800de
:1026d4009d0b07008760a800010037009a0b0700d4
:1026e40087c0bf00684060000004e000fbff3a00c0
:1026f400f600470012c0b30020c0b300b8080700ba
:10270400f10220008e80400076004700a60b0700ef
:10271400f00220000e00400064004000f600470074
:102724003d040700f00220000e004000e1022000fa
:10273400e50e0700804078006e40900001404000a4
:1027440060479800f00220000e004000ee40900028
:1027540061689800e8004700e2c0b30010c0b3000d
:1027640031ff0700f10220008e804000f2c2b30066
:1027740010c0b3002cff07003b003700e8004700ff
:102784000040eb00a0489800e8004700d0c3b30025
:10279400b0489800e80047000040eb00c0489800ab
:1027a400e800470010c0b300d04898006800470014
:1027b400e1002000c40e070060479800de6ca8000a
:1027c400610b07008760a800010037005e0b07005b
:1027d40087c0bf00684060000004e000fbff3a00cf
:1027e400f600470012c0b30020c0b3007c08070005
:1027f400f10220008e804000760047006a0b07003b
:10280400f00220000e00400064004000f600470083
:1028140001040700f00220000e004000e102200045
:10282400a90e0700804078006e40900001404000ef
:1028340060479800f00220000e004000ee40900037
:1028440061689800e8004700e2c0b30010c0b3001c
:10285400f5fe0700f10220008e804000f2c2b300b2
:1028640010c0b300f0fe07000080fa00000006006c
:102874001400fa00700798007e0090006e0040007b
:102884009040780011479800e0c0b300004f7800f2
:102894000e80e8009198280006000900315878005d
:1028a4007000b1006000b8005007980061079800fc
:1028b4001e4090000080fb000001eb00810020001e
:1028c400c30607000080fb000000e00003003a009c
:1028d4000000eb00100f9800e60037007e00900027
:1028e4006c004000104078000004e000df003a0073
:1028f400d20037001e80fb00800078007e0090002c
:102904000080400090407800114798001e409000dd
:102914000080fb00000f98000e089000e40f5000a8
:10292400740032008e089000e48f500011003c00c7
:102934000e089000e10f5000320032008e08900023
:10294400e18f500004003c000e0890000000e000fd
:1029540015003200b70037008e089000e28f500057
:102964003f0032000e089000e30f50005300320085
:10297400b00037008e089000e68f500079003200d6
:102984000e089000e60f5000680035008e08900095
:10299400e78f5000810032000e089000e80f5000cd
:1029a4008f003200a30037001e80fb0080007800f7
:1029b4007e009000008040000000e80071002000cc
:1029c400025a20000300200096060700f0a3280006
:1029d400904178001e80fb00800078007e0090000b
:1029e400008040000000e80022c0b300834078006b
:1029f400860707001e40780063404000004f7800bf
:102a04008e0037001e80fb00800078007e0090005e
:102a1400008040000000e800c1032000025a2000aa
:102a2400030020007f06070000a4280090417800de
:102a34001e80fb00800078007e0090000080400033
:102a44000000e80022c0b300834078006f0707004d
:102a54001e40780063404000004f78007700370044
:102a64001e80fb00800078007e0090000080400003
:102a74000000e8008000eb00025a20000300200060
:102a84006806070010a42800904178001e80fb000f
:102a9400800078007e009000008040000000e80084
:102aa40022c0b30083407800580707001e40780016
:102ab40063404000004f78006000370070a4280095
:102ac400904178001e80fb00800078007e0090001a
:102ad400008040000000e80042c0b300834078005a
:102ae4004a0707001e40780065404000004f780008
:102af4005200370080a42800904178001e80fb001b
:102b0400800078007e009000008040000000e80013
:102b140042c0b300834078003c0707001e407800a1
:102b240065404000004f78004400370090a428001e
:102b3400904178001e80fb00800078007e009000a9
:102b4400008040000000e80042c0b30083407800e9
:102b54002e0707001e40780065404000004f7800b3
:102b640036003700a0a42800904178001e80fb00a6
:102b7400800078007e009000008040000000e800a3
:102b840042c0b30083407800200707001e4078004d
:102b940065404000004f7800280037001e80fb008d
:102ba400800078007e009000008040000000e80073
:102bb4008e80e800d50a070090a328009040780092
:102bc4000e80e80072c0b30010070700fc0707007e
:102bd4001e40780065404000004f78001700370021
:102be400b0a42800904178001e80fb00800078008b
:102bf4007e009000008040000000e80042c0b30066
:102c040083407800010707001e80fb0080007800e5
:102c14007e009000008040008000e8006a004700c9
:102c24008e0507001e40780065404000004f780084
:102c34000200370040c6b300004f78009e80fb00be
:102c44007e0090006d004000104078000080fb0082
:102c54006e004000808f500026ff3500de0707001d
:102c640011002000110f9800020037000000eb0053
:102c7400100f98001e0890000080fa000000060063
:102c84009800fa000040eb00004f78000e00e800c6
:102c94000199280095000900315878006009b100b5
:102ca4000040eb007057990050a328009040780032
:102cb400700920000e00400012c0b300ec060700ab
:102cc400700920000e0040008e00e80014c0b3001c
:102cd4008001780042c9b300a0c82200530b07004a
:102ce400004f78001e04e0000c0032001e40780003
:102cf40000c0e900004178008e00e800800d230048
:102d04008f0d07000080fb000000e000030032008c
:102d14000e00e8008040eb0089fa07000080fa000a
:102d2400000006000200fa000040eb00004f7800ab
:102d34000a003700026680001366800000f021005c
:102d4400a1a02f0002004000838048000066880094
:102d54001166880010c0b300004f7800026680003e
:102d640013668000f00f2e00515f2000800f510089
:102d7400818f5900efff3e001e80fb000080fa00a7
:102d8400000006002000fa00300798004107980070
:102d9400520798000040eb0040479800e06580002f
:102da400f1658000008fbe006000b800e065880017
:102db400f165880040a42800904078006400470032
:102dc40012c0b300aa0607004e409000e24f500024
:102dd400020036000040eb00404798001e00be0091
:102de400e00f5000e08f580004003a005e019000ac
:102df4006000b8000089be00770037003e019000f3
:102e0400ce0190001000200001002000800f51002e
:102e1400818f59003e003e000acdbf000004e0004f
:102e2400330032004e4090008080fb0040cc2000f4
:102e340000804000104078000080fb00cf80de005e
:102e44005ef6070002802c00f38a2400ccf607000b
:102e5400400f9800510f98001e00be00e00f500074
:102e6400e08f5800050035001e00be0053f6070031
:102e7400200f9800310f9800150037001e007800cd
:102e8400610160006000b8000300200002007000cf
:102e9400838070001e01be008301d1000281d30033
:102ea400020070008380700044f60700200f980031
:102eb400310f98002e099000be0990002e08900052
:102ec400be0890009cf50700200f9800310f980071
:102ed4002e099000be0990004e089000de08900074
:102ee400f2f50700600f9800710f98000300370097
:102ef4006011b800620f9800730f98005e00900094
:102f04006e099000fe0990000288be00320037006e
:102f14004e4090008080fb0040cc200000804000a8
:102f2400104078000080fb00cf80de0023f607000d
:102f340002802c00f38a240091f60700000f980009
:102f4400110f98001e00be00e00f5000e08f5800e3
:102f5400050035001e00be0018f607006007980043
:102f640071079800150037001e00780061016000a9
:102f74006000b8000300200002007000838070002d
:102f84001e01be008301d1000281d3000200700043
:102f94008380700009f607006007980071079800a5
:102fa4006e019000fe0190006e009000fe00900003
:102fb40061f5070060079800710798006e019000a2
:102fc400fe0190000e0890009e089000b7f50700df
:102fd4005e0190000089be000080fa000000060037
:102fe4004000fa0010079800210798003207980063
:102ff4001e009000ae009000e00f5000e08f5800db
:103004004c0132000040eb00004f780040a428003f
:103014009040780012c0b3000e0078001406070038
:103024001e407800e24f5000020036000040eb00e2
:10303400004f78001e4078008080fb0040cc2000c8
:1030440000804000104078000080fb00701f980052
:103054007e189000ea0f50006800320040062000fd
:10306400fe189000808f5000c10032007e1990003d
:10307400e10f510001003200350137001e009000bd
:10308400ae009000026a28001300200070f60700ca
:10309400501f9800611f98005e1a9000ee1a90006d
:1030a400e00f5200e08f5a00060035005e189000d1
:1030b400ee189000c1f50700301f9800411f9800da
:1030c400160037005e189000610160006000b800cf
:1030d4000300200002007000838070005e1a9000dc
:1030e400ee1a90008501d1000481d3000200700023
:1030f40083807000b1f50700301f9800411f9800cd
:103104003e199000ce1990003e189000ce18900001
:1031140009f50700301f9800411f98003e189000e1
:10312400ce189000d0f507003e0190000089be0043
:103134003e00900064004000201f98001e00900094
:10314400ae009000026a28001300200050f6070029
:10315400001f9800111f98000e1890009e189000f0
:10316400e00f5000e08f5800060035000e18900064
:103174009e18900091f50700601798007117980049
:10318400160037000e189000610160006000b8005e
:103194000300200002007000838070000e1a90006b
:1031a4009e1a90008501d1000481d30002007000b2
:1031b4008380700081f507006017980071179800ec
:1031c4006e119000fe1190006e109000fe109000a1
:1031d400d9f40700601798007117980002002000c6
:1031e400031224006e109000fe1090002ff50700cb
:1031f400ae1a9000808abe00d50037001e009000f1
:10320400ae009000027122000300200010f60700b7
:1032140040179800511798004e109000de1090004f
:10322400e00f5000e08f5800060035004e1090006b
:10323400de10900061f50700201798003117980000
:10324400160037004e109000610160006000b80065
:103254000300200002007000838070004e12900072
:10326400de1290008501d1000481d30002007000b9
:103274008380700051f507002017980031179800db
:103284002e119000be1190002e109000be109000e0
:10329400a9f4070020179800311798002e10900009
:1032a400be10900070f507003e0190000089be003a
:1032b4003e00900064004000101798001e0090002b
:1032c400ae0090000271220003002000f0f5070018
:1032d400700f9800011798007e0890008e109000df
:1032e400e00f5000e08f5800060035007e08900083
:1032f4008e10900031f50700500f9800610f980070
:10330400160037007e089000610160006000b8007c
:103314000300200002007000838070007e0a900089
:103324008e1290008501d1000481d3000200700048
:103334008380700021f50700500f9800610f9800fa
:103344005e099000ee0990005e089000ee0890007f
:1033540079f40700500f9800610f98005e08900000
:10336400ee0890001e1190000089be00780037001e
:103374009e009000a0002000000ab8001e009000eb
:103384006000b90005017800000141002e009000a2
:103394006a00b90000014100820278000271220033
:1033a400030020000400be00a9f50700300f9800b8
:1033b400410f98003e0a9000ce0a9000e00f5200a0
:1033c400e08f5a00060035003e089000ce089000b9
:1033d400faf40700100f9800210f98001600370028
:1033e4003e089000610160006000b8000300200006
:1033f40002007000838070003e0a9000ce0a9000a4
:103404008501d1000481d300020070008380700024
:10341400eaf40700100f9800210f98001e0990008d
:10342400ae0990001e089000ae08900042f4070018
:10343400100f9800210f98001e089000ae0890000d
:1034440009f507003e0190000089be003e0090008f
:1034540064004000000f98009e009000a00020002f
:10346400000ab8001e0090006000b9000501780051
:10347400000141002e0090006a00b90000014100e3
:103484008202780002712200030020000400be00c2
:103494007ff5070060079800710798006e009000a0
:1034a400fe009000e00f5000e08f58000600350049
:1034b4006e009000fe009000c0f4070040079800e2
:1034c40051079800160037006e00900061016000fb
:1034d4006000b800030020000200700083807000c8
:1034e4006e029000fe0290008501d1000481d30099
:1034f4000200700083807000b0f407004007980059
:10350400510798004e019000de0190004e0090009b
:10351400de00900008f40700400798005107980067
:103524004e009000de0090000e0990000089be005d
:10353400070037003e009000640140006000b800be
:103544000089be001200be003e0190000089be004a
:103554000080fa00000006000400fa00881f7800ca
:1035640010079800f8ccbf008080fb00e002200028
:103574000088b900000f78001e009000d8022000d7
:1035840000044400d1c2b3001e009000360b0700b3
:10359400004c7800e20220009e0090001e0078009b
:1035a400ae0c07001200200081cf2000f0ff2100a4
:1035b400aa0c0700f8ccbf000040e800f8ecb70004
:1035c400f8ccbf000080fb000209200011000900b4
:1035d4000280d8008000fd00f8ecb7004f047800aa
:1035e4000080fa00000006005c00fa0000df98008a
:1035f4006000b80040279800512798006000b80088
:1036040060279800712798006000b800002f980088
:10361400112f98006000b800202f9800312f9800d7
:10362400e2c2b3008040eb000e00780045040700be
:10363400bcfd07000080fb000000e0000500320034
:103644000acdbf000004e00002003a0010c0b3003d
:103654000aedb70000668000116680008204200035
:103664000e014100c7fd07004e209000de209000af
:1036740002002000832424004ef407000000e00030
:1036840001003c00030037006000b80040279800a8
:103694005127980000668000116680000205200012
:1036a4000e0141004efe0700c00420000e00400041
:1036b400790a0700e00220000e0040009709070085
:1036c400e10220008e80400072c0b3000e0078003a
:1036d40005040700e00220000e004000e70040005f
:1036e400800420000e004000c1020700e002200018
:1036f4000e004000e70040007300470042c0b300e2
:10370400f9030700e00220000e004000eb00400037
:10371400000520000e004000b5020700e002200072
:103724000e004000ef004000000520000e004000a5
:1037340064004000ae020700e00220000e004000da
:10374400eb0040007700470082c0b300e6030700a7
:10375400e00220000e004000f3004000c0042000fe
:103764000e004000a2020700e00220000e0040000c
:10377400f3004000700220000e00400042c0b3007d
:10378400d90307000ed890000080fb00502f98004a
:103794005e289000e10f50000e0032005e28900079
:1037a400e20f5000120032005e2890000000e0009a
:1037b40001003200140037000040eb00406f980015
:1037c400e10220008e80400010c0b30043040700d3
:1037d4000d00370010c0b300406f9800e1022000d4
:1037e4008e80400020c0b3003c0407000600370070
:1037f40020c0b300406f9800e10220008e8040009a
:1038040020c0b300350407000e00780052ff070003
:103814000080fa00000006000600fa001007980075
:103824002107980050a328009040780012c0b300ec
:103834001e0090000e0407001e0090008000e800a7
:1038440030c0b300804878001e0090008080e800fb
:1038540050c2b300804878001e009000630040000e
:1038640082c0b3008040eb00b60307001e00900046
:103874006b00400042c0b3008040eb00b10307007e
:103884002e009000eb0040001e0090006f004000ee
:1038940082c0b300940307002e009000e7004000ac
:1038a4001e0090007700400042c0b3008e03070062
:1038b4001e0090007b00400042c0b3008040eb003b
:1038c400a00307001e0090007f00400042c0b30028
:1038d4008040eb009b0307001e0090003102200093
:1038e400808040000040eb0080487800deccbf00c0
:1038f400624060000004e000090032001e009000f5
:1039040031022000808040001e0090003002b00090
:10391400104078000044a000804878000900370077
:103924001e00900032022000000141001e009000a1
:103934003002b00090407800f0ceb30000c06000c8
:10394400004978002e009000f30040001e00900013
:103954004002b00042c0b3006303070081c2b30059
:103964001e009000110a0700000f78001e0090004e
:1039740081022000808040001e007800804878008a
:103984001e00900091022000808040001e007800fc
:103994004800de00804878000080fa00000006003d
:1039a4003a00fa00201f98000040eb00004f780016
:1039b4000e00e800a1b52800310009003158780054
:1039c4002003b10041c1b30070cc2000470c0700b4
:1039d40010c0b3000b0307000040eb00007f980009
:1039e40031c0b3009ecf10000200360010c0b300f7
:1039f400007f98001e4fe8008e7890000104e000dc
:103a0400030032000000eb00301f98000e00370066
:103a14008e00e80034c0b300b3cd2000e2c2b3008e
:103a2400a0c82200010807000004e000e5ff3200fe
:103a34008e00e800e2c2b3002e1890002a030700ab
:103a440011002000311f98003e1890000080fa00f9
:103a5400000006003600f800809fbe00829fbe0072
:103a6400849fbe00869fbe003400f8000000200042
:103a7400a00188000000fa000000eb00f40c07002d
:103a8400606780007167800061004000e08048004a
:103a94006067880071678800406780005167800014
:103aa40061004000e080480040678800516788005a
:103ab400206780003167800061004000e08048009a
:103ac40020678800316788002267800033678000a0
:103ad400204080006600500001002000800f51004b
:103ae400818f590006003900dfccbf0064406000bc
:103af4000004e00002003a00df0ca80005e1a80081
:103b0400226780003367800020408000010020008d
:103b1400800f5100818f5900080039006000b800ff
:103b24002067880031678800df4ca900df0ca900fa
:103b340005e1a900840607008760a80042678000a9
:103b4400536780003040800001002000800f510046
:103b5400818f5900040039006000b8004067880074
:103b640051678800de0ca800deccbf006140600015
:103b74000004e00028003a00deccbf006240600090
:103b84000004e00024003a00deccbf007040600076
:103b94000004e00020003a00a0cf20003e09070006
:103ba4005040800061408000d2678000e36780005d
:103bb40000f307000000e00001003c00160037009d
:103bc40008cdbf000004e00003003a00404080003c
:103bd4000000e0000a003200404080000000e000e5
:103be4000d003200626780007367800040408000ef
:103bf40001002000800f5100818f59000600390018
:103c040010c0b30008edb7006000b800606788001a
:103c140071678800de2ca800deccbf006140600024
:103c24000004e00004003a00deccbf006240600003
:103c34000004e00002003200deaca80001003700fe
:103c4400deaca9008bc0a9000080fa003400f900a2
:103c54004f03be004f02be004f01be004f00be0026
:103c64003600f9000040060000a0fe003400f80011
:103c7400881f780008002000a80188004f047800fd
:103c84000000fa00006880000000e8000068880076
:103c94008460a9000080fa003400f9000080fe006e
:103ca4000040060000a0fe003600f800849fbe001d
:103cb400869fbe003400f80004002000a4018800a0
:103cc4000000fa00eefb070011e1a9000000eb0080
:103cd40030088800deeca90084e0a9000080fa0026
:103ce4003400f9004f03be004f02be003600f90055
:103cf4000080fe000040060000a0fe003400f80032
:103d0400881f780008002000a80188004f0478006c
:103d14000000fa00f06780000000e800f067880007
:103d24008500a9000080fa003400f9000080fe003c
:103d34000040060000a0fe003600f800849fbe008c
:103d4400869fbe003400f80004002000a40188000f
:103d54000000fa00deccbf00644060000004e00014
:103d640004003200de4ca900100020001efe0700f3
:103d74000a003700deccbf00684060000004e000a9
:103d840004003200de6ca9002000200016fe0700ab
:103d9400020037000000eb0013fe07008760a90053
:103da400ee0507000080fa003400f9004f03be005e
:103db4004f02be003600f9000080fe0000400600fd
:103dc400809fbe00829fbe00841f7800869fbe0035
:103dd400889fbe003400f80000002000a001880085
:103de4000000fa00cbc2bf00624060000004e000a3
:103df40044003200006680001166800061004000cb
:103e0400e08048000066880011668800dfccbf00af
:103e1400614060000004e0002c003200dfccbf00f1
:103e2400624060000004e000280032000168800065
:103e3400803e20000088b9006104b80000088000ba
:103e44006103b80086007800803e20000009b800b5
:103e54006030b9000302780000024200803e200076
:103e640000b8b9000002420084017800411add0064
:103e74004f10de0000007200cf18de000800400082
:103e8400898048004006b0000180b000e0658800e9
:103e9400f1658800e2658000f3658000f07c200015
:103ea40001002000800f5100818f590004003e0062
:103eb4006000b800e0658800f16588000300370001
:103ec400df4ca800df0ca90005e1a9000000eb000d
:103ed400000888000000eb0000688800dfccbf0009
:103ee400614060006140600000414000f1cd20006d
:103ef40091407800d0cfb30000c060000240700051
:103f0400dfecb7008660a9000080fa003400f900f5
:103f14004f04be004f03be004f0278004f01be00a5
:103f24004f00be00004006003600f800809fbe002f
:103f3400829fbe00849fbe00869fbe003400f800ae
:103f440000002000a00188000200fa000040eb00fd
:103f5400004f78000040eb00004f78000600370067
:103f640022c2bf00614060000004e0000100320092
:103f7400270607001e4fe80030c0b3009e4f100014
:103f8400f7ff36008560a9000080fa003400f900cc
:103f94004f03be004f02be004f01be004f00be00e3
:103fa4003600f900004006003600f800809fbe008d
:103fb400829fbe00849fbe00869fbe003400f8002e
:103fc40000002000a00188000200fa000040eb007d
:103fd400004f78000040eb00004f780006003700e7
:103fe40032c2bf00614060000004e0000100320002
:103ff400260607001e4fe80030c0b3009e4f100095
:10400400f7ff360087c0a9000080fa003400f900e9
:104014004f03be004f02be004f01be004f00be0062
:104024003600f90000400600809fbe000200fa003e
:104034000040eb00004f78000b0037000167800060
:104044001e80fb0000804000104078000080fb00d0
:10405400a011880033c2bf00614060000004e0008a
:10406400fcff32001e4fe800e2ccbf009e4f500020
:104074000400360033c2bf00624060000004e00068
:10408400eeff320087e0a9000080fa004f00be0076
:1040940000400600801f78000000fa0022c2bf0022
:1040a400624060000004e000010032002222a90006
:1040b4008c20a9000080fa004f0078000040060020
:1040c400801f78000000fa0032c2bf006240600026
:1040d4000004e000010032003222a9008c40a90053
:1040e4000080fa004f007800004006003600f80017
:1040f400809fbe00829fbe00849fbe00869fbe003c
:104104000000fa000000eb00510b0700310a070021
:10411400deeca80011c1bf0001c8b300014060007b
:104124000004e00001003a0011e1a8008680a90023
:104134000080fa004f03be004f02be004f01be00d4
:104144004f00be003600f900004006003600f800bb
:10415400809fbe00829fbe00849fbe00869fbe00db
:104164000800fa00a0b9280006000900305f7800b2
:104174007e00b1000e007800e806070090a3280036
:104184009040780072c0b3000e0078009f010700d1
:10419400ba02070080c0bf00644060000004e00071
:1041a400010032008040a90080c0bf006840600068
:1041b4000004e000010032008060a90080c0bf005c
:1041c400704060000004e000010032008080a9001b
:1041d4000000fe000080fa004f03be004f02be0044
:1041e4004f01be004f00be003600f900004006003b
:1041f4000800fa0020079800310798002e0090006c
:10420400000f78000040eb00204798000e003700b4
:104214002e4090000080fb00800078003e0090005b
:10422400808040002e4090000080fb001e001000a3
:104234006300400010407800804878002e409000d1
:104244000040e800204798002e409000e34f5000c3
:10425400efff36000080fa00000006000800fa00b4
:1042640020079800310798002e009000000f780076
:104274000040eb00204798000f0037002e409000cc
:104284000080fb00800078001e0078000081400060
:104294002e4090008080fb003e0090000100500002
:1042a4006300400010407800004978002e409000e0
:1042b4000040e800204798002e409000e34f500053
:1042c400eeff36000080fa00000006000800fa0045
:1042d40020079800310798002e009000000f780006
:1042e4000040eb00204798000e0037002e4090005d
:1042f4000080fb00800078003e0090008080400039
:104304002e4090000080fb001e001000670040005b
:1043140010407800804878002e4090000040e8006b
:10432400204798002e409000e74f5000efff3600e2
:104334000080fa00000006000200fa00004f780036
:104344001e80fb004400de000080fb006f00600064
:104354006a00b900804078001e4078006f40600019
:1043640000c040000080fb000080fa00000006004e
:104374000200fa00004f78001e80fb00a20020001b
:10438400110009000280d8000080fb004400dd0019
:104394008040780000cfb30080c060001e80fb0026
:1043a400a2002000811f7800110009000280d800bb
:1043b4000001780001007800cf0078006f406000b1
:1043c40000c070000080fb000080fa0000000600be
:1043d4000800fa00000f78001107980022079800df
:1043e4001e0090009e0f1000030036000000eb003a
:1043f40030079800080037002e0090009e0f100030
:10440400030031000000eb00300798000200370081
:1044140010002000300798003e0090000080fa0051
:10442400000006000a00fa0010079800220798000e
:1044340033079800410798001e0090001040780050
:104444000080fb00c800dd001e0090000000e800b2
:10445400104078000080fb0000804000000f7800ce
:104464001e0078006101b8002e009000be0090008c
:10447400800f5100818f59000e0036002e009000ed
:10448400be0090004809dd004800de000000710015
:10449400c808de00804078001e00900001487800c3
:1044a4001e0090008000e8002e00900080487800f4
:1044b4000c0037004e0090009e0f100009003100e0
:1044c4004e0090004800de00804078001e009000fe
:1044d400014878001e0090008000e8004e00900023
:1044e400804878000080fa00000006000600fa0008
:1044f40010079800414798000040eb00004f7800f7
:104504001f0037001e80fb00800078001e00900012
:104514000080400090407800114798001e80fb0006
:10452400800078001e009000008140004e40900002
:104534008080fb001e80fb0000805000800078001b
:104544001e009000008040000000e9001040780048
:10455400004978004e4090008080fb001e80fb00e4
:1045640000805000800078001e0090000080400011
:104574000000e9009e409000014878001e4fe800ca
:104584004e4090000080fb000000d1009e4f500080
:10459400dcff3e000080fa00000006000400fa0080
:1045a40020479800080037000000eb00000f780057
:1045b40002003700000000001e0fe800b0a2210036
:1045c4009e0f1000fbff36000040eb0030479800c0
:1045d4002e4090000004e0000200340010c0b3003c
:1045e400304798002e4090000040e9002047980092
:1045f4003e4090000004e000ebff3a000080fa0027
:10460400000006000400fa00204798000800370064
:104614000000eb00000f78000200370000000000eb
:104624001e0fe800b0fd2f009e0f1000fbff3600a8
:104634000040eb00304798002e4090000004e0005a
:104644000200340010c0b300304798002e409000a0
:104654000040e900204798003e4090000004e0003c
:10466400ebff3a000080fa00000006000600fa00a2
:10467400404798000d0037006000b800008fbe006e
:104684000500370000000000100020000100200099
:104694001e0f40005e974800701c29005100200046
:1046a400be0f1000ae8f1800f6ff36008040eb00fe
:1046b400514798004e4090000004e000020034008e
:1046c40010c0b300504798004e4090000040e900ed
:1046d40040479800de4090000104e000e6ff3a0005
:1046e4000080fa00000006000800fa001007980095
:1046f40021079800624798000040eb00004f7800c3
:104704000b0037001e80fb00800078001e00900024
:10471400008140001e80fb00800078002e00900085
:104724000080400010407800004978001e4fe800e7
:104734006e4090009e4f1000f2ff39000080fa0096
:10474400000006000600fa00100798004147980090
:10475400524798000040eb00004f780007003700f4
:104764001e80fb00800078001e0090000080400046
:10477400ce409000014878001e4fe8005e40900053
:104784009e4f1000f6ff39000080fa00000006007a
:104794000a00fa0010079800210798006247980061
:1047a4000040eb00004f7800100037001e80fb0033
:1047b400800078001e0090000080400010417800c6
:1047c4001e80fb00800078002e00900000804000d6
:1047d40010407800804f5100030032000000eb00cd
:1047e40040079800060037001e4fe8006e40900016
:1047f4009e4f1000edff3900100020004007980084
:104804004e0090000080fa00000006000600fa0046
:104814001007980041479800524798000040eb0069
:10482400004f78000d0037004e4090008080fb0060
:104834001e80fb00008140001e80fb008000780089
:104844001e009000008040009040780020c82000a6
:1048540000004100014878001e4fe8005e409000cf
:104864009e4f1000f0ff39000080fa00000006009f
:104874000600fa0010079800414798005247980034
:104884000040eb00004f78000040eb00004f780040
:104894000d0037001e80fb00800078001e00900091
:1048a400008140009e80fb004e4090000080fb0091
:1048b4008080400020c82000008040001040780024
:1048c400004978001e4fe8005e4090009e4f1000a3
:1048d400f0ff39000080fa00000006000800fa002a
:1048e40020479800210798002e4090000080fb008c
:1048f400300798003e009000e10f500004003200a1
:104904003e009000e20f50002300320032003700d6
:104914000040eb00004f78000e00370000c8bf00d5
:104924000081fb009e81fb001e80fb00800078005c
:104934002e00900000804000104278007910b900e9
:1049440083004000e080200000804000044878009c
:104954001e4fe80080c1b3009e4f1000efff3600e9
:1049640000c8bf000040e80000e8b7001040800025
:104974000000e8001040880000c8bf000080fb0071
:1049840082012000110009000280d8008000fd008f
:1049940000e8b700100037000040eb00004f78003b
:1049a4000a0037001e81fb001e80fb008000780097
:1049b4002e009000008040009040780060a6200007
:1049c40000004100014878001e4fe80080c1b30098
:1049d4009e4f1000f3ff36000080fa00000006002e
:1049e4000a00fa00204798002107980062479800bf
:1049f4002e4090000080fb00400798004e0090007d
:104a0400e10f5000040032004e009000e20f50000d
:104a140016003200250037000040eb00004f7800fc
:104a24000e0037001e80fb00800078002e009000ee
:104a3400808140006e4090000080fb001e81fb00de
:104a44007900b90082004000e0802000008040002e
:104a540010407800804978001e4fe80080c1b30000
:104a64009e4f1000efff3600100037000040eb00af
:104a7400004f78000a0037001e80fb008000780099
:104a84002e009000008140009e80fb0060a6200064
:104a94000080400010407800004978001e4fe80074
:104aa40080c1b3009e4f1000f3ff36000080fa006f
:104ab400000006000200fa000040eb00004f7800fe
:104ac400130037000040eb00104798000c0037003b
:104ad4009e80fb001e4090000081fb007908b90015
:104ae40082004000e0802000808040000040eb0015
:104af400804878001e4090000040e800104798006d
:104b04001e409000f84f5000f1ff36001e4fe800a1
:104b140070c1b3009e4f1000eaff36000000eb00a6
:104b2400104088000040eb0000e8b7000080fa0065
:104b3400000006000400fa00e0a4280003000900b5
:104b4400305f78004e00b100c0a428009040780087
:104b540042c0b3000e00780045ff07003e409000bd
:104b64008080fb002e4090000080fb004800dd00a8
:104b7400008040006101b8001e4090000080fb00ee
:104b840001002000c000dd00000020000201400000
:104b9400838148001e4078000080fb000100200053
:104ba400c800dd00000020000200400083804800af
:104bb40000668800116688000080fa000000060084
:104bc4000000fa00c904070095040700c1040700a7
:104bd4000080fa00000006000800fa0020a5280062
:104be40006000900305f78007e00b100b0a4280000
:104bf4009040780022c0b3000e0078001cff07002c
:104c04008e007800a080200094fd0700f0a3280007
:104c14009040780062c0b3000e00780014ff0700d3
:104c24001e4078000080fb00c800dd001e4090009c
:104c34000080fb0000804000204088002e4090004f
:104c44000080fb00c800dd003e4090000080fb00b7
:104c540000804000304088004e4090000080fb00ff
:104c6400c800dd005e4090000080fb000080400032
:104c7400404088000080fa00000006004400fa006a
:104c84006600470091a528003c00090031587800cf
:104c9400d003b1000000eb00000f780050a32800ff
:104ca4009040780066004700a2c3b300f0fe0700fe
:104cb40000cc2000200798000040eb00204798001b
:104cc4000f003700c0a42800104078000080fb00cb
:104cd400e6004700808040002e4090000080fb00ea
:104ce400000178002e009000000041001040780080
:104cf400804878002e4090000040e800204798004b
:104d04002e409000e34f5000eeff3600660047004f
:104d1400a1c3b30025050700000f78001e0078002a
:104d24008040780066004700217898001e007800d3
:104d34004800de0080407800660047003178980023
:104d4400e6004700c2c3b30000f02100c306070019
:104d54000080fa00000006003e00fa0060a9280066
:104d64003c000900305f7800de03b100c2c3b30029
:104d74008e00780000f02100e0060700a2c3b30013
:104d84008e007800800d23006d0507000080fb0075
:104d94000000e0000500320050a328009040780095
:104da400a2c3b3000e00780098fe07000080fa004a
:104db400000006000000fa00c062a900c462a90055
:104dc400c9a2a900e3a4a9000080fa00000006001b
:104dd4000600fa0010079800414798000040eb00d5
:104de400004f780005003700ce4090001e00900070
:104df400d50707005000200002fe07000040eb002a
:104e04005047980020c0b3009e4f100002003e009f
:104e140010c0b300504798001e4fe8005e40900059
:104e24000004e000f0ff3a000080fa0000000600f1
:104e34000a00fa000040eb00004f78000e00e80082
:104e4400b1b0280004000900315878005000b100c6
:104e5400c462a9006000200004fe0700c462a80028
:104e64001000200001fe07000040eb00004f9800f6
:104e740031c0b3009ecf10000200360010c0b30052
:104e8400004f98001e4fe8008e4890000104e00097
:104e940004003200c462a9000000eb00300798004f
:104ea4000a0037008e00e80054c0b30063ad280048
:104eb40022c0b300c0cc2200dc0207000004e000e2
:104ec400e3ff320011002000310798003e009000fb
:104ed4000080fa00000006000a00fa00604798000b
:104ee40000b1280004000900305f78005e00b100c2
:104ef400c1c0b30090ae2800b5ff07006e4090001b
:104f04000080fb00d9fd070030af280034c0b30097
:104f14008001780022c0b3008e007800c0cc22004b
:104f2400c20207008000eb00410798000004e00083
:104f34000200320010002000400798004e0090004c
:104f44000080fa00000006000400fa001007980030
:104f54000040eb00004f78006b010700e3a4a900b8
:104f6400c9a2a8000e0037000060fe00cbc2bf003b
:104f74000042b2000004e0000900320010002000ea
:104f840086fd0700cbc2bf000042b2000004e0006f
:104f94000300320010c0b300004f78000400370053
:104fa400f16780001e009000808f5000eeff3900f2
:104fb4005c010700e3a4a800c9a2a9001e80fb00ad
:104fc4000080fa00000006005200fa00881f7800f2
:104fd40020cf980031cf980042cf98006500470059
:104fe400d1b128003b00090031587800c003b1005a
:104ff4000040eb00404798000040eb003047980029
:105004000040eb00204798000040eb001047980058
:10501400100420000e00400051b1280007000900d0
:10502400315878008000b1000040eb00004f780058
:1050340060a3280090407800100420000e00400077
:1050440082c0b3000afe070030c0b30003edb7000e
:105054004c0707008900370075ff07000080fb003c
:105064000000e00006003a0040c0b30003edb700c2
:105074004c0707000000eb00002f9800a600370043
:105084000040eb0003edb700e1c0b300b0ad280071
:105094004fff07000060fe0010c0b30003edb7002f
:1050a400a0568400a8ff07000080fb000000e00079
:1050b4007000320020c0b30003edb7000040eb00e5
:1050c40030479800130037002ec890000080fb0082
:1050d400e6f407003000200064fd07000040eb0008
:1050e400204798000800370032c2bf0061406000ca
:1050f4000004e00001003200e40107002e409000ab
:105104000040e800204798002e409000e34f5000f4
:10511400f5ff36008040eb0071cf9800be40900050
:105124004ec8900080cf50000200310010c0b30080
:1051340070cf98003e4090000040e800304798004f
:10514400fec890000104e000dfff3a00e5004700dc
:1051540024c0b30093b0280072c3b300c0cc2200b3
:1051640032020700104798001e4090000004e0003f
:105174003d0032001e4090000080fb008080e9006a
:1051840065004700614478001e4090000080fb00e9
:105194000080e90080007800650047004a040700a9
:1051a400804f54002d003a00650047000080e8005d
:1051b400110420008e80400082c0b30083040700e5
:1051c4000080fb000000e000210032006500470081
:1051d400a7f507000000e0000300320080c0b30020
:1051e40060cf98000200370091c0b30061cf9800ef
:1051f4006ec8900003edb700deccbf0070406000c5
:105204000004e000020032001000200017fd070037
:1052140020678000316780004067880051678800fc
:105224002ec890000004e00001003a0021fe0700af
:10523400404080000000e000020032000040eb002b
:1052440008edb70010c0b300004f78001900370014
:10525400c0c0b30003edb70008003700b0c0b3000e
:1052640003edb70005003700a0c0b30003edb7009d
:105274000200370060c0b30003edb7008040eb00cc
:1052840051cf9800ce4090003ec8900080cf50008f
:105294000200310010c0b30050cf98004e4090007f
:1052a4000040e80040479800dec890000104e00098
:1052b40069ff3a001e80fb000000e00009003a008c
:1052c4004e4090000080fb008000e9003ec8900042
:1052d4000080fb00808f50000200340050c0b300f7
:1052e40003edb70050c0b300fbfe07000080fb00d5
:1052f4000000e00002003a0070c0b30003edb70004
:10530400a8060700c462a90010c1b30003edb700ea
:105314001e80fb00002f98000e2890004f04780098
:105324000080fa00000006000000fa0005e1a80071
:1053340005a1a9004110200091407800f0ccb300f1
:1053440000c0600004e1b7000421a800511020004f
:1053540091407800c0cfb30000c0600005e1b70001
:1053640004c1a9000000280010088800510a200088
:1053740091407800f0c8b30000c0600001c6b300db
:1053840001407000a5e0b7008460a9009460a80003
:105394000000eb000008880005e1a9000080fa0085
:1053a400000006000000fa0011e1a80011a1a90004
:1053b4000111200091407800f0ccb30000c06000df
:1053c40001c2b3000140700010e1b7001021a90030
:1053d40010c1a9001061a900400d230060088800d5
:1053e400710a200091407800f0c8b30000c060004a
:1053f40001c2b30001407000a7e0b70084e0a90037
:1054040094e0a80011e1a9000080fa000000060061
:105414000000fa0013e1a80013a1a8002111200044
:1054240091407800f0ccb30000c0600012e1b700f6
:105434001221a90012c1a90000c429007008880023
:10544400810a20009140780080cfb30000c0600042
:105454000004a000a8e0b7008500a9009500a800fa
:105464000000eb005008880013e1a9000080fa0056
:10547400000006000000fa001fe1a8001fa1a80018
:10548400e111200091407800f0ccb30000c060002e
:105494001ee1b7001e21a9001ec1a9001e61a900ba
:1054a400d0072000d0088800110b2000914078001c
:1054b400f0c8b30000c0600001c3b3000140700035
:1054c400b1e0b7008760a9009760a9000000eb0075
:1054d400a00888001fe1a9000080fa00000006006f
:1054e4000000fa0011e1a80094e0a8000080fa008e
:1054f400000006000000fa0094e0a90011e1a900f0
:105504000080fa00000006000000fa000000eb0032
:10551400f06788009500a80013e1a8000080fa0055
:10552400000006000000fa009500a90013e1a9009c
:105534000000eb00f06788000000eb0050088800d2
:105544000080fa00000006000000fa009760a8003e
:105554001fe1a8000080fa00000006000000fa0025
:105564009760a9001fe1a9000000eb00a0088800d3
:105574000080fa00000006000400fa00000f780022
:10558400f06780008000eb00110798009e0f500028
:105594000200360010002000100798001e00900042
:1055a4000080fa00000006001e00fa00500f980068
:1055b400610f98005e0890000000e8001040780039
:1055c4000080fb005cfb0700410620008080400057
:1055d40068004700510098005e0890000080e800d1
:1055e400104078000080fb0053fb07008000e900b6
:1055f40068004700410098005e0890006300400086
:10560400104078000080fb004bfb0700800078000e
:1056140068004700310098005e0890006400400074
:10562400104078000080fb0043fb070080007800f6
:1056340068004700210098005e0890006500400063
:10564400104078000080fb003bfb070080007800de
:1056540068004700110098005e0890006600400052
:10566400104078000080fb0033fb070080007800c6
:105674006800470001087800e80047000000eb00dc
:1056840080089800e80047000000eb00e000980064
:10569400e80047000000eb00f000980068004700b5
:1056a40064ee07002007980031079800640f470054
:1056b4000040eb00204798000f0037002e40900078
:1056c4000080fb00800078006e089000008140009c
:1056d4002e4090000080fb00800078001e007800bf
:1056e4000080400010407800004978002e4090006f
:1056f4000040e800204798002e409000e34f5000ff
:10570400eeff36000080fa00000006000a00fa00ee
:10571400881f780030079800410798000e80e80041
:1057240042002000be009000effb07000e80e8005e
:1057340057ed0700000f78001e007800500090001d
:1057440042062000110009000200d8007300400046
:1057540007fb0700804078004e0090000148780065
:105764004e0090000004e8001e00780050009000f5
:1057740042062000110009000200d8008000fd004c
:10578400fbfa0700004c78004e0090000084e8000b
:105794001e007800400090000000e800f4fa0700c2
:1057a400004c78004e009000630440001e00780016
:1057b40030009000eefa0700004c78004e00900094
:1057c400640440001e00780020009000e8fa0700fe
:1057d400004c78004e009000650440001e007800e4
:1057e40010009000e2fa0700004c78004e00900090
:1057f400660440001e00780010007800dcfa070000
:10580400004c78004f0478000080fa000000060085
:105814000200fa0080cabf008080fb0081cabf007a
:105824000080fb000000e900808f500003003a0074
:1058340030118000004f78001200370080cabf008a
:105844000081fb00301180008040780020a82000f7
:10585400000041000148780080cabf000040e80011
:1058640080eab70080cabf008040780080cabf00c9
:105874000080fb004880de004800dd0000c05000ce
:1058840080eab7000080fa00000006000200fa0077
:105894000040eb00004f780006cdbf008080fb0085
:1058a40007cdbf000080fb000000e900808f50009e
:1058b40003003a00b0118000004f78001200370056
:1058c40006cdbf000081fb00b0118000804078004d
:1058d40020b82000000041000148780006cdbf0038
:1058e4000040e80006edb70006cdbf008040780018
:1058f40006cdbf000080fb004880de004800dd00cc
:1059040000c0500006edb7000080fa000000060059
:105914000400fa00000f780011a8200091407800dc
:1059240080cabf0080cf500003003a000000eb00a3
:10593400100798001400370081cabf008080fb0064
:1059440020a8200000804000904078001e007800cd
:105954000148780081cabf000040e80081eab7002e
:1059640081cabf008040780081cabf000080fb006c
:105974004880de004800dd0000c0500081eab70026
:1059840010002000100798001e0090000080fa000c
:10599400000006000400fa00000f780071d0200017
:1059a4009140780006cdbf0080cf500008003a0037
:1059b40032c2bf00624060000004e0000100320017
:1059c4003222a9000000eb001007980014003700f1
:1059d40007cdbf008080fb0020b82000008040007d
:1059e400904078001e0078000148780007cdbf0081
:1059f4000040e80007edb70007cdbf008040780005
:105a040007cdbf000080fb004880de004800dd00b9
:105a140000c0500007edb7001000200010079800e8
:105a24001e0090000080fa00000006001800fa0032
:105a340070079800010f980022579800230f9800d0
:105a4400645798000040eb00204798000040eb00aa
:105a5400104798000040eb00004f78000040eb0036
:105a640030479800230037002e08900090407800bb
:105a74003e40900080cf50001e003a003e4090000f
:105a8400e40047008048780010c0b3001047980035
:105a94000a0037001e4090000080fb008000780060
:105aa4006400470001004000fe0090000100010076
:105ab4001e4090000040e800104798009e4090006f
:105ac4006e50900080cf5000f2ff39006e5090006d
:105ad4000081fb00e40047002e0890002cfb070027
:105ae4000000e0000300320010c0b300204798001b
:105af4000600370063004700fe009000010001002b
:105b04000080fb000000e000d7ff3a002e40900028
:105b14000080fb000000e0002b0032006e5090007b
:105b2400004f78000040eb00104798000e0037004b
:105b34001e4090000080fb00800078000e0890005a
:105b4400008140001e4090008080fb0064004700fc
:105b54000080400010407800004978001e4090000a
:105b64000040e800104798009e4090006e5090005e
:105b740080cf5000eeff39006e509000104798001f
:105b84000d0037001e80fb00800078000e08900096
:105b9400008040001e4fe800fe009000010001005c
:105ba4000080fb000000e000070032001e4090006f
:105bb4000040e800104798009e4090002e5090004e
:105bc40080cf5000efff39001e80fb000080fa00f8
:105bd400000006000800fa00c0b82800060009000a
:105be400305f78007e00b10090a3280090407800d8
:105bf40072c0b3000e0078001dfb0700871f7800f9
:105c0400881f78000500fc0057052000373b8800fa
:105c1400a80a2000383b880027a6a8004f04780073
:105c2400cf03780027c6bf003040b30027e6b70093
:105c34001e4090000080fb00203188002e40900020
:105c44000080fb00c800dd003e4090000080fb00a7
