:020000040000fa
:080000000002040000000000f2
:020000040000fa
:100400002fda20000eff20000e01880000000000ff
:100410000c00070020292300010020001100070024
:10042000000020000000e000020032000000020096
:10043000000000002a300200000000000040da0046
:100440000000fe004440a900401e20000000e00023
:100450000300320000002000a00188004440a800f2
:100460000000060091018800800078000000eb0089
:1004700015003700e280400032a0b4009101ba00bc
:10048000e280400032a0b4009102ba00e280400055
:1004900032a0b4000002eb00472bde00f507b200eb
:1004a000602ce10004003a000059eb008301e900f0
:1004b000fdff3e00040037006128e100010032002a
:1004c0000082eb00040007001101ba000200e00006
:1004d000e8ff3a00000006003159ba008301e90044
:1004e0000c0032002159ba008301e90008003200f3
:1004f0000400e00003003a00e280400032a0b400b3
:10050000f5ff370011d9ba008301e900faff3a007c
:100510008100e800e180400032a0b4000000060045
:1005200000000000000000000000000000000000cb
:10053000000000000000000003f0a200889fbe0041
:100540008a9fbe008c1f7800ee000700f500330084
:100550006450e1004f0032006420e100520032009c
:1005600003826c0007003b000905d0000306d000a1
:10057000820f54000c065d000200390002003200b8
:1005800089017800030678008582550004003d004b
:100590000003fd008103fd008502ea008b85420017
:1005a000840f720002003b0060001000e080180021
:1005b0006011b8000005eb007a28e1000a0039005c
:1005c00006007800c75ddd00f707b2008780750080
:1005d0002d003700828171000a01780061056000fa
:1005e0008180d1000080d3008502e900f9ff3b0043
:1005f000060440008784480002003b0060041400a9
:10060000e0841c000988a300070032008a81710081
:1006100082817100610164008904d1000884d300e3
:100620008b05e800170037000978a30013003a0093
:100630000b00e000130034008b05e90008044400bf
:1006400089844c000a4474000978a3000d003a0024
:100650000b00e000070034008b05e90008044400ab
:1006600089844c0001003a000b0020000978a300a7
:10067000f7ff32000001eb000200370082817100b9
:100680000a017800790007000cf0a70001f0a00033
:10069000ad0037006420e10002003a00838f6c0057
:1006a000ad0033000801be000200be00a600370006
:1006b000889fbe008a9fbe008c1f780091000700b3
:1006c0009800330003866c006450e1002e00320075
:1006d0006420e100330032006150e1002f0032005d
:1006e0006120e1003100320085855500eb07b00044
:1006f0000900200008042000050037000804440019
:1007000089844c000a0031000603430087834b00b4
:100710000001530081815b00f8ff33000203be003b
:100720000800a0000804440089844c00f6ff39004a
:10073000c639dd0083017300010032001300200080
:100740008904d1000884d3000998a3000500320071
:100750000800a7000300a0008904d1000884d3008a
:100760008b05e8008904d1000884d3000001eb0068
:100770000281d2003d00070001f0a1000cf0a700ab
:1007800001f0a000700037006420e1007200320028
:100790000801be000200be00f7ff37006120e10043
:1007a0006d0032006000b800f3ff37000000200049
:1007b00001f82700f0ff3700f4ff2f001602370082
:1007c000889fbe008a9fbe00010578000100e000fe
:1007d0000400350008003c000000e000200032006a
:1007e0000500370060001000e080180002003b00a8
:1007f00001f02c001a0037000004be006011b800a0
:100800006b0920000982cf00020039000882cf0066
:100810000441b000694252000e00320008003b0063
:1008200082817100610164008904d1000884d300d1
:100830008b05e8000442e800f9ff3a0005003700a4
:100840000804440089844c008b05e9000442e90057
:10085000fbff3a00050007000af0a70001f0a00026
:100860004f05be004f04be000000060081002000be
:10087000618055000b003d000b00200061fe2f0041
:100880000100e1001d0034008281710061016400fb
:100890008904d1000884d3000000e800faff3a0080
:1008a000710020006100640003007000020060001d
:1008b0000900320061044400e0844c000988a5006e
:1008c000050032008b05e8006808e10002003a00ec
:1008d0008904d1000884d300f20f20000258e100ff
:1008e00005003d00c75ddd00f907b2008980750095
:1008f00008007800000006000bf827008b00780045
:10090000000005000004be00010207000003be0055
:100910000405be000200be00fd010700844f750003
:10092000000006000200be006450e1000500360031
:100930006420e100020036000968a30001003a00cb
:100940000800be000160a0004f0678004f05be0001
:100950004f04be0000000600f0ff2f00f1ff27004b
:10096000f9ff3700889fbe008a9fbe008c1f780069
:10097000e4ff0700ebff330003866c006450e100e6
:10098000240032006420e100270032006150e100c1
:10099000220032006120e100210032008b854200fc
:1009a000eb07b1000134b800003ab8000804420077
:1009b00089844a00013ab8000030b80088804000bd
:1009c00009014a0004003300000040008180480013
:1009d000020149008b05e900c909dd0083017000af
:1009e0000100320013002000c814de004814dd00ae
:1009f0004709de001200b200c808de00088470005b
:100a00009aff070001f0a1000cf0a70001f0a00080
:100a1000cdff37006120e100cfff32000801be00aa
:100a20000200be00f7ff37006150e100fcff3a0012
:100a3000c9ff37000c00fa00889fbe008a9fbe00e5
:100a40008c9fbe00afff07000206be008405780041
:100a50000200be00020020004801070005003a0025
:100a60008b02b300120020004401070001003a008d
:100a7000f8856d000c01be00c60007000800be002e
:100a80009b0032000b08a3009e003a000df0a70067
:100a90000be0a00009f0a7000bf0a00009f0a100f6
:100aa0000801be00bb0007000bf0a6009500320055
:100ab00001003c000bd0a0008acf7500b2003300cb
:100ac0006000b8006250e10099003900a1003e00ca
:100ad0000b28a300a2003a000bf8a3000600320086
:100ae0000b58a300a70032000801be00a9000700b0
:100af0000800be00940032000800be00b0000700ed
:100b00000004be00050578000bf0a7000b30a6001e
:100b10000bf0a1005b079800324f200053f3230035
:100b20005801070005003d000800be00120020002b
:100b30008c0107000004be000a05e9004a0798007e
:100b40006150b9001eff0700008fbe000c01be00ff
:100b500084ff07004d010700300798000100e00006
:100b600002003d0060001000e0801800f2ff270046
:100b7000820f5000e08f580064003e000c00be0061
:100b80004201070020079800f2072000820f500062
:100b9000e08f580005003c0012f82f00f3ff2f00f3
:100ba000820f5000838f580009003d000a00e000ca
:100bb0000300320001003c000201ea000205780057
:100bc0006000b800200798003a0798001900370025
:100bd0003e0090006100b900f9fe0700809fbe0052
:100be0000c00be004109dd004811de007208b100b2
:100bf000e20007000005be001e01be0059ff07000d
:100c00004f01be004cfe0700809fbe000c00be00de
:100c10000a01be0048fe07001e01be0051ff07008a
:100c20004f01be0045fe07008221270013f3230079
:100c30004cff07000005be002e0090006100b900c7
:100c4000dffe070001f0a2000c01be003bfe070022
:100c50000006be000800be00640107000c01be00d3
:100c600040ff07000a01be0034fe0700809fbe005f
:100c70004a0007002e0590000af0a7000a05ea00c6
:100c8000050037000800be000801be0035ff070060
:100c90000004be000c00be000801be000a00a70050
:100ca00030ff07000006be000a05d100f5ff3a003c
:100cb0005e01900002e0a600030037000001be00c4
:100cc000360007007afe07000004be004f00be0099
:100cd000480007000801be0022ff07003e01900007
:100ce00020010700de0590000bf0a70001f0a20034
:100cf0004f06be004f05be004f04be000080fa0044
:100d00000000060025000700f9ff37002700070054
:100d10006000b8000bd0a7000bc0a0000be0a7003c
:100d20000bc0a2000bc0a70001f82700f0ff37009e
:100d30000df8a300020032001e0007001900070092
:100d40000bf8a300eaff32000b30a70001f0a2006d
:100d5000e7ff37000df8a300f9ff3a00f7ff37006f
:100d60000801be000b000700e6ff320001003c0056
:100d70000df0a2006000b8000df0a7000900070008
:100d8000dbff37000b000700f1ff2700f0ff2f000b
:100d9000d7ff370001000700ba00370001f8230031
:100da0000000050001f827000000050020022000d7
:100db0000100370010022000406988000000060092
:100dc0000003be00d20007006220e10002003200f2
:100dd0000600be0005000500e507b100f107b200fe
:100de00004f023008480700007f0a70001f0a00049
:100df00024000500889fbe008a9fbe008c9fbe0015
:100e00000004be00c20007000800be006420e1002c
:100e100048003e005500320072212700132b2400a9
:100e200065fe070047003c000800be00c2ec280039
:100e3000e32c2c0093000700470035000800be009b
:100e400001f0a10002002000033823008d000700fc
:100e5000430035000800be00b2a32a0083fb230034
:100e6000c0fe07000200200003f0230001f0a700ed
:100e700003f0a000b1fd0700840007000005be00dc
:100e80004ffe070001f0a2000006be00020028008d
:100e900013f32300b3fe07000801be00a7fd0700ff
:100ea000809fbe000c00be0032082800e3952b0096
:100eb000acfe07004f01be00a0fd07000006be000b
:100ec0000001be00a7fe0700809fbe004241250032
:100ed00083b82300a3fe07000200200003e82300dc
:100ee00096fd07000c01be009efe07000006be0036
:100ef0004f00be00f2f92b00c3d4230099fe070077
:100f00000200200003f023008cfd07000c01be004e
:100f100089fd07000001be000c00be00e4fd0700d3
:100f20000200200003f0230084fd0700610145005a
:100f30008c0007004f06be004f05be004f04be00e8
:100f40000000060001f82700000020002202200017
:100f500042698800f7ff37006000b800fbff3700e8
:100f600001f8230000002000f2ff370009f8a30079
:100f7000f0ff32006000b800eeff3700889fbe002f
:100f80008a9fbe000003be0061000700850578004f
:100f900082815200020020006220e10004003a0039
:100fa000f307b100040035007718e10004003500b4
:100fb0000600be00140037006000b8000f003700c4
:100fc000f50f2000faff2f008502d1000a85d3001b
:100fd0008301e900fcff3b0081846200000465009e
:100fe000890f7400f2ff32008582ea000a85ea0068
:100ff00081846200000465001cfe070007f0a70062
:1010000001f0a0000081eb000200e0004f05be00ef
:101010004f04be0000000600889fbe008a9fbe00ed
:10102000841f780037fe07004f007800110033005e
:10103000f0ff2f00838f6c0006003b000405650065
:101040000a00a7000800370009f0a60010002000e1
:1010500008003700820f5400838f5c0003003900c2
:101060001000200001003e000000200009f0a70051
:101070000000ea004f05be004f04be000000e00083
:101080000000060014002000e3ff37000001be004e
:101090001f0007000470a70003f0a1006509b1005c
:1010a000160032000d0035006828e100060035000a
:1010b000f0ff2f00f1ff27000300e00013003b00ca
:1010c0000100280000000500000040008180480069
:1010d0008502e900fcff3a0008003700f88f420063
:1010e00002003c008000eb00000005008100d10000
:1010f0000080d3008502e800fcff3a000300e00016
:1011000002003b0060001000e080180000000600b4
:10111000c70ade00f107b200f50fb2000800320086
:10112000e1cf4200020032000170a000240005005f
:10113000810f700001003200040805004400050022
:10114000810f700002003a00140005008502e900da
:101150000000400081c04800fcff3b000170a0007f
:10116000240005000003be00e9ff07006220e10043
:10117000020032000600be000000060085024100a9
:10118000e30f20000328e10005003c00a3fe2f0030
:101190000328e10007003d000500200001003700a2
:1011a000f50f200020022000406988006000b80090
:1011b00008003700130020008381520005003d0025
:1011c0008100d1000080d3008301e800fcff3a00d9
:1011d00005002000c72add00f107b20085807000fd
:1011e00007f0a70001f0a00000000600889fbe00e5
:1011f0008a9fbe008c9fbe00f1fe07008504780028
:101200000005be006420e10049003e006220e100cc
:1012100003003200090035000bf8a300440032003f
:101220000bf8a3000800320010022000406988007b
:10123000f0ff2f00f1ff27003d00370001f82f00dd
:10124000000020003a0037003d000700bafc07000c
:101250000006be000a00be00324f200053f32300f8
:1012600055fd0700060034000c00be0034000700e6
:10127000b1fc07000006be000a00be0002003700f5
:101280008904e9000c00be002d000700b5fd070031
:101290002b000700a9fc07000001be000c00be00e7
:1012a00003fd07000005be000001be00adfd070004
:1012b0000006be00a2f32300430d2c009ffc070094
:1012c000809fbe000c00be00d2e32700d3f02b00ad
:1012d000a4fd07004f01be00f5fc07000006be009c
:1012e0000a01be009ffd07000a01be0093fc070033
:1012f0000006be006148b90031fd07000005be00d0
:1013000032082800e3952b0096fd07000c01be0073
:101310008afc07000006be000a00be00020028008a
:1013200013f323008ffd07000c01be0083fc0700b0
:101330004f06be004f05be004f04be000000060071
:1013400003f02300020005000002780082427800ca
:10135000034878008100fb00a20020001100090072
:101360008200d8008000fd000043b00070fa9f00aa
:10137000014078000104e000030032000043b000a7
:1013800060fa9f000000060065fa9f00000006005a
:1013900080007800630060000f003a0042062000e1
:1013a000811f7800110009008280d80001007800b8
:1013b000cf0078000000e00008003a00c0122000d2
:1013c0000100400002192000110009000280d8002d
:1013d0000100e00001003200d0160500e016050013
:1013e000889fbe008a1f78008c9fbe001004be003c
:1013f000c2032000030020000800be0034010700e3
:10140000306b8800c2032000030020000800be00eb
:10141000200107000004be00c203200003002000da
:101420002b010700406b8800c2032000030020004e
:101430000800be00170107000006be008201200060
:101440000300200022010700506b88008201200069
:10145000030020000c00be000e010700606b880036
:101460006400400072002000110009000200d80052
:1014700001017800926b88006004200004003700ae
:1014800000005500606b880000d720001000e800c5
:10149000806b88006a6b8000806b8000bcff070057
:1014a000800f5500f6ff3d006200600001f02f0044
:1014b0000104660000047400aa6b8800e0d62000d6
:1014c0000008eb008002780064d920000800370093
:1014d00002805100606b88001500e800706b880086
:1014e0000880fb000000d100088460000004740044
:1014f000636b8000706b800064407800084070006f
:101500000081fb004810dd00f80fb20000047400f9
:10151000828f5100eeff3d000300e800606b880001
:1015200060d620004f06be004f0578004f04be0075
:10153000000006000400fa00a26c8000c103200035
:101540000191b90030021100a0821900e4bf9f0090
:10155000f5bf9f0064805700a1ff07000080fa00dc
:1015600000000600889fbe008a9fbe0080047800ad
:10157000600090006300b900a2d220000001410089
:101580008bd72000924d780090d720009240900099
:1015900001487800a0d7200022419000024878003e
:1015a0000ac2b300b0d720000a4878004900900072
:1015b0006300b90002d4200000014100c0d7200020
:1015c00012487800d0d7200092409000014878005f
:1015d000e0d720002241900002487800f0d7200098
:1015e0000a487800b90090008a4178000a417800e2
:1015f00020d8200054ff0700a9009000a3c3b30027
:1016000002c3b30050d820004fff0700990090009c
:10161000a3c3b30002c3b30080d820004aff070071
:10162000990078008a41780002c3b300b0d8200046
:1016300045ff0700d900900048062000110009006e
:101640008800d8008000fd00f3c040008041eb001e
:101650000a417800e0d820003bff070059009000c5
:10166000110009000800d800a3c0b30002c3b300f2
:1016700000d9200034ff07000b0078004f05be00a2
:101680004f04be0000000600aaff0700b5ff3700a8
:1016900080017800d01620000018b800421ade0041
:1016a00004024000e08248004206200011000900c8
:1016b0008281d8000001780002025200e0825a00c4
:1016c00002192000110009008281d8008000fd006d
:1016d00001004200e0804a0000000600889fbe0032
:1016e000000378000102e80010bf200000a2b9004a
:1016f00010442f000400400044062000811f7800a1
:10170000110009000480d800cf00780000014100da
:101710006114b800e18f5000140036000219200057
:10172000110009000283d800010078000000e000e9
:10173000070032006300630008003a00110009004e
:101740000483d8008000fd000000e00003003200a8
:1017500010002000010020000200370020002000bf
:10176000010020000004540081845c000600e900b0
:10177000c7ff070008004000898048004f04be00f2
:1017800000000600889fbe008a9fbe008c9fbe009e
:1017900000067800d0069000a0fb2f0000804600d5
:1017a0000081eb008081eb0021032000810f5000bd
:1017b00033003e00120020008000eb00207b200060
:1017c000c6ff07000005be00c0762000008046006e
:1017d0003c019000cc009000c0ff07000004be0058
:1017e0000a0550008b85580072002000030020007d
:1017f0000a00be003600070064004000e080480098
:1018000072002000030020003100070060069800ed
:10181000b0762000008046009dff070000045400c1
:101820000804e900780698008201200003002000e7
:101830000a00be00480007002c019000cf91de0096
:101840000000410081804900c20320000300200005
:10185000410007001c019000cf91de000000410014
:1018600081804900c2032000030020003a000700e5
:101870001c017800cf91de00000141008181490008
:101880000200be004f06be004f05be004f04be0062
:1018900000000600839f68000100e00002003d0098
:1018a00060001000e08018000300e00002003d002e
:1018b00060011100e0811900140007004f00e000f2
:1018c00002003b0060001000e080180000000600ed
:1018d000811f78000100e00002003d006000100060
:1018e000e08018000300e00002003d0060011100ec
:1018f000e0811900150007004f00e00002003b00e6
:1019000060001000e0801800000006006022b800af
:10191000060220000000d0008180d2000482d200a4
:101920008582d2000000a0000202520083825a0089
:10193000030031000202420083824a000000a1003d
:101940000603e900f3ff3a0000000600efff07007e
:101950000400be0000000600020ab900001bb90026
:101960000200b80081004200810043000000060030
:020000040000fa
:100008003e2600003e2600003e2600003e26000058
:100018003e2600003e2600003e2600003e26000048
:100028003e2600003e2600003e2600003e26000038
:100038003e2600003e2600003e2600009c240000cc
:10004800ce2400003e2600003e2600003625000093
:100058003e2600003e2600003e2600003e26000008
:100068003e2600003e2600003e2600003e260000f8
:10007800182600003e2600003e2600003e2600000e
:100088003e2600003e2600003e260000ec2400002c
:100098003e2600003e26000076250000b62500001a
:1000a8003e2600003e2600003e2600003e260000b8
:1000b8003e2600003e2600003e2600003e260000a8
:1000c8003e2600003e2600003e2600003e26000098
:1000d8003e2600003e2600003e2600003e26000088
:1000e8003e2600003e2600003e2600003e26000078
:1000f8003e2600003e2600003e2600003e26000068
:100108003e2600003e2600003e2600003e26000057
:100118003e2600003e260000c82300003e260000c0
:100128003e260000ec250000022600003e260000c6
:100138003e2600003e2600003e2600003e26000027
:100148003e2600003e2600003e2600003e26000017
:100158003e2600003e2600003e2600003e26000007
:100168003e2600003e2600003e2600003e260000f7
:100178003e2600003e2600003e2600003e260000e7
:100188003e2600003e2600003e2600003e260000d7
:100198003e2600003e2600003e2600003e260000c7
:1001a8003e2600003e2600003e2600003e260000b7
:1001b8003e2600003e2600003e2600003e260000a7
:1001c8003e2600003e2600003e2600003e26000097
:1001d8003e2600003e2600003e2600003e26000087
:1001e8003e2600003e2600003e2600003e26000077
:0801f8003e2600003e26000037
:020000040000fa
:100208003e2600003e2600003e2600003e26000056
:100218003e2600003e2600003e2600003e26000046
:100228003e2600003e2600003e2600003e26000036
:100238003e2600003e2600003e2600009c240000ca
:10024800ce2400003e2600003e2600003625000091
:100258003e2600003e2600003e2600003e26000006
:100268003e2600003e2600003e2600003e260000f6
:10027800182600003e2600003e2600003e2600000c
:100288003e2600003e2600003e260000ec2400002a
:100298003e2600003e26000076250000b625000018
:1002a8003e2600003e2600003e2600003e260000b6
:1002b8003e2600003e2600003e2600003e260000a6
:1002c8003e2600003e2600003e2600003e26000096
:1002d8003e2600003e2600003e2600003e26000086
:1002e8003e2600003e2600003e2600003e26000076
:1002f8003e2600003e2600003e2600003e26000066
:100308003e2600003e2600003e2600003e26000055
:100318003e2600003e260000c82300003e260000be
:100328003e260000ec250000022600003e260000c4
:100338003e2600003e2600003e2600003e26000025
:100348003e2600003e2600003e2600003e26000015
:100358003e2600003e2600003e2600003e26000005
:100368003e2600003e2600003e2600003e260000f5
:100378003e2600003e2600003e2600003e260000e5
:100388003e2600003e2600003e2600003e260000d5
:100398003e2600003e2600003e2600003e260000c5
:1003a8003e2600003e2600003e2600003e260000b5
:1003b8003e2600003e2600003e2600003e260000a5
:1003c8003e2600003e2600003e2600003e26000095
:1003d8003e2600003e2600003e2600003e26000085
:1003e8003e2600003e2600003e2600003e26000075
:0803f8003e2600003e26000035
:020000040000fa
:0200000401f009
:040000000f000000ed
:020000040000fa
:0200000401f009
:0400080003000000f1
:020000040000fa
:0200000401f009
:04000c006000000090
:020000040000fa
:0200000401f009
:0400100033000000b9
:020000040000fa
:0200000401f009
:04001400ff000000e9
:020000040000fa
:0200000401f009
:04001800fc000000e8
:020000040000fa
:0200000401f009
:04001c00820000005e
:020000040000fa
:0200000401f009
:040020001f000000bd
:020000040000fa
:101970000000000000000000000000000000000067
:101980000000000000000000000000000000000057
:101990000000000000000000000000000000000047
:1019a0000000000000000000000000000000000037
:101be00000000000581b0000524500004144000066
:101bf000592b000054550000524f00004e47000082
:101c000020470000504f00004e0d00000a2b00003e
:101c100054550000524f00004e470000204700007e
:101c2000504f0000464600002b5400005552000063
:101c30004f4e000047200000544500005354000060
:101c4000523000002b520000454300005741000075
:101c50003200000000000000000000000000000052
:101c60000000000000000000000000000000000074
:101c70000000000000000000000000000000000064
:101c80000000000000000000000000000000000054
:101c90000000000000000000000000000000000044
:101ca0000000000000000000000000000000000034
:101cb0000000000000000000000000000000000024
:101cc0000000000000000000000000000000000014
:101cd0000000000000000000000000000000000004
:101ce000312e0000302e00003100000001090000fc
:101cf0000a1000001213000014150000161700004f
:101d0000191b00001d1e00001f20000021220000e2
:101d1000262a00002e320000363a000000000000a3
:101d200000000000000000000000000000000000b3
:081d30000000000000000000ab
:020000040000fa
:101d38005a00fa00202f980061d798000000eb00a5
:101d4800300798000040eb00504798000040eb0037
:101d5800404798000040eb00304798002e2890003c
:101d68000000e800104078000080fb00402f980039
:101d780000022000ce289000808f50000d01320014
:101d880000022000ce289000808f50000a003c00fe
:101d98004e289000e40f500045003200ce289000f5
:101da800f08f50009d0032004e289000e30f500045
:101db800120032009a01370020022000ce2890003d
:101dc800808f50004f01320020022000ce28900062
:101dd800808f50002001350060022000ce2890003e
:101de800808f50005d01320030042000ce28900022
:101df800808f500057013200890137002e2890004b
:101e08000080e80090407800514798002e28900004
:101e18006300400090407800414798005e40900081
:101e2800e14f400003003a0014cdbf00504798002e
:101e38000d0037005e4090000080fb000001eb00c1
:101e4800f10820006f0707000080fb000000e00099
:101e580005003a006ed1900021c0b30030c0b30035
:101e6800e2020700740137004e4090000080fb003a
:101e78001200200001092000620707000080fb0013
:101e88000000e00005003a006ed1900031c0b300b8
:101e980030c0b300d5020700670137004e419000fb
:101ea800de4090006ed090006601070062013700a6
:101eb8002e2890000080e800904078005147980054
:101ec8002e28900063004000904078004147980019
:101ed80050e72800104078000081fb00c0e8280087
:101ee800104078008080fb005e4090000080fb007e
:101ef800440707000080fb000000e00005003a00ee
:101f08006ed1900021c0b30040c0b300b7020700f3
:101f1800490137004e4090000080fb00120020006d
:101f280081012000370707000080fb000000e00067
:101f380005003a006ed1900031c0b30040c0b30034
:101f4800aa0207003c01370050e7280090407800bb
:101f58006800470012c0b30027050700e8004700e3
:101f680040c0b300904098005e4090000080fb00a5
:101f7800ce409000e00407008040780068004700e9
:101f88002140980068004700a04090003147980021
:101f980068004700630040003e419000de4090002a
:101fa800150507003e4090006340400080407800df
:101fb800680047007e0f0700300798003e409000f9
:101fc8000080fb00630140003e00900080407800e4
:101fd8006800470000004100014878003e4090003a
:101fe8000080fb00640140003e0090004800de00d5
:101ff80080407800680047000000410001487800f0
:102008003e4090006540400000417800e8004700ed
:102018006ed090009a0207000701370040c0b30055
:10202800304798002e2890000080e8009040780003
:10203800514798002e289000630040009040780097
:102048004147980050e72800104078000081fb00c5
:10205800c0e82800104078008080fb005e409000b7
:102068000080fb00e70607000080fb000000e0009e
:1020780005003a006ed1900021c0b30000c1b30042
:102088005a020700ec0037004e4090000080fb0029
:102098001200200081012000da0607000080fb0002
:1020a8000000e00005003a006ed1900031c0b30096
:1020b80000c1b3004d020700df003700f0e7280039
:1020c800104078000080fb00800078002e289000e7
:1020d800808040003e4090000080fb00008040006f
:1020e80071002000025a200003002000da060700d1
:1020f80000e82800104078000080fb00800078008d
:102108002e289000808040003e4090000080fb0018
:1021180000804000c1032000025a20000300200074
:10212800cd06070010e82800104078000080fb006a
:10213800800078002e289000808040003e4090006b
:102148000080fb00008040008000eb00025a200065
:1021580003002000c00607005e4090000080fb00de
:10216800ce40900064040700004178003e40900093
:102178000080fb00800078002e289000008040003e
:10218800de40900083040700de10070049100700b6
:10219800d6100700f00507005e4090000080fb00a5
:1021a8006ed19000ce4090000a010700900507000c
:1021b800a10037006ed09000e14f500005003a00b2
:1021c80012c0b30011c0b30000c2b3000702070079
:1021d80099003700e0678000700060000000e000b0
:1021e80008003a00e0678000610060000000e0003d
:1021f80004003a00e0678000620060000000e00030
:10220800050032000041eb0041c0b30000c2b3003a
:10221800f6010700880037008e120700c462a80084
:1022280018010700c462a900921207002e28900026
:10223800a60d07000080fb000000e000fbff3a004d
:102248002e289000810d07000080fb000000e000b0
:10225800fbff3a00780037006ed09000e14f500045
:1022680005003a0012c0b30011c0b30010c2b30099
:10227800de01070070003700e06780007000600032
:102288000000e00008003a00e0678000610060009c
:102298000000e00004003a00e0678000620060008f
:1022a8000000e000050032000041eb0041c0b3002f
:1022b80010c2b300cd0107005f00370065120700a8
:1022c800c462a8002e2890000080e80033010700af
:1022d800c462a900671207002e2890007b0d070032
:1022e8000080fb000000e000fbff3a002e28900071
:1022f800560d07000080fb000000e000fbff3a00dd
:102308004d0037006ed09000e14f500005003a00b4
:1023180012c0b30011c0b30020c2b300b30107005c
:1023280045003700e0678000610060000000e000c1
:10233800050032000041eb0041c0b30020c2b300e9
:10234800aa0107003c003700fc8ca8004e010700da
:10235800390037006f01070037003700c00420003c
:102368000e00400081cb2800060009003158780093
:102378007000b1000040eb00204798000000eb001f
:10238800000f7800c00420000e00400012c0b30007
:102398008040eb0018040700c10420008e80400034
:1023a80060c2b300904098002e4090000080fb006f
:1023b80080007800c00420000e00400001004000aa
:1023c8000080e800ae120700c00420000e004000a4
:1023d80051c0b300760e0700000f78001e00780089
:1023e80080407800c00420000e0040005140980052
:1023f8001e0078004800de0080407800c0042000fd
:102408000e00400061409800c10420008e8040000a
:1024180072c0b3000040eb009901070006003700c6
:102428002e2890000000e800104078006ed190003f
:1024380011c0b3006d010700100020000080fa00f1
:10244800000006003800fa0040779800517798009d
:10245800627798000000eb00000f7800e0678000ca
:10246800700060000000e000080032006e7090000c
:10247800e14f500005003a000041eb0041c0b300b5
:1024880030c0b300590107005000370021802000f8
:10249800914078006300470001487800e300470056
:1024a80030c0b3009040980063004700ee70900081
:1024b800214098006300470031c0b3003c0e07007c
:1024c800000f78001e007800804078006300470005
:1024d800314098001e0078004800de0080407800f7
:1024e8006300470041409800e300470052c0b30032
:1024f8004e709000620107006e709000e14f50002e
:1025080012003a0014cdbf000080fb00f008b000b4
:1025180002092000110009000200d8008000fd0017
:1025280080007800e00220000088b900e30047003e
:10253800e20220000a110700e3004700e2c2b300ec
:102548004e7090004e0107002000370030c0b300e5
:10255800390607000040eb002047980017003700b5
:102568005e7090008080fb002e4090000080fb0091
:1025780000804000f008b0000209200011000900a6
:102588000200d8008000fd0080007800e0022000f2
:102598000088b900e3004700e2022000f0100700bd
:1025a800e3004700e2c2b3004e7090003401070018
:1025b8002e4090000040e80020479800ae40900070
:1025c8006e70900080cf5000e5ff39000080fa005f
:1025d800000006000e00fa0050079800414f9800ce
:1025e800524f98000000eb00000f78002180200077
:1025f800914078000e80e800014878008e80e8005d
:1026080000c1b300904098005e0090004800de00d2
:10261800804078000e80e800214098005e0090001d
:10262800804078000e80e800314098000e80e80075
:10263800ce489000414098000e80e80051c0b30099
:10264800db0d0700000f78001e007800804078003e
:102658000e80e800514098001e0078004800de0017
:10266800804078000e80e800614098008e80e80085
:1026780072c0b3005e489000010107000080fa00b4
:10268800000006009000fa000e80e800f1cb280058
:102698008b00090031587800c008b1000000eb0039
:1026a800000f780021802000914078000e80e8001b
:1026b800014878008e80e80000c2b300904098007e
:1026c80010c0b300f6050700e00820000e00400027
:1026d8007e0c07000080fb000000e000faff3a00d3
:1026e800e2c0b30041e1280010c0b300e4000700d5
:1026f80010c0b300ea0507000e80e8008080e800fb
:1027080054c0b30023e2280082c8b300a0c6220048
:10271800930c07008040780080c8b30080cf500039
:1027280012003a000e80e800a1c8b300a00d07000f
:10273800000f78001e007800804078000e80e800c6
:10274800214899001e0078004800de00804078008b
:102758000e80e800314899008e80e800c2c8b300b6
:102768000040eb00c6000700040037000041eb0002
:1027780041c0b30000c2b3009c000700e00820007d
:102788000e004000510c07000080fb000000e00034
:10279800faff3a000080fa00000006001a00fa006a
:1027a800400f98000000eb00000f780050e7280069
:1027b800904078000e80e80012c0b3000e030700b6
:1027c8008e80e80010c2b3009040980050c0b3005b
:1027d8009905070002c9b300ce08900010c0b300e5
:1027e800a700070080c0b300930507000e80e8002b
:1027f8008080e80054c0b30023e22800a2c0b300e0
:10280800a0c62200560c07000004e00013003200a6
:10281800181107000e80e80021c0b300640d0700fe
:10282800000f78001e007800804078000e80e800d5
:10283800214098001e0078004800de0080407800a3
:102848000e80e800314098008e80e80042c0b30056
:102858000040eb008a000700040037000041eb004d
:1028680041c0b30010c2b300600007007600470003
:10287800160c07000080fb000000e000fbff3a0098
:102888000080fa00000006000800fa000000eb00d3
:10289800000f780050e72800904078000e80e8008c
:1028a80012c0b300d40207008e80e80020c2b30033
:1028b800904098000e80e80021c0b3003c0d07004e
:1028c800000f78001e007800804078000e80e80035
:1028d800214098001e0078004800de008040780003
:1028e8000e80e800314098008e80e80042c0b300b6
:1028f8000040eb006200070067004700f30b070089
:102908000080fb000000e000fbff3a000080fa00b6
:10291800000006000e00fa0063004700b1d428004a
:102928000900090031587800a000b1000040eb0010
:10293800204798000000eb00000f78006300470074
:1029480012c0b3008040eb00ab020700e300470071
:1029580030c4b300904098000040eb002047980036
:102968000c0037002e4090000080fb000081e8003a
:102978002e4090008080fb0000e72800e1407800ae
:1029880063004700017178002e4090000040e80085
:10299800204798002e409000e44f5000f1ff360089
:1029a8006300470071c0b300010d0700000f7800f5
:1029b8001e0078008040780063004700714098004e
:1029c8001e0078004800de00804078006300470061
:1029d80001489800e300470092c0b3000040eb00b4
:1029e800270007000080fa00000006000c00fa002b
:1029f800004f9800114f9800224f980050e7280088
:102a0800904078000e80e80012c0b3007a020700f8
:102a18008e48900000c8b30000c040008040780095
:102a28000e80e800114098000e80e8009e48900053
:102a3800214098000e80e80031c0b300dc0c07008c
:102a4800000f78001e007800804078000e80e800b3
:102a5800314098001e0078004800de008040780071
:102a68000e80e800414098008e80e80052c0b30014
:102a78002e489000020007000080fa0000000600bf
:102a88000600fa00004f78001107980042479800a6
:102a98001e04e000050032004e4090008080fb00dc
:102aa8001e0090005c100700040037004e409000a4
:102ab8008080fb001e009000550f07000080fa0080
:102ac800000006007200fa0060ef98000040eb007a
:102ad800604798000000eb002007980001c8bf007d
:102ae8000080fb001007980000c8bf00004f780066
:102af800010320008e80400010c4b3008048780095
:102b0800010320008e80400020c3b300904098004d
:102b1800000320000e0040000080e80082c0b300df
:102b280031802000fd0407001e009000f80f5000bf
:102b380003003600800120001007980002003700cb
:102b48000040eb00004f78009e009000e00220005b
:102b58000088b9006f004000200798006ee89000d8
:102b68000080fb00003f98000e389000e10f5000f5
:102b7800640032008e389000e28f50008e003200e0
:102b88000e3890000000e00001003200b600370067
:102b98002e0090004800de008040780000032000ee
:102ba8000e004000214898002e00900080407800d8
:102bb800000320000e004000314898000003200068
:102bc8000e004000eee89000414898001e0090007a
:102bd80080407800000320000e0040005148980013
:102be800000320000e004000e1002000b70c0700a1
:102bf80060479800010320008e804000e2c0b300c7
:102c080010c0b3009eff07000040eb00704798001b
:102c1800360037007e4090008080fb001e80fb005d
:102c28000080400082012000110009000200d80045
:102c38008000fd0000417800e800470010c0b300a4
:102c48006d020700e8004700000320000e00400066
:102c580042c0b300b1040700000320000e0040008a
:102c680064004000e80047007806070000032000e1
:102c78000e004000e1022000940c0700804078001c
:102c88006e40900001404000604798001e00900090
:102c98008000e9007e4090000080fb00808f50009b
:102ca8000a003a00000320000e004000ee409000a9
:102cb80061689800010320008e804000f2c2b300d2
:102cc80010c0b3006eff07000500370001032000a5
:102cd8008e804000e2c2b30010c0b30068ff070056
:102ce8007e4090000040e800704798007e409000c9
:102cf8008080fb001e009000808f5000c5ff3900c7
:102d080059003700010320008e8040000040eb008e
:102d1800a0489800010320008e804000d0c3b30073
:102d2800b0489800010320008e80400050c0b300d6
:102d3800c0489800010320008e80400010c0b300f6
:102d4800d0489800e800470012c0b30020c0b30084
:102d580029020700000320000e0040006e0040001a
:102d6800e800470042c0b3006c04070000032000dd
:102d78000e00400072004000e800470033060700dc
:102d8800000320000e004000c10320004f0c070084
:102d980080407800000320000e0040004178980031
:102da800010320008e804000d2c3b30010c0b300de
:102db80033ff07002c003700010320008e804000fd
:102dc8000040eb00a0489800010320008e804000de
:102dd800d0c3b300b0489800010320008e804000a3
:102de8000040eb00c0489800010320008e8040009e
:102df80010c0b300d0489800e800470012c0b300e4
:102e080020c0b300fc010700000320000e004000b2
:102e18006e004000e800470042c0b3003f040700ce
:102e2800000320000e00400072004000e800470048
:102e380006060700000320000e004000c103200022
:102e4800220c070080407800000320000e0040009c
:102e580041789800010320008e804000d2c3b3005f
:102e680010c0b30006ff07000080fa00000006004b
:102e78001400fa00700798007e0090006e00400071
:102e88009040780011479800e0c0b300004f7800e8
:102e98000e80e80051d52800060009003158780056
:102ea8007000b1006000b8005007980061079800f2
:102eb8001e4090000080fb000001eb008100200014
:102ec800500307000080fb000000e00003003a0008
:102ed8000000eb00100f9800e50037007e0090001e
:102ee8006c004000104078000004e000de003a006a
:102ef800d10037001e80fb00800078007e00900023
:102f08000080400090407800114798001e409000d3
:102f18000080fb00000f98000e089000e40f50009e
:102f2800740032008e089000e48f500011003c00bd
:102f38000e089000e10f5000320032008e08900019
:102f4800e18f500004003c000e0890000000e000f3
:102f580015003200b60037008e089000e28f50004e
:102f68003f0032000e089000e30f5000530032007b
:102f7800af0037008e089000e68f500079003200cd
:102f88000e089000e60f5000680035008e0890008b
:102f9800e78f5000810032000e089000e80f5000c3
:102fa8008e003200a20037001e80fb0080007800ef
:102fb8007e009000008040000000e80071002000c2
:102fc800025a20000300200023030700f0e728002e
:102fd800904178001e80fb00800078007e00900001
:102fe800008040000000e80022c0b3008340780061
:102ff800e80007001e40780063404000004f78005a
:103008008d0037001e80fb00800078007e00900055
:10301800008040000000e800c1032000025a2000a0
:10302800030020000c03070000e828009041780006
:103038001e80fb00800078007e0090000080400029
:103048000000e80022c0b30083407800d1000700e8
:103058001e40780063404000004f7800760037003b
:103068001e80fb00800078007e00900000804000f9
:103078000000e8008000eb00025a20000300200056
:10308800f502070010e82800904178001e80fb0038
:10309800800078007e009000008040000000e8007a
:1030a80022c0b30083407800ba0007001e407800b1
:1030b80063404000004f78005f00370070e8280048
:1030c800904178001e80fb00800078007e00900010
:1030d800008040000000e80042c0b3008340780050
:1030e800ac0007001e40780065404000004f7800a3
:1030f8005100370080e82800904178001e80fb00ce
:10310800800078007e009000008040000000e80009
:1031180042c0b300834078009e0007001e4078003c
:1031280065404000004f78004300370090e82800d1
:10313800904178001e80fb00800078007e0090009f
:10314800008040000000e80042c0b30083407800df
:10315800900007001e40780065404000004f78004e
:1031680035003700a0e82800904178001e80fb0059
:10317800800078007e009000008040000000e80099
:1031880042c0b30083407800820007001e407800e8
:1031980065404000004f7800270037001e80fb0084
:1031a800800078007e009000008040000000e80069
:1031b8008e80e8002a09070090e7280090407800f0
:1031c8000e80e80072c0b300720007001e4078004d
:1031d80065404000004f780017003700b0e828002d
:1031e800904178001e80fb00800078007e009000ef
:1031f800008040000000e80042c0b300834078002f
:10320800640007001e80fb00800078007e009000ac
:10321800008040008000e8006a0047001c020700a8
:103228001e40780065404000004f780002003700db
:1032380040c6b300004f78009e80fb007e009000df
:103248006d004000104078000080fb006e004000d8
:10325800808f500027ff350065010700110020000e
:10326800110f9800020037000000eb00100f9800c3
:103278001e0890000080fa00000006009800fa007e
:103288000040eb00004f78000e00e800c1d5280090
:1032980095000900315878006009b1008e00e800f7
:1032a80014c0b3002380200042c9b300a0c222008a
:1032b800ab090700004f78001e04e0000c00320044
:1032c8001e40780000c0e900004178008e00e80048
:1032d800c0ed22001b0b07000080fb000000e0008f
:1032e800030032000e00e8008040eb0090fa07006f
:1032f8000080fa00000006000600fa001007980097
:10330800414798000040eb00104798000040eb0050
:10331800004f78000040eb00104798000b00370082
:103328001e4090008080fb0050e728006140780034
:103338008080fb001e009000808f50000600320045
:103348001e4090000040e800104798001e40900082
:10335800f74f5000f2ff36004e4090008080fb008f
:103368001e4090000080fb008080400050e728004d
:10337800614178001e4090008080fb0050e72800e3
:1033880061407800004f51001e80fb000080fa0069
:10339800000006000600fa00100798004147980050
:1033a800524798000040eb00004f78000d003700ae
:1033b8004e4090008080fb001e80fb000081400092
:1033c8001e80fb00800078001e00900000804000f6
:1033d8009040780000ca20000000410001487800b1
:1033e8001e4fe8005e4090009e4f1000f0ff39002d
:1033f8000080fa00000006000600fa001007980096
:1034080041479800524798000040eb00004f780071
:103418000040eb00004f78000d0037001e80fb00d5
:10342800800078001e009000008140009e80fb0014
:103438004e4090000080fb008080400000ca2000c1
:103448000080400010407800004978001e4fe800d6
:103458005e4090009e4f1000f0ff39000080fa0097
:10346800000006000800fa0020479800210798008d
:103478002e4090000080fb00300798003e0090002e
:10348800e10f50002f0032003e009000e20f500084
:10349800420032003e0090000000e00001003200cf
:1034a800530037002e009000c102200080804000a9
:1034b8000040eb00804878000040eb00004f7800a7
:1034c8000f00370000c8bf000081fb009e81fb0091
:1034d8001e80fb00800078002e00900000804000d5
:1034e80010427800200220000090b90083004000bc
:1034f8000082200000804000044878001e4fe80049
:1035080010c2b3009e4f1000eeff360000c8bf0087
:103518000040e80000e8b70001c8bf000040e8002c
:1035280001e8b70000c8bf000080fb00820120004e
:10353800110009000280d8008000fd0000e8b700f3
:103548002b0037002e009000c10220008080400030
:1035580010c0b300804878000040eb00004f7800ae
:103568000a0037001e81fb001e80fb0080007800e7
:103578002e009000008040009040780000b52000a8
:1035880000004100014878001e4fe80010c2b30057
:103598009e4f1000f3ff3600150037002e009000f4
:1035a800c10220008080400020c0b300804878001d
:1035b8000040eb00004f78000a0037001e81fb0036
:1035c8001e80fb00800078002e00900000804000e4
:1035d8009040780000b520000000410001487800c4
:1035e8001e4fe80010c2b3009e4f1000f3ff3600d4
:1035f8000080fa00000006000a00fa002047980040
:1036080021079800624798002e4090000080fb0038
:10361800400798004e009000e10f5000040032006f
:103628004e009000e20f50001700320026003700cd
:103638000040eb00004f78000f0037001e80fb00b1
:10364800800078002e009000808140006e4090003d
:103658008080fb001e81fb00200220000088b9004a
:103668008200400000822000008040001040780066
:10367800804978001e4fe80010c2b3009e4f10002a
:10368800eeff3600100037000040eb00004f7800d6
:103698000a0037001e80fb00800078002e00900092
:1036a800008140009e80fb0000b5200000804000a3
:1036b80010407800004978001e4fe80010c2b3009f
:1036c8009e4f1000f3ff36000080fa00000006004d
:1036d8000200fa000040eb00004f780015003700a8
:1036e8000040eb00104798000d0037009e80fb005b
:1036f8001e4090000081fb00200220000088b900d5
:103708008200400000822000808040000040eb00e2
:10371800804878001e4090000040e800104798005c
:103728009e40900010c2b30080cf5000efff3600db
:103738001e4fe80070c1b3009e4f1000e8ff36002e
:103748000040eb0001e8b70001c8bf0000e8b7007f
:103758000080fa00000006000600fa00e0e82800f1
:1037680005000900305f78006e00b100650b0700a6
:10377800d00a07005d0b0700c0e8280090407800d9
:1037880042c0b3000e0078001bff07003e409000c7
:103798008080fb002e4090000080fb004800dd0088
:1037a800008040006101b8001e4090000080fb00ce
:1037b80001002000c000dd000000200002014000e0
:1037c800838148001e4078000080fb000100200033
:1037d800c800dd000000200002004000838048008f
:1037e800f0668800016788000080fa000000060083
:1037f8003a00fa0050e72800104078008080fb006b
:1038080050e72800e1407800a2c3b3000e0078001a
:10381800f9fe070050e72800104078000080fb0000
:103828000e0040001040780002e8b70060e728006a
:10383800104078000080fb008000470082002000d4
:1038480030802000b501070070e72800104078009c
:103858000080fb000e004000104078000be8b70025
:10386800f0e72800104078000080fb000e004000c0
:10387800104078000080fb00c800dd00f0e7280059
:10388800104078000080fb000000e8000e004000b7
:10389800104078000080fb0000804000a0408800b5
:1038a80000e82800104078000080fb000e0040006f
:1038b800104078000080fb00c800dd0000e8280008
:1038c800104078000080fb000000e8000e00400077
:1038d800104078000080fb0000804000b040880065
:1038e80010e82800104078000080fb000e0040001f
:1038f800104078000080fb00c800dd0010e82800b8
:10390800104078000080fb000000e8000e00400036
:10391800104078000080fb0000804000c040880014
:1039280020e82800104078000080fb000e004000ce
:10393800104078001ae8b700b0e828001040780076
:103948000080fb0080004700c08120005000070075
:103958000080fa00000006004000fa000000eb00ba
:10396800000f780050e72800904078000e80e800ab
:10397800a2c3b300a0fe07000e80e800a1c3b300f5
:103988000b090700000f78001e00780080407800bf
:103998000e80e800217898001e0078004800de00bc
:1039a800804078000e80e800317898008e80e8002a
:1039b800c2c3b30000f02100c10b07000080fa0069
:1039c800000006003e00fa0050e72800904078000a
:1039d800a2c3b3000e00780087fe0700c2c3b3007d
:1039e8008e00780000f02100dd0b0700a2c3b300b1
:1039f8008e007800c0ed2200520907000080fb000d
:103a08000000e0000500320050e7280090407800f0
:103a1800a2c3b3000e0078005efe07000080fa0023
:103a2800000006000800fa002007980031079800f7
:103a38002e009000000f78000040eb00204798000f
:103a48000e0037002e4090000080fb0080007800b8
:103a58003e009000808040002e4090000080fb00d7
:103a68001e00100063004000104078008048780075
:103a78002e4090000040e800204798002e4090001b
:103a8800e34f5000efff36000080fa000000060008
:103a98000800fa0020079800310798002e009000cf
:103aa800000f78000040eb00204798000f00370017
:103ab8002e4090000080fb00800078001e007800f7
:103ac800008140002e4090008080fb003e00900066
:103ad8000100500063004000104078000049780061
:103ae8002e4090000040e800204798002e409000ab
:103af800e34f5000eeff36000080fa000000060099
:103b08000800fa0020079800310798002e0090005e
:103b1800000f78000040eb00204798000e003700a7
:103b28002e4090000080fb00800078003e0090004e
:103b3800808040002e4090000080fb001e00100096
:103b48006700400010407800804878002e409000c0
:103b58000040e800204798002e409000e74f5000b2
:103b6800efff36000080fa00000006000200fa00ad
:103b7800004f78001e80fb004400de000080fb0040
:103b88006f0060006a00b900804078001e4078002d
:103b98006f40600000c040000080fb000080fa0019
:103ba800000006000200fa00004f78001e80fb00ab
:103bb800a2002000110009000280d8000080fb004c
:103bc8004400dd008040780000cfb30080c0600072
:103bd8001e80fb00a2002000811f78001100090050
:103be8000280d8000001780001007800cf0078003a
:103bf8006f40600000c070000080fb000080fa0089
:103c0800000006000800fa00000f7800110798006d
:103c1800220798001e0090009e0f10000300360037
:103c28000000eb0030079800080037002e009000d5
:103c38009e0f1000030031000000eb0030079800d1
:103c48000200370010002000300798003e00900066
:103c58000080fa00000006000a00fa001007980029
:103c68002207980033079800410798001e0090002b
:103c7800104078000080fb00c800dd001e009000a6
:103c88000000e800104078000080fb000080400041
:103c9800000f78001e0078006101b8002e00900027
:103ca800be009000800f5100818f59000e00360031
:103cb8002e009000be0090004809dd004800de009c
:103cc80000007100c808de00804078001e009000e7
:103cd800014878001e0090008000e8002e00900047
:103ce800804878000c0037004e0090009e0f1000ae
:103cf800090031004e0090004800de008040780046
:103d08001e009000014878001e0090008000e80026
:103d18004e009000804878000080fa0000000600fd
:103d28000600fa0010079800414798000040eb0091
:103d3800004f78001f0037001e80fb0080007800cd
:103d48001e009000008040009040780011479800c5
:103d58001e80fb00800078001e009000008140005b
:103d68004e4090008080fb001e80fb0000805000c9
:103d7800800078001e009000008040000000e900ec
:103d880010407800004978004e4090008080fb0089
:103d98001e80fb0000805000800078001e0090000c
:103da800008040000000e9009e4090000148780033
:103db8001e4fe8004e4090000080fb000000d1003c
:103dc8009e4f5000dcff3e000080fa000000060015
:103dd8000400fa0020479800080037000000eb00b4
:103de800000f780002003700000000001e0fe800f6
:103df800b0a221009e0f1000fbff36000040eb0030
:103e0800304798002e4090000004e0000200340083
:103e180010c0b300304798002e4090000040e900e1
:103e2800204798003e4090000004e000ebff3a0075
:103e38000080fa00000006000400fa0020479800fd
:103e4800080037000000eb00000f78000200370080
:103e5800000000001e0fe800b0fd2f009e0f1000ac
:103e6800fbff36000040eb00304798002e409000e2
:103e78000004e0000200340010c0b300304798008e
:103e88002e4090000040e900204798003e409000f6
:103e98000004e000ebff3a000080fa000000060092
:103ea8000600fa00404798000d0037006000b8008f
:103eb800008fbe0005003700000000001000200041
:103ec800010020001e0f40005e974800701c29006a
:103ed80051002000be0f1000ae8f1800f6ff36000c
:103ee8008040eb00514798004e4090000004e000ed
:103ef8000200340010c0b300504798004e409000b4
:103f08000040e90040479800de4090000104e000ce
:103f1800e6ff3a000080fa00000006000800fa00f8
:103f28001007980021079800624798000040eb00ae
:103f3800004f78000b0037001e80fb0080007800df
:103f48001e009000008140001e80fb008000780069
:103f58002e00900000804000104078000049780052
:103f68001e4fe8006e4090009e4f1000f2ff39008f
:103f78000080fa00000006000600fa00100798000a
:103f880041479800524798000040eb00004f7800e6
:103f9800070037001e80fb00800078001e0090009c
:103fa80000804000ce409000014878001e4fe80095
:103fb8005e4090009e4f1000f6ff39000080fa0026
:103fc800000006000a00fa00100798002107980070
:103fd800624798000040eb00004f7800100037005f
:103fe8001e80fb00800078001e00900000804000ca
:103ff800104178001e80fb00800078002e009000a1
:104008000080400010407800804f510003003200cb
:104018000000eb0040079800060037001e4fe8003c
:104028006e4090009e4f1000edff390010002000f8
:10403800400798004e0090000080fa00000006003b
:104048000a00fa00889fbe003007980041079800d0
:104058004e00900010407800404798004e009000b5
:104068000000e800104078000080fb0001002000fc
:10407800c001dd00020020004e0090000080e80032
:10408800104078000080fb004800dd00010020009f
:1040980002014000838148004e00900010407800e3
:1040a8000080fb00010020000200400083804800df
:1040b800008fbe004e4090000000fb00cf80de0065
:1040c800bdf107000001be0000002000010024002f
:1040d80056f207000004be001e00be00b6f107003d
:1040e8000001be000800be001cf20700020020000c
:1040f80003b024006cf107003e0190000089be0067
:104108004f04be000080fa00000006000400fa0018
:10411800881f78001007980014cdbf008080fb002e
:10412800e00220000088b900000f78001e0090000f
:10413800d802200000044400d10220001e00900094
:1041480062070700004c7800e20220009e00900001
:104158001e007800da0907001200200041d1200073
:10416800f0ff2100d609070014cdbf000040e80089
:1041780014edb70014cdbf000080fb000209200039
:10418800110009000280d8008000fd0014edb7007e
:104198004f0478000080fa00000006009400fa003e
:1041a800005799000040eb007047980010c0b3001a
:1041b800604798000000eb00200798006000b800f6
:1041c80060879800718798006000b800008fbe0073
:1041d80069004700e2c2b3008040eb0066ff0700b9
:1041e8000bc8bf00faecb70011c1b30050ce2000d5
:1041f8001e070700200798002e009000f6ecb70075
:104208002e0090004800de00f7ecb700c442a8007a
:1042180041c1b30050ce20007d09070020c0b30083
:1042280005ff07000040eb00205799000e4890005a
:10423800e94f50000200360010c0b3002057990023
:104248000e4890000040e800004f98002e50910062
:104258000004e000030032000040eb0060479800d3
:10426800170037000040eb0070479800080037003f
:1042780022c2bf00614060000004e000010032007b
:10428800340507007e4090000040e8007047980021
:104298007e409000e34f5000f5ff36009105200066
:1042a8008e80400034c0b30093cf2000e2c2b30038
:1042b800a0c22200aa0507000004e000d4ff3200d3
:1042c800c442a9006e4090000080fb000000e0009e
:1042d800cf003200900520000e004000650040002d
:1042e800710320008e8040007f04070090052000a5
:1042f8000e004000f2004000c00820000e00400000
:104308004fff0700900520000e004000700040009d
:10431800104078000080fb00c800dd0090052000f8
:104328000e00400071004000104078000080fb0043
:10433800008040006103b90086007800004828002a
:104348000009b8007e30b90003027800000242007c
:104358000048280000b8b900000242008401780033
:104368000200be0014f107000002be006e8090003b
:10437800fe8090000001be000400be006df0070042
:10438800008fbe0002402200439724001e00be009a
:1043980007f107000000e00001003d0015003700ac
:1043a80002402200439724001e00be00bef0070012
:1043b8006087980071879800700320000e00400005
:1043c800e4004000c00820000e00400095fd0700f2
:1043d8006e809000fe8090000240220043972c00df
:1043e8005ef107001e01be0052f00700008fbe00fc
:1043f80006003700700320000e00400064004000f3
:1044080042c0b3008040eb00dbfe07001e00be0088
:104418006087980071879800700320000e004000a4
:10442800e8004000c00820000e0040007dfd0700a5
:10443800900520000e004000ec004000c00820005d
:104448000e004000fefe0700700320000e00400032
:10445800ec004000c00820000e00400071fd07007d
:10446800900520000e004000f6004000c008200023
:104478000e004000f2fe0700700320000e0040000e
:10448800f0004000c00820000e00400065fd070055
:10449800900520000e004000fa004000c0082000ef
:1044a8000e004000e6fe0700700320000e004000ea
:1044b800f4004000c00820000e00400059fd07002d
:1044c800900520000e0040008060900070032000de
:1044d8000e0040000158980080d12000ef05070029
:1044e800700320000e004000f900400080d1200039
:1044f8004cfd0700900520000e004000e50040003c
:104508006900470072c0b30084fe070069004700d5
:104518006700400042c0b3008040eb0096fe0700f1
:10452800690047006b00400082c0b3008040eb0088
:1045380091fe0700700320000e004000ec004000d0
:10454800690047006700400042c0b30073fe0700df
:10455800700320000e004000e4004000690047009e
:104568006b00400082c0b3006cfe0700700320009f
:104578000e004000f0004000690047007f00400046
:1045880042c0b30065fe0700700320000e00400023
:10459800f4004000690047003002b00042c0b30098
:1045a8005efe0700700320000e004000f900400086
:1045b800690047007002b00042c0b30057fe070010
:1045c800700320000e004000f8004000690047001a
:1045d800c002b00012c0b30050fe070090052000d2
:1045e8000e004000fe00400069004700b002b00025
:1045f80012c0b30049fe0700710320008e804000fe
:104608000e50910097fb070069004700bffe0700a6
:104618006e4090000080fb000000e00003003200c4
:1046280090c1b3001057990002003700a0c1b30031
:10463800105799001e5091001dedb7006e40900074
:104648000080fb000080fa00000006000600fa0067
:1046580010079800210798002180200091407800d9
:104668001e009000014878001e0090008000e800bd
:1046780030c0b300804878001e0090008080e800b9
:1046880050c2b300804878001e0090006f004000c0
:1046980082c0b3008040eb0037fe07001e00900088
:1046a8007700400042c0b3008040eb0032fe0700b4
:1046b8002e009000e40040001e00900063004000bf
:1046c80082c0b30015fe07002e009000ec004000e9
:1046d8001e0090006b00400042c0b3000ffe0700b0
:1046e8002e009000f00040001e0090007b0040006b
:1046f80042c0b30009fe07002e009000f4004000fd
:104708001e0090007f00400042c0b30003fe070077
:104718001e00900031022000808040002e00900092
:104728007800400010407800804878002e00900003
:10473800f90040001e0090004002b00042c0b300e3
:10474800f6fd070081c2b3001e009000980507001f
:10475800000f78001e009000810220008080400039
:104768001e007800804878001e009000910220000a
:10477800808040001e0078004800de0080487800f5
:104788000080fa00000006003600f800809fbe0096
:10479800829fbe00849fbe00869fbe003400f80042
:1047a80000002000a00188000000fa000000eb00d3
:1047b8005b09070020d02000200090008000e8005e
:1047c80020d020002100980020d020001000900068
:1047d8008000e80020d020001100980020d02000a0
:1047e800100078008000e80020d020000108780040
:1047f80020d0200090007800a0408000808f5000da
:104808000600390021d020000000eb008008780065
:1048180005e1a9001c0307008760a80020d020003c
:1048280090009000b0408000808f50000400390054
:1048380021d020000000eb0090009800fc0ca8009c
:10484800e0678000610060000000e00024003a009a
:10485800e0678000620060000000e00020003a008d
:10486800e0678000700060000000e0001c003a0073
:1048780080d1200009050700e0408000f140800059
:10488800c2688000d3688000c9ef07000000e0001c
:1048980001003c001200370024cdbf000004e000f6
:1048a80003003a00c04080000000e0000800320029
:1048b800c04080000000e0000900320020d0200045
:1048c800a0009000c0408000808f50000400390094
:1048d80021d020000000eb00a0009800fc2ca800cc
:1048e800e0678000610060000000e00004003a001a
:1048f800e0678000620060000000e0000200320013
:10490800fcaca80001003700fcaca9008bc0a900d2
:104918000080fa003400f9004f03be004f02be00c9
:104928004f01be004f00be003600f90000400600ef
:1049380000a0fe003600f800849fbe00869fbe00df
:104948003400f80004002000a40188000000fa00e8
:1049580022c2bf00704060000004e000fcff32008b
:1049680046fa070011e1a9000000eb0030088800b2
:10497800fceca90084e0a9000080fa003400f900ea
:104988004f03be004f02be003600f9000080fe0053
:104998000040060000a0fe003400f800881f7800e0
:1049a80008002000a80188004f0478000000fa00e1
:1049b800006980000000e800006988008500a900ff
:1049c8000080fa003400f9000080fe000040060074
:1049d80000a0fe003600f800849fbe00869fbe003f
:1049e8003400f80004002000a40188000000fa0048
:1049f800e0678000640060000000e000040032000e
:104a080010002000e5fd0700fc4ca9000c00370051
:104a1800e0678000680060000000e00006003200e7
:104a2800100020001efd070020002000dbfd07000d
:104a3800fc6ca900020037000000eb00d7fd07005e
:104a48008760a900950207000080fa003400f90089
:104a58004f03be004f02be003600f9000080fe0082
:104a6800004006003600f800809fbe00829fbe000e
:104a7800849fbe00869fbe003400f800000020001e
:104a8800a00188000200fa000040eb00004f780007
:104a98000040eb00004f78000600370022c2bf003c
:104aa800614060000004e0000100320029030700b3
:104ab8001e4fe80030c0b3009e4f1000f7ff3600cd
:104ac8008560a9000080fa003400f9004f03be0099
:104ad8004f02be004f01be004f00be003600f90075
:104ae800004006003600f800809fbe00829fbe008e
:104af800849fbe00869fbe003400f800000020009e
:104b0800a00188000200fa000040eb00004f780086
:104b18000040eb00004f78000600370032c2bf00ab
:104b2800614060000004e000010032002703070034
:104b38001e4fe80030c0b3009e4f1000f7ff36004c
:104b480087c0a9000080fa003400f9004f03be00b6
:104b58004f02be004f01be004f00be003600f900f4
:104b680000400600809fbe000200fa000040eb00f3
:104b7800004f78000b003700f16780001e80fb00b3
:104b880000804000104078000080fb00a0118800e1
:104b980033c2bf00614060000004e000fcff320047
:104ba8001e4fe80000cdbf009e4f500004003600a5
:104bb80033c2bf00624060000004e000eeff320034
:104bc80087e0a9000080fa004f00be000040060000
:104bd800801f78000000fa0022c2bf006240600017
:104be8000004e000010032002222a9008c20a90064
:104bf8000080fa004f00780000400600801f78000f
:104c08000000fa0032c2bf00624060000004e00009
:104c1800010032003222a9008c40a9000080fa006d
:104c28004f007800004006003600f800809fbe0064
:104c3800829fbe00849fbe00869fbe000000fa00cf
:104c48000000eb0036080700a7060700fceca800e8
:104c580011e1a8008680a9000080fa004f03be0079
:104c68004f02be004f01be004f00be003600f900e3
:104c7800004006003600f800809fbe00829fbe00fc
:104c8800849fbe00869fbe000800fa0040e9280005
:104c980006000900305f78007e00b1000e00780041
:104ca800d105070090e728009040780072c0b30053
:104cb8000e007800b7f9070027fb070080c0bf0087
:104cc800644060000004e000010032008040a90058
:104cd80080c0bf00684060000004e00001003200ae
:104ce8008060a90080c0bf00704060000004e00040
:104cf800010032008080a9000000fe000080fa0058
:104d08004f03be004f02be004f01be004f00be0061
:104d18003600f900004006000000fa00c062a90051
:104d2800c462a900c9a2a900e3a4a9000080fa00ee
:104d3800000006000600fa00100798004147980096
:104d48000040eb00004f780005003700ce4090008f
:104d58001e009000b00707005000200036fc070036
:104d68000040eb005047980020c0b3009e4f100051
:104d780002003e0010c0b300504798001e4fe800e4
:104d88005e4090000004e000f0ff3a000080fa0066
:104d9800000006000a00fa000040eb00004f78000f
:104da8000e00e80091e2280004000900315878005c
:104db8005000b100c462a9006000200038fc070060
:104dc800c462a8001000200035fc07000040eb007a
:104dd800004f980031c0b3009ecf1000020036008b
:104de80010c0b300004f98001e4fe8008e48900096
:104df8000104e00004003200c462a9000000eb00d6
:104e0800300798000a0037008e00e80054c0b3004d
:104e180043df280022c0b300a0c62200d00207004a
:104e28000004e000e3ff3200110020003107980081
:104e38003e0090000080fa00000006000a00fa0018
:104e480060479800e0e2280004000900305f78001d
:104e58005e00b100c1c0b30070e02800b5ff0700d4
:104e68006e4090000080fb000dfc070010e1280058
:104e780034c0b3008001780022c0b3008e007800ef
:104e8800a0c62200b60207008000eb004107980088
:104e98000004e000020032001000200040079800e3
:104ea8004e0090000080fa00000006000400fa009e
:104eb800100798000040eb00004f780062010700df
:104ec800e3a4a900c9a2a8000d003700cbc2bf0007
:104ed8000042b2000004e000090032001000200087
:104ee800bbfb0700cbc2bf000042b2000004e000d9
:104ef8000300320010c0b300004f780004003700f0
:104f0800016980001e009000808f5000efff39007b
:104f180054010700e3a4a800c9a2a9001e80fb0051
:104f28000080fa00000006004c00fa00881f780094
:104f380020c7980031c7980042c79800650047000d
:104f480031e328003b00090031587800c003b10064
:104f58000040eb00404798000040eb0030479800c5
:104f68000040eb00204798000040eb0010479800f5
:104f78000040eb0010c798000040eb00004f78009d
:104f880030c0b3001dedb7003207070093003700ab
:104f980080ff07000080fb000000e00006003a00e8
:104fa80040c0b3001dedb700320707000000eb005a
:104fb80050279800b00037000040eb001dedb70007
:104fc800e1c0b30090df28005aff07000060fe0030
:104fd80010c0b3001dedb700906f8400b3ff070049
:104fe8000080fb000000e0007a00320020c0b3001f
:104ff8001dedb7000040eb00304798000b0037006c
:10500800100420000e004000300207000080fb0062
:105018000000e000faff3a002ec090000080fb007c
:10502800a8f60700300020009dfb07008040eb0039
:1050380001cf9800be4090004ec0900080cf500035
:105048000200310010c0b30000cf98003e4090002d
:105058000040e800304798008ec890000104e00046
:10506800e7ff3a000040eb002047980008003700af
:1050780032c2bf00614060000004e000010032005d
:10508800d20107002e4090000040e8002047980019
:105098002e409000e34f5000f5ff3600e500470032
:1050a80024c0b30073e2280072c3b300a0c6220074
:1050b8002b020700104798001e4090000004e000f3
:1050c800410032001e4090000080fb008080e90013
:1050d80065004700614478001e4090000080fb0096
:1050e8000080e9008000780065004700770307002a
:1050f800804f540031003a00650047000080e80006
:1051080082c0b30031802000b10307000080fb009b
:105118000000e000260032006500470054f7070051
:105128000000e0000300320080c0b30070c79800a0
:105138000200370091c0b30071c798007ec090008c
:105148001dedb700e0678000010820000100600045
:105158000000e000020032001000200050fb0700b1
:1051680020d020009000780020d020001100980066
:105178002ec090000004e00001003a0054f9070036
:10518800c04080008040eb0061c798000000e0004c
:1051980002003a0010c0b30060c798006ec09000cb
:1051a80024edb70010c0b300004f78001900370095
:1051b800c0c0b3001dedb70008003700b0c0b30091
:1051c8001dedb70005003700a0c0b3001dedb70006
:1051d8000200370060c0b3001dedb7008040eb004f
:1051e80051c79800ce4090003ec0900080cf50003c
:1051f8000200310010c0b30050c798004e40900024
:105208000040e80040479800dec090000104e0003c
:105218005fff3a001e80fb000000e00009003a0032
:105228004e4090008080fb003ec090000080fb0054
:105238000000e800808f50000200340050c0b30026
:105248001dedb70050c0b300fcfe07000080fb0056
:105258000000e00002003a0070c0b3001dedb70086
:1052680084060700c462a90010c1b3001dedb70091
:105278001e80fb00502798005e2090004f047800a5
:105288000080fa00000006000000fa0005e1a8000e
:1052980005a1a9004110200091407800f0ccb3008e
:1052a80000c0600004e1b7000421a80051102000ec
:1052b80091407800c0cfb30000c0600005e1b7009e
:1052c80004c1a9000000280010088800510a200025
:1052d80091407800f0c8b30000c0600001c6b30078
:1052e80001407000a5e0b7008460a9009460a800a0
:1052f8000000eb000008880005e1a9000080fa0022
:10530800000006000000fa0011e1a80011a1a900a0
:105318000111200091407800f0ccb30000c060007b
:1053280001c2b3000140700010e1b7001021a900cc
:1053380010c1a9001061a900400d23006008880071
:10534800710a200091407800f0c8b30000c06000e6
:1053580001c2b30001407000a7e0b70084e0a900d3
:1053680094e0a8000000eb003008880011e1a900d3
:105378000080fa00000006000000fa0013e1a8000f
:1053880013a1a8002111200091407800f0ccb300af
:1053980000c0600012e1b7001221a90012c1a900e3
:1053a80000c4290070088800810a20009140780014
:1053b80080cfb30000c060000004a000a8e0b700e0
:1053c8008500a9009500a8000000eb00500888009f
:1053d80013e1a9000080fa00000006000000fa00ae
:1053e8001fe1a8001fa1a800e1112000914078004a
:1053f800f0ccb30000c060001ee1b7001e21a90078
:105408001ec1a9001e61a900d0072000d00888008d
:10541800110b200091407800f0c8b30000c0600074
:1054280001c3b30001407000b1e0b7008760a90074
:105438009760a9000000eb00a00888001fe1a90000
:105448000080fa00000006000000fa000000eb00ef
:10545800006988009500a80013e1a8000080fa0000
:10546800000006000000fa009500a90013e1a90059
:105478000000eb00006988000000eb00500888007d
:105488000080fa00000006000000fa009760a800fb
:105498001fe1a8000080fa00000006000000fa00e2
:1054a8009760a9001fe1a9000000eb00a008880090
:1054b8000080fa00000006000400fa00000f7800df
:1054c800006980008000eb00110798009e0f5000d3
:1054d8000200360010002000100798001e009000ff
:1054e8000080fa00000006001e00fa00500f980025
:1054f800610f98005e0890000000e80010407800f6
:105508000080fb0099f907004106200080804000d8
:1055180068004700510098005e0890000080e8008d
:10552800104078000080fb0090f907008000e90037
:1055380068004700410098005e0890006300400042
:10554800104078000080fb0088f907008000780090
:1055580068004700310098005e0890006400400031
:10556800104078000080fb0080f907008000780078
:1055780068004700210098005e0890006500400020
:10558800104078000080fb0078f907008000780060
:1055980068004700110098005e089000660040000f
:1055a800104078000080fb0070f907008000780048
:1055b8006800470001087800e80047000000eb0099
:1055c80080089800e80047000000eb00e000980021
:1055d800e80047000000eb00f00098006800470072
:1055e80066f007000001be0000f82800f1ff2f0058
:1055f8000200400083804800200798003107980087
:10560800640f47000040eb00204798000f00370068
:105618002e4090000080fb00800078006e0890000b
:10562800008140002e4090000080fb008000780040
:105638001e00780000804000104078000049780083
:105648002e4090000040e800204798002e4090002f
:10565800e34f5000eeff36000080fa00000006001d
:105668000a00fa00881f7800300798004107980060
:105678000e80e80042002000be00900027fa0700d4
:105688000e80e80054ef0700000f78001e00780035
:10569800500090004880de007300400041f9070088
:1056a800804078004e009000014878004e0090003d
:1056b8000004e8001e007800d0009000f00f2000e1
:1056c8000080600037f90700004c78004e00900019
:1056d8000084e8001e007800400090000000e80008
:1056e80030f90700004c78004e0090006304400039
:1056f8001e007800300090002af90700004c78005e
:105708004e009000640440001e00780020009000c5
:1057180024f90700004c78004e0090006504400012
:105728001e007800100090001ef90700004c780059
:105738004e009000660440001e00780010007800bb
:1057480018f90700004c78004f0478000080fa0030
:10575800000006000200fa0072cbbf008080fb0048
:1057680073cbbf000080fb000000e900808f500071
:1057780003003a0030118000004f78001100370014
:1057880072cbbf000081fb003011800080407800a0
:1057980040b72000000041000148780072cbbf00ec
:1057a8000040e80072ebb70072cbbf000080fb003e
:1057b80062092000110009000280d8008000fd0065
:1057c80072ebb7000080fa00000006000200fa0041
:1057d8000040eb00004f780022cdbf008080fb0026
:1057e80023cdbf000080fb000000e900808f50003f
:1057f80003003a00b0118000004f78001100370014
:1058080022cdbf000081fb00b011800080407800ed
:10581800a0c02000000041000148780022cdbf0050
:105828000040e80022edb70022cdbf000080fb0059
:1058380062092000110009000280d8008000fd00e4
:1058480022edb7000080fa00000006000400fa000c
:10585800000f780031b720009140780072cbbf006c
:1058680080cf500003003a000000eb0010079800ba
:105878001300370073cbbf008080fb0040b72000c7
:1058880000804000904078001e00780001487800b1
:1058980073cbbf000040e80073ebb70073cbbf00c9
:1058a8000080fb0062092000110009000280d80076
:1058b8008000fd0073ebb70010002000100798006f
:1058c8001e0090000080fa00000006000400fa00a4
:1058d800000f780031d220009140780022cdbf001f
:1058e80080cf500008003a0032c2bf00624060001a
:1058f8000004e000010032003222a9000000eb00a1
:10590800100798001300370023cdbf008080fb00ec
:10591800a0c0200000804000904078001e00780061
:105928000148780023cdbf000040e80023edb70010
:1059380023cdbf000080fb00620920001100090090
:105948000280d8008000fd0023edb7001000200081
:10595800100798001e0090000080fa000000060062
:105968001800fa0070079800010f98002257980055
:10597800230f9800645798000040eb0020479800d8
:105988000040eb00104798000040eb00004f780003
:105998000040eb0030479800230037002e089000a5
:1059a800904078003e40900080cf50001e003a00a2
:1059b8003e409000e40047008048780010c0b300e3
:1059c800104798000a0037001e4090000080fb0036
:1059d800800078006400470001004000fe0090004d
:1059e800010001001e4090000040e80010479800a8
:1059f8009e4090006e50900080cf5000f2ff39001a
:105a08006e5090000081fb00e40047002e089000d3
:105a18006cf907000000e0000300320010c0b3007a
:105a2800204798000600370063004700fe009000fa
:105a3800010001000080fb000000e000d7ff3a00f1
:105a48002e4090000080fb000000e0002b00320098
:105a58006e509000004f78000040eb00104798000f
:105a68000e0037001e4090000080fb008000780088
:105a78000e089000008140001e4090008080fb00ce
:105a8800640047000080400010407800004978001a
:105a98001e4090000040e800104798009e4090008b
:105aa8006e50900080cf5000eeff39006e5090008d
:105ab800104798000d0037001e80fb00800078001a
:105ac8000e089000008040001e4fe800fe00900085
:105ad800010001000080fb000000e0000700320028
:105ae8001e4090000040e800104798009e4090003b
:105af8002e50900080cf5000efff39001e80fb0031
:105b08000080fa00000006000000fa00c042a80069
:105b1800e044a800011a80000040200000807000c6
:105b2800001a880040c3bf006f40600001c7b3007f
:105b38000140700040e3b700113420009140780024
:105b4800c0cfb30000c0600041e3b70049c3bf0045
:105b58007f40600049e3b70091342000914078000d
:105b680000ceb30000c0600049e3b70048c3bf00df
:105b78007f40600048e3b7008134200091407800fe
:105b880000ceb30000c0600048e3b700f0c3b30024
:105b980044e3b70045c3bf00f041b30045e3b70095
:105ba8004203a90043c3bf00f043b20001c8b300d9
:105bb8000140700043e3b70043a3a900213420004b
:105bc8009140780030c8b30000c06000c1c3b30082
:105bd8000140700042e3b7004363a90041e3a90014
:105be8000080fa00000006000800fa006000b80013
:105bf800200798003107980041e3a8006000b8002a
:105c0800200798003107980000302000000f780026
:105c180085a0a9004043a80040c3bf0061406000c0
:105c28000004e000fcff32004043a9000040eb0004
:105c3800204798000d0037001e00780010007800fb
:105c48006101b8002e009000be00900000004100e5
