:020000040000fa
:080000000002040000000000f2
:020000040000fa
:04000800520500009d
:020000040000fa
:04000c005205000099
:020000040000fa
:040010005205000095
:020000040000fa
:040014005205000091
:020000040000fa
:04001800520500008d
:020000040000fa
:04001c005205000089
:020000040000fa
:040020005205000085
:020000040000fa
:040024005205000081
:020000040000fa
:04002800640300006d
:020000040000fa
:04002c005205000079
:020000040000fa
:040030005205000075
:020000040000fa
:04003400ae03000017
:020000040000fa
:04003800520500006d
:020000040000fa
:04003c005205000069
:020000040000fa
:040040005205000065
:020000040000fa
:040044006c03000049
:020000040000fa
:04004800520500005d
:020000040000fa
:04004c005205000059
:020000040000fa
:040050005205000055
:020000040000fa
:040054005404000050
:020000040000fa
:04005800520500004d
:020000040000fa
:04005c005205000049
:020000040000fa
:040060005205000045
:020000040000fa
:040064005205000041
:020000040000fa
:04006800520500003d
:020000040000fa
:04006c007e0500000d
:020000040000fa
:040070005205000035
:020000040000fa
:040074005205000031
:020000040000fa
:04007800520500002d
:020000040000fa
:04007c005205000029
:020000040000fa
:040080005205000025
:020000040000fa
:040084005205000021
:020000040000fa
:04008800520500001d
:020000040000fa
:04008c005205000019
:020000040000fa
:040090005205000015
:020000040000fa
:040094005205000011
:020000040000fa
:04009800520500000d
:020000040000fa
:04009c005205000009
:020000040000fa
:0400a0008c040000cc
:020000040000fa
:0400a4005205000001
:020000040000fa
:0400a80052050000fd
:020000040000fa
:0400ac0052050000f9
:020000040000fa
:0400b00052050000f5
:020000040000fa
:0400b40052050000f1
:020000040000fa
:0400b80052050000ed
:020000040000fa
:0400bc0052050000e9
:020000040000fa
:0400c00052050000e5
:020000040000fa
:0400c40052050000e1
:020000040000fa
:0400c80052050000dd
:020000040000fa
:0400cc0052050000d9
:020000040000fa
:0400d00052050000d5
:020000040000fa
:0400d40052050000d1
:020000040000fa
:0400d80052050000cd
:020000040000fa
:0400dc0052050000c9
:020000040000fa
:0400e00052050000c5
:020000040000fa
:0400e40052050000c1
:020000040000fa
:0400e80052050000bd
:020000040000fa
:0400ec0052050000b9
:020000040000fa
:0400f00052050000b5
:020000040000fa
:0400f40052050000b1
:020000040000fa
:0400f80052050000ad
:020000040000fa
:0400fc0052050000a9
:020000040000fa
:0401000052050000a4
:020000040000fa
:0401040052050000a0
:020000040000fa
:04010800520500009c
:020000040000fa
:04010c005205000098
:020000040000fa
:040110005205000094
:020000040000fa
:040114005205000090
:020000040000fa
:04011800520500008c
:020000040000fa
:04011c005205000088
:020000040000fa
:0401200014030000c4
:020000040000fa
:040124005205000080
:020000040000fa
:04012800520500007c
:020000040000fa
:04012c00fc040000cf
:020000040000fa
:0401300026050000a0
:020000040000fa
:040134005205000070
:020000040000fa
:04013800520500006c
:020000040000fa
:04013c005205000068
:020000040000fa
:040140005205000064
:020000040000fa
:040144005205000060
:020000040000fa
:04014800520500005c
:020000040000fa
:04014c005205000058
:020000040000fa
:040150005205000054
:020000040000fa
:040154005205000050
:020000040000fa
:04015800520500004c
:020000040000fa
:04015c005205000048
:020000040000fa
:040160005205000044
:020000040000fa
:040164005205000040
:020000040000fa
:04016800520500003c
:020000040000fa
:04016c003c0500004e
:020000040000fa
:04017000c4040000c3
:020000040000fa
:040174005205000030
:020000040000fa
:04017800520500002c
:020000040000fa
:04017c005205000028
:020000040000fa
:040180005205000024
:020000040000fa
:040184005205000020
:020000040000fa
:04018800520500001c
:020000040000fa
:04018c005205000018
:020000040000fa
:040190005205000014
:020000040000fa
:040194005205000010
:020000040000fa
:04019800520500000c
:020000040000fa
:04019c005205000008
:020000040000fa
:0401a0005205000004
:020000040000fa
:0401a4005205000000
:020000040000fa
:0401a80052050000fc
:020000040000fa
:0401ac0052050000f8
:020000040000fa
:0401b00052050000f4
:020000040000fa
:0401b40052050000f0
:020000040000fa
:0401b80052050000ec
:020000040000fa
:0401bc0052050000e8
:020000040000fa
:0401c00052050000e4
:020000040000fa
:0401c40052050000e0
:020000040000fa
:0401c80052050000dc
:020000040000fa
:0401cc0052050000d8
:020000040000fa
:0401d00052050000d4
:020000040000fa
:0401d40052050000d0
:020000040000fa
:0401d80052050000cc
:020000040000fa
:0401dc0052050000c8
:020000040000fa
:0401e00052050000c4
:020000040000fa
:0401e40052050000c0
:020000040000fa
:0401e80052050000bc
:020000040000fa
:0401ec0052050000b8
:020000040000fa
:0401f00052050000b4
:020000040000fa
:0401f40052050000b0
:020000040000fa
:0401f80052050000ac
:020000040000fa
:0401fc0052050000a8
:020000040000fa
:04020800520500009b
:020000040000fa
:04020c005205000097
:020000040000fa
:040210005205000093
:020000040000fa
:04021400520500008f
:020000040000fa
:04021800520500008b
:020000040000fa
:04021c005205000087
:020000040000fa
:040220005205000083
:020000040000fa
:04022400520500007f
:020000040000fa
:04022800520500007b
:020000040000fa
:04022c005205000077
:020000040000fa
:040230005205000073
:020000040000fa
:04023400520500006f
:020000040000fa
:04023800520500006b
:020000040000fa
:04023c005205000067
:020000040000fa
:040240005205000063
:020000040000fa
:04024400520500005f
:020000040000fa
:04024800520500005b
:020000040000fa
:04024c005205000057
:020000040000fa
:040250005205000053
:020000040000fa
:04025400520500004f
:020000040000fa
:04025800520500004b
:020000040000fa
:04025c005205000047
:020000040000fa
:040260005205000043
:020000040000fa
:04026400520500003f
:020000040000fa
:04026800520500003b
:020000040000fa
:04026c005205000037
:020000040000fa
:040270005205000033
:020000040000fa
:04027400520500002f
:020000040000fa
:04027800520500002b
:020000040000fa
:04027c005205000027
:020000040000fa
:040280005205000023
:020000040000fa
:04028400520500001f
:020000040000fa
:04028800520500001b
:020000040000fa
:04028c005205000017
:020000040000fa
:040290005205000013
:020000040000fa
:04029400520500000f
:020000040000fa
:04029800520500000b
:020000040000fa
:04029c005205000007
:020000040000fa
:0402a0005205000003
:020000040000fa
:0402a40052050000ff
:020000040000fa
:0402a80052050000fb
:020000040000fa
:0402ac0052050000f7
:020000040000fa
:0402b00052050000f3
:020000040000fa
:0402b40052050000ef
:020000040000fa
:0402b80052050000eb
:020000040000fa
:0402bc0052050000e7
:020000040000fa
:0402c00052050000e3
:020000040000fa
:0402c40052050000df
:020000040000fa
:0402c80052050000db
:020000040000fa
:0402cc0052050000d7
:020000040000fa
:0402d00052050000d3
:020000040000fa
:0402d40052050000cf
:020000040000fa
:0402d80052050000cb
:020000040000fa
:0402dc0052050000c7
:020000040000fa
:0402e00052050000c3
:020000040000fa
:0402e40052050000bf
:020000040000fa
:0402e80052050000bb
:020000040000fa
:0402ec0052050000b7
:020000040000fa
:0402f00052050000b3
:020000040000fa
:0402f40052050000af
:020000040000fa
:0402f80052050000ab
:020000040000fa
:0402fc0052050000a7
:020000040000fa
:0403000052050000a2
:020000040000fa
:04030400520500009e
:020000040000fa
:04030800520500009a
:020000040000fa
:04030c005205000096
:020000040000fa
:040310005205000092
:020000040000fa
:04031400520500008e
:020000040000fa
:04031800520500008a
:020000040000fa
:04031c005205000086
:020000040000fa
:040320005205000082
:020000040000fa
:04032400520500007e
:020000040000fa
:04032800520500007a
:020000040000fa
:04032c005205000076
:020000040000fa
:040330005205000072
:020000040000fa
:04033400520500006e
:020000040000fa
:04033800520500006a
:020000040000fa
:04033c005205000066
:020000040000fa
:040340005205000062
:020000040000fa
:04034400520500005e
:020000040000fa
:04034800520500005a
:020000040000fa
:04034c005205000056
:020000040000fa
:040350005205000052
:020000040000fa
:04035400520500004e
:020000040000fa
:04035800520500004a
:020000040000fa
:04035c005205000046
:020000040000fa
:040360005205000042
:020000040000fa
:04036400520500003e
:020000040000fa
:04036800520500003a
:020000040000fa
:04036c005205000036
:020000040000fa
:040370005205000032
:020000040000fa
:04037400520500002e
:020000040000fa
:04037800520500002a
:020000040000fa
:04037c005205000026
:020000040000fa
:040380005205000022
:020000040000fa
:04038400520500001e
:020000040000fa
:04038800520500001a
:020000040000fa
:04038c005205000016
:020000040000fa
:040390005205000012
:020000040000fa
:04039400520500000e
:020000040000fa
:04039800520500000a
:020000040000fa
:04039c005205000006
:020000040000fa
:0403a0005205000002
:020000040000fa
:0403a40052050000fe
:020000040000fa
:0403a80052050000fa
:020000040000fa
:0403ac0052050000f6
:020000040000fa
:0403b00052050000f2
:020000040000fa
:0403b40052050000ee
:020000040000fa
:0403b80052050000ea
:020000040000fa
:0403bc0052050000e6
:020000040000fa
:0403c00052050000e2
:020000040000fa
:0403c40052050000de
:020000040000fa
:0403c80052050000da
:020000040000fa
:0403cc0052050000d6
:020000040000fa
:0403d00052050000d2
:020000040000fa
:0403d40052050000ce
:020000040000fa
:0403d80052050000ca
:020000040000fa
:0403dc0052050000c6
:020000040000fa
:0403e00052050000c2
:020000040000fa
:0403e40052050000be
:020000040000fa
:0403e80052050000ba
:020000040000fa
:0403ec0052050000b6
:020000040000fa
:0403f00052050000b2
:020000040000fa
:0403f40052050000ae
:020000040000fa
:0403f80052050000aa
:020000040000fa
:0403fc0052050000a6
:020000040000fa
:100400008f9420000e7f22000e0188000000000063
:10041000000020000000e000020032000001200087
:100420002002880014000700b90207000000e00065
:1004300003003a00605c2300010020000200370046
:100440000000200001002000810f70000100320038
:1004500014000700000020000000e000020032004d
:1004600000000200000000008c36020000000000c6
:100470000040da000000fe004440a900801c20007b
:100480000000e000030032000020200090018800fe
:100490004440a800000006008a1f78008b1f7800e7
:1004a00000000600a1028800800478000000eb0034
:1004b0001f003700e284440054a0b4009905ba003c
:1004c000e284440054a0b4009906ba00e2844400d7
:1004d00054a0b4000006eb00476fde00fd07b20039
:1004e000ae018800636ce10003003a00eaff0700f8
:1004f0000000eb000e003700606ce10008003a00dd
:10050000004deb000a05e800020039003420ec0041
:100510000af0a0008b05e900f9ff3e000400370057
:100520006168e100010032000086eb000b0007006b
:1005300019c7ba001905ba000e04e00003003a001a
:100540000a00e000dbff3a0000000600fe07b200f0
:10055000ae0288008a047800f5ff37000cd0a300b3
:10056000e20f4d001c00390089027800354dba00b9
:100570000a05e800020039003420ec000af0a0006f
:100580008b05e9000f003200254dba000a05e8008e
:10059000020039003420ec000af0a0008b05e900cd
:1005a000080032000c00e0000600320015cdba0051
:1005b0000a05e800020039003420ec000af0a0002f
:1005c0008b05e9008984e80054a0b4000b00e0002a
:1005d000e2ff3a00000006009902ba00055d7800cb
:1005e0008b05e900f7ff3200c82ade00055d7800c0
:1005f0008b05e900f3ff32000c00e000f1ff320050
:1006000019ddba00eeff3700000000000000000016
:1006100000000000000000000000000000000000da
:1006200000000000000000003600f800809fbe00bf
:10063000829fbe00849fbe00869fbe000200fa001b
:100640000040eb00004f780099070700004f78004a
:100650001e80fb008000eb0091080700000e2900bf
:10066000291807001e80fb008000eb00c71107005f
:100670005140800000002100008060000000e00088
:1006800002003200600e29001f1807005140800050
:1006900000002200008060000000e0000200320044
:1006a000f00e2900181807008bc0a9000080fa007e
:1006b0004f03be004f02be004f01be004f00be0000
:1006c0003600f900004006000000fa008400a9008e
:1006d0000080fa000040060000a0fe003600f8008e
:1006e000849fbe00869fbe003200f8003400f800f0
:1006f00014002000a4018800042020009401880038
:100700000000fa007f19070051408000000021001e
:10071000008060000000e000070032000b88a900a4
:10072000fa0607000004e0000300320041c0b300f5
:1007300020c0b300be18070084e0a9000080fa00c2
:100740003400f9003200f9004f03be004f02be0032
:100750003600f9000080fe000040060000a0fe0008
:100760003600f800849fbe00869fbe003200f8006d
:100770003400f80014002000a401880004202000a8
:10078000940188000200fa000000eb00000f7800de
:1007900081822000914078000180fb0063006000ae
:1007a0008140e8008141780082822000034978007e
:1007b0000000e00003003200e20f5000230032008e
:1007c00030003700f040800001418000020020002e
:1007d000832c24008402070010020700000f780019
:1007e0001e0078000000e0000a0032000142800094
:1007f000f0ff270000806000004288001142800066
:10080000c0ff2f00008060000000a00010428800a0
:100810000800370001428000f0ff270000806000e0
:100820000042880011428000c0ff2f00008060005d
:10083000104288004168a8004248a8001e007800c5
:100840008000eb00360d07000e0037004168a9005c
:1008500001428000f0ff2700008060000042880015
:1008600011428000c0ff2f0000806000104288000d
:100870004268a8001e0078008000eb00280d0700e9
:10088000000000008460a9000080fa003400f90034
:100890003200f9004f03be004f02be003600f900df
:1008a0000080fe00004006003600f800809fbe0079
:1008b000829fbe00849fbe00869fbe000200fa0099
:1008c0000040eb00004f78000040eb00004f780044
:1008d0000600370010118000610060000000e00099
:1008e000010032003b1107001e4fe8001e40780057
:1008f000e34f5000f7ff36008560a9000080fa0042
:100900004f03be004f02be004f01be004f00be00ad
:100910003600f900004006003600f800809fbe0057
:10092000829fbe00849fbe00869fbe000200fa0028
:100930000040eb00004f78000040eb00004f7800d3
:100940000600370090118000610060000000e000a8
:1009500001003200381107001e4fe8001e407800e9
:10096000e34f5000f7ff360087c0a9000080fa006f
:100970004f03be004f02be004f01be004f00be003d
:100980003600f900004006003600f800809fbe00e7
:10099000829fbe00849fbe00869fbe000200fa00b8
:1009a0000040eb00004f78000040eb00004f780063
:1009b0000600370090128000610060000000e00037
:1009c00001003200371107001e4fe8001e4078007a
:1009d000e34f5000f7ff36008e40a9000080fa0078
:1009e0004f03be004f02be004f01be004f00be00cd
:1009f0003600f90000400600801f78000000fa0071
:100a000010118000620060000000e0000100320070
:100a10002222a90010118000640060000000e000a4
:100a2000010032002242a90010118000680060001d
:100a30000000e000010032002262a9008c20a90021
:100a40000080fa004f00780000400600801f780008
:100a50000000fa0090118000620060000000e000d9
:100a6000010032003222a9008c40a9000080fa0067
:100a70004f00780000400600801f78000000fa0058
:100a800090128000620060000000e000010032006f
:100a90005222a9008e20a9000080fa004f007800a1
:100aa00000400600801f78000000fa00000480006b
:100ab000640060000000e000010032008040a900f6
:100ac00000048000680060000000e00001003200c7
:100ad0008060a90000048000700060000000e00059
:100ae000010032008080a900000204000000000024
:100af0000080fa004f00780000400600809fbe0092
:100b0000829fbe000000fa00411080000008200013
:100b1000008060000000e0000200320008e2a9004e
:100b2000f700370048c8bf000080fb00cf80de0020
:100b3000d200200003002000820f5000838f580055
:100b4000ee003e00006001000d003700230037007a
:100b5000290037007e00370052003700e7003700d9
:100b6000c80037009a003700a8003700c0003700df
:100b7000aa003700e1003700e0003700c500370069
:100b800029c8bf000004e000db003a000602a8000c
:100b900080932000104078000080fb0050418800c6
:100ba000d049800060418800c09320001040780048
:100bb00029e8b700f04980007041880000942000c7
:100bc0001041780001832000824878003168ef00ee
:100bd00020c0b30048e8b700c80037000622a800cc
:100be000c09320001040780029e8b70020c0b3006f
:100bf00048e8b700c100370030c8bf00614060005e
:100c00000004e0000f003a0030c8bf0064406000fc
:100c10000004e00006003200504180000000a00007
:100c20001010880070c0b30048e8b700b300370068
:100c3000504180001010880030c0b30048e8b70071
:100c4000ae00370031c8bf000004a2000004e0007d
:100c500005003200504180001010880040c0b300f1
:100c600048e8b700a500370030c8bf006440600006
:100c70000004e00006003200504180000000a000a7
:100c80001010880070c0b30048e8b7009b00370020
:100c9000504180001010880030c0b30048e8b70011
:100ca000960037004110800000002800008060009e
:100cb0000000e0000600320009e2a9000642a80098
:100cc0008620a900e0c0b30048e8b7008b003700d9
:100cd00030c8bf00624060000004e000090032003c
:100ce0003028a900604180004800de000040780004
:100cf0000080fb001010880040c0b30048e8b70037
:100d00007e00370060418000004078000080fb00da
:100d10001010880030c8bf00644060000004e0008c
:100d20000800320010c0b30031e8b7005041800025
:100d30000000a0005041880010c0b30048e8b70090
:100d40006e00370030c0b30048e8b7006b003700d2
:100d50004110800000002800008060000000e000da
:100d60000600320009e2a9000642a8008620a90078
:100d7000e0c0b30048e8b7001500370029c8bf003d
:100d80008080fb008100e900cf08de008140780010
:100d90000040e90029e8b7000104e0000500320046
:100da0000642a8008620a90060c0b30048e8b7004a
:100db0005200370070418000904078008180fb0035
:100dc000111088000000e800704188004b003700d7
:100dd0004110800000002800008060000000e0005a
:100de000060032000642a8008620a900e0c0b30039
:100df00048e8b70009e2a900400037000662a800f1
:100e0000a0c0b30048e8b7003c003700a0c0b30062
:100e100048e8b7000662a80038003700704180003b
:100e20000110800081407800014878000000e8004f
:100e30007041880029c8bf000040e90029e8b700d8
:100e400029c8bf000004e0000400320006a2a90087
:100e500080c0b30048e8b7000300370006a2a8002e
:100e600090c0b30048e8b7000682a800230037000e
:100e700006a2a9000642a800d0c0b30048e8b70007
:100e80001e0037000642a800d0c0b30048e8b700f3
:100e90001a0037002a28ef002e28ef002c28ef0038
:100ea0002968ef003048a900804180004200de0040
:100eb0006140600061406000018320009140780043
:100ec0000104a10000c0700030e8b700804180003c
:100ed00061406000614060000040400001832000ec
:100ee000914078000114a10000c0700030e8b70004
:100ef0003168ef0001003700000000008620a900e3
:100f00000080fa004f01be004f00be000040060006
:100f100000000500889fbe008a9fbe008c1f7800dd
:100f200099000700a000330003866c006450e100c4
:100f30002e0032006420e100330032006150e100f5
:100f40002f0032006120e10031003200858555001c
:100f5000eb07b0000900200008042000050037005e
:100f60000804440089844c000a0031000603430051
:100f700087834b000001530081815b00f8ff330041
:100f80000203be000800a0000804440089844c004d
:100f9000f6ff3900c639dd0083017300010032001d
:100fa000130020008904d1000884d3000998a3000d
:100fb000050032000800a7000300a0008904d1004a
:100fc0000884d3008b05e8008904d1000884d3008d
:100fd0000001eb000281d2003000070001f0a10007
:100fe0000cf0a70001f0a000780037006420e100b9
:100ff0007a0032000801be000200be00f7ff370091
:101000006120e100750032006000b800f3ff370096
:101010000000200001f82700f0ff37000001be00ab
:10102000440007000470a70003f0a10003f8a30028
:1010300013003a006509b1001000320009003500c4
:101040006928e100020035000100280000000500c9
:1010500000004000818048008502e900fcff3a0062
:1010600000000600f88f4200050035008100d10025
:101070000080d3008502e800fcff3a000000060073
:101080008000eb00000005004f89de00820178003f
:10109000980237006011b800a602370081002000d6
:1010a000618055000b003d000b00200061fe2f0009
:1010b0000100e1001d0034008281710061016400c3
:1010c0008904d1000884d3000000e800faff3a0048
:1010d00071002000610064000300700002006000e5
:1010e0000900320061044400e0844c000988a50036
:1010f000050032008b05e8006808e10002003a00b4
:101100008904d1000884d300f20f20000258e100c6
:1011100005003d00c75ddd00f907b200898075005c
:1011200008007800000006000bf827008b0078000c
:1011300000000500c70ade00f107b200f50fb2009b
:1011400008003200e1cf4200020032000170a0002e
:1011500024000500810f7000010032000408050022
:1011600044000500810f700002003a0014000500e1
:101170008502e9000000400081c04800fcff3b0000
:101180000170a000240005000004be00e9ff070074
:101190000003be000405be000200be00e5ff07001c
:1011a000844f7500000006000200be006450e1009c
:1011b000050036006420e100020036000968a30043
:1011c00001003a000800be000160a0004f06780050
:1011d0004f05be004f04be0000000600f0ff2f00c8
:1011e000f1ff2700f9ff3700889fbe008a9fbe00ed
:1011f0008c1f7800e4ff0700ebff330003866c00d0
:101200006450e100240032006420e1002700320035
:101210006150e100220032006120e1002100320033
:101220008b854200eb07b1000134b800003ab800ea
:101230000804420089844a00013ab8000030b8002e
:101240008880400009014a0004003300000040008b
:1012500081804800020149008b05e900c909dd00d1
:10126000830170000100320013002000c814de006a
:101270004814dd004709de001200b200c808de0095
:101280000884700085ff070001f0a1000cf0a700a2
:1012900001f0a000cdff37006120e100cfff320058
:1012a0000801be000200be00f7ff37006150e100f8
:1012b000fcff3a00c9ff37000c00fa00889fbe000f
:1012c0008a9fbe008c9fbe00afff07000206be00d3
:1012d000840578000200be0002002000b90107006a
:1012e00005003a008b02b30012002000b501070090
:1012f00001003a00f8856d000c01be00c600070031
:101300000800be009b0032000b08a3009e003a00bc
:101310000df0a7000be0a00009f0a7000bf0a00063
:1013200009f0a1000801be00bb0007000bf0a600f9
:101330009500320001003c000bd0a0008acf750060
:10134000b20033006000b8006250e100990039003b
:10135000a1003e000b28a300a2003a000bf8a30056
:10136000060032000b58a300a70032000801be009f
:10137000a90007000800be00940032000800be006b
:10138000c30007000004be00050578000bf0a700ad
:101390000b30a6000bf0a1005b079800324f200035
:1013a00053f32300ae01070005003d000800be0016
:1013b000120020000e0207000004be000a05e9002a
:1013c0004a0798006150b9002fff0700008fbe0048
:1013d0000c01be0084ff0700a5010700300798003c
:1013e0000100e00002003d0060001000e0801800f5
:1013f000f2ff2700820f5000e08f580064003e008b
:101400000c00be009a01070020079800f207200098
:10141000820f5000e08f580005003c0012f82f00aa
:10142000f3ff2f00820f5000838f580009003d000a
:101430000a00e0000300320001003c000201ea0063
:10144000020578006000b800200798003a0798006d
:10145000190037003e0090006100b9000aff070044
:10146000809fbe000c00be004109dd004811de0077
:101470007208b100530107000005be001e01be0046
:1014800059ff07004f01be008e000700809fbe007d
:101490000c00be000a01be008a0007001e01be004b
:1014a00051ff07004f01be0087000700822127007f
:1014b00013f323004cff07000005be002e00900030
:1014c0006100b900f0fe070001f0a2000c01be00af
:1014d0007d0007000006be000800be00e601070010
:1014e0000c01be0040ff07000a01be0076000700a5
:1014f000809fbe004a0007002e0590000af0a7005a
:101500000a05ea00050037000800be000801be0019
:1015100035ff07000004be000c00be000801be003d
:101520000a00a70030ff07000006be000a05d10030
:10153000f5ff3a005e01900002e0a60003003700cc
:101540000001be003600070072fe07000004be0066
:101550004f00be00b90007000801be0022ff0700cf
:101560003e019000a2010700de0590000bf0a700ed
:1015700001f0a2004f06be004f05be004f04be00a2
:101580000080fa000000060025000700f9ff370080
:10159000270007006000b8000bd0a7000bc0a00018
:1015a0000be0a7000bc0a2000bc0a70001f82700aa
:1015b000f0ff37000df8a300020032001e00070004
:1015c000190007000bf8a300eaff32000b30a70058
:1015d00001f0a200e7ff37000df8a300f9ff3a0081
:1015e000f7ff37000801be000b000700e6ff3200de
:1015f00001003c000df0a2006000b8000df0a70053
:1016000009000700dbff37000b000700f1ff270090
:10161000f0ff2f00d7ff370001000700100137004f
:1016200001f823000000050001f827000000050074
:1016300020022000010037001002200060428800d4
:10164000000006006022b800060220000000d00062
:101650008180d2000482d2008582d2000000a000e6
:101660000202520083825a0003003100020242004b
:1016700083824a000000a1000603e900f3ff3a005c
:1016800000000600efff07000400be000000060097
:101690000003be00a7fe07006220e1000200320046
:1016a0000600be0005000500e507b100f107b20025
:1016b00004f023008480700007f0a70001f0a00070
:1016c0002400050003f0a200889fbe008a9fbe0090
:1016d0008c1f7800acfe0700b3fe33006450e100bd
:1016e0004f0032006420e1005200320003826c009f
:1016f00007003b000905d0000306d000820f54000c
:101700000c065d00020039000200320089017800f9
:10171000030678008582550004003d000003fd00ab
:101720008103fd008502ea008b854200840f720070
:1017300002003b0060001000e08018006011b8005b
:101740000005eb007a28e1000a0039000600780065
:10175000c75ddd00f707b200878075002d003700f8
:10176000828171000a017800610560008180d100ea
:101770000080d3008502e900f9ff3b000604400029
:101780008784480002003b0060041400e0841c00d1
:101790000988a300070032008a81710082817100ec
:1017a000610164008904d1000884d3008b05e8003e
:1017b000170037000978a30013003a000b00e0007f
:1017c000130034008b05e9000804440089844c00b0
:1017d0000a4474000978a3000d003a000b00e000f1
:1017e000070034008b05e9000804440089844c009c
:1017f00001003a000b0020000978a300f7ff320037
:101800000001eb0002003700828171000a017800bc
:1018100022fe07000cf0a70001f0a0006bfe3700cd
:101820006420e10002003a00838f6c006bfe3300fd
:101830000801be000200be0064fe3700889fbe00a3
:101840008a9fbe008c9fbe000004be0039fe0700c8
:101850000800be006420e10048003e005500320050
:1018600072212700132b24007f00070047003c0053
:101870000800be00c2ec2800e32c2c007800070012
:10188000470035000800be0001f0a1000200200062
:101890000338230072000700430035000800be0033
:1018a000b2a32a0083fb23004ffe070002002000a2
:1018b00003f0230001f0a70003f0a00082ff07005f
:1018c0006b0007000005be00effd070001f0a2005d
:1018d0000006be000200280013f3230042fe0700aa
:1018e0000801be0078ff0700809fbe000c00be000c
:1018f00032082800e3952b003bfe07004f01be0095
:1019000071ff07000006be000001be0036fe0700a2
:10191000809fbe004241250083b8230032fe0700ad
:101920000200200003e8230067ff07000c01be004f
:101930002dfe07000006be004f00be00f2f92b008e
:10194000c3d4230028fe07000200200003f0230078
:101950005dff07000c01be005aff07000001be003a
:101960000c00be006bfd07000200200003f0230006
:1019700055ff0700610145009d0007004f06be00ae
:101980004f05be004f04be000000060001f827000e
:10199000000020002202200062428800f7ff37008a
:1019a0006000b800fbff370001f8230000002000b2
:1019b000f2ff370009f8a300f0ff32006000b80022
:1019c000eeff3700889fbe008a9fbe000003be0066
:1019d000d8fd0700850578008281520002002000b2
:1019e0006220e10004003a00f307b1000400350072
:1019f0007718e100040035000600be00140037002f
:101a00006000b8000f003700f50f2000faff2f002c
:101a10008502d1000a85d3008301e900fcff3b0069
:101a20008184620000046500890f7400f2ff3200b7
:101a30008582ea000a85ea0081846200000465006c
:101a400096fd070007f0a70001f0a0000081eb0061
:101a50000200e0004f05be004f04be00000006007b
:101a600014002000db003700f4ff2f00d9003700fe
:101a70000001be00affd07000470a70003f0a10045
:101a80006509b100160032000d0035006828e1003c
:101a900006003500f0ff2f00f1ff27000300e000f3
:101aa00013003b000100280000000500000040007a
:101ab000818048008502e900fcff3a0008003700f9
:101ac000f88f420002003c008000eb00000005009f
:101ad0008100d1000080d3008502e800fcff3a00bd
:101ae0000300e00002003b0060001000e0801800ee
:101af00000000600881f7800030478000300e0005f
:101b000007003d0060001000e0801800600119002f
:101b1000e081190002003b0001f02d0003003700b6
:101b20000400070008f0a70001f0a0004f047800af
:101b300000000600889fbe008a9fbe0000827000e1
:101b40000402710004827100260032000004be000d
:101b50000200be006011b8006b0920009502200051
:101b60000182cf000a0039000541b1000082cf0098
:101b7000070039000541b1000982cf000400390097
:101b80000541b1000882cf00010039000541b100d4
:101b900005425200120032000a003b0082817100af
:101ba000610164008100d1000080d3008984d300ea
:101bb0000884d3008b05e8000442e800f7ff3a00f0
:101bc000070037000804440089844c0000004800e6
:101bd000818048008b05e9000442e900f9ff3a00e2
:101be0002efd07004f05be004f04be00000006009a
:101bf0000003be004ffd07006220e100020032003a
:101c00000600be000000060085024100e30f200030
:101c10000328e10005003c00a3fe2f000328e1009b
:101c200007003d000500200001003700f50f2000ef
:101c300020022000604288006000b80008003700e1
:101c4000130020008381520005003d008100d10077
:101c50000080d3008301e800fcff3a00050020006b
:101c6000c72add00f107b2008580700007f0a700e9
:101c700001f0a00000000600889fbe008a9fbe0001
:101c80008c9fbe0082fe0700850478000005be0020
:101c90006420e10049003e006220e10003003200c0
:101ca000090035000bf8a300440032000bf8a30034
:101cb000080032001002200060428800f0ff2f0070
:101cc000f1ff27003d00370001f82f000000200041
:101cd0003a0037003d0007007afe07000006be000c
:101ce0000a00be00324f200053f323005eff0700be
:101cf000060034000c00be003400070071fe07002f
:101d00000006be000a00be00020037008904e90098
:101d10000c00be002d00070033fd07002b0007005c
:101d200069fe07000001be000c00be0079fc070040
:101d30000005be000001be002bfd07000006be002e
:101d4000a2f32300430d2c005ffe0700809fbe001e
:101d50000c00be00d2e32700d3f02b0022fd0700c9
:101d60004f01be006bfc07000006be000a01be006a
:101d70001dfd07000a01be0053fe07000006be005d
:101d80006148b900c0fc07000005be003208280009
:101d9000e3952b0014fd07000c01be004afe07006e
:101da0000006be000a00be000200280013f3230054
:101db0000dfd07000c01be0043fe07004f06be00ec
:101dc0004f05be004f04be000000060003f02300d4
:101dd00002000500889fbe008a9fbe00841f780015
:101de000e9fc07004f00780011003300f0ff2f00de
:101df000838f6c0006003b00040565000a00a70005
:101e00000800370009f0a600100020000800370085
:101e1000820f5400838f5c00030039001000200003
:101e200001003e000000200009f0a7000000ea00c9
:101e30004f05be004f04be000000e0000000060099
:101e400000017800820178003204e000fdff3a00d2
:101e500003017800b1417800035978000304e000e1
:081e6000fcff3a00000006003f
:020000040000fa
:101e680041540000264b0000330d00000a0000001a
:101e78004154000026440000310d00000a00000013
:101e8800415400000d0a000000410000542b0000de
:101e980043520000454700003d3200000d0a000093
:101ea800004f00004b000000415400002b4300008d
:101eb800504900004e3f00000d0a0000002b0000b2
:101ec80043500000494e00003a20000052450000ef
:101ed8004144000059000000415400002b43000019
:101ee800494d0000490d00000a000000415400005f
:101ef8002b43000052450000473f00000d0a000038
:101f080000410000542b00004347000052450000e8
:101f1800473f00000d0a0000002c000035000000bb
:101f28002c31000000410000542b000043530000f6
:101f3800434100000d0a000000410000542b00003e
:101f48004b4300004e58000043460000473d000048
:101f5800312c00002247000050520000532200009c
:101f68002c220000434d00004e4500005422000082
:101f78000d0a000000410000542b00004b540000e3
:101f88004350000043460000473d0000312c00004c
:101f9800302c0000227d00003b2f00002f31000074
:101fa800333900002e310000393600002e31000090
:101fb800323200002e31000035390000222c00009a
:101fc80035300000383000000d0a00000a0000001b
:101fd800415400002b4b00005443000050530000b4
:101fe80054410000525400003d3100000d0a000029
:101ff800004300004f4e00004e45000043540000cf
:1020080000410000542b00004b54000043500000d6
:10201800434c00004f530000453d0000312c0000a8
:10202800310d00000a000000415400002b4b000055
:102038005443000050440000454c00003d3100006e
:102048000d0a000000010000020300000400000067
:10205800363700001300000012240000ff2500009e
:1020680037130000ff36000000120000242500008e
:10207800363700002512000000ff0000132400007e
:10208800363700001300000025ff0000122400006e
:102098003713000024250000ff360000001200005e
:1020a800361300000024000025ff0000371200004e
:1020b800361300000012000024250000ff3700003e
:1020c8003637000013ff000000120000242500002e
:1020d80036370000130000001224000025ff00001e
:1020e800363700001300000024250000ff1200000e
:1020f80000020000080a00000c0e0000100000009a
:102108005747000043000000000600000a0b0000cb
:102118000f1100000103000000640000000200002d
:1021280085d400004750000052530000204f0000a3
:102138004e6c0000696e0000652000004e6f0000c4
:102148007721000021210000000d00000a4700004f
:10215800505200005320000044690000616c0000e8
:10216800696e000067460000616900006c2100008c
:1021780021210000436f0000646500003a00000060
:1021880031320000333400003537000038390000a0
:10219800303100003233000034350000363700009b
:1021a800383900003000000020170000103000000f
:1021b800125900000000000057470000430d0000be
:1021c8000a000000536100006d7000006c6500009b
:1021d8000d0a000000530000656e0000640d000049
:1021e8000a000000537400006172000074000000cf
:020000040000fa
:1021f8000000fa0070cbb30017e8b70060cfb30057
:1022080016e8b700a0c4b30015e8b70040c4b3008f
:1022180014e8b700e03c2100e0408800314080002d
:1022280000802f00008060000010a000304088006f
:10223800414080000000280000806000c000b3001a
:10224800404088000b08a9000b28a90030c0b30043
:102258000ae8b7000b68a8000080fa000000060032
:102268001600fa000040eb00004f7800310d07001f
:102278007710070050c0b3008c08070010c0b300e7
:102288004ae8b700a20c0700104798001e409000cb
:102298000004e00011003a00cc11070020c0b30090
:1022a8004ae8b70010c0b30080080700cb11070048
:1022b8000e80e8004c030700004f78000e80e8000d
:1022c8009e4078008d10070010c0b3007708070003
:1022d800600929000a1107000700370060c0b30031
:1022e8004ae8b700900a2900051107001e4090002f
:1022f8000080fb00a30a0700d50c07000080fa0045
:10230800000006007200fa008e0078000102b0009a
:10231800090009008018eb0010c0b300006798009e
:1023280030c0b3001067980040c0b3002067980021
:102338008e0078004103b000180009008018eb00f7
:102348008e0078006106b000050009008018eb00d7
:102358000040eb00004f7800000220000e00400013
:102368003007980030c0b300004f980000022000ea
:102378000e0040005007980090c0b300404f9800ee
:10238800400320000e004000100798001e4fe80090
:102398001e407800e54f5000020036000040eb0078
:1023a8003f00370081002000e0082900b91007002d
:1023b80010c0b3003d080700400320000e00400095
:1023c80022c3b3008000780080782200e30b070066
:1023d800404798000e80e8001d0b07000004a2008b
:1023e8000004e000e9ff3a00000220000e0040006f
:1023f8006300400080007800e08120002c0707007f
:102408006e0047004409070000c2b30060e7980067
:102418004e0890000040780070e798003e08900051
:102428000040780000ef98002e08900000407800e7
:1024380010ef98001e0890000040780020ef9800e8
:102448000e0890000040780030ef98007e00900061
:102458000040780040ef9800000220000e00400085
:10246800e3004000600620000e00400067004000c6
:1024780042c0b3002a080700600620000e00400092
:10248800b1c0b3002e0f07000040780010f7980085
:10249800400320000e0040008e0d070010c0b3005e
:1024a8000080fa00000006000400fa006000b8008e
:1024b800008fbe0051408000008020000080600036
:1024c8000000e000590032000b68a900414080007c
:1024d800f0ff2700008060006500b9000000780068
:1024e800cf80de00f2ff2f0013002000800278006a
:1024f80081007800020278000300780004826200fc
:10250800008060008000eb00c000dd0000002000bb
:102518000001be006120b8000001710081817100d6
:102528000200be0060408800618060007140800049
:102538000100a10001007000704088003140800057
:10254800f07f2000008060006c00b90080007800f7
:1025580042408000f0ff2700000061000001780081
:10256800110009008200d80080007800f0ff2700e1
:10257800008060000000400071408000e180600041
:10258800010070007040880031408000f07f20001a
:102598000080600080007800c00320000088b90037
:1025a80000007800cf80de00f2ff2f00130020002b
:1025b8008002780081007800020278000300780029
:1025c80004826200008060008000eb00c000dd0033
:1025d800000020000001be006120b8000001710069
:1025e800818171000200be00804088006180600027
:1025f800914080000100a100010070009040880017
:102608009040800061006000904088006040800039
:1026180072408000e1006100008fbe001e01be0014
:1026280012418800234188009800370026c8bf005f
:102638008080fb00704080000000d1000000e900ad
:10264800808f500012003d000b88a800a6110700db
:1026580084e0a80026c8bf000040e80026e8b700cc
:102668006040800072408000e1006100008fbe0081
:1026780010418000214180003e014000ae814800a9
:102688000200be0010418800214188007f00370009
:102698008040800092408000e10061000001be009f
:1026a8001041800021418000800f5100818f590026
:1026b8004e003200904080000000a1000000e000c1
:1026c8003300320090408000610060009040880034
:1026d8000ba8a8002668ef006040800072408000c8
:1026e800e10061000001be0010418000214180002e
:1026f8000200400083804800104188002141880082
:102708001441800025418000804080009240800074
:10271800e10061000001be000400be00d7fb070015
:10272800008fbe001e01be001241880023418800b0
:102738008040800092408000e10061000001be00fe
:10274800104180002141800000025100818259001f
:102758006040800072408000e10061000001be001e
:102768000400be00b5fb0700000078008000e80008
:10277800f0ff2700008060000000400071408000ea
:10278800e180600001007000704088003f00370061
:102798000b88a8005411070084e0a800904080002e
:1027a8000000d1000000e80080007800f0ff27005a
:1027b800008060000000400091408000e1806000df
:1027c80001007000904088008040800092408000a6
:1027d800e10061000001be0010418000214180003d
:1027e800001f510001975900280037000ba8a800c6
:1027f800504080004d00de00614060000080fb001a
:10280800610060004c00dd005140800001c0a10063
:1028180001007000504088003311070084e0a800d0
:102828002668ef006040800072408000e10061008f
:10283800008fbe006040800072408000e1006100af
:102848001041880021418800844080009040800029
:10285800e10260006040800072408000e100610099
:102868000001be000400be0074fb07008000780071
:10287800f0ff2700008060000000400071408000e9
:10288800e180600001007000704088001e00be00fa
:102898000080fa00000006001800fa00200f9800d7
:1028a800310f9800000000000e80e8001a080700a9
:1028b8000000e000fcff32001e009000004078009d
:1028c80029060700ae08900081407800014f4000bb
:1028d8009e80fb00c0032000000178001100090061
:1028e8008280d8008000fd00004078002e06070096
:1028f8000080fb00100798009e80fb00c0032000aa
:1029080000017800110009008280d8001047980063
:102918001e4090000004e0002d0032002e009000c0
:1029280000407800100607009e409000014f4000cc
:102938009e80fb00c0032000000178001100090000
:102948008280d8008000fd0000407800160607004d
:102958000080fb00200798009e80fb00c003200039
:1029680000017800110009008280d8001047980003
:102978001e4090000004e000150032003e00900068
:1029880000407800f80507009e409000014f400085
:102998009e80fb00800120000001780011000900e2
:1029a8008280d8008000fd0000407800fe05070006
:1029b8000080fb00300798009e80fb00800120000b
:1029c80000017800110009008280d80010479800a3
:1029d800f287470072805700e200470008000900ac
:1029e800311878002001b100a6070700f2875700c8
:1029f8000080fa00000006007c00fa006e00470024
:102a0800100798001e00900022c3b30080007800d1
:102a180080782200510a07004047980040082900a2
:102a28003007980030c0b300004f98000004200021
:102a38000e00400050079800e0c1b300404f9800d6
:102a48000040eb00504f98000e80e8008009070016
:102a58000004e0006f0032005e48900080c0e9008a
:102a6800000420000e00400001417800800078003a
:102a780020022300c80d07000004e00065003200b2
:102a8800010420008e804000e00520000e00400078
:102a980042c0b300a2060700000420000e00400058
:102aa80064004000104078008080fb000004200093
:102ab8000e00400065004000104078000080fb00d8
:102ac8000080400081082900e140780000042000cf
:102ad8000e00400064004000104078000080fb00b9
:102ae800820829006240780000c0500020e7980062
:102af800000420000e0040006300400010407800f1
:102b08000080fb00e30f500026003200e40f500065
:102b18003e003a002ee19000000420000e00400024
:102b2800e6004000e00520000e004000650040007f
:102b38007b0607002ee09000e5404000e0052000fd
:102b48000e0040003d0d07000040eb00004f7800ec
:102b5800070037004ec090009e4040003ec09000e5
:102b6800020420000e0141002d0007001e4fe8005e
:102b78005ec090009e4f5000f6ff3e00d60707004b
:102b88000b68a8008bc0a8002ee090000080fb0016
:102b9800e7004000e00520000e004000bd0e0700e1
:102ba8001a0037005d0107000040eb00004f780075
:102bb800070037004ec090009e4040003ec0900085
:102bc800e20520000e014100150007001e4fe80035
:102bd8005ec090009e4f5000f6ff3e002ee0900031
:102be800e5404000e00520000e004000130d0700fe
:102bf8002ee090000080fb00e7004000e005200088
:102c08000e004000a30e07000000000010c0b30033
:102c1800010037000040eb000080fa0000000600c9
:102c28000400fa00004f7800114798001207980036
:102c38001e80fb00e30f500074003200e40f5000c8
:102c4800e7003a001e4090000080fb00e20f5000b1
:102c58004b003200e20f500005003c000000e0008d
:102c680008003200e10f50001f003200dc0037007e
:102c7800e30f500047003200e40f500056003200c6
:102c8800d70037001e009000660040001040780012
:102c980000e8b7001e009000670040001040780070
:102ca80001e8b7001e00900068004000104078005e
:102cb80002e8b7001e00900069004000104078004c
:102cc80003e8b7001e0090006a004000104078003a
:102cd80004e8b7001e0090006b0040001040780028
:102ce80005e8b700480037001e0090006c0040005f
:102cf800104078000080fb00c800dd001e00900036
:102d08006d004000104078000080fb00808040008b
:102d1800f07f200080806000f07f2000008060004d
:102d28003240800001802f008100610001007000a6
:102d3800304088001e0090006e004000104078006f
:102d48008080fb001e0090006f004000104078005b
:102d58000080fb0080804000f0ff2700808060003a
:102d6800f0ff27000080600042408000010028003a
:102d78008100610001007000404088002200370097
:102d88001e00900070004000104078000ae8b7006c
:102d98001d0037001e0090007100400010407800b0
:102da80014e8b7001e009000720040001040780040
:102db80015e8b7001e00900073004000104078002e
:102dc80016e8b7001e00900074004000104078001c
:102dd80017e8b7000c0037001e009000750040008f
:102de800104078000080fb00c800dd001e00900045
:102df80076004000104078000080fb000080400012
:102e0800e040880000000000750037001e40900078
:102e18000080fb00e20f50004a003200e20f500031
:102e280005003c000000e00008003200e10f5000ff
:102e3800250032006a003700e30f500047003200d7
:102e4800e40f50005a003200650037001e00900061
:102e5800650040000180200091407800014878001a
:102e68001e0090006600400011802000914078000c
:102e7800014878001e009000670040002180200073
:102e880091407800014878001e00900068004000da
:102e98003180200091407800014878001e009000a1
:102ea8006900400041802000914078000148780086
:102eb8001e0090006a004000518020009140780078
:102ec80001487800460037001e0090006b00400063
:102ed80032408000f17f200081006100c888de0058
:102ee80081407800014878001e0090006c00400086
:102ef80032408000f17f200081006100814078002d
:102f0800014878001e0090006d004000424080009b
:102f1800f1ff270081006100c888de008140780049
:102f2800014878001e0090006e004000424080007a
:102f3800f1ff270081006100814078000148780096
:102f4800270037001e0090006f004000a18020007d
:102f58009140780001487800210037001e00900059
:102f6800700040007181200091407800014878008d
:102f78001e0090007100400061812000914078009f
:102f8800014878001e009000720040005181200026
:102f980091407800014878001e00900073004000be
:102fa8004181200091407800014878000c003700ea
:102fb8001e00900074004000e1408000c808de0058
:102fc80081407800014878001e009000750040009c
:102fd800e14080008140780001487800000000004e
:102fe8000080fa00000006001800fa00300f980070
:102ff8000040eb00004f78003e08900011c4b30079
:10300800014878003e0890000000e80021c3b300a2
:10301800014878003e0890000080e80041c1b300f4
:103028000148780000000000640047003a060700e5
:103038000000e000fcff32003e0890006300400002
:10304800fe00900081407800014878003e0890001a
:1030580064004000ee00900081407800014878004c
:103068003e08900065004000de0090008140780036
:10307800014878003e08900066004000ce009000ad
:1030880081407800014878003e08900067004000c1
:10309800be00900081407800014878003e0890000a
:1030a80068004000ae009000814078000148780038
:1030b80090c0b300004f78003e08900069004000bf
:1030c80080007800e0812000e2030700d1c0b3004f
:1030d8003e089000d90b0700100798003e089000a2
:1030e8006d0040009e009000c808de008140780016
:1030f800014878003e0890006e0040009e00900055
:103108008140780001487800f0c0b300004f780093
:103118001e4078000080fa00000006001200fa0045
:10312800000000000e007800fb0507000000e0002a
:10313800fcff32005e0090000040780000e8b70015
:103148004e0090000040780001e8b7003e00900073
:103158000040780002e8b7002e0090000040780098
:1031680003e8b7001e0090000040780004e8b700ac
:103178001e0078000040780005e8b7000080fa00db
:10318800000006000000fa000080eb00402c8800d8
:1031980030002000502c88009a25ef00d02c8000a9
:1031a800c02c8800c02c8000902c8800902c8000b7
:1031b800802c8800b225ef00902d8000802d88009b
:1031c800802d8000102d8800102d8000002d880093
:1031d80040002000002c8800f00f2800102c8800e8
:1031e80020002000302c8800112c8000f07f2c005b
:1031f80000806000102c8800b0002800202c880077
:103208000080fa00000006000200fa00004f780073
:10321800114798009e4090001e4078000200070069
:103228000080fa00000006000400fa002047980019
:10323800314798002e4090008080fb00200120003c
:1032480000017800110009008280d800004f780042
:103258002e4090008080fb002001200000017800b3
:10326800110009008280d8008000fd0010479800f6
:103278001e80fb00e10f500039003200e10f5000c2
:1032880003003c000000e00006003200c1003700e7
:10329800e20f500061003200e30f50008e00320050
:1032a800bc0037001e409000ef4f5000170036005a
:1032b8003e4090000004e000090032001e409000eb
:1032c8000080fb006f006000110020000008dd0096
:1032d80080007800902c8000010070000900370001
:1032e8001e4090000080fb006f006000110020006d
:1032f8000008dd000080ea0080007800902c800043
:1033080000806000902c8800a20037003e409000aa
:103318000004e000080032001e4090000080fb001e
:10332800110020000008dd0080007800802c80005b
:1033380001007000080037001e4090000080fb006c
:10334800110020000008dd000080ea0080007800fd
:10335800802c800000806000802c88008d00370061
:103368001e409000ef4f5000170036003e4090007e
:103378000004e000090032001e4090000080fb00bd
:103388006f006000110020000008dd008000780058
:10339800d02c800001007000090037001e4090000a
:1033a8000080fb006f006000110020000008dd00b5
:1033b8000080ea0080007800d02c80000080600047
:1033c800d02c8800730037003e4090000004e000d5
:1033d800080032001e4090000080fb001100200011
:1033e8000008dd0080007800c02c8000010070001b
:1033f800080037001e4090000080fb0011002000ec
:103408000008dd000080ea0080007800c02c800001
:1034180000806000c02c88005e0037001e409000cd
:10342800ef4f5000170036003e4090000004e000c7
:10343800090032001e4090000080fb006f00600011
:10344800110020000008dd0080007800102d8000a9
:1034580001007000090037001e4090000080fb004a
:103468006f006000110020000008dd000080ea0005
:1034780080007800102d800000806000102d8800ea
:10348800440037003e4090000004e000080032008d
:103498001e4090000080fb00110020000008dd00a5
:1034a80080007800002d80000100700008003700bf
:1034b8001e4090000080fb00110020000008dd0085
:1034c8000080ea0080007800002d80000080600005
:1034d800002d88002f0037001e409000ef4f50004d
:1034e800170036003e4090000004e000090032005a
:1034f8001e4090000080fb006f006000110020005b
:103508000008dd0080007800502d80000100700068
:10351800090037001e4090000080fb006f0060002b
:10352800110020000008dd000080ea00800078001b
:10353800502d800000806000502d88001500370055
:103548003e4090000004e000080032001e40900059
:103558000080fb00110020000008dd0080007800da
:10356800402d800001007000080037001e409000c8
:103578000080fb00110020000008dd000080ea0048
:1035880080007800402d800000806000402d880079
:10359800000000000080fa00000006000400fa00a5
:1035a800204798003147980010c0b3001047980092
:1035b8000040eb00004f7800260037002e409000b6
:1035c8008080fb001e80fb00c308dd0000804000f7
:1035d800c102290061407800e14f400006003a002e
:1035e8001e4090000004e000030032000040eb00a1
:1035f80010479800160037002e4090008080fb008e
:103608001e80fb00c308dd0000804000c1022900c5
:10361800614078008080fb003e4090000080fb0005
:10362800c2072900624078000080fb0080804000cb
:103638008004200000017800110009008200d800f1
:103648008000fd00004078009e409000f6fe0700d4
:103658001e4fe8001e407800e74f5000d7ff3600a5
:103668000080fa00000006000200fa00004f78000f
:103678001e80fb00e10f500017003200e10f5000e0
:1036880003003c000000e00006003200390037006b
:10369800e20f50001d003200e30f500028003200f6
:1036a8003400370011c0b300b0c3b300defe07001a
:1036b8008040eb0090c2b300dbfe07008040eb00c7
:1036c80070c1b300d8fe07008040eb0050c0b300c3
:1036d800d5fe07003400370011c0b300b0c3b300f3
:1036e800d1fe070011c0b30090c2b300cefe0700a0
:1036f8008040eb0070c1b300cbfe07008040eb00b8
:1037080050c0b300c8fe07002700370011c0b3003f
:10371800b0c3b300c4fe070011c0b30090c2b30029
:10372800c1fe070011c0b30070c1b300befe0700a0
:103738008040eb0050c0b300bbfe07001a00370002
:1037480011c0b300b0c3b300b7fe070011c0b30087
:1037580090c2b300b4fe070011c0b30070c1b3003b
:10376800b1fe070011c0b30050c0b300aefe0700a1
:103778000d0037008040eb00b0c3b300aafe07007d
:103788008040eb0090c2b300a7fe07008040eb002a
:1037980070c1b300a4fe07008040eb0050c0b30026
:1037a800a1fe0700000000000080fa0000000600eb
:1037b8000200fa00004f78001e80fb00e20f500064
:1037c80017003200e20f500003003c00e10f5000e8
:1037d8000600320039003700e30f50001d003200a8
:1037e800e40f5000280032003400370011c0b30045
:1037f800c0c3b3008cfe07008040eb00a0c2b3003a
:1038080089fe07008040eb0080c1b30086fe0700f8
:103818008040eb0060c0b30083fe0700340037002f
:1038280011c0b300c0c3b3007ffe070011c0b300ce
:10383800a0c2b3007cfe07008040eb0080c1b3004b
:1038480079fe07008040eb0060c0b30076fe0700f9
:103858002700370011c0b300c0c3b30072fe0700d1
:1038680011c0b300a0c2b3006ffe070011c0b300bf
:1038780080c1b3006cfe07008040eb0060c0b3005d
:1038880069fe07001a00370011c0b300c0c3b300b7
:1038980065fe070011c0b300a0c2b30062fe0700b6
:1038a80011c0b30080c1b3005ffe070011c0b300b0
:1038b80060c0b3005cfe07000d0037008040eb00dd
:1038c800c0c3b30058fe07008040eb00a0c2b3009d
:1038d80055fe07008040eb0080c1b30052fe070090
:1038e8008040eb0060c0b3004ffe070000000000fe
:1038f8000080fa00000006000a00fa00889fbe0057
:103908002007980031079800024f98000040eb000c
:10391800104798002e009000be009000e00f500065
:10392800e08f580004003a008040eb000040eb00b4
:103938001aff07002b00370060c0b300004f780063
:10394800250037002e009000be009000cff507003c
:103958000004be001e00fb00cf80de00c8f5070093
:103968000001be00000020000112240050f60700ec
:103978000001be000800be0064f50700a5f50700b9
:10398800a2002000030020003cf707002047980011
:103998002e4090000004e0000700320010c0b30081
:1039a800104798001e407800804078002e40900014
:1039b800fafe0700070037001e4090000004e000f0
:1039c800040032001e407800804078002e409000ad
:1039d800f2fe07001e4fe9001e4078000004e000d8
:1039e800d8ff3d004f04be000080fa00000006002a
:1039f8001200fa007a000700000000000e007800ac
:103a0800c50307000000e000fcff32002e00900014
:103a18004480de000040780051c0b300dffe07009c
:103a28002e009000410020000103070000407800ac
:103a380041c0b300d9fe07001e0090004480de009c
:103a48000040780031c0b300d4fe07001e0090008b
:103a580041002000f60207000040780021c0b300b2
:103a6800cefe07001e0078004480de00004078008b
:103a780011c0b300c9fe07001e00780041002000f5
:103a8800eb020700004078008040eb00c3fe07000f
:103a98000080fa00000006000200fa00004f7800db
:103aa8001e80fb00e20f500017003200e20f5000aa
:103ab80003003c00e10f50000600320039003700d7
:103ac800e30f50001d003200e40f500028003200c0
:103ad8003400370011c0b30010c0b300d2fd070096
:103ae8008040eb0030c0b300cffd07008040eb0002
:103af80090c0b300ccfd07008040eb00b0c0b3001d
:103b0800c9fd0700340037008040eb0010c0b30047
:103b1800c5fd070011c0b30030c0b300c2fd0700e7
:103b28008040eb0090c0b300bffd07008040eb0071
:103b3800b0c0b300bcfd0700270037008040eb0091
:103b480010c0b300b8fd07008040eb0030c0b300e0
:103b5800b5fd070011c0b30090c0b300b2fd070067
:103b68008040eb00b0c0b300affd07001a0037007b
:103b78008040eb0010c0b300abfd07008040eb00b5
:103b880030c0b300a8fd07008040eb0090c0b30030
:103b9800a5fd070011c0b300b0c0b300a2fd070027
:103ba8000d0037008040eb0010c0b3009efd0700f9
:103bb8008040eb0030c0b3009bfd07008040eb0065
:103bc80090c0b30098fd07008040eb00b0c0b30080
:103bd80095fd0700000000000080fa0000000600c4
:103be8000400fa000040eb0010479800110037006d
:103bf8000040eb00004f7800080037001e4090009e
:103c08007200b90000007800004078001e404000b3
:103c18008040eb0084fd07001e4fe8001e4078003e
:103c2800e34f5000f5ff36001e4090000040e800ca
:103c3800104798001e409000e34f5000ecff3600fc
:103c48000040eb00204798001400370080c0b30004
:103c5800304798000b0037002e4090007200b900e2
:103c680000007800804078003e40900000c040008e
:103c78008040eb006cfd07003e4090000040e800eb
:103c8800304798003e409000f14f5000f2ff360058
:103c98002e4090000040e800204798002e409000f9
:103ca800e34f5000e9ff36000080fa0000000600ec
:103cb8000200fa000040eb0010479800110037009e
:103cc8000040eb00004f7800080037001e409000cd
:103cd8007200b90000007800004078001e404000e3
:103ce8008040eb0050fd07001e4fe8001e407800a2
:103cf800f14f5000f5ff36001e4090000040e800ec
:103d0800104798001e409000e34f5000ecff36002b
:103d18000080fa00000006000400fa00008fbe00d0
:103d2800e3ff070000428000700060000000e00030
:103d38000300320010c0b3004bfe0700020037003a
:103d480040c0b30048fe0700014280000002200086
:103d5800008060000000e0000300320020c0b300d3
:103d680041fe07000200370040c0b3003efe0700d6
:103d78000142800000042000008060000000e00094
:103d88000300320030c0b30037fe070002003700de
:103d980040c0b30034fe0700014280000000240048
:103da800008060000000e00005003200802c8000e8
:103db8000070a000802c8800802c80000400370050
:103dc800802c80000070a100802c8800802c80004e
:103dd8000142800000002100008060000000e00037
:103de80005003200002d80000070a000002d880022
:103df800002d800004003700002d80000070a10015
:103e0800002d8800002d80000142800000802000e5
:103e1800008060000000e00005003200402d8000b6
:103e28000070a000402d8800402d8000040037005d
:103e3800402d80000070a100402d8800402d80009a
:103e48000142800000002200008060000000e000c5
:103e580005003200c02c80000070a000c02c880033
:103e6800c02c800004003700c02c80000070a10026
:103e7800c02c8800c02c80000042800061006000d7
:103e88000000e00005003200402d80000040a00046
:103e9800402d8800402d800004003700402d800010
:103ea8000040a100402d8800402d80000042800085
:103eb800620060000000e00005003200002d800074
:103ec8000040a000002d8800002d8000040037006d
:103ed800002d80000040a100002d8800002d8000ea
:103ee80000428000640060000000e000050032002d
:103ef800c02c80000040a000c02c8800c02c80008e
:103f080004003700c02c80000040a100c02c8800ad
:103f1800c02c800000428000680060000000e000c3
:103f280005003200802c80000040a000802c880012
:103f3800802c800004003700802c80000040a10005
:103f4800802c8800802c800001428000000820001e
:103f5800008060000000e0000300320010c0b300e1
:103f680013fe0700020037000040eb0010fe0700b8
:103f78000142800000102000008060000000e00086
:103f88000300320020c0b30009fe0700020037001a
:103f98000040eb0006fe07000142800000202000e0
:103fa800008060000000e0000300320030c0b30071
:103fb800fffd0700020037000040eb00fcfd070092
:103fc8000142800000402000008060000000e00006
:103fd8000300320040c0b300f5fd070002003700bf
:103fe8000040eb00f2fd070000428000cf00de0039
:103ff80010428000630060000000400000807000f4
:1040080000407800a4fe07001042800064006000b1
:104018000000e000040032000041eb001e00be007a
:1040280035fe070007003700104280006800600076
:104038000000e000020032006dfe070001003700ba
:10404800000000004028ef004228ef000080fa003e
:10405800000006000800fa002007980031079800c1
:10406800ae009000110798000040eb00004f780068
:104078000a0037001e80fb00be0090000080400050
:104088001e0190009e80fb00e3801000810041002b
:1040980091407800014878001e4fe8001e407800e3
:1040a800e34f5000f3ff36000080fa0000000600de
:1040b8000800fa002007980031079800ae00900029
:1040c800110798000040eb00004f78000a00370005
:1040d8009e0090001e80fb00008040009e80fb0038
:1040e800e38010003e01900081004100914078007b
:1040f800014878001e4fe8001e407800e34f50004a
:10410800f3ff36000080fa00000006000800fa00fd
:104118002007980031079800ae009000110798001a
:104128000040eb00004f78000a0037001e80fb00bb
:10413800be009000008040001e0190009e80fb00a1
:10414800e780100081004100914078000148780024
:104158001e4fe8001e407800e74f5000f3ff36007e
:104168000080fa00000006000200fa00881f7800ac
:10417800004f78001e80fb004400de0000407800fd
:104188006a00b90000007800004478001e80fb0037
:1041980041c0b30026010700004044004f047800e6
:1041a8000080fa00000006000400fa00004f7800c2
:1041b8009e80fb00a000200000017800110009008b
:1041c8008280d800004078000080fb004400dd00b9
:1041d80000407800204798001e81fb00a0002000c6
:1041e80080017800110009000381d8008000fd00db
:1041f800004078006f406000ae40900000c0700042
:104208000080fa00000006000600fa00000f78009f
:1042180011079800220798001e0090009e00780061
:10422800808f5000020036000040eb000700370086
:104238002e0090009e007800808f50000200310010
:104248000040eb000100370010c0b3000080fa0006
:10425800000006000a00fa001007980022079800dc
:1042680033079800410798001e009000100078005e
:10427800c800dd001e0090000080e80010007800f3
:10428800008f40001e0078006101b8002e009000e9
:10429800be009000800f5100818f59000400360045
:1042a800ae0090001e00900001087800070037005b
:1042b8004e0090009e007800808f5000030031006f
:1042c8001e009000ce009000010878000080fa00df
:1042d800000006000600fa00100798004147980001
:1042e8000040eb00004f78001b0037001e80fb00e9
:1042f8009e00900000804000904078001147980090
:104308001e80fb009e00900000804000ce40900080
:104318008180fb000101e9009e80fb0081005100c3
:104328001e0190008100410091407800014878000a
:104338004e4090000080fb008000e9001e80fb00da
:10434800008050009e009000008040009e40900039
:10435800014878001e4fe8004e4090000080fb00a6
:104368000000d100004078009e4f5000dfff3e0063
:104378000080fa00000006000400fa0020479800b8
:10438800090037000000eb00000f7800020037003a
:10439800000000001e0fe800b08f20009e0078008b
:1043a800808f5000faff360010c0b300ae40900076
:1043b8000104e00001003c000040eb00ae4090002a
:1043c8008140e900214798000004e000edff3a0031
:1043d8000080fa00000006000400fa002047980058
:1043e800090037000000eb00000f780002003700da
:1043f800000000001e0fe800709d25009e00780058
:10440800808f5000faff360010c0b300ae40900015
:104418000104e00001003c000040eb00ae409000c9
:104428008140e900214798000004e000edff3a00d0
:104438000080fa00000006000600fa0040479800d5
:104448000e0037006000b800008fbe00050037007e
:104458000000000012002000030020001e0f410091
:104468005e97490030e82d00110020001e01be00b3
:10447800800f5100818f5900f5ff360010c0b3003e
:10448800ce4090000104e00001003c000040eb0039
:10449800ce4090008140e900414798000004e000c8
:1044a800e8ff3a000080fa00000006000600fa0063
:1044b800404798000e0037006000b800008fbe002b
:1044c8000500370000000000120020000300200053
:1044d8001e0f41005e97490070832d0021012000c6
:1044e8001e01be00800f5100818f5900f5ff360074
:1044f80010c0b300ce4090000104e00001003c0071
:104508000040eb00ce4090008140e9004147980010
:104518000004e000e8ff3a000080fa00000006000e
:104528000800fa00100798002107980062479800d1
:104538000040eb00004f7800090037001e80fb00a8
:104548009e009000008040009e80fb002e0190009d
:104558008100410091407800014878001e4fe80032
:104568006e4090009e40780080cf5000f3ff3900e5
:104578000080fa00000006000600fa001007980004
:1045880041479800524798000040eb00004f7800e0
:10459800060037001e80fb009e009000008040004f
:1045a800ce409000014878001e4fe8005e40900021
:1045b8009e40780080cf5000f6ff39000080fa0056
:1045c800000006000800fa0010079800210798006c
:1045d800624798000040eb00004f78000d0037005c
:1045e8001e80fb009e0090000080400090407800f4
:1045f8001e80fb002e019000000041001040780052
:1046080080cf5000020032000040eb000600370067
:104618001e4fe8006e4090009e40780080cf50000a
:10462800efff390010c0b3000080fa000000060058
:104638000400fa00000f7800214798001e00780057
:10464800804078002e4090000080fb001e0178001a
:104658000011de002e4090000080fb000010dd00fd
:104668000040780000c050000080fa0000000600fa
:104678001000fa0050079800610798000040eb000e
:10468800004f78005e009000100798001e00900010
:104698000000e0001e003a006e00900001c3b30065
:1046a800014878006e0090000000e8008040eb00b0
:1046b8000148780010c0b300104798003400370054
:1046c8001e80fb00e40047008080400071079800ce
:1046d8001e019000a100200081017800110009004e
:1046e8000381d800814078000143b0007e0090002b
:1046f800014878001e4fe8009e009000a0002000ae
:1047080000017800110009008280d8001007980085
:104718001e0090000000e000e9ff3a009e4178008a
:10472800134798001e4fe8000c0037001e80fb005e
:104738000000e900ee009000008040009e409000dc
:104748000181fb009e80fb0081005100640147004d
:104758008100410091407800014878001e80fb00ec
:104768000000ea004f00de00004078001e4fe9001c
:104778000004e000edff3a001e4090000080fb00be
:10478800ee009000008040008040eb000148780077
:104798001e4090000080fa00000006000800fa00a1
:1047a800810d290006000900315f78007e00b10004
:1047b80050052000303b8800a00a2000303b8800cc
:1047c80027a6a800313180000030200001007000c9
:1047d800303188001e4090000080fb0020318800a6
:1047e8002e4090000080fb00c800dd003e40900095
:1047f8000080fb0000804000203188004e4090007f
:104808000080fb00203188005e4090000080fb00a3
:10481800c800dd006e4090000080fb000080400072
:104828002031880023e6a90011318000f0cf2f0045
:10483800008060000090a000103188002026ef0062
:104848002026ef002026ef0000802d001031880080
:104858002826ef0011068000f08f2f00808060006e
:104868000060200001007000100688008bc0a900bd
:104878009bc0a80027e6a80027a6a9000080fa0088
:10488800000006000000fa0050052000303b8800b8
:10489800a00a2000303b880027a6a80023e6a9002c
:1048a800000000003131800000002100008060001d
:1048b8000000e000fbff3a0011318000f0cf2f002c
:1048c800008060000090a000103188000eb89700aa
:1048d800c800dd007eb097000080400000318800ed
:1048e8002eb89700c800dd006eb097000080400029
:1048f800003188005eb09700c800dd004eb0970018
:10490800008040000031880027a6a90023e6a800ff
:104918000080fa00000006000400fa001007980062
:104928003231800000002100000061000000e0003a
:10493800020032000040eb00420037005105200021
:10494800313b8800a10a2000313b880027a6a80037
:1049580031318000003020000100700030318800c3
:1049680021318000010f78009e0078001e00900021
:104978005100980031318000f0cf2f000080600096
:104988000090a0003031880021318000010f7800ac
:104998001e0078004800de00800078001e009000ad
:1049a800410098009e007800f00f20008080600091
:1049b8001e0090003100980031318000f0cf2f00a8
:1049c800008060000080a000303188002131800024
:1049d800010f78001e0078004800de008000780093
:1049e8001e009000610098009e007800f00f2000e3
:1049f800808060001e009000210098003131800006
:104a0800f0cf2f0000806000303188002131800015
:104a1800010f78001e0078004800de008000780052
:104a28001e009000110098009e007800f00f2000f2
:104a3800808060001e0090000108780027a6a90069
:104a480010c0b3000080fa00000006000000fa0061
:104a580050052000303b8800a00a2000303b880029
:104a680027a6a80027e6a9008bc0a9009bc0a9001b
:104a780031318000003020000100700030318800a2
:104a88001eb89700203188008eb897007eb0970036
:104a9800680040000008dd0020318800aeb89700ab
:104aa8006eb09700680040000008dd0020318800e3
:104ab800deb097004eb09700680040000008dd00a7
:104ac8002031880027e6a80027a6a9009bc0a800d7
:104ad8000080fa00000006000000fa0050052000df
:104ae800303b8800a00a2000303b880027a6a80099
:104af80027e6a9008bc0a9009bc0a900313180001e
:104b080000302000010070003031880000c8bf006c
:104b18000080fb002031880001c8bf000080fb0036
:104b2800c800dd0002c8bf000080fb000080400014
:104b38002031880003c8bf000080fb0020318800b6
:104b480004c8bf000080fb00c800dd0005c8bf0026
:104b58000080fb00008040002031880027e6a80084
:104b680027a6a9009bc0a8000080fa000000060044
:104b78002600fa00400c2900f20047001300090043
:104b8800b05878004001b100000000000e00780025
:104b980061ff07000004a2000004e000fbff3a00e8
:104ba800de009000000120000001780011000900db
:104bb8008200d800004078000043b00020579800d9
:104bc800de009000000120000001780011000900bb
:104bd8008200d8008000fd00004078000043b0004b
:104be80030579800f0c2b300405798004e0090002c
:104bf8008000e80000012000000178001100090091
:104c08008200d800004078000043b0005057980058
:104c18004e0090008000e8000001200000017800ac
:104c2800110009008200d8008000fd0000407800d3
:104c38000043b00060579800f0c2b3007057980066
:104c4800be0090000001200000017800110009005a
:104c58008200d800004078000043b000005f980050
:104c6800be0090000001200000017800110009003a
:104c78008200d8008000fd00004078000043b000aa
:104c8800105f9800d0c2b300205f9800ae0090007b
:104c98000001200000017800110009008200d800fe
:104ca800004078000043b000305f9800ae009000ec
:104cb8000001200000017800110009008200d800de
:104cc8008000fd00004078000043b000405f98007d
:104cd800a0c3b300505f98009e0090000001200020
:104ce80000017800110009008200d8000040780017
:104cf8000043b000605f98009e0090000001200013
:104d080000017800110009008200d8008000fd0031
:104d1800004078000043b000705f9800a0c3b30063
:104d2800006798009e0078000001200000017800cc
:104d3800110009008200d800004078000043b0004c
:104d4800106798009e00780000012000000178009c
:104d5800110009008200d8008000fd0000407800a2
:104d68000043b00020679800a0c0b30030679800e7
:104d78007200470021c1b300460607000080fa0010
:104d8800000006004000fa00601f9800711f98009c
:104d980018000900001feb002e03b1006e189000e8
:104da800210320008e80400031fe070021032000ef
:104db8008e8040000e0078001ff407000e00780077
:104dc8004f0607000080fa00000006000200fa0003
:104dd80034c8bf008080fb0035c8bf000080fb00de
:104de8000000e900808f500003003a003011800075
:104df800004f78000c00370034c8bf000080fb006b
:104e08003111800001417800e1842000827078002f
:104e180034c8bf000040e80034e8b70034c8bf0019
:104e2800f043b20034e8b7000080fa000000060042
:104e38000200fa000040eb00004f780036c8bf00bf
:104e48008080fb0037c8bf000080fb000000e9003d
:104e5800808f500003003a00b0118000004f7800a6
:104e68000c00370036c8bf000080fb00b11180007d
:104e780001417800e18820008270780036c8bf00c0
:104e88000040e80036e8b70036c8bf00f043b2007b
:104e980036e8b7000080fa00000006000200fa00b9
:104ea8000040eb00004f780038c8bf008080fb004e
:104eb80039c8bf000080fb000000e900808f500067
:104ec80003003a00b0128000004f78000c00370051
:104ed80038c8bf000080fb00b11280000141780093
:104ee800e18c20008270780038c8bf000040e800dc
:104ef80038e8b70038c8bf00f043b20038e8b70058
:104f08000080fa00000006000200fa00000f780096
:104f1800518320009140780034c8bf0080cf5000f2
:104f280002003a000040eb000d00370035c8bf0012
:104f38000080fb00e1842000e14078001e0078003a
:104f48000148780035c8bf000040e80035e8b700e0
:104f580035c8bf00f043b20035e8b70010c0b30051
:104f68000080fa00000006000200fa00000f780036
:104f7800718320009140780036c8bf0080cf500070
:104f880007003a0090118000620060000000e00015
:104f9800010032003222a9000040eb000d0037006a
:104fa80037c8bf000080fb00e1882000e14078009e
:104fb8001e0078000148780037c8bf000040e800ac
:104fc80037e8b70037c8bf00f043b20037e8b7008a
:104fd80010c0b3000080fa00000006000200fa00ca
:104fe800000f7800918320009140780038c8bf00f6
:104ff80080cf500007003a009012800062006000e5
:105008000000e000010032005222a9000040eb003d
:105018000d00370039c8bf000080fb00e18c20007c
:10502800e14078001e0078000148780039c8bf00c8
:105038000040e80039e8b70039c8bf00f043b200c3
:1050480039e8b70010c0b3000080fa00000006007d
:105058000800fa00300798000040eb00004f780085
:105068000040eb00104798000040eb0020479800f4
:105078000040eb00404798003e00900060409000e0
:105088000004e000040032003e0090002040900040
:105098000004e00036003a000040eb00ad003700a5
:1050a8003e009000900078001e4090000080fb00b9
:1050b80000804000904078003e0090002000900062
:1050c8001040780080cf500022003a0010c0b30092
:1050d800204798001a0037003e00900090007800a2
:1050e8001e4090000081fb002e4090000080fb00d5
:1050f8000000410000804000904078003e00900091
:10510800200190002e4090000080fb00000041002c
:105118001040780080cf500006003a0010c0b3005d
:10512800004f78002e4090000040e800204798008b
:10513800030037000040eb00004f780005003700ff
:105148003e009000e04090002e40900080cf50003c
:10515800e1ff3e001e4078000004e0000b003a002a
:105168001e4090000040e8001047980001003700fa
:10517800000000003e009000a04090001e409000fb
:1051880080cf5000c6ff3e0001003700000000003d
:105198001e4078000004e0006a0032003e009000e3
:1051a800a04890003e0090006040900080cf5000e2
:1051b8001a0031003e009000a04890004147980036
:1051c8000040eb00304798000f0037003e00900089
