:020000040000fa
:080000000002040000000000f2
:020000040000fa
:04000800d40300001d
:020000040000fa
:04000c00d403000019
:020000040000fa
:04001000d403000015
:020000040000fa
:04001400d403000011
:020000040000fa
:04001800d40300000d
:020000040000fa
:04001c00d403000009
:020000040000fa
:04002000d403000005
:020000040000fa
:04002400d403000001
:020000040000fa
:04002800d4030000fd
:020000040000fa
:04002c00d4030000f9
:020000040000fa
:04003000d4030000f5
:020000040000fa
:04003400d4030000f1
:020000040000fa
:04003800d4030000ed
:020000040000fa
:04003c00d4030000e9
:020000040000fa
:04004000d4030000e5
:020000040000fa
:040044003c7200000a
:020000040000fa
:04004800d4030000dd
:020000040000fa
:04004c00d4030000d9
:020000040000fa
:04005000d4030000d5
:020000040000fa
:04005400180300008d
:020000040000fa
:04005800d4030000cd
:020000040000fa
:04005c00d4030000c9
:020000040000fa
:04006000d4030000c5
:020000040000fa
:04006400d4030000c1
:020000040000fa
:04006800d4030000bd
:020000040000fa
:04006c00d4030000b9
:020000040000fa
:04007000d4030000b5
:020000040000fa
:04007400d4030000b1
:020000040000fa
:04007800d4030000ad
:020000040000fa
:04007c00d4030000a9
:020000040000fa
:04008000d4030000a5
:020000040000fa
:04008400d4030000a1
:020000040000fa
:04008800d40300009d
:020000040000fa
:04008c00d403000099
:020000040000fa
:04009000d403000095
:020000040000fa
:040094008a7200006c
:020000040000fa
:04009800d40300008d
:020000040000fa
:04009c00d403000089
:020000040000fa
:0400a00060030000f9
:020000040000fa
:0400a400d403000081
:020000040000fa
:0400a800d40300007d
:020000040000fa
:0400ac00d403000079
:020000040000fa
:0400b000d403000075
:020000040000fa
:0400b400d403000071
:020000040000fa
:0400b800d40300006d
:020000040000fa
:0400bc00d403000069
:020000040000fa
:0400c000d403000065
:020000040000fa
:0400c400d403000061
:020000040000fa
:0400c800d40300005d
:020000040000fa
:0400cc00d403000059
:020000040000fa
:0400d000d403000055
:020000040000fa
:0400d400d403000051
:020000040000fa
:0400d800d40300004d
:020000040000fa
:0400dc00d403000049
:020000040000fa
:0400e000d403000045
:020000040000fa
:0400e400d403000041
:020000040000fa
:0400e800d40300003d
:020000040000fa
:0400ec00d403000039
:020000040000fa
:0400f000d403000035
:020000040000fa
:0400f400d403000031
:020000040000fa
:0400f800d40300002d
:020000040000fa
:0400fc00d403000029
:020000040000fa
:04010000d403000024
:020000040000fa
:04010400d403000020
:020000040000fa
:04010800d40300001c
:020000040000fa
:04010c00d403000018
:020000040000fa
:04011000d403000014
:020000040000fa
:04011400d403000010
:020000040000fa
:04011800d40300000c
:020000040000fa
:04011c00d403000008
:020000040000fa
:04012000d403000004
:020000040000fa
:04012400d403000000
:020000040000fa
:04012800d4030000fc
:020000040000fa
:04012c00a803000024
:020000040000fa
:04013000be0300000a
:020000040000fa
:04013400d4030000f0
:020000040000fa
:04013800d4030000ec
:020000040000fa
:04013c00d4030000e8
:020000040000fa
:04014000d4030000e4
:020000040000fa
:04014400d4030000e0
:020000040000fa
:04014800d4030000dc
:020000040000fa
:04014c00d4030000d8
:020000040000fa
:04015000d4030000d4
:020000040000fa
:04015400d4030000d0
:020000040000fa
:04015800d4030000cc
:020000040000fa
:04015c00d4030000c8
:020000040000fa
:04016000d4030000c4
:020000040000fa
:04016400d4030000c0
:020000040000fa
:04016800d4030000bc
:020000040000fa
:04016c00d4030000b8
:020000040000fa
:04017000d4030000b4
:020000040000fa
:04017400d4030000b0
:020000040000fa
:04017800d4030000ac
:020000040000fa
:04017c00d4030000a8
:020000040000fa
:04018000d4030000a4
:020000040000fa
:04018400d4030000a0
:020000040000fa
:04018800d40300009c
:020000040000fa
:04018c00d403000098
:020000040000fa
:04019000d403000094
:020000040000fa
:04019400d403000090
:020000040000fa
:04019800d40300008c
:020000040000fa
:04019c00d403000088
:020000040000fa
:0401a000d403000084
:020000040000fa
:0401a400d403000080
:020000040000fa
:0401a800d40300007c
:020000040000fa
:0401ac00d403000078
:020000040000fa
:0401b000d403000074
:020000040000fa
:0401b400d403000070
:020000040000fa
:0401b800d40300006c
:020000040000fa
:0401bc00d403000068
:020000040000fa
:0401c000d403000064
:020000040000fa
:0401c400d403000060
:020000040000fa
:0401c800d40300005c
:020000040000fa
:0401cc00d403000058
:020000040000fa
:0401d000d403000054
:020000040000fa
:0401d400d403000050
:020000040000fa
:0401d800d40300004c
:020000040000fa
:0401dc00d403000048
:020000040000fa
:0401e000d403000044
:020000040000fa
:0401e400d403000040
:020000040000fa
:0401e800d40300003c
:020000040000fa
:0401ec00d403000038
:020000040000fa
:0401f000d403000034
:020000040000fa
:0401f400d403000030
:020000040000fa
:0401f800d40300002c
:020000040000fa
:0401fc00d403000028
:020000040000fa
:04020800d40300001b
:020000040000fa
:04020c00d403000017
:020000040000fa
:04021000d403000013
:020000040000fa
:04021400d40300000f
:020000040000fa
:04021800d40300000b
:020000040000fa
:04021c00d403000007
:020000040000fa
:04022000d403000003
:020000040000fa
:04022400d4030000ff
:020000040000fa
:04022800d4030000fb
:020000040000fa
:04022c00d4030000f7
:020000040000fa
:04023000d4030000f3
:020000040000fa
:04023400d4030000ef
:020000040000fa
:04023800d4030000eb
:020000040000fa
:04023c00d4030000e7
:020000040000fa
:04024000d4030000e3
:020000040000fa
:04024400d4030000df
:020000040000fa
:04024800d4030000db
:020000040000fa
:04024c00d4030000d7
:020000040000fa
:04025000d4030000d3
:020000040000fa
:04025400d4030000cf
:020000040000fa
:04025800d4030000cb
:020000040000fa
:04025c00d4030000c7
:020000040000fa
:04026000d4030000c3
:020000040000fa
:04026400d4030000bf
:020000040000fa
:04026800d4030000bb
:020000040000fa
:04026c00d4030000b7
:020000040000fa
:04027000d4030000b3
:020000040000fa
:04027400d4030000af
:020000040000fa
:04027800d4030000ab
:020000040000fa
:04027c00d4030000a7
:020000040000fa
:04028000d4030000a3
:020000040000fa
:04028400d40300009f
:020000040000fa
:04028800d40300009b
:020000040000fa
:04028c00d403000097
:020000040000fa
:04029000d403000093
:020000040000fa
:04029400d40300008f
:020000040000fa
:04029800d40300008b
:020000040000fa
:04029c00d403000087
:020000040000fa
:0402a000d403000083
:020000040000fa
:0402a400d40300007f
:020000040000fa
:0402a800d40300007b
:020000040000fa
:0402ac00d403000077
:020000040000fa
:0402b000d403000073
:020000040000fa
:0402b400d40300006f
:020000040000fa
:0402b800d40300006b
:020000040000fa
:0402bc00d403000067
:020000040000fa
:0402c000d403000063
:020000040000fa
:0402c400d40300005f
:020000040000fa
:0402c800d40300005b
:020000040000fa
:0402cc00d403000057
:020000040000fa
:0402d000d403000053
:020000040000fa
:0402d400d40300004f
:020000040000fa
:0402d800d40300004b
:020000040000fa
:0402dc00d403000047
:020000040000fa
:0402e000d403000043
:020000040000fa
:0402e400d40300003f
:020000040000fa
:0402e800d40300003b
:020000040000fa
:0402ec00d403000037
:020000040000fa
:0402f000d403000033
:020000040000fa
:0402f400d40300002f
:020000040000fa
:0402f800d40300002b
:020000040000fa
:0402fc00d403000027
:020000040000fa
:04030000d403000022
:020000040000fa
:04030400d40300001e
:020000040000fa
:04030800d40300001a
:020000040000fa
:04030c00d403000016
:020000040000fa
:04031000d403000012
:020000040000fa
:04031400d40300000e
:020000040000fa
:04031800d40300000a
:020000040000fa
:04031c00d403000006
:020000040000fa
:04032000d403000002
:020000040000fa
:04032400d4030000fe
:020000040000fa
:04032800d4030000fa
:020000040000fa
:04032c00d4030000f6
:020000040000fa
:04033000d4030000f2
:020000040000fa
:04033400d4030000ee
:020000040000fa
:04033800d4030000ea
:020000040000fa
:04033c00d4030000e6
:020000040000fa
:04034000d4030000e2
:020000040000fa
:04034400d4030000de
:020000040000fa
:04034800d4030000da
:020000040000fa
:04034c00d4030000d6
:020000040000fa
:04035000d4030000d2
:020000040000fa
:04035400d4030000ce
:020000040000fa
:04035800d4030000ca
:020000040000fa
:04035c00d4030000c6
:020000040000fa
:04036000d4030000c2
:020000040000fa
:04036400d4030000be
:020000040000fa
:04036800d4030000ba
:020000040000fa
:04036c00d4030000b6
:020000040000fa
:04037000d4030000b2
:020000040000fa
:04037400d4030000ae
:020000040000fa
:04037800d4030000aa
:020000040000fa
:04037c00d4030000a6
:020000040000fa
:04038000d4030000a2
:020000040000fa
:04038400d40300009e
:020000040000fa
:04038800d40300009a
:020000040000fa
:04038c00d403000096
:020000040000fa
:04039000d403000092
:020000040000fa
:04039400d40300008e
:020000040000fa
:04039800d40300008a
:020000040000fa
:04039c00d403000086
:020000040000fa
:0403a000d403000082
:020000040000fa
:0403a400d40300007e
:020000040000fa
:0403a800d40300007a
:020000040000fa
:0403ac00d403000076
:020000040000fa
:0403b000d403000072
:020000040000fa
:0403b400d40300006e
:020000040000fa
:0403b800d40300006a
:020000040000fa
:0403bc00d403000066
:020000040000fa
:0403c000d403000062
:020000040000fa
:0403c400d40300005e
:020000040000fa
:0403c800d40300005a
:020000040000fa
:0403cc00d403000056
:020000040000fa
:0403d000d403000052
:020000040000fa
:0403d400d40300004e
:020000040000fa
:0403d800d40300004a
:020000040000fa
:0403dc00d403000046
:020000040000fa
:0403e000d403000042
:020000040000fa
:0403e400d40300003e
:020000040000fa
:0403e800d40300003a
:020000040000fa
:0403ec00d403000036
:020000040000fa
:0403f000d403000032
:020000040000fa
:0403f400d40300002e
:020000040000fa
:0403f800d40300002a
:020000040000fa
:0403fc00d403000026
:020000040000fa
:100400004f2b21000e7f22000e018800000000000b
:10041000000020000000e000020032000001200087
:100420002002880014000700f50007000000e0002b
:1004300003003a00802d2700010020000200370051
:100440000000200001002000810f70000100320038
:1004500014000700000020000000e000020032004d
:100460000000020000000000107302000000000005
:100470000040da000000fe004440a90020402000b7
:100480000000e000030032000020200090018800fe
:100490004440a800000006008a1f78008b1f7800e7
:1004a00000000600a1028800800478000000eb0034
:1004b0001f003700e284440054a0b4009905ba003c
:1004c000e284440054a0b4009906ba00e2844400d7
:1004d00054a0b4000006eb00476fde00fd07b20039
:1004e000ae018800636ce10003003a00eaff0700f8
:1004f0000000eb000e003700606ce10008003a00dd
:10050000004deb000a05e800020039003420ec0041
:100510000af0a0008b05e900f9ff3e000400370057
:100520006168e100010032000086eb000b0007006b
:1005300019c7ba001905ba000e04e00003003a001a
:100540000a00e000dbff3a0000000600fe07b200f0
:10055000ae0288008a047800f5ff37000cd0a300b3
:10056000e20f4d001c00390089027800354dba00b9
:100570000a05e800020039003420ec000af0a0006f
:100580008b05e9000f003200254dba000a05e8008e
:10059000020039003420ec000af0a0008b05e900cd
:1005a000080032000c00e0000600320015cdba0051
:1005b0000a05e800020039003420ec000af0a0002f
:1005c0008b05e9008984e80054a0b4000b00e0002a
:1005d000e2ff3a00000006009902ba00055d7800cb
:1005e0008b05e900f7ff3200c82ade00055d7800c0
:1005f0008b05e900f3ff32000c00e000f1ff320050
:1006000019ddba00eeff3700000000000000000016
:1006100000000000000000000000000000000000da
:1006200000000000000000000000000000000000ca
:100630003600f800809fbe00829fbe00849fbe00ef
:10064000869fbe003200f8003400f8001000200041
:10065000a001880000202000900188000200fa001c
:100660000040eb00004f78000040eb00004f7800a6
:100670000600370010118000610060000000e000fb
:1006800001003200ea3107001e4fe8001e407800ea
:10069000e34f5000f7ff36008560a9000080fa00a4
:1006a0003400f9003200f9004f03be004f02be00d3
:1006b0004f01be004f00be003600f90000400600aa
:1006c0003600f800809fbe00829fbe00849fbe005f
:1006d000869fbe003200f8003400f80010002000b1
:1006e000a001880000202000900188000200fa008c
:1006f0000040eb00004f78000040eb00004f780016
:100700000600370090118000610060000000e000ea
:1007100001003200df3107001e4fe8001e40780064
:10072000e34f5000f7ff360087c0a9000080fa00b1
:100730003400f9003200f9004f03be004f02be0042
:100740004f01be004f00be003600f9000040060019
:10075000801f78000000fa00101180006200600025
:100760000000e000010032002222a9008c20a90034
:100770000080fa004f00780000400600801f7800db
:100780000000fa0090118000620060000000e000ac
:10079000010032003222a9008c40a9000080fa003a
:1007a0004f00780000400600801f78000000fa002b
:1007b00000048000640060000000e00001003200de
:1007c0008040a90000048000680060000000e00094
:1007d000010032008060a900000480007000600009
:1007e0000000e000010032008080a9000002040047
:1007f000000000000080fa004f0078000040060072
:1008000000000500839f68000100e00002003d0039
:1008100060001000e08018000300e00002003d00ce
:1008200060011100e0811900050007004f00e000a1
:1008300002003b0060001000e0801800000006008d
:100840006022b800060220000000d0008180d200a3
:100850000482d2008582d2000000a0000202520071
:1008600083825a00030031000202420083824a0060
:100870000000a1000603e900f3ff3a0000000600b3
:0c088000efff07000400be0000000600af
:020000040000fa
:10088c000000000001000000020000000100000058
:10089c000300000001000000020000000100000045
:1008ac000400000001000000020000000100000034
:1008bc000300000001000000020000000100000025
:1008cc000500000001000000020000000100000013
:1008dc000300000001000000020000000100000005
:1008ec0004000000010000000200000001000000f4
:1008fc0003000000010000000200000001000000e5
:10090c0006000000010000000200000001000000d1
:10091c0003000000010000000200000001000000c4
:10092c0004000000010000000200000001000000b3
:10093c0003000000010000000200000001000000a4
:10094c000500000001000000020000000100000092
:10095c000300000001000000020000000100000084
:10096c000400000001000000020000000100000073
:10097c000300000001000000020000000100000064
:10098c000700000001000000020000000100000050
:10099c000300000001000000020000000100000044
:1009ac000400000001000000020000000100000033
:1009bc000300000001000000020000000100000024
:1009cc000500000001000000020000000100000012
:1009dc000300000001000000020000000100000004
:1009ec0004000000010000000200000001000000f3
:1009fc0003000000010000000200000001000000e4
:100a0c0006000000010000000200000001000000d0
:100a1c0003000000010000000200000001000000c3
:100a2c0004000000010000000200000001000000b2
:100a3c0003000000010000000200000001000000a3
:100a4c000500000001000000020000000100000091
:100a5c000300000001000000020000000100000083
:100a6c000400000001000000020000000100000072
:100a7c000300000001000000020000000100000063
:100a8c003f000000754300002f4f0000532d000065
:100a9c004949000020490000646c0000650000001a
:100aac00754300002f4f0000532d000049490000f2
:100abc0020530000746100007400000041540000d9
:100acc00264b0000330d00000a00000041540000ca
:100adc0026440000310d00000a00000041540000c3
:100aec000d0a000000410000542b0000435200008e
:100afc00454700003d3200000d0a0000004f000089
:100b0c004b000000415400002b43000050490000f2
:100b1c004e3f00000d0a0000002b00004350000067
:100b2c00494e00003a2000005245000041440000ac
:100b3c0059000000415400002b430000494d0000b7
:100b4c00490d00000a000000415400002b43000036
:100b5c0052450000473f00000d0a00000041000014
:100b6c00542b00004347000052450000473f000053
:100b7c000d0a0000002c000035000000415400005c
:100b8c002b43000053430000410d00000a000000fd
:100b9c00415400002b4b0000434e00005843000012
:100bac00464700003d3100002c2200004750000059
:100bbc0052530000222c0000224300004d4e000036
:100bcc0045540000220d00000a00000041540000b2
:100bdc002b4b0000544300005043000046470000dc
:100bec003d3100002c3000002c2200003138000078
:100bfc00332e000032340000362e00003734000053
:100c0c002e360000382200002c3500003037000052
:100c1c00300d00000a000000415400002b4b000076
:100c2c005443000050530000544100005254000043
:100c3c003d3100000d0a0000004300004f4e000043
:100c4c004e4500004354000000410000542b0000ae
:100c5c004b54000043500000434c00004f53000025
:100c6c00453d0000312c0000310d00000a00000051
:100c7c00415400002b4b0000544300005044000032
:100c8c00454c00003d3100000d0a000000680000da
:100c9c00656c00006c6f0000207700006f72000024
:100cac006c6400002121000021000000455200006e
:100cbc00524f0000524300004f440000453a0000e0
:100ccc00000d00000a0000000807000006060000e6
:100cdc0005050000050500000404000004040000e4
:100cec0004040000040400000303000003030000dc
:100cfc0003030000030300000303000003030000d0
:100d0c0003030000030300000202000002020000c3
:100d1c0002020000020200000202000002020000b7
:100d2c0002020000020200000202000002020000a7
:100d3c000202000002020000020200000202000097
:100d4c00020200000202000001010000010100008b
:100d5c00010100000101000001010000010100007f
:100d6c00010100000101000001010000010100006f
:100d7c00010100000101000001010000010100005f
:100d8c00010100000101000001010000010100004f
:100d9c00010100000101000001010000010100003f
:100dac00010100000101000001010000010100002f
:100dbc00010100000101000001010000010100001f
:100dcc000101000001010000000000000000000013
:100ddc000000000000000000000000000000000007
:100dec0000000000000000000000000000000000f7
:100dfc0000000000000000000000000000000000e7
:100e0c0000000000000000000000000000000000d6
:100e1c0000000000000000000000000000000000c6
:100e2c0000000000000000000000000000000000b6
:100e3c0000000000000000000000000000000000a6
:100e4c000000000000000000000000000000000096
:100e5c000000000000000000000000000000000086
:100e6c000000000000000000000000000000000076
:100e7c000000000000000000000000000000000066
:100e8c000000000000000000000000000000000056
:100e9c000000000000000000000000000000000046
:100eac000000000000000000000000000000000036
:100ebc000000000000000000000000000000000026
:100ecc000000000000000000785600003412000002
:100edc00ffff0000ffff0000ffff0000ffff00000e
:100eec00ffff0000ff7f0000555500005555000026
:100efc00ffff0000ff3f00003333000033330000de
:100f0c00aaaa0000aa2a000024490000922400008a
:100f1c00ffff0000ff1f00001cc70000711c000039
:100f2c00999900009919000074d100004517000030
:100f3c005555000055150000133b0000b11300007f
:100f4c009224000049120000111100001111000040
:100f5c00ffff0000ff0f00000f0f00000f0f00003d
:100f6c008ee30000380e00005e430000790d000097
:100f7c00cccc0000cc0c00000cc30000300c0000ea
:100f8c00bae80000a20b00002c640000210b00004a
:100f9c00aaaa0000aa0a0000a37000003d0a0000e3
:100fac00899d0000d80900005e4200007b0900000a
:100fbc004992000024090000b0dc0000d3080000b6
:100fcc008888000088080000841000004208000097
:100fdc00ffff0000ff0700007cf00000c1070000cd
:100fec008787000087070000077500005007000086
:100ffc00c77100001c07000048650000617000000c
:10100c00005500006e6e0000616d0000656400000c
:10101c0020730000746100007469000063200000fc
:10102c00706f00006f6c0000005500006e6e0000c9
:10103c00616d0000656400002073000074610000a5
:10104c007469000063200000706f00006f6c00007a
:10105c00206600007265000065200000626c0000d4
:10106c006b200000746200006c0000003f00000068
:10107c003f0000003f0000003f0000003f00000068
:04108c003f00000021
:020000040000fa
:101090000a00fa00200798003107980042079800dc
:1010a0000000eb00000f78002e0090000000e00030
:1010b00005003a004e00900041c0b300014878009e
:1010c0000040eb002f0037003e0090000000e000e1
:1010d00005003a004e009000c1c0b30001487800fe
:1010e0000040eb00270037001bc8bf000004e000f1
:1010f000050032004e00900011c1b3000148780095
:101100000040eb001f0037002e00900010407800d8
:101110000080fb000000e900e30f500015003e00d6
:1011200011028000010f780011028000000e2000e3
:1011300001007000100288002e009000d000900086
:101140003e009000010878003e00900010007800fa
:1011500083050700204798009e0078001102880050
:101160004e0090008040eb00014878002e40900037
:10117000040037004e00900011c0b3000148780011
:101180000040eb000080fa00000006000800fa00b2
:101190001007980021079800320798000000eb0024
:1011a000000f78001e0090000000e00004003a00ec
:1011b0003e00900041c0b30001487800270037008e
:1011c0002e0090000000e00004003a003e00900075
:1011d000c1c0b30001487800200037001bc8bf0021
:1011e0000004e000040032003e00900021c1b30082
:1011f00001487800190037001e0090001040780068
:101200000080fb000000e900e30f50000f003e00eb
:1012100011028000010f780011028000000e2000f2
:1012200001007000100288001e009000ae009000c7
:10123000510098009e007800110288003e00900046
:101240008040eb0001487800040037003e00900029
:1012500011c0b30001487800000000000080fa00cf
:10126000000006001a00fa0070079800010f9800ad
:10127000120f9800240f9800350f9800430f980024
:101280000000eb00500798007e0090000000e00096
:1012900005003a004e08900041c0b30001487800b4
:1012a0000000eb00870137007e00900010007800fe
:1012b0000000e00005003a004e08900041c0b30075
:1012c000014878000000eb007e0137000e08900016
:1012d0000000e00005003a004e08900041c0b30055
:1012e000014878000000eb00760137001e089000ee
:1012f0000000e00005003a004e08900041c0b30035
:10130000014878000000eb006e0137000e089000e5
:101310008000eb0001087800fe009000010f7800cb
:101320001e0078001001780012079800170037009f
:101330001e009000104078000080fb00e20f50007b
:1013400009003200e30f500009003200e10f5000a5
:10135000090032004e08900011c0b3000148780027
:101360000000eb00570137000000000003003700c9
:101370000000000001003700000000001e8fe800a0
:101380001e00780090017800130798001e0090005e
:101390000000e000e6ff3a001bc8bf000004e000c8
:1013a000050032004e08900021c0b30001487800cb
:1013b0000000eb00430137001cc8bf000004e00040
:1013c000050032004e089000d1c0b30001487800fb
:1013d0000000eb003b0137000040eb004047980065
:1013e0000000eb00300798000040eb00004f980031
:1013f000fe009000010f78001e00780010017800b8
:101400001207980013028000530798001102800011
:10141000000e2000010070001002880086003700d6
:101420001e009000104078000080fb00e20f50008a
:1014300042003200e30f500003003200e10f500081
:10144000200032006e0037001e0090002000900047
:101450000000e000170032001e0090002000900005
:101460008000e9001e009000210098000e08900006
:101470009e009000010878000e0890000080e800af
:10148000000f980010c0b300404798001e0890005d
:101490008000eb00010878001e0890000080e80042
:1014a000100f98003e0090000000e8003007980000
:1014b0005d0037000e4890000004a000004f980027
:1014c000590037001e009000100090000000e0005e
:1014d000160032001e009000900090001e08900040
:1014e000010878001e0890000080e800100f9800a6
:1014f0001e0090008000eb00110098000e08900084
:101500001e019000020878000e0890000080e8009c
:10151000000f980010c0b300404798003e009000b4
:101520000000e800300798003f0037000e489000a8
:101530000014a000004f98003b0037001e009000f0
:1015400010009000600798006e009000600090000e
:101550000000e000260032006e0090004000900085
:10156000100178009e089000820878009e08900084
:101570008180e800110f98008080e8006e009000e4
:10158000410098006e009000c00090006e00900036
:1015900020009000808f500004003a006e00900000
:1015a000900090006e009000410098006e00900046
:1015b000600090008000e9006e00900061009800db
:1015c0000e0890009e019000030878000e0890001d
:1015d0000080e800000f980010c0b300404798005a
:1015e0003e0090000000e800300798000e00370031
:1015f0000e4890000024a000004f98000a00370019
:10160000de009000110288000e0890008000eb00c0
:10161000010878004e08900011c0b300014878001e
:101620003e009000a70037001e8fe8001e007800e3
:1016300010017800120798001e0090000000e000e2
:1016400077ff3a004e409000e14f50000a003a0008
:101650000e0890008000eb0001087800de01900089
:10166000130288004e0890008040eb00014878008b
:101670003e009000930037003041800031418000ef
:10168000016190008e4890000141710001c8b300d3
:101690008140710001609800304180008040eb0083
:1016a00011609800304180002e099000be09900022
:1016b00062089800730898007e00900052020700ac
:1016c000de01900013028800e5030700110280008c
:1016d0005107980011028000000e200001007000e8
:1016e0001002880030418000106090000080fb00f4
:1016f0000000e00002003200e20f500019003a0042
:101700003041800010099000120798001e009000e0
:101710000000e0000c0032000e0890009e019000d6
:10172000030878000e0890000080e800000f980081
:101730000e0890008000eb000108780010002000e7
:10174000300798000b0037003041800011c0b30013
:101750001160980030418000fe0090009a0207005e
:101760000400370030418000fe0090009602070020
:101770000000000030418000106090000080fb00fd
:101780000000e00003003200e20f500027003200aa
:10179000300037001e009000104078000080fb00f1
:1017a000e10f500013003500e20f50000900340033
:1017b000e30f50000f003a001e0890008000eb007d
:1017c000010878001e0890000080e800100f9800c3
:1017d0001200370030418000b00890001e089000d1
:1017e000010878001e0890000080e800100f9800a3
:1017f0000a003700de009000110288000e089000f9
:101800008000eb00010878004e08900011c0b30082
:10181000014878003e0090002a0037004e089000f2
:101820008040eb0001487800140037001e0890004b
:101830008000eb00010878001e0890000080e8009e
:10184000100f98004e089000e1c0b30001487800e6
:101850000a0037001e0890008000eb0001087800a5
:101860001e0890000080e800100f98004e089000bd
:10187000a1c0b300014878000000000030418000a2
:101880008040eb0001609800304180008040eb0018
:1018900011609800304180008000eb001108980032
:1018a000304180008000eb0021089800304180002a
:1018b0008000eb00310898005e0190001202880061
:1018c0003e0090000080fa00000006000000fa00d0
:1018d000122f0700bc020700cc0207000a03070012
:1018e00084020700d01b07000a240700da02070061
:1018f000ef0207000e2f07000080fa00000006002c
:101900000000fa0020c8bf00e14f500006003a0076
:101910001bc8bf00e14f4000030032001bc8bf00de
:101920000040e8001be8b7000080fa000000060055
:101930000200fa000000eb00000f780020c8bf0092
:10194000e14f50002f003a0011028000010f780093
:1019500011028000000e20000100700010028800bb
:101960001bc8bf000004e000030032001bc8bf001a
:101970000040e9001be8b7001bc8bf000004e000fe
:101980001e003a001cc8bf000004e0001b003a0023
:10199000610307001ec8bf000080fb0080004000fc
:1019a00040972000008040001000780050418800df
:1019b000e1812000914078001dc8bf0080cf500019
:1019c0000e0032005241800042109000d210900070
:1019d00061004000e08048004011980051119800db
:1019e000004080001140800061004000e08048001d
:1019f0000040880011408800883207009e0078006f
:101a0000110288000080fa00000006000200fa00bf
:101a10000000eb00000f780020c8bf00e14f50002d
:101a200011003a0011028000010f780011028000bd
:101a3000000e200001007000100288001bc8bf00cb
:101a40000004e00006003a001cc8bf00e14f40005f
:101a5000030032001cc8bf000040e8001ce8b700cb
:101a60009e007800110288000080fa000000060045
:101a70000200fa000000eb00000f780020c8bf0051
:101a8000e14f50001e003a0011028000010f780063
:101a900011028000000e200001007000100288007a
:101aa0001bc8bf000004e00013003a001cc8bf00c0
:101ab0000004e0000d0032001cc8bf000040e90037
:101ac0001ce8b7001cc8bf000004e00004003a0096
:101ad0009e00780011028800e1020700080037002c
:101ae0009e00780011028800050037009e007800f3
:101af00011028800020037009e0078001102880061
:101b00000080fa00000006000000fa0020c8bf00b4
:101b10000004e0000d003a00ff0207001ec8bf00ed
:101b20001de8b7001ec8bf000080fb008000400019
:101b3000409720000080400010007800504188004d
:101b40005041800030418800f13107000080fa00e8
:101b5000000006000200fa000000eb00000f780011
:101b60002000200001002000352f07001102800016
:101b7000010f780011028000000e200001007000ab
:101b8000100288002228ef002428ef009e00780031
:101b9000110288004006200001002000282f0700c5
:101ba00011028000010f780011028000000e200059
:101bb0000100700010028800104180002141800067
:101bc00090408800a140880010c0b3001ae8b70018
:101bd0009e007800110288000080fa0000000600d4
:101be0000600fa000000eb002007980020c8bf00a4
:101bf000e14f50006e003a002ec8bf000080fb008d
:101c0000e10f500007003200e20f500008003200e0
:101c10000000e0000b003a0010c0b300204798001d
:101c20000c0037000040eb00204798000900370007
:101c300010c0b3002047980010c0b3002ee8b700d2
:101c40000400370010c0b300204798002e68ef0052
:101c5000000000002e4090000004e000530032001d
:101c600061418000010f78004b00370011028000b5
:101c70002107980011028000000e20000100700072
:101c8000100288001e007800f008900060089000a4
:101c9000e00f5000e08f58003a0032001e0078003c
:101ca000f00890006008900061005000e08058004b
:101cb0001e01780060099800710998001e007800e4
:101cc000f008900060089000e00f5000e08f58008e
:101cd0002c003a001e007800006090008080fb001d
:101ce00070032000008060000000e0000a00320065
:101cf0001e0078008060900080ccb30080c060003f
:101d00001e007800016098001e00780011c0b3002a
:101d100011609800030037001e0078008040eb003f
:101d2000116098001e007800006090000080fb00a9
:101d3000680060000000e00012003a001e00780019
:101d4000e06090001fc8bf0000c070001fe8b7002f
:101d50001e007800406090000080fb009e0078002c
:101d6000c16090008180fb00228f200062c178005a
:101d70009e007800d160900001417100218f200009
:101d8000827078001e007800f0009000010f78004b
:101d9000ae009000110288001e00780020609000c4
:101da000ec4f5000b1ff3a00010037000000000086
:101db0000080fa00000006000000fa00b0212700b1
:101dc0000080fa00000006000000fa000080fa001f
:101dd000000006000c00fa00300798004107980048
:101de000224f9800334f98003e00900060409000d2
:101df0000080fb0061442800614f78001e80fb00da
:101e0000be0090006600400000804000104090003e
:101e10000080fb006144280061417800124798006f
:101e20009e407800300020008008dd001e409000b9
:101e300000c04000204798002e4090000080fb002a
:101e40008000400040972000008040009000780013
:101e5000210798002e0190006000b80060099800ea
:101e6000710998002e0090004e01900032089800f1
:101e70002e009000806090002e48900000c0ea0084
:101e800080c060002e009000016098002e0090003d
:101e9000be489000116098002e00900000609000f5
:101ea0000080fb00680060000000e0000e003a00c7
:101eb0002e009000e06090001fc8bf0000c07000be
:101ec0001fe8b7001e80fb009e80fb00228f2000d1
:101ed00062c17800ae009000d160900001417100b5
:101ee000218f200082707800be0090002e009000ac
:101ef0008e0007002e009000200890000000e000f7
:101f0000080032002e009000200890008000780029
:101f10002e009000ac0007002e0090003e019000c3
:101f2000120898002e4090000080fa000000060081
:101f30000400fa0010079800304180009e009000d5
:101f40001108980030418000406090000080fb0044
:101f500031418000c16090008180fb001e01900033
:101f6000e680400081004100114190003141800035
:101f7000d1609000814071001e019000000041007e
:101f8000714098001e009000e040900030418000b9
:101f90006060900080c070001e009000614098005a
:101fa00030418000c0609000014f78001e80fb002f
:101fb0009e80fb00228f200062c1780031418000aa
:101fc000d160900081c0ea0001416100218f2000b2
:101fd000827078001e80fb00218f20006140780015
:101fe0000004e00006003a0030418000606090008c
:101ff00080c0ea001fc8bf0000c060001fe8b70033
:102000000080fa00000006000800fa00300798007f
:10201000304180008000eb001108980030418000c2
:10202000be00900021089800be009000010f7800cb
:102030001e00780090007800110798001b00370000
:1020400030418000406090000080fb003141800002
:10205000c16090008180fb001e019000e68040007e
:10206000810041001141900031418000d160900019
:10207000814071001e0190000000410071409800f5
:102080001e009000e04090003041800060609000b1
:1020900080c070001e009000614098001e8fe80014
:1020a0001e00780090007800110798001e00900034
:1020b0000000e000e2ff3a0030418000c060900084
:1020c000414798004e4090000080fb00ce409000b9
:1020d0008180fb00228f200062c1780031418000a6
:1020e000d160900081c0ea0001416100218f200091
:1020f000827078004e4090000080fb00218f20000d
:10210000614078000004e00006003a0030418000a1
:102110006060900080c0ea001fc8bf0000c060007f
:102120001fe8b7000080fa00000006000600fa0071
:1021300010079800210798001e009000c0609000d2
:10214000014f78001e80fb009e80fb002e01900056
:10215000e680400081004100114190009e00900007
:10216000d160900081c0ea00814061002e019000a2
:1021700000004100714098001e80fb00ae009000fe
:102180006600400000804000104090000004e00025
:1021900008003a002e009000e04090001e009000e1
:1021a0006060900000c0ea0080c060002e009000d7
:1021b000614098001e0090008000eb00110898001c
:1021c0000080fa00000006000c00fa0040079800aa
:1021d000510798004e009000c06090004147980061
:1021e0004e009000e0609000514798004e00900033
:1021f000d060900061479800de009000010f7800e9
:102200001e00780090007800110798002100370028
:102210004e4090000080fb00ce4090008180fb008b
:102220001e019000e68040008100410011419000b5
:10223000ee40900081c0ea00814061001e019000e4
:1022400000004100714098004e4090000080fb006b
:102250009e0090006600400000804000104090000a
:102260000004e00007003a001e009000e0409000eb
:102270005e40900000c0ea0080c060001e00900038
:10228000614098001e8fe8001e00780090007800e2
:10229000110798001e0090000000e000dcff3a00eb
:1022a0000080fa00000006000400fa001007980001
:1022b0001e0090008040eb00614098000040eb0061
:1022c000004f7800060037001e80fb009e00900043
:1022d000008040008040eb00714098001e4fe800f5
:1022e0001e407800e14f5000f7ff36000080fa00f2
:1022f000000006000800fa002084200001032000ee
:10230000b20007000000eb00000f78001800370053
:102310001e00e800100798001e0078006c00b9004d
:102320008000780020842000008040002007980072
:102330001e0090006c00b90080007800208420000e
:1023400000804000300798002e0090008040eb0095
:10235000014878002e009000be0090001100980007
:10236000615428002e009000510098001e0fe800d4
:102370001e007800e20f5000e5ff36001e007800d6
:102380006c00b900800078002084200000804000ac
:10239000200798002e0090008040eb000148780054
:1023a0002e0090008000eb0011009800615428007e
:1023b0002e009000510098002084200020408800ca
:1023c0000080fa00000006000000fa001b68ef0021
:1023d0001c68ef002168ef002068ef000028ef0084
:1023e0000228ef002228ef002428ef001628ef0033
:1023f0001828ef001228ef001428ef001a68ef00e9
:102400003268ef000080fa00000006000200fa00c7
:102410001f68ef000040eb00004f78000500370018
:102420001e80fb00218f20000041eb0082707800ad
:102430001e4fe8001e407800e14f5000f8ff3600c4
:102440001d68ef001e68ef002a28ef002628ef0025
:102450000080fa00000006000200fa0030002000b0
:10246000801f78000000eb00801f78000604200029
:1024700007002000259720000082eb00c3c0b300b6
:10248000428f20008000eb00a03d21001f100700bc
:10249000e4875700805428000e01780080007800ff
:1024a000c0c0b300d41107000080fa00000006008d
:1024b0000200fa0030002000801f78000000eb00ce
:1024c000801f78000604200007002000058f2000f0
:1024d000e4ff2f00b3c0b300228720008000eb0090
:1024e0002040210009100700e487570060552800ac
:1024f0000e01780080007800b0c0b300be11070064
:102500000080fa00000006000600fa00e0982000b3
:10251000012c20002d00070040972000a101200081
:102520002a0007000040eb00004f7800140037003d
:102530001e40e800104798001e80fb00c600dd002a
:10254000e098200000804000100798001e40900096
:102550000080fb00c600dd00e09820000080400005
:10256000200798001e009000ae00900071009800b7
:10257000615428001e009000511898001e4fe8007a
:102580001e407800e94f5000e9ff36001e80fb0036
:10259000c600dd00e0982000008040001007980091
:1025a0001e0090008000eb0071009800615428002c
:1025b0001e009000511898002c28ef00e098200091
:1025c000404188000080fa00000006000400fa0084
:1025d000000f780011079800070037001e007800f0
:1025e0008040eb00014878001e0fe8001e009000bc
:1025f0000000e900100798001e0090000000e000b5
:10260000f6ff3a000080fa00000006000600fa001b
:10261000000f780011079800220798000b00370080
:102620001e009000904078001e007800014878005d
:102630001e0fe8001e0090000000e8001007980040
:102640002e0090000000e900200798002e00900066
:102650000000e000f2ff3a000080fa0000000600ef
:102660000200fa000000eb00000f78001102800069
:10267000010f780011028000000e200001007000a0
:10268000100288001bc8bf000004e0001e003a00d2
:102690001cc8bf000004e0001b003a001e00070039
:1026a0001ec8bf000080fb00800040004097200053
:1026b000008040001000780050418800e181200037
:1026c000914078001dc8bf0080cf50000e0032003e
:1026d0005241800042109000d210900061004000f2
:1026e000e08048004011980051119800004080009f
:1026f0001140800061004000e080480000408800f8
:1027000011408800182f07009e00780011028800f1
:102710000080fa00000006000200fa001fc8bf0097
:102720000080fb0061442800614f78009e407800e3
:10273000300020008008dd001e80fb00228f20007a
:10274000624078000080fb0062442800624078000c
:1027500000c040001ee8b7000080fa00000006003c
:102760000400fa00100798001e0090000000e0002e
:1027700002003a000040eb000c0037000040eb0084
:10278000004f7800040037001e0090000000e800b1
:10279000100798001e4fe8001e00900010407800bf
:1027a0000004e000f8ff3a001e4078000080fa00c4
:1027b000000006000400fa00100798000000eb007b
:1027c000000f780011028000010f780011028000d4
:1027d000000e2000010070001002880010418000ef
:1027e0002141800061004000e080480010418800e5
:1027f000214188009e00780011028800572b0700b5
:10280000f0ff37000400fa00100798000000eb000a
:10281000000f780003003700800c2000010020002a
:10282000072c07001ac8bf000004e000faff3200be
:1028300090408000a140800042062000030020005c
:10284000fff7070090408800a1408800904080007a
:10285000a1408000e00f5000e08f580003003a00d4
:102860001068ef0000c0eb000312070011028000a7
:10287000010f780011028000000e2000010070009e
:102880001002880090408000a14080004206200095
:102890000289b900020178006002b9008401780061
:1028a00003014100430620000300b800010141007c
:1028b0008200780010418800214188009e00780045
:1028c0001102880011028000010f780011028000bf
:1028d000000e2000010070001002880010418000ee
:1028e00021418000b0408800c14088002228ef00cc
:1028f0002428ef009e00780011028800b440800078
:10290000c540800090408000a14080000001be00d2
:102910000400be00caf707000040780041c6b300bb
:1029200000c0500010e8b700132b07000400070098
:102930004006200001002000c12b0700e1ff370006
:102940000c00fa000040eb00004f78002500370033
:1029500064004700800078001e4078005511070091
:10296000104798001e4090000004e0001c003a0050
:102970001e80fb0080004000409720000080400047
:1029800090007800110798001e0090000000e00001
:10299000130032001e009000e10f500010003200c2
:1029a0001e009000200190001e009000c0009000ca
:1029b0003000900000007800000040000000ea00b5
:1029c000800041001e009000211898004e009000e9
:1029d000de0090001e019000301998004119980007
:1029e0001e4fe8001e407800ec4f5000d8ff360024
:1029f0000080fa00000006001600fa006047980008
:102a000041079800520798006307980074079800e0
:102a1000050f9800160f9800270f98000000eb0094
:102a20001007980011028000110798001102800021
:102a3000000e20000100700010028800424180005a
:102a4000220798002e0090000000e000bf00320036
:102a50002e00900070009000404188009e01900080
:102a6000130288002e009000ce009000010878002c
:102a70002e0090006e419000226098002e00900081
:102a80008040eb00016098002e0090008040eb0039
:102a9000116098002e0190006000b8006009980055
:102aa000710998002e0090009e0990001300980074
:102ab0002e0090007e0190008e0990003200980058
:102ac000430098002e009000de0190002300980043
:102ad0002e009000ae089000510098002e0090004b
:102ae0006e019000620098002e0090008040eb0084
:102af000716098006e4090000080fb004300de0093
:102b0000804078002e009000416098006e40900058
:102b1000e74060002e009000316098002e00900089
:102b2000406090000081fb001000200001002000a8
:102b3000820178008301e9000300330000004000b7
:102b400081804800fbff3700804078002e00900015
:102b5000616098002e009000306090000081fb00c2
:102b60001000200001002000820178008301e900ac
:102b7000030033000000400081804800fbff370065
:102b8000804078002e009000516098002e00900048
:102b90008000eb00110898002e0090008000eb00f0
:102ba000210898002e0090008000eb00410898005a
:102bb0002e0090008000eb00310898002e0190005c
:102bc0006000b80040119800511198002e0190004b
:102bd0006000b80000199800111998002e019000ab
:102be0006000b80060119800711198002e009000ec
:102bf0008000eb00211898002e0190006000b800c2
:102c00003019980041199800615428002e00900056
:102c1000511898000040eb00004f78000800370082
:102c20001e80fb00ae0090006f0040004200dd00ff
:102c3000008140006000b8000089be001e4fe8001f
:102c40001e4078000004e000f5ff32002e009000e6
:102c50004f2a07001102800011079800110280001e
:102c6000000e200001007000100288006e409000ed
:102c70000080fb0080004000409720000080400062
:102c80002e019000020878009e0190001302880037
:102c90002e009000292a07001102800011079800d9
:102ca00011028000000e2000010070001002880058
:102cb000614180002e009000710098002e0090006d
:102cc0008000eb0001089800604180000000e000f7
:102cd00003003200604180002e019000020898003d
:102ce000ae019000634188002e009000e0609000eb
:102cf0001fc8bf0000c070001fe8b7002e00900082
:102d0000406090000080fb00ae009000c160900029
:102d10008180fb00228f200062c17800ae0090000d
:102d2000d160900001417100218f200082707800f5
:102d300021c8bf000040e80021e8b7009e009000d5
:102d4000110288000040eb00030037001e019000d4
:102d50001202880020c4b3000080fa0000000600c0
:102d60000400fa004028ef00a0c62000000f780001
:102d7000208028008e80e800810278001400200066
:102d8000034020001e017800a10621000402070074
:102d90009e00900000712200808f500001003200e0
:102da000bc2307000080fa00000006000400fa00bf
:102db000000f7800110798001e0190008040eb0082
:102dc0001e007800020007000080fa0000000600e4
:102dd0001200fa0060079800614f9800020f9800f7
:102de0000000eb00100798000000eb00400798007f
:102df0000b0037001e0090004800dd00100798000f
:102e00006e4890000080fb009e0090000100700062
:102e1000100798004e0090000000e800400798005e
:102e20004e009000e10f5000f2ff36008e08900037
:102e3000010f78006e009000004078000080fb00d9
:102e40006100600050079800ee0090003107980084
:102e50005e0090000000e00013003200de009000f1
:102e6000410798000a0037003e009000ee489000ad
:102e7000014878003e0090000000e800300798000c
:102e80001e0fe9004e0090000000e8004007980087
:102e90001e0078000000e000030032004e009000a9
:102ea000e10f5000f0ff3600be00900021079800af
:102eb000070037002e0090009e0090000108780067
:102ec0002e0090000080e800200798001e8fe90087
:102ed0001e007800e10f5000f6ff3e00ae009000ab
:102ee00031079800070037003e009000ee48900040
:102ef000014878003e0090000000e800300798008c
:102f00001e0fe9001e0078000000e000f6ff3a0006
:102f10000080fa00000006001a00fa00200f980056
:102f2000310f9800420f9800ce089000010f7800f2
:102f3000ae08900031079800be0890004107980045
:102f4000ce0090003e009000008050006007980086
:102f50006e009000e10f5000520036003e009000dd
:102f6000004078000080fb0061006000700798005e
:102f70004e009000004078000080fb00610060007f
:102f8000000f9800fe0090000e089000808f500007
:102f900002003a0010c0b300010037000040eb000f
:102fa000205798002e509000e14f50003d003a000d
:102fb0007e0090000000e00017003200fe0090004c
:102fc000510798000e0037004e00900090407800a6
:102fd0003e009000014878003e0090000000e800ac
:102fe000300798004e0090000000e800400798006d
:102ff0001e0fe9005e0090000000e80050079800f6
:103000001e0078000000e000030032005e00900027
:10301000e10f5000ecff3600be0090001107980051
:10302000ce009000210798000b0037002e00900082
:10303000900078001e009000010878001e009000ab
:103040000080e800100798002e0090000080e80043
:10305000200798001e8fe9001e007800e10f500045
:10306000f2ff3e009e00900031079800ae009000f5
:10307000410798000b0037004e0090009040780008
:103080003e009000014878003e0090000000e800fb
:10309000300798004e0090000000e80040079800bc
:1030a0001e0fe9001e0078000000e000f2ff3a0069
:1030b0000080fa00000006001a00fa00200f9800b5
:1030c000310f9800420f9800be0890004107980009
:1030d000ae08900031079800ce0090003e009000ae
:1030e000808f5000050036004e099000be08900009
:1030f0002e08900088ff07006c003700ce08900073
:10310000010f7800ae0890004e0890000000e90022
:103110000080400030079800be0890004e089000e4
:103120000000e9000080400040079800be009000c9
:103130004e00900000805000600798006e009000e4
:10314000e10f5000560036003e009000004078002d
:103150000080fb0061006000700798004e00900046
:10316000004078000080fb0061006000000f9800c4
:10317000fe0090000e089000808f500002003a0080
:1031800010c0b300010037000040eb00205798004a
:103190002e509000e14f500041003a007e00900018
:1031a000e10f5000170032007e009000204f980081
:1031b0000e0037004e009000904078003e009000d6
:1031c000014878003e0090000000e90030079800b8
:1031d0004e0090000000e900400798001e0fe90033
:1031e0002e4890000040e900204f98001e00780013
:1031f0000000e000030032002e4890000004e000d0
:10320000ecff3d003e0090000000e9001007980030
:103210004e0090000000e900200798000b003700e6
:103220002e009000900078001e00900001087800a9
:103230001e0090000080e900100798002e0090000a
:103240000080e900200798001e8fe9001e0078002a
:10325000e10f5000f2ff3e001e0090000000e80069
:10326000300798002e0090000000e800400798000a
:103270000b0037004e009000904078003e00900018
:10328000014878003e0090000000e90030079800f7
:103290004e0090000000e900400798001e0fe90072
:1032a0001e0078000000e000f2ff3a000080fa0003
:1032b000000006001a00fa00200f9800310f980055
:1032c000420f98004e0890000000e00002003a0013
:1032d00010c0b300840037002e0890000000e0000a
:1032e00002003a000040eb007f0037003e089000eb
:1032f0000000e00002003a000040eb007a003700d6
:1033000010c0b300404f9800ce089000010f780025
:10331000ae0890004e0890000080400030079800f2
:10332000be0890004e0890000080400040079800c2
:103330003e009000004078000080fb0061006000cb
:10334000700798004e009000004078000080fb005d
:1033500061006000000f9800fe0090000e089000d1
:10336000808f500002003a0010c0b3000100370007
:103370000040eb00205798002e509000e14f500085
:1033800052003a007e0090000000e0001e00320073
:10339000fe00900051079800120037003e00900098
:1033a0000000e900300798004e0090000000e9009e
:1033b000400798003e009000904078004e0090003a
:1033c0001040780080cf5000020032000040eb0037
:1033d000404f98001e0fe9005e0090000000e900d9
:1033e000500798004e489000e14f500006003a0008
:1033f0001e0078000000e000030032005e00900034
:103400000000e000e5ff3a004e489000e14f500018
:103410002e003a00be00900011079800ce009000e8
:10342000210798000f0037001e0090000080e9007f
:10343000100798002e0090000080e90020079800f7
:103440001e009000900078002e0090001000780080
:10345000808f5000020032000040eb00404f980087
:103460001e8fe9004e489000e14f500003003a00e3
:103470001e007800e10f5000ebff3e009e00900020
:1034800031079800ae009000410798000f00370008
:103490003e0090000000e900300798004e009000c8
:1034a0000000e900400798003e009000904078003e
:1034b0004e0090001040780080cf50000200320093
:1034c0000040eb00404f98001e0fe9004e4890006e
:1034d000e14f500003003a001e0078000000e000b9
:1034e000ebff3a004e4890000080fa000000060012
:1034f0000a00fa0010079800210798003207980088
:10350000430798004e039000be0290001400200074
:10351000ae0190001e019000a10621000000eb000a
:1035200070030700000f78004e00900090007800b4
:10353000907d2200808f500003003a004e009000e2
:10354000317e2200010878001e0078000080fa0019
:10355000000006000600fa001007980021079800f6
:10356000ae0190000001eb009e009000a00621003b
:103570003d000700000f78002e00900090007800ba
:1035800000712200808f5000020032000000eb002a
:10359000010037001e0078000080fa0000000600dd
:1035a0000e00fa00100798002107980032079800d3
:1035b0004307980054079800650798000000eb0047
:1035c000000f780011028000010f780011028000c6
:1035d000000e200001007000100288004e029000d2
:1035e000de0190003e019000ae0090001e009000b1
:1035f000e00207009e007800110288006e00900033
:1036000001712200010878000080fa000000060025
:103610000600fa0010079800210798000000eb0050
:10362000000f780011028000010f78001102800065
:10363000000e200001007000100288001e009000a3
:10364000900078001e009000210098009e007800f5
:10365000110288002e0090000171220001087800fc
:103660000080fa00000006001200fa0050079800df
:103670006107980072079800030f98000000eb00a4
:10368000000f78005e0090000000e00002003a00a9
:10369000a00621005007980011028000010f780059
:1036a00011028000000e200001007000100288004e
:1036b0005e009000a00090006e0090000000ea0004
:1036c000808060005e009000200190006e009000fd
:1036d0000000e900000061000000e000020032008c
:1036e0006e009000010037000000eb0000804000f9
:1036f000100798009e007800110288005e0090007c
:10370000900090005e009000100078000080500053
:103710000000e800200798005e009000100078008c
:103720009e0090000080500030079800ae0090008e
:103730003e00900000805000400798007e009000fe
:103740000000e0000d0032007e009000ae0090000e
:10375000110098007e009000be00900001087800e3
:103760005e009000900078007e009000210098009c
:103770007e0090009e009000310098000e0890009e
:1037800001712200010878004e0090000080fa00cc
:10379000000006000a00fa001007980021079800b0
:1037a00032079800430798002e0090000000e000c8
:1037b00002003a00a0062100200798004e03900066
:1037c0008002eb0014002000230020003e01900046
:1037d000ae0090001e009000c2020700000f7800ab
:1037e0001e0078000080fa00000006000e00fa00bb
:1037f00010079800210798003207980043079800a7
:1038000054079800650798002e0090000000e00023
:1038100002003a00a0062100200798006e039000e5
:10382000de02900014002000ce0190003e019000c6
:10383000ae0090001e009000aa020700000f780062
:103840001e0078000080fa00000006000e00fa005a
:103850001007980021079800320798004307980046
:1038600054079800650798002e0090000000e000c3
:1038700002003a00a0062100200798002e009000c8
:10388000400090006e039000de029000000278007d
:10389000ce0190003e019000ae0090001e0090000e
:1038a00090020700000f78001e0078000080fa00e8
:1038b000000006002000fa00000f9800110f980089
:1038c000220f9800330f9800440f9800550f98006e
:1038d000660f9800770f98000000eb003007980003
:1038e000fe0890000e089000a50007007e089000da
:1038f0009000780000712200808f500099003a00fb
:103900001e0890000000e00003003a00a00621001d
:10391000000f780032003700110280003107980054
:1039200011028000000e20000100700010028800cb
:103930001e0890007e099000ae0890002902070042
:10394000000f78007e0890001000780001712200be
:10395000810f50000400320001782200810f5000d6
:103960001c00320018003700fe0a90006e0a90001a
:103970001300200022002000a1002000a00621004a
:103980007e020700000f78007e089000900078000b
:1039900000712200808f500003003200be009000b2
:1039a00011028800740037001e0890002e0a900053
:1039b00013002000000178009e0078000000eb005a
:1039c000ec01070004003700be00900011028800df
:1039d0006900370000000000be009000110288005e
:1039e0005e0890008000ea004e0890008080600031
:1039f0005e0890000001e9004e08900000006100a0
:103a00000000e000020032005e0890000100370074
:103a10000000eb000080400040079800ce009000be
:103a20003e0890000088b900000078005007980018
:103a3000708028007e0b9000ee0a90001400200099
:103a4000de0990005e0190009e00780025020700cc
:103a5000600798007e0890009000780000712200b6
:103a6000808f500041003a003e0890000000400066
:103a700080007800b08128007e0b9000ee0a900054
:103a8000140020002300200001017800a10621007d
:103a900014020700800078000e0890004100980092
:103aa0007e0890009000780000712200808f500006
:103ab00030003a00ee009000210798000000eb0073
:103ac000100798000e0037000e089000c00090000c
:103ad0001e0090000000400000804000ae009000fa
:103ae00001087800ae0090004e0090000080400079
:103af000200798001e0090000000e80010079800c2
:103b00009e0090003e089000808f5000eeff39002c
:103b1000ee0090005e009000008040000000e90090
:103b2000700798000e089000ee00900001087800e1
:103b3000fe0090000e089000110098000e08900002
:103b4000be089000210098000e089000ce00900062
:103b5000310098000e089000be08900051009800b7
:103b600005003700000000000300370000000000df
:103b700001003700000000000080fa00000006008d
:103b80000400fa00000f7800110798001e0078006a
:103b90008000eb00010878001e0078008000eb0038
:103ba000110098001e0078008000eb0031009800a2
:103bb0001e0078008000eb00210098001e007800b5
:103bc0008000eb00410098001e0078008000eb00b0
:103bd000510098001e009000017122000108780039
:103be0000080fa00000006000a00fa002007980092
:103bf00031079800420798000000eb00100798007a
:103c00000000eb00000f78001102800011079800ff
:103c100011028000000e20000100700010028800d8
:103c20002e009000500090000000e00015003200cf
:103c30002e009000500090008000e9002e009000bf
:103c4000510098002e009000c00090002e009000bf
:103c500050009000000040000080400010007800fc
:103c6000000f78002e009000c00090002e00900001
:103c70005000900000004000008040008000eb00f9
:103c8000010878009e009000110288001e00780054
:103c90000000e00004003a004e009000e17d2200a8
:103ca00001087800030037004e00900001712200e7
:103cb000010878001e0078000080fa00000006006d
:103cc0000800fa00100798002107980032079800b2
:103cd0000000eb00000f780011028000010f780057
:103ce00011028000000e2000010070001002880008
:103cf0001e009000d00090001e0090002000900058
:103d0000808f5000060039009e0078001102880064
:103d10003e009000d17d220001087800120037009b
:103d20001e009000c00090001e0090005000900007
:103d30000000400000804000ae00900001087800c4
:103d40001e009000500090008000e8001e009000cf
:103d5000510098009e007800110288003e009000fb
:103d600001712200010878000080fa0000000600be
:103d70000800fa0020079800310798000000eb00c7
:103d8000000f780011028000010f780011028000fe
:103d9000000e200001007000100288002e0090002c
:103da000d0009000110798009e0078001102880052
:103db0003e00900001712200010878001e00900072
:103dc0000080fa00000006001000fa00000f7800e2
:103dd00011079800220798003307980044079800bd
:103de0005507980066079800770798002e00900006
:103df0000000e00002003a00a00621002007980021
:103e0000fe009000811f7800ee0390005e0390009a
:103e1000150020004e029000be0190002e0190007f
:103e20009e0090001e007800a90107008f87e9001e
:103e30000080fa00000006001000fa00000f780071
:103e4000110798002207980033079800440798004c
:103e50005507980066079800770798002e00900095
:103e60000000e00002003a00a006210020079800b0
:103e70002e00900040009000fe009000811f78000e
:103e8000ee0390005e039000800278004e029000e6
:103e9000be0190002e0190009e0090001e00780050
:103ea0008b0107008f87e9000080fa000000060000
:103eb0000a00fa0030079800410798000000eb0064
:103ec000000f78003e009000500090000000e000dd
:103ed0001a00320011028000010f780011028000e8
:103ee000000e200001007000100288003e009000cb
:103ef000e00090003e00900050009000808f500045
:103f0000070039009e007800110288004e009000e2
:103f1000e17d2200010878000000eb003c00370042
:103f20003e009000600090008000e8003e0090009d
:103f3000610098009e007800110288001102800044
:103f4000010f780011028000000e200001007000b7
:103f5000100288003e009000400090000000e00049
:103f60000e0032003e009000c00090001107980043
:103f70001e009000900078003e00900041009800e4
:103f80009e007800110288004e009000017122000e
:103f9000010878001e0090001d0037009e00780088
:103fa000110288000000eb00200798003e009000fe
:103fb000b00190003e009000200190003e00900073
:103fc000900090003e009000100078004e0390009a
:103fd0008002eb0003027800820178000101780082
:103fe000800078002e009000be00070010079800a7
:103ff0004e0090009000780000712200808f5000e9
:10400000020032000000eb00010037001e009000ab
:104010000080fa00000006000800fa00100798006f
:1040200021079800320798000000eb00000f78008d
:104030001e009000500090000000e00017003200c9
:1040400011028000010f780011028000000e200094
:1040500001007000100288001e00900060009000b7
:104060000000e00006003a009e007800110288007f
:104070003e009000d17d2200010878001900370031
:104080001e009000600090008000e9001e0090007b
:10409000610098009e0078001102880011028000e3
:1040a000010f780011028000000e20000100700056
:1040b000100288002e0090009e009000c100900029
:1040c000010878001e009000ae00900041009800aa
:1040d0009e007800110288003e00900001712200cd
:1040e000010878000080fa00000006000800fa00cd
:1040f00020079800310798000000eb001007980097
:104100002e009000500090000000e00011003200ee
:10411000110280001107980011028000000e20009b
:1041200001007000100288002e009000d000900066
:104130002e00900060009000008f50009e009000c4
:10414000110288003e0090000171220001087800f1
:10415000050037000000eb00000f78003e009000e3
:10416000f17d2200010878001e0078000080fa002e
:10417000000006000a00fa00000f780011079800fe
:104180002207980033079800440798001e0090000b
:10419000ae00900001087800ce0090002e00900044
:1041a000008040008000e9001e009000110098008f
:1041b0001e009000ae009000210098000142800097
:1041c0001e009000310098001e009000be0090007c
:1041d000410098009e009000014288000080fa0093
:1041e000000006000e00fa004007980051079800f2
:1041f00062079800de0090004e00900000804000b2
:104200000000e9001007980001428000010f7800cb
:104210002b0037001e0078009000780021079800de
:104220001e0078009000900031079800ce009000aa
:104230002e009000808f500009003a009e009000f0
:104240003e009000808f500005003a006e00900004
:1042500001782200010878001e0078001f00370056
:10426000ce0090002e009000808f50000400390096
:10427000ce0090003e009000808f50000800360075
:10428000ce0090002e009000808f500009003e006c
:104290009e0090002e009000808f50000500390095
:1042a0006e009000f1772200010878001e0078006f
:1042b0000a0037001e007800b0009000010f78005f
:1042c0001e0078000000e000d2ff3a006e0090006f
:1042d00001712200010878000000eb000080fa0064
:1042e000000006001200fa0020079800310798002d
:1042f00042079800530798006407980075079800d4
:10430000060f98000000eb00000f780011028000fb
:10431000010f780011028000000e200001007000e3
:10432000100288008e0a90007e029000ee0190003c
:104330005e019000ce0090003e0090000f0007004c
:10434000100798000e08900090007800007122007d
:10435000808f5000040032009e0078001102880017
:104360000000eb00030037009e0078001102880077
:104370001e0090000080fa00000006001600fa00ff
:10438000500798006107980072079800030f980083
:10439000140f9800250f9800fe0090000e08900062
:1043a000810f50000100310001007800000f7800fb
:1043b0005e009000a00090001e00ea008080600077
:1043c0005e009000200190001e00e90000006100e6
:1043d0000000e000020032001e00780001003700fb
:1043e0000000eb0000804000100798009e00900045
:1043f0006e009000808040000e0890000000ea00ef
:10440000808060001e0190006e009000000141005d
:104410000e0890000000e900000061000000e000cc
:10442000020032000e089000010037000000eb008f
:1044300000804000200798005e00900090009000ef
:104440005e00900020009000008050000000e80016
:10445000300798005e00900020009000ae009000b1
:104460000080500040079800be0090004e00900071
:10447000808f50000d0031001e0890000000e00009
:1044800005003200ce0090003e0090008080500079
:104490001e089000010878002e089000917d2200ef
:1044a000010878000000eb00070037005e00900074
:1044b000ae009000210098002e08900001712200ab
:1044c000010878001e0090000080fa00000006003d
:1044d0001800fa00400798005107980062079800fa
:1044e00073079800040f9800150f9800260f980086
:1044f000370f98008e0890001e089000810f500022
:104500000100310001007800300798007e00900023
:10451000e10f50000e003e003e0090000000ea0057
:10452000e20060003e0090000000e90062006000d0
:104530000000e000020032003e0090000100370061
:104540000000eb0000804000100798000f003700cb
:104550003e0090008000ea007e00900080806000b5
:104560003e0090000001e9007e0090000000610024
:104570000000e000020032003e0090000100370021
:104580000000eb0000804000100798002e0890000b
:104590000000e000120032009e0090002e08900003
:1045a0000088b900000078004ebb97008002eb0045
:1045b00014002000be01900000017800ee00900081
:1045c0004e00900047ff0700000f78004eb897009c
:1045d0009000780000712200808f500034003a0073
:1045e0005e009000ee009000010878005e009000f0
:1045f000fe009000110098005e009000be00900048
:10460000210098005e0090009e0890003100980004
:104610005e009000be089000510098005e0090007f
:104620008000eb00610098002e0890000000e00080
:10463000180032005e0090009e0078004100980053
:104640000000eb0020079800090037001e007800ea
:104650009e0090009e804000010878001e0090009f
:104660001e0f40002e0090000000e8002007980078
:104670002e0890008000e9002e009000808f5000ee
:10468000f2ff3e001e0078008000eb000108780079
:10469000030037005e0090008000eb0041009800ae
:1046a0004eb8970001712200010878000100370020
:1046b000000000000080fa00000006000400fa007c
:1046c000100798008080eb001e0090000400070097
:1046d000000f78001e0078000080fa00000006003d
:1046e0000800fa002007980031079800ae009000fb
:1046f000010f78000000eb0010079800040037005d
:104700001e0fe8001e0090000000e800100798004f
:104710001e0078000000e000080032001e00780053
:10472000104078000004e000040032009e00900079
:104730003e009000808f5000f1ff39001e00900075
:104740000080fa00000006000600fa00100798003a
:10475000210798000081eb00ae0090001e00900041
:1047600004000700000f78001e0078000080fa00a7
:10477000000006000c00fa0030079800410798007e
:10478000520798003e0090000000e00002003a004e
:104790000000eb00350037004e0090000000e00004
:1047a00002003a000000eb0030003700be0090002d
:1047b000010f7800ce009000110798000000eb0078
:1047c000200798000b0037001e00900090407800f2
:1047d0001e007800014878001e0fe8001e009000bf
:1047e0000000e800100798002e0090000000e8008c
:1047f000200798001e0078000000e0000b00320047
:104800001e0090000000e000080032001e00900032
:10481000104078000004e00004003200ae00900078
:104820005e009000808f5000e7ff39001e00780086
:104830000000e000030032001e0090000000e000d5
:1048400002003a000000eb0008003700ae009000c4
:104850005e009000808f5000030031001e00780041
:104860008040eb00014878003e0090000080fa0094
:10487000000006000600fa001007980021079800c3
:104880000081eb00ae0090001e00900004000700c5
:10489000000f78001e0078000080fa00000006007b
:1048a0000c00fa0030079800410798005207980062
:1048b0003e0090000000e00002003a000000eb0023
:1048c000440037004e0090000000e00002003a0073
:1048d0000000eb003f0037005e0090000000e000a9
:1048e00002003a003e0090003a003700be009000ff
:1048f000010f7800010037001e0fe8001e0078004d
:104900000000e000040032001e0078001040780033
:104910000004e000f8ff3a001e0078000000e0000c
:1049200002003a000000eb002a003700ce009000a1
:10493000110798000000eb00200798000b003700db
:104940001e009000904078001e007800014878001a
:104950001e0fe8001e0090000000e80010079800fd
:104960002e0090000000e800200798001e0078004c
:104970000000e0000b0032001e0090000000e0008c
:10498000080032001e009000104078000004e00093
:1049900004003200ae0090005e009000808f500056
:1049a000e7ff39001e0078000000e000030032003d
:1049b0001e0090000000e00002003a000000eb0042
:1049c000040037001e0078008040eb0001487800aa
:1049d0003e0090000080fa00000006000600fa0089
:1049e00010079800210798000081eb00ae009000ae
:1049f0001e00900004000700000f78001e007800e1
:104a00000080fa00000006001200fa00600798001b
:104a100071079800020f98000e0890000000e00057
:104a200002003a000000eb007a0037006e009000b0
:104a30000000e0000c003a007e0090000000e00062
:104a400002003a000000eb00720037007e00900088
:104a5000104078000080fb000000ea00400798004a
:104a60004e0090006b0037007e0090000000e000d8
:104a700006003a006e009000104078000080fb00b5
:104a8000400798004e00900062003700ee00900052
:104a9000010f7800fe009000110798009e0078003a
:104aa000210798009e009000310798002e0090008a
:104ab0000000e800200798003e0090000000e80099
:104ac000300798000000eb00500798000d003700f9
:104ad0001e0fe8001e0090000000e800100798007c
:104ae0002e0090000000e800200798003e00900093
:104af0000000e800300798005e0090000000e80029
:104b0000500798001e007800904078001e0090002a
:104b10001040780080cf50000e003a001e00780050
:104b2000104078000004e0000a0032002e009000df
:104b30000000e000070032003e0090000000e000ae
:104b400004003200de0090000e089000808f5000bc
:104b5000dfff3900de0090000e089000808f5000cb
:104b600002003a000000eb002a0037001e00780027
:104b7000904078001e0090001040780080cf5000d8
:104b8000090032001e007800104078008080fb0091
:104b90001e009000104078000080fb000080500054
:104ba000400798001a0037001e0078001040780077
:104bb0000004e00003003a000000eb00400798000a
:104bc000130037002e0090000000e0000c003a00b7
:104bd0003e0090000000e00003003a000000eb00ff
:104be000400798000a0037003e009000104078000f
:104bf0000080fb000000ea00400798000400370036
:104c00002e009000104078000080fb0040079800c4
:104c10004e0090000080fa00000006000600fa0036
:104c200010079800210798000081eb00ae0090006b
:104c30001e00900004000700000f78001e0078009e
:104c40000080fa00000006001400fa0070079800c7
:104c5000010f9800120f98001e0890000000e0005d
:104c600002003a000000eb008f0037007e00900049
:104c70000000e0000f003a000e0890000000e00085
:104c800002003a000000eb00870037000e08900099
:104c9000104078000e1f0700104f98001e4890002b
:104ca0000080fb000000ea00500798005e009000c2
:104cb0007d0037000e0890000000e00009003a0077
:104cc0007e00900010407800011f0700004f980000
:104cd0000e4890000080fb00500798005e00900096
:104ce00071003700fe009000010f78008e089000e0
:104cf000110798009e007800210798009e00900000
:104d0000310798002e0090000000e800200798006e
:104d10003e0090000000e800300798001e00780078
:104d200010407800ea1e0700004f98001e00900017
:104d300010407800e61e0700104f98000000eb00be
:104d400060079800150037001e0fe8001e00900055
:104d50000000e800100798002e0090000000e80016
:104d6000200798003e0090000000e80030079800ff
:104d70006e0090000000e800600798001e007800b8
:104d800010407800d21e0700004f98001e009000cf
:104d900010407800ce1e0700104f98008e489000fb
:104da0001e48900080cf50000e003a001e00780090
:104db000104078000004e0000a0032002e0090004d
:104dc0000000e000070032003e0090000000e0001c
:104dd00004003200ee0090001e089000808f50000a
:104de000d9ff3900ee0090001e089000808f50001f
:104df00002003a000000eb002b0037008e489000c4
:104e00001e48900080cf5000070032000e489000ee
:104e10008080fb001e4890000080fb000080500056
:104e2000500798001f0037000e4890000004e00073
:104e300003003a000000eb0050079800190037000b
:104e40002e0090000000e0000f003a003e009000ad
:104e50000000e00003003a000000eb00500798005b
:104e6000100037003e00900010407800981e0700a8
:104e7000104f98001e4890000080fb000000ea00e0
:104e800050079800070037002e009000104078006f
:104e90008f1e0700004f98000e4890000080fb0016
:104ea000500798005e0090000080fa0000000600a5
:104eb0000600fa0010079800414798004e41900004
:104ec0008080eb001e00900004000700000f7800b7
:104ed0001e0078000080fa00000006000a00fa00b8
:104ee0002007980031079800024f98002e0090008c
:104ef0000000e00002003a000000eb003100370043
:104f00003e0090000000e00002003a000000eb00cc
:104f10002c003700ae009000010f78000000eb007d
:104f200010079800040037001e0fe8001e009000d4
:104f30000000e800100798001e0078000000e00064
:104f40000d0032001e007800104078000004e000e0
:104f5000090032001e007800904078000e48900052
:104f600080cf5000040032009e0090003e00900070
:104f7000808f5000ecff39001e0078000000e00038
:104f800002003a000000eb000e0037009e00900087
:104f90003e009000808f5000020039000000eb00be
:104fa000080037001e007800904078000e489000fe
:104fb00080cf5000020032000000eb0001003700fb
:104fc0001e0078000080fa00000006000600fa00cb
:104fd00010079800414798004e4190008080eb00f8
:104fe0001e00900004000700000f78001e007800eb
:104ff0000080fa00000006000c00fa00300798005c
:1050000041079800224f98003e0090000000e00009
:1050100002003a000000eb00270037004e0090002d
:105020000000e00002003a000000eb002200370020
:10503000be009000010f78004e0090000000e900d3
:10504000100798009e0090001e007800a4fd070045
:10505000200798002e0090001e0f40001e007800d0
:105060000000e00003003a000000eb0012003700ef
:105070001e0fe9003e0090009e007800808f5000d7
:10508000050032001e007800904078002e48900005
:1050900080cf5000f6ff3a001e0078009040780064
:1050a0002e48900080cf5000020032000000eb003c
:1050b000010037001e0078000080fa0000000600a2
:1050c0000600fa00100798004147980052479800e0
:1050d0008081eb005e419000ce4090001e00900069
:1050e00004000700000f78001e0078000080fa001e
:1050f000000006000a00fa002007980061479800a7
:1051000072479800430798002e0090000000e000ce
:1051100002003a000000eb00210037004e00900032
:105120000000e00002003a000000eb001c00370025
:10513000ae009000010f7800ce009000110798009b
:105140000c0037001e007800904078006e40900000
:1051500080cf500003003a001e007800fe4090000f
:10516000014878001e0fe8001e0090000000e900d2
:10517000100798001e0078000000e00007003200d1
:105180001e007800104078000004e00003003200a8
:105190001e0090000000e000eaff3a002e009000a0
:1051a0000080fa00000006000600fa0010079800d0
:1051b000210798000081eb00ae0090001e009000d7
:1051c00004000700000f78001e0078000080fa003d
:1051d000000006001800fa00100f9800210f980038
