:020000040000fa
:080000000002040000000000f2
:020000040000fa
:100400008fcf20000eff20000e01880000000000aa
:100410000c000700c00223000100200011000700ab
:10042000000020000000e000020032000000020096
:10043000000000008a2f0200000000000040da00e7
:100440000000fe004440a900a02020000000e000c1
:100450000300320000002000a00188004440a800f2
:100460000000060091018800800078000000eb0089
:1004700015003700e280400032a0b4009101ba00bc
:10048000e280400032a0b4009102ba00e280400055
:1004900032a0b4000002eb00472bde00f507b200eb
:1004a000602ce10004003a000059eb008301e900f0
:1004b000fdff3e00040037006128e100010032002a
:1004c0000082eb00040007001101ba000200e00006
:1004d000e8ff3a00000006003159ba008301e90044
:1004e0000c0032002159ba008301e90008003200f3
:1004f0000400e00003003a00e280400032a0b400b3
:10050000f5ff370011d9ba008301e900faff3a007c
:100510008100e800e180400032a0b4000000060045
:1005200000000000000000000000000000000000cb
:10053000000000000000000003f0a200889fbe0041
:100540008a9fbe008c1f7800f6000700fd00330074
:100550006450e1004f0032006420e100520032009c
:1005600003826c0007003b000905d0000306d000a1
:10057000820f54000c065d000200390002003200b8
:1005800089017800030678008582550004003d004b
:100590000003fd008103fd008502ea008b85420017
:1005a000840f720002003b0060001000e080180021
:1005b0006011b8000005eb007a28e1000a0039005c
:1005c00006007800c75ddd00f707b2008780750080
:1005d0002d003700828171000a01780061056000fa
:1005e0008180d1000080d3008502e900f9ff3b0043
:1005f000060440008784480002003b0060041400a9
:10060000e0841c000988a300070032008a81710081
:1006100082817100610164008904d1000884d300e3
:100620008b05e800170037000978a30013003a0093
:100630000b00e000130034008b05e90008044400bf
:1006400089844c000a4474000978a3000d003a0024
:100650000b00e000070034008b05e90008044400ab
:1006600089844c0001003a000b0020000978a300a7
:10067000f7ff32000001eb000200370082817100b9
:100680000a017800810007000cf0a70001f0a0002b
:10069000b50037006420e10002003a00838f6c004f
:1006a000b50033000801be000200be00ae003700f6
:1006b000889fbe008a9fbe008c1f780099000700ab
:1006c000a000330003866c006450e1002e0032006d
:1006d0006420e100330032006150e1002f0032005d
:1006e0006120e1003100320085855500eb07b00044
:1006f0000900200008042000050037000804440019
:1007000089844c000a0031000603430087834b00b4
:100710000001530081815b00f8ff33000203be003b
:100720000800a0000804440089844c00f6ff39004a
:10073000c639dd0083017300010032001300200080
:100740008904d1000884d3000998a3000500320071
:100750000800a7000300a0008904d1000884d3008a
:100760008b05e8008904d1000884d3000001eb0068
:100770000281d2004500070001f0a1000cf0a700a3
:1007800001f0a000780037006420e1007a00320018
:100790000801be000200be00f7ff37006120e10043
:1007a000750032006000b800f3ff37000000200041
:1007b00001f82700f0ff3700f4ff2f00df003700bb
:1007c000889fbe008a9fbe00010578000100e000fe
:1007d0000400350008003c000000e000200032006a
:1007e0000500370060001000e080180002003b00a8
:1007f00001f02c001a0037000004be006011b800a0
:100800006b0920000982cf00020039000882cf0066
:100810000441b000694252000e00320008003b0063
:1008200082817100610164008904d1000884d300d1
:100830008b05e8000442e800f9ff3a0005003700a4
:100840000804440089844c008b05e9000442e90057
:10085000fbff3a000d0007000af0a70001f0a0001e
:100860004f05be004f04be00000006000001eb0073
:100870008b000700040032000200200003f8230070
:1008800001f0a7002cff07000000060081002000f7
:10089000618055000b003d000b00200061fe2f0021
:1008a0000100e1001d0034008281710061016400db
:1008b0008904d1000884d3000000e800faff3a0060
:1008c00071002000610064000300700002006000fd
:1008d0000900320061044400e0844c000988a5004e
:1008e000050032008b05e8006808e10002003a00cc
:1008f0008904d1000884d300f20f20000258e100df
:1009000005003d00c75ddd00f907b2008980750074
:1009100008007800000006000bf827008b00780024
:10092000000005000004be009f0007000003be0099
:100930000405be000200be009b000700844f750046
:10094000000006000200be006450e1000500360011
:100950006420e100020036000968a30001003a00ab
:100960000800be000160a0004f0678004f05be00e1
:100970004f04be0000000600f0ff2f00f1ff27002b
:10098000f9ff3700889fbe008a9fbe008c1f780049
:10099000e4ff0700ebff330003866c006450e100c6
:1009a000240032006420e100270032006150e100a1
:1009b000220032006120e100210032008b854200dc
:1009c000eb07b1000134b800003ab8000804420057
:1009d00089844a00013ab8000030b800888040009d
:1009e00009014a00040033000000400081804800f3
:1009f000020149008b05e900c909dd00830170008f
:100a00000100320013002000c814de004814dd008d
:100a10004709de001200b200c808de00088470003a
:100a20009aff070001f0a1000cf0a70001f0a00060
:100a3000cdff37006120e100cfff32000801be008a
:100a40000200be00f7ff37006150e100fcff3a00f2
:100a5000c9ff37006022b800060220000000d00065
:100a60008180d2000482d2008582d2000000a000e2
:100a70000202520083825a00030031000202420047
:100a800083824a000000a1000603e900f3ff3a0058
:100a900000000600efff07000400be000000060093
:100aa000889fbe008a9fbe000003be003e00070074
:100ab0008505780082815200020020006220e1005a
:100ac00004003a00f307b100040035007718e10094
:100ad000040035000600be00140037006000b800b6
:100ae0000f003700f50f2000faff2f008502d1001c
:100af0000a85d3008301e900fcff3b00818462008a
:100b000000046500890f7400f2ff32008582ea005c
:100b10000a85ea0081846200000465005bff07002b
:100b200007f0a70001f0a0000081eb000200e00048
:100b30004f05be004f04be0000000600889fbe00a7
:100b40008a9fbe00841f780076ff07004f00780060
:100b500011003300f0ff2f00838f6c0006003b0074
:100b6000040565000a00a7000800370009f0a60088
:100b70001000200008003700820f5400838f5c00b3
:100b8000030039001000200001003e00000020009a
:100b900009f0a7000000ea004f05be004f04be00a8
:100ba0000000e00000000600c70ade00f107b20006
:100bb000f50fb20008003200e1cf4200020032001f
:100bc0000170a00024000500810f700001003200b8
:100bd0000408050044000500810f700002003a007f
:100be000140005008502e9000000400081c04800b3
:100bf000fcff3b000170a00024000500800178008c
:100c0000d01620000018b800421ade00040240008e
:100c1000e082480042062000110009008281d800cd
:100c20000001780002025200e0825a0002192000fe
:100c3000110009008281d8008000fd0001004200ff
:100c4000e0804a0000000600889fbe000003780094
:100c50000102e80010bf200000a2b90010442f00dc
:100c60000400400044062000811f780011000900a4
:100c70000480d800cf007800000141006114b80062
:100c8000e18f500014003600021920001100090005
:100c90000283d800010078000000e0000700320065
:100ca0006300630008003a00110009000483d800c3
:100cb0008000fd000000e000030032001000200072
:100cc0000100200002003700200020000100200069
:100cd0000004540081845c000600e900c7ff07009f
:100ce00008004000898048004f04be000000060054
:100cf000889fbe008a9fbe008c9fbe0000067800c1
:100d0000d0069000a0fb2f00008046000081eb0081
:100d10008081eb0021032000810f500033003e0052
:100d2000120020008000eb00207b2000c6ff07009f
:100d30000005be00c0762000008046003c01900007
:100d4000cc009000c0ff07000004be000a05500060
:100d50008b85580072002000030020000a00be00ae
:100d60002700070064004000e08048007200200077
:100d7000030020002200070060069800b0762000e3
:100d8000008046009dff0700000454000804e900ad
:100d90007806980082012000030020000a00be00af
:100da000260007002c019000cf91de0000004100da
:100db00081804900c2032000030020001f000700bb
:100dc0001c019000cf91de000000410081804900ad
:100dd000c203200003002000180007001c01780057
:100de000cf91de0000014100818149000200be0078
:100df0004f06be004f05be004f04be0000000600b7
:100e0000811f78000100e00002003d00600010003a
:100e1000e08018000300e00002003d0060011100c6
:100e2000e08119001bff07004f00e00002003b00bb
:100e300060001000e080180000000600020ab900ff
:100e4000001bb9000200b80081004200810043008d
:040e50000000060098
:020000040000fa
:10000800661c0000661c0000661c0000661c0000e0
:10001800661c0000661c0000661c0000661c0000d0
:10002800661c0000661c0000661c0000461a0000e2
:10003800661c0000661c0000661c0000141a000004
:10004800f6190000661c0000661c0000781b000002
:10005800661c0000661c0000661c0000661c000090
:10006800661c0000661c0000661c0000b61a000032
:10007800661c0000661c0000661c0000661c000070
:10008800661c0000661c0000661c0000641a000064
:10009800661c0000661c0000c41b0000041c000055
:1000a800661c0000661c0000661c0000661c000040
:1000b800661c0000661c0000661c0000661c000030
:1000c800661c0000661c0000661c0000661c000020
:1000d800661c0000661c0000661c0000661c000010
:1000e800661c0000661c0000661c0000661c000000
:1000f800661c0000661c0000661c0000661c0000f0
:10010800661c0000661c0000661c0000661c0000df
:10011800661c0000661c000000190000661c000038
:10012800661c00003a1c0000501c0000661c000001
:10013800661c0000661c0000661c0000661c0000af
:10014800661c0000661c0000661c0000661c00009f
:10015800661c0000661c0000661c0000661c00008f
:10016800661c0000661c0000661c0000661c00007f
:10017800661c0000661c0000661c0000661c00006f
:10018800661c0000661c0000661c0000661c00005f
:10019800661c0000661c0000661c0000661c00004f
:1001a800661c0000661c0000661c0000661c00003f
:1001b800661c0000661c0000661c0000661c00002f
:1001c800661c0000661c0000661c0000661c00001f
:1001d800661c0000661c0000661c0000661c00000f
:1001e800661c0000661c0000661c0000661c0000ff
:0801f800661c0000661c0000fb
:020000040000fa
:10020800661c0000661c0000661c0000661c0000de
:10021800661c0000661c0000661c0000661c0000ce
:10022800661c0000661c0000661c0000461a0000e0
:10023800661c0000661c0000661c0000141a000002
:10024800f6190000661c0000661c0000781b000000
:10025800661c0000661c0000661c0000661c00008e
:10026800661c0000661c0000661c0000b61a000030
:10027800661c0000661c0000661c0000661c00006e
:10028800661c0000661c0000661c0000641a000062
:10029800661c0000661c0000c41b0000041c000053
:1002a800661c0000661c0000661c0000661c00003e
:1002b800661c0000661c0000661c0000661c00002e
:1002c800661c0000661c0000661c0000661c00001e
:1002d800661c0000661c0000661c0000661c00000e
:1002e800661c0000661c0000661c0000661c0000fe
:1002f800661c0000661c0000661c0000661c0000ee
:10030800661c0000661c0000661c0000661c0000dd
:10031800661c0000661c000000190000661c000036
:10032800661c00003a1c0000501c0000661c0000ff
:10033800661c0000661c0000661c0000661c0000ad
:10034800661c0000661c0000661c0000661c00009d
:10035800661c0000661c0000661c0000661c00008d
:10036800661c0000661c0000661c0000661c00007d
:10037800661c0000661c0000661c0000661c00006d
:10038800661c0000661c0000661c0000661c00005d
:10039800661c0000661c0000661c0000661c00004d
:1003a800661c0000661c0000661c0000661c00003d
:1003b800661c0000661c0000661c0000661c00002d
:1003c800661c0000661c0000661c0000661c00001d
:1003d800661c0000661c0000661c0000661c00000d
:1003e800661c0000661c0000661c0000661c0000fd
:0803f800661c0000661c0000f9
:020000040000fa
:0200000401f009
:040000000f000000ed
:020000040000fa
:0200000401f009
:0400080003000000f1
:020000040000fa
:0200000401f009
:04000c006000000090
:020000040000fa
:0200000401f009
:0400100033000000b9
:020000040000fa
:0200000401f009
:040014005f00000089
:020000040000fa
:0200000401f009
:04001800fc000000e8
:020000040000fa
:0200000401f009
:04001c00820000005e
:020000040000fa
:0200000401f009
:040020001f000000bd
:020000040000fa
:100e5400000000000000000000000000000000008e
:100e6400000000000000000000000000000000007e
:100e7400000000000000000000000000000000006e
:100e8400000000000000000000000000000000005e
:1010b400581b000028230000524500004144000052
:1010c400592b000054550000524f00004e470000b9
:1010d40020470000504f00004e2b000054550000e4
:1010e400524f00004e47000020470000504f0000c0
:1010f400464600002b540000555200004f4e00009d
:1011040047200000475000004f5400002b540000bb
:10111400555200004f4e0000472000005445000087
:1011240053540000523000002b520000454300008d
:1011340057410000320000000000000000000000e1
:10114400000000000000000000000000000000009b
:10115400000000000000000000000000000000008b
:10116400000000000000000000000000000000007b
:10117400000000000000000000000000000000006b
:10118400000000000000000000000000000000005b
:10119400000000000000000000000000000000004b
:1011a400000000000000000000000000000000003b
:1011b40000000000000000000000000020280000e3
:1011c4003250000064960000c80100000a64000068
:1011d400332e0000352e0000360000000109000007
:1011e4000a10000012130000141500001617000066
:1011f400191b00001d1e00001f20000021220000fa
:10120400262a00002e320000363a000000000000ba
:1012140000000000000000000000000000000000ca
:1012240000000000000000000000000000000000ba
:1012340000000000000000000000000000000000aa
:10124400000000000000000000000000000000009a
:10125400000000000000000000000000000000008a
:041264000000000086
:020000040000fa
:101268005000fa005027980041cf98000000eb008a
:10127800200798000040eb00204798000040eb0052
:10128800104798000040eb00004f78005e20900067
:101298000000e800104078000080fb0070279800ec
:1012a80000022000fe209000808f50002b013200a9
:1012b80000022000fe209000808f50000a003c00b1
:1012c8007e209000e40f500041003200fe20900084
:1012d800f08f5000970032007e209000e30f5000fe
:1012e8000e0032005b01370020022000fe20900033
:1012f800808f50004101320020022000fe20900023
:10130800808f50002301350030042000fe2090001b
:10131800808f50004d0132004e0137005e20900052
:101328000080e80090407800214798005e209000f7
:101338006300400090407800114798002e409000cc
:10134800e14f400003003a00e6ccbf002047980078
:101358000d0037002e4090000080fb000001eb00dc
:10136800f10820005e0a07000080fb000000e00092
:1013780005003a004ec9900021c0b30030c0b30048
:1013880088020700390137001e4090000080fb00ea
:101398001200200001092000510a07000080fb000c
:1013a8000000e00005003a004ec9900031c0b300cb
:1013b80030c0b3007b0207002c0137001e419000ab
:1013c800ae4090004ec890002b010700270137005f
:1013d8005e2090000080e800904078002147980047
:1013e8005e2090006300400090407800114798000c
:1013f800f08e2800104078000081fb0060902800e3
:10140800104078008080fb002e4090000080fb0098
:10141800330a07000080fb000000e00005003a00e6
:101428004ec9900021c0b30040c0b3005d02070060
:101438000e0137001e4090000080fb0012002000c3
:1014480081012000260a07000080fb000000e00060
:1014580005003a004ec9900031c0b30040c0b30047
:101468005002070001013700f08e280090407800f4
:101478006600470012c0b300810c0700e600470071
:1014880040c0b300904098002e4090000080fb00c0
:101498009e4090003a0c07008040780066004700a4
:1014a8002140980066004700a0409000014f780056
:1014b80066004700630040001e417800ae4090007f
:1014c8006f0c07001e4078006340400080407800a1
:1014d80066004700fe100700200798001e80fb00ea
:1014e800630140002e0090008040780066004700ad
:1014f80000004100014878001e80fb0064014000a4
:101508002e0090004800de0080407800660047000a
:1015180000004100014878001e4078006540400006
:1015280000417800e60047004ec8900042020700dc
:10153800ce00370040c0b300004f78005e20900016
:101548000080e80090407800214798005e209000d5
:10155800630040009040780011479800f08e280002
:10156800104078000081fb0060902800104078004f
:101578008080fb002e4090000080fb00d809070007
:101588000080fb000000e00005003a004ec9900012
:1015980021c0b30000c1b30002020700b300370046
:1015a8001e4090000080fb001200200081012000f6
:1015b800cb0907000080fb000000e00005003a00ae
:1015c8004ec9900031c0b30000c1b300f501070057
:1015d800a6003700908f2800104078000080fb009c
:1015e800800078005e209000808040001e80fb0014
:1015f8000080400071002000025a200003002000f3
:10160800cc090700a08f2800104078000080fb005c
:10161800800078005e209000808040001e80fb00e3
:1016280000804000c1032000025a2000030020006f
:10163800c0090700b08f2800104078000080fb0028
:10164800800078005e209000808040001e80fb00b3
:10165800008040008000eb00025a200003002000b8
:10166800b40907002e4090000080fb009e409000c7
:10167800c30b0700004178001e80fb008000780043
:101688005e20900000804000ae409000e30b070011
:101698008910070055100700811007001e80fb0005
:1016a800800078005e2090008080400060902800d4
:1016b800104078000080fb008080400066004700f2
:1016c80042c0b3004c0a0700660047003040900053
:1016d8008080fb0066004700204090000080fb00ef
:1016e8004800dd00008040006101b8006600470046
:1016f800104090000080fb0001002000c000dd00c9
:101708000000200002014000838148006600470075
:10171800104078000080fb0001002000c800dd00b8
:1017280000002000020040008380480060668800b6
:1017380071668800c1cc20004200200000ff210013
:101748001c0f07002e4090000080fb004ec990003f
:101758009e409000a1000700440037004ec890004a
:10176800e14f500005003a0012c0b30011c0b300a9
:1017780000c2b3008b0107003c003700b412070019
:10178800c462a800c2000700c462a900b81207001a
:10179800360037004ec89000e14f500005003a006f
:1017a80012c0b30011c0b30010c2b3007d0107001e
:1017b8002e003700a6120700c462a8005e20900021
:1017c8000080e800ed000700c462a900a812070025
:1017d8005e209000e20c07000080fb000000e000a3
:1017e800fbff3a005e209000bc0c07000080fb0065
:1017f8000000e000fbff3a001c0037004ec89000d4
:10180800e14f500005003a0012c0b30011c0b30008
:1018180020c2b30063010700140037009065800000
:10182800610060000000e000050032000041eb00ac
:1018380041c0b30020c2b3005a0107000b003700b3
:10184800b32ca80003010700080037001f01070098
:10185800060037005e2090000000e8001040780085
:101868004ec9900011c0b3004e01070010002000bf
:101878000080fa00000006003800fa00407798005f
:1018880051779800627798000000eb00000f78000d
:10189800f08e2800904078006300470012c0b30023
:1018a800770b0700e300470030c0b3009040980072
:1018b80063004700ee7090002140980063004700e5
:1018c80031c0b30002100700000f78001e00780036
:1018d8008040780063004700314098001e0078007f
:1018e8004800de00804078006300470041409800cf
:1018f800e300470052c0b3004e7090004e0107004d
:101908006e709000e14f500012003a005e70900037
:101918000080fb00f008b000020920001100090057
:101928000200d8008000fd0080007800e00220005e
:101938000088b900e3004700e2022000cc0e07004f
:10194800e3004700e2c2b3004e7090003a0107007e
:101958002000370030c0b3006e0907000040eb00dc
:1019680020479800170037005e7090008080fb00c9
:101978002e4090000080fb0000804000f008b0007e
:1019880002092000110009000200d8008000fd00b3
:1019980080007800e00220000088b900e3004700da
:1019a800e2022000b20e0700e3004700e2c2b300e3
:1019b8004e709000200107002e4090000040e80083
:1019c80020479800ae4090006e70900080cf500085
:1019d800e5ff39000080fa00000006000e00fa005a
:1019e80050079800414f9800524f98000000eb00b4
:1019f800000f7800f08e2800904078000e80e800f4
:101a080012c0b3001e0b07008e80e80000c1b300af
:101a1800904098005e0090004800de00804078000a
:101a28000e80e800214098005e0090008040780019
:101a38000e80e800314098000e80e800ce48900003
:101a4800414098000e80e80051c0b300a00f070085
:101a5800000f78001e007800804078000e80e800b3
:101a6800514098001e0078004800de008040780051
:101a78000e80e800614098008e80e80072c0b300d4
:101a88005e489000ec0007000080fa0000000600a5
:101a98009200fa000e80e800a17228008f00090069
:101aa800315878000009b1000000eb00000f780001
:101ab800f08e2800904078000e80e80012c0b30035
:101ac800ef0a07008e80e80000c2b300904098003b
:101ad80050c0b3000f090700e2c0b3008188280096
:101ae80010c0b300d400070050c0b30009090700b4
:101af8000e80e8008080e80054c0b30063892800a5
:101b080082c8b300405b22003b0c0700804078008d
:101b180080c8b30080cf500012003a000e80e80061
:101b2800a1c8b3006a0f0700000f78001e007800f4
:101b3800804078000e80e800214899001e00780057
:101b48004800de00804078000e80e80031489900a7
:101b58008e80e800c2c8b3000040eb00b600070062
:101b6800040037000041eb0051c0b30000c2b300cd
:101b78008c0007000080fa00000006001800fa0038
:101b8800300f98000000eb00000f7800f08e28005e
:101b9800904078000e80e80012c0b300b80a070031
:101ba8008e80e80010c2b3009040980050c0b30087
:101bb800d808070002c9b300be08900010c0b300df
:101bc8009d00070080c0b300d20807000e80e8001f
:101bd8008080e80054c0b30063892800a2c0b30025
:101be800405b2200040c07000004e00013003200f0
:101bf8009f1107000e80e80021c0b300340f0700d2
:101c0800000f78001e007800804078000e80e80001
:101c1800214098001e0078004800de0080407800cf
:101c28000e80e800314098008e80e80042c0b30082
:101c38000040eb0080000700040037000041eb0083
:101c480041c0b30010c2b300560007000080fa007c
:101c5800000006000800fa000000eb00000f780002
:101c6800f08e2800904078000e80e80012c0b30083
:101c7800830a07008e80e80020c2b30090409800d5
:101c88000e80e80021c0b300110f0700000f780094
:101c98001e007800804078000e80e80021409800ff
:101ca8001e0078004800de00804078000e80e800c2
:101cb800314098008e80e80042c0b3000040eb003d
:101cc8005d0007000080fa00000006000e00fa0020
:101cd80063004700a17b28000900090031587800fb
:101ce800a000b1000040eb00204798000000eb0086
:101cf800000f78006300470012c0b3008040eb007b
:101d08005f0a0700e300470030c4b3009040980022
:101d18000040eb00204798000c0037002e40900050
:101d28000080fb000081e8002e4090008080fb00ce
:101d3800a08e2800e1407800630047000171780018
:101d48002e4090000040e800204798002e40900068
:101d5800e44f5000f1ff36006300470071c0b30044
:101d6800db0e0700000f78001e0078008040780026
:101d780063004700714098001e0078004800de00ac
:101d8800804078006300470001489800e30047005e
:101d980092c0b3000040eb00270007000080fa0063
:101da800000006000c00fa00004f9800114f980040
:101db800224f9800f08e2800904078000e80e800ae
:101dc80012c0b3002e0a07008e48900000c8b30066
:101dd80000c04000804078000e80e8001140980064
:101de8000e80e8009e489000214098000e80e80090
:101df80031c0b300b60e0700000f78001e0078004f
:101e0800804078000e80e800314098001e0078007d
:101e18004800de00804078000e80e80041409800cd
:101e28008e80e80052c0b3002e48900002000700e0
:101e38000080fa00000006000600fa00004f780053
:101e480011079800424798001e04e0000500320080
:101e58004e4090008080fb001e009000ed100700af
:101e6800040037004e4090008080fb001e00900068
:101e7800051007000080fa00000006006200fa0062
:101e880060df98000040eb00604798000000eb001e
:101e980020079800104080001007980000c8bf0075
:101ea800004f7800e800470010c4b300804878006d
:101eb800e800470020c3b30090409800008f280036
:101ec80090407800680047000080e80082c0b300b6
:101ed800eb0907006ed890000080fb0000379800df
:101ee8008e309000e18f50006c0032000e30900070
:101ef800e20f5000a30032008e3090000100e00095
:101f080001003200e00037001e009000f80f50007a
:101f180003003600800120001007980002003700f7
:101f28000040eb00004f78009e009000e002200087
:101f38000088b9006f004000200798002e0090002c
:101f48004800de008040780068004700214898007b
:101f58002e009000804078006800470031489800c3
:101f680068004700eed89000414898001e00900095
:101f78008040780068004700514898006800470092
:101f8800e1002000990e070060479800e80047002c
:101f9800e2c0b30010c0b300a7ff07000040eb0089
:101fa80070479800370037007e4090008080fb0023
:101fb8001e80fb0000804000820120001100090003
:101fc8000200d8008000fd0000417800f6004700bc
:101fd80010c0b300060a0700f10220008e804000fe
:101fe80076004700210c0700f00220000e00400098
:101ff80064004000f600470012040700f0022000c9
:102008000e004000e1022000780e070080407800b2
:102018006e40900001404000604798001e0090000c
:102028008000e9007e4090000080fb00808f500017
:102038000a003a00f00220000e004000ee40900036
:1020480061689800f10220008e804000f2c2b3005f
:1020580010c0b30078ff070007003700f102200026
:102068008e804000e2c2b30010c0b30072ff0700c8
:1020780050c0b300a70707007e4090000040e8006a
:10208800704798007e4090008080fb001e00900002
:10209800808f5000c4ff39007b003700e8004700fc
:1020a8000040eb00a0489800e8004700d0c3b30008
:1020b800b0489800e80047000040eb00c04898008e
:1020c800e800470010c0b300d048980068004700f7
:1020d800e1002000450e070060479800e80047002f
:1020e800e2c0b30010c0b30053ff0700b2eca80071
:1020f800c80b07008760a80087c0bf006840600061
:102108000004e000fcff3200f600470012c0b300f4
:1021180020c0b300b6090700f10220008e804000fd
:1021280076004700d10b0700f00220000e004000a7
:1021380064004000f6004700c2030700f0022000d8
:102148000e004000e1022000280e070080407800c1
:102158006e4090000140400060479800f002200067
:102168000e004000ee40900061689800f1022000e7
:102178008e804000f2c2b30010c0b3002eff0700eb
:1021880041003700e80047000040eb00a0489800f5
:10219800e8004700d0c3b300b0489800e800470003
:1021a8000040eb00c0489800e800470010c0b300aa
:1021b800d048980068004700e10020000b0e070097
:1021c80060479800e8004700e2c0b30010c0b300c1
:1021d80019ff0700b30ca8008e0b07008760a80042
:1021e80087c0bf00684060000004e000fcff3200c8
:1021f8007e4090008080fb001e80fb000080400035
:1022080082012000110009000200d8008000fd00b2
:1022180000417800f600470020c0b30074090700a9
:10222800f10220008e804000760047008f0b0700e7
:10223800f00220000e00400064004000f600470055
:1022480080030700f00220000e004000e102200099
:10225800e60d0700804078006e4090000140400085
:1022680060479800f00220000e004000ee40900009
:1022780061689800f10220008e804000f2c2b3002d
:1022880010c0b300ecfe07000080fa000000060052
:102298000800fa00100798001e0090006e00400029
:1022a80090407800114798001e0090006d00400093
:1022b80010407800004f78001e4090000080fb001e
:1022c8000001eb0061002000850607000080fb008c
:1022d8000000e00003003a000000eb00300798001f
:1022e800740037001e00fb0032002000d1012000de
:1022f8007b0607000080fb000000e00003003a00b6
:102308008000eb00310798006a0037001e0090003b
:102318006c004000104078000004e00063003a00c0
:102328005d0037001e4090000080fb0020079800e9
:102338002e009000e10f50001a003200ae0090000d
:10234800e28f50002a0032002e0090000000e000ca
:10235800010032004e0037001e0090006f00400060
:1023680071002000025a20000300200071060700b7
:10237800908f2800904078001e0090006f00400069
:1023880022c0b300a50807009e40780063cf500024
:102398001e0090007100400090407800114798009e
:1023a8003d0037001e00900072004000c10320006d
:1023b800025a2000030020005e060700a08f2800b4
:1023c800904078001e0090007200400022c0b300c8
:1023d800920807001e407800634f50001e009000ce
:1023e8007400400090407800114798002a00370098
:1023f8001e00900076004000104078008080fb00ae
:102408001e00900075004000104078000080fb001e
:102418004800dd00008040000000e00007003a00ae
:102428001e009000750040008000eb00025a20005a
:10243800030020003f060700080037001e00900038
:10244800f50040000040eb00804878001e00900036
:10245800f60040000040eb0080487800b08f28006c
:10246800904078001e0090007500400022c0b30024
:102478006a0807001e407800634f50001e00900055
:10248800770040009040780011479800020037001c
:102498000040eb00004f78001e04e000a1ff3c0064
:1024a8001000200030079800020037008000eb0081
:1024b800310798003e0090000080fa0000000600f6
:1024c8009800fa000040eb00004f78000e00e8008a
:1024d800417c280095000900315878006009b10056
:1024e8000040eb0070579900f08e2800904078006b
:1024f800700920000e00400012c0b30060080700f9
:10250800700920000e0040008e00e80014c0b300df
:102518008001780042c9b30020572200b60907009d
:10252800004f78001e04e0000c0032001e407800c6
:1025380000c0e900004178008e00e800c0c6220013
:10254800480d07000080fb000000e0000300320097
:102558000e00e8008040eb0041fb07000080fa0015
:10256800000006000200fa000040eb00004f78006f
:102578000a003700626680007366800000f0210060
:10258800a1a02f00020040008380480060668800f8
:102598007166880010c0b300004f78006266800042
:1025a80073668000f00f2e00515f2000800f5100ed
:1025b800818f5900efff3e001e80fb000080fa006b
:1025c800000006002000fa00300798004107980034
:1025d800520798000040eb00404798004066800092
:1025e80051668000008fbe006000b8004066880019
:1025f80051668800e08f280090407800640047000a
:1026080012c0b3001e0807004e409000e24f500071
:10261800020036000040eb00404798001e00be0054
:10262800e00f5000e08f580004003a005e0190006f
:102638006000b8000089be00770037003e019000b6
:10264800ce0190001000200001002000800f5100f2
:10265800818f59003e003e00f6ccbf000004e00028
:10266800330032004e4090008080fb0000cd2000f7
:1026780000804000104078000080fb00cf80de0022
:102688004df8070002802c00f38a2400bbf80700ed
:10269800400f9800510f98001e00be00e00f500038
:1026a800e08f5800050035001e00be0042f8070004
:1026b800200f9800310f9800150037001e00780091
:1026c800610160006000b800030020000200700093
:1026d800838070001e01be008301d1000281d300f7
:1026e800020070008380700033f80700200f980004
:1026f800310f98002e099000be0990002e08900016
:10270800be0890008bf70700200f9800310f980043
:102718002e099000be0990004e089000de08900037
:10272800e1f70700600f9800710f98000300370069
:102738006011b800620f9800730f98005e00900057
:102748006e099000fe0990000288be003200370032
:102758004e4090008080fb0000cd200000804000ab
:10276800104078000080fb00cf80de0012f80700e0
:1027780002802c00f38a240080f80700000f9800dc
:10278800110f98001e00be00e00f5000e08f5800a7
:10279800050035001e00be0007f807006007980016
:1027a80071079800150037001e007800610160006d
:1027b8006000b800030020000200700083807000f1
:1027c8001e01be008301d1000281d3000200700007
:1027d80083807000f8f70700600798007107980079
:1027e8006e019000fe0190006e009000fe009000c7
:1027f80050f7070060079800710798006e01900075
:10280800fe0190000e0890009e089000a6f70700b1
:102818005e0190000089be000080fa0000000600fa
:102828004000fa0010079800210798003207980026
:102838001e009000ae009000e00f5000e08f58009e
:102848004c0132000040eb00004f7800e08f280078
:102858009040780012c0b3000e0078008807070087
:102868001e407800e24f5000020036000040eb00a6
:10287800004f78001e4078008080fb0000cd2000cb
:1028880000804000104078000080fb00701f980016
:102898007e189000ea0f50006800320040062000c1
:1028a800fe189000808f5000c10032007e19900001
:1028b800e10f510001003200350137001e00900081
:1028c800ae009000026a2800130020005ff807009d
:1028d800501f9800611f98005e1a9000ee1a900031
:1028e800e00f5200e08f5a00060035005e18900095
:1028f800ee189000b0f70700301f9800411f9800ad
:10290800160037005e189000610160006000b80092
:102918000300200002007000838070005e1a90009f
:10292800ee1a90008501d1000481d30002007000e6
:1029380083807000a0f70700301f9800411f98009f
:102948003e199000ce1990003e189000ce189000c5
:10295800f8f60700301f9800411f98003e189000b5
:10296800ce189000bff707003e0190000089be0016
:102978003e00900064004000201f98001e00900058
:10298800ae009000026a2800130020003ff80700fc
:10299800001f9800111f98000e1890009e189000b4
:1029a800e00f5000e08f5800060035000e18900028
:1029b8009e18900080f7070060179800711798001c
:1029c800160037000e189000610160006000b80022
:1029d8000300200002007000838070000e1a90002f
:1029e8009e1a90008501d1000481d3000200700076
:1029f8008380700070f707006017980071179800bf
:102a08006e119000fe1190006e109000fe10900064
:102a1800c8f6070060179800711798000200200098
:102a2800031224006e109000fe1090001ef707009d
:102a3800ae1a9000808abe00d50037001e009000b4
:102a4800ae0090000271220003002000fff707008b
:102a580040179800511798004e109000de10900013
:102a6800e00f5000e08f5800060035004e1090002f
:102a7800de10900050f707002017980031179800d3
:102a8800160037004e109000610160006000b80029
:102a98000300200002007000838070004e12900036
:102aa800de1290008501d1000481d300020070007d
:102ab8008380700040f707002017980031179800ae
:102ac8002e119000be1190002e109000be109000a4
:102ad80098f6070020179800311798002e109000dc
:102ae800be1090005ff707003e0190000089be000d
:102af8003e00900064004000101798001e009000ef
:102b0800ae0090000271220003002000dff70700ea
:102b1800700f9800011798007e0890008e109000a2
:102b2800e00f5000e08f5800060035007e08900046
:102b38008e10900020f70700500f9800610f980042
:102b4800160037007e089000610160006000b80040
:102b58000300200002007000838070007e0a90004d
:102b68008e1290008501d1000481d300020070000c
:102b78008380700010f70700500f9800610f9800cd
:102b88005e099000ee0990005e089000ee08900043
:102b980068f60700500f9800610f98005e089000d3
:102ba800ee0890001e1190000089be0078003700e2
:102bb8009e009000a0002000000ab8001e009000af
:102bc8006000b90005017800000141002e00900066
:102bd8006a00b900000141008202780002712200f7
:102be800030020000400be0098f70700300f98008b
:102bf800410f98003e0a9000ce0a9000e00f520064
:102c0800e08f5a00060035003e089000ce0890007c
:102c1800e9f60700100f9800210f980016003700fa
:102c28003e089000610160006000b80003002000c9
:102c380002007000838070003e0a9000ce0a900067
:102c48008501d1000481d3000200700083807000e8
:102c5800d9f60700100f9800210f98001e09900060
:102c6800ae0990001e089000ae08900031f60700eb
:102c7800100f9800210f98001e089000ae089000d1
:102c8800f8f607003e0190000089be003e00900063
:102c980064004000000f98009e009000a0002000f3
:102ca800000ab8001e0090006000b9000501780015
:102cb800000141002e0090006a00b90000014100a7
:102cc8008202780002712200030020000400be0086
:102cd8006ef7070060079800710798006e00900073
:102ce800fe009000e00f5000e08f5800060035000d
:102cf8006e009000fe009000aff6070040079800b5
:102d080051079800160037006e00900061016000be
:102d18006000b8000300200002007000838070008b
:102d28006e029000fe0290008501d1000481d3005c
:102d380002007000838070009ff60700400798002b
:102d4800510798004e019000de0190004e0090005f
:102d5800de009000f7f5070040079800510798003b
:102d68004e009000de0090000e0990000089be0021
:102d7800070037003e009000640140006000b80082
:102d88000089be001200be003e0190000089be000e
:102d98000080fa00000006000400fa00881f78008e
:102da80010079800e6ccbf008080fb00e0022000fe
:102db8000088b900000f78001e009000d80220009b
:102dc80000044400d1c2b3001e009000ef0a0700bf
:102dd800004c7800e20220009e0090001e0078005f
:102de800740907001200200061ce2000f0ff2100c6
:102df80070090700e6ccbf000040e800e6ecb70029
:102e0800e6ccbf000080fb00020920001100090089
:102e18000280d8008000fd00e6ecb7004f0478007f
:102e28000080fa00000006005c00fa0000df98004d
:102e38006000b80040279800512798006000b8004b
:102e480060279800712798006000b800002f98004c
:102e5800112f98006000b800202f9800312f98009b
:102e6800e2c2b3008040eb000e007800790407004e
:102e7800bcfd07000080fb000000e00005003200f8
:102e8800f6ccbf000004e00002003a0010c0b30016
:102e9800f6ecb7006066800071668000820420004e
:102ea8000e014100c7fd07004e209000de20900073
:102eb80002002000832424003df607000000e00003
:102ec80001003c0004003700000020008124240099
:102ed800402798005127980060668000716680003e
:102ee800020520000e0141004dfe0700c00420002d
:102ef8000e004000560b0700e00220000e004000c4
:102f0800f9090700e10220008e80400072c0b3007a
:102f18000e00780038040700e00220000e00400090
:102f2800e7004000800420000e004000f402070083
:102f3800e00220000e004000e70040007300470058
:102f480042c0b3002c040700e00220000e0040003d
:102f5800eb004000000520000e004000e8020700da
:102f6800e00220000e004000ef00400000052000b5
:102f78000e00400064004000e1020700e00220006b
:102f88000e004000eb0040007700470082c0b3000d
:102f980019040700e00220000e004000f300400082
:102fa800c00420000e004000d5020700e002200007
:102fb8000e004000f3004000700220000e004000a8
:102fc80042c0b3000c0407000ed890000080fb003c
:102fd800502f98005e289000e10f50000c0032003e
:102fe8005e289000e20f50000e0032005e2890002c
:102ff8000000e000010032000e003700e10220006e
:103008008e80400010c0b300b805070009003700e3
:10301800e10220008e80400020c0b300b305070005
:1030280004003700e10220008e80400020c0b30079
:10303800ae0507000e00780057ff07000080fa0071
:10304800000006000600fa00100798002107980003
:10305800f08e28009040780012c0b3001e00900047
:10306800870507001e0090008000e80030c0b3000c
:10307800804878001e0090008080e80050c2b300ad
:10308800804878001e0090006300400082c0b300b2
:103098008040eb00ef0307001e0090006b0040002b
:1030a80042c0b3008040eb00ea0307002e00900006
:1030b800eb0040001e0090006f00400082c0b3008b
:1030c800cd0307002e009000e70040001e0090008e
:1030d8007700400042c0b300c70307001e009000fd
:1030e8007b00400042c0b3008040eb00d9030700da
:1030f8001e0090007f00400042c0b3008040eb00fb
:10310800d40307009165800000082000008060005b
:103118000000e000090032001e009000310220008b
:10312800808040001e0090003002b00010407800ff
:103138000044a0008048780018003700906580009f
:1031480001102000010060000000e0000a003200c9
:103158001e00900032022000000141001e00900075
:103168003002b00090407800f0cdb30000c060009d
:1031780000497800090037001e0090003202200044
:10318800000141001e0090003002b000904078001d
:10319800f0ceb30000c06000004978002e00900017
:1031a800f30040001e0090004002b00042c0b3008f
:1031b8009103070081c2b3001e009000c4090700f4
:1031c800000f78001e0090008102200080804000df
:1031d8001e007800804878001e00900091022000b0
:1031e800808040001e0078004800de00804878009b
:1031f8000080fa00000006003600f800809fbe003c
:10320800829fbe00849fbe00869fbe003400f800e7
:1032180000002000a00188000600fa000000eb0072
:103228003e0c0700006680001166800061004000c7
:10323800e08048000066880011668800e06580002c
:10324800f165800061004000e0804800e06588008a
:10325800f1658800c0658000d1658000610040008c
:10326800e0804800c0658800d1658800e0902800ab
:1032780005000900305f78006e00b100908f2800cb
:103288009040780062c0b3000e007800fc0407008c
:10329800c2658000d36580001e4078000080fb0076
:1032a800c800dd001e4090000080fb000080400048
:1032b80066005000cf80de00800f5100818f5900da
:1032c80002003900b2aca80005e1a800c265800080
:1032d800d36580001e4078000080fb00c800dd0038
:1032e8001e4090000080fb0000804000cf80de0080
:1032f800800f5100818f5900070039006000b80025
:10330800c0658800d1658800b2aca90005e1a900b4
:10331800400707008760a800e2658000f365800029
:103328002e4090000080fb00c800dd003e40900069
:103338000080fb0000804000cf80de00800f51003d
:10334800818f5900040039006000b800e0658800ea
:10335800f1658800b20ca800026680001366800040
:103368004e4090000080fb00c800dd005e409000e9
:103378000080fb0000804000cf80de00800f5100fd
:10338800818f5900030039006000b800006688008a
:103398001166880090658000610060000000e00010
:1033a80004003a0090658000620060000000e000c0
:1033b80002003200b24ca80001003700b24ca9004c
:1033c8008bc0a9000080fa003400f9004f03be004a
:1033d8004f02be004f01be004f00be003600f9008c
:1033e8000040060000a0fe003400f800881f7800a6
:1033f80008002000a80188004f0478000000fa00a7
:10340800406780000000e800406788008500a90048
:103418000080fa003400f9000080fe000040060039
:1034280000a0fe003600f800849fbe00869fbe0004
:103438003400f80004002000a40188000000fa000d
:1034480022c2bf00704060000004e000fcff3200b0
:103458001bfc070011e1a9000000eb003008880000
:10346800b28ca90084e0a9000080fa003400f900b9
:103478004f03be004f02be003600f9000080fe0078
:103488000040060000a0fe003400f800881f780005
:1034980008002000a80188004f0478000000fa0006
:1034a800506780000000e800506788008460a90029
:1034b8000080fa003400f9000080fe000040060099
:1034c80000a0fe003600f800849fbe00869fbe0064
:1034d8003400f80004002000a40188000000fa006d
:1034e8009065800001082000010060000000e000f5
:1034f80004003200b2eca900100020004afe0700c8
:103508000b0037009065800001102000010060006a
:103518000000e00004003200b30ca90020002000e5
:1035280041fe0700020037000000eb003efe0700e6
:10353800c1cc200042c0b30000ff21009d07070056
:103548008760a900b80607000080fa003400f90077
:103558004f03be004f02be003600f9000080fe0097
:10356800004006003600f800809fbe00829fbe0023
:10357800849fbe00869fbe00889fbe003400f8006e
:1035880000002000a00188000000fa00cbc2bf00a4
:10359800624060000004e000490032001000200092
:1035a8005c020700cbc2bf00624060000004e0007c
:1035b8004300320060668000716680006100400050
:1035c800e080480060668800716688009165800028
:1035d80000022000008060000000e00029003200a6
:1035e8009065800001042000010060000000e000f8
:1035f8002400320051678000803e20000088b90016
:103608006104b800000880006103b80086007800f3
:10361800803e20000009b8006030b900030278003d
:1036280000024200803e200000b8b90000024200bb
:1036380084017800411add004f10de00000072009e
:10364800cf18de0008004000898048004006b0001e
:103658000180b0004066880051668800426680009c
:1036680053668000f07c200001002000800f51008c
:10367800818f590003003e006000b8004066880052
:10368800516688000000eb00000888000000eb008d
:1036980050678800906580004500de00614060004a
:1036a8000080fb00610060004601dd00916580003c
:1036b800f0fb2f0000806000020070009065880019
:1036c8008660a9000080fa003400f9004f04be00ab
:1036d8004f03be004f02be004f01be004f00be00a8
:1036e8003600f900004006003600f800809fbe0052
:1036f800829fbe00849fbe00869fbe003400f800f3
:1037080000002000a00188000200fa00c462a8009e
:103718000000eb00010b0700c462a9000040eb00a9
:10372800004f78000040eb00004f7800060037009b
:1037380022c2bf00614060000004e00001003200c6
:10374800a60407001e4fe80030c0b3009e4f1000cb
:10375800f7ff3600b28ca80011e1a8008560a90027
:103768000080fa003400f9004f03be004f02be008b
:103778004f01be004f00be003600f90000400600b1
:103788003600f800809fbe00829fbe00849fbe0066
:10379800869fbe003400f80000002000a0018800c9
:1037a8000200fa000040eb00004f78000040eb00f8
:1037b800004f78000600370032c2bf006140600049
:1037c8000004e00001003200a30407001e4fe800d7
:1037d80030c0b3009e4f1000f7ff360087c0a90025
:1037e8000080fa003400f9004f03be004f02be000b
:1037f8004f01be004f00be003600f9000040060031
:10380800809fbe000200fa000040eb00004f7800e5
:103818000b003700a16580001e80fb00008040007f
:10382800104078000080fb00a011880033c2bf0060
:10383800614060000004e000fcff32001e4fe80019
:10384800b6ccbf009e4f50000400360033c2bf0004
:10385800624060000004e000eeff320087e0a9004b
:103868000080fa004f00be0000400600801f78006c
:103878000000fa0022c2bf00624060000004e000bd
:10388800010032002222a9008c20a9000080fa0041
:103898004f00780000400600801f78000000fa0002
:1038a80032c2bf00624060000004e0000100320044
:1038b8003222a9008c40a9000080fa004f0078004d
:1038c800004006003600f800809fbe00829fbe00c0
:1038d800849fbe00869fbe000800fa004091280021
:1038e80006000900305f78007e00b100c1cc2000de
:1038f80042c0b30000ff2100ae0607000e007800aa
:10390800790707000174200022c0b30000f02100ed
:10391800a80607004108200022c0b30020f02100bb
:10392800a40607006108200022c0b30040f021006f
:10393800a00607008108200022c0b30060f0210023
:103948009c060700a108200022c0b30080f02100d7
:1039580098060700c108200022c0b300a0f021008b
:1039680094060700e108200022c0b300c0f021003f
:1039780090060700410a200022c0b300e0f02100b1
:103988008c060700610a200022c0b30000f1210064
:1039980088060700810a200022c0b30020f1210018
:1039a80084060700a10a200022c0b30040f12100cc
:1039b80080060700c10a200022c0b30060f1210080
:1039c8007c060700e10a200022c0b30080f1210034
:1039d80078060700010b200022c0b300a0f12100e7
:1039e80074060700210b200022c0b300c0f121009b
:1039f80070060700410b200022c0b300e0f121004f
:103a08006c060700610b200022c0b30000f2210001
:103a180068060700c10b200022c0b30020f2210075
:103a280064060700210c200022c0b30040f22100e8
:103a380060060700410c200022c0b30060f221009c
:103a48005c0607004109200022c0b30080f2210073
:103a5800580607006109200022c0b300a0f2210027
:103a6800540607008109200022c0b300c0f22100db
:103a780050060700a109200022c0b300e0f221008f
:103a88004c060700c109200022c0b30000f3210042
:103a980048060700e109200022c0b30020f32100f6
:103aa8004406070080c0bf00644060000004e000d6
:103ab800010032008040a90080c0bf00684060005b
:103ac8000004e000010032008060a90080c0bf004f
:103ad800704060000004e000010032008080a9000e
:103ae8000000fe000080fa004f03be004f02be0037
:103af8004f01be004f00be003600f900004006002e
:103b08000800fa0020079800310798002e0090005e
:103b1800000f78000040eb00204798000e003700a7
:103b28002e4090000080fb00800078003e0090004e
:103b3800808040002e4090000080fb001e00100096
:103b48006300400010407800804878002e409000c4
:103b58000040e800204798002e409000e34f5000b6
:103b6800efff36000080fa00000006000800fa00a7
:103b780020079800310798002e009000000f780069
:103b88000040eb00204798000f0037002e409000bf
:103b98000080fb00800078001e0078000081400053
:103ba8002e4090008080fb003e00900001005000f5
:103bb8006300400010407800004978002e409000d3
:103bc8000040e800204798002e409000e34f500046
:103bd800eeff36000080fa00000006000800fa0038
:103be80020079800310798002e009000000f7800f9
:103bf8000040eb00204798000e0037002e40900050
:103c08000080fb00800078003e009000808040002b
:103c18002e4090000080fb001e001000670040004e
:103c280010407800804878002e4090000040e8005e
:103c3800204798002e409000e74f5000efff3600d5
:103c48000080fa00000006000200fa00004f780029
:103c58001e80fb004400de000080fb006f00600057
:103c68006a00b900804078001e4078006f4060000c
:103c780000c040000080fb000080fa000000060041
:103c88000200fa00004f78001e80fb00a20020000e
:103c9800110009000280d8000080fb004400dd000c
:103ca8008040780000cfb30080c060001e80fb0019
:103cb800a2002000811f7800110009000280d800ae
:103cc8000001780001007800cf0078006f406000a4
:103cd80000c070000080fb000080fa0000000600b1
:103ce8000800fa00000f78001107980022079800d2
:103cf8001e0090009e0f1000030036000000eb002d
:103d080030079800080037002e0090009e0f100022
:103d1800030031000000eb00300798000200370074
:103d280010002000300798003e0090000080fa0044
:103d3800000006000a00fa00100798002207980001
:103d480033079800410798001e0090001040780043
:103d58000080fb00c800dd001e0090000000e800a5
:103d6800104078000080fb0000804000000f7800c1
:103d78001e0078006101b8002e009000be0090007f
:103d8800800f5100818f59000e0036002e009000e0
:103d9800be0090004809dd004800de000000710008
:103da800c808de00804078001e00900001487800b6
:103db8001e0090008000e8002e00900080487800e7
:103dc8000c0037004e0090009e0f100009003100d3
:103dd8004e0090004800de00804078001e009000f1
:103de800014878001e0090008000e8004e00900016
:103df800804878000080fa00000006000600fa00fb
:103e080010079800414798000040eb00004f7800e9
:103e18001f0037001e80fb00800078001e00900005
:103e28000080400090407800114798001e80fb00f9
:103e3800800078001e009000008140004e409000f5
:103e48008080fb001e80fb0000805000800078000e
:103e58001e009000008040000000e900104078003b
:103e6800004978004e4090008080fb001e80fb00d7
:103e780000805000800078001e0090000080400004
:103e88000000e9009e409000014878001e4fe800bd
:103e98004e4090000080fb000000d1009e4f500073
:103ea800dcff3e000080fa00000006000400fa0073
:103eb80020479800080037000000eb00000f78004a
:103ec80002003700000000001e0fe800b0a2210029
:103ed8009e0f1000fbff36000040eb0030479800b3
:103ee8002e4090000004e0000200340010c0b3002f
:103ef800304798002e4090000040e9002047980085
:103f08003e4090000004e000ebff3a000080fa0019
:103f1800000006000400fa00204798000800370057
:103f28000000eb00000f78000200370000000000de
:103f38001e0fe800b0fd2f009e0f1000fbff36009b
:103f48000040eb00304798002e4090000004e0004d
:103f58000200340010c0b300304798002e40900093
:103f68000040e900204798003e4090000004e0002f
:103f7800ebff3a000080fa00000006000600fa0095
:103f8800404798000d0037006000b800008fbe0061
:103f9800050037000000000010002000010020008c
:103fa8001e0f40005e974800701c29005100200039
:103fb800be0f1000ae8f1800f6ff36008040eb00f1
:103fc800514798004e4090000004e0000200340081
:103fd80010c0b300504798004e4090000040e900e0
:103fe80040479800de4090000104e000e6ff3a00f8
:103ff8000080fa00000006000800fa001007980088
:1040080021079800624798000040eb00004f7800b5
:104018000b0037001e80fb00800078001e00900017
:10402800008140001e80fb00800078002e00900078
:104038000080400010407800004978001e4fe800da
:104048006e4090009e4f1000f2ff39000080fa0089
:10405800000006000600fa00100798004147980083
:10406800524798000040eb00004f780007003700e7
:104078001e80fb00800078001e0090000080400039
:10408800ce409000014878001e4fe8005e40900046
:104098009e4f1000f6ff39000080fa00000006006d
:1040a8000000fa00c062a900c462a900e064a90087
:1040b800c9a2a900e3a4a9000080fa000000060034
:1040c8000a00fa000040eb00004f78000e00e800fc
:1040d800d189280004000900315878005000b10047
:1040e800c462a90060002000a4ff0700c462a80001
:1040f80010002000a1ff07000040eb00004f9800cf
:1041080031c0b3009ecf10000200360010c0b300cb
:10411800004f98001e4fe8008e4890000104e00010
:1041280004003200c462a9000000eb0030079800c8
:104138000a0037008e00e80054c0b300e385280069
:1041480022c0b300405b2200ab0207000004e0007d
:10415800e3ff320011002000310798003e00900074
:104168000080fa00000006000a00fa006047980084
:10417800208a280004000900305f78005e00b10042
:10418800c462a9006e4090000080fb007bff07001e
:104198008087280044c0b3008001780022c0b300a3
:1041a8008e007800405b2200930207008000eb003d
:1041b800410798000004e0000200320010002000cf
:1041c800400798004e0090000080fa0000000600aa
:1041d8000600fa0010079800414798000040eb00dd
:1041e800004f780005003700ce4090001e00900078
:1041f800080807001000200060ff07000040eb00df
:104208005047980020c0b3009e4f100002003e00a7
:1042180010c0b300504798001e4fe8005e40900061
:104228000004e000f0ff3a000080fa0000000600f9
:104238000400fa00000f7800c9a2a800650307006f
:104248000f0037000060fe00cbc2bf000042b20082
:104258000004e0000a003200100020002dff0700d3
:10426800cbc2bf000042b2000004e00004003200ec
:10427800c9a2a90010002000100798000700370005
:10428800406780009e0f5000eeff3900580307007a
:10429800c9a2a9000000eb00100798001e009000ba
:1042a8000080fa00000006004400fa00881f780029
:1042b800407f9800517f9800627f98006300470014
:1042c800f18a28002f000900315878000003b10056
:1042d8000040eb00204798000040eb001047980092
:1042e8000040eb00004f7800300320000e00400033
:1042f800718a280007000900315878008000b10051
:10430800008f280090407800300320000e00400005
:1043180082c0b300da00070010c0b300edecb700ac
:10432800cb0707007800370065ff07000080fb0017
:104338000000e00006003a0000c8b300edecb7004a
:10434800cb0707000000eb00102798008800370013
:10435800c1c0b300308628009dff0700d04284000a
:10436800b3ff07000080fb000000e000640032009b
:104378001000200001ff07000040eb0010479800e4
:10438800510037004e7890000080fb00bbf6070014
:1043980060002000f9fe07000040eb00004f7800a5
:1043a8000600370032c2bf00614060000004e00030
:1043b80001003200a80107001e4fe80031c0b30019
:1043c8009ecf1000f7ff3600e300470024c0b3007b
:1043d800b3892800c2c2b300405b2200060207006e
:1043e8000004e0003800320063004700306c9000a1
:1043f80063004700b10220007c050700804f54008d
:104408002f003a00630047000080e80031032000d5
:104418008e80400082c0b300b50507000080fb0015
:104428000000e000230032006300470098f707000f
:104438000040eb00edecb70030c0b3004aff0700c6
:104448000080fb000000e00002003a0000ccb3004e
:10445800edecb70086070700c0658000d1658000d5
:10446800e0658800f16588004e7890000004e0005f
:1044780001003a0013010700630047005050900004
:104488000080fb00c800dd0063004700605090001a
:104498000080fb00008040000000e00002003200c5
:1044a8000040eb00f4ecb700100020001027980043
:1044b8002f00370030c8b300edecb700020037001a
:1044c80020c8b300edecb7008040eb0001c79800ae
:1044d8009e4090006e78900080cf5000020031001e
:1044e80010c0b30000c798001e4090000040e800cc
:1044f800104798008ec090000104e000a1ff3a0028
:1045080050c8b300edecb7000040eb00707f980096
:10451800ae4090005e78900080cf500002003100dd
:1045280011c0b300717f98002e4090000040e80051
:10453800204798007e7890000004e0007aff3a0057
:1045480040c8b300edecb70030c0b30006ff070069
:104558000080fb000000e00002003a0000ccb3003d
:10456800edecb700420707008000eb001127980028
:104578001e2090004f0478000080fa00000006001a
:104588000600fa0010079800414798000040eb0029
:10459800104798000040eb00004f78000040eb0007
:1045a800104798000b0037001e4090008080fb00e9
:1045b800f08e2800614078008080fb001e0090008b
:1045c800808f5000060032001e4090000040e80036
:1045d800104798001e409000f74f5000f2ff360039
:1045e8004e4090008080fb001e4090000080fb0041
:1045f80080804000f08e2800614178001e409000c5
:104608008080fb00f08e280061407800004f510048
:104618001e80fb000080fa00000006000600fa0079
:104628001007980041479800524798000040eb0057
:10463800004f78000d0037004e4090008080fb004e
:104648001e80fb00008140001e80fb008000780077
:104658001e009000008040009040780080c7200035
:1046680000004100014878001e4fe8005e409000bd
:104678009e4f1000f0ff39000080fa00000006008d
:104688000600fa0010079800414798005247980022
:104698000040eb00004f78000040eb00004f78002e
:1046a8000d0037001e80fb00800078001e0090007f
:1046b800008140009e80fb004e4090000080fb007f
:1046c8008080400080c720000080400010407800b3
:1046d800004978001e4fe8005e4090009e4f100091
:1046e800f0ff39000080fa00000006000800fa0018
:1046f80020479800210798002e4090000080fb007a
:10470800300798003e009000e10f5000040032008e
:104718003e009000e20f50002300320032003700c4
:104728000040eb00004f78000e00370000c8bf00c3
:104738000081fb009e81fb001e80fb00800078004a
:104748002e00900000804000104278007910b900d7
:10475800830040004080200000804000044878002a
:104768001e4fe800d0c2b3009e4f1000efff360086
:1047780000c8bf000040e80000e8b7001040800013
:104788000000e8001040880000c8bf000080fb005f
:1047980082012000110009000280d8008000fd007d
:1047a80000e8b700100037000040eb00004f780029
:1047b8000a0037001e81fb001e80fb008000780085
:1047c8002e0090000080400090407800c0a5200096
:1047d80000004100014878001e4fe80080c1b30086
:1047e8009e4f1000f3ff36000080fa00000006001c
:1047f8000a00fa00204798002107980062479800ad
:104808002e4090000080fb00400798004e0090006a
:10481800e10f5000040032004e009000e20f5000fb
:1048280016003200250037000040eb00004f7800ea
:104838000e0037001e80fb00800078002e009000dc
:10484800808140006e4090000080fb001e81fb00cc
:104858007900b900820040004080200000804000bc
:1048680010407800804978001e4fe80080c1b300ee
:104878009e4f1000efff3600100037000040eb009d
:10488800004f78000a0037001e80fb008000780087
:104898002e009000008140009e80fb00c0a52000f3
:1048a8000080400010407800004978001e4fe80062
:1048b80080c1b3009e4f1000f3ff36000080fa005d
:1048c800000006000200fa000040eb00004f7800ec
:1048d800130037000040eb00104798000c00370029
:1048e8009e80fb001e4090000081fb007908b90003
:1048f8008200400040802000808040000040eb00a3
:10490800804878001e4090000040e800104798005a
:104918001e409000f84f5000f1ff36001e4fe8008f
:1049280070c1b3009e4f1000eaff36000000eb0094
:10493800104088000040eb0000e8b7000080fa0053
:10494800000006000600fa00809028000500090013
:10495800305f78006e00b100d7030700a30307009b
:10496800cf030700609028009040780042c0b30051
:104978000e00780042ff07003e4090008080fb0058
:104988002e4090000080fb004800dd0000804000c1
:104998006101b8001e4090000080fb00010020006b
:1049a800c000dd00000020000201400083814800b3
:1049b8001e4078000080fb0001002000c800dd00d8
:1049c80000002000020040008380480060668800e4
:1049d800716688000080fa00000006000200fa00f4
:1049e80076cabf008080fb0077cabf000080fb004a
:1049f8000000e900808f500003003a00b0118000e9
:104a0800004f78001200370076cabf000081fb0013
:104a1800301180008040780080a72000000041000d
:104a28000148780076cabf000040e80076eab7007f
:104a380076cabf008040780076cabf000080fb00bd
:104a48004880de004800dd0000c0500076eab7006c
:104a58000080fa00000006000200fa000040eb00a7
:104a6800004f7800f2ccbf008080fb00f3ccbf0081
:104a78000080fb000000e900808f500003003a002e
:104a8800b0118000004f780012003700f2ccbf0050
:104a98000081fb00b01180008040780080b72000c2
:104aa8000000410001487800f2ccbf000040e80057
:104ab800f2ecb700f2ccbf0080407800f2ccbf0027
:104ac8000080fb004880de004800dd0000c0500088
:104ad800f2ecb7000080fa00000006000400fa00bb
:104ae800000f780071a720009140780076cabf00b7
:104af80080cf500003003a000000eb001007980038
:104b08001400370077cabf008080fb0080a7200010
:104b180000804000904078001e007800014878002e
:104b280077cabf000040e80077eab70077cabf003d
:104b38008040780077cabf000080fb004880de0014
:104b48004800dd0000c0500077eab70010002000e0
:104b5800100798001e0090000080fa000000060070
:104b68000400fa00000f780031cf2000914078004f
:104b7800f2ccbf0080cf500008003a0032c2bf001c
:104b8800624060000004e000010032003222a90007
:104b98000000eb001007980014003700f3ccbf00aa
:104ba8008080fb0080b720000080400090407800a3
:104bb8001e00780001487800f3ccbf000040e800f0
:104bc800f3ecb700f3ccbf0080407800f3ccbf0013
:104bd8000080fb004880de004800dd0000c0500077
:104be800f3ecb70010002000100798001e0090009a
:104bf8000080fa0000000600d800fa0060a79800bc
:104c080071a7980002d7990013af980044d799006c
:104c18000040eb00204798000040eb001047980048
:104c28000040eb00004f7800080037001e4090005d
:104c38000081fb00e30047000040eb0000f1780032
:104c48001e4090000040e800104798001e40900069
:104c5800f34f5000f5ff36000040eb001047980076
:104c6800040037009e40900070ccb30080cf500005
:104c78000d003e001e4090000080fb00e30047004e
:104c8800808040001e4090000040e80010479800d7
:104c98006ea1900001007800020001000080fb0076
:104ca8000000e000efff3a001e4090000040e900dd
:104cb800004f78000040eb00204798004d00370077
:104cc8002e4090000080fb008000780063004700c1
:104cd80001004000904078001ea890001040780025
:104ce80080cf500040003a000040eb001047980089
:104cf800390037002e4090000080fb00e300470099
:104d0800808040001e4090000080fb000080400032
:104d1800104178001e4090000080fb008000780061
:104d28001ea890000080400010407800804f51007d
:104d38002d003a001e4090008080fb004ed091006c
:104d48000080fb000000e900808f50001f003a003f
:104d58000ed091009e4f500002003e000ed09100f0
:104d6800004f78000040eb00104798001100370012
:104d78001e4090000080fb00800078007ea090001c
:104d8800008140002e4090000080fb00e3004700b7
:104d9800808040001e4090000080fb0000804000a2
:104da80010407800004978001e4090000040e8005c
:104db800104798001e4090009e4f5000ecff3900ad
:104dc8001e80fb0030af98000f0037001e40900097
:104dd8000040e800104798009e4090004ed0910097
:104de80080cf5000c3ff39002e4090000040e800fb
:104df800204798002e4090009e4f5000b0ff390089
:104e08000000eb0030af98003ea890000080fa0048
:104e1800000006000000fa0005e1a80005a1a900ad
:104e28004110200091407800f0ccb30000c0600031
:104e380004e1b7000421a800511020009140780037
:104e4800c0cfb30000c0600005e1b70004c1a900ed
:104e58000000280010088800510a200091407800be
:104e6800f0c8b30000c0600001c6b3000140700084
:104e7800a5e0b7008460a9009460a8000000eb00da
:104e88000008880005e1a9000080fa00000006007b
:104e98000000fa0011e1a80011a1a90001112000e9
:104ea80091407800f0ccb30000c0600001c2b300ac
:104eb8000140700010e1b7001021a90010c1a9003d
:104ec8001061a900400d230060088800710a2000c5
:104ed80091407800f0c8b30000c0600001c2b30080
:104ee80001407000a7e0b70084e0a90094e0a800a2
:104ef8000000eb003008880011e1a9000080fa00ea
:104f0800000006000000fa0013e1a80013a1a800a1
:104f18002111200091407800f0ccb30000c060005f
:104f280012e1b7001221a90012c1a90000c429008a
:104f380070088800810a20009140780080cfb30073
:104f480000c060000004a000a8e0b7008500a90028
:104f58009500a8000000eb005008880013e1a900a4
:104f68000080fa00000006000000fa001fe1a80017
:104f78001fa1a800e111200091407800f0ccb300f7
:104f880000c060001ee1b7001e21a9001ec1a900d3
:104f98001e61a900d0072000d0088800110b20004e
:104fa80091407800f0c8b30000c0600001c3b300ae
:104fb80001407000b1e0b7008760a9009760a900c0
:104fc8000000eb00a00888001fe1a9000080fa009b
:104fd800000006000000fa000000eb0040678800af
:104fe8009500a80013e1a8000080fa000000060060
:104ff8000000fa009500a90013e1a9000000eb00e9
:10500800406788000000eb00500888000080fa0024
:10501800000006000000fa009760a8001fe1a80041
:105028000080fa00000006000000fa009760a9005e
:105038001fe1a9000080fa00000006000400fa0041
:10504800000f7800406780008000eb00110798008f
:105058009e0f500002003600100020001007980034
:105068001e0090000080fa00000006001e00fa00f2
:10507800500f9800610f98005e0890000000e8004b
:10508800104078000080fb00effa0700410620007e
:105098008080400068004700510098005e0890003a
:1050a8000080e800104078000080fb00e6fa070066
:1050b8008000e90068004700410098005e08900001
:1050c80063004000104078000080fb00defa070013
:1050d8008000780068004700310098005e08900062
:1050e80064004000104078000080fb00d6fa0700fa
:1050f8008000780068004700210098005e08900052
:1051080065004000104078000080fb00cefa0700e0
:105118008000780068004700110098005e08900041
:1051280066004000104078000080fb00c6fa0700c7
:10513800800078006800470001087800e800470010
:105148000000eb0080089800e80047000000eb0032
:10515800e0009800e80047000000eb00f00098002d
:1051680068004700e0ee0700200798003107980024
:10517800640f47000040eb00204798000f003700fd
:105188002e4090000080fb00800078006e089000a0
:10519800008140002e4090000080fb0080007800d5
:1051a8001e00780000804000104078000049780018
:1051b8002e4090000040e800204798002e409000c4
:1051c800e34f5000eeff36000080fa0000000600b2
:1051d8000200fa00000f780001003700000000000c
:1051e8001e0fe9000080eb009e0f1000fbff3a0045
:1051f8000080fa00000006000a00fa00a0922800c9
:1052080009000900305f7800ae00b100c8c2a900eb
:10521800c0e2a800c8a2a900c982a900e3c4a900e5
:10522800cd82a800cca2a900ccc2a900cb0007005f
:1052380012c0b30061ce2000f0ff21008c000700ef
:1052480042c0b3008e00780000ff210088000700ec
:10525800410020000e007800e8fa0700609028005e
:105268009040780042c0b3000e007800ebfc0700c5
:1052780072c0b3008e00780000fa21007c0007009d
:105288009e40780000c2b30080cf500005003a006d
:10529800308f28009040780072c0b3000e0078006c
:1052a800defc07000080fa00000006000400fa0097
:1052b8002047980070c0b300004f780016003700f0
:1052c8002e4090008080fb001e00fb000088de005e
:1052d80061406000614060006140600061406000c2
:1052e8004601dd00c12c200091407800f0cbb300ce
:1052f80000c0600002407000cce2b700100020003f
:10530800b3ff0700cca2a80010002000b0ff0700e0
:10531800cca2a9001e4fe9001e04e000e8ff3d00f2
:10532800ccc2a9000080fa00000006000400fa00c0
:10533800100798000040eb00004f78009e00900096
:105348000040eb008048780070c0b300004f780040
:1053580014003700100020009dff0700cca2a80011
:105368001e0090001040780000417800c2c2bf00c3
:105378000080fb004700de008080fb001e00fb0071
:105388000008dd0000407100804078001e00900099
:1053980001487800100020008dff0700cca2a9006a
:1053a8001e4fe9001e04e000eaff3d000080fa00fd
:1053b800000006000a00fa0020079800310798004c
:1053c800024f98000040eb00204798002e00900004
:1053d800104798002e0090004800de00004f78002b
:1053e80051000700cd82a9001000200078ff0700b7
:1053f80020c0b300adff07001000200074ff0700b5
:105408001e407800a9ff07001000200070ff070069
:105418001e409000a5ff0700100020006cff070049
:105428000c0037002e4090000080fb0080007800c0
:105438003e00900000804000104078009bff07006d
:105448001000200062ff07002e4090000040e80096
:1054580020479800ae4090000e48900080cf500042
:10546800f0ff3900cd82a8000080fa000000060095
:105478000a00fa002007980031079800024f9800a8
:105488000040eb00204798002e009000104798003d
:105498002e0090004800de00004f78002200070030
:1054a800cd82a9001000200049ff070030c0b300da
:1054b8007eff07001000200045ff07001e4078000f
:1054c8007aff07001000200041ff07001e409000ef
:1054d80076ff0700100020003dff07000b00370093
:1054e8002e4090000080fb00800078003e00900075
:1054f800008040008dff07001000200034ff0700e7
:105508002e4090000040e80020479800ae409000f0
:105518000e48900080cf5000f1ff3900cd82a800de
:105528000080fa00000006000000fa00cd82a90001
:105538001000200026ff070060c0b3005bff0700d3
:105548001000200022ff0700cd82a80010002000d4
:105558001fff07000080fa00000006000000fa00a4
:10556800cd82a9001000200019ff070010c0b30069
:105578004eff07001000200015ff07000040eb0059
:105588004aff07001000200011ff0700cd82a80085
:10559800100020000eff07000080fa00000006003f
:1055a8000800fa00c091280006000900305f780062
:1055b8007e00b100308f28009040780072c0b300a0
:1055c8000e0078002efc0700871f7800881f7800df
:1055d8000500fc0057052000373b8800a80a20007a
:1055e800383b880027a6a8004f047800cf0378002e
:1055f80027c6bf003040b30027e6b7001e40900022
:105608000080fb00203188002e4090000080fb00c5
:10561800c800dd003e4090000080fb000080400094
:10562800203188004e4090000080fb002031880027
:105638005e4090000080fb00c800dd006e409000d6
:105648000080fb000080400020318800316220008b
:105658009140780030ccb30000c06000c040b30077
:1056680023e6b70023c6a80023c6bf003040b30016
:1056780023e6b7000000eb00003188000000eb00d3
:10568800003188000000eb00003188000000eb00ca
:105698000031880023e6a80091622000914078003c
:1056a80030cfb30000c0600029e6b7002746a90044
:1056b8002786a9000040eb0026e6b700310c200041
:1056c8009140780080cfb30000c060005040b30024
:1056d800c3e0b7008bc0a9009bc0a80027e6a800bc
:1056e8000080fa00000006000a00fa00400798004f
:1056f80027c6bf00704060000004e000fcff3a00cd
:1057080027c6bf003040b30027e6b700203180002d
:10571800000f78007162200091407800c0cfb3007c
:1057280000c060000014a00027e6b7002031800008
:10573800100798007162200091407800c0cfb30034
:1057480000c060000004a00027e6b70020318000f8
:10575800200798007162200091407800c0cfb30004
:1057680000c0600027e6b7002031800030079800ad
:10577800ce00900000c2b300804878004e00900030
:105788008000e8001e007800804878004e009000f5
:105798008080e8001e0090004800de008048780005
:1057a8004e009000e30040001e0090008048780002
:1057b8004e009000e40040002e00900080487800e1
:1057c8004e009000e50040003e0090004800de00da
:1057d800804878004e009000e60040003e009000af
:1057e800804878000080fa00000006000800fa00ef
:1057f8003092280006000900305f78007e00b10072
:10580800308f28009040780072c0b3000e007800f6
:105818009bfb0700871f7800881f78000500fc00a5
:1058280057052000373b8800a80a2000383b88002d
:1058380027a6a8004f047800cf03780027c6bf002a
:105848003040b30027e6b7001e4090000080fb0000
:10585800203188002e4090000080fb00c800dd0049
:105868003e4090000080fb0000804000203188000e
:105878004e4090000080fb00203188005e40900080
:105888000080fb00c800dd006e4090000080fb0037
:1058980000804000203188000080fa0000000600e7
:1058a8000000fa009bc0a80023e6a80027e6a8008d
:1058b8000080fa00000006000000fa009bc0a90062
:1058c80023e6a90027e6a9000080fa0000000600e8
:1058d8000a00fa0030079800014f98000080eb009a
:1058e800000f78000000eb00200798001f00370029
:1058f800ae0090003e00900000804000104078000c
:105908000080fb001e0f68000000eb0010079800e5
:10591800100037009e007800618060000004e000fd
:10592800060032001e0078000000d100000f780049
:1059380010002a001e0f6800030037001e007800c0
:105948000000d100000f78001e0090000000e80061
:10595800100798001e009000e70f5000edff36007a
:105968002e0090000000e800200798000e489000e4
:105978008080fb002e009000808f5000dcff3e00ee
:105988001e0078000080fa00000006000800fa00f7
:1059980020079800614798000000eb001007980066
:1059a8006e4090000080fb00000f78000a0037006e
:1059b8002e009000104078008080fb001e009000b0
:1059c80001004000100798002e0090000000e80039
:1059d800200798001e0fe9001e00e000f4ff3a00bf
:1059e8001e0090000080fa00000006000a00fa007d
:1059f80030079800410798006000b8001007980029
:105a0800210798000000eb00000f78000e00370017
:105a18003e009000104078000081fb000300200049
:105a28001e009000ae0090000000410081804900f7
:105a380010079800210798003e0090000000e80039
:105a4800300798001e0fe8004e0090009e0f1000cf
:105a5800efff39001e0090000080fb000080fa0074
:105a6800000006000a00fa001007980021079800b5
:105a7800624798001e019000ee4090002e009000b2
:105a880002000100000f78006e4090000080fb00cb
:105a9800800078002e0090000080400010407800c0
:105aa8000081fb006e4090000080fb0080007800c1
:105ab8002e009000008040000000e80010407800b0
:105ac8000080fb004800dd00000041008000eb0082
:105ad800410798009e0f500002003a001000200075
:105ae800400798004e0090000080fa000000060071
:105af8000a00fa00100798002107980062479800ea
:105b08000040eb00004f7800100037001e80fb00bb
:105b1800800078001e00900000804000104178004e
:105b28001e80fb00800078002e009000008040005e
:105b380010407800804f5100030032000000eb0055
:105b480040079800060037001e4fe8006e4090009e
:105b58009e4f1000edff390010002000400798000c
:105b68004e0090000080fa00000006000000fa00d5
:105b7800c042a800e044a800011a800000402000ac
:105b880000807000001a880040c3bf006f406000aa
:105b980001c7b3000140700040e3b7001134200092
:105ba80091407800c0cfb30000c0600041e3b70067
:105bb80049c3bf007f40600049e3b700913420002b
:105bc8009140780000ceb30000c0600049e3b70000
:105bd80048c3bf007f40600048e3b700813420001d
:105be8009140780000ceb30000c0600048e3b700e1
:105bf8000040eb0044e3b7005134200091407800a6
:105c080000ceb30000c06000f040b30045e3b70029
:105c18004203a90043c3bf00f043b20043e3b70007
:105c280043a3a900213420009140780030c8b30074
:105c380000c06000c1c3b3000140700042e3b70078
