:020000040000fa
:080000000002040000000000f2
:020000040000fa
:0400080004030000ed
:020000040000fa
:04000c0004030000e9
:020000040000fa
:0400100004030000e5
:020000040000fa
:0400140004030000e1
:020000040000fa
:0400180004030000dd
:020000040000fa
:04001c0004030000d9
:020000040000fa
:0400200004030000d5
:020000040000fa
:0400240004030000d1
:020000040000fa
:0400280004030000cd
:020000040000fa
:04002c0004030000c9
:020000040000fa
:0400300004030000c5
:020000040000fa
:0400340004030000c1
:020000040000fa
:0400380004030000bd
:020000040000fa
:04003c0004030000b9
:020000040000fa
:0400400004030000b5
:020000040000fa
:0400440004030000b1
:020000040000fa
:0400480004030000ad
:020000040000fa
:04004c0004030000a9
:020000040000fa
:0400500004030000a5
:020000040000fa
:04005400b4030000f1
:020000040000fa
:04005800520300004f
:020000040000fa
:04005c000403000099
:020000040000fa
:040060000403000095
:020000040000fa
:040064000403000091
:020000040000fa
:04006800040300008d
:020000040000fa
:04006c000403000089
:020000040000fa
:040070000403000085
:020000040000fa
:040074000403000081
:020000040000fa
:04007800040300007d
:020000040000fa
:04007c000403000079
:020000040000fa
:040080000403000075
:020000040000fa
:040084000403000071
:020000040000fa
:04008800040300006d
:020000040000fa
:04008c000403000069
:020000040000fa
:040090000403000065
:020000040000fa
:040094000403000061
:020000040000fa
:04009800040300005d
:020000040000fa
:04009c000403000059
:020000040000fa
:0400a0000403000055
:020000040000fa
:0400a4000403000051
:020000040000fa
:0400a800040300004d
:020000040000fa
:0400ac000403000049
:020000040000fa
:0400b0000403000045
:020000040000fa
:0400b4000403000041
:020000040000fa
:0400b800040300003d
:020000040000fa
:0400bc000403000039
:020000040000fa
:0400c0000403000035
:020000040000fa
:0400c4000403000031
:020000040000fa
:0400c800040300002d
:020000040000fa
:0400cc000403000029
:020000040000fa
:0400d0000403000025
:020000040000fa
:0400d4000403000021
:020000040000fa
:0400d800040300001d
:020000040000fa
:0400dc000403000019
:020000040000fa
:0400e0000403000015
:020000040000fa
:0400e4000403000011
:020000040000fa
:0400e800040300000d
:020000040000fa
:0400ec000403000009
:020000040000fa
:0400f0000403000005
:020000040000fa
:0400f4000403000001
:020000040000fa
:0400f80004030000fd
:020000040000fa
:0400fc0004030000f9
:020000040000fa
:0401000004030000f4
:020000040000fa
:0401040004030000f0
:020000040000fa
:0401080004030000ec
:020000040000fa
:04010c0004030000e8
:020000040000fa
:0401100004030000e4
:020000040000fa
:0401140004030000e0
:020000040000fa
:0401180004030000dc
:020000040000fa
:04011c0004030000d8
:020000040000fa
:0401200004030000d4
:020000040000fa
:0401240004030000d0
:020000040000fa
:0401280004030000cc
:020000040000fa
:04012c0006040000c5
:020000040000fa
:0401300004030000c4
:020000040000fa
:0401340004030000c0
:020000040000fa
:0401380004030000bc
:020000040000fa
:04013c0004030000b8
:020000040000fa
:0401400004030000b4
:020000040000fa
:0401440004030000b0
:020000040000fa
:0401480004030000ac
:020000040000fa
:04014c0004030000a8
:020000040000fa
:0401500004030000a4
:020000040000fa
:0401540004030000a0
:020000040000fa
:04015800040300009c
:020000040000fa
:04015c000403000098
:020000040000fa
:040160000403000094
:020000040000fa
:040164000403000090
:020000040000fa
:04016800040300008c
:020000040000fa
:04016c000403000088
:020000040000fa
:040170000403000084
:020000040000fa
:040174000403000080
:020000040000fa
:04017800040300007c
:020000040000fa
:04017c000403000078
:020000040000fa
:040180000403000074
:020000040000fa
:040184000403000070
:020000040000fa
:04018800040300006c
:020000040000fa
:04018c000403000068
:020000040000fa
:040190000403000064
:020000040000fa
:040194000403000060
:020000040000fa
:04019800040300005c
:020000040000fa
:04019c000403000058
:020000040000fa
:0401a0000403000054
:020000040000fa
:0401a4000403000050
:020000040000fa
:0401a800040300004c
:020000040000fa
:0401ac000403000048
:020000040000fa
:0401b0000403000044
:020000040000fa
:0401b4000403000040
:020000040000fa
:0401b800040300003c
:020000040000fa
:0401bc000403000038
:020000040000fa
:0401c0000403000034
:020000040000fa
:0401c4000403000030
:020000040000fa
:0401c800040300002c
:020000040000fa
:0401cc000403000028
:020000040000fa
:0401d0000403000024
:020000040000fa
:0401d4000403000020
:020000040000fa
:0401d800040300001c
:020000040000fa
:0401dc000403000018
:020000040000fa
:0401e0000403000014
:020000040000fa
:0401e4000403000010
:020000040000fa
:0401e800040300000c
:020000040000fa
:0401ec000403000008
:020000040000fa
:0401f0000403000004
:020000040000fa
:0401f4000403000000
:020000040000fa
:0401f80004030000fc
:020000040000fa
:0401fc0004030000f8
:020000040000fa
:0402080004030000eb
:020000040000fa
:04020c0004030000e7
:020000040000fa
:0402100004030000e3
:020000040000fa
:0402140004030000df
:020000040000fa
:0402180004030000db
:020000040000fa
:04021c0004030000d7
:020000040000fa
:0402200004030000d3
:020000040000fa
:0402240004030000cf
:020000040000fa
:0402280004030000cb
:020000040000fa
:04022c0004030000c7
:020000040000fa
:0402300004030000c3
:020000040000fa
:0402340004030000bf
:020000040000fa
:0402380004030000bb
:020000040000fa
:04023c0004030000b7
:020000040000fa
:0402400004030000b3
:020000040000fa
:0402440004030000af
:020000040000fa
:0402480004030000ab
:020000040000fa
:04024c0004030000a7
:020000040000fa
:0402500004030000a3
:020000040000fa
:04025400040300009f
:020000040000fa
:04025800040300009b
:020000040000fa
:04025c000403000097
:020000040000fa
:040260000403000093
:020000040000fa
:04026400040300008f
:020000040000fa
:04026800040300008b
:020000040000fa
:04026c000403000087
:020000040000fa
:040270000403000083
:020000040000fa
:04027400040300007f
:020000040000fa
:04027800040300007b
:020000040000fa
:04027c000403000077
:020000040000fa
:040280000403000073
:020000040000fa
:04028400040300006f
:020000040000fa
:04028800040300006b
:020000040000fa
:04028c000403000067
:020000040000fa
:040290000403000063
:020000040000fa
:04029400040300005f
:020000040000fa
:04029800040300005b
:020000040000fa
:04029c000403000057
:020000040000fa
:0402a0000403000053
:020000040000fa
:0402a400040300004f
:020000040000fa
:0402a800040300004b
:020000040000fa
:0402ac000403000047
:020000040000fa
:0402b0000403000043
:020000040000fa
:0402b400040300003f
:020000040000fa
:0402b800040300003b
:020000040000fa
:0402bc000403000037
:020000040000fa
:0402c0000403000033
:020000040000fa
:0402c400040300002f
:020000040000fa
:0402c800040300002b
:020000040000fa
:0402cc000403000027
:020000040000fa
:0402d0000403000023
:020000040000fa
:0402d400040300001f
:020000040000fa
:0402d800040300001b
:020000040000fa
:0402dc000403000017
:020000040000fa
:0402e0000403000013
:020000040000fa
:0402e400040300000f
:020000040000fa
:0402e800040300000b
:020000040000fa
:0402ec000403000007
:020000040000fa
:0402f0000403000003
:020000040000fa
:0402f40004030000ff
:020000040000fa
:0402f80004030000fb
:020000040000fa
:0402fc0004030000f7
:020000040000fa
:0403000004030000f2
:020000040000fa
:0403040004030000ee
:020000040000fa
:0403080004030000ea
:020000040000fa
:04030c0004030000e6
:020000040000fa
:0403100004030000e2
:020000040000fa
:0403140004030000de
:020000040000fa
:0403180004030000da
:020000040000fa
:04031c0004030000d6
:020000040000fa
:0403200004030000d2
:020000040000fa
:0403240004030000ce
:020000040000fa
:0403280004030000ca
:020000040000fa
:04032c0004030000c6
:020000040000fa
:0403300004030000c2
:020000040000fa
:0403340004030000be
:020000040000fa
:0403380004030000ba
:020000040000fa
:04033c0004030000b6
:020000040000fa
:0403400004030000b2
:020000040000fa
:0403440004030000ae
:020000040000fa
:0403480004030000aa
:020000040000fa
:04034c0004030000a6
:020000040000fa
:0403500004030000a2
:020000040000fa
:04035400040300009e
:020000040000fa
:04035800040300009a
:020000040000fa
:04035c000403000096
:020000040000fa
:040360000403000092
:020000040000fa
:04036400040300008e
:020000040000fa
:04036800040300008a
:020000040000fa
:04036c000403000086
:020000040000fa
:040370000403000082
:020000040000fa
:04037400040300007e
:020000040000fa
:04037800040300007a
:020000040000fa
:04037c000403000076
:020000040000fa
:040380000403000072
:020000040000fa
:04038400040300006e
:020000040000fa
:04038800040300006a
:020000040000fa
:04038c000403000066
:020000040000fa
:040390000403000062
:020000040000fa
:04039400040300005e
:020000040000fa
:04039800040300005a
:020000040000fa
:04039c000403000056
:020000040000fa
:0403a0000403000052
:020000040000fa
:0403a400040300004e
:020000040000fa
:0403a800040300004a
:020000040000fa
:0403ac000403000046
:020000040000fa
:0403b0000403000042
:020000040000fa
:0403b400040300003e
:020000040000fa
:0403b800040300003a
:020000040000fa
:0403bc000403000036
:020000040000fa
:0403c0000403000032
:020000040000fa
:0403c400040300002e
:020000040000fa
:0403c800040300002a
:020000040000fa
:0403cc000403000026
:020000040000fa
:0403d0000403000022
:020000040000fa
:0403d400040300001e
:020000040000fa
:0403d800040300001a
:020000040000fa
:0403dc000403000016
:020000040000fa
:0403e0000403000012
:020000040000fa
:0403e400040300000e
:020000040000fa
:0403e800040300000a
:020000040000fa
:0403ec000403000006
:020000040000fa
:0403f0000403000002
:020000040000fa
:0403f40004030000fe
:020000040000fa
:0403f80004030000fa
:020000040000fa
:0403fc0004030000f6
:020000040000fa
:10040000af8120000e7f22000e0188000000000056
:10041000000020000000e000020032000001200087
:100420002002880014000700790007000000e000a7
:1004300003003a0080712000010020000200370014
:100440000000200001002000810f70000100320038
:1004500014000700000020000000e000020032004d
:1004600000000200000000000e0702000000000073
:100470000040da000000fe004440a90020002000f7
:100480000000e0000300320010002000900188000e
:100490004440a800000006008a1f78008b1f7800e7
:1004a00000000600a1028800800478000000eb0034
:1004b0001f003700e284440054a0b4009905ba003c
:1004c000e284440054a0b4009906ba00e2844400d7
:1004d00054a0b4000006eb00476fde00fd07b20039
:1004e000ae018800636ce10003003a00eaff0700f8
:1004f0000000eb000e003700606ce10008003a00dd
:10050000004deb000a05e800020039003420ec0041
:100510000af0a0008b05e900f9ff3e000400370057
:100520006168e100010032000086eb000b0007006b
:1005300019c7ba001905ba000e04e00003003a001a
:100540000a00e000dbff3a0000000600fe07b200f0
:10055000ae0288008a047800f5ff37000cd0a300b3
:10056000e20f4d001c00390089027800354dba00b9
:100570000a05e800020039003420ec000af0a0006f
:100580008b05e9000f003200254dba000a05e8008e
:10059000020039003420ec000af0a0008b05e900cd
:1005a000080032000c00e0000600320015cdba0051
:1005b0000a05e800020039003420ec000af0a0002f
:1005c0008b05e9008984e80054a0b4000b00e0002a
:1005d000e2ff3a00000006009902ba00055d7800cb
:1005e0008b05e900f7ff3200c82ade00055d7800c0
:1005f0008b05e900f3ff32000c00e000f1ff320050
:1006000019ddba00eeff37000040da000000fe00fe
:0406100000000500e1
:020000040000fa
:100614000000fa0080002800001188002222ef0068
:100624002422ef002622ef00001a20004011880047
:100634009560a8002342a800a080200030408800d4
:10064400a0802000204088002081200010408800e5
:100654002081200000408800404080000010a0005d
:1006640040408800404080000090a0004040880046
:10067400404080000080a10040408800404080004d
:100684000000a100404088000080fa00000006003d
:100694000000fa00deff07000080fa0000000600f8
:1006a400809fbe000200fa0041408000002020002c
:1006b400008060000000e000020032009580a90084
:1006c400250037008580a9000000eb00000f7800aa
:1006d400190037001e0fe8003040800010407800f9
:1006e4000080fb0020118800304080000000e800fa
:1006f400304088003140800020812000808f5000ed
:1007040002003a00a0802000304088004040800071
:100714000080a100404088003140800020408000db
:10072400808f500004003a00404080000090a000f8
:1007340040408800080037001e0078000000e000f8
:1007440005003c00111180000020200000806000a2
:100754000000e000dfff32000080fa004f00be001e
:1007640000400600809fbe000200fa000000eb007b
:10077400000f7800190037001e0fe80000408000c9
:1007840031118000814078000148780000408000e9
:100794000000e8000040880001408000a0812000a3
:1007a400808f500002003a00208120000040880021
:1007b400404080000010a1004040880001408000bb
:1007c40010408000808f500004003a0040408000b8
:1007d4000000a00040408800070037001e00780099
:1007e4000000e00004003c00101180006100600083
:1007f4000000e000e0ff3a008560a9000080fa00f4
:100804004f00be0000400600801f78000000fa0080
:1008140010118000620060000000e000010032005e
:100824002222a9008c20a9000080fa004f00780041
:10083400004006000200fa000040eb00004f780080
:1008440010408000104f7800104080000000e80045
:100854001040880011408000a0812000808f50004b
:1008640002003a00208120001040880011408000de
:1008740000408000808f500003003a004040800018
:100884000010a00040408800404080000000a1000b
:10089400404088001e4078000080fa0000000600f6
:1008a4000000fa00e3ff07000080fa0000000600e1
:1008b4000600fa00881f78001007980021079800a6
:1008c4000000eb00000f7800090037004040800072
:1008d400620060000000e0000a003a001e00900080
:1008e4001e044000d3ff0700004c78001e0fe800f0
:1008f4002e0090009e007800808f5000f3ff390096
:1009040001003700000000001e0078004f0478004a
:100914000080fa00000006000400fa00000f7800ce
:10092400110798009e0090001e007800e0ff070069
:100934000080fa00000006000200fa00004f780070
:10094400204080001e487800204080000000e8001d
:10095400204088002140800020812000808f5000aa
:1009640002003a00a080200020408800404080001f
:100974000090a10040408800314080002040800069
:10098400808f500003003a00404080000080a000a7
:1009940040408800a1048000000021000080600025
:1009a4000000e00001003a009580a8000080fa00f1
:1009b400000006000200fa00004f78001e40780094
:1009c400ddff07000080fa00000006000600fa00c0
:1009d40010079800210798000000eb00000f780032
:1009e4000a003700414080000010200000806000b1
:1009f4000000e0000a003a001e0090001e004000c3
:100a0400104078001e0fe800cbff07002e00900076
:100a14009e007800808f5000f2ff390001003700fb
:100a2400000000001e0078000080fa0000000600ac
:100a34000400fa00000f7800110798009e0090004f
:100a44001e007800e1ff07000080fa0000000600a5
:100a54000200fa000000eb00000f78004140800023
:100a640000102000008060000000e000010032005f
:100a74001e30a00041408000002020000080600063
:100a84000000e000010032001e40a0004040800051
:100a9400610060000000e000010032001e00a000c0
:100aa40040408000620060000000e000020032006c
:100ab4001e20a000010037001e10a0001e007800b8
:100ac4000080fa00000006000000fa00e0ff0700c2
:100ad4000080fa00000006000200fa00000f78000f
:100ae400104080009e004000a0812000808f5000b4
:100af40008003600104080009e004000a0812000c5
:100b04000000ea000080400021812000614078005c
:100b140003003700104080001e00400010407800a1
:100b24000080fa00000006000200fa00000f7800be
:100b34001e007800e8ff07000080fa0000000600ad
:100b44000000fa0040408000610060000000e00006
:100b54000f003a001140800000408000808f500058
:100b640005003600104080008000780000408000be
:100b7400008050000700370010408000800078009b
:100b840000408000008050006800400001003700f1
:100b94000000eb000080fa00000006000000fa00ec
:100ba400e7ff07000080fa00000006000000fa00da
:100bb4004140800000102000008060000000e00040
:100bc4000f003a003140800020408000808f5000a8
:100bd400050036003040800080007800204080000e
:100be400008050000700370030408000800078000b
:100bf4002040800000805000680040000100370061
:100c04000000eb000080fa00000006000000fa007b
:100c1400e6ff07000080fa00000006000000fa006a
:100c2400404080000000d100614060000080fb0073
:100c340000f0a7000000ea000000ea004f00de0018
:100c4400004078000080fa00000006000000fa006e
:100c5400f2ff07000080fa00000006000000fa001e
:100c6400404080004800de00614060000080fb00de
:100c740000f0a7000000ea000000ea004f00de00d8
:100c8400004078000080fa00000006000000fa002e
:100c9400f2ff07000080fa00000006000000fa00de
:100ca400101180000080fa00000006000000fa0025
:100cb400faff07000080fa00000006000000fa00b6
:100cc400cc22ef00f0ef2f0040168800d422ef0072
:100cd4000000290080168800dc22ef00f0ff2000cd
:100ce400c0168800e422ef00f00f200000178800ef
:100cf400ec22ef00f007200040178800f422ef00f8
:100d0400c03c200080178800f0cf2f0010278800f7
:100d140000cc200030278800000f200040278800e6
:100d2400003c200060278800113a8000f00b20006e
:100d340000816000600420007105200023742000fd
:100d440080497800814978008249780041368000e2
:100d540000fc2f00008060003000b30040368800a3
:100d64002135800000fc2f00008060009000b3005b
:100d740020358800103a8000000178000260a0004d
:100d8400600420007105200023742000804978004d
:100d940081497800824978000080fa00000006004a
:100da4000000fa0041058000f0ff28000080600088
:100db40000c0a000400588005105800080ff2f007e
:100dc400008060000000a00050058800210680001b
:100dd400f0f82f00008060000040a000200688008a
:100de4000080fa00000006000000fa000500070079
:100df400b2ff0700eaff070005fe07000080fa00c3
:100e0400000006000000fa0000102300203a8800c9
:100e14000080fa00000006000000fa00f2ff07005c
:0c0e2400c942a900cd42a900ffff370021
:020000040000fa
:100e3000000800001a000000800000000000000010
:020000040000fa
:020000040001f9
:0457f0003ffe000078
:020000040000fa
:020000040001f9
:0457f4007fef000043
:020000040000fa
:020000040001f9
:0457f800a4e3000026
:020000040000fa
:020000040001f9
:0457fc009f3e0000cc
:00000001FF
