:020000040000fa
:080000000002040000000000f2
:020000040000fa
:10000800f2020000f2020000f2020000f202000018
:10001800f2020000f2020000f2020000f202000008
:10002800f2020000f2020000f2020000f2020000f8
:10003800f2020000f2020000f2020000baa700007b
:10004800f2020000f2020000f2020000f2020000d8
:10005800f2020000f2020000f2020000f2020000c8
:10006800f2020000f2020000f2020000f2020000b8
:10007800f2020000f2020000f2020000f2020000a8
:10008800f2020000f2020000f202000034a80000b0
:10009800f2020000f2020000aea8000028a9000049
:1000a800f2020000f2020000f2020000f202000078
:1000b800f2020000f2020000f2020000f202000068
:1000c800f2020000f2020000f2020000f202000058
:1000d800f2020000f2020000f2020000f202000048
:1000e800f2020000f2020000f2020000f202000038
:1000f800f2020000f2020000f2020000f202000028
:10010800f2020000f2020000f2020000f202000017
:10011800f2020000f2020000f2020000f202000007
:10012800f2020000f2020000f2020000f2020000f7
:10013800f2020000f2020000f2020000f2020000e7
:10014800f2020000f2020000f2020000f2020000d7
:10015800f2020000f2020000f2020000f2020000c7
:10016800f2020000f2020000f2020000f2020000b7
:10017800f2020000f2020000f2020000f2020000a7
:10018800f2020000f2020000f2020000f202000097
:10019800f2020000f2020000f2020000f202000087
:1001a800f2020000f2020000f2020000f202000077
:1001b800f2020000f2020000f2020000f202000067
:1001c800f2020000f2020000f2020000f202000057
:1001d800f2020000f2020000f2020000f202000047
:1001e800f2020000f2020000f2020000f202000037
:1001f800f2020000f2020000f2020000f202000027
:10020800f2020000f2020000f2020000f202000016
:10021800f2020000f2020000f2020000f202000006
:10022800f2020000f2020000f2020000f2020000f6
:10023800f2020000f2020000f2020000f2020000e6
:10024800f2020000f2020000f2020000f2020000d6
:10025800f2020000f2020000f2020000f2020000c6
:10026800f2020000f2020000f2020000f2020000b6
:0c027800f2020000f2020000f20200009e
:020000040000fa
:100400008fc122000eff27000e01880000000000af
:10041000000020000000e000020032000001200087
:10042000200288000c00070060552a00010020000f
:100430000f000700000020000000e0000200320072
:1004400000000200000000001299020000000000fd
:100450000040da000000fe00004c20000000e00038
:1004600002003200002020009001880000000600f9
:10047000a1028800800078000000eb001a0037001d
:10048000e280400054a0b4009101ba00e280400034
:1004900054a0b4009102ba00e280400054a0b4001d
:1004a0000002eb00472bde00f507b200a601880032
:1004b000602ce10008003a000049eb000201e8006e
:1004c000020039003420ec0002f0a0008301e900b2
:1004d000f9ff3e00040037006128e100010032000e
:1004e0000082eb00040007001101ba000200e000e6
:1004f000e3ff3a000000060004d0a300e20f490029
:100500001c003900810278003549ba000201e80078
:10051000020039003420ec0002f0a0008301e90061
:100520000f0032002549ba000201e800020039003c
:100530003420ec0002f0a0008301e9000800320042
:100540000400e0000600320015c9ba000201e8000c
:10055000020039003420ec0002f0a0008301e90021
:100560008180e80054a0b4000300e000e2ff3a00fc
:10057000000006009102ba00055978008301e900e5
:10058000f7ff3200c82ade00055978008301e90030
:10059000f3ff32000400e000f1ff320011d9ba008d
:1005a000eeff37004699040000000000f4990400b3
:1005b00000000000dc70040000000000ca210400fc
:1005c00000000000f621040000000000a2ad0400bd
:1005d00000000000b89f040000000000e6a3040033
:1005e000000000000040da000000fe00889fbe000e
:1005f0008a9fbe008c1f7800750007007c003300c6
:1006000003866c006450e1002e0032006420e1009b
:10061000330032006150e1002f0032006120e10020
:100620003100320085855500eb07b000090020003d
:1006300008042000050037000804440089844c00a9
:100640000a0031000603430087834b00000153007a
:1006500081815b00f8ff33000203be000800a000a8
:100660000804440089844c00f6ff3900c639dd00d7
:100670008301730001003200130020008904d100bf
:100680000884d3000998a300050032000800a700e1
:100690000300a0008904d1000884d3008b05e80082
:1006a0008904d1000884d3000001eb000281d2004c
:1006b0002100070001f0a1000cf0a70001f0a0004c
:1006c000540037006420e100560032000801be00eb
:1006d0000200be00f7ff37006120e1005100320048
:1006e0006000b800f3ff37000000200001f8270089
:1006f000f0ff3700839f68000100e00002003d002a
:1007000060001000e08018000300e00002003d00df
:1007100060011100e0811900450007004f00e00072
:1007200002003b0060001000e0801800000006009e
:100730006011b80051003700810020006180550031
:100740000b003d000b00200061fe2f000100e100c6
:100750001d00340082817100610164008904d100b0
:100760000884d3000000e800faff3a00710020007e
:1007700061006400030070000200600009003200a4
:1007800061044400e0844c000988a50005003200a3
:100790008b05e8006808e10002003a008904d100f6
:1007a0000884d300f20f20000258e10005003d004c
:1007b000c75ddd00f907b200898075000800780088
:1007c000000006000bf827008b00780000000500f1
:1007d0000004be00580007000003be000405be0070
:1007e0000200be0054000700844f750000000600a0
:1007f0000200be006450e100050036006420e10004
:10080000020036000968a30001003a000800be009b
:100810000160a0004f0678004f05be004f04be00e7
:1008200000000600f0ff2f00f1ff2700f9ff37005e
:100830006022b800060220000000d0008180d200b3
:100840000482d2008582d2000000a0000202520081
:1008500083825a00030031000202420083824a0070
:100860000000a1000603e900f3ff3a0000000600c3
:10087000efff07000400be0000000600889fbe00d6
:100880008a9fbe0000827000040271000482710021
:10089000260032000004be000200be006011b80055
:1008a0006b092000950220000182cf000a00390068
:1008b0000541b1000082cf00070039000541b100b9
:1008c0000982cf00040039000541b1000882cf0041
:1008d000010039000541b10005425200120032000a
:1008e0000a003b0082817100610164008100d10037
:1008f0000080d3008984d3000884d3008b05e800ee
:100900000442e800f7ff3a000700370008044400fb
:1009100089844c0000004800818048008b05e90074
:100920000442e900f9ff3a0083ff07004f05be00cb
:100930004f04be0000000600c70ade00f107b20047
:10094000f50fb20008003200e1cf42000200320091
:100950000170a00024000500810f7000010032002a
:100960000408050044000500810f700002003a00f1
:10097000140005008502e9000000400081c0480025
:10098000fcff3b000170a000240005000c00fa00f1
:10099000889fbe0000047800f4ff270054079800e9
:1009a0008004eb0019079800080f780028079800ca
:1009b000240c20003407980068015700ceb8970037
:1009c0000e007800060007001e027800094a780031
:1009d0001e0014004f04be000080fa000000060054
:1009e0003a00fa00889fbe008a9fbe008c9fbe001e
:1009f0008006780001179800421798000000eb006d
:100a000060179800710337008e1090008100e80095
:100a10000117980054c2b300844f500006003a00fa
:100a2000010278000006eb0001c3b30000c2b3006e
:100a3000b7c2b300100037003d0290000404b200ba
:100a4000040032001d027800004a7800840ee8009d
:100a5000050037000000fb008d00780066030700ea
:100a6000e10f4000590332006e1190000201e800ce
:100a700062179800550337008402780034437800e9
:100a8000d3c2b300834f53000900320005003c007d
:100a9000804f530008003200874f53000c003a008b
:100aa00007003700814f530009003a000600370065
:100ab0000c30a000f0ff37000c00a000eeff370064
:100ac0000c10a000ecff37000c20a000eaff37005c
:100ad00062026600010032000c00a100680266009c
:100ae000010032000c20a1000602fb000403b1004b
:100af000e90f52000c003e00050378000002eb00f5
:100b0000ea22b900b602fb000503b10004824200ec
:100b1000860278009603fb000703b100e98f5300bb
:100b2000f7ff3600080037000002eb00a7c2b30051
:100b3000874f530004003a004e139000460278009d
:100b4000461798008502e8008003eb0057179800cd
:100b5000e6c2b300954f13000c003a000ce0a00071
:100b600064435300d54f130003003200050378009f
:100b700007007800090037004e149000c804780080
:100b800048179800591798008502e8000503780077
:100b900009003700ea00b9000080430086027800af
:100ba000b603fb000703b100e98f5300f9ff3600dd
:100bb00050179800f5ff3700b642780006179800e6
:100bc000cbc6b3008bcf5200250032000f003c0093
:100bd00036c6b30086cf5200a300320004003c00aa
:100be000e0cf5200fe0232006b4353000f0037008b
:100bf00046c6b30086cf520017003200654343005b
:100c000086cf5200b5003a001300370036c7b30054
:100c100086cf52002000320007003c00644353009e
:100c200086cf5200150032000643e80086cf5200fe
:100c3000aa003a001400370056c7b30086cf52000e
:100c4000ab0032006343430086cf5200a3003a005a
:100c5000054f78000e003700054f7800a6003700da
:100c6000f0036600050120000100320005002800a5
:100c70008c82720005067800cfff3700054f7800a0
:100c80000c60a0009c003700054f78000c50a000bd
:100c90000c70a00098003700054f78004e109000af
:100ca000c00278004017980075179800e08f520036
:100cb00002003a00e2762200721798007e1390003c
:100cc0008002eb00010037008502e8008503430045
:100cd0008041eb0097cf1100fbff3a00051f980001
:100ce000de129000e08f5200050032000e1b9000d3
:100cf000868f52000200310085037800071f98009c
:100d00008e1a90000004eb00850f5200010036009f
:100d1000050452006806660009c2b30011003200e3
:100d20002d0037003d0290000404b20004003200a0
:100d30001d027800094a7800840ee800050037009b
:100d40008d00780000022000ab020700e10f400098
:100d5000030032006e1590000a05e8006a1798003b
:100d60000804e900e00f5400eeff3a000084eb00b5
:100d700019003700bd0290000504b20009003200de
:100d80009d0378008802780035437800864b780010
:100d9000870ee80005047800e04f53000a003a008f
:100da00012003700880278003500fb000504780047
:100db0008d007800441f98008f0207004e1a9000a3
:100dc000e10f4000090032006e1090000000e800c2
:100dd0006017980005003700080278007e14900024
:100de0008e1c90001e1d9000ae1d900089027800a0
:100df0008504e900e08f5200deff3a007817980082
:100e0000091f98001a1f98002b1f980004047800ef
:100e1000e00f56006d02320009c2b3006e1690005a
:100e20000e0037003d0290000404b20004003200be
:100e30001d027800094a7800840ee800050037009a
:100e40008d007800000220006b020700e10f4000d7
:100e5000010032000c06e8000804e900e00f54002d
:100e6000f0ff3a0058023700ce109000410478009d
:100e700041179800cfc4de00090578008a05780084
:100e80000800be000a01be004800de00c80add00fe
:100e900000807200004f7800700366000900320085
:100ea000e04f500007003200e14f400005003200e3
:100eb000104798002847980026002000061f980039
:100ec000030037001847980017002000071f9800fc
:100ed0000e04e8007817980081ff3700054f78006e
:100ee0007e1798001a0020000a1f98007cff370028
:100ef000054f78000c0cb3008c027800050cb20092
:100f00003b003a00e00f560005003d00ce12900075
:100f10004501be004500be00451798000f00370090
:100f2000f0026600120032004e1490004803be002a
:100f300048179800460798005707980098029000b5
:100f4000cfaade0065079800750798004e00900054
:100f5000de0090006e019000fe0190007017980076
:100f6000011f9800121f9800231f98000b003700e4
:100f7000ce109000c1027800411798000504780057
:100f8000cfc4de00090578008a057800781798003c
:100f9000091f98001a1f98002b1f98007e109000c0
:100fa0008e1890001e199000ae199000e00f5000ae
:100fb000e08f5800e00f5900e08f590032003d00eb
:100fc0003c00b3006000b8006011b8007e149000cf
:100fd0008e1c90001e1d9000ae1d90000804500055
:100fe000898458000a0559008b8559002200370072
:100ff000e00f560005003d00ce1290004501be00f6
:101000004500be00451798000f003700f00266004b
:10101000120032004e1490004803be00481798009a
:10102000460f9800570f98008004eb00690f980056
:101030000005eb007a0f98004e089000de08900043
:101040006e099000fe09900070179800011f98002b
:10105000121f9800231f98000b003700ce1090003d
:10106000c1027800411798000504780009002000ab
:101070000a0020000b00200078179800091f980034
:101080001a1f98002b1f9800de149000e08f540068
:101090000d003a001a0020005a1798007e109000a8
:1010a0008e1890001e199000ae199000e00f5000ad
:1010b000e08f5800e00f5900e08f59000200320025
:1010c0008000eb00511798000c017800020cb20070
:1010d0003217980005042000850f510034003200bb
:1010e00003003c00e00f51000800320048003700c8
:1010f00005082000be119000858f510014003200b9
:10110000050c2000858f510041003a00e67722004f
:1011100015c0b3003600be003601be007e1490003c
:101120008e1c90001e1d9000ae1d90000040e1003e
:1011300001c8e10002d0e10003d8e100330039002a
:101140008542e800f4cf5200f2ff3a002f0037004a
:1011500015c0b30000012000010020006011b8009c
:101160007e1490008e1c90001e1d9000ae1d9000fd
:101170000040e10001c8e10002d0e10003d8e10035
:1011800022003900490020000000d0008180d200f8
:101190000281d2008381d2008904e900faff3a007b
:1011a0008542e800f0cf5200edff3a00170037000b
:1011b00015c0b30080002000010020006011b800bd
:1011c0007e1490008e1c90001e1d9000ae1d90009d
:1011d0000040e10001c8e10002d0e10003d8e100d5
:1011e0000a003900390020000000d0008180d200c0
:1011f0000281d2008381d2008904e900faff3a001b
:101200008542e800f5cf5200edff3a00054f780027
:101210009e02fb005e1590008a8f520002003d0086
:101220000a4f780004003700de159000858f5500c6
:1012300001003d0055179800e00f520003003200f6
:10124000e3026600010032000402e9000500240008
:1012500085026600060032005e109000800f52008a
:101260000200340000025200010037000002eb00cf
:101270009e02fb008000eb0021179800850f5200b2
:1012800002003400850252002517980064026600af
:1012900045003200e202660061026600e08f520003
:1012a00017003200bd0290000504b20008003200b1
:1012b0009d027800b6c2b300e00f52000100320078
:1012c00006c3e800864a7800850ee800080037006b
:1012d000b0022000e00f5200010032000080e80060
:1012e0008d00780044010700e10f40001600320035
:1012f0006e1190000201e80062179800120037009a
:10130000e00f5200100032003d0290000404b200d1
:10131000050032001d02780005c2b300054a7800be
:10132000840ee800050037008d00780000022000e0
:1013300031010700e10f400003003200ee11900080
:101340008301e800631798002e129000e00f52000e
:101350005b00320008c3b300840478003d029000b3
:101360000404b200040032001d027800084a78002c
:10137000840ee800050037008d007800000320008f
:101380001d010700e10f400003003200ee12900043
:101390008502e800651798008904e900efff3a002c
:1013a00029179800460037002e139000e00f5300d5
:1013b000160032006802660014003a0008c2b3004a
:1013c000860478003d0290000404b200040032005c
:1013d0001d027800084a7800840ee80005003700f6
:1013e0008d0078000002200003010700e10f40009b
:1013f00003003200ee1390008703e800671798009f
:101400008904e900efff3a0029179800e20266001c
:1014100061026600e08f520017003200bd029000aa
:101420000504b200080032009d027800b6c2b30085
:10143000e00f52000100320006c3e800864a78003f
:10144000850ee80008003700b0022000e00f5200cf
:10145000010032000080e8008d007800e6000700ff
:10146000e10f4000160032006e1490000804e800fe
:101470006817980012003700e00f52001000320089
:101480003d0290000404b200050032001d02780005
:1014900005c2b300054a7800840ee8000500370055
:1014a0008d00780000022000d3000700e10f40000b
:1014b00003003200ee1490008904e80069179800d8
:1014c0005e1590008a02e900c32add0064772200dd
:1014d0000482420014179800f00566003b0798004c
:1014e0000c0078000002b200200798009c00370032
:1014f000de1090008100e900511798003e11900025
:1015000003042000830f51006f00320003003c00f1
:10151000e00f5100080032007c0037000408200072
:10152000be129000848f520051003200040c200043
:10153000848f520075003a00e00f56001b003d00fa
:101540001e1390003604be002605be000802be0031
:101550000a03be007e1090008e1890001e199000a5
:10156000ae199000d7010700004f78000000fb0083
:10157000cf80de0001017800820178000802be0001
:101580000a03be005e0207007e1490008e1c9000cd
:101590001e1d9000ae1d90000004540081845c006c
:1015a00002055d0083855d0020003700be049000c9
:1015b000e08f5400220032007e1290008e1a9000bc
:1015c0001e1090003004be002005be000801be00c1
:1015d0000400be00441f9800351f980094fc0700cb
:1015e000004f78000000fb00cf80de000801be0045
:1015f0003b0107004e1a9000be1a900000015200f5
:1016000081815a00020f9800130f98008001eb00af
:10161000230f98000002eb00340f98000e0c90008e
:101620009e0c90002e0d9000be0d90007817980033
:10163000091f98001a1f98002b1f980009003700f7
:101640009e149000190278007e1590001100090088
:101650000485d800a4002000110009000480d800ef
:10166000014f78000bc3b3001ecf450027003700a1
:10167000d47522002e009000e00f500001003200cf
:10168000c4742200de109000c20add007e109000bb
:101690008e1890001e199000ae1990008502e90086
:1016a000050033008301d1000281d3008180d30083
:1016b0000080d300f9ff3700ef026000050242000e
:1016c000144f7800110037005e119000e312b9004a
:1016d0007e1490008e1c90001e1d9000ae1d900088
:1016e000040078000000e900050033008b05d100fc
:1016f0000a85d3008984d3000884d300f9ff37001a
:101700006742640001c3b300014f42003d029000f4
:101710000404b200070032009d0278001e427800e7
:10172000844a7800850ee800e04f520006003a0037
:10173000080037001e00fb008d0078002e00070017
:10174000e10f4000030032006e1190000201e8003a
:10175000621798009e119000e881510013179800bd
:101760005e129000e00f520061ff3a0068066600ca
:1017700016003200ae129000e08f520013003400c9
:1017800008c2b300850478006e1690003d029000f8
:101790000404b200040032001d027800084a7800f8
:1017a000840ee800050037008d007800000220005c
:1017b00011000700e10f4000010032000c06e800b4
:1017c0008904e900f1ff3a006c1798000e139000ad
:1017d00016407800004f7800e04f50008afc3a0035
:1017e0006e1090004f06be004f05be004f04be00b5
:1017f0000080fa00000006000000fa00889fbe008a
:101800000104780038029000e20262008084eb005c
:101810003b003200040378000620b20098029000da
:1018200002003a00e08f520035003a000490a00018
:101830003404980080047800f90fb200e08f520061
:1018400002003a00a8029000050c7800ea8f5400cc
:1018500005003a000408b20003003a00880078004e
:10186000d0002000e4ff070018029000d80290008a
:10187000850f52000b0032000402e80014049800a7
:1018800018027800094a7800040ce80015c0b3007b
:1018900004a12200054a7800ea8f540018003a009b
:1018a000050037008800780009407800180007001c
:1018b0008004780012003700380290000410b20053
:1018c0000f00320018019000a8009000480090001e
:1018d0005300070018029000840f500004003200eb
:1018e000380290000403b300340498008084eb00b5
:1018f0000002eb001404980028029000040c780009
:10190000090078004f04be000080fa0000000600c5
:101910000200fa00889fbe00004f780001047800a2
:1019200038029000840278000504b2000200320000
:101930000000fb0033003700e202620005003a00bd
:101940000403b30034049800150498000080eb00f1
:101950002c003700d8049000e08f540006003a00b5
:10196000120020008e007800480090002c00070034
:101970001904980022003700a8029000e08f52005e
:1019800008003a0035a1220025049800050c7800d3
:101990002500200055049800150498000430a0008c
:1019a0003404980018019000a800900048009000ae
:1019b0001b000700280290008082eb0015049800ad
:1019c0001e4a7800040ce800a4c0b3009e4f120029
:1019d0000b003a00380290000410b20008003200f8
:1019e00018019000a8009000480090000c0007002b
:1019f0000002eb001404980028029000040c780008
:101a00001e00fb004f04be000080fa00000006002c
:101a10000000fa0000c0da000080fa0000000600b2
:101a20000a00fa00e20f500022003e00145181002b
:101a3000e10f5200060032008723200046232000d9
:101a40002423200005232000e08f530004003a00e7
:101a50008722200046222000242220000522200088
:101a6000000028001500600003003a00800b780099
:101a700007002800958a73000540200094826200c8
:101a800001003a0014a0a00082027800060037008e
:101a9000940378000710b200fdff3200b103fb0091
:101aa000070b78008502e900e08f5200f8ff3a004a
:101ab0000800370034002000040f78001007980059
:101ac00021079800320798000e007800d0ff070029
:101ad0003e019000020078000080fa00000006003d
:101ae000020ab900001bb9000200b80081004200e0
:101af00081004300000006000000fa00889fbe003d
:101b00008a9fbe003004be002005be0004044400cd
:101b100085844c0006054d0087854d000898be0061
:101b20000a90be000440e10005c8e10006d0e100d3
:101b300007d8e10002003100680040001008e8000a
:101b40004f05be004f04be000080fa0000000600f2
:101b50001000fa00889fbe008a9fbe000605be00e6
:101b60000404be003002be002003be00049fbe007d
:101b70000697be000802520089825a000a035b00e1
:101b80008b835b0044079800550798006607980010
:101b9000770798000498be000698be001100200048
:101ba0003e02be002e03be008f0007000100390078
:101bb0008000eb00108810004f05be004f04be00ef
:101bc0000080fa00000006001400fa00889fbe00a2
:101bd0008a9fbe008c9fbe00bf0007000605be00a6
:101be0000404be000006eb004c0798003c07980078
:101bf0002c0798001c0798000c0f78000d0420009b
:101c00004e039000be029000860343002e02900017
:101c1000e00f530003003d0078000700b6ff070007
:101c20000200370075000700c9ff0700ce029000d0
:101c3000150f9800e08f520009003500ab00070037
:101c400014002000050020006033b800000072007e
:101c50008180720002017300838173009e0007007f
:101c60000c06e8008d0f5600e5ff3a001e0a9000b2
:101c7000e00f520004003d000802be000a03be004f
:101c80000e0078009cff07004eba9700e00f52004c
:101c900006003a003e04be002e05be00580798001c
:101ca000690798007a0798000b0f98008f000700cb
:101cb0004f06be004f05be004f04be000080fa0074
:101cc000000006000000fa00881f780018002000bd
:101cd000881f7800bcff07008f87e9004f04780059
:101ce0000080fa00000006000000fa00801feb00f0
:101cf000b5ff07008f87e9000080fa0000000600aa
:101d00000000fa00889fbe008a9fbe005a000700ac
:101d100007003d005d00070018002000620007007a
:101d200008003d00290007000004eb000500370013
:101d30000004eb005c00070002003d0023000700e8
:101d400018002000dfff0700e00f54000100320000
:101d50005a0007004f05be004f04be000080fa0085
:101d6000000006000000fa00889fbe008a9fbe00a7
:101d70008c1f78004000070005003d00430007006d
:101d80001c0020001800070007003d000500370078
:101d90000006eb004400070003003d006044b8006b
:101da0006055b8000b000700cfff0700e00f56009a
:101db00001003200410007004f0678004f05be00c9
:101dc0004f04be000080fa00000006006044b80026
:101dd0006055b8000402540085825c0006035d0073
:101de00087835d00000006000820e10009a8e100eb
:101df0000ab0e1000bb8e100000006004f2bde0046
:101e000086837300470798004f23de0085824200d7
:101e100086827200350798009e0290004f2bde00ec
:101e20000402420006027200240798001e02780095
:101e30004f23de00858242008682720015079800db
:101e40002a0007004f18de0004024200000f720053
:101e50002600070000004000818048000201490080
:101e6000838149001c0007000802be000a03be006f
:101e70000e00780000000600e00f5000e08f5800d0
:101e8000e00f5900e08f5900000006006044b800e0
:101e90006055b8000000540081805c0002015d00c4
:101ea00083815d0000000600e00f5200e08f5a00c1
:101eb000e00f5b00e08f5b00000006006022b800ce
:101ec0006033b8000000520081805a0002015b00bc
:101ed00083815b00000006005007980061079800ae
:101ee00072079800030f9800000006005e00900043
:101ef000ee0090007e0190008e0990000000060028
:101f00000000fa00889fbe008a9fbe008c1f7800e8
:101f10000006eb00e00f5000e08f5800e00f590082
:101f2000e08f590007003d006044b8006055b800dc
:101f30000000540081805c0002015d0083815d002f
:101f40001c002000e00f5200e08f5a00e00f5b0001
:101f5000e08f5b0007003d006044b8006055b800aa
:101f60000402540085825c0006035d0087835d00e7
:101f70000c00a2000d000700e00f56000600320022
:101f80006022b8006033b8000000520081805a001f
:101f900002015b0083815b004f0678004f05be00a5
:101fa0004f04be000080fa0000000600889fbe00bb
:101fb0008a9fbe008c9fbe000404b8000506b800ce
:101fc0008904460060854e000606b8000a054600f2
:101fd000e0854e000706b8008b054600040eb800e9
:101fe000890446000a854e00e0854d00050eb800c4
:101ff0000a0546008b854e00060eb8008b0546008c
:102000000416b8000a0546008b854e000516b80078
:102010008b054600041eb8008b0546000800be0074
:102020000a01be004f06be004f05be004f04be00b1
:0420300000000600a6
:020000040000fa
:102034000000000001000000020000000100000098
:102044000300000001000000020000000100000085
:102054000400000001000000020000000100000074
:102064000300000001000000020000000100000065
:102074000500000001000000020000000100000053
:102084000300000001000000020000000100000045
:102094000400000001000000020000000100000034
:1020a4000300000001000000020000000100000025
:1020b4000600000001000000020000000100000012
:1020c4000300000001000000020000000100000005
:1020d40004000000010000000200000001000000f4
:1020e40003000000010000000200000001000000e5
:1020f40005000000010000000200000001000000d3
:1021040003000000010000000200000001000000c4
:1021140004000000010000000200000001000000b3
:1021240003000000010000000200000001000000a4
:102134000700000001000000020000000100000090
:102144000300000001000000020000000100000084
:102154000400000001000000020000000100000073
:102164000300000001000000020000000100000064
:102174000500000001000000020000000100000052
:102184000300000001000000020000000100000044
:102194000400000001000000020000000100000033
:1021a4000300000001000000020000000100000024
:1021b4000600000001000000020000000100000011
:1021c4000300000001000000020000000100000004
:1021d40004000000010000000200000001000000f3
:1021e40003000000010000000200000001000000e4
:1021f40005000000010000000200000001000000d2
:1022040003000000010000000200000001000000c3
:1022140004000000010000000200000001000000b2
:1022240003000000010000000200000001000000a3
:102234003f000000754300002f4f0000532d0000a5
:102244004949000020490000646c0000650000005a
:10225400754300002f4f0000532d00004949000032
:1022640020530000746100007400000075430000f6
:102274002f4f0000532d0000494900003a20000070
:10228400567800002e7900007920000000430000f9
:102294005055000020530000706500006564000084
:1022a4003a200000787800004d4800007a000000d1
:1022b4004350000055200000557300006167000082
:1022c400653a00002078000078780000202500009e
:1022d400004f00005343000074780000537700005f
:1022e4003a200000002500006c6400000057000044
:1022f400656c0000636f00006d65000020740000d1
:102304006f200000746800006520000020000000b9
:1023140045780000706c00006f7200006572000068
:10232400203100003620000045560000422e0000f7
:102334000054000068690000732000006465000018
:102344006d6f000020690000732000002020000051
:1023540020000000727500006e6e0000696e0000bf
:1023640067200000754300002f4f0000532d00002c
:1023740049490000006100006e64000020750000ff
:10238400432f0000507200006f62000065200000bf
:102394006f6e0000200000007468000065200000db
:1023a4004d690000637200006f63000068690000fb
:1023b4007020000020200000006400007350000022
:1023c400494300003333000020430000505500000f
:1023d4002e2000002020000020000000506c00008f
:1023e40065610000736500002076000069730000d9
:1023f400697400003a2000002020000000770000eb
:10240400777700002e6d0000696300007269000098
:10241400756d00002e6300006f6d00002000000049
:10242400746f0000206400006f7700006e6c000081
:102434006f610000642000002020000020200000c4
:1024440000750000432f0000507200006f6200000e
:1024540065200000666f00007220000075730000a4
:1024640065000000776900007468000020740000b3
:102474006869000073200000646500006d6f00004f
:102484002e200000000000000807000006060000df
:102494000505000005050000040400000404000014
:1024a400040400000404000003030000030300000c
:1024b4000303000003030000030300000303000000
:1024c40003030000030300000202000002020000f4
:1024d40002020000020200000202000002020000e8
:1024e40002020000020200000202000002020000d8
:1024f40002020000020200000202000002020000c8
:1025040002020000020200000101000001010000bb
:1025140001010000010100000101000001010000af
:10252400010100000101000001010000010100009f
:10253400010100000101000001010000010100008f
:10254400010100000101000001010000010100007f
:10255400010100000101000001010000010100006f
:10256400010100000101000001010000010100005f
:10257400010100000101000001010000010100004f
:102584000101000001010000000000000000000043
:102594000000000000000000000000000000000037
:1025a4000000000000000000000000000000000027
:1025b4000000000000000000000000000000000017
:1025c4000000000000000000000000000000000007
:1025d40000000000000000000000000000000000f7
:1025e40000000000000000000000000000000000e7
:1025f40000000000000000000000000000000000d7
:1026040000000000000000000000000000000000c6
:1026140000000000000000000000000000000000b6
:1026240000000000000000000000000000000000a6
:102634000000000000000000000000000000000096
:102644000000000000000000000000000000000086
:102654000000000000000000000000000000000076
:102664000000000000000000000000000000000066
:102674000000000000000000000000000000000056
:102684000000000000000000785600003412000032
:10269400ffff0000ffff0000ffff0000ffff00003e
:1026a400ffff0000ff7f0000555500005555000056
:1026b400ffff0000ff3f000033330000333300000e
:1026c400aaaa0000aa2a00002449000092240000bb
:1026d400ffff0000ff1f00001cc70000711c00006a
:1026e400999900009919000074d100004517000061
:1026f4005555000055150000133b0000b1130000b0
:102704009224000049120000111100001111000070
:10271400ffff0000ff0f00000f0f00000f0f00006d
:102724008ee30000380e00005e430000790d0000c7
:10273400cccc0000cc0c00000cc30000300c00001a
:10274400bae80000a20b00002c640000210b00007a
:10275400aaaa0000aa0a0000a37000003d0a000013
:10276400899d0000d80900005e4200007b0900003a
:102774004992000024090000b0dc0000d3080000e6
:1027840088880000880800008410000042080000c7
:10279400ffff0000ff0700007cf00000c1070000fd
:1027a40087870000870700000775000050070000b6
:1027b400c77100001c0700000100000078560000eb
:1027c40034120000010000000a00000001000000b3
:1027d40012000000b400000001000000010000002d
:1027e400080000000c0000000200000005000000ca
:1027f400010000003f000000010000000100000093
:102804000500000001000000120000005a00000052
:1028140001000000020000000100000004000000ac
:102824000e0000000800000001000000020000008b
:102834000100000001000000010000008000000011
:10284400010000001600000001000000010000006b
:1028540080000000010000000100000001000000f1
:10286400400000004000000064000000010000007f
:102874001b720000000000000100000010000000b6
:1028840001000000070000000a0000001a00000018
:10289400a0010000040000001c0000006f0c0000f8
:1028a4004865000061700000005500006e6e000075
:1028b400616d000065640000207300007461000015
:1028c4007469000063200000706f00006f6c0000ea
:1028d400005500006e6e0000616d0000656400002c
:1028e400207300007461000074690000632000001c
:1028f400706f00006f6c00002066000072650000bd
:1029040065200000626c00006b200000746200000f
:102914006c0000003f000000754300002f4f0000d2
:10292400532d000049490000205400006d7200003e
:102934004c6f0000636b000000750000432f000023
:102944004f5300002d49000049200000546d000041
:1029540072530000696700006e6100006c000000a3
:10296400754300002f4f0000532d0000494900001b
:10297400205400006d720000000000007543000048
:102984002f4c000043440000204c00006f63000003
:102994006b0000003f0000003f0000003f0000000b
:1029a4003f0000003f0000003f0000003f00000027
:020000040000fa
:1029b4000a00fa002007980031079800420798009f
:1029c4000002eb00040f78002e029000e00f52008a
:1029d40005003a00ce02900044c0b300844a780057
:1029e4000042eb00330037003e029000e00f52003b
:1029f40005003a00ce029000c4c0b300844a7800b7
:102a04000042eb002b003700041f21001442780021
:102a1400e04f520005003200ce02900014c1b30012
:102a2400844a78000042eb00220037002e02900016
:102a3400144278000482fb000402e900e30f520010
:102a440018003e0014028000040f78001402800075
:102a54000450a0000460a0000470a00014028800c8
:102a64002e029000840a90003e029000050a78002d
:102a74003e02900014027800040078002e0607003d
:102a840000427800244798001e027800140288004f
:102a9400ce0290000042eb00844a78002e4290005f
:102aa40004003700ce02900014c0b300844a7800ba
:102ab4000042eb00044078000080fa0000000600a9
:102ac4000800fa00100798002107980032079800c0
:102ad4000002eb00040f78001e029000e00f520089
:102ae40004003a00be02900044c0b300844a780057
:102af400290037002e029000e00f520004003a0033
:102b0400be029000c4c0b300844a7800220037009b
:102b1400041f210014427800e04f520004003200e8
:102b2400be02900024c1b300844a78001a00370022
:102b34001e029000144278000482fb000402e900a3
:102b4400e30f520010003e0014028000040f7800ce
:102b5400140280000450a0000460a0000470a000cf
:102b6400140288001e029000ae029000050a98002c
:102b74001e02780014028800be0290000042eb009e
:102b8400844a780004003700be02900014c0b300e9
:102b9400844a7800000000000080fa00000006006b
:102ba4001a00fa0070079800010f9800120f98009d
:102bb400240f9800350f9800430f98000002eb0093
:102bc400540798007e029000e00f520005003a007e
:102bd400ce0a900044c0b300844a78000002eb009f
:102be4008d0137007e02900014027800e00f52003d
:102bf40005003a00ce0a900044c0b300844a78002d
:102c04000002eb00840137000e0a9000e00f52002e
:102c140005003a00ce0a900044c0b300844a78000c
:102c24000002eb007c0137001e0a9000e00f520006
:102c340005003a00ce0a900044c0b300844a7800ec
:102c44000002eb00740137000e0a90008002eb00d2
:102c5400050a78007e029000040f78001e027800b6
:102c64009402780015079800170037001e029000a0
:102c7400144278000482fb00e20f52000900320083
:102c8400e30f520009003200e10f52000900320044
:102c9400ce0a900014c0b300844a78000002eb000e
:102ca4005d01370000000000030037000000000051
:102cb40001003700000000001e8fe8001e027800ab
:102cc40014037800160798001e029000e00f5200cb
:102cd400e6ff3a00041f210014427800e04f52003e
:102ce40005003200ce0a900024c0b300844a780064
:102cf4000002eb0048013700141f21001442780041
:102d0400e04f520005003200ce0a9000d4c0b30058
:102d1400844a78000002eb003f0137000042eb00d8
:102d2400444798000002eb00340798000042eb008f
:102d3400044f9800fe039000070f78001e027800ed
:102d44009402780015079800160280005607980030
:102d5400140280000450a0000460a0000470a000cd
:102d640014028800860037001e0290001442780086
:102d74000482fb00e20f520042003200e30f5200d3
:102d840003003200e10f5200200032006e003700d1
:102d94001e02900024029000e00f5200170032003f
:102da4001e029000240290008402e9001e0290009a
:102db400250298000e0a90009e039000070a7800ee
:102dc4000e0a90000482e800040f980014c0b300b7
:102dd400444798001e0a90008002eb00050a780020
:102de4001e0a90000482e800140f98003e0290002e
:102df4000402e800340798005d0037000e4a900092
:102e04000404a000044f9800590037001e029000eb
:102e140014029000e00f5200160032001e029000cf
:102e2400940290001e0a9000050a78001e0a900081
:102e34000482e800140f98001e0290008002eb0048
:102e4400150298000e0a90009e029000050a780070
:102e54000e0a90000482e800040f980014c0b30026
:102e6400444798003e0290000402e80034079800aa
:102e74003f0037000e4a90000414a000044f98004d
:102e84003b0037001e029000140290006407980073
:102e94006e02900064029000e00f5200260032009f
:102ea4006e02900044029000140378009e0a900081
:102eb400860a78009e0a90008582e800150f980023
:102ec4008482e8006e029000450298006e02900031
:102ed400c40290006e02900024029000848f52007d
:102ee40004003a006e029000940290006e0290007a
:102ef400450298006e029000640290008402e9008a
:102f04006e029000650298000e0a90001e03900065
:102f1400060a78000e0a90000482e800040f980064
:102f240014c0b300444798003e0290000402e80035
:102f3400340798000e0037000e4a90000424a000c5
:102f4400044f98000a003700de039000170288003f
:102f54000e0a90008002eb00050a7800ce0a900069
:102f640014c0b300844a78003e029000aa003700df
:102f74001e8fe8001e02780094027800150798005e
:102f84001e029000e00f520077ff3a004e4290007c
:102f9400e14f52000a003a000e0a90008002eb0052
:102fa400050a78005e03900016028800ce0a90009d
:102fb4000042eb00844a78003e02900096003700fd
:102fc4002698800024988000846290000e4a900025
:102fd40084c2720004c8b30004c27200046398007f
:102fe400259880000042eb009462980024988000a9
:102ff4002e0b9000be0b9000660a9800770a98008a
:103004007e009000b6020700de03900017028800dd
:103014007d04070014028000540798001402800005
:103024000450a0000460a0000470a00014028800f2
:1030340024988000146290000482fb00e00f520088
:1030440002003200e20f52001a003a002498800075
:10305400940a9000150798001e029000e00f520099
:103064000c0032000e0a90001e039000060a78003d
:103074000e0a90000482e800040f98000e0a9000e3
:103084008002eb00050a7800140020003407980041
:103094000d0037002598800014c0b3009462980096
:1030a40024988000fe0090000400780006030700c6
:1030b4000500370024988000fe009000040078008a
:1030c40001030700000000002498800014629000af
:1030d4000482fb00e00f520003003200e20f5200b2
:1030e40027003200300037001e029000144278009e
:1030f4000482fb00e10f520013003500e20f52007e
:1031040009003400e30f52000f003a001e0a900039
:103114008002eb00050a78001e0a90000482e80091
:10312400140f98001200370024988000b40a90000d
:103134001e0a9000050a78001e0a90000482e80026
:10314400140f98000a003700de039000170288006d
:103154000e0a90008002eb00050a7800ce0a900067
:1031640014c0b300844a78003e0290002a0037005d
:10317400ce0a90000042eb00844a78001400370025
:103184001e0a90008002eb00050a78001e0a9000d7
:103194000482e800140f9800ce0a9000e4c0b30043
:1031a400844a78000a0037001e0a90008002eb006f
:1031b400050a78001e0a90000482e800140f9800a3
:1031c400ce0a9000a4c0b300844a78000000000036
:1031d400259880000042eb008462980025988000c6
:1031e4000042eb0094629800249880008002eb0077
:1031f400150a9800249880008002eb00250a9800a4
:10320400249880008002eb00350a98005e0290004a
:10321400140288003e029000040078000080fa0046
:10322400000006000000fa0058a10200000000009f
:10323400290307004c03070098030700f002070066
:10324400a2540200000000007a9202000000000074
:1032540030790200000000006003070077030700d4
:103264009c6e02000000000066a102000000000045
:10327400a2a90200000000000080fa00000006007d
:103284000000fa00d41f210014427800e14f5200dc
:1032940009003a00041f210014427800e14f420063
:1032a40005003200041f2100144278000442e800a3
:1032b400051f2100844a78000080fa0000000600ff
:1032c4000200fa000002eb00040f7800d41f210072
:1032d40014427800e14f520038003a001402800092
:1032e400040f7800140280000450a0000460a000c1
:1032f4000470a00014028800041f21001442780006
:10330400e04f520005003200041f210014427800ef
:103314000442e900051f2100844a7800041f2100ab
:1033240014427800e04f520022003a00141f21009a
:1033340014427800e04f52001e003a00e6030700f2
:10334400341f2100144278000482fb0084024200ee
:10335400c43021000482420014027800449888009a
:10336400341f210094427800241f21001442780065
:1033740084cf52000f00320046988000461290001d
:10338400d612900061024200e0824a004413980081
:10339400551398000480800015808000610242006b
:1033a400e0824a00048088001580880076a7020025
:1033b400000000001e027800140288000080fa0059
:1033c400000006000200fa000002eb00040f78007f
:1033d400d41f210014427800e14f520016003a0035
:1033e40014028000040f7800140280000450a0002e
:1033f4000460a0000470a00014028800041f2100cf
:1034040014427800e04f520009003a00141f2100d2
:1034140014427800e14f420005003200141f2100dd
:10342400144278000442e800151f2100844a780001
:103434001e027800140288000080fa0000000600d2
:103444000200fa000002eb00040f7800d41f2100f0
:1034540014427800e14f520024003a001402800024
:10346400040f7800140280000450a0000460a0003f
:103474000470a00014028800041f21001442780084
:10348400e04f520017003a00141f21001442780044
:10349400e04f520010003200141f21001442780043
:1034a4000442e900151f2100844a7800141f2100fa
:1034b40014427800e04f520004003a001e027800e3
:1034c4001402880050030700080037001e02780029
:1034d40014028800050037001e02780014028800d8
:1034e400020037001e027800140288000080fa00ef
:1034f400000006000000fa00d41f210014427800e6
:10350400e04f520011003a0073030700341f2100fa
:1035140014427800251f2100844a7800341f2100ba
:10352400144278000482fb0084024200c43021006b
:103534000482420014027800449888004498800071
:1035440024988800aea60200000000000080fa0063
:10355400000006000200fa000002eb00040f7800ed
:103564002000200001002000089c02000000000050
:1035740014028000040f7800140280000450a0009c
:103584000460a0000470a000140288006022b80047
:1035940004908800159088001e02780014028800a8
:1035a400a000200001002000089c02000000000090
:1035b40014028000040f7800140280000450a0005c
:1035c4000460a0000470a00014028800049080002d
:1035d400159080003487880045878800e50e210017
:1035e40014c0b300844a78001e02780014028800d4
:1035f4000080fa00000006000600fa000002eb005a
:1036040024079800c2a102000000000014028000f8
:1036140024079800140280000450a0000460a00055
:103624000470a0001402880034cd800045cd8000d1
:1036340061024200e0824a0034cd880045cd880012
:10364400ae02900015028800d41f210014427800b5
:10365400e14f520078003a00c490210014427800ef
:103664000482fb00e10f520007003200e20f520017
:1036740008003200e00f52000c003a0014c0b300fe
:10368400244798000f0037000042eb0024479800bd
:103694000c00370014c0b30024479800c5902100e3
:1036a40014c0b300844a78000600370014c0b30085
:1036b40024479800c59021000042eb00844a78001a
:1036c400000000002e429000e04f520059003200ea
:1036d40054988000040f78005000370015028000d1
:1036e40025079800140280000450a0000460a00084
:1036f4000470a000140288001e027800f40a9000ee
:10370400640a9000e00f5200e08f5a003e0032003d
:103714001e027800f40a9000640a900061025200cc
:10372400e0825a001e037800640b9800750b980021
:103734001e027800f40a9000640a9000e00f520020
:10374400e08f5a0030003a001e02780004629000b4
:103754008482fb007403200004826200e00f5200a4
:103764000a0032001e0278008462900084ccb30008
:1037740004c262009e027800846298009e0278006f
:1037840014c0b30094629800030037009e027800ce
:103794000042eb00946298001e02780004629000dc
:1037a4000482fb0068026200e00f520016003a0037
:1037b4001e027800e4629000441f21001442780045
:1037c40004c27200451f2100844a78001e0278005a
:1037d400446290000483fb001e027800446290005f
:1037e4000482fb00551f21000482420094427800a9
:1037f4001e0278005462900004c27200551f21001a
:1038040086824200844a78001e027800f402900006
:10381400050f78002e029000140288001e02780022
:10382400a4629000f4c3b30084cf5200abff3a000b
:1038340001003700000000000080fa0000000600cc
:103844000000fa00b4212700040078000080fa0088
:10385400000006000000fa000080fa0000000600e4
:103864000c00fa003007980041079800224f980096
:10387400334f98003e029000644290000482fb00a3
:10388400a501290004824200144f78009e4278006a
:103894000582fb00be0290006602420004824200e0
:1038a400144290000482fb00a50129000482420016
:1038b40094427800154798001e4278003500200095
:1038c4008522dd001e42900004c242002447980075
:1038d4002e4290000482fb0084024200c430210086
:1038e4000482420094027800250798002e03900079
:1038f4006022b800640b9800750b98002e029000ab
:10390400ce029000350a98002e0290008462900046
:103914002e4a900004c2ea0004c26200ae02900083
:10392400846298002e029000be4a900015629800ae
:103934002e029000046290000482fb006802620080
:10394400e00f520014003a002e029000e46290004e
:10395400441f21001442780004c27200451f210054
:10396400844a78001e4278000483fb009e4278005b
:103974000582fb00551f2100048242009442780016
:103984002e0290005462900004c27200551f210060
:1039940086824200844a7800be0090002e00900087
:1039a4009e0007002e029000240a9000e00f5200af
:1039b400080032002e029000240a9000840078004f
:1039c4002e009000c00007002e029000be0290005e
:1039d400150a98002e429000044078000080fa00f6
:1039e400000006000400fa001007980024988000e4
:1039f4009e029000150a980024988000446290006a
:103a04000483fb0024988000446290000482fb003d
:103a14009e0290006602420004824200944290009a
:103a2400249880005462900004c272009e029000a8
:103a340086824200e6824200944298001e02900070
:103a4400e4429000249880006462900004c27200f2
:103a54009e029000e442980024988000c462900082
:103a6400054f78001e4278000483fb009e427800d4
:103a74000582fb00551f2100048242009442780015
:103a8400249880005462900004c2ea0004c26200d8
:103a9400551f210086824200844a78009e427800a5
:103aa4000582fb00551f2100048242001442780065
:103ab400e04f520008003a002498800064629000ad
:103ac40084c2ea00441f21001442780004c2620048
:103ad400451f2100844a78000080fa000000060097
:103ae4000800fa0030079800249880008002eb0058
:103af400150a980024988000be029000250a9800b8
:103b04003e029000040f78001e02780094027800b0
:103b1400150798001c003700249880004462900028
:103b24000483fb0024988000446290000482fb001c
:103b34009e02900066024200048242009442900079
:103b4400249880005462900004c272009e02900087
:103b540086824200e6824200944298001e0290004f
:103b6400e4429000249880006462900004c27200d1
:103b74009e029000e44298001e8fe8001e02780026
:103b840094027800150798001e029000e00f52007e
:103b9400e1ff3a0024988000c462900045479800f1
:103ba4004e4290000483fb004e4290000482fb00ce
:103bb400551f21000482420094427800249880001a
:103bc4005462900004c2ea0004c26200551f21003e
:103bd40086824200844a78004e4290000482fb00b0
:103be400551f21000482420014427800e04f520025
:103bf40008003a00249880006462900084c2ea00bd
:103c0400441f21001442780004c26200451f2100b1
:103c1400844a78000080fa00000006000600fa00da
:103c240010079800210798001e029000c4629000bb
:103c3400054f78001e4278000483fb009e42780002
:103c44000582fb00ae02900066024200048242003c
:103c5400944290001e0290005462900004c2ea0054
:103c640004c26200ae02900086824200e6824200f4
:103c7400944298009e4278000582fb00ae029000b8
:103c8400660242000482420014429000e04f520057
:103c940008003a002e029000e44290001e029000b8
:103ca4006462900004c2ea0004c26200ae029000a2
:103cb400e44298001e0290008002eb00150a98006e
:103cc4000080fa00000006000c00fa00400798008b
:103cd400510798004e029000c46290004547980036
:103ce4004e029000e4629000554798004e02900006
:103cf400d4629000654798005e029000040f78003b
:103d04001e027800940278001507980022003700fc
:103d14004e4290000483fb004e4290000482fb005c
:103d24009e02900066024200048242009442900087
:103d34006e42900004c2ea0004c262009e02900037
:103d440086824200e6824200944298004e429000ed
:103d54000482fb009e02900066024200048242003c
:103d640014429000e04f520007003a001e029000f7
:103d7400e44290005e42900004c2ea0004c2620081
:103d84009e029000e44298001e8fe8001e02780014
:103d940094027800150798001e029000e00f52006c
:103da400dbff3a000080fa00000006000400fa007d
:103db400100798009e0290000042eb00e442980035
:103dc4000042eb00044f7800080037009e42780060
:103dd4000582fb009e02900004824200e60242003b
:103de4000042eb00944298001e4fe8001e42780007
:103df400e74f5200f5ff36000080fa00000006008d
:103e04000800fa0064002100410b2000040078003f
:103e1400d80007000002eb00040f780018003700f8
:103e24001e02e800140798001e027800f222b9006e
:103e34008402780064002100048242002407980070
:103e44001e029000f222b90084027800640021006e
:103e54000482420034079800ae0290000042eb0056
:103e6400844a78002e029000be0290001502980049
:103e7400a51129002e029000050a98001e0fe800e3
:103e84001e027800e80f5200e5ff36001e0278009b
:103e9400f222b90084027800640021000482420006
:103ea40024079800ae0290000042eb00844a780098
:103eb4002e0290008002eb0015029800a511290043
:103ec4002e029000050a98006400210024808800d6
:103ed4000080fa00000006000000fa006022b8002a
:103ee40034cd880045cd8800051f21000042eb0039
:103ef400844a7800151f21000042eb00844a7800b0
:103f0400e51f21000042eb00844a7800d51f210000
:103f14000042eb00844a78006022b80004808800e4
:103f2400158088006022b8000490880015908800ed
:103f34006022b80054878800658788006022b80032
:103f44003487880045878800e50e21000042eb0095
:103f5400844a7800459a21000042eb00844a7800a4
:103f64000080fa00000006000200fa00451f21004c
:103f74000042eb00844a78000042eb00044f7800d2
:103f8400070037009e4278000582fb00551f210080
:103f9400848242000042eb00844a78001e4fe8000d
:103fa4001e427800e74f5200f6ff3600251f21001d
:103fb4000042eb00844a7800351f21000042eb00e8
:103fc400844a78000002eb00449888000002eb0069
:103fd400249888000080fa00000006000200fa001d
:103fe40034002000841f78000002eb00841f780056
:103ff4000608200007002000253021000082eb0085
:10400400f3c3b300422021008000eb00a01c220077
:10401400f641020000000000e4875700c4112900a3
:104024000e01780084007800f0c3b300ce4502008e
:10403400000000000080fa00000006000200fa0000
:1040440034002000841f78000002eb00841f7800f5
:104054000608200007002000e51e2100e4ff2f00d1
:10406400e3c3b300020f21008000eb00601f2200b5
:10407400f641020000000000e4875700a412290062
:104084000e01780084007800e0c3b300ce4502003e
:10409400000000000080fa00000006000600fa009c
:1040a400c4382100015820000400780031000700c2
:1040b400c430210001082000040078002d0007000e
:1040c4000042eb00044f7800150037001e42e80060
:1040d400144798009e4278000582fb00c622dd004a
:1040e400c438210004824200140798001e42900044
:1040f4000482fb00c622dd00c43821000482420091
:10410400240798001e029000ae02900075029800e9
:10411400a51129001e029000551a98001e4fe800b0
:104124001e427800f44f5200e8ff36009e427800a9
:104134000582fb00c622dd00c4382100048242004f
:10414400140798001e0290008002eb00750298008c
:10415400a51129001e029000551a98000002eb00d8
:1041640054988800c4382100349888000080fa00ec
:10417400000006000400fa00000f78001107980000
:10418400070037009e0278000042eb00844a780062
:104194001e0fe8001e0290000402e90014079800b4
:1041a4001e029000e00f5200f6ff3a000080fa0071
:1041b400000006000600fa00000f780011079800be
:1041c400220798000b0037001e029000144278006a
:1041d4009e027800844a78001e0fe8001e029000b8
:1041e4000402e800140798002e0290000402e9007b
:1041f400240798002e029000e00f5200f2ff3a00cc
:104204000080fa00000006000200fa000002eb0041
:10421400040f780014028000040f78001402800058
:104224000450a0000460a0000470a00014028800e0
:10423400041f210014427800e04f520022003a008b
:10424400141f210014427800e04f52001e003a006f
:1042540021000700341f2100144278000482fb006f
:1042640084024200c4302100048242001402780017
:1042740044988800341f210094427800241f2100b0
:104284001442780084cf52000f0032004698800018
:1042940046129000d612900061024200e0824a0069
:1042a4004413980055139800048080001580800002
:1042b40061024200e0824a00048088001580880080
:1042c400f0a60200000000001e027800140288001c
:1042d4000080fa00000006000200fa00441f2100da
:1042e400144278000482fb00a501290004824200e4
:1042f400144f78001e427800350020008522dd002e
:104304001e4378000682fb00561f2100040243006e
:10431400144278000482fb00a60129000402430031
:104324001442780004c24200351f2100844a7800f8
:104334000080fa00000006000400fa00100798004c
:104344001e029000e00f520002003a000042eb000f
:104354000c0037000042eb00044f780004003700e3
:104364001e0290000402e800140798001e4fe800a3
:104374001e02900014427800e04f5200f8ff3a0009
:104384001e427800044078000080fa000000060015
:104394000400fa00100798000002eb00040f7800f4
:1043a40014028000040f7800140280000450a0005e
:1043b4000460a0000470a00014028800049080002f
:1043c4001590800061024200e0824a000490880057
:1043d400159088001e0278001402880088a102004b
:1043e40000000000eeff37000400fa0010079800f8
:1043f4000002eb00040f78000400370040012000a5
:1044040001002000089c020000000000e40e2100ce
:1044140014427800e04f5200f8ff320034878000e5
:104424004587800042062000030020000400be00ef
:1044340018040200000000000002be003487880057
:10444400458788003487800045878000e00f52004c
:10445400e08f5a0006003a00450e21000042eb00ae
:10446400844a780000c0eb002c48020000000000e1
:1044740012028000020f7800140280000450a00091
:104484000460a0000470a000140288003487800037
:10449400458780004606200086abb900e021b900bc
:1044a4008203780007034300840278004406200056
:1044b400042ab800050343008602780004908800ab
:1044c400159088001e0278001402880012028000f1
:1044d400020f7800140280000450a0000460a000c1
:1044e4000470a000140288000490800015908000dd
:1044f40054878800658788006022b800049088008b
:10450400159088001e0278001402880056878000e7
:104514006787800034878000458780000401be00df
:104524000600be0018040200000000000002be00e5
:104534000442780045c6b30004c25200450e21006f
:10454400844a7800a0a102000000000005000700d2
:10455400a000200001002000089c020000000000d0
:10456400daff37000c00fa000042eb00044f780039
:104574002800370064024700840078001e40780059
:1045840044470200000000000042780014479800ed
:104594001e429000e04f52001d003a009e427800f7
:1045a4000582fb0084024200c430210004824200e0
:1045b40094027800150798001e029000e00f520044
:1045c400130032001e029000e10f5200100032006e
:1045d4001e029000240390001e029000c40290006a
:1045e4003402900004027800040242000402ea004b
:1045f400840243001e029000251a98004e02900087
:10460400de0290001e039000341b9800451b9800a6
:104614001e4fe800f4c3b3009e42780084cf5200da
:10462400d4ff36000080fa00000006001600fa00ed
:104634006047980041079800520798006307980064
:1046440074079800050f9800160f9800270f98001c
:104654000002eb001407980014028000140798006d
:10466400140280000450a0000460a0000470a000a4
:104674001402880035988000250798002e029000c7
:10468400e00f5200ca0032002e0290007402900023
:10469400349888001e039000160288002e029000b1
:1046a400ce039000070a78002e029000ee4290009c
:1046b40025629800ae0290000042eb0084629800ec
:1046c400ae0290000042eb00946298002e0390002a
:1046d4006022b800640b9800750b98002e029000bd
:1046e4001e0b9000160298002e0290007e0390008c
:1046f4008e0b900036029800470298002e0290001c
:10470400de039000270298002e029000ae0a90006b
:10471400550298002e0290006e03900066029800e5
:10472400ae0290000042eb00f46298006e429000ea
:104734000482fb004322de0004427800ae029000b3
:10474400c46298006e42900067426200ae0290001c
:10475400b46298002e029000446290000483fb002f
:104764001400200005002000860378008703e90078
:10477400030033000402420085824a00fbff370035
:1047840004427800ae029000e46298002e02900089
:10479400346290000483fb00140020000500200014
:1047a400860378008703e900030033000402420013
:1047b40085824a00fbff370004427800ae02900075
:1047c400d46298002e0290008002eb00150a980033
:1047d4002e0290008002eb00250a98002e02900021
:1047e4008002eb00450a98002e0290008002eb0044
:1047f400350a98002e0390006022b80044139800f4
:10480400551398002e0390006022b800041b9800f2
:10481400151b98002e0390006022b80064139800c2
:10482400751398002e0290008002eb00251a980060
:104834002e0390006022b800341b9800451b98009a
:10484400a51129002e029000551a98000042eb0091
:10485400044f7800090037009e4278000582fb006f
:10486400ae0290006f0242004222dd000483420047
:104874006022b800048bbe001e4fe8001e42780080
:10488400e04f5200f4ff32002e009000b4a1020069
:104894000000000016028000160798001402800031
:1048a4000450a0000460a0000470a000140288005a
:1048b4006e4290000482fb0084024200c430210056
:1048c40004824200ae039000070a78001e029000a2
:1048d400140288002e0090006ca102000000000069
:1048e4001502800015079800140280000450a000ef
:1048f4000460a0000470a000140288005598800091
:104904002e029000750298002e0290008002eb00a7
:10491400050a980054988000e00f5200030032000a
:10492400549880002e039000060a9800ae0390006d
:10493400579888002e029000e4629000441f2100e2
:104944001442780004c27200451f2100844a780092
:104954002e029000446290000483fb002e0290001b
:10496400446290000482fb00551f2100048242002f
:10497400944278002e0290005462900004c27200a7
:10498400551f210086824200844a7800e41f2100da
:10499400144278000442e800e51f2100844a7800ac
:1049a4001e029000140288000042eb00030037004e
:1049b4009e0290001502880024c4b30004407800cd
:1049c4000080fa00000006000400fa000002eb0078
:1049d400f403890044c72100040f78002645290008
:1049e4000e82e800840278001400200003402000b6
:1049f4001e01780041072200060078000a02070021
:104a04009e02900004712200848f52000200320042
:104a140082870200000000000080fa000000060007
:104a24000400fa00000f7800110798001e0190009e
:104a34008040eb001e007800020007000080fa00ae
:104a4400000006001200fa0060079800614f980009
:104a5400020f98000002eb00140798000002eb001c
:104a6400440798000b0037001e0290004822dd0026
:104a7400140798006e4a90000482fb009e02900086
:104a840005027200140798004e0290000402e80028
:104a9400440798004e029000e10f5200f2ff3600e6
:104aa4000e0a9000040f78006e0290000442780011
:104ab4000482fb006102620054079800ee02900039
:104ac400350798005e029000e00f52001300320098
:104ad4005e029000440798000a0037003e029000ee
:104ae400ee4a9000054a78003e0290000402e80075
:104af400340798001e0fe9004e0290000402e800fb
:104b0400440798001e027800e00f520003003200b0
:104b14004e029000e10f5200f0ff36003e0290007a
:104b240024079800070037002e0290009e02900090
:104b3400050a78002e0290000482e80024079800f9
:104b44001e8fe9001e027800e10f5200f6ff3e00be
:104b54002e02900034079800070037003e029000b0
:104b6400ee4a9000054a78003e0290000402e800f4
:104b7400340798001e0fe9001e027800e00f52006f
:104b8400f6ff3a000080fa00000006001a00fa005e
:104b9400200f9800310f9800420f98004e0a9000a1
:104ba400040f78002e0a9000340798003e0a900003
:104bb40044079800ce0290003e0290000482520006
:104bc400640798006e029000e10f52005200360014
:104bd4003e029000044278000482fb0061026200fd
:104be400740798004e029000044278000482fb008f
:104bf40061026200040f9800fe0290000e0a900009
:104c0400848f520002003a0014c0b3000100370040
:104c14000042eb00245798002e529000e14f5200be
:104c24003d003a007e029000e00f5200170032006f
:104c34007e029000540798000e0037004e02900048
:104c440014427800be029000844a78003e0290002c
:104c54000402e800340798004e0290000402e800c1
:104c6400440798001e0fe9005e0290000402e80069
:104c7400540798001e027800e00f5200030032002f
:104c84005e029000e10f5200ecff36003e029000fd
:104c9400140798004e029000240798000b00370078
:104ca4002e029000940278001e029000050a7800fb
:104cb4001e0290000482e800140798002e0290005f
:104cc4000482e800240798001e8fe9001e02780081
:104cd400e10f5200f2ff3e001e02900034079800dc
:104ce4002e029000440798000b0037004e029000fb
:104cf40014427800be029000844a78003e0290007c
:104d04000402e800340798004e0290000402e80010
:104d1400440798001e0fe9001e027800e00f5200bd
:104d2400f2ff3a000080fa00000006001a00fa00c0
:104d3400200f9800310f9800420f98003e0a90000f
:104d4400440798002e0a900034079800ce02900081
:104d54003e029000848f5200050036004e099000f8
:104d6400be0890002e08900088ff07006c003700f2
:104d74004e0a9000040f7800ae0a90004e0a90008c
:104d84000402e9000482420034079800be0a90003d
:104d94004e0a90000402e90004824200440798008d
:104da400be0290004e0290000482520064079800f4
:104db4006e029000e10f5200560036003e02900051
:104dc400044278000482fb006102620074079800c8
:104dd4004e029000044278000482fb0061026200eb
:104de400040f9800fe0290000e0a9000848f520077
:104df40002003a0014c0b300010037000042eb0087
:104e0400245798002e529000e14f520041003a007e
:104e14007e029000e10f5200170032007e029000e3
:104e2400244f98000e0037004e0290001442780080
:104e3400be029000844a78003e0290000402e90019
:104e4400340798004e0290000402e90044079800d9
:104e54001e0fe9002e4a90000442e900244f9800f6
:104e64001e027800e00f5200030032002e4a900028
:104e7400e04f5200ecff3d003e0290000402e900c6
:104e8400140798004e0290000402e90024079800d9
:104e94000b0037002e029000940278001e0290004e
:104ea400050a78001e0290000482e90014079800a5
:104eb4002e0290000482e900240798001e8fe90066
:104ec4001e027800e10f5200f2ff3e001e02900025
:104ed4000402e800340798002e0290000402e8005f
:104ee400440798000b0037004e02900014427800eb
:104ef400be029000844a78003e0290000402e90059
:104f0400340798004e0290000402e9004407980018
:104f14001e0fe9001e027800e00f5200f2ff3a0073
:104f24000080fa00000006001a00fa00200f980022
:104f3400310f9800420f98004e0a9000e00f520083
:104f440002003a0014c0b300840037002e0a900017
:104f5400e00f520002003a000042eb007f003700ed
:104f64003e0a9000e00f520002003a000042eb00bb
:104f74007a00370014c0b300444f98004e0a9000e2
:104f8400040f7800ae0a90004e0a9000048242009a
:104f940034079800be0a90004e0a90000482420032
:104fa400440798003e029000044278000482fb000b
:104fb40061026200740798004e0290000442780077
:104fc4000482fb0061026200040f9800fe0290005c
:104fd4000e0a9000848f520002003a0014c0b300fd
:104fe400010037000042eb00245798002e52900035
:104ff400e14f520052003a007e029000e00f52004e
:105004001e0032007e029000540798001200370000
:105014003e0290000402e900340798004e0290001a
:105024000402e900440798003e029000944278008c
:105034004e0290001442780084cf520002003200e5
:105044000042eb00444f98001e0fe9005e029000fe
:105054000402e900540798004e4a9000e14f5200c0
:1050640006003a001e027800e00f520003003200ee
:105074005e029000e00f5200e5ff3a004e4a9000b5
:10508400e14f52002e003a003e02900014079800af
:105094004e029000240798000f0037001e02900073
:1050a4000482e900140798002e0290000482e900ab
:1050b400240798001e029000940278002e029000ab
:1050c40014027800848f5200020032000042eb0088
:1050d400444f98001e8fe9004e4a9000e14f520061
:1050e40003003a001e027800e10f5200ebff3e007d
:1050f4001e029000340798002e0290004407980086
:105104000f0037003e0290000402e90034079800c3
:105114004e0290000402e900440798003e02900009
:10512400944278004e0290001442780084cf5200da
:10513400020032000042eb00444f98001e0fe900c9
:105144004e4a9000e14f520003003a001e027800dc
:10515400e00f5200ebff3a004e4a90000440780002
:105164000080fa00000006000a00fa001007980008
:105174002107980032079800430798004e039000d7
:10518400be02900014002000ae0190001e019000a9
:10519400410722000000eb009103070000027800a1
:1051a400040f78004e02900094027800947d22004f
:1051b400848f520003003a004e029000357e220094
:1051c400050a78001e027800040078000080fa00c6
:1051d400000006000600fa00100798002107980056
:1051e400ae0190000001eb009e00900040072200f9
:1051f4004100070000027800040f78002e0290009e
:105204009402780004712200848f5200020032005c
:105214000002eb00010037001e0278000400780051
:105224000080fa00000006000e00fa001007980043
:105234002107980032079800430798005407980004
:10524400650798000002eb00040f78001402800048
:10525400040f7800140280000450a0000460a00031
:105264000470a000140288004e029000de01900039
:105274003e019000ae0090001e009000fb0207006b
:105284001e027800140288006e029000057122004c
:10529400050a78000080fa00000006000600fa0003
:1052a40010079800210798000002eb00040f780013
:1052b40014028000040f7800140280000450a0003f
:1052c4000460a0000470a000140288001e02900074
:1052d400940278001e029000250298001e027800b5
:1052e400140288002e02900005712200050a78003d
:1052f4000080fa00000006001200fa00500798002f
:105304006107980072079800030f98000002eb00f1
:10531400040f78005e029000e00f520002003a0091
:10532400440722005407980014028000040f7800f8
:10533400140280000450a0000460a0000470a000c7
:10534400140288005e029000a40290006e02900095
:105354000402ea00848262005e029000240390004a
:105364006e0290000402e90004026300e00f5200a0
:10537400020032006e029000010037000002eb00d0
:1053840004824200140798009e02780015028800e7
:105394005e029000940290005e0290001402780075
:1053a400048252000402e800240798005e02900080
:1053b400140278009e029000048252003407980080
:1053c400ae0290003e02900004825200440798000e
:1053d4007e029000e00f52000d0032007e02900029
:1053e400ae029000150298007e029000be0290006a
:1053f400050a78005e029000940278007e02900014
:10540400250298007e0290009e02900035029800ca
:105414000e0a900005712200050a78004e029000e1
:10542400040078000080fa00000006000a00fa0078
:105434001007980021079800320798004307980046
:105444002e029000e00f520002003a0044072200ae
:10545400240798004e0390008002eb001400200003
:10546400230020003e019000ae0090001e0090003a
:10547400db02070000027800040f78001e027800a7
:10548400040078000080fa00000006000e00fa0014
:1054940010079800210798003207980043079800e6
:1054a40054079800650798002e029000e00f520000
:1054b40002003a0044072200240798006e0390007b
:1054c400de02900014002000ce0190003e01900006
:1054d400ae0090001e009000c10207000002780098
:1054e400040f78001e027800040078000080fa009f
:1054f400000006000e00fa0010079800210798002b
:1055040032079800430798005407980065079800ed
:105514002e029000e00f520002003a0044072200dd
:10552400240798002e029000440290006e0390001d
:10553400de029000ce0190003e019000ae0090008b
:105544001e009000a602070000027800040f7800f5
:105554001e027800040078000080fa0000000600b3
:105564002000fa00000f9800110f9800220f9800f5
:10557400330f9800440f9800550f9800660f980059
:10558400770f98000002eb0034079800fe089000a3
:105594000e089000ac0007007e0a90009402780088
:1055a40004712200848f5200a0003a001e0a900069
:1055b400e00f520003003a0044072200040f780071
:1055c400360037001402800034079800140280006b
:1055d4000450a0000460a0000470a000140288001d
:1055e4001e0a90007e099000ae0890000400780026
:1055f4003a02070000027800040f78007e0a900047
:105604001402780005712200850f52000400320054
:1056140005782200850f52001d0032001900370062
:10562400fe0a90006e0a9000130020002200200061
:10563400a100200040072200920207000002780027
:10564400040f78007e0a900094027800047122000e
:10565400848f520003003200be02900015028800bd
:10566400770037009e0a90002e0a90001300200055
:10567400050178009e0078000000eb00fb010700a4
:10568400040037003e029000140288006c003700ca
:1056940000000000be029000150288005e0a90001f
:1056a4008402ea004e0a9000848262005e0a90003e
:1056b4000403e9004e0a900004026300e00f520064
:1056c400020032005e0a9000010037000002eb0085
:1056d4000482420044079800ce0290003e0a9000e3
:1056e40084aab90054079800774529007e0b9000de
:1056f400ee0a900014002000de0990005e01900084
:105704009e00780007007800350207000002780048
:10571400640798007e0a90009402780004712200c5
:10572400848f520043003a003e0a90000402420073
:1057340004007800b74629007e0b9000ee0a900022
:1057440014002000230020000001780041072200fb
:105754000700780022020700000278008402780023
:105764000e0a9000450298007e0a90009402780088
:1057740004712200848f520030003a006e029000bf
:10578400240798000002eb00140798000e0037006d
:105794000e0a9000c40290001e029000040242000f
:1057a40004824200ae029000050a7800ae02900026
:1057b4004e02900004824200240798001e029000ca
:1057c4000402e800140798009e0290003e0a90002c
:1057d400848f5200eeff3900ee0290005e029000ca
:1057e400048242000402e900740798000e0a900043
:1057f400ee029000050a7800fe0290000e0a900066
:10580400150298000e0a9000be0a90002502980026
:105814000e0a9000ce029000350298000e0a900005
:10582400be0a9000550298000500370000000000f1
:1058340003003700000000000100370000000000f2
:105844000080fa00000006000400fa00000f78004f
:10585400110798001e0278008002eb00050a780008
:105864001e0278008002eb00150298001e027800e8
:105874008002eb00350298001e0278008002eb00e3
:10588400250298001e0278008002eb004502980071
:105894001e0278008002eb00550298001e02900060
:1058a40005712200050a78000080fa000000060055
:1058b4000a00fa0020079800310798004207980070
:1058c4000002eb00140798000002eb00040f7800bc
:1058d4001402800014079800140280000450a000f1
:1058e4000460a0000470a000140288002e0290003e
:1058f40054029000e00f5200150032002e02900076
:10590400540290008402e9002e029000550298008f
:105914002e029000c40290002e02900054029000c7
:10592400040242000482420014027800040f78004a
:105934002e029000c40290002e02900054029000a7
:1059440004024200048242008002eb00050a78004f
:105954001e029000140288001e027800e00f52001c
:1059640004003a004e029000e57d2200050a78000a
:10597400030037004e02900005712200050a7800ea
:105984001e027800040078000080fa00000006007f
:105994000800fa00100798002107980032079800c1
:1059a4000002eb00040f780014028000040f78005a
:1059b400140280000450a0000460a0000470a00041
:1059c400140288001e029000d40290001e0290006f
:1059d40024029000848f5200060039009e02780051
:1059e400150288003e029000d57d2200050a780049
:1059f400120037001e029000c40290001e029000a4
:105a0400540290000402420004824200ae0290005c
:105a1400050a78001e029000540290008402e800f7
:105a24001e029000550298001e027800140288009d
:105a34003e02900005712200050a78000080fa00f9
:105a4400000006000800fa002007980031079800bb
:105a54000002eb00040f780014028000040f7800a9
:105a6400140280000450a0000460a0000470a00090
:105a7400140288002e029000d402900015079800aa
:105a84001e027800140288003e0290000571220074
:105a9400050a78001e029000040078000080fa00d5
:105aa400000006001000fa00000f780011079800ab
:105ab4002207980033079800440798005507980078
:105ac40066079800770798002e029000e00f5200b6
:105ad40002003a0044072200240798007e02900046
:105ae400841f7800ee0390005e03900015002000f0
:105af4004e029000be0190002e0190009e00900086
:105b04001e007800b50107008f87e9000080fa00c5
:105b1400000006001000fa00000f7800110798003a
:105b24002207980033079800440798005507980007
:105b340066079800770798002e029000e00f520045
:105b440002003a0044072200240798002e02900025
:105b540044029000fe029000851f7800ee0390003e
:105b64005e039000840278004e029000be01900013
:105b74002e0190009e0090001e00780097010700ff
:105b84008f87e9000080fa00000006000a00fa008e
:105b940030079800410798000002eb00040f7800da
:105ba4003e02900054029000e00f52001b003200ad
:105bb40014028000040f7800140280000450a00036
:105bc4000460a0000470a000140288003e0290004b
:105bd400e40290003e02900054029000848f520030
:105be400070039009e027800150288004e029000da
:105bf400e57d2200050a78000002eb003d00370035
:105c04003e029000640290008402e8003e0290008c
:105c1400650298001e0278001402880015028000b4
:105c2400050f7800140280000450a0000460a00056
