:020000001228C4
:100008007E14803120007F08F2008B1A0B1D0D280A
:10001800332072082000FF007E1009001328F00129
:10002800F1017E1020006128203022008C001F3052
:1000380021008C00173023008C0024008C01033031
:1000480022008E003C3021008E000C3023008E00F0
:1000580024008E012100951722009D0108000B1134
:100068007408200095000130F0070030F13D0030A1
:100078007102023003197002031C08005B20F001B2
:10008800F101080021001508C039173895000C3017
:10009800200095000C30F3007308F4000B118B1648
:1000A80008005230210099009A01980108002000A8
:1000B8000E08033A22008E00080065208B170B17E4
:0A00C8006428552018204620080087
:020000040001F9
:04000E00E4FFFFDF2D
:00000001FF
