:020000040000fa
:080000000002040000000000f2
:020000040000fa
:10040000ef9120000eff20000e0188000000000088
:100410000c000700008120000100200011000700ef
:10042000000020000000e000020032000000020096
:1004300000000000dc060200000000000040da00be
:100440000000fe004440a900000020000000e00081
:100450000300320000002000a00188004440a800f2
:100460000000060091018800800078000000eb0089
:1004700015003700e280400032a0b4009101ba00bc
:10048000e280400032a0b4009102ba00e280400055
:1004900032a0b4000002eb00472bde00f507b200eb
:1004a000602ce10004003a000059eb008301e900f0
:1004b000fdff3e00040037006128e100010032002a
:1004c0000082eb00040007001101ba000200e00006
:1004d000e8ff3a00000006003159ba008301e90044
:1004e0000c0032002159ba008301e90008003200f3
:1004f0000400e00003003a00e280400032a0b400b3
:10050000f5ff370011d9ba008301e900faff3a007c
:100510008100e800e180400032a0b4000000060045
:100520000040da000000fe00020ab900001bb9001a
:100530000200b80081004200810043000000060074
:020000040000fa
:1000080090020000900200009002000090020000a0
:100018009002000090020000900200009002000090
:100028009002000090020000900200009002000080
:100038009002000090020000900200009002000070
:020000040000fa
:020000040000fa
:0200000401f009
:040020001f000000bd
:020000040000fa
:0200000401f009
:04001c00820000005e
:020000040000fa
:0200000401f009
:04001800f4000000f0
:020000040000fa
:0200000401f009
:040014005f00000089
:020000040000fa
:0200000401f009
:04001000ff000000ed
:020000040000fa
:0200000401f009
:04000c00c000000030
:020000040000fa
:0200000401f009
:0400080003000000f1
:020000040000fa
:0200000401f009
:040000000f000000ed
:020000040000fa
:10054000881f7800000478000060fe009011800091
:100550006e00600002003200b01180003222a9005b
:1005600032c2bf000008a30004003200b0118000b6
:10057000004c78004f0478000000060085c0bf00e2
:100580000008a300f0ff32006048800081020700ed
:10059000edff37000200fa00889fbe00668057001a
:1005a000e7ff070058c5b3002ff89700884f5000a9
:1005b000faff3a0011e1a90066805700e0ff07004a
:1005c0002ff89700884f5000f4ff3a0017003700cb
:1005d00066805700daff0700aff89700e5cf5000bc
:1005e0000900320050c5b30080cf50000f00320028
:1005f000e4cf500006003a00000000000904e000cb
:10060000e6ff3a000c00370066805700ccff070079
:100610002ff8970080c44400005c780070902000a0
:10062000800f5400ddff3200e9ff37008044eb000b
:1006300008802000e6ff37004f04be000080fa006b
:1006400000000600889fbe008a9fbe008c1f7800b5
:100650000204be004206dd008005eb005a80200047
:100660000d00370088007800090078004402070078
:10067000004d78004801de001245980021459800a1
:100680004808de0030459800e485450062044400d7
:10069000e0844c00640545008c8f5500f1ff390063
:1006a0004f0678004f05be004f04be000000060054
:1006b0000080fb00a011880033c2bf000008a30027
:1006c000fdff320000000600889fbe008a9fbe002a
:1006d0008a48800008102000090020000b0220003a
:1006e00020102000800f5400e08f5c0003003a00cf
:1006f0005248800043488000020037008081eb00b0
:1007000003017800880078000900780018020700cb
:1007100062044400e0844c008b05e900f0ff3a00dd
:100720009a00b30066005500c0488800c0b02a0097
:10073000b048880040002400f3010700500020006a
:100740001c29b400a0ff2f001a29b4004f05be00d9
:100750004f04be0000000600ea874700889fbe00e5
:100760008a9fbe008c9fbe008e1f78006044b80038
:1007700080bf9f000205be00d2b79f008fb89700d0
:10078000c708dd00f1b79f000000eb00e0b79f0055
:100790005e80200000c02f00f1ff2f000206400005
:1007a00083864800750037000060fe001e80fb0055
:1007b00001f02f0001046400000474001e4090004a
:1007c0004800dd00f80fb200000474002e409000d5
:1007d0000080fb0081846400808474003e409000af
:1007e0004800dd00f90fb20080847400efb097007c
:1007f000e4804000e1b79f0000012000810f20004d
:10080000800f5500818f5d0004003a0008007800d9
:1008100000f0a1006104b8001a003700e00f550095
:10082000e08f5d0008003a006140b8006048880031
:100830007148880008402000490020001000200076
:10084000304888000f003700e20f5500e08f5d0050
:100850000c003a008880fb00000020006248800005
:10086000734880000001410081814900624888008e
:10087000734888006044b8001000200030488800a9
:100880001400370000102000800f5500e08f5d003d
:1008900008003a000609e2000300320068488000c0
:1008a000794880000b003700684888007948880044
:1008b0000800370021102000810f5500e08f5d00f7
:1008c00004003a004848880059488800f8ff2f0083
:1008d000f90f2000f07f2000800f5600e08f5e00af
:1008e0000500360088017800090178008a00780048
:1008f0000b0078009e010700400020001c29b40076
:10090000c0ff2f001a29b4006fb09700f007b200a3
:1009100015003a005fb097009000b3008fb89700c1
:1009200001005000efb0970001004000650050004a
:10093000c048880060b02a0001005000b04888001c
:10094000f07f2000800f5600e08f5e00060036002a
:10095000400024006c010700500020001c29b40056
:10096000a0ff2f001a29b40062054500e0854d0064
:1009700062064600e0864e0064074700efb097002d
:100980007fb09700808f500087ff39004f077800b5
:100990004f06be004f05be004f04be00af00b100c1
:1009a00000000600889fbe008a9fbe008c9fbe008c
:1009b0000004be00ca488000bb48800004402000fc
:1009c0004500200000067800890678008401780040
:1009d00005017800800078000900780064010700b4
:1009e0006022b8008880e800840178000501780062
:1009f000090078005e010700ca488800bb488800eb
:100a0000480020008c0044008081eb000301780046
:100a10000d007800560107000884e800000420005b
:100a2000800f5400f7ff3a00500020001c29b4004a
:100a3000a0ff2f001a29b400400024003201070053
:100a40004f06be004f05be004f04be00000006006a
:100a5000e4874700889fbe008a9fbe008c9fbe002f
:100a60008e1f7800000778000204be0082bf9f003e
:100a70008005eb00bdaf2a00ecaf2a00260037004e
:100a80008b05e8000c06e9008d06e9001c29ec0046
:100a90001a29ed0000c02f00f1ff2f0008004000d0
:100aa00089804800f27f2000820f5000e08f5800bc
:100ab000170036000fb897009000b3000e004000fa
:100ac0000b05400067004500c0488800bc4888000e
:100ad0008205240088007800090078002f010700b3
:100ae00090ff2f001c29b400d0ff2f001a29b4005a
:100af000f0032000800f5400e08f5c0004003e00f3
:100b0000ca488800bd4888006000b800a5ff0700fb
:100b10000804b0000980b0008e8f5500d8ff39005e
:100b20004f0778004f06be004f05be004f04be00c1
:100b30004f00b10000000600889fbe000880200022
:100b40001844780019802000994478000904e000d6
:100b500003003a0031e2a900604880000d0107005f
:100b600002c8bf0010e9b70003c8bf0011e9b70011
:100b700004c8bf0012e9b7001369ef00e048800025
:100b80001009b700e04888001a29d400e24f540049
:100b90001a00320005003e000804e00008003200a0
:100ba000e14f54002c003a000b003700e34f540093
:100bb00019003200e84f540027003a0020003700a7
:100bc00020c0b30002e8b70010c0b30003e8b700cc
:100bd000400020001f0037000984fb00824880008d
:100be000934880000800780096fe07004244dd002c
:100bf00065044400a8488800170037000980fb00fe
:100c00001c29b5001aa9ec00824880009348800096
:100c1000d1fe07000e0037000982fb0004007800b7
:100c20001c29b400d0ff2f001a29b400824880008c
:100c3000934880000400780085ff07000400370017
:100c40001c29ed00800020001a29b4009efe070038
:100c500010002000a04888004f04be0000000600dd
:100c600030a2a8000e0037000060fe0085c0bf0063
:100c70000008a3000200320060488000c5000700a1
:100c800032c2bf000018a300010032003222a900c6
:100c900032c2bf000008a30001003200b011800082
:100ca00030c2bf000058a300efff3a00000006006a
:100cb000000278003342a80050052000a0118800ef
:100cc00033c2bf000008a300fdff32005005200022
:100cd000a011880033c2bf000008a300fdff32004e
:100ce0008041eb000001eb00160037000060fe00c1
:100cf00000802000e240780081c1410050c5b3006f
:100d000080cf500004003200e4cf500002003200d7
:100d1000e5cf500005003a0050002000a0118800e7
:100d200033c2bf000008a300fdff32000180fb00ba
:100d3000a011880033c2bf000008a300fdff3200ed
:100d40000201e800840f5100e8ff39008340ea0007
:100d500050c5b30080cf500004003200e4cf5000f3
:100d600002003200e5cf500005003a00500020009c
:100d7000a011880033c2bf000008a300fdff3200ad
:100d80000180fb00a011880033c2bf000008a3004f
:100d9000fdff320040002000a011880033c2bf00d8
:100da0000008a300fdff320033c2bf000008a3000b
:100db000fdff320000000600889fbe0020102000ca
:100dc000804888001229ef00814880009048800008
:100dd0006b0007000004be0000102000804888005f
:100de0001229ef00814880009048800064000700cd
:100df0006048880071488800f2ff2f00f30f200040
:100e0000820f5000838f580003003a0000402000fa
:100e1000604888000e29ef000629ef000804e00072
:100e200009003a00003a800031ed2f000100600017
:100e300003003200604880005600070002003700bf
:100e4000f80f20000900200011e1a9001061a8009e
:100e50008500a9009500a900e14f44000b00320075
:100e60000880fb000100200002902000d303200036
:100e7000adfd07000004be00790888006008880006
:100e80000621ef000a21ef0011e1a800c802a90025
:100e9000c822a800e224a90090012000c011880007
:100ea00031e2a8003342a800c9a2a900cdc2bf0008
:100eb0004500de00610060000004a2004500dd0086
:100ec000d12c2000914078000154a10080c0700016
:100ed00001007800cde2b7001ca9ef0050552500b5
:100ee000d0488800abfd0700a00020001c29b400fa
:100ef000a00220001a29b4000fff0700a0488000bc
:100f00006bff0700e9ff3700003b8800b0ff2f00b0
:100f10001c29b400600020001a29b400e1488000b8
:100f2000c0488000808f50000d003a00d1488000fa
:100f3000b0488000808f500009003a005005200022
:100f4000303b8800a00a2000303b880061e7a80001
:100f500000000000000000006147e200feff3500d5
:100f60001829ef00a0aa2a00b04888000000060057
:100f700032e0b7008308bb008288bb000000060097
:100f800032e0b7001101ba009181ba000200be0040
:100f900000000600004001000000060023032000be
:100fa000934178008381fb0032e0b700023b880068
:100fb0008108bb00700020001c29b4003000200014
:100fc0001a29b400e1488000c0488000808f50009a
:100fd0000d003a00d1488000b0488000808f50005a
:100fe00009003a0050052000303b8800a00a20008c
:100ff000303b880061e7a80000000000000000000e
:101000006147e200feff35001829ef00a0aa2a0080
:10101000b04888000300780032e0b7000000060006
:020000040000fa
:10102000160900000800000002000000aaaa000043
:1010300000555500ffff00000008000016010000e9
:081040000000000000000000a8
:00000001FF
