:020000040000fa
:080000000002040000000000f2
:020000040000fa
:04000800cc04000024
:020000040000fa
:04000c00cc04000020
:020000040000fa
:04001000cc0400001c
:020000040000fa
:04001400cc04000018
:020000040000fa
:04001800cc04000014
:020000040000fa
:04001c00cc04000010
:020000040000fa
:04002000cc0400000c
:020000040000fa
:04002400cc04000008
:020000040000fa
:04002800440300008d
:020000040000fa
:04002c00cc04000000
:020000040000fa
:04003000cc040000fc
:020000040000fa
:040034004c03000079
:020000040000fa
:04003800cc040000f4
:020000040000fa
:04003c00cc040000f0
:020000040000fa
:04004000cc040000ec
:020000040000fa
:04004400cc040000e8
:020000040000fa
:04004800cc040000e4
:020000040000fa
:04004c00cc040000e0
:020000040000fa
:04005000cc040000dc
:020000040000fa
:04005400b2030000f3
:020000040000fa
:04005800cc040000d4
:020000040000fa
:04005c00cc040000d0
:020000040000fa
:04006000cc040000cc
:020000040000fa
:04006400cc040000c8
:020000040000fa
:04006800cc040000c4
:020000040000fa
:04006c00f804000094
:020000040000fa
:04007000cc040000bc
:020000040000fa
:04007400cc040000b8
:020000040000fa
:04007800cc040000b4
:020000040000fa
:04007c00cc040000b0
:020000040000fa
:04008000cc040000ac
:020000040000fa
:04008400cc040000a8
:020000040000fa
:04008800cc040000a4
:020000040000fa
:04008c00cc040000a0
:020000040000fa
:04009000cc0400009c
:020000040000fa
:04009400cc04000098
:020000040000fa
:04009800cc04000094
:020000040000fa
:04009c00cc04000090
:020000040000fa
:0400a000fa0300005f
:020000040000fa
:0400a400cc04000088
:020000040000fa
:0400a800cc04000084
:020000040000fa
:0400ac00cc04000080
:020000040000fa
:0400b000cc0400007c
:020000040000fa
:0400b400cc04000078
:020000040000fa
:0400b800cc04000074
:020000040000fa
:0400bc00cc04000070
:020000040000fa
:0400c000cc0400006c
:020000040000fa
:0400c400cc04000068
:020000040000fa
:0400c800cc04000064
:020000040000fa
:0400cc00cc04000060
:020000040000fa
:0400d000cc0400005c
:020000040000fa
:0400d400cc04000058
:020000040000fa
:0400d800cc04000054
:020000040000fa
:0400dc00cc04000050
:020000040000fa
:0400e000cc0400004c
:020000040000fa
:0400e400cc04000048
:020000040000fa
:0400e800cc04000044
:020000040000fa
:0400ec00cc04000040
:020000040000fa
:0400f000cc0400003c
:020000040000fa
:0400f400cc04000038
:020000040000fa
:0400f800cc04000034
:020000040000fa
:0400fc00cc04000030
:020000040000fa
:04010000cc0400002b
:020000040000fa
:04010400cc04000027
:020000040000fa
:04010800cc04000023
:020000040000fa
:04010c00cc0400001f
:020000040000fa
:04011000cc0400001b
:020000040000fa
:04011400cc04000017
:020000040000fa
:04011800cc04000013
:020000040000fa
:04011c00cc0400000f
:020000040000fa
:0401200010030000c8
:020000040000fa
:04012400cc04000007
:020000040000fa
:04012800cc04000003
:020000040000fa
:04012c008a04000041
:020000040000fa
:04013000a004000027
:020000040000fa
:04013400cc040000f7
:020000040000fa
:04013800cc040000f3
:020000040000fa
:04013c00cc040000ef
:020000040000fa
:04014000cc040000eb
:020000040000fa
:04014400cc040000e7
:020000040000fa
:04014800cc040000e3
:020000040000fa
:04014c00cc040000df
:020000040000fa
:04015000cc040000db
:020000040000fa
:04015400cc040000d7
:020000040000fa
:04015800cc040000d3
:020000040000fa
:04015c00cc040000cf
:020000040000fa
:04016000cc040000cb
:020000040000fa
:04016400cc040000c7
:020000040000fa
:04016800cc040000c3
:020000040000fa
:04016c00b6040000d5
:020000040000fa
:040170004204000045
:020000040000fa
:04017400cc040000b7
:020000040000fa
:04017800cc040000b3
:020000040000fa
:04017c00cc040000af
:020000040000fa
:04018000cc040000ab
:020000040000fa
:04018400cc040000a7
:020000040000fa
:04018800cc040000a3
:020000040000fa
:04018c00cc0400009f
:020000040000fa
:04019000cc0400009b
:020000040000fa
:04019400cc04000097
:020000040000fa
:04019800cc04000093
:020000040000fa
:04019c00cc0400008f
:020000040000fa
:0401a000cc0400008b
:020000040000fa
:0401a400cc04000087
:020000040000fa
:0401a800cc04000083
:020000040000fa
:0401ac00cc0400007f
:020000040000fa
:0401b000cc0400007b
:020000040000fa
:0401b400cc04000077
:020000040000fa
:0401b800cc04000073
:020000040000fa
:0401bc00cc0400006f
:020000040000fa
:0401c000cc0400006b
:020000040000fa
:0401c400cc04000067
:020000040000fa
:0401c800cc04000063
:020000040000fa
:0401cc00cc0400005f
:020000040000fa
:0401d000cc0400005b
:020000040000fa
:0401d400cc04000057
:020000040000fa
:0401d800cc04000053
:020000040000fa
:0401dc00cc0400004f
:020000040000fa
:0401e000cc0400004b
:020000040000fa
:0401e400cc04000047
:020000040000fa
:0401e800cc04000043
:020000040000fa
:0401ec00cc0400003f
:020000040000fa
:0401f000cc0400003b
:020000040000fa
:0401f400cc04000037
:020000040000fa
:0401f800cc04000033
:020000040000fa
:0401fc00cc0400002f
:020000040000fa
:04020800cc04000022
:020000040000fa
:04020c00cc0400001e
:020000040000fa
:04021000cc0400001a
:020000040000fa
:04021400cc04000016
:020000040000fa
:04021800cc04000012
:020000040000fa
:04021c00cc0400000e
:020000040000fa
:04022000cc0400000a
:020000040000fa
:04022400cc04000006
:020000040000fa
:04022800cc04000002
:020000040000fa
:04022c00cc040000fe
:020000040000fa
:04023000cc040000fa
:020000040000fa
:04023400cc040000f6
:020000040000fa
:04023800cc040000f2
:020000040000fa
:04023c00cc040000ee
:020000040000fa
:04024000cc040000ea
:020000040000fa
:04024400cc040000e6
:020000040000fa
:04024800cc040000e2
:020000040000fa
:04024c00cc040000de
:020000040000fa
:04025000cc040000da
:020000040000fa
:04025400cc040000d6
:020000040000fa
:04025800cc040000d2
:020000040000fa
:04025c00cc040000ce
:020000040000fa
:04026000cc040000ca
:020000040000fa
:04026400cc040000c6
:020000040000fa
:04026800cc040000c2
:020000040000fa
:04026c00cc040000be
:020000040000fa
:04027000cc040000ba
:020000040000fa
:04027400cc040000b6
:020000040000fa
:04027800cc040000b2
:020000040000fa
:04027c00cc040000ae
:020000040000fa
:04028000cc040000aa
:020000040000fa
:04028400cc040000a6
:020000040000fa
:04028800cc040000a2
:020000040000fa
:04028c00cc0400009e
:020000040000fa
:04029000cc0400009a
:020000040000fa
:04029400cc04000096
:020000040000fa
:04029800cc04000092
:020000040000fa
:04029c00cc0400008e
:020000040000fa
:0402a000cc0400008a
:020000040000fa
:0402a400cc04000086
:020000040000fa
:0402a800cc04000082
:020000040000fa
:0402ac00cc0400007e
:020000040000fa
:0402b000cc0400007a
:020000040000fa
:0402b400cc04000076
:020000040000fa
:0402b800cc04000072
:020000040000fa
:0402bc00cc0400006e
:020000040000fa
:0402c000cc0400006a
:020000040000fa
:0402c400cc04000066
:020000040000fa
:0402c800cc04000062
:020000040000fa
:0402cc00cc0400005e
:020000040000fa
:0402d000cc0400005a
:020000040000fa
:0402d400cc04000056
:020000040000fa
:0402d800cc04000052
:020000040000fa
:0402dc00cc0400004e
:020000040000fa
:0402e000cc0400004a
:020000040000fa
:0402e400cc04000046
:020000040000fa
:0402e800cc04000042
:020000040000fa
:0402ec00cc0400003e
:020000040000fa
:0402f000cc0400003a
:020000040000fa
:0402f400cc04000036
:020000040000fa
:0402f800cc04000032
:020000040000fa
:0402fc00cc0400002e
:020000040000fa
:04030000cc04000029
:020000040000fa
:04030400cc04000025
:020000040000fa
:04030800cc04000021
:020000040000fa
:04030c00cc0400001d
:020000040000fa
:04031000cc04000019
:020000040000fa
:04031400cc04000015
:020000040000fa
:04031800cc04000011
:020000040000fa
:04031c00cc0400000d
:020000040000fa
:04032000cc04000009
:020000040000fa
:04032400cc04000005
:020000040000fa
:04032800cc04000001
:020000040000fa
:04032c00cc040000fd
:020000040000fa
:04033000cc040000f9
:020000040000fa
:04033400cc040000f5
:020000040000fa
:04033800cc040000f1
:020000040000fa
:04033c00cc040000ed
:020000040000fa
:04034000cc040000e9
:020000040000fa
:04034400cc040000e5
:020000040000fa
:04034800cc040000e1
:020000040000fa
:04034c00cc040000dd
:020000040000fa
:04035000cc040000d9
:020000040000fa
:04035400cc040000d5
:020000040000fa
:04035800cc040000d1
:020000040000fa
:04035c00cc040000cd
:020000040000fa
:04036000cc040000c9
:020000040000fa
:04036400cc040000c5
:020000040000fa
:04036800cc040000c1
:020000040000fa
:04036c00cc040000bd
:020000040000fa
:04037000cc040000b9
:020000040000fa
:04037400cc040000b5
:020000040000fa
:04037800cc040000b1
:020000040000fa
:04037c00cc040000ad
:020000040000fa
:04038000cc040000a9
:020000040000fa
:04038400cc040000a5
:020000040000fa
:04038800cc040000a1
:020000040000fa
:04038c00cc0400009d
:020000040000fa
:04039000cc04000099
:020000040000fa
:04039400cc04000095
:020000040000fa
:04039800cc04000091
:020000040000fa
:04039c00cc0400008d
:020000040000fa
:0403a000cc04000089
:020000040000fa
:0403a400cc04000085
:020000040000fa
:0403a800cc04000081
:020000040000fa
:0403ac00cc0400007d
:020000040000fa
:0403b000cc04000079
:020000040000fa
:0403b400cc04000075
:020000040000fa
:0403b800cc04000071
:020000040000fa
:0403bc00cc0400006d
:020000040000fa
:0403c000cc04000069
:020000040000fa
:0403c400cc04000065
:020000040000fa
:0403c800cc04000061
:020000040000fa
:0403cc00cc0400005d
:020000040000fa
:0403d000cc04000059
:020000040000fa
:0403d400cc04000055
:020000040000fa
:0403d800cc04000051
:020000040000fa
:0403dc00cc0400004d
:020000040000fa
:0403e000cc04000049
:020000040000fa
:0403e400cc04000045
:020000040000fa
:0403e800cc04000041
:020000040000fa
:0403ec00cc0400003d
:020000040000fa
:0403f000cc04000039
:020000040000fa
:0403f400cc04000035
:020000040000fa
:0403f800cc04000031
:020000040000fa
:0403fc00cc0400002d
:020000040000fa
:100400006f9420000e7f22000e0188000000000083
:10041000000020000000e000020032000001200087
:100420002002880014000700740207000000e000aa
:1004300003003a00c0c32200010020000200370080
:100440000000200001002000810f70000100320038
:1004500014000700000020000000e000020032004d
:1004600000000200000000001e2b0200000000003f
:100470000040da000000fe004440a90020242000d3
:100480000000e000030032000020200090018800fe
:100490004440a800000006008a1f78008b1f7800e7
:1004a00000000600a1028800800478000000eb0034
:1004b0001f003700e284440054a0b4009905ba003c
:1004c000e284440054a0b4009906ba00e2844400d7
:1004d00054a0b4000006eb00476fde00fd07b20039
:1004e000ae018800636ce10003003a00eaff0700f8
:1004f0000000eb000e003700606ce10008003a00dd
:10050000004deb000a05e800020039003420ec0041
:100510000af0a0008b05e900f9ff3e000400370057
:100520006168e100010032000086eb000b0007006b
:1005300019c7ba001905ba000e04e00003003a001a
:100540000a00e000dbff3a0000000600fe07b200f0
:10055000ae0288008a047800f5ff37000cd0a300b3
:10056000e20f4d001c00390089027800354dba00b9
:100570000a05e800020039003420ec000af0a0006f
:100580008b05e9000f003200254dba000a05e8008e
:10059000020039003420ec000af0a0008b05e900cd
:1005a000080032000c00e0000600320015cdba0051
:1005b0000a05e800020039003420ec000af0a0002f
:1005c0008b05e9008984e80054a0b4000b00e0002a
:1005d000e2ff3a00000006009902ba00055d7800cb
:1005e0008b05e900f7ff3200c82ade00055d7800c0
:1005f0008b05e900f3ff32000c00e000f1ff320050
:1006000019ddba00eeff3700000000000000000016
:1006100000000000000000000000000000000000da
:100620003600f800809fbe00829fbe00849fbe00ff
:10063000869fbe000200fa000040eb00004f7800e9
:10064000e5100700004f78001e80fb008000eb00e3
:10065000e0408800f14088001e80fb008000eb0035
:10066000531107000bc8a8008bc0a9000080fa0036
:100670004f03be004f02be004f01be004f00be0040
:100680003600f900004006000000fa008400a900ce
:100690000080fa000040060000a0fe003600f800ce
:1006a000849fbe00869fbe003200f8003400f80030
:1006b00014002000a4018800042020009401880078
:1006c0001600fa0028c8bf008080fb00e1806000af
:1006d000814078000040e80028e8b7000104e0000d
:1006e000070032000041eb00e0142600c10b20009f
:1006f000a308070010c0b300d60807000f0037009a
:100700000040eb00d30807002409070000000000a8
:1007100064004700df0907000004a2000004e000b5
:10072000fbff3a004e009000cf80de00008fbe003d
:1007300012c0b3001e00be0091080700b3140700ea
:100740008460a9000080fa003400f9003200f9004a
:100750004f03be004f02be003600f9000080fe00cd
:10076000004006003600f800809fbe00829fbe0059
:10077000849fbe00869fbe003200f8003400f8005f
:1007800010002000a00188000020200090018800b7
:100790000200fa000040eb00004f78000040eb0040
:1007a000004f7800060037001011800061006000e3
:1007b0000000e000010032002b0d07001e4fe80092
:1007c0001e407800e34f5000f7ff36008560a90017
:1007d0000080fa003400f9003200f9004f03be0037
:1007e0004f02be004f01be004f00be003600f900b0
:1007f000004006003600f800809fbe00829fbe00c9
:10080000849fbe00869fbe003200f8003400f800ce
:1008100010002000a0018800002020009001880026
:100820000200fa000040eb00004f78000040eb00af
:10083000004f7800060037009011800061006000d2
:100840000000e00001003200200d07001e4fe8000c
:100850001e407800e34f5000f7ff360087c0a90024
:100860000080fa003400f9003200f9004f03be00a6
:100870004f02be004f01be004f00be003600f9001f
:10088000004006003600f800809fbe00829fbe0038
:10089000849fbe00869fbe003200f8003400f8003e
:1008a00010002000a0018800002020009001880096
:1008b0000200fa000040eb00004f78000040eb001f
:1008c000004f780006003700901280006100600041
:1008d0000000e00001003200170d07001e4fe80085
:1008e0001e407800e34f5000f7ff36008e40a9000d
:1008f0000080fa003400f9003200f9004f03be0016
:100900004f02be004f01be004f00be003600f9008e
:1009100000400600801f78000000fa0010118000df
:10092000620060000000e000010032002222a90005
:100930008c20a9000080fa004f00780000400600db
:10094000801f78000000fa009011800062006000b3
:100950000000e000010032003222a9008c40a90012
:100960000080fa004f00780000400600801f7800e9
:100970000000fa0090128000620060000000e000b9
:10098000010032005222a9008e20a9000080fa0046
:100990004f00780000400600801f78000000fa0039
:1009a00000048000640060000000e00001003200ec
:1009b0008040a90000048000680060000000e000a2
:1009c000010032008060a900000480007000600017
:1009d0000000e000010032008080a9000002040055
:1009e000000000000080fa004f0078000040060080
:1009f000809fbe00829fbe000000fa008620a900f2
:100a00004110800000082000008060000000e0002d
:100a10000200320008e2a900f400370038c8bf0025
:100a20000080fb00cf80de00d20020000300200009
:100a3000820f5000838f5800ec003e0000600100e0
:100a40000d00370023003700290037007d003700f4
:100a500052003700e5003700c50037009800370026
:100a6000a5003700bd003700a7003700df003700c2
:100a7000de003700c200370029c8bf000004e000d4
:100a8000d9003a000602a8006093200010407800c8
:100a90000080fb0050418800c04980006041880010
:100aa000a09320001040780029e8b700e0498000ba
:100ab00070418800e09320001041780001832000fd
:100ac000824878003168ef0020c0b30038e8b700f2
:100ad000c60037000622a800a0932000104078002e
:100ae00029e8b70020c0b30038e8b700bf003700de
:100af00030c8bf00614060000004e0000f003a0011
:100b000030c8bf00644060000004e000060032000e
:100b1000504180000000a0001010880070c0b30099
:100b200038e8b700b100370050418000101088004d
:100b300030c0b30038e8b700ac00370031c8bf00a0
:100b40000004a2000004e0000500320050418000d3
:100b50001010880040c0b30038e8b700a300370089
:100b600030c8bf00644060000004e00006003200ae
:100b7000504180000000a0001010880070c0b30039
:100b800038e8b70099003700504180001010880005
:100b900030c0b30038e8b70094003700411080003f
:100ba00000002800008060000000e0000500320026
:100bb00009e2a9000642a8008620a9003868ef00d3
:100bc0008a00370030c8bf00624060000004e000c7
:100bd000090032003028a900604180004800de0092
:100be000004078000080fb001010880040c0b30077
:100bf00038e8b7007d003700604180000040780091
:100c00000080fb001010880030c8bf006440600006
:100c10000004e0000800320010c0b30031e8b70063
:100c2000504180000000a0005041880010c0b30077
:100c300038e8b7006d00370030c0b30038e8b700bf
:100c40006a0037004110800000002800008060002a
:100c50000000e0000500320009e2a9000642a800f9
:100c60008620a9003868ef001500370029c8bf00aa
:100c70008080fb008100e900cf08de008140780021
:100c80000040e90029e8b7000104e0000500320057
:100c90000642a8008620a90060c0b30038e8b7006b
:100ca0005200370070418000904078008180fb0046
:100cb000111088000000e800704188004b003700e8
:100cc0004110800000002800008060000000e0006b
:100cd000050032000642a8008620a9003868ef000f
:100ce00009e2a900410037000662a800a0c0b300d5
:100cf00038e8b7003d003700a0c0b30038e8b700bf
:100d00000662a800390037007041800001108000a1
:100d100081407800014878000000e80070418800b8
:100d200029c8bf000040e90029e8b70029c8bf0072
:100d30000004e0000400320006a2a90080c0b30055
:100d400038e8b7000300370006a2a80090c0b3003f
:100d500038e8b7000682a8002400370006a2a900e0
:100d60000642a800d0c0b30038e8b7001f00370023
:100d70000642a800d0c0b30038e8b7001b00370017
:100d80002a28ef002e28ef002c28ef002968ef001a
:100d90003048a900804180004200de0061406000d0
:100da0006140600001832000914078000104a100af
:100db00000c0700030e8b7008041800061406000f2
:100dc00061406000004040000183200091407800b5
:100dd0000114a10000c0700030e8b7003168ef00d6
:100de0000000000001003700000000000080fa0051
:100df0004f01be004f00be0000400600000005008d
:100e0000889fbe008a9fbe008c1f78009900070053
:100e1000a000330003866c006450e1002e00320015
:100e20006420e100330032006150e1002f00320005
:100e30006120e1003100320085855500eb07b000ec
:100e400009002000080420000500370008044400c1
:100e500089844c000a0031000603430087834b005d
:100e60000001530081815b00f8ff33000203be00e4
:100e70000800a0000804440089844c00f6ff3900f3
:100e8000c639dd0083017300010032001300200029
:100e90008904d1000884d3000998a300050032001a
:100ea0000800a7000300a0008904d1000884d30033
:100eb0008b05e8008904d1000884d3000001eb0011
:100ec0000281d2003000070001f0a1000cf0a70061
:100ed00001f0a000780037006420e1007a003200c1
:100ee0000801be000200be00f7ff37006120e100ec
:100ef000750032006000b800f3ff370000002000ea
:100f000001f82700f0ff37000001be004400070091
:100f10000470a70003f0a10003f8a30013003a0037
:100f20006509b10010003200090035006928e100b0
:100f3000020035000100280000000500000040000c
:100f4000818048008502e900fcff3a0000000600ad
:100f5000f88f4200050035008100d1000080d300e9
:100f60008502e800fcff3a00000006008000eb006c
:100f7000000005004f89de0082017800640237001e
:100f80006011b800720237008100200061805500b6
:100f90000b003d000b00200061fe2f000100e1006e
:100fa0001d00340082817100610164008904d10058
:100fb0000884d3000000e800faff3a007100200026
:100fc000610064000300700002006000090032004c
:100fd00061044400e0844c000988a500050032004b
:100fe0008b05e8006808e10002003a008904d1009e
:100ff0000884d300f20f20000258e10005003d00f4
:10100000c75ddd00f907b20089807500080078002f
:10101000000006000bf827008b0078000000050098
:10102000c70ade00f107b200f50fb2000800320077
:10103000e1cf4200020032000170a0002400050050
:10104000810f700001003200040805004400050013
:10105000810f700002003a00140005008502e900cb
:101060000000400081c04800fcff3b000170a00070
:10107000240005000004be00e9ff07000003be00d5
:101080000405be000200be00e5ff0700844f7500a6
:10109000000006000200be006450e10005003600ba
:1010a0006420e100020036000968a30001003a0054
:1010b0000800be000160a0004f0678004f05be008a
:1010c0004f04be0000000600f0ff2f00f1ff2700d4
:1010d000f9ff37000c00fa00889fbe008a9fbe000f
:1010e0008c9fbe00e3ff07000206be008405780067
:1010f0000200be0002002000b901070005003a000e
:101100008b02b30012002000b501070001003a0075
:10111000f8856d000c01be00c60007000800be0087
:101120009b0032000b08a3009e003a000df0a700c0
:101130000be0a00009f0a7000bf0a00009f0a1004f
:101140000801be00bb0007000bf0a60095003200ae
:1011500001003c000bd0a0008acf7500b200330024
:101160006000b8006250e10099003900a1003e0023
:101170000b28a300a2003a000bf8a30006003200df
:101180000b58a300a70032000801be00a900070009
:101190000800be00940032000800be00c300070033
:1011a0000004be00050578000bf0a7000b30a60078
:1011b0000bf0a1005b079800324f200053f323008f
:1011c000ae01070005003d000800be00120020002f
:1011d0000e0207000004be000a05e9004a07980055
:1011e0006150b90063ff0700008fbe000c01be0014
:1011f0007f020700a5010700300798000100e0000a
:1012000002003d0060001000e0801800f2ff27009f
:10121000820f5000e08f580064003e000c00be00ba
:101220009a01070020079800f2072000820f500063
:10123000e08f580005003c0012f82f00f3ff2f004c
:10124000820f5000838f580009003d000a00e00023
:101250000300320001003c000201ea0002057800b0
:101260006000b800200798003a079800190037007e
:101270003e0090006100b9003eff0700809fbe0065
:101280000c00be004109dd004811de007208b1000b
:10129000530107000005be001e01be0054020700f6
:1012a0004f01be008e000700809fbe000c00be00f4
:1012b0000a01be008a0007001e01be004c020700a2
:1012c0004f01be00870007008221270013f323008f
:1012d000470207000005be002e0090006100b90023
:1012e00024ff070001f0a2000c01be007d000700f2
:1012f0000006be000800be00e60107000c01be00ab
:101300003b0207000a01be0076000700809fbe0076
:101310004a0007002e0590000af0a7000a05ea001f
:10132000050037000800be000801be0030020700bb
:101330000004be000c00be000801be000a00a700a9
:101340002b0207000006be000a05d100f5ff3a0097
:101350005e01900002e0a600030037000001be001d
:1013600036000700a6fe07000004be004f00be00c6
:10137000b90007000801be001d0207003e019000f1
:10138000a2010700de0590000bf0a70001f0a2000b
:101390004f06be004f05be004f04be000080fa009d
:1013a0000000060025000700f9ff370027000700ae
:1013b0006000b8000bd0a7000bc0a0000be0a70096
:1013c0000bc0a2000bc0a70001f82700f0ff3700f8
:1013d0000df8a300020032001e00070019000700ec
:1013e0000bf8a300eaff32000b30a70001f0a200c7
:1013f000e7ff37000df8a300f9ff3a00f7ff3700c9
:101400000801be000b000700e6ff320001003c00af
:101410000df0a2006000b8000df0a7000900070061
:10142000dbff37000b000700f1ff2700f0ff2f0064
:10143000d7ff3700010007001001370001f8230033
:101440000000050001f82700000005002002200030
:101450000100370010022000f04188000000060063
:101460006022b800060220000000d0008180d20077
:101470000482d2008582d2000000a0000202520045
:1014800083825a00030031000202420083824a0034
:101490000000a1000603e900f3ff3a000000060087
:1014a000efff07000400be00000006000003be00be
:1014b000dbfe07006220e100020032000600be00f1
:1014c00005000500e507b100f107b20004f02300b4
:1014d0008480700007f0a70001f0a0002400050040
:1014e00003f0a200889fbe008a9fbe008c1f780078
:1014f000e0fe0700e7fe33006450e1004f003200d9
:101500006420e1005200320003826c0007003b00bf
:101510000905d0000306d000820f54000c065d00c0
:1015200002003900020032008901780003067800c9
:101530008582550004003d000003fd008103fd008d
:101540008502ea008b854200840f720002003b0096
:1015500060001000e08018006011b8000005eb008a
:101560007a28e1000a00390006007800c75ddd0036
:10157000f707b200878075002d0037008281710067
:101580000a017800610560008180d1000080d300ed
:101590008502e900f9ff3b0006044000878448000b
:1015a00002003b0060041400e0841c000988a300d2
:1015b000070032008a81710082817100610164003c
:1015c0008904d1000884d3008b05e8001700370098
:1015d0000978a30013003a000b00e0001300340068
:1015e0008b05e9000804440089844c000a44740017
:1015f0000978a3000d003a000b00e000070034005a
:101600008b05e9000804440089844c0001003a007d
:101610000b0020000978a300f7ff32000001eb0067
:1016200002003700828171000a01780056fe07002f
:101630000cf0a70001f0a0009ffe37006420e1003d
:1016400002003a00838f6c009ffe33000801be0049
:101650000200be0098fe3700889fbe008a9fbe0031
:101660008c9fbe000004be006dfe07000800be0097
:101670006420e10048003e0055003200722127003e
:10168000132b24007f00070047003c000800be0029
:10169000c2ec2800e32c2c0078000700470035003e
:1016a0000800be0001f0a100020020000338230062
:1016b00072000700430035000800be00b2a32a00f4
:1016c00083fb23004a0107000200200003f02300ef
:1016d00001f0a70003f0a00082ff07006b000700e5
:1016e0000005be0023fe070001f0a2000006be00b8
:1016f0000200280013f323003d0107000801be008b
:1017000078ff0700809fbe000c00be003208280052
:10171000e3952b00360107004f01be0071ff070063
:101720000006be000001be0031010700809fbe0020
:101730004241250083b823002d010700020020004c
:1017400003e8230067ff07000c01be002801070023
:101750000006be004f00be00f2f92b00c3d42300e8
:10176000230107000200200003f023005dff0700b3
:101770000c01be005aff07000001be000c00be00b5
:101780009ffd07000200200003f0230055ff070023
:10179000610145009d0007004f06be004f05be00d9
:1017a0004f04be000000060001f8270000002000e2
:1017b00022022000f2418800f7ff37006000b800e5
:1017c000fbff370001f8230000002000f2ff370084
:1017d00009f8a300f0ff32006000b800eeff370008
:1017e000889fbe008a9fbe000003be000cfe07005b
:1017f0008505780082815200020020006220e1000d
:1018000004003a00f307b100040035007718e10046
:10181000040035000600be00140037006000b80068
:101820000f003700f50f2000faff2f008502d100ce
:101830000a85d3008301e900fcff3b00818462003c
:1018400000046500890f7400f2ff32008582ea000f
:101850000a85ea008184620000046500cafd070071
:1018600007f0a70001f0a0000081eb000200e000fb
:101870004f05be004f04be0000000600140020000b
:101880000f013700f4ff2f000d0137000001be00eb
:10189000e3fd07000470a70003f0a1006509b10093
:1018a000160032000d0035006828e1000600350002
:1018b000f0ff2f00f1ff27000300e00013003b00c2
:1018c0000100280000000500000040008180480061
:1018d0008502e900fcff3a0008003700f88f42005b
:1018e00002003c008000eb00000005008100d100f8
:1018f0000080d3008502e800fcff3a000300e0000e
:1019000002003b0060001000e080180000000600ac
:10191000881f7800030478000300e00007003d0002
:1019200060001000e080180060011900e0811900db
:1019300002003b0001f02d00030037000400070007
:1019400008f0a70001f0a0004f0478000000060096
:10195000889fbe008a9fbe00008270000402710052
:1019600004827100260032000004be000200be00a6
:101970006011b8006b092000950220000182cf00a1
:101980000a0039000541b1000082cf00070039008c
:101990000541b1000982cf00040039000541b100c2
:1019a0000882cf00010039000541b1000542520014
:1019b000120032000a003b00828171006101640064
:1019c0008100d1000080d3008984d3000884d30033
:1019d0008b05e8000442e800f7ff3a0007003700f3
:1019e0000804440089844c000000480081804800bd
:1019f0008b05e9000442e900f9ff3a0062fd0700a7
:101a00004f05be004f04be00000006000003be00ec
:101a100083fd07006220e100020032000600be00e4
:101a20000000060085024100e30f20000328e100ca
:101a300005003c00a3fe2f000328e10007003d0045
:101a40000500200001003700f50f200020022000d3
:101a5000f04188006000b800080037001300200043
:101a60008381520005003d008100d1000080d30039
:101a70008301e800fcff3a0005002000c72add00d2
:101a8000f107b2008580700007f0a70001f0a00008
:101a900000000600889fbe008a9fbe008c9fbe008b
:101aa00082fe0700850478000005be006420e10086
:101ab00049003e006220e1000300320009003500c9
:101ac0000bf8a300440032000bf8a300080032001a
:101ad00010022000f0418800f0ff2f00f1ff2700e6
:101ae0003d00370001f82f00000020003a003700c9
:101af0003d0007007afe07000006be000a00be0097
:101b0000324f200053f323005eff0700060034002d
:101b10000c00be003400070071fe07000006be0086
:101b20000a00be00020037008904e9000c00be0074
:101b30002d0007002e0007002b00070069fe07009c
:101b40000001be000c00be00adfc07000005be0099
:101b50000001be00260007000006be00a2f323001d
:101b6000430d2c005ffe0700809fbe000c00be00ee
:101b7000d2e32700d3f02b001d0007004f01be0069
:101b80009ffc07000006be000a01be001800070007
:101b90000a01be0053fe07000006be006148b900fe
:101ba000f4fc07000005be0032082800e3952b0076
:101bb0000f0007000c01be004afe07000006be0031
:101bc0000a00be000200280013f3230008000700eb
:101bd0000c01be0043fe07004f06be004f05be00cd
:101be0004f04be000000060003f0230002000500c1
:101bf000889fbe008a9fbe008c1f78001dfd0700d5
:101c000024fd330003866c006450e10024003200a0
:101c10006420e100270032006150e1002200320020
:101c20006120e100210032008b854200eb07b1000a
:101c30000134b800003ab8000804420089844a0020
:101c4000013ab8000030b8008880400009014a001d
:101c50000400330000004000818048000201490078
:101c60008b05e900c909dd00830170000100320025
:101c700013002000c814de004814dd004709de0010
:101c80001200b200c808de0008847000befc070025
:101c900001f0a1000cf0a70001f0a00006fd370044
:101ca0006120e10008fd32000801be000200be0014
:101cb000f7ff37006150e100fcff3a0002fd3700fa
:101cc000889fbe008a9fbe00841f7800e9fc070041
:101cd0004f00780011003300f0ff2f00838f6c005d
:101ce00006003b00040565000a00a7000800370055
:101cf00009f0a6001000200008003700820f5400f1
:101d0000838f5c00030039001000200001003e00ba
:101d10000000200009f0a7000000ea004f05be0007
:101d20004f04be000000e0000000060080017800c3
:101d300002003700b15978000201e9000200e0001a
:101d4000fcff3a00000006000001780082017800e4
:101d50003204e000fdff3a0003017800b141780051
:101d6000035978000304e000fcff3a00000006007d
:101d700080007800010178003104e000fdff3a00a6
:081d8000000051000000060004
:020000040000fa
:101d880041540000264b0000330d00000a000000fb
:101d98004154000026440000310d00000a000000f4
:101da800415400000d0a000000410000542b0000bf
:101db80043520000454700003d3200000d0a000074
:101dc800004f00004b000000415400002b4300006e
:101dd800504900004e3f00000d0a0000002b000093
:101de80043500000494e00003a20000052450000d0
:101df8004144000059000000415400002b430000fa
:101e0800494d0000490d00000a000000415400003f
:101e18002b43000052450000473f00000d0a000018
:101e280000410000542b00004347000052450000c9
:101e3800473f00000d0a0000002c0000350000009c
:101e48002c31000000410000542b000043530000d7
:101e5800434100000d0a000000410000542b00001f
:101e68004b4300004e58000043460000473d000029
:101e7800312c00002247000050520000532200007d
:101e88002c220000434d00004e4500005422000063
:101e98000d0a000000410000542b00004b540000c4
:101ea8004350000043460000473d0000312c00002d
:101eb800302c0000227d00003b2f00002f31000055
:101ec800333900002e310000393600002e31000071
:101ed800323200002e31000035390000222c00007b
:101ee80035300000383000000d0a00000a000000fc
:101ef800415400002b4b0000544300005053000095
:101f080054410000525400003d3100000d0a000009
:101f1800004300004f4e00004e45000043540000af
:101f280000410000542b00004b54000043500000b7
:101f3800434c00004f530000453d0000312c000089
:101f4800310d00000a000000415400002b4b000036
:101f58005443000050440000454c00003d3100004f
:101f68000d0a000000010000020300000400000048
:101f78000d0a00002f2a00002a2a00002a2a000041
:101f88002a2a00002a2a00002a2a00002a2a0000f9
:101f98002a2a00002a2a00002a2a00002a2a0000e9
:101fa8002a2a00002a2a00002a2a00002a2a0000d9
:101fb8002a2a00002a2a00002a2a00002a2a0000c9
:101fc8002a2a00002a2a00002a2a00002a2a0000b9
:101fd8002a2a00002a2a00002a2a00002a2a0000a9
:101fe8002a2a00002a2a00000d0a0000004e0000dc
:101ff800743a0000000d00000a2a00002a2a000096
:102008002a2a00002a2a00002a2a00002a2a000078
:102018002a2a00002a2a00002a2a00002a2a000068
:102028002a2a00002a2a00002a2a00002a2a000058
:102038002a2a00002a2a00002a2a00002a2a000048
:102048002a2a00002a2a00002a2a00002a2a000038
:102058002a2a00002a2a00002a2a00002a2a000028
:102068002a2a00002a2a00002a2a00002a2f000013
:102078000d0a0000000d00000a5300007461000002
:1020880072740000204700005052000053210000e5
:10209800212100003a0000000d0a0000000d000098
:1020a8000a5300007461000072740000205300009d
:1020b800616d0000706c00006521000021210000a6
:1020c8003a00000036370000130000001224000018
:1020d800ff25000037130000ff3600000012000043
:1020e80024250000363700002512000000ff0000fc
:1020f80013240000363700001300000025ff0000fd
:10210800122400003713000024250000ff360000c9
:1021180000120000361300000024000025ff000014
:1021280037120000361300000012000024250000ba
:10213800ff3700003637000013ff000000120000d0
:102148002425000036370000130000001224000088
:1021580025ff00003637000013000000242500008a
:10216800ff12000000020000080a00000c0e000028
:102178001000000031320000333400003537000011
:1021880038390000303100003233000034350000a7
:1021980036370000383900003000000053310000a5
:1021a8005f7400003a0000003b0900005331000052
:1021b8005f6300003a0000003b0d00000a53000076
:1021c800325f0000743a0000003b00000953000031
:1021d800325f0000633a0000000d00000a7300003f
:1021e800743a0000002000001710000006120000da
:1021f8003007000001030000006400000002000036
:0422080085d4000079
:020000040000fa
:10220c000000fa000080eb00402c88003000200019
:10221c00502c88009a25ef00d02c8000c02c880010
:10222c00c02c8000902c8800902c8000802c880082
:10223c00b225ef00902d8000802d8800802d80002d
:10224c00102d8800102d8000002d880040002000eb
:10225c00002c8800f00f2800102c88002000200093
:10226c00302c8800112c8000f07f2c000080600046
:10227c00102c8800b0002800202c88000080fa0068
:10228c00000006000200fa00004f78001147980089
:10229c009e4090001e407800020007000080fa006b
:1022ac00000006000400fa0020479800314798000f
:1022bc002e4090008080fb0020012000000178005f
:1022cc00110009008280d800004f78002e40900049
:1022dc008080fb0020012000000178001100090023
:1022ec008280d8008000fd00104798001e80fb0003
:1022fc00e10f500039003200e10f500003003c00a8
:10230c000000e00006003200c1003700e20f500070
:10231c0061003200e30f50008e003200bc00370029
:10232c001e409000ef4f5000170036003e409000ca
:10233c000004e000090032001e4090000080fb0009
:10234c006f006000110020000008dd0080007800a4
:10235c00902c800001007000090037001e40900096
:10236c000080fb006f006000110020000008dd0001
:10237c000080ea0080007800902c800000806000d3
:10238c00902c8800a20037003e4090000004e00032
:10239c00080032001e4090000080fb00110020005d
:1023ac000008dd0080007800802c800001007000a7
:1023bc00080037001e4090000080fb001100200038
:1023cc000008dd000080ea0080007800802c80008e
:1023dc0000806000802c88008d0037001e4090002b
:1023ec00ef4f5000170036003e4090000004e00014
:1023fc00090032001e4090000080fb006f0060005e
:10240c00110020000008dd0080007800d02c800036
:10241c0001007000090037001e4090000080fb0096
:10242c006f006000110020000008dd000080ea0051
:10243c0080007800d02c800000806000d02c8800b8
:10244c00730037003e4090000004e00008003200aa
:10245c001e4090000080fb00110020000008dd00f1
:10246c0080007800c02c800001007000080037004c
:10247c001e4090000080fb00110020000008dd00d1
:10248c000080ea0080007800c02c80000080600092
:10249c00c02c88005e0037001e409000ef4f5000ab
:1024ac00170036003e4090000004e00009003200a6
:1024bc001e4090000080fb006f00600011002000a7
:1024cc000008dd0080007800102d800001007000f5
:1024dc00090037001e4090000080fb006f00600078
:1024ec00110020000008dd000080ea008000780068
:1024fc00102d800000806000102d880044003700f3
:10250c003e4090000004e000080032001e409000a5
:10251c000080fb00110020000008dd008000780026
:10252c00002d800001007000080037001e40900054
:10253c000080fb00110020000008dd000080ea0094
:10254c0080007800002d800000806000002d880045
:10255c002f0037001e409000ef4f50001700360040
:10256c003e4090000004e000090032001e40900044
:10257c000080fb006f006000110020000008dd00ef
:10258c0080007800502d8000010070000900370099
:10259c001e4090000080fb006f00600011002000c6
:1025ac000008dd000080ea0080007800502d8000db
:1025bc0000806000502d8800150037003e409000d0
:1025cc000004e000080032001e4090000080fb0078
:1025dc00110020000008dd0080007800402d8000f4
:1025ec0001007000080037001e4090000080fb00c6
:1025fc00110020000008dd000080ea008000780057
:10260c00402d800000806000402d880000000000fc
:10261c000080fa00000006000400fa002047980031
:10262c003147980010c0b300104798000040eb00f1
:10263c00004f7800260037002e4090008080fb0071
:10264c001e80fb00c308dd000080400061062900ed
:10265c0061407800e14f400006003a001e409000b7
:10266c000004e000030032000040eb00104798002b
:10267c00160037002e4090008080fb001e80fb006f
:10268c00c308dd000080400061062900614078002d
:10269c008080fb003e4090000080fb00620b290014
:1026ac00624078000080fb008080400080042000a5
:1026bc0000017800110009008200d8008000fd00a4
:1026cc00004078009e409000f6fe07001e4fe80088
:1026dc001e407800e74f5000d7ff36000080fa000c
:1026ec00000006000200fa00004f78001e80fb007c
:1026fc00e10f500017003200e10f500003003c00c6
:10270c000000e0000600320039003700e20f5000f4
:10271c001d003200e30f5000280032003400370057
:10272c0011c0b300b0c3b300defe07008040eb0065
:10273c0090c2b300dbfe07008040eb0070c1b30019
:10274c00d8fe07008040eb0050c0b300d5fe070058
:10275c003400370011c0b300b0c3b300d1fe070082
:10276c0011c0b30090c2b300cefe07008040eb0056
:10277c0070c1b300cbfe07008040eb0050c0b3002b
:10278c00c8fe07002700370011c0b300b0c3b30068
:10279c00c4fe070011c0b30090c2b300c1fe070015
:1027ac0011c0b30070c1b300befe07008040eb0047
:1027bc0050c0b300bbfe07001a00370011c0b300b5
:1027cc00b0c3b300b7fe070011c0b30090c2b30092
:1027dc00b4fe070011c0b30070c1b300b1fe070016
:1027ec0011c0b30050c0b300aefe07000d0037009f
:1027fc008040eb00b0c3b300aafe07008040eb00a2
:10280c0090c2b300a7fe07008040eb0070c1b3007c
:10281c00a4fe07008040eb0050c0b300a1fe0700ef
:10282c00000000000080fa00000006000200fa0020
:10283c00004f78001e80fb00e20f500017003200a2
:10284c00e20f500003003c00e10f50000600320084
:10285c0039003700e30f50001d003200e40f500028
:10286c00280032003400370011c0b300c0c3b300dd
:10287c008cfe07008040eb00a0c2b30089fe07006d
:10288c008040eb0080c1b30086fe07008040eb0067
:10289c0060c0b30083fe07003400370011c0b300e2
:1028ac00c0c3b3007ffe070011c0b300a0c2b300c9
:1028bc007cfe07008040eb0080c1b30079fe07006e
:1028cc008040eb0060c0b30076fe070027003700a5
:1028dc0011c0b300c0c3b30072fe070011c0b30037
:1028ec00a0c2b3006ffe070011c0b30080c1b300db
:1028fc006cfe07008040eb0060c0b30069fe07006f
:10290c001a00370011c0b300c0c3b30065fe070046
:10291c0011c0b300a0c2b30062fe070011c0b30027
:10292c0080c1b3005ffe070011c0b30060c0b300ec
:10293c005cfe07000d0037008040eb00c0c3b30005
:10294c0058fe07008040eb00a0c2b30055fe070004
:10295c008040eb0080c1b30052fe07008040eb00ca
:10296c0060c0b3004ffe0700000000000080fa00ba
:10297c00000006000a00fa00889fbe00200798009d
:10298c0031079800024f98000040eb001047980068
:10299c0060c0b300004f7800250037002e00900077
:1029ac00be00900073f907000004be001e00fb007f
:1029bc00cf80de006cf907000001be000000200093
:1029cc0001122400c0f907000001be000800be007f
:1029dc0008f9070049f90700a200200003002000b5
:1029ec00acfa0700204798002e4090000004e0004d
:1029fc000700320010c0b300104798001e4078004a
:102a0c00804078002e40900003ff0700070037003d
:102a1c001e4090000004e000040032001e407800cc
:102a2c00804078002e409000fbfe07001e4fe9000e
:102a3c001e4078000004e000d8ff3d004f04be00ab
:102a4c000080fa00000006000200fa00004f780037
:102a5c001e80fb00e20f500017003200e20f500006
:102a6c0003003c00e10f5000060032003900370033
:102a7c00e30f50001d003200e40f5000280032001c
:102a8c003400370011c0b30010c0b30005fe0700be
:102a9c008040eb0030c0b30002fe07008040eb002a
:102aac0090c0b300fffd07008040eb00b0c0b30046
:102abc00fcfd0700340037008040eb0010c0b30071
:102acc00f8fd070011c0b30030c0b300f5fd0700de
:102adc008040eb0090c0b300f2fd07008040eb009b
:102aec00b0c0b300effd0700270037008040eb00bb
:102afc0010c0b300ebfd07008040eb0030c0b3000a
:102b0c00e8fd070011c0b30090c0b300e5fd07005d
:102b1c008040eb00b0c0b300e2fd07001a003700a4
:102b2c008040eb0010c0b300defd07008040eb00de
:102b3c0030c0b300dbfd07008040eb0090c0b30059
:102b4c00d8fd070011c0b300b0c0b300d5fd07001d
:102b5c000d0037008040eb0010c0b300d1fd070022
:102b6c008040eb0030c0b300cefd07008040eb008e
:102b7c0090c0b300cbfd07008040eb00b0c0b300a9
:102b8c00c8fd0700000000000080fa0000000600ed
:102b9c000200fa000040eb001047980011003700cb
:102bac000040eb00004f7800080037001e409000fa
:102bbc007200b90000007800004078001e40400010
:102bcc008040eb00b7fd07001e4fe8001e40780068
:102bdc00e34f5000f5ff36001e4090000040e80027
:102bec00104798001e409000e34f5000ecff360059
:102bfc000040eb00104798001100370080c0b30074
:102c0c00004f7800080037001e4090007200b90099
:102c1c0000007800004078001e4040008040eb002f
:102c2c00a0fd07001e4fe8001e407800f14f500039
:102c3c00f5ff36001e4090000040e8001047980059
:102c4c001e409000e34f5000ecff36000080fa006d
:102c5c00000006000200fa000040eb00104798004c
:102c6c00110037000040eb00004f780008003700df
:102c7c001e4090007200b9000000780000407800ff
:102c8c001e4040008040eb0086fd07001e4fe80010
:102c9c001e407800f14f5000f5ff36001e409000aa
:102cac000040e800104798001e409000e34f500091
:102cbc00ecff36000080fa00000006000800fa0065
:102ccc00710f290006000900315f78007e00b10009
:102cdc0050052000303b8800a00a2000303b8800c3
:102cec0027a6a800313180000030200001007000c0
:102cfc00303188001e4090000080fb00203188009d
:102d0c002e4090000080fb00c800dd003e4090008b
:102d1c000080fb0000804000203188004e40900075
:102d2c000080fb00203188005e4090000080fb009a
:102d3c00c800dd006e4090000080fb000080400069
:102d4c002031880023e6a90011318000f0cf2f003c
:102d5c00008060000090a000103188002026ef0059
:102d6c002026ef002026ef0000802d001031880077
:102d7c002826ef0011068000f08f2f008080600065
:102d8c000060200001007000100688008bc0a900b4
:102d9c009bc0a80027e6a80027a6a9000080fa007f
:102dac00000006000000fa00881f78005005200083
:102dbc00303b8800a00a2000303b880027a6a800e2
:102dcc0023e6a90000000000313180000000210042
:102ddc00008060000000e000fbff3a001131800031
:102dec00f0cf2f00008060000090a0001031880010
:102dfc000eb89700004078000c0207000080fb0022
:102e0c004804dd007eb09700004078000702070000
:102e1c000080fb0000004400003188002eb89700b1
:102e2c0000407800010207000080fb004804dd0030
:102e3c006eb0970000407800fc0107000080fb009a
:102e4c0000004400003188005eb09700004078001c
:102e5c00f60107000080fb004804dd004eb097002f
:102e6c0000407800f10107000080fb0000004400e6
:102e7c000031880027a6a90023e6a8004f0478009b
:102e8c000080fa00000006000400fa001007980009
:102e9c003231800000002100000061000000e000e1
:102eac00020032000040eb006e003700510520009c
:102ebc00313b8800a10a2000313b880027a6a800de
:102ecc00313180000030200001007000303188006a
:102edc0021318000010f7800000f20001e006000df
:102eec004400de006a00b900800078001e01780002
:102efc006f00610000804000800078001e00900090
:102f0c005100980031318000f0cf2f00008060001c
:102f1c000090a0003031880021318000010f780032
:102f2c001e0078004c00de006a00b90080007800ba
:102f3c001e0078004800de006f006000008040003a
:102f4c00800078001e00900041009800000f2000c7
:102f5c001e0060004400de006a00b90080007800aa
:102f6c001e0178006f006100008040008000780036
:102f7c001e0090003100980031318000f0cf2f00fe
:102f8c00008060000080a00030318800213180007a
:102f9c00010f78001e0078004c00de006a00b900ba
:102fac00800078001e0078004800de006f00600092
:102fbc0000804000800078001e00900061009800a6
:102fcc00000f20001e0060004400de006a00b90003
:102fdc00800078001e0178006f00610000804000c6
:102fec00800078001e009000210098003131800094
:102ffc00f0cf2f000080600030318800213180003c
:10300c00010f78001e0078004c00de006a00b90049
:10301c00800078001e0078004800de006f00600021
:10302c0000804000800078001e0090001100980085
:10303c00000f20001e0060004400de006a00b90092
:10304c00800078001e0178006f0061000080400055
:10305c00800078001e0090000108780027a6a900c7
:10306c0010c0b3000080fa00000006000000fa0057
:10307c00881f780050052000303b8800a00a2000f3
:10308c00303b880027a6a80027e6a9008bc0a90022
:10309c009bc0a9003131800000302000010070007d
:1030ac00303188001eb89700004078005f0107009f
:1030bc000080fb00203188000eb89700004078009b
:1030cc005a0107000080fb004804dd007eb0970029
:1030dc0000407800550107000080fb000000440010
:1030ec00203188002eb89700004078004f0107006f
:1030fc000080fb004804dd006eb0970000407800b3
:10310c004a0107000080fb000000440020318800c9
:10311c005eb0970000407800440107000080fb007f
:10312c004804dd004eb09700004078003f010700d6
:10313c000080fb00000044002031880027e6a80036
:10314c0027a6a9009bc0a8004f0478000080fa00b5
:10315c00000006002600fa00e00b2900f2004700f0
:10316c0013000900b05878004001b10000000000c5
:10317c000e00780044ff07000004a2000004e000e9
:10318c00fbff3a00de009000a00020000001780058
:10319c00110009008200d800004078000043b00004
:1031ac0020579800de009000a0002000000178005d
:1031bc00110009008200d8008000fd00004078005a
:1031cc000043b00030579800f0c2b300405798004d
:1031dc00ce009000a0002000000178001100090032
:1031ec008200d800004078000043b000505798008f
:1031fc00ce009000a0002000000178001100090012
:10320c008200d8008000fd00004078000043b00030
:10321c0060579800f0c2b30070579800be00900041
:10322c00a000200000017800110009008200d800e5
:10323c00004078000043b000005f9800be00900092
:10324c00a000200000017800110009008200d800c5
:10325c008000fd00004078000043b000105f980033
:10326c00d0c2b300205f9800ae009000a0002000f8
:10327c0000017800110009008200d800004078009d
:10328c000043b000305f9800ae009000a00020001a
:10329c0000017800110009008200d8008000fd00b8
:1032ac00004078000043b000405f9800a0c3b3001a
:1032bc00505f98009e009000a00020000001780054
:1032cc00110009008200d800004078000043b000d3
:1032dc00605f98009e009000a00020000001780024
:1032ec00110009008200d8008000fd000040780029
:1032fc000043b000705f9800a0c3b3000067980053
:10330c009e007800a0002000000178001100090048
:10331c008200d800004078000043b000106798008d
:10332c009e007800a0002000000178001100090028
:10333c008200d8008000fd00004078000043b000ff
:10334c0020679800a0c0b300306798007200470057
:10335c0021c1b300730807000080fa0000000600ca
:10336c00d200fa00881f7800ea00470063000900c9
:10337c008018eb006a0447006a00470079fa0700de
:10338c000000440062002000210d290064fa0700af
:10339c006040800072408000e10061000000780015
:1033ac008e007800e20107008e0078006a0047006a
:1033bc0062fa07006a0447006a00470069fa0700ce
:1033cc000000440082002000810d290054fa0700ff
:1033dc00704080000000d1008e007800d4010700fe
:1033ec008e0078006a00470054fa07006a04470010
:1033fc006a0047005bfa07000000440092002000be
:10340c00010e290046fa070080408000924080009f
:10341c00e1006100000078008e007800c401070014
:10342c008e0078006a00470044fa07006a044700df
:10343c006a0047004bfa070000004400820020009d
:10344c00910e290036fa0700904080000000d10050
:10345c008e007800b60107008e0078006a004700e5
:10346c0036fa07006a0047004f0807004f0478003f
:10347c000080fa00000006004000fa00881f780067
:10348c00601f9800711f980018000900001feb00c6
:10349c002e03b1000e0478000e00780031fa0700fc
:1034ac000000440062002000110f29001cfa0700e4
:1034bc006e189000210320008e8040009c010700b4
:1034cc00210320008e8040000e0078001bfa0700bc
:1034dc000e007800340807004f0478000080fa00d2
:1034ec00000006000800fa00200798003107980039
:1034fc00ae009000110798000040eb00004f7800e0
:10350c000a0037001e80fb00be00900000804000c7
:10351c001e0190009e80fb00e380100081004100a2
:10352c0091407800014878001e4fe8001e4078005a
:10353c00e34f5000f3ff36000080fa000000060055
:10354c000800fa002007980031079800ae009000a0
:10355c00110798000040eb00004f78000a0037007c
:10356c009e0090001e80fb00008040009e80fb00af
:10357c00e38010003e0190008100410091407800f2
:10358c00014878001e4fe8001e407800e34f5000c1
:10359c00f3ff36000080fa00000006000800fa0075
:1035ac002007980031079800ae0090001107980092
:1035bc000040eb00004f78000a0037001e80fb0033
:1035cc00be009000008040001e0190009e80fb0019
:1035dc00e78010008100410091407800014878009c
:1035ec001e4fe8001e407800e74f5000f3ff3600f6
:1035fc000080fa00000006000200fa00004f78007c
:10360c001e80fb004400de00004078006a00b90018
:10361c0000007800804078001e4178006f40610007
:10362c0000c040000080fa00000006000400fa0010
:10363c00004f78009e80fb00a00020000001780065
:10364c00110009008280d800004078000080fb0047
:10365c004400dd0000407800204798001e81fb00ec
:10366c00a000200080017800110009000381d8001f
:10367c008000fd00004078006f406000ae4090007c
:10368c0000c070000080fa00000006000600fa007e
:10369c00000f780011079800220798001e00900078
:1036ac009e007800808f5000020036000040eb0036
:1036bc00070037002e0090009e007800808f50008d
:1036cc00020031000040eb000100370010c0b300d5
:1036dc000080fa00000006000a00fa0010079800ab
:1036ec002207980033079800410798001e009000ad
:1036fc0010007800c800dd001e0090000080e8007b
:10370c0010007800008f40001e0078006101b800a6
:10371c002e009000be009000800f5100818f590048
:10372c0004003600ae0090001e00900001087800e6
:10373c00070037004e0090009e007800808f5000ec
:10374c00030031001e009000ce00900001087800ac
:10375c000080fa00000006000600fa00100798002e
:10376c00414798000040eb00004f78001b003700e9
:10377c001e80fb009e00900000804000904078006e
:10378c00114798001e80fb009e00900000804000b6
:10379c00ce4090008180fb000101e9009e80fb007f
:1037ac00810051001e019000810041009140780081
:1037bc00014878004e4090000080fb008000e9003a
:1037cc001e80fb00008050009e0090000080400096
:1037dc009e409000014878001e4fe8004e4090003b
:1037ec000080fb000000d100004078009e4f50008c
:1037fc00dfff3e000080fa00000006000200fa0025
:10380c00000f78000621ef009e00780010272000a2
:10381c000088b90080007800a0002000000178002a
:10382c00110009008280d8006008880084e0a9009b
:10383c0011e1a80000000000210480000008200015
:10384c00008060000000e000fbff320011e1a900e5
:10385c0084e0a9000080fa00000006000400fa00d1
:10386c0020479800090037000000eb00000f78009b
:10387c0002003700000000001e0fe800709d2500bc
:10388c009e007800808f5000faff360010c0b30005
:10389c00ae4090000104e00001003c000040eb0051
:1038ac00ae4090008140e900214798000004e00000
:1038bc00edff3a000080fa00000006000600fa0056
:1038cc00404798000e0037006000b800008fbe0023
:1038dc00050037000000000012002000030020004b
:1038ec001e0f41005e97490030e82d0011002000aa
:1038fc001e01be00800f5100818f5900f5ff36006c
:10390c0010c0b300ce4090000104e00001003c0068
:10391c000040eb00ce4090008140e9004147980008
:10392c000004e000e8ff3a000080fa000000060006
:10393c000600fa00404798000e0037006000b800ff
:10394c00008fbe00050037000000000012002000b0
:10395c00030020001e0f41005e97490070832d006c
:10396c00210120001e01be00800f5100818f5900e3
:10397c00f5ff360010c0b300ce4090000104e0000b
:10398c0001003c000040eb00ce4090008140e9007b
:10399c00414798000004e000e8ff3a000080fa007c
:1039ac00000006000400fa00204798000040eb00dd
:1039bc00004f780003003700803e20008fff070087
:1039cc001e4fe8009e80fb002e4090000000fb0084
:1039dc00808f5000f8ff35000080fa0000000600d0
:1039ec000800fa0010079800210798006247980019
:1039fc000040eb00004f7800090037001e80fb00f0
:103a0c009e009000008040009e80fb002e019000e4
:103a1c008100410091407800014878001e4fe80079
:103a2c006e4090009e40780080cf5000f3ff39002c
:103a3c000080fa00000006000600fa00100798004b
:103a4c0041479800524798000040eb00004f780027
:103a5c00060037001e80fb009e0090000080400096
:103a6c00ce409000014878001e4fe8005e40900068
:103a7c009e40780080cf5000f6ff39000080fa009d
:103a8c00000006000800fa001007980021079800b3
:103a9c00624798000040eb00004f78000d003700a3
:103aac001e80fb009e00900000804000904078003b
:103abc001e80fb002e019000000041001040780099
:103acc0080cf5000020032000040eb0006003700af
:103adc001e4fe8006e4090009e40780080cf500052
:103aec00efff390010c0b3000080fa0000000600a0
:103afc000400fa00000f7800214798001e0078009f
:103b0c00804078002e4090000080fb001e01780061
:103b1c000011de002e4090000080fb000010dd0044
:103b2c000040780000c050000080fa000000060041
:103b3c001000fa0050079800610798000040eb0055
:103b4c00004f78005e009000100798001e00900057
:103b5c000000e0001e003a006e00900001c3b300ac
:103b6c00014878006e0090000000e8008040eb00f7
:103b7c000148780010c0b30010479800340037009b
:103b8c001e80fb00e4004700808040007107980015
:103b9c001e019000a1002000810178001100090095
:103bac000381d800814078000143b0007e00900072
:103bbc00014878001e4fe8009e009000a0002000f5
:103bcc0000017800110009008280d80010079800cd
:103bdc001e0090000000e000e9ff3a009e417800d2
:103bec00134798001e4fe8000c0037001e80fb00a6
:103bfc000000e900ee009000008040009e40900024
:103c0c000181fb009e80fb00810051006401470094
:103c1c008100410091407800014878001e80fb0033
:103c2c000000ea004f00de00004078001e4fe90063
:103c3c000004e000edff3a001e4090000080fb0005
:103c4c00ee009000008040008040eb0001487800be
:103c5c001e4090000080fa00000006000200fa00ee
:103c6c0032c8bf008080fb0033c8bf000080fb005f
:103c7c000000e900808f500003003a0030118000f2
:103c8c00004f78000c00370032c8bf000080fb00ea
:103c9c00311180000141780001842000827078008d
:103cac0032c8bf000040e80032e8b70032c8bf009d
:103cbc00f043b20032e8b7000080fa0000000600c2
:103ccc000200fa000040eb00004f780034c8bf003f
:103cdc008080fb0035c8bf000080fb000000e900bd
:103cec00808f500003003a00b0118000004f780024
:103cfc000c00370034c8bf000080fb00b1118000fd
:103d0c0001417800018820008270780034c8bf001f
:103d1c000040e80034e8b70034c8bf00f043b200fc
:103d2c0034e8b7000080fa00000006000200fa0038
:103d3c000040eb00004f780036c8bf008080fb00cd
:103d4c0037c8bf000080fb000000e900808f5000e6
:103d5c0003003a00b0128000004f78000c003700ce
:103d6c0036c8bf000080fb00b11280000141780012
:103d7c00018c20008270780036c8bf000040e8003b
:103d8c0036e8b70036c8bf00f043b20036e8b700db
:103d9c000080fa00000006000200fa00000f780014
:103dac00318320009140780032c8bf0080cf500092
:103dbc0002003a000040eb000d00370033c8bf0092
:103dcc000080fb0001842000e14078001e00780098
:103ddc000148780033c8bf000040e80033e8b70062
:103dec0033c8bf00f043b20033e8b70010c0b300d3
:103dfc000080fa00000006000200fa00000f7800b4
:103e0c00518320009140780034c8bf0080cf50000f
:103e1c0007003a0090118000620060000000e00092
:103e2c00010032003222a9000040eb000d003700e7
:103e3c0035c8bf000080fb0001882000e1407800fd
:103e4c001e0078000148780035c8bf000040e8002b
:103e5c0035e8b70035c8bf00f043b20035e8b7000d
:103e6c0010c0b3000080fa00000006000200fa0047
:103e7c00000f7800718320009140780036c8bf0095
:103e8c0080cf500007003a00901280006200600062
:103e9c000000e000010032005222a9000040eb00bb
:103eac000d00370037c8bf000080fb00018c2000dc
:103ebc00e14078001e0078000148780037c8bf0048
:103ecc000040e80037e8b70037c8bf00f043b20045
:103edc0037e8b70010c0b3000080fa0000000600fd
:103eec000800fa00300798000040eb00004f780003
:103efc000040eb00104798000040eb002047980072
:103f0c000040eb00404798003e009000604090005d
:103f1c000004e000040032003e00900020409000bd
:103f2c000004e00036003a000040eb00ad00370022
:103f3c003e009000900078001e4090000080fb0036
:103f4c0000804000904078003e00900020009000df
:103f5c001040780080cf500022003a0010c0b3000f
:103f6c00204798001a0037003e009000900078001f
:103f7c001e4090000081fb002e4090000080fb0052
:103f8c000000410000804000904078003e0090000e
:103f9c00200190002e4090000080fb0000004100aa
:103fac001040780080cf500006003a0010c0b300db
:103fbc00004f78002e4090000040e8002047980009
:103fcc00030037000040eb00004f7800050037007d
:103fdc003e009000e04090002e40900080cf5000ba
:103fec00e1ff3e001e4078000004e0000b003a00a8
:103ffc001e4090000040e800104798000100370078
:10400c00000000003e009000a04090001e40900078
:10401c0080cf5000c6ff3e000100370000000000ba
:10402c001e4078000004e0006a0032003e00900060
:10403c00a04890003e0090006040900080cf50005f
:10404c001a0031003e009000a048900041479800b3
:10405c000040eb00304798000f0037003e00900006
:10406c00c00090003e4090000080fb0000804000ab
:10407c00be00900021019000be4090008180fb00aa
:10408c008100410091407800014878003e4090004a
:10409c000040e80030479800be4090004e40900031
:1040ac0080cf5000edff3900450037003e009000f6
:1040bc00204090008080fb001e4090000080fb00a0
:1040cc00808050003e009000204890000080fb0053
:1040dc00808f500020003d000040eb0030479800de
:1040ec00120037003e009000c00090003e4090004f
:1040fc000080fb0000804000be00900011017800a1
:10410c009e4090008181fb00be4090008180fb00ae
:10411c008180410081004100914078000148780085
:10412c003e4090000040e800304798003e40900030
:10413c008080fb003e009000204090000081fb003e
:10414c001e4090000080fb0000005100808f50004a
:10415c00e4ff35001a0037000040eb0030479800b0
:10416c00120037003e009000c00090003e409000ce
:10417c000080fb0000804000be0090001101780020
:10418c009e4090008181fb00be4090008180fb002e
:10419c008180410081004100914078000148780005
:1041ac003e4090000040e800304798003e009000f0
:1041bc00a04890003e40900080cf5000e9ff3100b5
:1041cc003e009000be4090003148980010c0b300f3
:1041dc00040037003e0090008040eb00314898000e
:1041ec000040eb000080fa00000006000800fa0016
:1041fc001007980021079800624798000040eb00d8
:10420c00004f7800080037001e80fb00ae009000c5
:10421c00008040009e009000010001000004e000be
:10422c00050032001e4fe8006e4090009e4f50007b
:10423c00f5ff3e0001003700000000001e40780032
:10424c000080fa00000006000400fa001007980035
:10425c00000000009e0090000e007800010001009c
:10426c000004e000fbff3a000080fa0000000600aa
:10427c000000fa00d8c2a900d8e2a900d822a900ef
:10428c00d802a900d882a900d8a2a900dce2a90012
:10429c00dcc2a900dca2a900dc82a900dc22a900f6
:1042ac00dc02a9000080fa00000006004800fa00b9
:1042bc0000279800112798002227980063c79800c0
:1042cc0074c798000040eb00004f78000040eb00f2
:1042dc00104798001e4fe8000e209000bc0307000a
:1042ec0030c0b300affd0700ef0307006e004700be
:1042fc00100798001e00900022c3b30080007800c5
:10430c0020f02100b9ff0700404798009e20900044
:10431c0031079800eec09000014f98000000eb00b0
:10432c00500798000040eb00404f98000040eb0015
:10433c00504f98000e80e800e9fe07000004e000f2
:10434c000300320010c0b300104798000f00370074
:10435c002e2090000000e00009003200ae209000fa
:10436c00310798000e80e800ddfe07000004e00035
:10437c000300320010c0b300104798000300370050
:10438c007ec090009e4f5000d2ff3e0020f02100d6
:10439c00adff07001e4090000080fa0000000600f0
:1043ac001a00fa00e1004700180009008058eb00e1
:1043bc00dce2a800dcc2a800dca2a900dc82a90017
:1043cc00dc22a900dc02a90010c0b30075fd0700b7
:1043dc0024c0b30023c0b3000001eb0051ee280051
:1043ec00c0ec2800b1ff07000004e0003a003200e6
:1043fc0024c0b30083c0b3000001eb0031ef2800f0
:10440c0080ee2800a9ff07000004e0002f00320016
:10441c00a4c0b30023c0b30042f2280011f228005c
:10442c00a0f02800a1ff07000004e00024003200e7
:10443c0034c0b30023c0b3000001eb0051ee2800e0
:10444c0010f3280099ff07000004e0001900320067
:10445c0034c0b30023c0b3000001eb0051ee2800c0
:10446c000090200091ff07000004e0000e003200d5
:10447c0054c0b30073c0b3000001eb00d1f82800a6
:10448c00c0f7280089ff07000004e0000300320099
:10449c000040eb00004f78001100370060c0b30003
:1044ac00004f78000e00370050c0b300004f78006a
:1044bc000b00370040c0b300004f780008003700f5
:1044cc0030c0b300004f78000500370020c0b300a7
:1044dc00004f78000200370010c0b300004f780086
:1044ec001e80fb000000ea004f00de000040780058
:1044fc000080fa00000006002000fa0020f02100e5
:10450c0051ff0700dc22a80010c0b30025fd0700f6
:10451c00dc22a9002e0f98002e08900042c1b30097
:10452c008000780020f0210030ff070060579800d1
:10453c0050ee2800400f980020c0b300205f980078
:10454c000000eb00600f98000040eb00605f9800eb
:10455c000040eb00705f98007400470060fe07009d
:10456c000004e000e7ff3a0024c0b30023c0b3000e
:10457c000001eb0051ee280050f928004bff07001a
:10458c000004e0000600320024c0b30023c0b300d6
:10459c000001eb0051ee280080fa280043ff0700d1
:1045ac0010c0b300fffc0700dce2a900dcc2a900cc
:1045bc00dca2a900dc82a900dc22a900dc02a90093
:1045cc00f10207000080fa00000006002000fa004b
:1045dc00e20047000b0009008018eb008058eb004c
:1045ec007b01470071fb280003000900315978005a
:1045fc000040eb001047980017c8bf000080fb007c
:10460c008e80e8004afd0700104798001e4090007d
:10461c000080fb0000004700e1c2b300214098007d
:10462c001e4090000080fb000000e80000004700e6
:10463c008040eb00214098001e4090000040e800b4
:10464c001047980016c8bf000080fb00fb00470015
:10465c0037fd07009e40900000c0400010479800b6
:10466c00fb0047000e80e800b4f507001e409000e8
:10467c000080fb0000004700e1c2b300214098001d
:10468c001e4090000080fb000000e8000000470086
:10469c008040eb00214098001e4090000040e80054
:1046ac001047980015c8bf000080fb00fb004700b6
:1046bc001ffd07009e40900000c04000104798006e
:1046cc00fb0047000e80e8009cf507001e409000a0
:1046dc000080fb0000004700e1c2b30021409800bd
:1046ec001e4090000080fb000000e8000000470026
:1046fc008040eb00214098001e4090000040e800f4
:10470c001047980014c8bf000080fb00fb00470056
:10471c0007fd07009e40900000c040001047980025
:10472c00fb0047000e80e80084f507001e40900057
:10473c000080fb000000470021c2b300214098001c
:10474c001e4090000080fb000000e80000004700c5
:10475c00c1c2b300214098001e4090000080fb00b5
:10476c000080e800000047008040eb0021409800ea
:10477c001e40900000c0e80010479800c040800028
:10478c00fb004700eafc07009e40900000c0400080
:10479c0010479800fb0047000e80e80067f5070003
:1047ac001e4090000080fb0000004700d1c0b30009
:1047bc00214098001e4090000080fb000000e800a3
:1047cc0000004700a1c0b300214098001e4090009b
:1047dc000080fb000080e800000047008040eb00f8
:1047ec00214098001e40900000c0e800104798003f
:1047fc000040eb00004f78000a0037001e80fb00e1
:10480c00f000400000902000008040009e80fb00e3
:10481c000e81e80081004100914078000148780049
:10482c001e4fe8001e4090009e40780080cf500044
:10483c00f2ff39000080fa00000006000000fa00c8
:10484c00b0c8b30017e8b70040ccb30016e8b70007
:10485c00a0c7b30015e8b700f0c9b30014e8b7005f
:10486c00803d2100c04088003140800000802f0036
:10487c00008060000000a0003040880041408000b3
:10488c0000002800008060003000b3004040880029
:10489c000b08a9000b28a90030c0b3000ae8b70028
:1048ac000b68a8000080fa00000006001400fa0053
:1048bc0046ff07002e02070010c0b3003ce8b7000b
:1048cc00b7fe07000004a2000004e0000d00320057
:1048dc0020c0b3003ce8b70010c0b30031fc0700a7
:1048ec008e00780010002000a00307006300470032
:1048fc0041c0b3004902070010c0b30029fc0700f7
:10490c000200370060c0b3003ce8b700fafe0700b5
:10491c000080fa00000006005a00fa00e10f29009e
:10492c0007000900315f78008e00b100f4004700e9
:10493c00090009008018eb0010c0b3004057980024
:10494c0030c0b3005057980040c0b3006057980077
:10495c008e0078008102b000180009008018eb006e
:10496c00810020000e007800ee02070010c0b3009a
:10497c000cfc0700740047006007980030c0b300bf
:10498c00604f980074004700000f980090c0b3006f
:10499c0020579800800220000e004000400798002d
:1049ac00800220000e00400022c3b300800078007b
:1049bc0020ed21000dfe0700204f980068004700f5
:1049cc0047fd07000080fa00000006000000fa0016
:1049dc005140800000802000008060000000e0005a
:1049ec00110032000b68a900a00020006040880074
:1049fc000e08a9007040800061006000c000b30088
:104a0c00704088001028ef001208a9009040800028
:104a1c00610060009040880060408000724080001f
:104a2c00e10061005d0037001ac8bf008080fb0008
:104a3c00704080000000d1000000e900808f500021
:104a4c000a003d000b88a8001ac8bf000040e8000f
:104a5c001ae8b7001ac8bf0026e8b700604080000b
:104a6c0072408000e10061004c0037008040800003
:104a7c0092408000e1006100e00f5000e08f580090
:104a8c0034003200904080000000a1000000e000e3
:104a9c001e00320090408000610060009040880051
:104aac000ba8a8001a68ef006240800070408000dc
:104abc00e10160008040800094408000e1006200d1
:104acc000000510081805900f2ff2f0013002000dc
:104adc0080027800810078000202780003007800e0
:104aec0004826200008060008000eb00c000dd00ea
:104afc00000020000001be006120b8000001710020
:104b0c00818171000200be00240037001ac8bf006a
:104b1c000040e80026e8b700904080000000d1007b
:104b2c000000e80080007800f0ff270000806000a3
:104b3c000000400091408000e180600001007000a6
:104b4c00904088008040800092408000e10061002d
:104b5c00120037001ac8bf000040e80026e8b70072
:104b6c000ba8a800504080004d00de0061406000a2
:104b7c000080fb00610060004c00dd0051408000b3
:104b8c0001c0a10001007000504088001a68ef00bd
:104b9c006040800072408000e10061000080fa00fb
:104bac00000006001e00fa00500f9800610f9800dc
:104bbc000000000068004700b3f807000000e000a8
:104bcc00fcff32004e0090006101b9005e089000bd
:104bdc00ee089000001f4100019749001e00be0026
:104bec00c2032000030020002af207000000780016
:104bfc00400798001e00be00c203200003002000e6
:104c0c0014f2070020079800310798002e0090003e
:104c1c00be009000e00f5000e08f580029003200d9
:104c2c005e0090006101b9002e009000be00900063
:104c3c00001f4100019749001e00be00c203200066
:104c4c000300200013f207000000780050079800c2
:104c5c001e00be00c203200003002000fdf107006f
:104c6c0020079800310798002e009000be0090009d
:104c7c00e00f5000e08f5800120032006e009000e0
:104c8c006101b9002e009000be009000001f410091
:104c9c00019749001e00be00820120000300200085
:104cac00fcf1070000007800600798001e00be00b1
:104cbc008201200003002000e6f107002007980085
:104ccc0031079800f287470072805700e8004700d0
:104cdc0008000900311878002001b10031f80700f4
:104cec00f28757000080fa00000006000200fa006c
:104cfc00004f780095030700e4a2a900e4c2a900c4
:104d0c00c0122000bdfa07009e40780061c0600010
:104d1c0061406000614060000080fb006100600049
:104d2c004500dd00211780000150a100010070003a
:104d3c00201788001e80fb000000d1000040780086
:104d4c006140600061406000614060000080fb00d9
:104d5c00610060004600dd00211780000160a100a9
:104d6c000100700020178800a0002000a3fa0700a3
:104d7c00710307000080fa00000006000200fa0030
:104d8c00e0a2a900e0c2a90030c0b300d7ff070021
:104d9c00c012200099fa07000040eb00004f780089
:104dac000600370061c0b3000094200089010700a1
:104dbc00a000200091fa07001e4fe8001e4078006a
:104dcc00e24f5000f7ff360010c0b300c7ff0700da
:104ddc000080fa00000006004e00fa0060279800e0
:104dec0010c0b300204f980030c0b300304f980073
:104dfc0040c0b300404f98009a0107007a0047006a
:104e0c00a2c0b30080007800c0f32100f7fc0700bb
:104e1c00005798008e50900020c3b30080cf5000f4
:104e2c000200360020c3b300005798007a004700f8
:104e3c00700798006a004700100f980030c0b3004c
:104e4c00405798003e0f980080c0b300005f980058
:104e5c000040eb00105f98006e00470020fc07003c
:104e6c001e589000e94f50000d003a0067004700b3
:104e7c000001780071c0b3000e0078002e0007000e
:104e8c000004e00006003200630047008000780058
:104e9c006e209000aaf9070010c0b3000100370083
:104eac000040eb000080fa00000006001400fa003d
:104ebc0009000900001feb004e01b10010c0b30047
:104ecc001047980010c0b3002047980020c1b300d1
:104edc003047980040c3b3004047980000c2b3006d
:104eec005047980000c3b3006047980020c4b3003b
:104efc007047980010c0b3007cff070040062000ec
:104f0c003efa07001103070081c0b3000e007800c1
:104f1c0030010700a000200038fa07000603070044
:104f2c00a00020009ffa070020c0b3006fff07000d
:104f3c000080fa00000006000c00fa003007980010
:104f4c00014f9800520798000080eb002007980052
:104f5c000000eb00000f7800210037003e009000ad
:104f6c001e004000104078000080fb00ae00900056
:104f7c0000806800200798000000eb0010079800e4
:104f8c00130037002e009000610060000040780094
:104f9c000004e000080032002e0090000000d10058
:104fac0020079800ae00900010002a0000806800d6
:104fbc0020079800030037002e0090000000d1005d
:104fcc00200798001e0090000000e80010079800d1
:104fdc001e009000e70f5000eaff36001e0fe8009d
:104fec000e4890000080fb009e0f5000dbff3e003f
:104ffc005e009000104078008080fb005e00900006
:10500c000000e800104078000080fb004800dd0044
:10501c0000804000800078002e0090000080680026
:10502c0000f0a7000000ea000000e9004f00de00dd
:10503c00004078000080fa00000006000c00fa0026
:10504c003007980041079800224f98006000b80084
:10505c00008fbe000000eb00200798000c0037000a
:10506c003e009000104078000080fb008000eb00b8
:10507c001e0f40005e9748003e0090000000e800c4
:10508c00300798002e0090000000e80020079800e0
:10509c00ae0090004e009000808f5000f0ff390061
:1050ac002e4890000082fb008002eb00f00f2000e5
:1050bc00010020001e01be000203780003017800ed
:1050cc008001780001007800030363000000610098
:1050dc008000eb00c000dd00000020000001be00dd
:1050ec006130b800000171008181710002006a001a
:1050fc0083806a000080700000f0a7000000ea00c6
:10510c000000e9004f00de00004078000080fa004b
:10511c00000006000000fa00d842a800d862a900de
:10512c003062a90030032000c0118800811180007a
:10513c0090ff2f0000806000801188003002a900d1
:10514c0031e2a8003342a80091118000000c20002d
:10515c00010070009011880097c0a80087c0a900ba
:10516c009c40a8008c40a9000080fa0000000600ba
:10517c000000fa0031e2a8003342a80097c0a80052
:10518c000080fa00000006000000fa0097c0a90099
:10519c003342a80031e2a9000080fa0000000600aa
:1051ac000200fa00004f78001e80fb00a01188005e
:1051bc0000000000911180000010200000806000b1
:1051cc000000e000fbff32000080fa000000060047
